:10000000A1C00000BBC00000B9C00000B7C0000024
:10001000B5C00000B3C00000B1C00000AFC0000018
:10002000ADC00000ABC000000C941B0E0C94E00EA1
:10003000A5C00000A3C00000A1C000009FC0000038
:100040009DC000009BC0000099C0000097C0000048
:1000500095C0000093C0000091C000000C947A0A83
:100060008DC000008BC0000089C0000087C0000068
:1000700085C0000083C0000081C000007FC0000078
:100080007DC000007BC0000079C0000077C0000088
:1000900075C0000073C0000071C000006FC0000098
:1000A0006DC000006BC0000069C0000012011001AB
:1000B00000000008EB0345200000010200010902D6
:1000C00020000101008032090400000208065000EF
:1000D00007058302400000070504024000000403F6
:1000E00009041E035300610066006500630061009F
:1000F0007300740020004A006100700061006E000F
:1001000000001803420065006E0074006F00470095
:100110006500690067006900650000005220256CD9
:10012000692025690D0A005720256C692025690D75
:100130000A00534420626C6F636B733A20256C692C
:100140000D0A000011241FBECFEFDAE0DEBFCDBFE5
:1001500011E0A0E0B1E0ECE8F4E202C005900D92FD
:10016000AE39B107D9F714E0AEE9B1E001C01D9294
:10017000AF30B107E1F7E5D10C94441241CF809143
:100180009E01089584B7877F84BF88E10FB6F894F5
:1001900080936000109260000FBE20E090E80FB6E0
:1001A000F89490936100209361000FBE809A1092A2
:1001B000C8008093C90086E08093CA00539A5A9A77
:1001C00083E390E09093CD008093CC008FE891E0A2
:1001D00090930C0480930B04279A2F9868EE73E099
:1001E00080E090E00E94E80A889A68EE73E080E080
:1001F00090E00E94E80A889868EE73E080E090E062
:100200000E94E80A889A68EE73E080E090E00E941D
:10021000E80A88980C94020E80E091E00E94610F39
:100220006AE070E080E090E00E94E80AEAE7F0E02F
:1002300080818F77808380B7806880BF8FEF8093C5
:100240007E0080937F0080937D00E4E6F0E0808173
:1002500080688083808184608083808182608083E5
:10026000808180628083808188608083E5E6F0E021
:1002700080818860808383B7817F846083BF83B7F8
:10028000816083BF889583B78E7F83BFEAE7F0E004
:1002900080818068808380B78F7780BF10927E00D6
:1002A00010927F0010927D00E4E6F0E080818F776D
:1002B000808380818B7F808380818D7F808380811C
:1002C0008F7D80838081877F8083E5E6F0E0808179
:1002D000877F808387E091E00E94610FFBC381E00C
:1002E00090E09093A00180939F0110929E01089549
:1002F00088981092A00110929F01089583E061E810
:1003000046E30E94400C84E060E846E30C94400C15
:10031000809102048E3F81F08F3F21F5809101048E
:10032000813201F58091E800877F8093E80081E0C9
:1003300080939E010C946A0C80910104813A91F49F
:100340008091E800877F8093E8001092F10080910F
:10035000E800982F9E7F9093E8008F778093E800C5
:100360000C946A0C089580910004843009F0E8C070
:100370008093E9009091E80095FFB8C08093E90070
:100380008DED93E06FE070E04FEB50E00E94050DC3
:1003900080919E01882309F0A9C08091DD0390918E
:1003A000DE03A091DF03B091E003853523E59207DA
:1003B00022E4A20723E4B20789F48091EA038823A8
:1003C00069F48091E90390E08F719070009731F4A7
:1003D0006091EB03662311F0613170F08091EB00C6
:1003E00080628093EB0083E08093E9008091EB00D2
:1003F00080628093EB007AC08CEE93E070E04FEB6C
:1004000050E00E94050D80919E01882309F06EC086
:100410008091E800982F9B7F9093E8008F778093DE
:10042000E8008091E90387FF03C083E08093E9003F
:100430000FD291E0982790931D012091E103309114
:10044000E2034091E3035091E403209315013093BC
:10045000160140931701509318012091E503309144
:10046000E6034091E7035091E8032093190130938C
:100470001A0140931B0150931C01913051F4211536
:1004800031054105510529F08091EB008062809390
:10049000EB0084E08093E90004C080919E018823F2
:1004A00029F58091EB0085FDF8CF83E08093E9008A
:1004B00004C080919E018823C9F48091EB0085FDE2
:1004C000F8CF81E191E06DE070E04FEB50E00E94E9
:1004D000BA0C80919E01882349F48091E800982FFE
:1004E0009E7F9093E8008F778093E80080919E0133
:1004F000882331F180E18093EA001092EA0088E0DD
:100500008093EA001092EA0084E08093E9008091F1
:10051000EB0080618093EB008091EB00886080931A
:10052000EB0083E08093E9008091EB008061809391
:10053000EB008091EB0088608093EB0010929E01AD
:10054000089578940E94CE0A1DDE80919F019091BB
:10055000A0018130910521F406DF0E94130FF5CF31
:100560005BDEF3CF923029F0933041F09130E9F423
:1005700017C020E230E0EEEBF0E01BC0813041F02C
:10058000813018F0823089F406C0EEEDF0E005C04D
:10059000E2EEF0E002C0E2E0F1E0249130E009C0D8
:1005A00022E130E0ECEAF0E004C020E030E0E0E0FE
:1005B000F0E0DA011196FC93EE93C9010895AF9231
:1005C000BF92CF92DF92EF92FF920F931F93DF9330
:1005D000CF93CDB7DEB7CDB6DEB6ADB6BEB6209101
:1005E000EF030091F0038091ED0390E08370907031
:1005F000009721F48091EE03882361F080914401FB
:10060000807F85608093440184E280934E01109244
:100610004F0143C0922F80E010E0082B192B780186
:100620000532110518F084E2E82EF12C8EE191E0FC
:10063000B7014FEB50E00E94BA0CB8016E197F0968
:100640008DB79EB7861B970B0FB6F8949EBF0FBE53
:100650008DBF01964FEB50E00E94BA0C8091E800EC
:10066000982F9E7F9093E8008F778093E80000E0BA
:1006700010E08091E5039091E603A091E703B0912B
:10068000E8038E199F09A00BB10B8093E5039093AB
:10069000E603A093E703B093E8038A2D9B2D0FB6E2
:1006A000F8949EBF0FBE8DBF0FB6F894DEBE0FBE8E
:1006B000CDBECF91DF911F910F91FF90EF90DF9012
:1006C000CF90BF90AF900895EF92FF920F931F933A
:1006D000DF93CF93CDB7DEB70DB71EB7E090F00331
:1006E000FE2C8E2D833110F092E1F92E82E491E000
:1006F0006F2D70E04FEB50E00E94BA0C6E2D70E051
:100700006F1971098DB79EB7861B970B0FB6F894BA
:100710009EBF0FBE8DBF01964FEB50E00E94BA0CFA
:100720008091E800982F9E7F9093E8008F778093C8
:10073000E8008091E5039091E603A091E703B09172
:10074000E8038F199109A109B1098093E5039093FA
:10075000E603A093E703B093E8030FB6F8941EBF37
:100760000FBE0DBFCF91DF911F910F91FF90EF90C2
:100770000895DF92EF92FF920F931F93DF93CF9331
:1007800000D000D000D0CDB7DEB7D82EFE01339612
:100790008091EE0383838091EF0382838091F00345
:1007A00081838091F1038B838091F3038A8380910D
:1007B000F4038983EB80FC800D811E818FD1E616C6
:1007C000F7060807190760F080914401807F856073
:1007D0008093440181E280934E0110924F012AC020
:1007E00049815A81DD2021F0C801B7013BD203C005
:1007F000C801B701C6D129813A8140E050E069E0E3
:10080000220F331F441F551F6A95D1F78091E503CE
:100810009091E603A091E703B091E803821B930B4C
:10082000A40BB50B8093E5039093E603A093E70335
:10083000B093E80326960FB6F894DEBF0FBECDBF87
:10084000CF91DF911F910F91FF90EF90DF9008956E
:1008500090914401907F9093440110924E01109228
:100860004F018091EC038E3109F483C08F3170F415
:100870008330F1F0843020F4882309F47AC082C0F8
:100880008231A1F08D3109F07DC057C0883209F462
:100890006DC0893220F4853209F074C00BC08A32F1
:1008A00009F462C08F3209F06DC063C088DE73C086
:1008B0000BDF71C013D16150704080409040292FF0
:1008C0003327442755272093F1009C0144275527BF
:1008D0002093F100272F382F492F55272093F1001F
:1008E0006093F1001092F1001092F10082E0809389
:1008F000F1001092F10080919E01882309F04BC015
:100900008091E800982F9E7F9093E8008F778093E6
:10091000E8008091E5039091E603A091E703B09190
:10092000E8030897A109B1098093E5039093E603D2
:10093000A093E703B093E8032EC08091ED0382FDFE
:1009400005C095609093440184E223C0FCD18823C4
:1009500081F480914401807F8460809344011092EF
:100960004E0110924F0117C080E001C081E001DF0D
:1009700012C01092E5031092E6031092E703109262
:10098000E80309C080914401807F85608093440121
:1009900080E280934E01909144019F7081E009F0C4
:1009A00080E00895CF93DF93EC018091E80085FD0E
:1009B0000CC08091E800982F9E7F9093E8008F777D
:1009C0008093E800ACD78823A9F588818093F10053
:1009D00089818093F1008A818093F1008B818093DB
:1009E000F1008C818093F1008D818093F1008E81E4
:1009F0008093F1008F818093F10088858093F100CE
:100A000089858093F1008A858093F1008B8580939E
:100A1000F1008C858093F1008D858093F1008E85A7
:100A20008093F1008F858093F10080919E0191E089
:100A3000892701C080E0DF91CF910895CF93DF93A4
:100A4000EC018091E80085FD0CC08091E800982FB2
:100A50009B7F9093E8008F778093E80060D788238E
:100A600099F58091F10088838091F10089838091CC
:100A7000F1008A838091F1008B838091F1008C8357
:100A80008091F1008D838091F1008E838091F1003F
:100A90008F838091F10088878091F1008987809110
:100AA000F1008A878091F1008B878091F1008C871B
:100AB0008091F1008D878091F1008E878091F10007
:100AC0008F8720E130E002C020E030E0C901DF91F3
:100AD000CF910895B0D28823E9F30895EF92FF9261
:100AE0000F931F93E090B101F090B2010091B30118
:100AF0001091B401E114F10401051105D9F585EB5C
:100B000091E0D2D38823B1F18091C6019091C701C1
:100B1000A091C801B091C90129E0B695A795979514
:100B200087952A95D1F78093B1019093B201A09354
:100B3000B301B093B40100D000D000D082E391E0C3
:100B4000EDB7FEB7928381831382148215821682D9
:100B50000E94410FE090B101F090B2010091B30109
:100B60001091B4018DB79EB706960FB6F8949EBF4C
:100B70000FBE8DBFB701C8011F910F91FF90EF907D
:100B80000895AF92BF92CF92DF92EF92FF920F93B0
:100B90001F93CF93DF937B018C01EA012DB73EB702
:100BA000285030400FB6F8943EBF0FBE2DBFEDB7B2
:100BB000FEB7319687E291E0ADB7BEB712969C932F
:100BC0008E931197E282F3820483158357834683C1
:100BD0000E94410F2DB73EB7285F3F4F0FB6F894E4
:100BE0003EBF0FBE2DBF9BD6882389F557016801F4
:100BF00039E0AA0CBB1CCC1CDD1C3A95D1F718C0FF
:100C0000C601B50141EA51E020E032E00EE115E015
:100C1000EE24FF24F1D280919E0120E032E040E0FA
:100C200050E0A20EB31EC41ED51E882381F4219766
:100C3000209731F78091E80085FD09C08091E80098
:100C4000982F9B7F9093E8008F778093E800DF9147
:100C5000CF911F910F91FF90EF90DF90CF90BF90B9
:100C6000AF9008958F929F92AF92BF92CF92DF92F2
:100C7000EF92FF920F931F93CF93DF934B015C0191
:100C8000EA018DB79EB708970FB6F8949EBF0FBEC6
:100C90008DBFEDB7FEB731968CE191E0ADB7BEB731
:100CA00012969C938E93119782829382A482B5822E
:100CB000578346830E94410F8DB79EB708960FB6A3
:100CC000F8949EBF0FBE8DBF2AD6882379F5F9E030
:100CD000880C991CAA1CBB1CFA95D1F718C0C50139
:100CE000B40141EA51E020E130E000E012E0E2ED41
:100CF000EE2EE4E0FE2ECC24DD242ED1219780E0E0
:100D000092E0A0E0B0E0880E991EAA1EBB1E2097BC
:100D100031F78091E80085FD09C08091E800982FA7
:100D20009E7F9093E8008F778093E800DF91CF91CA
:100D30001F910F91FF90EF90DF90CF90BF90AF90F9
:100D40009F908F90089581E008958EBD0DB407FEA9
:100D5000FDCF08951EBC0DB407FEFDCF8EB50895DE
:100D6000CF92DF92EF92FF920F931F93CF93DF9377
:100D7000142FC72ED62EE52E00E0C4E5D1E090E476
:100D8000F92EF82A0F5F023070F062E370E080E025
:100D900090E01ED400D0EDB7FEB7D283C1830E948D
:100DA0002F0F0F900F90889A2F9A8F2DCEDF8C2DBA
:100DB000CCDF8D2DCADF8E2DC8DF812FC6DFCADFC5
:100DC0002F9888980F3F19F08A3FE1F201C08FEF0A
:100DD000DF91CF911F910F91FF90EF90DF90CF9017
:100DE0000895209828982198299822982A98239A3B
:100DF00080E48CBD8EB58DB508958091CE01882399
:100E000099F46091CF017091D0018091D1019091BE
:100E1000D20143ED51E020E032E03ED1882331F0B1
:100E200081E08093CE01089581E0089580E00895E7
:100E30002F923F924F925F926F927F928F929F92EA
:100E4000AF92BF92CF92DF92EF92FF920F931F93D8
:100E5000CF93DF931B012C018A01790163C03FEF1F
:100E6000A32E31E0B32EA220B320C501A0E0B0E054
:100E700042013101681A790A8A0A9B0AC0E0D2E06D
:100E8000CA19DB09EC16FD0608F4E7018091CF01D1
:100E90009091D001A091D101B091D201681679064C
:100EA0008A069B0669F1A9DF882309F441C081E124
:100EB000B401A30155DF882309F03AC08FEE45DF66
:100EC00023EDC22E21E0D22E45DFF60181936F0182
:100ED000F3EDCF16F3E0DF06B9F76092CF01709221
:100EE000D0018092D1019092D2018BEA2EDF8DEC5D
:100EF0002CDF95012D523E4FC801B901AE0106C04D
:100F000095012D523E4FC801B901AE019FD70C0F7C
:100F10001D1FEC1AFD0ACE01A0E0B0E0280E391E1C
:100F20004A1E5B1EE114F10409F099CF81E001C073
:100F300080E0DF91CF911F910F91FF90EF90DF90B4
:100F4000CF90BF90AF909F908F907F906F905F9069
:100F50004F903F902F9008952F923F924F925F9223
:100F60006F927F928F929F92AF92BF92CF92DF92B9
:100F7000EF92FF920F931F93DF93CF9300D000D097
:100F8000CDB7DEB74B015C013A013C832B834115A1
:100F90005105B9F121153105A1F10217130788F1A7
:100FA000E114F10471F1309521953F4F3A83298383
:100FB0002B813C81021B130B190144245524C501CC
:100FC000B401A3012B813C8133DF8823D1F0C3011D
:100FD000B501A4019601F70109958823A1F0898143
:100FE0009A81080F191F8B819C81800F911FEB81C3
:100FF000FC818E179F0738F0820C931CA41CB51C33
:10100000DECF80E001C081E00F900F900F900F9035
:10101000CF91DF911F910F91FF90EF90DF90CF90D4
:10102000BF90AF909F908F907F906F905F904F9008
:101030003F902F900895D5DE8BE591E042D78CE369
:1010400048E756E564E372E18BDE8F3F21F480E7E9
:1010500091E037D71EC08FE791E033D71092D303CA
:101060008FEF9FEFDC018093CF019093D001A0938D
:10107000D101B093D20181E08093CE0160E070E0B5
:10108000CB0143ED51E020E032E0D2DE91E0882355
:1010900009F490E0892F08952F923F924F925F922A
:1010A0006F927F928F929F92AF92BF92CF92DF9278
:1010B000EF92FF920F931F93CF93DF932B013C018D
:1010C0004A018901212C62E0362E7CC05FEFA52EFB
:1010D00051E0B52EA420B520C501A0E0B0E0730119
:1010E0006201C81AD90AEA0AFB0AE101CA19DB0936
:1010F0000C171D0708F4E8018091CF019091D001F1
:10110000A091D101B091D201C816D906EA06FB061A
:10111000E9F073DE882309F45BC0A114B10421F463
:1011200022E0C030D20751F0C701B60143ED51E0D3
:1011300020E032E07DDE882309F44AC0C092CF016E
:10114000D092D001E092D101F092D20133ED83161A
:1011500031E0930661F095012D523E4FC901B40173
:10116000AE0174D61092CE010C171D0779F188E1FB
:10117000B701A601F5DD882359F58EEFE6DD43EDD5
:10118000C42E41E0D42EF60181916F01DEDDF3ED36
:10119000CF16F3E0DF06B9F78FEFD7DD8FEFD5DDA0
:1011A000D9DD8823A9F08C0E9D1ECE01A0E0B0E011
:1011B000480E591E6A1E7B1E0C1B1D0BAA24A394ED
:1011C000A092CE010115110509F080CF81E001C088
:1011D00080E0DF91CF911F910F91FF90EF90DF9012
:1011E000CF90BF90AF909F908F907F906F905F90C7
:1011F0004F903F902F9008954F925F926F927F9201
:101200008F929F92AF92BF92CF92DF92EF92FF9216
:101210000F931F93CF93DF934B015C013A01690158
:1012200028014115510571F10115110559F111E020
:101230002115310501F110E01EC0C301B501A40163
:101240009701F2010995EC010097D1F0112319F4EF
:10125000C816D906B8F0C501B401A3019E011CDF70
:10126000882381F0CE01A0E0B0E0880E991EAA1E6E
:10127000BB1ECC1ADD0A112301F7C114D104E9F613
:1012800081E001C080E0DF91CF911F910F91FF902D
:10129000EF90DF90CF90BF90AF909F908F907F9016
:1012A0006F905F904F9008956F927F928F929F9270
:1012B000AF92BF92DF92EF92FF920F931F93DF9353
:1012C000CF9300D00F92CDB7DEB73C01009709F461
:1012D000FFC089E1D3011D928A95E9F78EE340E0D2
:1012E00050E0BA013DDD882309F0F2C0D62C062D6E
:1012F000172DA0E6EA2EF12C2DDD902F9D199830A8
:1013000028F49330A0F4992361F00EC09D3018F4B6
:101310009930A8F40FC09D3071F19E3009F03FC0A4
:101320002FC0F30180833BC0D8018C9338C0F801F3
:10133000818335C0D3011A968C931A9730C090E000
:10134000A0E0B0E00E2C04C0880F991FAA1FBB1F9D
:101350000A94D2F7F3012385348545855685282BD9
:10136000392B4A2B5B2BD3011B962D933D934D9329
:101370005C931E9714C08295807FF30187870FC00E
:10138000282F22952F70D3011F969C911F97922B87
:101390001F969C931F978F7050968C9350970F5F5A
:1013A0001F4FE8EFFFEFEE0EFF1EF0EDEF16FFEF21
:1013B000FF0609F0A1CF20E0EE24FF24870130E0F2
:1013C00040E0DD24D3942B833A834983C3DC2B8113
:1013D0003A8149812E30D1F490E086FF04C0D301D8
:1013E0005596DC92559785FF02C0F301D68A84FF9B
:1013F00004C0D3015796DC9257978C7090709595E6
:10140000879595958795F301808F5CC02730F9F01B
:10141000283030F4253061F0263009F053C00BC07D
:101420002930A9F1293010F12A3009F04BC033C01E
:10143000482F4F7047C090E0A0E0B0E083709070FC
:10144000A070B070EE24F82E092F1A2F3BC090E048
:10145000A0E0B0E0E82AF92A0A2B1B2B72E0EE0C80
:10146000FF1C001F111F7A95D1F72CC0829586951D
:101470008695837090E0A0E0B0E0E82AF92A0A2B74
:101480001B2B0894E11CF11C011D111D1BC0382FE2
:101490003370330F17C0881F8827881F382B842F7D
:1014A00090E00296830F911D4701580104C0880CFB
:1014B000991CAA1CBB1C8A95D2F7F301818A928AD7
:1014C000A38AB48A2F5F223109F07DCF81E001C069
:1014D00080E00F900F900F90CF91DF911F910F91AF
:1014E000FF90EF90DF90BF90AF909F908F907F9094
:1014F0006F9008951F920F920FB60F9211242F93A1
:101500003F934F935F936F937F938F939F93AF938B
:10151000BF932091D8033091D9034091DA035091C1
:10152000DB037091DC03DA01C9010296A11DB11D34
:10153000672F6A5F6D3730F06D57DA01C901039686
:10154000A11DB11D6093DC038093D8039093D90350
:10155000A093DA03B093DB038091D4039091D50379
:10156000A091D603B091D7030196A11DB11D809320
:10157000D4039093D503A093D603B093D703BF9120
:10158000AF919F918F917F916F915F914F913F911B
:101590002F910F900FBE0F901F90189585B5826008
:1015A00085BD85B5816085BDEEE6F0E08081816016
:1015B000808308958FB7F8942091D8033091D90390
:1015C0004091DA035091DB038FBFB901CA0108953E
:1015D000EF92FF920F931F937B018C01EBDFE60EDE
:1015E000F71E081F191FE616F7060807190748F423
:1015F000E1DF6F3F2FEF72072FEF82072FEF920788
:10160000B9F7D8DF6E157F0580079107D0F31F91DA
:101610000F91FF90EF9008959091C80095FFFCCF37
:101620008093CE0080E090E008958091C80087FF0D
:10163000FCCF8091CE0090E008951F93DF93CF936D
:1016400000D0CDB7DEB7E1E0F4E08091F100819306
:1016500084E0E930F807C9F7809101042091020481
:10166000253009F483C0263040F4213099F121302F
:1016700070F0233009F0E7C02DC0283009F4B3C062
:10168000293009F4C6C0263009F0DDC087C0803893
:1016900021F0823809F0D7C008C08091FC039091F6
:1016A000FD03992369F082600BC08091050480934B
:1016B000E9009091EB0081E095FF80E01092E90055
:1016C0009091E800977F9093E8008093F10010924A
:1016D000F10094C0882319F0823009F0B4C090E082
:1016E0008F719070009729F08230910509F0ADC09C
:1016F0000BC080910304813009F0A7C0233009F0AA
:1017000080E08093FD032CC080910304882341F581
:1017100020910504277009F498C02093E900809176
:10172000EB0080FF1DC080910204833021F4809182
:10173000EB00806213C08091EB0080618093EB002E
:1017400081E090E002C0880F991F2A95E2F780930C
:10175000EA001092EA008091EB0088608093EB0031
:101760001092E9008091E800877F4FC0882309F03C
:101770006AC0109103048091E800877F8093E8009D
:10178000A9D08091E80080FF6FC01F7719F083E037
:101790008093000410681093E30057C08058823093
:1017A00008F051C0809103049091040460910504F5
:1017B000AE014F5F5F4F0E94B202BC01009709F477
:1017C00044C08091E800877F8093E80089819A81F6
:1017D00067D18091E800982F9B7F9093E8008F77E6
:1017E0008093E80032C0803871F58091E800877FEF
:1017F0008093E8008091FE038093F1008091E800DF
:10180000982F9E7F9093E8008F778093E80062D0B6
:101810001CC08823C1F4909103049230B0F48091ED
:10182000E800877F8093E8009093FE0353D0809177
:10183000FE03882311F084E001C083E0809300045C
:101840000E947E0102C00E9488018091E80083FF0F
:1018500011C08091EB0080628093EB008091E800E2
:10186000877F8093E80006C080910004882309F0F8
:1018700088CFEBCF0F900F90CF91DF911F910895FC
:101880008093E900EBEEF0E0808181608083EDEEF3
:10189000F0E010826093EC0040838091EE00881F9E
:1018A0008827881F08951092F40080E08093E90053
:1018B0001092F0001092E8009091ED009D7F9093BF
:1018C000ED009091EB009E7F9093EB008F5F87304F
:1018D00069F708958091010487FF0EC004C08091CC
:1018E00000048823D9F08091E80082FFF8CF80912E
:1018F000E800982F9B7F08C08091E80080FF0AC015
:101900008091E800982F9E7F9093E8008F778093D6
:10191000E800089580910004882371F7089584E613
:101920009091EC0090FF05C09091E80090FF05C0F9
:1019300019C09091E80092FD15C090910004992380
:1019400099F09091EB0095FD11C09091E10092FF0C
:10195000E7CF9091E1009B7F9093E100882341F0D5
:101960008150DECF80E0089582E0089581E00895FF
:1019700083E00895AF92BF92DF92EF92FF920F93B0
:101980001F93DF93CF930F92CDB7DEB7082F5B0184
:101990007A019983C4DFD82E9981882351F5192FB4
:1019A00020C08091E80085FD14C08091E800982F48
:1019B0009E7F9093E8008F778093E800E114F10414
:1019C00021F0F7010995813081F0A9DF882349F0E2
:1019D0000FC0F80181918F018093F1000894A10854
:1019E000B108A114B104E9F604C074E0D72E01C017
:1019F000D82E8D2D0F90CF91DF911F910F91FF90D9
:101A0000EF90DF90BF90AF900895AF92BF92DF92BA
:101A1000EF92FF920F931F93DF93CF930F92CDB767
:101A2000DEB7082F5B017A01998379DFD82E99817F
:101A3000882351F5192F20C08091E80085FD14C03E
:101A40008091E800982F9B7F9093E8008F77809398
:101A5000E800E114F10421F0F7010995813081F0EB
:101A60005EDF882349F00FC08091F100F801819377
:101A70008F010894A108B108A114B104E9F604C0CB
:101A800004E0D02E01C0D82E8D2D0F90CF91DF9184
:101A90001F910F91FF90EF90DF90BF90AF9008954E
:101AA000482F592F809107049091080486179707B3
:101AB00018F4BC01E0E045C061157105D9F78091CB
:101AC000E800982F9E7F9093E8008F778093E8003E
:101AD000F1CF8091E80083FD45C08091E80082FD50
:101AE0003BC080910004882309F43EC08091E80047
:101AF00080FF27C09091F3008091F200392F20E001
:101B000090E0822B932B09C0FA014F5F5F4FE49165
:101B1000E093F1006150704001966115710519F074
:101B20008830910588F3E1E08830910509F0E0E024
:101B30008091E800982F9E7F9093E8008F778093A4
:101B4000E8006115710529F6EE2309F0C2CF04C043
:101B500080910004882351F08091E80082FFF8CF43
:101B600080E0089581E0089582E0089582E008957C
:101B700055D05CD0109200041092FE031092FD0329
:101B80001092FC038AE482BF19BC89B5826089BDCA
:101B900009B400FEFDCF8091D800982F9F779093D5
:101BA000D80080688093D8008091D70081608093AE
:101BB000D7008091D8008F7D8093D8008091E0007D
:101BC0008B7F8093E0008091E0008E7F8093E00027
:101BD0008091E1008E7F8093E1008091E20081603E
:101BE0008093E2008091E100877F8093E100809103
:101BF000E20088608093E2008091D8008160809349
:101C0000D8000895B5DFE8EDF0E080818061808341
:101C100081E08093FF03789408950895E8EDF0E063
:101C200080818E7F80831092E20008951092DA0006
:101C30001092E10008951F920F920FB60F92112497
:101C40002F933F934F935F936F937F938F939F93C4
:101C5000AF93BF93EF93FF938091DA0080FF17C09B
:101C60008091D80080FF13C08091DA008E7F80932E
:101C7000DA008091D90080FF06C081E080930004E3
:101C80000E946F0104C0109200040E9478018091AC
:101C9000E10080FF1DC08091E20080FF19C08091AB
:101CA000E1008E7F8093E1008091E2008E7F80933F
:101CB000E2008091E20080618093E2008091D80090
:101CC00080628093D80019BC85E080930004A5DF72
:101CD0008091E10084FF29C08091E20084FF25C04B
:101CE00019BC89B5826089BD09B400FEFDCF809121
:101CF000D8008F7D8093D8008091E1008F7E809303
:101D0000E1008091E2008F7E8093E2008091E2000A
:101D100081608093E2008091FE03882311F084E0CB
:101D200001C083E08093000478DF8091E10083FFAD
:101D300028C08091E20083FF24C08091E100877F6A
:101D40008093E10082E0809300041092FE03809172
:101D5000E1008E7F8093E1008091E2008E7F80938E
:101D6000E2008091E20080618093E2009CDD80E0EF
:101D700060E042E085DD8091F00088608093F000B3
:101D80004CDF8091E10082FF0AC08091E20082FF77
:101D900006C08091E1008B7F8093E1003EDFFF91E0
:101DA000EF91BF91AF919F918F917F916F915F91D3
:101DB0004F913F912F910F900FBE0F901F9018954C
:101DC0001F920F920FB60F9211241F932F933F93E0
:101DD0004F935F936F937F938F939F93AF93BF9333
:101DE000CF93DF93EF93FF93C9EED0E01881177084
:101DF0001AD0E8EEF0E08081877F80831883FF911E
:101E0000EF91DF91CF91BF91AF919F918F917F9192
:101E10006F915F914F913F912F911F910F900FBE46
:101E20000F901F9018951F9380910004882361F0F4
:101E30001091E90017701092E9008091E80083FF8B
:101E400001C0FBDB1093E9001F910895FB01DC0149
:101E500002C001900D9241505040D8F70895A0E083
:101E6000B0E0E4E3FFE0E9C2FE01359661917191D3
:101E700080910B0490910C04AF0157D02096E2E0C2
:101E8000F8C2A0E0B0E0E6E4FFE0D7C2FE0135967C
:101E90006191719180910B0490910C04DC01139677
:101EA0002C911397286013962C93AF013ED0E091AC
:101EB0000B04F0910C042381277F23832096E2E01A
:101EC000D8C2EF92FF920F931F93CF93DF938C01B1
:101ED000E0910B04F0910C04838181FF1FC0C0E0EE
:101EE000D0E00AC0DB011896ED91FC911997099595
:101EF000009711F0CFEFDFEFF80181918F01609132
:101F00000B0470910C04882369F7DB011896ED919E
:101F1000FC9119978AE00995009711F0CFEFDFEF58
:101F2000CE01CDB7DEB7E6E0A0C2ACE0B0E0EAE9B2
:101F3000FFE073C26C011B018A01FC01178216824B
:101F4000838181FFC4C12E010894411C511CF601FC
:101F50009381F10193FD859193FF81911F01882366
:101F600009F4B1C1853239F493FD859193FF8191D4
:101F70001F01853221F490E0B601C5D1E8CFEE24EF
:101F8000FF2420E02032B0F48B3269F08C3228F448
:101F9000803251F0833271F40BC08D3239F08033CE
:101FA00049F421602CC02260246029C0286027C029
:101FB000206125C027FD2CC0382F30533A3098F4CB
:101FC00026FF08C08E2D880FE82EEE0CEE0CE80ED2
:101FD000E30E15C08F2D880FF82EFF0CFF0CF80EA6
:101FE000F30E20620CC08E3221F426FD6CC12064F9
:101FF00006C08C3611F4206802C0883649F4F1011D
:1020000093FD859193FF81911F01882309F0BACF39
:10201000982F9554933018F09052933028F40C5F19
:102020001F4FFFE3F9830DC0833631F0833771F022
:10203000833509F05CC021C0F801808189830E5F7F
:102040001F4F420171E0A72EB12C15C062E0662E31
:10205000712C600E711EF8018080918026FF03C0F4
:102060006E2D70E002C06FEF7FEFC4012C8740D16E
:102070005C0183012C852F7716C052E0652E712CF0
:10208000600E711EF8018080918026FF03C06E2DC6
:1020900070E002C06FEF7FEFC4012C871ED15C019E
:1020A0002C852068830123FD1EC007C080E290E0DC
:1020B000B6012C8728D1FA942C858F2D90E0A81694
:1020C000B906A0F310C0F40127FD859127FF819187
:1020D0004F0190E0B6012C8716D12C85F110FA94AF
:1020E0000894A108B108A114B10469F7E9C08436C5
:1020F00011F0893641F527FF08C0F8016081718130
:10210000828193810C5F1F4F09C0F801608171814A
:10211000882777FD8095982F0E5F1F4F4FE6B42ECE
:10212000B22297FF09C090958095709561957F4F79
:102130008F4F9F4FF0E8BF2AA2012AE030E00FD175
:10214000782E741844C0853731F43FEEB32EB22296
:102150002AE030E025C099EFB92EB2228F36C1F0C7
:10216000803720F4883509F0AEC00DC0803721F0EB
:10217000883709F0A8C002C020E1B22AB4FE0BC023
:1021800084E0B82A08C0B4FE09C0E6E0BE2A06C052
:1021900028E030E005C020E130E002C020E132E07C
:1021A000B7FE08C0F80160817181828193810C5F64
:1021B0001F4F07C0F8016081718180E090E00E5FE1
:1021C0001F4FA201CCD0782E7418FFE7BF22B6FEB5
:1021D0000BC02EEFB2227E1438F4B4FE07C0B2FC5E
:1021E00005C08FEEB82202C0A72C01C0AE2C8B2DEB
:1021F00090E0B4FE0DC0FE01E70DF11D20812033FB
:1022000019F4E9EEBE2209C0A394B2FE06C004C0D0
:1022100086789070009709F0A3948B2C9924B3FCD6
:1022200013C0B0FE0EC0AF1428F4E72CEF0CEA1870
:10223000AF2C07C0E72C05C080E290E0B60163D068
:10224000A394AF14C8F304C0AF1410F4FA1801C07B
:10225000FF2484FE0EC080E390E0B60154D082FEDD
:102260001DC081FE03C088E590E010C088E790E0C3
:102270000DC0C40186789070009781F081FC02C087
:1022800080E201C08BE2B7FC8DE290E0B6013BD06A
:1022900005C080E390E0B60136D0EA947E14C8F31E
:1022A0007A94F201E70DF11D808190E0B6012BD008
:1022B0007720B1F705C080E290E0B60124D0FA940F
:1022C000FF20C9F744CEF6012681378102C02FEFE7
:1022D0003FEFC9012C96E2E1BCC0FC0105906150C2
:1022E00070400110D8F7809590958E0F9F1F08952C
:1022F000FC016150704001900110D8F780959095D5
:102300008E0F9F1F08950F931F93CF93DF938C0120
:10231000EB018B8181FF1BC082FF0DC02E813F81AD
:102320008C819D812817390764F4E881F981019334
:10233000F983E88306C0E885F985802F0995009721
:1023400031F48E819F8101969F838E8302C00FEFAF
:102350001FEFC801DF91CF911F910F910895FA01EE
:10236000AA27283051F1203181F1E8946F936E7FD4
:102370006E5F7F4F8F4F9F4FAF4FB1E03ED0B4E0C5
:102380003CD0670F781F891F9A1FA11D680F791F06
:102390008A1F911DA11D6A0F711D811D911DA11D17
:1023A00020D009F468943F912AE0269F1124301927
:1023B000305D3193DEF6CF010895462F4770405DC2
:1023C0004193B3E00FD0C9F7F6CF462F4F70405D71
:1023D0004A3318F0495D31FD4052419302D0A9F7CC
:1023E000EACFB4E0A6959795879577956795BA95C6
:1023F000C9F700976105710508959B01AC010A2E8C
:1024000006945795479537952795BA95C9F7620F62
:10241000731F841F951FA01D08952F923F924F9206
:102420005F926F927F928F929F92AF92BF92CF9264
:10243000DF92EF92FF920F931F93CF93DF93CDB76D
:10244000DEB7CA1BDB0B0FB6F894DEBF0FBECDBFE5
:1024500009942A88398848885F846E847D848C84B6
:102460009B84AA84B984C884DF80EE80FD800C81BF
:102470001B81AA81B981CE0FD11D0FB6F894DEBFA2
:0C2480000FBECDBFED010895F894FFCF12
:10248C00536C6565700D0057616B65205570210D9F
:10249C000055534253000000000000000000008073
:1024AC0000021F0000004C55464100000000446132
:1024BC007461666C617368204469736B0000302E24
:1024CC003030700000000000000A00000000000026
:1024DC00000000005265747279200053656E642010
:1024EC005344206F6E20636F6D6D616E642E0D0012
:1024FC005344206F6E206661696C65642E0D005329
:10250C0044206F6E20737563636573732E0D00002A
:0E251C00000003000000000C0B150B00000077
:00000001FF
