:100000000C94C9000C94411D0C946E1D0C941C188A
:100010000C94F1000C94F1000C94F1000C94AE23BC
:100020000C94F1000C94F1000C94F1000C94F1008C
:100030000C94F1000C94171B0C94F1000C94F1003B
:100040000C949B1D0C94F1000C94E21F0C94302036
:100050000C94F1000C94F1000C94F1000C94F1005C
:100060000C94F1000C94F100535452414E47452139
:10007000004750532020004E4F4750530048562011
:100080004C4F57004C4F572042415454005344208A
:100090004641494C21004255464645522046554C62
:1000A0004C2E20544F5353494E4720494E434F4DF9
:1000B000494E4720444154410A0043484942493A85
:1000C00020436F6D6D616E64206E6F742072656386
:1000D0006F676E697A65642E002A2A2A2A2A2A2ADC
:1000E0002A2A2A2A2A2A2A2A204348494249202AF7
:1000F0002A2A2A2A2A2A2A2A2A2A2A2A2A2A2A2A60
:100100002A2A004348494249203E3E2000524144A9
:10011000494F204E4F5420494E495449414C495A69
:1001200045442050524F5045524C590A000000009F
:1001300000240027002A0000000000250028002BD2
:100140000000000000230026002900040404040429
:100150000404040202020202020303030303030174
:10016000020408102040800102040810200102044B
:100170000810200000000700020100000304060030
:1001800000000000000000027706DA0D4A1B9321F0
:10019000431B11241FBECFEFD8E0DEBFCDBF12E05E
:1001A000A0E0B1E0E8EDF1E502C005900D92A038C5
:1001B000B107D9F716E0A0E8B2E001C01D92AF3850
:1001C000B107E1F711E0C0E9D1E004C02297FE01D8
:1001D0000E949928C838D107C9F70E94E9210C94D8
:1001E000DF280C9400002F923F925F926F927F92D3
:1001F0008F929F92AF92BF92CF92DF92EF92FF9237
:100200000F931F93CF93DF938C011B01EA016115BC
:10021000710519F0FB0191838083209749F0CE018D
:100220000297839728F020E030E040E050E0F6C0ED
:10023000F801A1908F018A2D90E00E949D28892BC2
:10024000B9F7FDE2AF1631F4F801A1908F01552402
:10025000539407C0FBE2AF1619F4F801A1908F0187
:100260005524209719F0C031D105C1F4F0E3AF1641
:1002700079F4F8018081883711F0883549F4F80164
:10028000A1800E5F1F4FF2E05F2AC0E1D0E006C000
:10029000209721F480E3A816E9F427C0C830D105DF
:1002A00031F1C930D10524F4C230D10531F50CC08B
:1002B000CA30D10589F0C031D105F9F4C12CD12C57
:1002C000E12CB8E0FB2E28C0C12CD12CE12CA0E4FD
:1002D000FA2E22C0CAE0D0E0FCECCF2EFCECDF2EE0
:1002E000FCECEF2EFCE0FF2E17C0C8E0D0E0C12CE4
:1002F000D12CE12CE0E1FE2E0FC09E01442737FDFA
:100300004095542F60E070E080E090E80E945A2809
:10031000C901DA016C017D0120E030E040E050E0ED
:1003200060E03E01882477FC8094982C70EDB72E15
:10033000BA0CE9E0EB1570F48A2D81548A3118F477
:1003400099ECB92E06C08A2D81568A3150F589EA7A
:10035000B82EBA0C8B2D90E08C179D0714F56F3FCB
:10036000E1F0C216D306E406F506B0F0CA01B90101
:10037000A40193010E943B289B01AC012B0D311D70
:10038000411D511D2130F0E03F07F0E04F07F0E83C
:100390005F0710F461E001C06FEFF801A1908F01D9
:1003A000C5CF2114310481F0662331F00150104093
:1003B000F1011183008308C051FE1AC002501040A1
:1003C000F1011183008314C067FF12C050FC05C007
:1003D0002FEF3FEF4FEF5FE704C020E030E040E059
:1003E00050E882E290E090938E0680938D0616C0CE
:1003F00050FE08C050954095309521953F4F4F4F86
:100400005F4F0CC057FF0AC082E290E090938E06C7
:1004100080938D062FEF3FEF4FEF5FE7B901CA01E1
:10042000DF91CF911F910F91FF90EF90DF90CF90D0
:10043000BF90AF909F908F907F906F905F903F9014
:100440002F900895A0E0B0E0E8E2F2E00C94A92833
:10045000EC012B016A016115710519F0FB01918313
:100460008083C114D10449F0C6010297839728F014
:1004700020E030E040E050E0DCC0A9908A2D90E020
:100480000E949D28892BC9F7FDE2AF1621F4A9909F
:100490003324339405C08BE2A81609F4A9903324C1
:1004A000C114D10421F0E0E1CE16D10411F5F0E33E
:1004B000AF1669F48881883711F0883541F4A98036
:1004C000229682E0382A20E1C22ED12C12C0C1141B
:1004D000D10479F4E0E3AE1659F199E9E92E99E9EE
:1004E000F92E99E9092F99E1192F8AE0C82ED12C0C
:1004F0003AC0FAE0CF16D10491F080E1C816D104D9
:1005000029F0E8E0CE16D104F9F415C0BFEFEB2EC8
:10051000BFEFFB2EBFEF0B2FBFE01B2F24C0A9E9BD
:10052000EA2EA9E9FA2EA9E90A2FA9E11A2F1BC080
:10053000F8E0CF2ED12CEFEFEE2EEFEFFE2EEFEF07
:100540000E2FEFE11E2F0FC09601442737FD409577
:10055000542F6FEF7FEF8FEF9FEF0E945A28C90152
:10056000DA017C018D0120E030E040E050E060E005
:100570003601882477FC8094982C70EDB72EBA0C45
:10058000F9E0FB1570F48A2D81548A3118F499EC46
:10059000B92E06C08A2D81568A3148F589EAB82ECF
:1005A000BA0C8B2D90E08C159D050CF56F3FE9F092
:1005B000E216F30604071507B8F0CA01B901A40151
:1005C00093010E943B289B01AC018B2D90E0A0E0A1
:1005D000B0E0280F391F4A1F5B1F281739074A0749
:1005E0005B0710F061E001C06FEFA990C6CF411426
:1005F000510451F0662311F0219703C031FE04C06D
:100600002297F201D183C08330FE07C050954095F8
:10061000309521953F4F4F4F5F4F67FF0AC082E2F1
:1006200090E090938E0680938D062FEF3FEF4FEF73
:100630005FEFB901CA01CDB7DEB7E1E10C94C5287F
:10064000FC0188279927E89421912032E9F3293089
:1006500010F02E30C8F32B3241F02D3239F468946B
:1006600004C00E94D903820F911D219120532A308A
:10067000C0F31EF4909581959F4F0895FB01DC0116
:1006800005900D920020E1F70895FB01DC0102C006
:1006900001900D9241505040D8F70895681779079E
:1006A00068F4FB01DC01E40FF51FA40FB51F02C0C5
:1006B00002900E9241505040D8F708950C94450393
:1006C000FB01DC018D91019080190110D9F3990B88
:1006D0000895FB01DC0101900D920020E1F70895DF
:1006E000FB01DC014150504030F08D9101908019A8
:1006F00019F40020B9F7881B990B0895FC0161508B
:10070000704001900110D8F7809590958E0F9F1F33
:100710000895FC01A081B181AD01109681F03D9159
:10072000FB01019003160110E1F7C9F7002011F455
:10073000D00102C01E921196FC01A083B183CA01B0
:100740000895A0E0B0E0E7EAF3E00C94B2287C0161
:10075000EB018A01690109C0CE012196F6010995D4
:10076000F70181937F010150104001151105A1F798
:10077000CDB7DEB7E8E00C94CE28A0E0B0E0E3EC23
:10078000F3E00C94B228EC017B018A01690109C0F5
:10079000CE012196F70161917F01F6010995015083
:1007A000104001151105A1F7CDB7DEB7E8E00C94B4
:1007B000CE287AE0979F902D879F802D910D112450
:1007C0000895AEE0B0E0E7EEF3E00C94B6280D89B2
:1007D0001E8986E08C831A8309838FEF9FE79E83AF
:1007E0008D839E01275E3F4FCE0101966F89788DE4
:1007F000A9010E9405042F813885020F131FF801FB
:1008000010822E96E4E00C94D228ABE0B0E0EBE04E
:10081000F4E00C94A8283C012B015A01FC0117823A
:100820001682838181FD03C06FEF7FEFC6C19AE01E
:10083000892E1E010894211C311CF3012381F20131
:1008400023FD859123FF81912F01882309F4B2C1F3
:10085000853239F423FD859123FF81912F01853263
:1008600029F490E0B3010E94ED05E7CF982FFF2413
:10087000EE249924FFE1FF15D0F09B3269F09C3201
:1008800028F4903259F0933291F40EC09D3249F021
:10089000903369F441E024C052E0F52A84E0F82A5C
:1008A00028C098E0F92A25C0E0E1FE2A22C0F7FC22
:1008B00029C0892F80538A3070F4F6FE05C0989CB9
:1008C000902C1124980E15C0E89CE02C1124E80E01
:1008D000F0E2FF2A0EC09E3229F4F6FC6BC140E420
:1008E000F42A07C09C3619F450E8F52A02C098365D
:1008F00049F4F20123FD959123FF91912F01992352
:1009000009F0B8CF892F8554833018F08052833096
:1009100038F444E050E0A40EB51E5FE359830FC0E5
:10092000933631F0933779F0933509F056C020C0F3
:10093000F5018081898342E050E0A40EB51E61017B
:1009400001E010E012C0F501C080D180F6FC03C0C8
:100950006FEF7FEF02C0692D70E042E050E0A40E1F
:10096000B51EC6010E947E038C015FE7F52214C00C
:10097000F501C080D180F6FC03C06FEF7FEF02C0AD
:10098000692D70E042E050E0A40EB51EC6010E9441
:10099000E2058C0150E8F52AF3FE07C01AC080E298
:1009A00090E0B3010E94ED05EA948E2D90E00817C7
:1009B0001907A8F30EC0F601F7FC8591F7FE8191A7
:1009C0006F0190E0B3010E94ED05E110EA9401503F
:1009D00010400115110579F7EAC0943611F09936E7
:1009E00069F5F7FE08C0F50120813181428153810C
:1009F00084E090E00AC0F501808191819C01442748
:100A000037FD4095542F82E090E0A80EB91E9FE676
:100A1000F92257FF09C050954095309521953F4FD9
:100A20004F4F5F4FE0E8FE2ACA01B901A1012AE059
:100A300030E00E941906D82ED21840C0953729F40C
:100A40001F2D1F7E2AE030E01DC01F2D197F9F360D
:100A500061F0903720F4983509F0ACC00FC09037A2
:100A600039F0983709F0A6C004C028E030E00AC089
:100A7000106114FD146020E130E004C014FD166024
:100A800020E132E017FF08C0F501608171818281A9
:100A9000938144E050E008C0F50180819181BC0160
:100AA00080E090E042E050E0A40EB51EA1010E945B
:100AB0001906D82ED2188FE7F82EF122F6FE0BC0B9
:100AC0005EEFF522D91438F4F4FE07C0F2FC05C03D
:100AD0008FEEF82202C01D2D01C0192DF4FE0DC0AD
:100AE000FE01ED0DF11D8081803319F499EEF9229C
:100AF00008C01F5FF2FE05C003C08F2D867809F085
:100B00001F5F0F2DF3FC14C0F0FE0FC01E1510F078
:100B10009D2C0BC09D2C9E0C911A1E2D06C080E2B0
:100B200090E0B3010E94ED051F5F1E15C0F304C0E5
:100B30001E1510F4E11A01C0EE2404FF0FC080E37B
:100B400090E0B3010E94ED0502FF1DC001FD03C04E
:100B500088E790E00EC088E590E00BC0802F867893
:100B600091F001FF02C08BE201C080E2F7FC8DE250
:100B700090E0B3010E94ED0506C080E390E0B30170
:100B80000E94ED059A94D914C0F3DA94F101ED0DA9
:100B9000F11D808190E0B3010E94ED05DD20A9F7F1
:100BA00006C080E290E0B3010E94ED05EA94EE20D9
:100BB000C1F743CEF30166817781CB012B96E2E149
:100BC0000C94C428FC010590615070400110D8F7C6
:100BD000809590958E0F9F1F08950F931F93CF932D
:100BE000DF938C01EB018B8181FF1BC082FF0DC065
:100BF0002E813F818C819D812817390764F4E8811B
:100C0000F9810193F983E88306C0E885F985802F8F
:100C10000995892B31F48E819F8101969F838E8364
:100C200002C00FEF1FEFC801DF91CF911F910F910D
:100C30000895FA01AA27283051F1203181F1E89472
:100C40006F936E7F6E5F7F4F8F4F9F4FAF4FB1E0BF
:100C50003ED0B4E03CD0670F781F891F9A1FA11DBA
:100C6000680F791F8A1F911DA11D6A0F711D811DBB
:100C7000911DA11D20D009F468943F912AE0269F80
:100C800011243019305D3193DEF6CF010895462FDF
:100C90004770405D4193B3E00FD0C9F7F6CF462FC0
:100CA0004F70405D4A3318F0495D31FD4052419329
:100CB00002D0A9F7EACFB4E0A695979587957795E6
:100CC0006795BA95C9F700976105710508959B016D
:100CD000AC010A2E06945795479537952795BA95F6
:100CE000C9F7620F731F841F951FA01D0895CF922F
:100CF000EF920F9380E892E062E043E024E005E0A9
:100D000056E0E52E37E0C32E0E94081D0F91EF90AC
:100D1000CF90089520E030E04FE753E40E94D827B9
:100D20000E94F1269B01AC0180912002B9010E9432
:100D30009B1E0895AF92BF92CF92DF92EF92FF92E7
:100D40000F931F93CF93DF930E94EF1D5B016C0104
:100D5000E090AA02F090AB020091AC021091AD02BB
:100D6000809124020E948E1FEC018091B00290912C
:100D7000B102C817D90771F00E94EF1D6093AA0253
:100D80007093AB028093AC029093AD021092AF02CD
:100D90001092AE02D093B102C093B0028091AE0225
:100DA0009091AF02892B09F03AC0A60195012E1946
:100DB0003F09400B510BDA01C90181569A4EA04000
:100DC000B040875E9340A040B040C8F4CA01B9016A
:100DD0000E94222720E030E64AE657E40E942026BF
:100DE00020E030E04AE754EC0E94892620E030E021
:100DF00040E85FE30E942126E62F692F14C02854A3
:100E00003E4E4040504028F4E0E070E080E86FE360
:100E10000AC081E090E09093AF028093AE02E0E0E0
:100E200070E080E060E02E2F372F482F562FB90159
:100E3000CA010E948A06DF91CF911F910F91FF9006
:100E4000EF90DF90CF90BF90AF9008958F929F92D8
:100E5000AF92BF92CF92DF92EF92FF920F931F93C8
:100E6000CF93DF937B018C014A015901CC24B7FC5D
:100E7000C094DC2CA60195010E945A28E9012A3071
:100E8000310564F5C801B7010E9422277B018C015E
:100E9000C601B5010E9424279B01AC01C801B7011E
:100EA0000E9489267B018C01BE01882777FD8095F1
:100EB000982F0E9424279B01AC01C801B7010E9412
:100EC000202620E030E04AE754E40E94D8270E9420
:100ED000F126643671050CF474C061C02436310506
:100EE00064F5C801B7010E9422277B018C01C6016D
:100EF000B5010E9424279B01AC01C801B7010E94E3
:100F000089267B018C01BE01882777FD8095982F6B
:100F10000E9424279B01AC01C801B7010E94202632
:100F200020E030E048EC52E40E94D8270E94F126ED
:100F30006A3071050CF445C032C083E0283E3807A2
:100F400044F5C801B7010E9422277B018C01C6012C
:100F5000B5010E9424279B01AC01C801B7010E9482
:100F600089267B018C01BE01882777FD8095982F0B
:100F70000E9424279B01AC01C801B7010E942026D2
:100F800020E030E040E251E40E94D8270E94F126A0
:100F900006C0C40160E071E00E94690333C0ADB7D0
:100FA000BEB718970FB6F894BEBF0FBEADBFEDB772
:100FB000FEB7319612969C928E92119789E091E03D
:100FC00011C0ADB7BEB718970FB6F894BEBF0FBE2D
:100FD000ADBFEDB7FEB7319612969C928E921197E7
:100FE00082E191E093838283D583C4837783668390
:100FF0000E94E1038DB79EB708960FB6F8949EBF86
:101000000FBE8DBFDF91CF911F910F91FF90EF9099
:10101000DF90CF90BF90AF909F908F9008958F9268
:101020009F92AF92BF92CF92DF92EF92FF920F9377
:101030001F93CF93DF934C01EB0161157105C9F448
:1010400025C080912202B40120E030E040E050E071
:101050000E940A24C601B5010E94FD1D8091220252
:101060000E949723219779F0C801B7010E94FD1DC6
:101070000AC05A01CC24B7FCC094DC2C79010027AB
:10108000F7FC0095102F1C161D06DCF2DF91CF91A6
:101090001F910F91FF90EF90DF90CF90BF90AF9096
:1010A0009F908F900895AF92BF92CF92DF92EF9270
:1010B000FF920F931F93DF93CF93CDB7DEB7AA971D
:1010C0000FB6F894DEBF0FBECDBF8C01CDB6DEB635
:1010D000EEB6BDB6AEB68DB79EB7861B970B0FB6F4
:1010E000F8949EBF0FBE8DBF1092A102C8010E944E
:1010F000E01A892B91F481E08093A10286E596E0C5
:101100006CE171E00E9460232C2D3E2DC9010FB6C9
:10111000F8949EBF0FBE8DBF7DC1FE01339688E25D
:10112000DF011D928A95E9F71A8309838F017E01F9
:101130000894E11CF11CC70166E371E00E94890379
:10114000F801819391938F01892BA9F70B811C8161
:10115000C80168E371E00E946003009741F0C80194
:101160006FE371E00E946003009709F09DC0109248
:10117000A2021092A3021092A4021092A502ED8185
:10118000FE818081882339F0A2EAB2E083E00190F9
:101190000D928150E1F70F851889EB8CFC8CE98565
:1011A000FA858081882381F0CF0160E070E04AE019
:1011B00050E00E9422026093950270939602809301
:1011C00097029093980208C010929502109296028E
:1011D0001092970210929802ED85FE8580818823F7
:1011E00081F0CF0160E070E04AE050E00E9422020E
:1011F0006093990270939A0280939B0290939C0251
:1012000008C01092990210929A0210929B021092BA
:101210009C0280912602813469F4D8018C91863534
:10122000C9F480EA9FE064E070E044E650E026E91B
:1012300030E00EC0863571F4F8018081813451F4BC
:1012400080EA9FE061E070E042E350E021E030E0BE
:101250000E940F08D8018C9180932602809127026A
:10126000813469F4F70180818635C9F480E49FE117
:1012700064E070E044E650E026E930E00EC08635D8
:1012800071F4D7018C91813451F480E49FE161E0E5
:1012900070E042E350E020E030E00E940F08F701E8
:1012A000808180932702AEC0C80167E471E00E948C
:1012B0006003009709F056C08D819E8162EA72E05A
:1012C00043E050E00E947003009709F04BC0ED89A5
:1012D000FE898081882321F0CF010E94200302C073
:1012E0008FEF9FEF9093290280932802EF89F88D6A
:1012F0008081882321F0CF010E94200302C08FEF5C
:101300009FEF90932B0280932A02E98DFA8D8081C2
:10131000882321F0CF010E94200302C08FEF9FEFAE
:1013200090932D0280932C02EB8DFC8D808188237D
:1013300021F0CF010E94200302C08FEF9FEF909316
:101340002F0280932E02ED8DFE8D8081813309F076
:101350004EC0EF8DF8A18081813309F048C0E9A12A
:10136000FAA142C0C8016FE471E00E9460030097D7
:1013700009F048C0EB89FC898081882361F0CF01A6
:1013800060E070E04AE050E00E94F30070932D02AC
:1013900060932C0206C08FEF9FEF90932D028093F5
:1013A0002C02ED89FE898081882361F0CF0160E005
:1013B00070E04AE050E00E94F300709333026093C3
:1013C000320206C08FEF9FEF909333028093320278
:1013D000EF89F88D8081813351F4E98DFA8D808118
:1013E000813329F4EB8DFC8D8081813329F01092BB
:1013F00031021092300206C081E090E090933102F9
:10140000809330028B2D9A2D9C010FB6F8943EBF2D
:101410000FBE2DBF0FB6F894DEBE0FBECDBEAA968E
:101420000FB6F894DEBF0FBECDBFCF91DF911F91F5
:101430000F91FF90EF90DF90CF90BF90AF90089505
:10144000AF92BF92CF92DF92EF92FF920F931F93D2
:10145000DF93CF93CDB7DEB7CF59D0400FB6F89416
:10146000DEBF0FBECDBF0E94CA17813009F0B5C1E3
:101470006AE0C62ED12CCC0EDD1E86E9D6011D9267
:101480008A95E9F7FE01319689E0DF011D928A9580
:10149000E9F7C6010E94921A282F30E0EE24FF24BB
:1014A000A60103C00894E11CF11CFA01EE0DFF1D1A
:1014B0008081843221F0E216F306A4F303C0E21621
:1014C000F3061CF0EE24EA94FE2C00E010E0AE01DE
:1014D000465F5F4F02C00F5F1F4FFA01E00FF11F21
:1014E00080818A3221F002171307ACF303C0021780
:1014F000130714F00FEF1FEFBFEFEB16BFEFFB0664
:1015000039F1EFEF0F3F1E0719F1FE01E00FF11F58
:10151000158686E596E0BE01665F7F4F0E946323D5
:101520000E94EF1D6093A6027093A7028093A80209
:101530009093A9028FE4809334020E191F090D5F66
:101540001F4FC6018E0D9F1DB8010E9453081DC07C
:1015500086E596E066E571E00E94602386E596E008
:10156000B7014AE050E00E942E2386E596E060E64F
:1015700071E00E94602386E596E0B8014AE050E001
:101580000E94412381E08093A1028091A1028130D9
:1015900039F486E596E064E671E00E94632363C156
:1015A000E0909502F09096020091970210919802B7
:1015B000C801B7010E94222720E030E04FEA53E43F
:1015C0000E9489265B016C01C801B7018E010F5F83
:1015D0001F4FA8012EE531E00E94260780E892E027
:1015E00060E040E00E941B1C80912602813421F4BF
:1015F00080E892E0B80115C0809195029091960222
:10160000A0919702B09198020097A105B10529F029
:1016100080E892E068E771E004C080E892E061E869
:1016200071E00E94602380E892E060E041E00E9467
:101630001B1C8091300290913102892B29F4CE013C
:1016400001966DE870E03AC080912C0290912D02D5
:10165000FFEF8F3F9F0741F088549D402CF4CE014F
:10166000019664E870E02AC080912E0290912F02CA
:10167000AFEF8F3F9A0741F0825C91402CF4CE018E
:1016800001966DE770E01AC020912702263529F4F3
:10169000CE01019667E770E006C0CE0101962134C5
:1016A00059F461E770E00E943E03CE01069662EABB
:1016B00072E00E94690304C068E670E00E943E0385
:1016C00080E892E0BE016F5F7F4F0E946023E09050
:1016D0009D02F0909E0200919F021091A002C8010D
:1016E000B70120E030E040E05FE30E9485268823D8
:1016F0009CF4C601B50120E030E040E05FE30E94C9
:10170000D42788234CF080ED97E062E070E044EF4E
:1017100051E024EF31E056C0C801B70120E030E0CD
:1017200040E85FE30E94852688239CF4C601B5014A
:1017300020E030E040E85FE30E94D42788234CF0AB
:1017400080ED97E064E070E04AEF50E02AEF30E08F
:1017500039C0C801B70120E030E040E450E40E9405
:10176000852688239CF4C601B50120E030E040E4E2
:1017700050E40E94D42788234CF080ED97E068E085
:1017800070E04DE750E02DE730E01CC0C801B70124
:1017900020E030E040EA50E40E9485268823A4F44B
:1017A000C601B50120E030E040EA50E40E94D427B1
:1017B000882354F080ED97E060E170E041E450E070
:1017C00021E430E00E940F08A0929D02B0929E0298
:1017D000C0929F02D092A00246C00E94EF1D9B01C2
:1017E000AC01809134028F34F1F58091A602909182
:1017F000A702A091A802B091A902281B390B4A0B9D
:101800005B0B8091350290913602A0913702B09126
:10181000380282179307A407B5072CF580EA9FE0EA
:1018200061E070E048EE53E021E030E00E940F08F4
:1018300088E58093340280E892E060E040E00E9416
:101840001B1C80E892E06AE871E00E94602380E857
:1018500092E060E041E00E941B1C80E892E063E9B6
:1018600071E00E9460230E949A06C156DF4F0FB6B6
:10187000F894DEBF0FBECDBFCF91DF911F910F91C6
:10188000FF90EF90DF90CF90BF90AF900895EF92D0
:10189000FF920F931F938AE061E00E94FB1E81E19B
:1018A00061E00E94FB1E8091200261E00E94FB1E0D
:1018B0008091220261E00E94FB1E8091240260E080
:1018C0000E94FB1E60E070E080E89FE30E948A06B1
:1018D0001092AF021092AE021092B1021092B002BA
:1018E00000E812E0C80168E042E020E00E94521CDB
:1018F000C8016CE971E00E946023C80160E041E02A
:101900000E941B1CC80165EA71E00E946023C801A7
:1019100060E041E00E941B1C80EA9FE062E070E012
:1019200042E350E026E930E00E940F0860ED77E0E6
:1019300080E090E00E94FD1DC80160E040E00E9450
:101940001B1CC8016EEA71E00E946023C80160E0C0
:1019500041E00E941B1CC80167EB71E00E946023FC
:10196000C80160E041E00E941B1CC80160EC71E00E
:101970000E94602379E3E72E72E0F72EC801B701D9
:101980000E94602360ED77E080E090E00E94FD1D02
:1019900006E516E0C80140E051EE60E070E00E940C
:1019A0006B20C80162EC71E00E946023C801B7019E
:1019B0000E9463230E94B21AC80163EE71E00E9484
:1019C000632384E392E10E94221AC80164EF71E06C
:1019D0000E9460230E946219BC01C80140E150E0EE
:1019E0000E94D12284E10E944019C8016BE072E09C
:1019F0000E946023C80164E170E04AE050E00E9468
:101A000041231F910F91FF90EF900895FC011382E5
:101A1000128288EE93E0A0E0B0E084839583A683F1
:101A2000B7838BE492E091838083128E118E1486AB
:101A30000895FC018BE492E0918380830895DF9305
:101A4000CF930F92CDB7DEB7FC016983A081B1813E
:101A500012962D913C911397BE016F5F7F4F41E02D
:101A600050E0F90109950F90CF91DF910895DC01C5
:101A70005996ED91FC915A97309719F420E030E097
:101A800018C0238934894589568982859385A48520
:101A9000B585281B390B4A0B5B0B2030B0E83B07A0
:101AA000B0E04B07B0E05B0720F02FEF3FE740E0EE
:101AB00050E0C9010895FC01818D928D009711F0CD
:101AC0000E94D8100895DF93CF930F92CDB7DEB761
:101AD000FC01818D928D009749F0BE016F5F7F4FB1
:101AE00041E050E00E942211019719F02FEF3FEFE3
:101AF00003C08981282F30E0C9010F90CF91DF9179
:101B00000895EF92FF920F931F93DF93CF930F925D
:101B1000CDB7DEB77C01DC0159968D919C915A9727
:101B2000009719F400E010E01FC0BE016F5F7F4F07
:101B300041E050E00E942211019719F00FEF1FEFD2
:101B400013C08981082F10E0D7015996ED91FC91BF
:101B50005A97428553856485758541505040604051
:101B60007040CF010E941210C8010F90CF91DF91F9
:101B70001F910F91FF90EF900895CF93DF93EC01A9
:101B8000E98DFA8D309761F013821282CF010E94A5
:101B90005E129C01E98DFA8D82819381892B31F04F
:101BA00081E090E09B838A8320E030E0C901DF91EF
:101BB000CF9108951092B7021092B8021092BB0212
:101BC0001092BD0282E090E0A0E0B0E08093BE02FF
:101BD0009093BF02A093C002B093C1021092D502AD
:101BE0001092DF021092DE028BE592E09093DD020C
:101BF0008093DC021092E1020895FF920F931F93ED
:101C0000CF93DF938B010E94EF1DEB01FF24FA9429
:101C1000FEBC0DB407FEFDCF8EB58F3F11F481E001
:101C200008C00E94EF1D6C1B7D0B6017710780F3CD
:101C300080E0DF91CF911F910F91FF900895FC01FB
:101C4000848160E00E943A1F0895FC01848161E074
:101C50000E943A1F0895DC016EBDFA0120E030E0D9
:101C60000DB407FEFDCF80818EBD0DB407FEFDCF04
:101C700081818EBD2E5F3F4F329682E02030380743
:101C800079F70DB407FEFDCF8FEF8EBD0DB407FEC3
:101C9000FDCF8FEF8EBD0DB407FEFDCF8FEF8EBD54
:101CA0000DB407FEFDCF8EB51A968C931A978F71DF
:101CB000853011F481E0089581E115968C93159794
:101CC000CD010E94250E80E00895FF920F931F938F
:101CD000CF93DF93EC010E94EF1D8B01FF24FA9458
:101CE00009C00E94EF1D601B710B6D52714010F016
:101CF0008FE00DC0FEBC0DB407FEFDCF8EB58A8708
:101D00008F3F79F38E3F11F481E006C08DE08D8323
:101D1000CE010E94250E80E0DF91CF911F910F919F
:101D2000FF900895CF93DF93EC018E818823D1F04B
:101D30008FEF8EBD2F8138854FEF04C00DB407FEA5
:101D4000FDCF4EBD2F5F3F4FC9010197815092409B
:101D5000A8F338872F830DB407FEFDCFCE010E9474
:101D6000250E1E82DF91CF910895DF92EF92FF92B0
:101D70000F931F93CF93DF93EC01D62E79018A0145
:101D80000E94920ECE010E941F0ECE016CE271E005
:101D90000E94FD0D8D2D80648EBD0DB407FEFDCF1C
:101DA00028E130E0D801C701022E04C0B695A795FE
:101DB000979587950A94D2F78EBD0DB407FEFDCF97
:101DC000285030408FEF283F380761F7DD2011F4AD
:101DD00085E906C088E0D81611F487E801C08FEFC6
:101DE0008EBD0DB407FEFDCF90E02FEF2EBD0DB4DC
:101DF00007FEFDCF8EB587FF02C09150B9F78A87E5
:101E0000DF91CF911F910F91FF90EF90DF90089598
:101E1000CF92DF92EF92FF920F931F93CF93DF93B6
:101E2000EC017A018B0169014115510561057105CC
:101E300011F482E137C08B85833039F029E0EE0C54
:101E4000FF1C001F111F2A95D1F7CE0168E1A801E0
:101E500097010E94B50E882311F084E023C0CE01C3
:101E60006EEFA6010E942B0E8823E9F0CE0168E5F3
:101E700072E00E94FD0D882311F485E113C0CE01AC
:101E80006DE020E030E040E050E00E94B50E882395
:101E900041F48FEF8EBD0DB407FEFDCF8EB58823C4
:101EA00079F084E18D83CE010E94250E80E0DF91E0
:101EB000CF911F910F91FF90EF90DF90CF900895F9
:101EC000CE010E94250E81E0F2CF8F929F92AF92B9
:101ED000BF92CF92DF92EF92FF920F931F93CF9317
:101EE000DF93EC015A016B0149010115110509F459
:101EF0007BC0C801820F931F8150924008F06FC0D1
:101F00008E81882371F088819981AA81BB814817CD
:101F100059076A077B0729F48F81988588169906E7
:101F200018F5A882B982CA82DB828B85833039F0AA
:101F300069E0AA0CBB1CCC1CDD1C6A95D1F7CE0154
:101F400061E1A60195010E94B50E882319F083E096
:101F50008D8345C0CE010E94650E882309F43FC0E1
:101F600018861F8281E08E838FEF8EBD8F819885CA
:101F70002FEF05C00DB407FEFDCF2EBD01968815CD
:101F80009905C0F398878F83D801119720E030E03E
:101F90009FEF0BC00DB407FEFDCF8EB5F701E20F2A
:101FA000F31F80839EBD2F5F3F4F2A173B0790F39F
:101FB0000DB407FEFDCF8EB5AE0DBF1D8C932F81E6
:101FC0003885200F311F38872F838985882319F0A2
:101FD0002050324048F0CE010E94920E05C0CE0142
:101FE0000E94250E80E001C081E0DF91CF911F911A
:101FF0000F91FF90EF90DF90CF90BF90AF909F90A8
:102000008F900895EF92FF920F931F93790120E034
:1020100030E000E012E00E94650F1F910F91FF90E9
:10202000EF9008956F927F928F929F92AF92BF929E
:10203000CF92DF92EF92FF920F931F93CF93DF9394
:10204000EC017A018B012D81222309F480C08B8958
:102050009C89AD89BE8984179507A607B70708F440
:1020600076C085C0E114F1040105110549F41E8212
:102070001F82188619861A861B861C861D8665C0D7
:102080002A853B854C855D85EB8DFC8D858590E0B3
:102090000996215030404040504039014A01082EF5
:1020A00004C096948794779467940A94D2F72F5F2C
:1020B0003F4F4F4F5F4F0894E108F10801091109A4
:1020C0005701680104C0D694C794B794A7948A9521
:1020D000D2F70894E11CF11C011D111DA614B704D0
:1020E000C804D90428F0211531054105510549F4EA
:1020F0008F89988DA98DBA8D8E839F83A887B98784
:1021000016C0A618B708C808D90811C04E815F814B
:10211000688579858B8D9C8D94010E943915089472
:10212000A108B108C108D108882331F410C086E0A5
:10213000882E912C8C0E9D1EA114B104C104D104D3
:1021400029F7EA86FB860C871D8781E001C080E0C5
:10215000DF91CF911F910F91FF90EF90DF90CF9083
:10216000BF90AF909F908F907F906F900895223096
:1021700009F078CFE6CFCF93DF93EC01462F6E8541
:102180007F85888999890E946214882319F420E048
:1021900030E00AC08A89282F30E095E0220F331FF3
:1021A0009A95E1F723503D4FC901DF91CF910895F2
:1021B0000F931F93CF93DF938C01FC0185818823BC
:1021C000D9F1848187FF35C0C80161E00E94BB104E
:1021D000EC01009789F1F8018581823040F4838910
:1021E0009489A589B6898C8F9D8FAE8FBF8FF8019A
:1021F0008789908D9B8F8A8F8789908DA18DB28DD5
:10220000CD01AA27BB279D8B8C8BE091FB02F0911F
:10221000FC02309751F0BE016A5E7F4FCE014896B6
:102220000995888D998D9B8B8A8BF80184818F7796
:1022300084830E94271401C080E0DF91CF911F9119
:102240000F9108952F923F924F925F926F927F92DB
:102250008F929F92AF92BF92CF92DF92EF92FF92B6
:102260000F931F93CF93DF93EC012A018D81882375
:1022700009F4C6C08C8180FFC3C0D8C025014E18A8
:102280005F084B0176E0272E312C2C0E3D1E3201CB
:10229000B1C02A853B854C855D856FEFA62E61E038
:1022A000B62EA222B3228D8179018A0199E016957A
:1022B0000795F794E7949A95D1F7EB8DFC8D8230D2
:1022C00049F4428D538D648D758D4E0D5F1D601FD9
:1022D000711F3FC0D480DA94DE20A114B104D9F478
:1022E000DD20C9F4211531054105510549F48F89D7
:1022F000988DA98DBA8D8E839F83A887B9870BC0CF
:102300004E815F8168857985CF0191010E943915E1
:10231000882309F475C0EB8DFC8D4E815F81688543
:1023200079854250504060407040058404C0440F9D
:10233000551F661F771F0A94D2F786859785A08957
:10234000B189480F591F6A1F7B1F4D0D511D611D1B
:10235000711D80E092E08A199B096301861597053B
:1023600008F46C018C8186FD06C080E0C81682E00E
:10237000D80609F073C080913F0290914002A0916D
:102380004102B0914202481759076A077B0709F4D6
:1023900065C08091FD049091FE0495018601740151
:1023A0000E94650F882361F18C0C9D1C12C0950161
:1023B00023503D4FA9014C0D5D1DD401F90102C010
:1023C00081918D93E417F507D9F7E21BF30B8E0E7D
:1023D0009F1E960140E050E08A859B85AC85BD85B7
:1023E000820F931FA41FB51F8A879B87AC87BD8769
:1023F0006C187D086114710409F04BCFA20102C072
:102400004FEF5FEFCA01DF91CF911F910F91FF90C6
:10241000EF90DF90CF90BF90AF909F908F907F9084
:102420006F905F904F903F902F900895AB88BC883D
:10243000CD88DE88EA84FB840C851D859A0140E006
:1024400050E0D601C5018E199F09A00BB10B821770
:102450009307A407B50708F411CF13CFCB01BA0136
:1024600040E00E946214882309F0A1CFC9CFCF9326
:10247000DF93EC019C012A5F3F4F8B8D9C8D41E0E7
:1024800050E060E070E00E94AC158823A1F08F89D5
:10249000988DA98DBA8D0097A105B10559F48E814B
:1024A0009F81A885B9858F8B988FA98FBA8F8C81D2
:1024B00080688C8381E0DF91CF9108952F923F92C5
:1024C0004F925F927F928F929F92AF92BF92CF92E4
:1024D000DF92EF92FF920F931F93DF93CF9300D081
:1024E00000D000D0CDB7DEB76C01162F072F5E836A
:1024F0004D83DC0115968C911597813009F070C1E0
:1025000014968C9181FF6CC18EC1F6014389548968
:102510006589768982859385A485B5858417950715
:10252000A607B70731F0C6010E941210882309F4EC
:1025300057C1812F902F9C0129012D803E8017C10A
:10254000D6015B96ED91FC915C97DA01C90119E027
:10255000B695A795979587951A95D1F774807A9433
:1025600078227FEF872E71E0972E822293227720A8
:1025700009F04EC08114910409F04AC0D6011696A4
:102580004D915D916D917C911997411551056105B2
:10259000710581F457968D919D910D90BC91A02D60
:1025A0000097A105B10549F1F60186839783A087BD
:1025B000B1872EC0CF019E012F5F3F4F0E9439157A
:1025C000882309F414C129813A814B815C81D601A9
:1025D0005B96ED91FC915C978789803129F088EFBB
:1025E0009FEFAFEFBFE004C088EF9FEFA0E0B0E047
:1025F000281739074A075B0730F0C6010E943712D7
:10260000882331F4EDC0F601268337834087518754
:1026100080E092E08819990951018215930508F428
:102620005C01D6015B96ED91FC915C971696ED905E
:10263000FD900D911C9119978EEF9FEFAFEFBFEFBB
:10264000E80EF91E0A1F1B1F058404C0EE0CFF1CB8
:10265000001F111F0A94D2F786859785A089B1893A
:10266000E80EF91E0A1F1B1FE70CF11C011D111DAE
:1026700090E0A91692E0B90651F580913F02909141
:102680004002A0914102B09142028E159F05A00721
:10269000B10761F48FEF9FEFAFEFBFEF80933F0281
:1026A00090934002A0934102B09342028091FD04B6
:1026B0009091FE04B801A70192010E94080F88239F
:1026C00009F48EC0A0E0B2E04A0E5B1E3EC0811449
:1026D000910409F5F6012285338544855585838962
:1026E0009489A589B689281739074A075B0798F0A6
:1026F0000E942714882309F473C0E0923F02F092ED
:10270000400200934102109342028091FF048160D5
:102710008093FF0408C0C801B70141E00E94621421
:10272000882309F45DC0940123503D4FA9014A0D4F
:102730005B1DD201F90102C08D918193E417F50769
:10274000D9F7E21BF30B4E0E5F1E2A183B089501CA
:1027500040E050E0F60182859385A485B585820F1F
:10276000931FA41FB51F82879387A487B587D601BF
:102770001A962D913D914D915C911D972114310434
:1027800009F0DECE53968D919D910D90BC91A02DB8
:1027900082179307A407B50748F4F601238B348BFF
:1027A000458B568B84818068848311C08091FB02A5
:1027B0009091FC02892B59F08D819E81892B39F0F3
:1027C000D60114968C911497806814968C93F60118
:1027D000848183FF0EC0C6010E94D810882349F46B
:1027E00081E090E0D60113969C938E9312971E82FF
:1027F0001D828D819E8126960FB6F894DEBF0FBE96
:10280000CDBFCF91DF911F910F91FF90EF90DF909F
:10281000CF90BF90AF909F908F907F905F904F90A0
:102820003F902F90089582FD70CE83CEDF93CF939B
:102830000F92CDB7DEB76983BE016F5F7F4F41E076
:1028400050E00E945E120F90CF91DF910895809129
:10285000FF04882399F140913F025091400260911A
:102860004102709142028091FD049091FE042DEF8F
:1028700032E00E94080F882319F140910005509121
:10288000010560910205709103054115510561052F
:10289000710591F08091FD049091FE042DEF32E0DE
:1028A0000E94080F882361F0109200051092010524
:1028B00010920205109203051092FF0481E0089522
:1028C00080E00895DF92EF92FF920F931F937B01B8
:1028D0008C01D42E80913F0290914002A091410240
:1028E000B09142028E159F05A007B107C1F00E946A
:1028F00027148823D9F08091FD049091FE04B8013B
:10290000A7012DEF32E00E940210882379F0E092B7
:102910003F02F092400200934102109342028091E4
:10292000FF048D298093FF0481E001C080E01F91A6
:102930000F91FF90EF90DF9008954F925F926F920A
:102940007F928F929F92AF92BF92CF92DF92EF923F
:10295000FF920F931F93CF93DF93EC016A017B01EA
:1029600028013901423051056105710508F46FC035
:1029700089859A85AB85BC850196A11DB11D8417FB
:102980009507A607B70708F462C02B893C894D89D3
:102990005E898F89803129F499278F2D7E2D6D2DA9
:1029A00009C0C701B60117E0969587957795679599
:1029B0001A95D1F74B015C01820E931EA41EB51E21
:1029C00080913F0290914002A0914102B091420259
:1029D00088169906AA06BB0639F0C501B40140E085
:1029E0000E946214882399F18F89803149F4F6019D
:1029F000F070EE0FFF1FE350FD4F518240820DC07B
:102A0000F601EF77F070EE0FFF1FEE0FFF1FE350A0
:102A1000FD4F40825182628273828091FF04816007
:102A20008093FF048A89823080F08D819E81AF81FE
:102A3000B885880E991EAA1EBB1E80920005909232
:102A40000105A0920205B092030581E001C080E07B
:102A5000DF91CF911F910F91FF90EF90DF90CF907A
:102A6000BF90AF909F908F907F906F905F904F90AE
:102A70000895CF92DF92EF92FF920F931F93CF931F
:102A8000DF93EC017A018B01690189859A85AB8519
:102A9000BC850196A11DB11D84179507A607B70730
:102AA00008F450C02B893C894D895E898F8980311B
:102AB00029F49927812F702F6F2D09C0C801B70104
:102AC000E7E09695879577956795EA95D1F7260F74
:102AD000371F481F591F80913F0290914002A091DB
:102AE0004102B0914202281739074A075B0739F0C3
:102AF000CA01B90140E00E946214882319F18F894C
:102B0000803159F4F701F070EE0FFF1FE350FD4FD5
:102B100080819181A0E0B0E00EC0F701EF77F07006
:102B2000EE0FFF1FEE0FFF1FE350FD4F80819181DD
:102B3000A281B381BF70F60180839183A283B383A6
:102B400081E001C080E0DF91CF911F910F91FF9054
:102B5000EF90DF90CF9008952F923F924F925F9227
:102B60006F927F928F929F92AF92BF92CF92DF929D
:102B7000EF92FF920F931F93DF93CF93CDB7DEB702
:102B80002F970FB6F894DEBF0FBECDBF1C014A874A
:102B90005B876C877D873F872E87D9010D911D91BB
:102BA0002D913C91011511052105310549F0480190
:102BB00059010894811C911CA11CB11C198610C0DC
:102BC000FC0180809180A280B38019868A859B85D4
:102BD000AC85BD850197A105B10511F491E09987F8
:102BE000D10119968D919D910D90BC91A02D0196CA
:102BF000A11DB11D8D839E83AF83B88775016401CC
:102C00004424552432018E010F5F1F4FF10181854D
:102C10009285A385B485481659066A067B0608F096
:102C200090C08D819E81AF81B8858C159D05AE05C4
:102C3000BF0550F482E0882E912CA12CB12CB2E07B
:102C4000CB2ED12CE12CF12CC101B701A6019801AA
:102C50000E943915882309F474C089819A81AB8157
:102C6000BC81A70196012F5F3F4F4F4F5F4F0097E9
:102C7000A105B10519F049015A010DC028193909FA
:102C80004A095B098A859B85AC85BD85281739076C
:102C90004A075B0759F00894411C511C611C711CC8
:102CA0000894C11CD11CE11CF11CB0CFC101A601CC
:102CB000B7010FEF1FEF2FEF3FE00E949D14882315
:102CC00099F43FC026013701089441085108610872
:102CD0007108C101B301A201970186010E949D14F0
:102CE000882379F1730162018C149D04AE04BF0442
:102CF00048F3AE85BF854D915D916D917C914115F5
:102D000051056105710539F0C101950184010E94E9
:102D10009D148823B1F0EE85FF8580829182A28286
:102D2000B382F985FF2359F00894811C911CA11CE2
:102D3000B11CD1018D929D92AD92BC92139781E00E
:102D400001C080E02F960FB6F894DEBF0FBECDBF56
:102D5000CF91DF911F910F91FF90EF90DF90CF9077
:102D6000BF90AF909F908F907F906F905F904F90AB
:102D70003F902F90089520918D0530E0F901E35F99
:102D8000FA4F80832F5F3F4F2F77307020938D0550
:102D900080910B058F5F80930B05089520910C05A2
:102DA00030E0F901E35FFA4F80812F5F3F4F2F77CB
:102DB000307020930C0590910B05915090930B056A
:102DC00008959C01F999FECF32BD21BDF89A80B5D6
:102DD00008959C01F999FECF1FBA32BD21BD60BD97
:102DE0000FB6F894FA9AF99A0FBE0895DF93CF932D
:102DF0000F92CDB7DEB780689FB79983F894439858
:102E00008EBD0DB407FEFDCF8EB58EBD0DB407FE91
:102E1000FDCF8EB5439A99819FBF0F90CF91DF91DF
:102E20000895DF93CF930F92CDB7DEB7482F20E000
:102E300030E0942F906C8FB78983F89443989EBDAF
:102E40000DB407FEFDCF8EB5CB01022E02C09695C4
:102E500087950A94E2F78EBD0DB407FEFDCF8EB5BF
:102E6000439A89818FBF4F5F285F3F4F20313105E3
:102E700001F70F90CF91DF910895DF93CF930F92D9
:102E8000CDB7DEB7482F20E030E0FB01E20FF31FA3
:102E9000E081942F920F906C8FB78983F8944398B8
:102EA0009EBD0DB407FEFDCF8EB5EEBD0DB407FE81
:102EB000FDCF8EB5439A89818FBF2F5F3F4F28305A
:102EC000310519F70F90CF91DF910895FF920F937D
:102ED0001F93DF93CF930F92CDB7DEB7182FF62E47
:102EE000042F0E94F616982F106C8FB78983F894E0
:102EF00043981EBD0DB407FEFDCF8EB5802F809583
:102F000089230F21802B8EBD0DB407FEFDCF8EB51A
:102F1000439A89818FBF0F90CF91DF911F910F91BD
:102F2000FF900895813051F0813028F0823049F0CF
:102F30008330E1F411C08CE068E005C08CE06CE007
:102F400002C08CE06CE14FE30E94661786E162E00C
:102F500043E00E94661708958CE060E04FE30E9412
:102F6000661786E163E043E00E946617089584B126
:102F7000886284B93B9A2D9A439A2C9A2A9A8CB5E6
:102F800081618CBD8DB581608DBD8CB580648CBD3B
:102F9000439A08958091910508950F931F93082FE8
:102FA000429B02C084E445C081E00E94F616182FBF
:102FB0001F71812F8151823020F0113011F01230B9
:102FC00031F481E00E94F6168F718117D1F306313A
:102FD00079F0093151F00830B1F4429886E090E080
:102FE0000E94561E82E063E007C0163161F402C001
:102FF000193149F482E069E04FE10E94661781E0EF
:1030000090E00E94561E82E0602F4FE10E946617FA
:10301000183011F081E001C084EB90E00E94561E50
:1030200081E00E94F6168F71801711F083E401C0D1
:1030300080E41F910F9108951F920F920FB60F9287
:103040001124AF92BF92CF92DF92EF92FF920F9333
:103050001F932F933F934F935F936F937F938F9320
:103060009F93AF93BF93EF93FF93DF93CF93CDB72E
:10307000DEB7E497DEBFCDBF8FB78983F8941E9B80
:10308000BCC043988FE88EBD0DB407FEFDCF8EB552
:103090001EBC0DB407FEFDCF0EB5439A20E2E22E12
:1030A00090E8A92EB12C83E0C82ED12CCC0EDD1EC9
:1030B000A1C002FF02C00B7F9DC003FF7EC081E064
:1030C0000E94F6168F71863029F0863119F0813111
:1030D00009F069C087E00E94F6168093A10586E09A
:1030E0000E94F616881F8827881F8093A2058823D0
:1030F00009F45CC08FB78A83F8944398EEBC0DB492
:1031000007FEFDCF8EB51EBC0DB407FEFDCFFEB48D
:103110008F2D83508D37B8F52F2D30E080910B0522
:10312000A501481B51092417350714F080E016C08B
:103130008F2D0E94BB1610E008C01EBC0DB407FE08
:10314000FDCF8EB50E94BB161F5F1F15B0F31BC0CD
:103150001EBC0DB407FEFDCF9EB58F5F8F15C0F36B
:1031600080919B0590919C05019690939C0580937E
:103170009B05C60166E970E00E943E0386E596E085
:10318000B6010E946023439A8A818FBF8091930584
:10319000909194050196909394058093930581E016
:1031A0008093910503C081E08093920586E10E949F
:1031B000CD178034D9F7077F1DC006FF0BC00F7BEA
:1031C00080919D0590919E05019690939E05809318
:1031D0009D0510C001FF02C00D7F0CC000FF02C0A2
:1031E0000E7F08C007FF06C00F7780919F058F5F95
:1031F00080939F05002309F05CCF89818FBFE496FF
:10320000DEBFCDBFCF91DF91FF91EF91BF91AF9125
:103210009F918F917F916F915F914F913F912F91EE
:103220001F910F91FF90EF90DF90CF90BF90AF90E4
:103230000F900FBE0F901F9018951F93182F88E0C6
:10324000612F4FE10E94661781E00E94F6168F7190
:10325000863011F0893021F486E990E00E94561EF4
:1032600088E00E94F61690E08F719070212F30E078
:103270008217930711F083E401C080E41F91089541
:103280000E941D1908959C01F999FECFCB01B90147
:1032900021EE36E10E94A1030895DF93CF9300D081
:1032A000CDB7DEB789E090E0BE016F5F7F4F42E0AF
:1032B00050E00E94431989819A810F900F90CF911D
:1032C000DF9108950E944D190895BC0180E090E0BF
:1032D00048E050E00E94431908950F931F93DF9335
:1032E000CF93CDB7DEB7EB970FB6F894DEBF0FBE26
:1032F000CDBF0E94B7173A9A8FB78983F894439845
:103300008EEC8EBD0DB407FEFDCF8EB51EBC0DB488
:1033100007FEFDCF8EB5439A89818FBF82E063E0BF
:103320004FE10E9466178EEF91E00E94561E81E0E9
:103330000E9492178BE00E941D1985E060E840E82A
:103340000E94661786E10E94CD1782E264E372E173
:103350000E9411170E944D19BC0180E20E941117B2
:103360008E010E5F1F4FC8010E94651984E2B801EB
:103370000E943D178FE00E94F6168FB78983F8945C
:1033800043988EEC8EBD0DB407FEFDCF8EB588E060
:103390008EBD0DB407FEFDCF8EB5439A89818FBFD8
:1033A00080916B00806480936B00809168008160E5
:1033B0008093680081E00E94F6168F71863111F4C7
:1033C00081E00EC08E01065F1F4FC8016DE071E005
:1033D0000E943E0386E596E0B8010E94602380E0EB
:1033E000EB960FB6F894DEBF0FBECDBFCF91DF9145
:1033F0001F910F910895F999FECF29EE36E10E94B1
:10340000BD030895DF93CF9300D0CDB7DEB79A8385
:10341000898389E090E0BE016F5F7F4F42E050E01A
:103420000E94FB1969817A8180E20E9411178981CB
:103430009A8190938F0580938E050F900F90CF9176
:10344000DF9108950E94021A0895DF92EF92FF9291
:103450000F931F93CF93DF937C01DC011596CD91E1
:10346000DC9116970E94CE16D82E87FD52C0888315
:10347000082F10E00F5F1F4F0C0F1D1F03C00E948D
:10348000CE1688832196C017D107C9F7D7011596A4
:10349000ED91FC91169743818681978114969C93B8
:1034A0008E931397BF01685F7F4F80859185129639
:1034B0009C938E93119780910B05882311F41092A1
:1034C000910580914302481751F4F701218132811F
:1034D000809144029091450228173907D1F040931A
:1034E0004302D70111968D919C91129790934502BA
:1034F000809344026E5F7F4F4D2D50E04950504005
:1035000015968D919C9116970E944E038D2D8B5090
:1035100001C080E0DF91CF911F910F91FF90EF905C
:10352000DF9008950F931F9390930A0580930905E8
:1035300004E015E0C8010E94251AF80180831F915C
:103540000F91089586E1EEE8F5E0DF011D928A957E
:10355000E9F70E944D1990938F0580938E050E9484
:103560006D1908950E94A21A0895CF93DF93DC018C
:10357000EA019C9121E030E007C0FD01E20FF31F5A
:10358000808198272F5F3F4F26173707B4F3888134
:103590008A3314F0875301C0805349814A3314F0B1
:1035A000475301C0405320E030E08295807F840F74
:1035B000981711F421E030E0C901DF91CF9108950F
:1035C000CF93DF93DC018C91843259F5FD01E60F36
:1035D000F71F339780818A3221F562507040ED01E8
:1035E000C60FD71F6E5F7F4F9881892F80538A3017
:1035F00018F091549630A8F4FD01E60FF71F3197AB
:10360000E0818E2F80538A3018F0E154E63048F480
:1036100064507040CD010196AE010E94B51A9C0124
:1036200002C020E030E0C901DF91CF9108951F92E0
:103630000F920FB60F9211248F939F938091A40540
:103640009091A50501969093A5058093A4059F915F
:103650008F910F900FBE0F901F901895813091059C
:1036600041F46F5F7F4F71F486EA95E00E94060D8A
:103670000895892B39F46F5F7F4F21F486EA95E036
:103680000E94190D089580E090E06FEF7FEF0E9497
:103690002E1B089581E090E06FEF7FEF0E942E1BBC
:1036A00008950F931F938C01FC01868160E00E94B6
:1036B0003A1F81E090E00E94561EF801868161E089
:1036C0000E943A1F81E090E00E94561EF801868118
:1036D00060E00E943A1F84E690E00E94561E1F910F
:1036E0000F910895CF92DF92EF92FF920F931F9365
:1036F000CF93DF93D82EC92E282F392FC9018C01E3
:10370000C0E0D0E0E62EFF24F801878161E00E944E
:10371000FB1EB7010C2E02C0759567950A94E2F75F
:103720006170F80187810E943A1F21960F5F1F4F39
:10373000C830D10549F78D2D9C2D0E94511BDF917A
:10374000CF911F910F91FF90EF90DF90CF90089550
:10375000CF92DF92EF92FF920F931F93CF93DF935D
:10376000D82EC92E282F392FC9018C01C0E0D0E0F6
:10377000E62EFF24F801878161E00E94FB1EB7015D
:103780000C2E02C0759567950A94E2F76170F801F6
:1037900087810E943A1F21960F5F1F4FC430D105C9
:1037A00049F78D2D9C2D0E94511BDF91CF911F91C8
:1037B0000F91FF90EF90DF90CF9008951F93CF93DC
:1037C000DF93EC01162F8C81642F0E943A1F8D81AC
:1037D0008F3F19F060E00E943A1F8F8584FF05C07B
:1037E000CE01612F0E94721B0EC0612F70E084E039
:1037F000759567958A95E1F7CE010E94A81BCE01C9
:10380000612F0E94A81BDF91CF911F91089541E085
:103810000E94DE1B81E090E0089540E00E94DE1BE4
:103820000895FC016089862F8460808B6C60CF01D5
:103830000E940D1C0895DF93CF93CDB7DEB7289774
:103840000FB6F894DEBF0FBECDBF9C01FE013196CE
:10385000A7E6B2E088E00D9001928150E1F7F9010E
:103860008389481710F0482F4150E42FF0E0EE0F05
:10387000FF1FEC0FFD1F8181680F6068C9010E9466
:103880000D1C28960FB6F894DEBF0FBECDBFCF91AA
:10389000DF91089561E00E940D1C80ED97E00E9489
:1038A000561E0895CF93DF93EC01423018F08F85B8
:1038B00088608F874B8B1C8A222329F0413019F4B2
:1038C0008F8584608F8780E593EC0E94561E8C81E3
:1038D00060E00E943A1F8E8160E00E943A1F8D8155
:1038E0008F3F19F060E00E943A1F6F8564FD1DC094
:1038F000CE0163E00E94A81B84E991E10E94561E5C
:10390000CE0163E00E94A81B84E991E10E94561E4B
:10391000CE0163E00E94A81B86E990E00E94561E3B
:10392000CE0162E00E94A81B16C06062CE010E9418
:103930000D1C84E991E10E94561E6F856062CE01E4
:103940000E940D1C86E990E00E94561E6F85606201
:10395000CE010E940D1C6F856062CE010E940D1C7D
:1039600084E0888BCE010E94111CCE010E944A1C6B
:1039700082E0898BCE0166E00E940D1CDF91CF9121
:1039800008956F927F928F92AF92CF92EF920F93A2
:103990001F93DF93CF93CDB7DEB73C01162F842F53
:1039A000F301448325830683E782C086A18682864D
:1039B0009D8593879E8594879F859587988996870F
:1039C00061E00E94FB1EF30185818F3F19F061E0E9
:1039D0000E94FB1EF301868161E00E94FB1E112301
:1039E00019F0F301178603C080E1F3018787C30153
:1039F00060E141E020E00E94521CCF91DF911F91D5
:103A00000F91EF90CF90AF908F907F906F9008952F
:103A10008F92AF92CF92EF920F931F93CF93DF933A
:103A2000DC01362F542F722F102FAE2C8C2C1396B6
:103A30001C921E92129783E692E011969C938E93AD
:103A400000D000D0EDB7FEB73196CDB7DEB7198202
:103A5000118212821382CD0161E0432F2FEF052FD7
:103A6000E72EC12E0E94C11C0F900F900F900F9057
:103A7000DF91CF911F910F91EF90CF90AF908F90EA
:103A800008951F920F920FB60F9211242F933F9318
:103A90004F935F936F937F938F939F93AF93BF9356
:103AA000EF93FF938091C1059091C205892B29F076
:103AB000E091C105F091C2050995FF91EF91BF9189
:103AC000AF919F918F917F916F915F914F913F91B6
:103AD0002F910F900FBE0F901F9018951F920F926D
:103AE0000FB60F9211242F933F934F935F936F93D1
:103AF0007F938F939F93AF93BF93EF93FF938091A7
:103B0000C3059091C405892B29F0E091C305F0917C
:103B1000C4050995FF91EF91BF91AF919F918F914E
:103B20007F916F915F914F913F912F910F900FBEB9
:103B30000F901F9018951F920F920FB60F9211249D
:103B40002F933F934F935F936F937F938F939F93A5
:103B5000AF93BF932091C9053091CA054091CB0521
:103B60005091CC057091CD05DA01C9010296A11DD5
:103B7000B11D672F6A5F6D3730F06D57DA01C901EB
:103B80000396A11DB11D6093CD058093C905909347
:103B9000CA05A093CB05B093CC058091C505909143
:103BA000C605A091C705B091C8050196A11DB11D1C
:103BB0008093C5059093C605A093C705B093C8052B
:103BC000BF91AF919F918F917F916F915F914F9135
:103BD0003F912F910F900FBE0F901F9018958FB7A8
:103BE000F8942091C9053091CA054091CB055091B8
:103BF000CC058FBFB901CA0108959B01AC017FB705
:103C0000F8948091C5059091C605A091C705B09123
:103C1000C80566B5A89B05C06F3F19F00196A11DA8
:103C2000B11D7FBFBA2FA92F982F8827860F911D0E
:103C3000A11DB11D63E0880F991FAA1FBB1F6A95C4
:103C4000D1F7BC012DC0FFB7F8948091C5059091C4
:103C5000C605A091C705B091C805E6B5A89B05C0EB
:103C6000EF3F19F00196A11DB11DFFBFBA2FA92F7B
:103C7000982F88278E0F911DA11DB11DE3E0880F9D
:103C8000991FAA1FBB1FEA95D1F7861B970B885E69
:103C90009340C8F2215030404040504068517C4F22
:103CA000211531054105510571F60895019739F047
:103CB000019729F0880F991F01970197F1F708954F
:103CC000789484B5826084BD84B5816084BD85B5F7
:103CD000826085BD85B5816085BDEEE6F0E08081BE
:103CE00081608083E1E8F0E01082808182608083DF
:103CF000808181608083E0E8F0E080818160808362
:103D0000E1EBF0E0808184608083E0EBF0E0808193
:103D100081608083EAE7F0E0808184608083808135
:103D200082608083808181608083808180688083DD
:103D30001092C10008951F93CF93DF93182FEB01CA
:103D400061E00E94FB1E209709F44AC0CF3FD105D5
:103D500009F449C0E12FF0E0ED58FE4F8491833023
:103D6000C1F0843028F4813051F08230B1F50CC0BC
:103D7000863019F1873049F1843079F514C084B563
:103D8000806884BDC7BD33C084B5806284BDC8BDB2
:103D90002EC080918000806880938000D09389003D
:103DA000C093880024C0809180008062809380004E
:103DB000D0938B00C0938A001AC08091B0008068B5
:103DC0008093B000C093B30012C08091B0008062B5
:103DD0008093B000C093B4000AC0C038D1051CF471
:103DE000812F60E002C0812F61E00E943A1FDF91C5
:103DF000CF911F910895CF93DF93482F50E0CA01D0
:103E0000815A9E4FFC013491455B5E4FFA018491CB
:103E1000882369F190E0880F991FFC01E35DFE4F54
:103E2000A591B491FC01E95CFE4FC591D491662344
:103E300051F42FB7F8948C91932F909589238C93FC
:103E4000888189230BC0623061F42FB7F8948C917C
:103E5000932F909589238C938881832B88832FBF00
:103E600006C09FB7F8948C91832B8C939FBFDF91F2
:103E7000CF910895482F50E0CA018D589E4FFC0104
:103E80002491CA01815A9E4FFC019491455B5E4F7B
:103E9000FA013491332309F440C0222351F1233035
:103EA00071F0243028F42130A1F0223011F514C033
:103EB0002630B1F02730C1F02430D9F404C080910D
:103EC00080008F7703C0809180008F7D8093800079
:103ED00010C084B58F7702C084B58F7D84BD09C0C2
:103EE0008091B0008F7703C08091B0008F7D809368
:103EF000B000E32FF0E0EE0FFF1FE95CFE4FA5914D
:103F0000B4912FB7F894662321F48C91909589236E
:103F100002C08C91892B8C932FBF0895682F70E07D
:103F2000CB018D589E4FFC012491CB01815A9E4FAD
:103F3000FC014491655B7E4FFB019491992319F438
:103F400020E030E03CC0222351F1233071F02430D6
:103F500028F42130A1F0223011F514C02630B1F040
:103F60002730C1F02430D9F404C0809180008F77CD
:103F700003C0809180008F7D8093800010C084B545
:103F80008F7702C084B58F7D84BD09C08091B00059
:103F90008F7703C08091B0008F7D8093B000892F10
:103FA00090E0880F991F8F5B9E4FFC01A591B49103
:103FB0008C9120E030E0842311F021E030E0C90151
:103FC000089508951F920F920FB60F9211242F9308
:103FD0003F934F938F939F93EF93FF938091C000F4
:103FE00082FD1DC04091C60020910E0630910F0643
:103FF0002F5F3F4F2F733070809110069091110604
:104000002817390771F0E0910E06F0910F06E25380
:10401000FA4F408330930F0620930E0602C0809122
:10402000C600FF91EF919F918F914F913F912F91FA
:104030000F900FBE0F901F901895E0916206F091BF
:104040006306E05CFF4F8191919120813181821B59
:10405000930B8F739070892B11F00E94E11F0895CC
:104060001F920F920FB60F9211242F933F938F93AD
:104070009F93EF93FF9320915206309153068091C6
:104080005406909155062817390731F48091C100E4
:104090008F7D8093C10014C0E0915406F0915506C5
:1040A000EE5EF94F2081809154069091550601965D
:1040B0008F73907090935506809354062093C6009A
:1040C000FF91EF919F918F913F912F910F900FBE94
:1040D0000F901F901895AF92BF92DF92EF92FF92D0
:1040E0000F931F93CF93DF93EC017A018B01DD24B3
:1040F000D39491E0A92EB12CEC89FD89DD2069F0E3
:10410000C50108A002C0880F991F0A94E2F78083B6
:1041100060E874E88EE190E005C0108260E472E42B
:104120008FE090E0A80197010E945A28215030406A
:1041300040405040569547953795279580E120306F
:10414000380720F0DD2011F0DD24D6CFE889F98989
:104150003083EA89FB89208319A2EE89FF89408197
:1041600021E030E0C9010C8C02C0880F991F0A942D
:10417000E2F7482B4083EE89FF894081C9010D8C0D
:1041800002C0880F991F0A94E2F7482B4083EE89FA
:10419000FF894081C9010E8C02C0880F991F0A94C3
:1041A000E2F7482B4083EE89FF8980810F8C02C0A3
:1041B000220F331F0A94E2F7209528232083DF91F2
:1041C000CF911F910F91FF90EF90DF90BF90AF9034
:1041D0000895DC011C96ED91FC911D97E05CFF4F6A
:1041E0002191319180819181281B390B2F7330707F
:1041F000C9010895DC011C96ED91FC911D97E05CCE
:10420000FF4F20813181E054F040DF01AE5BBF4FB2
:104210008D919C9111972817390719F42FEF3FEFD3
:1042200007C08D919C91E80FF91F8081282F30E005
:10423000C9010895DC011C96ED91FC911D97E05C8D
:10424000FF4F20813181E054F040DF01AE5BBF4F72
:104250008D919C9111972817390719F42FEF3FEF93
:1042600010C08D919C911197E80FF91F20818D91BD
:104270009C91119701968F73907011969C938E93D9
:1042800030E0C9010895DC0191968C9191978823C3
:1042900039F05496ED91FC915597808186FFF9CFC6
:1042A00091961C920895CF93DF93EC01EE85FF85E4
:1042B000E05CFF4F20813181E054F0402F5F3F4FA1
:1042C0002F733070DF01AE5BBF4F8D919C911197C2
:1042D00028173907D1F3E05CFF4F80819181E054CA
:1042E000F040E80FF91F6083EE85FF85E05CFF4F2B
:1042F00031832083EE89FF89208181E090E00F8C5B
:1043000002C0880F991F0A94E2F7282B208381E0CE
:1043100089A3EC89FD8980818064808381E090E0BD
:10432000DF91CF910895109259061092580688EEA9
:1043300093E0A0E0B0E080935A0690935B06A093D0
:104340005C06B0935D0683E792E0909357068093F6
:1043500056068EEC95E0909363068093620682E1A8
:1043600096E0909365068093640685EC90E09093C8
:1043700067068093660684EC90E0909369068093CC
:10438000680680EC90E090936B0680936A0681EC5F
:1043900090E090936D0680936C0682EC90E0909391
:1043A0006F0680936E0686EC90E090937106809382
:1043B000700684E08093720683E08093730687E042
:1043C0008093740685E08093750681E0809376067D
:1043D0000895CF93DF930E94601E0E94470CCDE1A9
:1043E000D0E20E94200A2097E1F30E941D20F9CF1D
:1043F000CF92DF92EF92FF920F931F93CF93DF93B1
:104400007C016B018A01C0E0D0E00FC0D6016D9144
:104410006D01D701ED91FC910190F081E02DC70174
:104420000995C80FD91F015010400115110571F7EA
:10443000CE01DF91CF911F910F91FF90EF90DF9010
:10444000CF900895EF92FF920F931F938C01DC01A0
:10445000ED91FC910190F081E02D6DE009957C01DA
:10446000D801ED91FC910190F081E02DC8016AE046
:1044700009959C012E0D3F1DC9011F910F91FF90C1
:10448000EF900895CF93DF93EC016115710519F456
:1044900020E030E00FC0DB010D900020E9F711971C
:1044A000A61BB70BE881F9810280F381E02DAD01F5
:1044B00009959C01C901DF91CF9108954F925F92B8
:1044C0007F928F929F92AF92BF92CF92DF92EF92A4
:1044D000FF920F931F93DF93CF93CDB7DEB7A197D2
:1044E0000FB6F894DEBF0FBECDBF2C01742ECB01EA
:1044F000223008F42AE019A231E2C32ED12CCC0ECE
:10450000DD1E822E9924AA24BB24672D752FA501B8
:1045100094010E945A2879018A01C801B701A501B6
:1045200094010E943B28472D461B0894C108D108DE
:104530004A3014F4405D01C0495CF6014083E11447
:10454000F1040105110521F07E2C5F2DC801DDCF9E
:10455000C201B6010E944222A1960FB6F894DEBFB6
:104560000FBECDBFCF91DF911F910F91FF90EF90C4
:10457000DF90CF90BF90AF909F908F907F905F9093
:104580004F900895DC012115310541F4ED91FC9126
:104590000190F081E02D642F099508950E945E221C
:1045A0000895CF92DF92EF92FF920F931F936C01C9
:1045B0007B019A0100E010E0B801A7010E94C2222D
:1045C0008C01C6010E942222080F191FC8011F91E9
:1045D0000F91FF90EF90DF90CF900895CF92DF92F0
:1045E000EF92FF920F931F93CF93DF93EC016A0139
:1045F0007B012115310541F4E881F9810190F081B9
:10460000E02D642F09951FC02A303105D1F477FFC2
:1046100017C0E881F9810190F081E02D6DE20995E4
:104620008C0144275527BA014C195D096E097F0991
:10463000CE012AE00E945E229801280F391F04C093
:104640002AE00E945E229C01C901DF91CF911F9157
:104650000F91FF90EF90DF90CF900895EF92FF922F
:104660000F931F937B019A010027F7FC0095102FF1
:10467000B801A7010E94EE221F910F91FF90EF90C9
:104680000895CF92DF92EF92FF920F931F936C01E8
:104690007B019A010027F7FC0095102FB801A701B4
:1046A0000E94EE228C01C6010E942222080F191FCF
:1046B000C8011F910F91FF90EF90DF90CF90089568
:1046C0000E9442220895EF92FF920F931F937C0164
:1046D0000E9442228C01C7010E942222080F191F4A
:1046E000C8011F910F91FF90EF900895813041F024
:1046F000813018F08230D1F409C010926E00089514
:1047000080916F008D7F80936F000895809170007D
:104710008D7F8093700081E08093B0008091B10024
:10472000887F84608093B1001092B30008951F9336
:10473000182F80914602811711F09FEF06C0E7E81D
:10474000F1E094918FEF80934602892F0E947623A7
:10475000812F60E00E943A1F1F9108951F920F92CF
:104760000FB60F9211242F933F934F935F936F9344
:104770007F938F939F93AF93BF93EF93FF9380911A
:10478000860690918706A0918806B09189060097C9
:10479000A105B10551F1E0918A06F0918B06808167
:1047A00090918C0689278083809186069091870658
:1047B000A0918806B0918906181619061A061B06DC
:1047C000C4F48091860690918706A0918806B091E6
:1047D00089060197A109B1098093860690938706FF
:1047E000A0938806B093890604C0809146020E9477
:1047F0009723FF91EF91BF91AF919F918F917F91FF
:104800006F915F914F913F912F910F900FBE0F903D
:104810001F9018952F923F925F926F927F928F9286
:104820009F92AF92BF92CF92DF92EF92FF920F933F
:104830001F93DF93CF9300D000D0CDB7DEB7A82F62
:104840001B0129833A834B835C83809146028A173C
:1048500021F4E7E8F1E0549082C08F3F09F0DAC11B
:10486000A0934602E7E8F1E054902FEF521609F4C6
:10487000D1C181E0581639F192E0591609F449C0C6
:10488000552009F06CC014BC15BC84B5826084BD91
:1048900085B5816085BD2A2F30E0F901E55BFE4FCB
:1048A000E491F0E0EE0FFF1FE95CFE4F85919491DB
:1048B00090937D0680937C06215A3E4FF9018491A6
:1048C00080937E064EC010928000109281008091ED
:1048D0008100886080938100809181008160809355
:1048E00081002A2F30E0F901E55BFE4FE491F0E012
:1048F000EE0FFF1FE95CFE4F859194919093840623
:1049000080938306215A3E4FF90184918093850656
:1049100028C01092B0001092B1008091B000826067
:104920008093B0008091B10081608093B1002A2F04
:1049300030E0F901E55BFE4FE491F0E0EE0FFF1F80
:10494000E95CFE4F8591949190938B0680938A0643
:10495000215A3E4FF901849180938C0602C057FC86
:1049600059C18A2F61E00E94FB1E552021F0F2E020
:104970005F1609F0BEC031018824992460E079E017
:104980008DE390E0A40193010E947C2859016A0103
:10499000860175010894E108F108010911092FEF5A
:1049A000E216F1040105110509F008F499C060E26E
:1049B00071EA87E090E0A40193010E947C287901CC
:1049C0008A010894E108F1080109110982E05816EA
:1049D000C1F49FEFE916F1040105110509F008F48F
:1049E00084C068E478EE81E090E0A40193010E9425
:1049F0007C2879018A010894E108F108010911096C
:104A000083E0AFEFEA16F1040105110509F008F49F
:104A100068C064E274EF80E090E0A40193010E941A
:104A20007C2879018A010894E108F108010911093B
:104A3000552011F483E01DC0B2E05B1611F084E054
:104A400018C0EFEFEE16F1040105110509F008F4A6
:104A5000DFC062E17AE780E090E0A40193010E9468
:104A60007C2879018A010894E108F10801091109FB
:104A700085E0FFEFEF16F1040105110591F188F1D2
:104A800069E07DE380E090E0A40193010E947C282E
:104A900079018A010894E108F108010911095520FA
:104AA00011F086E001C084E02FEFE216F104010569
:104AB0001105B9F0B0F0C601B50120E034E040E0E6
:104AC00050E00E947C2879018A010894E108F108ED
:104AD00001091109552011F087E008C085E003C0E5
:104AE00081E0552019F485BD3AC082E08093B10081
:104AF00036C05101CC24DD2460E079E08DE390E004
:104B0000A60195010E947C2879018A010894E10898
:104B1000F1080109110980E0E81680E0F80681E05B
:104B2000080780E0180710F491E010C064E274EF09
:104B300080E090E0A60195010E947C2879018A011D
:104B40000894E108F1080109110993E0A1E05A165F
:104B500031F480918100887F982B90938100898126
:104B60009A81AB81BC810097A105B10529F48FEF33
:104B70009FEFAFEFBFEF13C0220C331CB10180E0F9
:104B800090E029813A814B815C810E943B2828EE8C
:104B900033E040E050E00E945A28C901DA01E1E028
:104BA0005E16A1F0F2E05F1619F1552099F5E7BC09
:104BB0008093780690937906A0937A06B0937B064B
:104BC00080916E00826080936E0024C0F092890014
:104BD000E092880080937F0690938006A0938106E0
:104BE000B093820680916F00826080936F0012C044
:104BF000E092B3008093860690938706A093880680
:104C0000B09389068091700082608093700002C02A
:104C100084E06CCF0F900F900F900F90CF91DF91A9
:104C20001F910F91FF90EF90DF90CF90BF90AF90CA
:104C30009F908F907F906F905F903F902F900895FE
:104C40005058BB27AA270ED075C166D130F06BD162
:104C500020F031F49F3F11F41EF45BC10EF4E09597
:104C6000E7FB51C1E92F77D180F3BA1762077307C9
:104C70008407950718F071F49EF58FC10EF4E09546
:104C80000B2EBA2FA02D0B01B90190010C01CA0106
:104C9000A0011124FF27591B99F0593F50F4503EB1
:104CA00068F11A16F040A22F232F342F4427585FA3
:104CB000F3CF469537952795A795F0405395C9F7BB
:104CC0007EF41F16BA0B620B730B840BBAF0915073
:104CD000A1F0FF0FBB1F661F771F881FC2F70EC012
:104CE000BA0F621F731F841F48F4879577956795E5
:104CF000B795F7959E3F08F0B3CF9395880F08F0CE
:104D00009927EE0F979587950895D9D008F481E0FB
:104D100008950CD00FC107D140F0FED030F021F43F
:104D20005F3F19F0F0C0511139C1F3C014D198F3AD
:104D30009923C9F35523B1F3951B550BBB27AA271C
:104D400062177307840738F09F5F5F4F220F331F8E
:104D5000441FAA1FA9F333D00E2E3AF0E0E830D05A
:104D600091505040E695001CCAF729D0FE2F27D05D
:104D7000660F771F881FBB1F261737074807AB072B
:104D8000B0E809F0BB0B802DBF01FF2793585F4FA0
:104D90002AF09E3F510568F0B6C000C15F3FECF3BA
:104DA000983EDCF3869577956795B795F7959F5F65
:104DB000C9F7880F911D9695879597F90895E1E0B9
:104DC000660F771F881FBB1F621773078407BA0718
:104DD00020F0621B730B840BBA0BEE1F88F7E09573
:104DE000089504D06894B111D9C00895BCD088F05A
:104DF0009F5790F0B92F9927B751A0F0D1F0660FC7
:104E0000771F881F991F1AF0BA95C9F712C0B130E1
:104E100081F0C3D0B1E00895C0C0672F782F8827F4
:104E2000B85F39F0B93FCCF3869577956795B39520
:104E3000D9F73EF490958095709561957F4F8F4F8F
:104E40009F4F0895E89409C097FB3EF49095809594
:104E5000709561957F4F8F4F9F4F9923A9F0F92F40
:104E600096E9BB279395F695879577956795B795BE
:104E7000F111F8CFFAF4BB0F11F460FF1BC06F5FA4
:104E80007F4F8F4F9F4F16C0882311F096E911C0B6
:104E9000772321F09EE8872F762F05C0662371F0D7
:104EA00096E8862F70E060E02AF09A95660F771FEB
:104EB000881FDAF7880F9695879597F90895990FC7
:104EC0000008550FAA0BE0E8FEEF16161706E807D4
:104ED000F907C0F012161306E407F50798F0621BF5
:104EE000730B840B950B39F40A2661F0232B242BCA
:104EF000252B21F408950A2609F4A140A6958FEFE9
:104F0000811D811D089597F99F6780E870E060E03A
:104F100008959FEF80EC089500240A941616170652
:104F200018060906089500240A941216130614069A
:104F300005060895092E0394000C11F4882352F0FD
:104F4000BB0F40F4BF2B11F460FF04C06F5F7F4FB5
:104F50008F4F9F4F089557FD9058440F551F59F09C
:104F60005F3F71F04795880F97FB991F61F09F3F56
:104F700079F087950895121613061406551FF2CF7F
:104F80004695F1DF08C0161617061806991FF1CFCF
:104F900086957105610508940895E894BB276627F6
:104FA0007727CB0197F908958ADF08F48FEF0895EA
:104FB0000BD0C0CFB1DF28F0B6DF18F0952309F091
:104FC000A2CFA7CF1124EACFC6DFA0F3959FD1F3DC
:104FD000950F50E0551F629FF001729FBB27F00DA7
:104FE000B11D639FAA27F00DB11DAA1F649F6627FC
:104FF000B00DA11D661F829F2227B00DA11D621F4B
:10500000739FB00DA11D621F839FA00D611D221F04
:10501000749F3327A00D611D231F849F600D211DE8
:10502000822F762F6A2F11249F5750408AF0E1F08B
:1050300088234AF0EE0FFF1FBB1F661F771F881FD4
:1050400091505040A9F79E3F510570F05CCFA6CF1C
:105050005F3FECF3983EDCF3869577956795B795BF
:10506000F795E7959F5FC1F7FE2B880F911D9695E9
:10507000879597F90895629FD001739FF001829FF1
:10508000E00DF11D649FE00DF11D929FF00D839FD7
:10509000F00D749FF00D659FF00D9927729FB00D74
:1050A000E11DF91F639FB00DE11DF91FBD01CF0187
:1050B00011240895A1E21A2EAA1BBB1BFD010DC0ED
:1050C000AA1FBB1FEE1FFF1FA217B307E407F507B8
:1050D00020F0A21BB30BE40BF50B661F771F881F94
:1050E000991F1A9469F760957095809590959B012A
:1050F000AC01BD01CF01089597FB092E05260ED006
:1051000057FD04D0D7DF0AD0001C38F450954095E5
:10511000309521953F4F4F4F5F4F0895F6F790958B
:105120008095709561957F4F8F4F9F4F0895EE0F3B
:10513000FF1F0590F491E02D0994911106C0803273
:1051400019F089508550D0F7089599278827089538
:105150002F923F924F925F926F927F928F929F9287
:10516000AF92BF92CF92DF92EF92FF920F931F9375
:10517000CF93DF93CDB7DEB7CA1BDB0B0FB6F89426
:10518000DEBF0FBECDBF09942A88398848885F8466
:105190006E847D848C849B84AA84B984C884DF80D7
:1051A000EE80FD800C811B81AA81B981CE0FD11DBB
:1051B0000FB6F894DEBF0FBECDBFED01089511E02C
:1051C000C0E9D1E004C0FE010E9499282296C239AC
:0851D000D107C9F7F894FFCFE5
:1051D8002A44414E4745522A0025642E25647553BA
:1051E800680025642E302564755368004E4D45418E
:1051F80020666F726D617420636865636B206661F9
:10520800696C65642E002C0024424D5244440024ED
:10521800424E585244440024424E5853545300249A
:10522800424D535453004572726F723A20243D0028
:10523800202A3D00446174612077617320636F7296
:105248007275707465642E00576169742E2E2E2055
:10525800004E6F476569676572004E6F204C696E36
:105268006B2000436865636B204247005341464505
:10527800434153540057656C636F6D6521004E6957
:105288006E6A61202020002020202020202020007D
:105298007600536166656361737420624765696768
:1052A8006965204E696E6A612C2076657273696F34
:1052B8006E2000496E697420636869626920646FB2
:1052C8006E652E004A75737420736574206164647A
:1052D8007265737320746F203078004A7573742078
:1052E800736574206368616E6E656C20746F20004E
:1052F800090008000F004141FFFFFFFFFFFFFFFF0C
:105308000100FFFF58983A0000312E312E3500FF7A
:10531800FFFFFFFFFEFFFF000000001F0DBD0D3760
:105328000D630D810D5B0D000000001614F82100BF
:10533800000000071CF82100004000140054000081
:105348000000005321F821E9201A21FA2043210006
:00000001FF
