:100000000C94D7020C94E8310C9415320C94772799
:100010000C94132F0C94FF020C94FF020C94FF021B
:100020000C94FF020C94FF020C94FF020C94FF024C
:100030000C94FF020C94732E0C94FF020C94FF029C
:100040000C9442320C94FF020C944E340C949C3469
:100050000C94FF020C94FF020C94FF020C94FF021C
:100060000C94FF020C94FF0205A84CCDB2D44EB9FB
:100070003836A9020C50B9918688083CA6AAAA2A4B
:10008000BE000000803F24504D544B3232302C31A2
:100090003030302A31460024504D544B3331342C0B
:1000A000302C312C302C312C302C302C302C302C6E
:1000B000302C302C302C302C302C302C302C302C60
:1000C000302C302C302A3238002D2D2D20446961FF
:1000D000676E6F7374696320454E44202D2D2D008B
:1000E000506C7573536869656C642C796573004353
:1000F0006F6F7264696E617465207472756E63618E
:1001000074696F6E20656E61626C65642C796573CD
:100110000053797374656D20667265652052414D98
:100120002C006D5600537570706C7920766F6C746E
:100130006167652C006D56004261747465727920A8
:10014000766F6C746167652C00566F6C74616765BF
:100150002073656E73652C79657300446961676E01
:100160006F737469632066696C652C7965730079B7
:100170006573004750532070726F6772616D6D69CF
:100180006E672C0047505320747970652C4D544B8A
:1001900000526164696F206368616E6E656C2C004B
:1001A000526164696F20616464726573732C006EC0
:1001B0006F0079657300526164696F20696E6974BC
:1001C00069616C697A65642C00526164696F2065AD
:1001D0006E61626C65642C79657300446576696351
:1001E000652049442C0056657273696F6E2C00625D
:1001F0004765696769652D6D696E69205379737408
:10020000656D002D2D2D20446961676E6F737469D3
:1002100063205354415254202D2D2D002320506C27
:100220007573536869656C642C796573002320438A
:100230006F6F7264696E617465207472756E63614C
:1002400074696F6E20656E61626C65642C7965738C
:1002500000232053797374656D20667265652052A2
:10026000414D2C256442002320537570706C792019
:10027000766F6C746167652C25646D56002320428F
:1002800061747465727920766F6C746167652C2572
:10029000646D56002320566F6C746167652073652A
:1002A0006E73652C796573002320446961676E6FF6
:1002B000737469632066696C652C7965730023200B
:1002C0004750532070726F6772616D6D696E672C55
:1002D000796573002320526164696F20656E6162E5
:1002E0006C65642C79657300232047505320747922
:1002F00070652C4D544B00232056657273696F6EE8
:100300002C00232057656C636F6D6520746F20533C
:100310006166656361737420624765696769652D0D
:100320004D696E692053797374656D002425732CB3
:1003300025732C323025732D25732D257354257389
:100340003A25733A25735A2C25732C25732C257363
:100350002C25732C7625732C25642C25642C256480
:100360002C25642C2564002425732C25732C323015
:1003700025732D25732D25735425733A25733A253E
:10038000735A2C256C642C256C642C256C642C25EC
:10039000632C25732C25732C25732C25732C257326
:1003A0002C25732C25732C2573007C3C3E5E2B3D45
:1003B0003F2F5B5D3B2C2A225C004255464645524E
:1003C0002046554C4C2E20544F5353494E472049FC
:1003D0004E434F4D494E4720444154410A00434843
:1003E0004942493A20436F6D6D616E64206E6F74AF
:1003F000207265636F676E697A65642E002A2A2A07
:100400002A2A2A2A2A2A2A2A2A2A2A2A2043484900
:100410004249202A2A2A2A2A2A2A2A2A2A2A2A2A0F
:100420002A2A2A2A2A2A004348494249203E3E20B5
:1004300000524144494F204E4F5420494E4954499F
:10044000414C495A45442050524F5045524C590A4C
:10045000006E6F0079657300475053207379737491
:10046000656D20737461727475702C006E6F007905
:100470006573004750532074797065204D544B2CA0
:100480000024504D544B3130312A33320024504D2A
:10049000544B3031302C3030312A32450024504D0D
:1004A000544B3031312C4D544B4750532A30380087
:1004B0006E6F007965730053442072656164207724
:1004C000726974652C006E6F0053442074657374F8
:1004D000203A2063616E27742072656D6F76652007
:1004E000746573742066696C6500796573005344A4
:1004F000206F70656E2066696C652C0054686973A6
:1005000020697320612062476569676965207465A9
:1005100073740042475F544553542E545854006E30
:100520006F0079657300534420696E697469616C6A
:10053000697A65642C00796573006E6F00534420FE
:10054000696E7365727465642C00000000002400FD
:1005500027002A0000000000250028002B000000D2
:1005600000002300260029000404040404040404F9
:10057000020202020202030303030303010204084E
:1005800010204080010204081020010204081020FD
:100590000000000700020100000304060000000044
:1005A00000000000EF126C2FBC31FF35652F1124C5
:1005B0001FBECFEFD8E0DEBFCDBF11E0A0E0B1E0BD
:1005C000ECE0F6E702C005900D92AE38B107D9F71E
:1005D00016E0AEE8B1E001C01D92AD3EB107E1F713
:1005E00015E0CCEAD5E004C02297FE010E94BE3A95
:1005F000C43AD107C9F70E94F2370C94F93A0C9427
:100600000000CF93DF93BC018230910510F462E0CB
:1006100070E0A091EB06B091EC06ED01E0E0F0E0B7
:1006200040E050E021C0888199818617970769F4DE
:100630008A819B81309719F09383828304C09093C1
:10064000EC068093EB06FE0134C06817790738F496
:100650004115510519F08417950708F4AC01FE0106
:100660008A819B819C01E9012097E9F6411551059A
:10067000A9F1CA01861B970B049708F4BA01E0E0C0
:10068000F0E02AC08D919C91119784179507F9F499
:100690006417750781F412968D919C91139730978A
:1006A00019F09383828304C09093EC068093EB0649
:1006B000FD0132964CC0CA01861B970BFD01E80F65
:1006C000F91F6193719302978D939C9340C0FD0134
:1006D000828193819C01D9011097A1F68091E9064E
:1006E0009091EA06892B41F480913B0190913C0165
:1006F0009093EA068093E90640913D0150913E01B6
:100700004115510541F44DB75EB780913901909183
:100710003A01481B590B2091E9063091EA06CA01BB
:10072000821B930B8617970780F0AB014E5F5F4FDC
:100730008417950750F0420F531F5093EA064093D9
:10074000E906F9016193719302C0E0E0F0E0CF01A6
:10075000DF91CF910895CF93DF93009709F450C0B4
:10076000EC0122971B821A82A091EB06B091EC0655
:10077000109709F140E050E0AC17BD0708F1BB83CA
:10078000AA83FE0121913191E20FF31FAE17BF073B
:1007900079F48D919C911197280F391F2E5F3F4F4F
:1007A0003983288312968D919C9113979B838A831A
:1007B0004115510571F4D093EC06C093EB0620C0AF
:1007C00012968D919C911397AD01009711F0DC0169
:1007D000D3CFFA01D383C28321913191E20FF31F6A
:1007E000CE17DF0769F488819981280F391F2E5FA2
:1007F0003F4FFA01318320838A819B8193838283D7
:10080000DF91CF910895FB01DC0105900D9200204E
:10081000E1F70895FB01DC0104C08D91019080197E
:1008200021F441505040C8F7881B990B0895FB01F3
:10083000DC010D900020E9F7119701900D92002046
:10084000E1F70895FC018191861721F08823D9F7FB
:10085000992708953197CF010895FB01DC018D910F
:10086000019080190110D9F3990B0895FB01DC0167
:1008700001900D920020E1F70895FB01DC010D903D
:100880000020E9F711974150504028F001900020D6
:100890000D92C9F708951C920895FB01DC014150A7
:1008A000504030F08D910190801919F40020B9F773
:1008B000881B990B0895FB01DC014150504048F022
:1008C00001900D920020C9F701C01D924150504087
:1008D000E0F70895FC016150704001900110D8F7D5
:1008E000809590958E0F9F1F0895FC01A081B18186
:1008F000AD01109681F03D91FB01019003160110AE
:10090000E1F7C9F7002011F4D00102C01E92119640
:10091000FC01A083B183CA010895A0E0B0E0E3E93F
:10092000F4E00C94CC3A7C01EB018A01690109C026
:10093000CE012196F6010995F70181937F010150BF
:10094000104001151105A1F7CDB7DEB7E8E00C9412
:10095000E83AA0E0B0E0EFEAF4E00C94CC3AEC0125
:100960007B018A01690109C0CE012196F7016191DD
:100970007F01F60109950150104001151105A1F7FD
:10098000CDB7DEB7E8E00C94E83AAEE0B0E0EBECCF
:10099000F4E00C94D03A0D891E8986E08C831A838A
:1009A00009838FEF9FE79E838D839E01275E3F4FD4
:1009B000CE0101966F89788DA9010E940D052F81C6
:1009C0003885020F131FF80110822E96E4E00C9474
:1009D000EC3AAEE0B0E0EFEEF4E00C94D03A0D89E2
:1009E0001E898EE08C831A8309838FEF9FE79E8395
:1009F0008D839E01275E3F4FCE0101966F89788DD2
:100A0000A9010E940D052F813885020F131FF801DF
:100A100010822E96E4E00C94EC3AABE0B0E0E3E117
:100A2000F5E00C94C23A3C012B015A01FC011782FB
:100A30001682838181FD03C06FEF7FEFC6C19AE00C
:100A4000892E1E010894211C311CF3012381F2011F
:100A500023FD859123FF81912F01882309F4B2C1E1
:100A6000853239F423FD859123FF81912F01853251
:100A700029F490E0B3010E94F506E7CF982FFF24F8
:100A8000EE249924FFE1FF15D0F09B3269F09C32EF
:100A900028F4903259F0933291F40EC09D3249F00F
:100AA000903369F441E024C052E0F52A84E0F82A4A
:100AB00028C098E0F92A25C0E0E1FE2A22C0F7FC10
:100AC00029C0892F80538A3070F4F6FE05C0989CA7
:100AD000902C1124980E15C0E89CE02C1124E80EEF
:100AE000F0E2FF2A0EC09E3229F4F6FC6BC140E40E
:100AF000F42A07C09C3619F450E8F52A02C098364B
:100B000049F4F20123FD959123FF91912F0199233F
:100B100009F0B8CF892F8554833018F08052833084
:100B200038F444E050E0A40EB51E5FE359830FC0D3
:100B3000933631F0933779F0933509F056C020C0E1
:100B4000F5018081898342E050E0A40EB51E610169
:100B500001E010E012C0F501C080D180F6FC03C0B6
:100B60006FEF7FEF02C0692D70E042E050E0A40E0D
:100B7000B51EC6010E946A048C015FE7F52214C00D
:100B8000F501C080D180F6FC03C06FEF7FEF02C09B
:100B9000692D70E042E050E0A40EB51EC6010E942F
:100BA000EA068C0150E8F52AF3FE07C01AC080E27D
:100BB00090E0B3010E94F506EA948E2D90E00817AC
:100BC0001907A8F30EC0F601F7FC8591F7FE819195
:100BD0006F0190E0B3010E94F506E110EA94015024
:100BE00010400115110579F7EAC0943611F09936D5
:100BF00069F5F7FE08C0F5012081318142815381FA
:100C000084E090E00AC0F501808191819C01442735
:100C100037FD4095542F82E090E0A80EB91E9FE664
:100C2000F92257FF09C050954095309521953F4FC7
:100C30004F4F5F4FE0E8FE2ACA01B901A1012AE047
:100C400030E00E942107D82ED21840C0953729F4F1
:100C50001F2D1F7E2AE030E01DC01F2D197F9F36FB
:100C600061F0903720F4983509F0ACC00FC0903790
:100C700039F0983709F0A6C004C028E030E00AC077
:100C8000106114FD146020E130E004C014FD166012
:100C900020E132E017FF08C0F50160817181828197
:100CA000938144E050E008C0F50180819181BC014E
:100CB00080E090E042E050E0A40EB51EA1010E9449
:100CC0002107D82ED2188FE7F82EF122F6FE0BC09E
:100CD0005EEFF522D91438F4F4FE07C0F2FC05C02B
:100CE0008FEEF82202C01D2D01C0192DF4FE0DC09B
:100CF000FE01ED0DF11D8081803319F499EEF9228A
:100D000008C01F5FF2FE05C003C08F2D867809F072
:100D10001F5F0F2DF3FC14C0F0FE0FC01E1510F066
:100D20009D2C0BC09D2C9E0C911A1E2D06C080E29E
:100D300090E0B3010E94F5061F5F1E15C0F304C0CA
:100D40001E1510F4E11A01C0EE2404FF0FC080E369
:100D500090E0B3010E94F50602FF1DC001FD03C033
:100D600088E790E00EC088E590E00BC0802F867881
:100D700091F001FF02C08BE201C080E2F7FC8DE23E
:100D800090E0B3010E94F50606C080E390E0B30155
:100D90000E94F5069A94D914C0F3DA94F101ED0D8E
:100DA000F11D808190E0B3010E94F506DD20A9F7D6
:100DB00006C080E290E0B3010E94F506EA94EE20BE
:100DC000C1F743CEF30166817781CB012B96E2E137
:100DD0000C94DE3AFC010590615070400110D8F788
:100DE000809590958E0F9F1F08950F931F93CF931B
:100DF000DF938C01EB018B8181FF1BC082FF0DC053
:100E00002E813F818C819D812817390764F4E88108
:100E1000F9810193F983E88306C0E885F985802F7D
:100E20000995892B31F48E819F8101969F838E8352
:100E300002C00FEF1FEFC801DF91CF911F910F91FB
:100E40000895FA01AA27283051F1203181F1E89460
:100E50006F936E7F6E5F7F4F8F4F9F4FAF4FB1E0AD
:100E60003ED0B4E03CD0670F781F891F9A1FA11DA8
:100E7000680F791F8A1F911DA11D6A0F711D811DA9
:100E8000911DA11D20D009F468943F912AE0269F6E
:100E900011243019305D3193DEF6CF010895462FCD
:100EA0004770405D4193B3E00FD0C9F7F6CF462FAE
:100EB0004F70405D4A3318F0495D31FD4052419317
:100EC00002D0A9F7EACFB4E0A695979587957795D4
:100ED0006795BA95C9F700976105710508959B015B
:100EE000AC010A2E06945795479537952795BA95E4
:100EF000C9F7620F731F841F951FA01D089580916D
:100F0000D501883519F420E030E207C0992787FD24
:100F10009095382F2227205030418091D601883576
:100F200059F0992787FD9095C09744E0880F991F45
:100F30004A95E1F7280F391F8091D701883531F0A4
:100F4000992787FD9095C097280F391FC9010895EB
:100F50000F931F93DF93CF93CDB7DEB7E7970FB60D
:100F6000F894DEBF0FBECDBF00E010E087EC96E046
:100F70000E945535892B69F483E10838180749F038
:100F80006AE070E080E090E00E94A432065F1F4FAC
:100F9000EDCF8E010F5F1F4FC80167E970E00E941F
:100FA000030487EC96E0B8010E94DF37C80166E8C9
:100FB00070E00E94030487EC96E0B8010E94DF37DE
:100FC000E7960FB6F894DEBF0FBECDBFCF91DF918D
:100FD0001F910F9108950E944533AA2797FDA09570
:100FE000BA2FBC01CD010E9404392DEC3CEC4CE839
:100FF0005FE30E94D23920E030EC4FE754E40E94D6
:1010000069382AE939E941E251E40E94D239089568
:101010002F923F924F925F926F927F928F929F9208
:10102000AF92BF92CF92DF92EF92FF920F931F93F6
:101030002C011B01FC016281772767FD70956053CD
:101040007040882777FD8095982F20EA36E841E0A8
:1010500050E00E947B3A5B016C01F20163817727CB
:1010600067FD709560537040882777FD8095982FB5
:1010700020E137E240E050E00E947B3AA60EB71E26
:10108000C81ED91EF2018085992787FD9095C097CB
:10109000AA2797FDA095BA2FA80EB91ECA1EDB1E5F
:1010A0006681772767FD709560537040882777FDCC
:1010B0008095982F24E630E040E050E00E947B3A93
:1010C000A60EB71EC81ED91EF2016581772767FDDF
:1010D000709560537040882777FD8095982F28EE93
:1010E00033E040E050E00E947B3AA60EB71EC81ED7
:1010F000D91EF2016781772767FD709560537040B4
:10110000882777FD8095982F2AE030E040E050E076
:101110000E947B3AA60EB71EC81ED91EC601B50195
:1011200022E232E040E050E00E949A3A9B01AC019A
:10113000A21AB30AC40AD50AC601B50120EA36E8E4
:1011400041E050E00E949A3A205DF2012283C601FC
:10115000B50120EA36E841E050E00E949A3A20E1E9
:1011600037E240E050E00E949A3A205DF20123838A
:10117000C601B50120E137E240E050E00E949A3A12
:1011800028EE33E040E050E00E949A3A205DF20100
:101190002583C601B50128EE33E040E050E00E940F
:1011A0009A3A24E630E040E050E00E949A3A205D0E
:1011B000F2012683C601B50124E630E040E050E0AC
:1011C0000E949A3A2AE030E040E050E00E949A3AC9
:1011D000205DF2012783C601B5012AE030E040E03E
:1011E00050E00E949A3A605DF2016087F1016381EC
:1011F000772767FD709560537040882777FD80954D
:10120000982F20EA36E841E050E00E947B3A7B01CB
:101210008C01F1016481772767FD70956053704000
:10122000882777FD8095982F20E137E240E050E055
:101230000E947B3AE60EF71E081F191FF1018185F7
:10124000992787FD9095C097AA2797FDA095BA2F5B
:10125000E80EF91E0A1F1B1F6781772767FD70952F
:1012600060537040882777FD8095982F24E630E002
:1012700040E050E00E947B3AE60EF71E081F191F5F
:10128000F1016681772767FD70956053704088276C
:1012900077FD8095982F28EE33E040E050E00E94E3
:1012A0007B3AE60EF71E081F191FF10160857727AC
:1012B00067FD709560537040882777FD8095982F63
:1012C0002AE030E040E050E00E947B3AE60EF71E54
:1012D000081F191FF2016081772767FD7095605321
:1012E0007040882777FD8095982F0E94043920E070
:1012F00030E040E251E40E94D2393B014C01F2015E
:101300006181772767FD709560537040882777FD6E
:101310008095982F0E9404399B01AC01C401B30150
:101320000E9402383B014C01C601B5010E940239FE
:1013300020E03CE742E159E40E9469389B01AC019E
:10134000C401B3010E94023820E030E044E353E4DA
:101350000E9469382BED3FE049E450E40E94D23905
:101360000E9466389B01AC0163E172E88FE59DE362
:101370000E94693820E030E44CE156E40E94D23902
:101380000E94D6389B01AC0140E050E0C801B70193
:101390000E949A3A9B01AC01E21AF30A040B150B66
:1013A000C801B70120EA36E841E050E00E949A3ACD
:1013B000205DF1012383C801B70120EA36E841E04E
:1013C00050E00E949A3A20E137E240E050E00E946B
:1013D0009A3A205DF1012483C801B70120E137E288
:1013E00040E050E00E949A3A28EE33E040E050E0BE
:1013F0000E949A3A205DF1012683C801B70128EEC8
:1014000033E040E050E00E949A3A24E630E040E0C9
:1014100050E00E949A3A205DF1012783C801B7018C
:1014200024E630E040E050E00E949A3A2AE030E0C2
:1014300040E050E00E949A3A205DF1012087C80107
:10144000B7012AE030E040E050E00E949A3A605D47
:10145000F10161871F910F91FF90EF90DF90CF9086
:10146000BF90AF909F908F907F906F905F904F90C4
:101470003F902F900895CF92DF92EF92FF920F93BB
:101480001F93DF93CF93CDB7DEB7E4970FB6F894F1
:10149000DEBF0FBECDBF8E010D5F1F4FC80163E0E1
:1014A00072E00E94030487EC96E0B8010E94DF37E7
:1014B000C8016FEE71E00E94030487EC96E0B8016A
:1014C0000E94DF37C80166EE71E00E94030487ECDA
:1014D00096E0B8010E94DC3787EC96E06BE571E09E
:1014E0000E94DF37C8016BED71E00E94030487ECB6
:1014F00096E0B8010E94DC3787EC96E065ED71E07C
:101500000E94DF370E94A230C80169EC71E00E949E
:10151000030487EC96E0B8010E94DF37C80166EB50
:1015200071E00E94030487EC96E0B8010E94DC376A
:101530008091D901882321F0C80162EB71E003C0DA
:10154000C8016FEA71E00E94030487EC96E0B801DD
:101550000E94DF3780E00E9452298E010D5F1F4FED
:10156000C80160EA71E00E94030487EC96E0B801CC
:101570000E94DC370E949A29BC0187EC96E040E18A
:1015800050E00E944E37C80161E971E00E940304F7
:1015900087EC96E0B8010E94DC370E942527682F6F
:1015A00087EC96E04AE050E00E946B3781E00E94B1
:1015B0005229C80164E871E00E94030487EC96E0B8
:1015C000B8010E94DF370E94762BC80163E771E003
:1015D0000E94030487EC96E0B8010E94DC37C80142
:1015E0006FE671E00E94030487EC96E0B8010E9468
:1015F000DF37C8016BE571E00E94030487EC96E0D9
:10160000B8010E94DF37C80169E471E00E94030459
:1016100087EC96E0B8010E94DF378EE090E00E94F0
:10162000EB078EE090E00E94EB076B017C01C801A4
:1016300068E371E00E94030487EC96E0B8010E9421
:10164000DC37C701B60120E030E04AE754E40E94ED
:10165000D2390E94D1389B01AC0187EC96E0B901E8
:101660004AE050E00E94C937C80165E371E00E947A
:10167000030487EC96E0B8010E94DF378FE090E02A
:101680000E94EB078FE090E00E94EB076B017C016A
:10169000C80165E271E00E94030487EC96E0B8019E
:1016A0000E94DC37C701B60120E030E04AE754E48D
:1016B0000E94D2390E94D1389B01AC0187EC96E0A0
:1016C000B9014AE050E00E94C937C80162E271E006
:1016D0000E94030487EC96E0B8010E94DF37C8013E
:1016E00061E171E00E94030487EC96E0B8010E947A
:1016F000DC372091E9063091EA06CE0101962115EA
:10170000310519F48D5E964002C0821B930B9A83BB
:10171000898369817A8187EC96E04AE050E00E94F3
:10172000C93787EC96E062E40E94A7368E010D5F10
:101730001F4FC8016FEE70E00E94030487EC96E033
:10174000B8010E94DF37C80160EE70E00E94030418
:1017500087EC96E0B8010E94DF37C80169EC70E0C1
:101760000E94030487EC96E0B8010E94DF37E496FC
:101770000FB6F894DEBF0FBECDBFCF91DF911F91A2
:101780000F91FF90EF90DF90CF900895CF92DF926E
:10179000EF92FF920F931F93DF93CF93CDB7DEB7F6
:1017A000E4970FB6F894DEBF0FBECDBF6C0184E0A6
:1017B00090E066E070E04AE050E00E9464318E0103
:1017C0000D5F1F4FC80162E073E00E940304C60171
:1017D000B8010E94732FC80167EF72E00E940304F2
:1017E000C8016BE571E00E941704C601B8010E94B0
:1017F000732FC80168EE72E00E940304C601B801AD
:101800000E94732FC80164ED72E00E940304C601B8
:10181000B8010E94732FC8016EEB72E00E940304AE
:10182000C601B8010E94732FC80168EA72E00E94E5
:101830000304C601B8010E94732FC80164E972E075
:101840000E940304C601B8010E94732F8EE090E04D
:101850000E94EB078EE090E00E94EB0700D000D0E2
:1018600000D0EDB6FEB60894E11CF11CADB7BEB7D2
:1018700012961C930E9311972DE732E0F7013383F4
:10188000228320E030E04AE754E40E94D2390E94EB
:10189000D138D70115967C936E9314970E94E90472
:1018A000EDB7FEB736960FB6F894FEBF0FBEEDBF8C
:1018B000C601B8010E94732F8FE090E00E94EB07F1
:1018C0008FE090E00E94EB0700D000D000D0EDB692
:1018D000FEB60894E11CF11CADB7BEB712961C937E
:1018E0000E93119727E632E0F7013383228320E03D
:1018F00030E04AE754E40E94D2390E94D138D7013F
:1019000015967C936E9314970E94E904EDB7FEB789
:1019100036960FB6F894FEBF0FBEEDBFC601B801F4
:101920000E94732F2091E9063091EA06CE010196BC
:101930002115310519F48D5E964002C0821B930B70
:101940009A83898300D000D000D0EDB7FEB73196DE
:101950008E010D5F1F4FADB7BEB712961C930E934D
:10196000119781E592E09383828389819A8195839F
:1019700084830E94E904EDB7FEB736960FB6F8945B
:10198000FEBF0FBEEDBFC601B8010E94732FC80194
:101990006DE272E00E940304C601B8010E94732F39
:1019A000C8016CE172E00E940304C601B8010E9404
:1019B000732FE4960FB6F894DEBF0FBECDBFCF9164
:1019C000DF911F910F91FF90EF90DF90CF900895DE
:1019D000BF92CF92DF92EF92FF920F931F93CF931C
:1019E000DF93F89475EDE72E71E0F72EC4E6D0E0B2
:1019F00068E5B62E6E018AE295E0BE010E94702A6B
:101A0000F701808301E010E00FC06AE070E080E041
:101A100090E00E94A4328AE295E0B6010E94702A0A
:101A2000F70180830F5F1F4FF701808180538A3059
:101A300020F00330110549F714C021960894E11CE9
:101A4000F11CC736D105B1F61092D8017894DF9118
:101A5000CF911F910F91FF90EF90DF90CF90BF90AB
:101A60000895F701B082E9CF4F925F926F927F9213
:101A70008F929F92AF92BF92CF92DF92EF92FF929E
:101A80000F931F93CF93DF936C010E94F42A8C0174
:101A900084E6D6011D928A95E9F78EE090E00E94D7
:101AA000EB074B015C018FE090E00E94EB072B01FC
:101AB0003C01EDB7FEB7B8970FB6F894FEBF0FBE66
:101AC000EDBFEDB6FEB60894E11CF11CD282C182D6
:101AD0008CE293E0D70113969C938E93129786E441
:101AE00091E015969C938E93149785ED91E017964F
:101AF0009C938E93169700561F4F19961C930E9326
:101B00001897035010401B961C930E931A9703507E
:101B100010401D961C930E931C97075F1F4F1F9636
:101B20001C930E931E970D5F1F4F51961C930E939F
:101B300050970D5F1F4F53961C930E935297015968
:101B4000104055961C930E935497015F1F4F579664
:101B50001C930E9356970E5F1F4F59961C930E932E
:101B60005897015F1F4F5B961C930E935A978BE516
:101B700091E05D969C938E935C97C501B40120E043
:101B800030E04AE754E40E94D2390E94D138F7018C
:101B9000778F668FC301B20120E030E04AE754E45A
:101BA0000E94D2390E94D138D70191967C936E93CE
:101BB0009097809103069091040693969C938E9340
:101BC0009297809101069091020695969C938E9330
:101BD0009497809107069091080697969C938E9310
:101BE00096970E94E904D6010D900020E9F711971D
:101BF000AC19BD090A2FE601CA0FD11D1882EDB735
:101C0000FEB7B8960FB6F894FEBF0FBEEDBFC60183
:101C100001966A2F70E00E94812A282F803178F483
:101C200000D000D000D0EDB7FEB73196ADB7BEB74B
:101C30001296DC93CE93119780E091E00EC000D015
:101C400000D000D0EDB7FEB73196ADB7BEB7129653
:101C5000DC93CE93119786E091E093838283248373
:101C600015820E94C504EDB7FEB736960FB6F894FC
:101C7000FEBF0FBEEDBF802FDF91CF911F910F915F
:101C8000FF90EF90DF90CF90BF90AF909F908F909C
:101C90007F906F905F904F9008952F923F924F9258
:101CA0005F926F927F928F929F92AF92BF92CF92EC
:101CB000DF92EF92FF920F931F93CF93DF935C011C
:101CC000380149010E94F42A8C01F8E14F2E512C71
:101CD000480E591EE9E22E2E312C280E391EC20163
:101CE000B1010E94080884E6D5011D928A95E9F7A2
:101CF000EDB7FEB7F2970FB6F894FEBF0FBEEDBF7B
:101D00003196ADB7BEB71296BC92AE92119787E6E8
:101D100093E09383828380E491E09583848385EDCF
:101D200091E09783868300561F4F118700870350E9
:101D30001040138702870350104015870487075F00
:101D40001F4F178706870D5F1F4F118B008B0D5F8D
:101D50001F4F138B028B648A758A868A978AC08E7E
:101D6000D18EE28EF38E8091C2019091C301A09139
:101D7000C401B091C501848F958FA68FB78F8091D4
:101D80003F01992787FD909591A380A353A242A27A
:101D90000258104015A304A337A226A20F5E1F4FBE
:101DA00011A700A7085D1F4F13A702A70A541040F0
:101DB00015A704A70B5B1F4F17A706A707541040D2
:101DC00011AB00AB0E94E904D5010D900020E9F7AA
:101DD0001197AA19BB091A2FE501CA0FD11D188244
:101DE000EDB7FEB7F2960FB6F894FEBF0FBEEDBF8B
:101DF000C50101966A2F70E00E94812A282F803148
:101E000078F400D000D000D0EDB7FEB73196ADB772
:101E1000BEB71296DC93CE93119780E091E00EC08E
:101E200000D000D000D0EDB7FEB73196ADB7BEB749
:101E30001296DC93CE93119786E091E09383828390
:101E4000248315820E94C504EDB7FEB736960FB6FF
:101E5000F894FEBF0FBEEDBF812FDF91CF911F9190
:101E60000F91FF90EF90DF90CF90BF90AF909F9039
:101E70008F907F906F905F904F903F902F9008953C
:101E8000CF92DF92EF92FF920F931F93CF93DF9346
:101E90000E94B22D0E94A72E892B09F491C182E0E5
:101EA00061E00E94673382E060E00E94A63364E153
:101EB00070E080E090E00E94A43282E060E00E9446
:101EC0006733A8950E94772A892B09F479C10E946B
:101ED0008A2E6B017C010E94E52E6091BE017091FB
:101EE000BF018091C0019091C101FB01EE0FFF1F66
:101EF000EE0FFF1FE257FE4FC082D182E282F382D3
:101F00006F5F7F4F8F4F9F4F2CE030E040E050E0FD
:101F10000E949A3A6093BE017093BF018093C00102
:101F20009093C101EEE8F1E000E010E020E030E045
:101F300081919191A191B191080F191F2A1F3B1F07
:101F400081E0EE3BF807A1F78091C2019091C301B7
:101F5000A091C401B091C5018C0D9D1DAE1DBF1D8A
:101F60008093C2019093C301A093C401B093C501B3
:101F70004091C6015091C7014C30510554F486E59B
:101F800080933F014F5F5F4F5093C7014093C6015D
:101F90000AC0011511052105310511F486E501C0BE
:101FA00081E480933F01CCEDD1E084E6FE01119203
:101FB0008A95E9F7E091BE01F091BF01EE0FFF1F96
:101FC000EE0FFF1FE257FE4F408151816281738106
:101FD000CE010E944D0E8091D901882391F080E0BE
:101FE0000E9452296AE070E080E090E00E94A432F2
:101FF0008FEF9FEFBE0144E60E943E2981E00E94E0
:1020000052298FE090E00E94EB0720E030E04AE7A1
:1020100054E40E94D2390E94D138EB018091DA0158
:102020009091DB01892B09F05DC00E94F42AFC012C
:102030008689813479F00E94F42A6091630170915D
:10204000640180569F4F42E050E00E944D0400978B
:1020500009F448C081E090E09093DB018093DA01BD
:10206000F2E1CF38DF07F4F188EC91E065ED71E043
:102070000E94360488EC91E06BE071E00E94170446
:102080000E94F42ABC01645B7F4F88EC91E042E03F
:1020900050E00E943D040E94F42ABC01665B7F4F21
:1020A00088EC91E042E050E00E943D0480ED91E038
:1020B0006CE471E00E94360484E090E066E070E039
:1020C0004AE050E00E94643188EC91E00E94C60B27
:1020D00080ED91E061E571E00E94360488EC91E0CA
:1020E0000E94C60B8091DA019091DB01892B31F4BB
:1020F00087EC96E06DE071E00E94DC3787EC96E0BB
:102100006CED71E00E94DF378091DA019091DB0184
:10211000892BC1F082E1CF38D807A4F084E090E0A9
:1021200066E070E04AE050E00E94643180ED91E0AA
:102130006CE471E00E94360488EC91E06CED71E093
:102140000E94732F8CED91E00E94340D87EC96E095
:102150006CED71E00E94DF378091DA019091DB0134
:10216000892BB9F0CF58D241A4F084E090E066E02A
:1021700070E04AE050E00E94643180ED91E061E55A
:1021800071E00E94360488EC91E06CED71E00E94F1
:10219000732F8091D901882399F080E00E94522901
:1021A0006AE070E080E090E00E94A4328FEF9FEF41
:1021B0006CED71E044E60E943E2981E00E945229C4
:1021C000DF91CF911F910F91FF90EF90DF90CF9013
:1021D00008950F931F9307EC16E0C80140E855E2FD
:1021E00060E070E00E94D73429E288E190E00FB609
:1021F000F894A895809360000FBE20936000A89586
:102200000E94A807A8958AE061E00E9467338AE0EF
:1022100061E00E94A63381E161E00E94673381E1C1
:1022200061E00E94A63384E061E00E94673384E0AD
:1022300060E00E94A63383E00E94423382E061E0C6
:102240000E94673382E060E00E94A63364E170E0A0
:1022500080E090E00E94A43282E060E00E94673358
:1022600081E090E048E853E160E070E00E94F82EE1
:10227000C8016CED71E00E947B2C0E94E80C0E946A
:102280006D2A8093D90184E10E9478290E947F07FA
:102290000E945A2A81E00E94522984E090E066E080
:1022A00070E04AE050E00E94643186E580933F018F
:1022B0001092C7011092C6010E943B0A0E94E52EAF
:1022C000A895C80166E171E00E94DF371F910F9168
:1022D0000895FC011382128288EE93E0A0E0B0E042
:1022E00084839583A683B78389E691E09183808375
:1022F000128E118E14860895FC0189E691E0918377
:1023000080830895DF93CF930F92CDB7DEB7FC01A2
:102310006983A081B18112962D913C911397BE01E2
:102320006F5F7F4F41E050E0F90109950F90CF9129
:10233000DF910895DC015996ED91FC915A97309701
:1023400019F420E030E018C0238934894589568982
:1023500082859385A485B585281B390B4A0B5B0BB9
:102360002030B0E83B07B0E04B07B0E05B0720F05F
:102370002FEF3FE740E050E0C9010895DC01599696
:10238000ED91FC915A97309729F420E030E040E03D
:1023900050E004C02389348945895689B901CA01AE
:1023A0000895DC015996ED91FC915A97309711F4FC
:1023B00080E008958581811181E00895CF93DF93B6
:1023C000EC01898D9A8D009741F00E94891A898DC0
:1023D0009A8D0E94AB031A8E198EDF91CF910895CA
:1023E000FC01818D928D009711F480E008950E9488
:1023F00079190895FC01818D928D009711F00E944A
:102400003F1A0895DF93CF930F92CDB7DEB7FC014B
:10241000818D928D009749F0BE016F5F7F4F41E043
:1024200050E00E947C1B019719F02FEF3FEF03C093
:102430008981282F30E0C9010F90CF91DF91089555
:10244000EF92FF920F931F93DF93CF930F92CDB72D
:10245000DEB77C01DC0159968D919C915A970097CB
:1024600019F400E010E01FC0BE016F5F7F4F41E034
:1024700050E00E947C1B019719F00FEF1FEF13C073
:102480008981082F10E0D7015996ED91FC915A9758
:102490004285538564857585415050406040704049
:1024A000CF010E947919C8010F90CF91DF911F9140
:1024B0000F91FF90EF900895CF93DF93EC01E98D9A
:1024C000FA8D309761F013821282CF010E94C11DF4
:1024D0009C01E98DFA8D82819381892B31F081E015
:1024E00090E09B838A8320E030E0C901DF91CF91A7
:1024F0000895EF92FF920F931F93CF93DF93EC0118
:10250000F62EE72E8A011B821A8288EE93E0A0E065
:10251000B0E08C839D83AE83BF8389E691E099838D
:1025200088838DE190E00E9401039A8F898F009744
:1025300091F0DC018F2D9E2D9C01F9018DE1019020
:102540000D928150E1F7CE010C96B8014CE050E0BD
:102550000E945B04188EDF91CF911F910F91FF9025
:10256000EF9008950F931F93CF93DF938C01FB019E
:10257000C081D181FC01EC0FFD1F80818F3209F4F5
:10258000219698012C0F3D1FA0E0B0E00BC0FA018E
:10259000EA0FFB1F8083119621962F5F3F4FAC30CF
:1025A000B10531F0F90180818F3211F0882379F77C
:1025B000A40FB51F1C92F801EC0FFD1F80818F3214
:1025C00009F42196FB01D183C083C00FD11F8881FC
:1025D000811181E0DF91CF911F910F9108951092A9
:1025E0004502109246021092490210924B0282E07C
:1025F00090E0A0E0B0E080934C0290934D02A09355
:102600004E02B0934F021092630210926D0210922C
:102610006C0289E791E090936B0280936A021092BA
:102620006F0208952F923F924F925F926F927F9226
:102630008F929F92BF92CF92DF92EF92FF920F9371
:102640001F93DF93CF93CDB7DEB7C954D0400FB6F9
:10265000F894DEBF0FBECDBF1C017B012A013901FA
:102660001B8A1A8A89E791E0998B888B1D8A18AAA0
:102670001FA69EA78DA71AAA1A8219828B0120E194
:10268000C22ED12CCC0EDD1E93E0892E912C8C0E07
:102690009D1E03C0C80186016C01C101BE016F5FB0
:1026A0007F4FA4010E94B212B82E40E0882309F4A3
:1026B00041E0C801B4019301F2010995882339F47E
:1026C0000E151F0519F1C8010E94891A1FC0BB20F1
:1026D000A9F0C601B801A40121E00E94EE1FB82EA6
:1026E0000E151F0519F0C8010E94891ABB2071F050
:1026F0000E151F0579F6CE018D96CDCF0E151F054F
:1027000019F0C8010E94891A81E001C080E0C75B0E
:10271000DF4F0FB6F894DEBF0FBECDBFCF91DF9174
:102720001F910F91FF90EF90DF90CF90BF909F90FF
:102730008F907F906F905F904F903F902F90089573
:102740009B01BC01665D7F4FC90144E256E120E078
:1027500030E00E94121308952F923F924F925F92A1
:102760006F927F928F929F92AF92BF92CF92DF92A1
:10277000EF92FF920F931F93DF93CF93CDB7DEB706
:10278000C754D0400FB6F894DEBF0FBECDBF582E51
:10279000492EFB013A01190184A595A5998B888BD7
:1027A00029E731E03F872E8786A58A8B87A58B8B0B
:1027B00080A991A9A2A9B3A98C8B9D8BAE8BBF8B4D
:1027C00084A995A9A6A9B7A9888F998FAA8FBB8F2D
:1027D00080AD91ADA2ADB3AD8C8F9D8FAE8FBF8F0D
:1027E00084AD88A3FD9681919191A191B19189A326
:1027F0009AA3ABA3BCA381919191A191B1918DA317
:102800009EA3AFA3B8A7808191819AA789A71EA68E
:102810001DA63CA72BA718AA7A018E01025F1F4FA5
:102820003BE2A32EB12CAC0EBD1E4E010894811CC0
:10283000911C35C0D7018C918F3221F40894E11C92
:10284000F11C2DC0422F4E194D3008F04CE0C42E23
:10285000DD24C401B701A6010E945B04F401EC0D64
:10286000FD1D1082C5010E94891AC501B801A4018D
:1028700021E00E94EE1F882351F4E52DF42D1382F0
:10288000128289E791E091838083158266C0EC0C07
:10289000FD1CC8010E94891AC50158018C01C7019D
:1028A0006FE270E00E9422049C01009719F6E6187E
:1028B000F708F101F182E082E52DF42DD80112969E
:1028C0008D919C9113979383828389E791E0918303
:1028D000808314968C911497848315968C91159708
:1028E000858316962D913D914D915C911997268384
:1028F0003783408751871A962D913D914D915C9178
:102900001D9722873387448755871E962D913D91C9
:102910004D915C91519726873787408B518B52960A
:102920008C915297828B53962D913D914D915C9154
:102930005697238B348B458B568B57962D913D9113
:102940004D915C915A97278B308F418F528F5B96B8
:102950008D919C915C97948F838F852D942DC95B6D
:10296000DF4F0FB6F894DEBF0FBECDBFCF91DF9122
:102970001F910F91FF90EF90DF90CF90BF90AF909D
:102980009F908F907F906F905F904F903F902F908F
:1029900008959F92AF92BF92CF92DF92EF92FF92F3
:1029A0000F931F93DF93CF93CDB7DEB7C657D040B9
:1029B0000FB6F894DEBF0FBECDBFC82E992E8A0188
:1029C000D22E43E0A42EB12CAC0EBD1EC501A80131
:1029D0009E012F5F3F4F0E94AC13E980FA80E00E0A
:1029E000F11EF701808149E751E02885882309F02D
:1029F0003FC08D819E819BA38AA359A348A38F8149
:102A00008CA32DA389859A85AB85BC858EA39FA3B6
:102A1000A8A7B9A78D859E85AF85B8898AA79BA7EA
:102A2000ACA7BDA789899A89AB89BC898EA79FA7C6
:102A3000A8ABB9AB8D898AAB8E899F89A88DB98DDA
:102A40008BAB9CABADABBEAB8A8D9B8DAC8DBD8D86
:102A50008FAB98AFA9AFBAAF8E8D9F8D9CAF8BAF68
:102A60008C2D992DBE01605E7F4F47E251E09FC0E3
:102A7000FE01FF96118210825EAF4DAFFE01EE5B4C
:102A8000FF4F10822223A9F02250CE01CD96223092
:102A900048F46AE672E0A7012D2D0E94EE1F8823FC
:102AA00081F407C0B501A7012D2D0E94EE1F8823D8
:102AB00029F48C2D992D0E9469117BC0C5010E94BB
:102AC000891AF6E0DF2259F0FE01E05BFF4F4081FA
:102AD000518162817381CE01CD960E9479199E0148
:102AE000265A3F4FFE01FF9680819181F901938321
:102AF000828389E791E091838083FE01EF5BFF4F42
:102B00008081F9018483FE01EE5BFF4F8081F90132
:102B10008583FE01ED5BFF4F80819181A281B381AE
:102B2000F90186839783A087B187FE01E95BFF4F98
:102B300080819181A281B381F90182879387A487E3
:102B4000B587FE01E55BFF4F80819181A281B38152
:102B5000F90186879787A08BB18BFE01E15BFF4F60
:102B60008081F901828BFE01E05BFF4F80819181C2
:102B7000A281B381F901838B948BA58BB68BFE0167
:102B8000EC5AFF4F80819181A281B381F901878B3B
:102B9000908FA18FB28FFE01E85AFF4F8081918103
:102BA000F901948F838F8C2D992DB901A7010E9473
:102BB00079128C2D992DCA58DF4F0FB6F894DEBFCD
:102BC0000FBECDBFCF91DF911F910F91FF90EF907E
:102BD000DF90CF90BF90AF909F9008950F931F9379
:102BE000CF93DF93EC01162F8FA5882331F0CE0110
:102BF0008A960E94891A882311F1CE0161E0412F43
:102C00000E9465188823D1F08E01045F1F4FC80110
:102C1000BE0141E00E94BC21882339F4C801BE01F5
:102C200040E00E94BC21882349F0CE018A96B80179
:102C30000E94DB1C882319F081E001C080E0DF9155
:102C4000CF911F910F910895442311F481E00895CD
:102C50000E94F5200895FC01673020F086E185830D
:102C600080E00895262F30E060FD02C0663019F440
:102C70008DB58E7F02C08DB581608DBD8CB58C7F8A
:102C80008CBD4CB522FD02C090E001C092E03695AB
:102C90002795822F8170842B892B8CBD81E008952C
:102CA000FF920F931F93CF93DF938B010E94963275
:102CB000EB01FF24FA94FEBC0DB407FEFDCF8EB5E8
:102CC0008F3F11F481E008C00E9496326C1B7D0B8F
:102CD0006017710780F380E0DF91CF911F910F9112
:102CE000FF900895FC01848160E00E94A63308955E
:102CF000FC01848161E00E94A6330895DC016EBD71
:102D0000FA0120E030E00DB407FEFDCF80818EBDDA
:102D10000DB407FEFDCF81818EBD2E5F3F4F3296F1
:102D200082E02030380779F70DB407FEFDCF8FEF32
:102D30008EBD0DB407FEFDCF8FEF8EBD0DB407FE27
:102D4000FDCF8FEF8EBD0DB407FEFDCF8EB51A9669
:102D50008C931A978F71853011F481E0089581E189
:102D600015968C931597CD010E94781680E00895F2
:102D7000FF920F931F93CF93DF93EC010E94963243
:102D80008B01FF24FA9409C00E949632601B710BDC
:102D90006D52714010F08FE00DC0FEBC0DB407FE07
:102DA000FDCF8EB58A878F3F79F38E3F11F481E096
:102DB00006C08DE08D83CE010E94781680E0DF9101
:102DC000CF911F910F91FF900895CF93DF93EC0166
:102DD0008E818823D1F08FEF8EBD2F8138854FEF04
:102DE00004C00DB407FEFDCF4EBD2F5F3F4FC9019C
:102DF000019781509240A8F338872F830DB407FEC6
:102E0000FDCFCE010E9478161E82DF91CF910895EA
:102E1000DF92EF92FF920F931F93CF93DF93EC011A
:102E2000D62E79018A010E94E516CE010E94721603
:102E3000CE016CE271E00E9450168D2D80648EBD33
:102E40000DB407FEFDCF28E130E0D801C701022E06
:102E500004C0B695A795979587950A94D2F78EBD2D
:102E60000DB407FEFDCF285030408FEF283F3807C4
:102E700061F7DD2011F485E906C088E0D81611F469
:102E800087E801C08FEF8EBD0DB407FEFDCF90E047
:102E90002FEF2EBD0DB407FEFDCF8EB587FF02C00C
:102EA0009150B9F78A87DF91CF911F910F91FF90D1
:102EB000EF90DF900895CF92DF92EF92FF920F9301
:102EC0001F93CF93DF93EC017A018B0169014115C8
:102ED00051056105710511F482E137C08B8583309E
:102EE00039F029E0EE0CFF1C001F111F2A95D1F7C5
:102EF000CE0168E1A80197010E940817882311F00C
:102F000084E023C0CE016EEFA6010E947E168823C6
:102F1000E9F0CE0168E572E00E945016882311F4B2
:102F200085E113C0CE016DE020E030E040E050E0EC
:102F30000E940817882341F48FEF8EBD0DB407FE61
:102F4000FDCF8EB5882379F084E18D83CE010E9478
:102F5000781680E0DF91CF911F910F91FF90EF9055
:102F6000DF90CF900895CE010E94781681E0F2CFD5
:102F70008F929F92AF92BF92CF92DF92EF92FF9289
:102F80000F931F93CF93DF93EC015A016B0149011B
:102F90000115110509F47BC0C801820F931F8150F0
:102FA000924008F06FC08E81882371F088819981EA
:102FB000AA81BB81481759076A077B0729F48F81CB
:102FC00098858816990618F5A882B982CA82DB828C
:102FD0008B85833039F069E0AA0CBB1CCC1CDD1C4E
:102FE0006A95D1F7CE0161E1A60195010E9408170B
:102FF000882319F083E08D8345C0CE010E94B81666
:10300000882309F43FC018861F8281E08E838FEFEA
:103010008EBD8F8198852FEF05C00DB407FEFDCFC3
:103020002EBD019688159905C0F398878F83D80126
:10303000119720E030E09FEF0BC00DB407FEFDCFED
:103040008EB5F701E20FF31F80839EBD2F5F3F4FC8
:103050002A173B0790F30DB407FEFDCF8EB5AE0DDA
:10306000BF1D8C932F813885200F311F38872F8308
:103070008985882319F02050324048F0CE010E9403
:10308000E51605C0CE010E94781680E001C081E0FF
:10309000DF91CF911F910F91FF90EF90DF90CF9034
:1030A000BF90AF909F908F900895EF92FF920F93F3
:1030B0001F93790120E030E000E012E00E94B81791
:1030C0001F910F91FF90EF900895BF92CF92DF92E2
:1030D000EF92FF920F931F93CF93DF93EC01B62EE5
:1030E0001B8619861E821D824C830E9496326B01BC
:1030F0008C8161E00E946733CE010E9478168CE0DB
:1031000060E00E9467338BE061E00E9467338DE0EE
:1031100061E00E9467338AE061E00E9467338AE0E1
:1031200061E00E94A63383E58CBD8DB58E7F8DBD99
:1031300080E09FEF9EBD0DB407FEFDCF8F5F8A300C
:10314000C9F7CE010E94721609C00E9496326C190E
:103150007D09615D774010F081E05EC0CE0160E0E6
:1031600020E030E040E050E00E940817182F8A87E6
:10317000813059F7CE0168E02AEA31E040E050E0C2
:103180000E94081782FF02C01B8711C080E02FEF4A
:103190002EBD0DB407FEFDCF9EB58F5F8430C1F705
:1031A0009A879A3A11F082E037C082E08B878B854C
:1031B000823021F0EE24FF2487010FC0E12CF12C96
:1031C000012DF0E41F2F09C00E9496326C197D0971
:1031D000615D774010F088E01FC0CE0167E320E01A
:1031E00030E040E050E00E940817CE0169E2A801FB
:1031F00097010E9408178A87882331F78B858230D0
:1032000031F5CE016AE320E030E040E050E00E947A
:103210000817882339F086E08D83CE010E94781646
:1032200080E01CC08FEF8EBD0DB407FEFDCF8EB5C4
:10323000807C803C11F483E08B8780E09FEF9EBD13
:103240000DB407FEFDCF2EB58F5F8330C1F7CE01E1
:103250000E947816CE016B2D0E942B16DF91CF9124
:103260001F910F91FF90EF90DF90CF90BF90089546
:10327000CF93DF93EC01DB0180E090E020E2FD01E1
:10328000E80FF91F208301968B309105C1F757E0B5
:1032900040E021C02E3219F08AEA93E007C05A308C
:1032A00019F15AE048E017C03217F1F0FC0101961D
:1032B00034913323C9F75417B8F02132A8F02F37CF
:1032C00098F4822F81568A3108F42052FD01E40FD0
:1032D000F11D20834F5F29912223E1F690E08C912C
:1032E000803219F091E001C090E0892FDF91CF91F9
:1032F00008956F927F928F929F92AF92BF92CF92DA
:10330000DF92EF92FF920F931F93CF93DF93EC0125
:103310007A018B012D81222309F480C08B899C893D
:10332000AD89BE8984179507A607B70708F476C04C
:1033300085C0E114F1040105110549F41E821F82C4
:10334000188619861A861B861C861D8665C02A85E6
:103350003B854C855D85EB8DFC8D858590E00996E0
:10336000215030404040504039014A01082E04C0ED
:1033700096948794779467940A94D2F72F5F3F4F7F
:103380004F4F5F4F0894E108F108010911095701F7
:10339000680104C0D694C794B794A7948A95D2F7CD
:1033A0000894E11CF11C011D111DA614B704C804EA
:1033B000D90428F0211531054105510549F48F89BB
:1033C000988DA98DBA8D8E839F83A887B98716C0E3
:1033D000A618B708C808D90811C04E815F81688552
:1033E00079858B8D9C8D94010E949D230894A10862
:1033F000B108C108D108882331F410C086E0882EB6
:10340000912C8C0E9D1EA114B104C104D10429F786
:10341000EA86FB860C871D8781E001C080E0DF9192
:10342000CF911F910F91FF90EF90DF90CF90BF90C1
:10343000AF909F908F907F906F900895223009F009
:1034400078CFE6CFCF93DF93EC01462F6E857F8553
:10345000888999890E948121882319F420E030E02D
:103460000AC08A89282F30E095E0220F331F9A95F1
:10347000E1F725573D4FC901DF91CF9108950F9393
:103480001F93CF93DF938C01FC0185818823D9F1B1
:10349000848187FF35C0C80161E00E94221AEC01D7
:1034A000009789F1F8018581823040F483899489FD
:1034B000A589B6898C8F9D8FAE8FBF8FF8018789C4
:1034C000908D9B8F8A8F8789908DA18DB28DCD0134
:1034D000AA27BB279D8B8C8BE0918902F0918A02F1
:1034E000309751F0BE016A5E7F4FCE014896099534
:1034F000888D998D9B8B8A8BF80184818F7784834B
:103500000E94222101C080E0DF91CF911F910F9195
:103510000895CF93DF93EC010E943F1A882311F0A6
:103520001D8281E0DF91CF9108956F927F928F92FB
:103530009F92AF92BF92CF92DF92EF92FF920F9342
:103540001F93DF93CF9300D000D0CDB7DEB77C01BF
:103550005A016B01DC0115968C911597813009F0A9
:103560008FC014968C9181FF8BC09EC00097A105DF
:10357000B10511F481E085C0F7016284738484840D
:103580009584C701B601A5010E947919882309F421
:1035900077C0D7015B968D919C915C97A114B10483
:1035A000C104D10489F457964D915D916D917C9140
:1035B0005A970E941024882309F462C0F701178AE1
:1035C000108E118E128E3DC0D70116964D915D91D1
:1035D0006D917C9119979E012F5F3F4F0E949D2313
:1035E000882309F44DC0D7015B96ED91FC915C975F
:1035F00049815A816B817C818789803129F088EFEC
:103600009FEFAFEFBFE004C088EF9FEFA0E0B0E016
:10361000481759076A077B07A0F4CF010E941024BE
:10362000882371F1F7014681578160857185838D0B
:10363000948D0FEF1FEF2FEF3FE00E9401238823AF
:10364000F9F0D7015396AD92BD92CD92DC92569788
:1036500014968C911497806814968C93C7010E94DD
:103660003F1A882369F0B601A5016A147B048C0413
:103670009D0410F4B401A301C7010E94791901C08F
:1036800080E00F900F900F900F90CF91DF911F91DE
:103690000F91FF90EF90DF90CF90BF90AF909F90F1
:1036A0008F907F906F900895F70183899489A58901
:1036B000B68984179507A607B70708F057CFE0CF5C
:1036C000CF93DF93EC0140E050E060E070E00E94B7
:1036D000951A882369F0CE0161E00E94221AFC014C
:1036E000009731F085EE80831D820E94222101C067
:1036F00080E0DF91CF9108952F923F924F925F9299
:103700006F927F928F929F92AF92BF92CF92DF92F1
:10371000EF92FF920F931F93CF93DF93EC012A0157
:103720008D81882309F4C6C08C8180FFC3C0D8C0B6
:1037300025014E185F084B0176E0272E312C2C0E08
:103740003D1E3201B1C02A853B854C855D856FEFFA
:10375000A62E61E0B62EA222B3228D8179018A01C4
:1037600099E016950795F794E7949A95D1F7EB8D24
:10377000FC8D823049F4428D538D648D758D4E0DD4
:103780005F1D601F711F3FC0D480DA94DE20A1143A
:10379000B104D9F4DD20C9F42115310541055105E5
:1037A00049F48F89988DA98DBA8D8E839F83A887C0
:1037B000B9870BC04E815F8168857985CF01910102
:1037C0000E949D23882309F475C0EB8DFC8D4E81EA
:1037D0005F81688579854250504060407040058423
:1037E00004C0440F551F661F771F0A94D2F78685C1
:1037F0009785A089B189480F591F6A1F7B1F4D0DFE
:10380000511D611D711D80E092E08A199B096301C1
:103810008615970508F46C018C8186FD06C080E052
:10382000C81682E0D80609F073C0809156019091C5
:103830005701A0915801B0915901481759076A07DB
:103840007B0709F465C080918B0490918C049501ED
:10385000860174010E94B817882361F18C0C9D1CAD
:1038600012C0950125573D4FA9014C0D5D1DD40196
:10387000F90102C081918D93E417F507D9F7E21B96
:10388000F30B8E0E9F1E960140E050E08A859B85CB
:10389000AC85BD85820F931FA41FB51F8A879B87A8
:1038A000AC87BD876C187D086114710409F04BCF9B
:1038B000A20102C04FEF5FEFCA01DF91CF911F91CC
:1038C0000F91FF90EF90DF90CF90BF90AF909F90BF
:1038D0008F907F906F905F904F903F902F900895C2
:1038E000AB88BC88CD88DE88EA84FB840C851D8586
:1038F0009A0140E050E0D601C5018E199F09A00B46
:10390000B10B82179307A407B50708F411CF13CFA3
:10391000CB01BA0140E00E948121882309F0A1CFA8
:10392000C9CFCF92DF92EF92FF920F931F93DF9355
:10393000CF930F92CDB7DEB76C01FC018581823049
:1039400070F0E284F38404851585C601BE016F5FC3
:103950007F4F41E050E00E947C1B019769F020E01E
:1039600030E0C9010F90CF91DF911F910F91FF902F
:10397000EF90DF90CF900895F60182859385A4851E
:10398000B5854F96A11DB11D82879387A487B58702
:10399000F5E016950795F794E794FA95D1F78E2DF3
:1039A0008F70282F30E0E5E0220F331FEA95E1F712
:1039B00025573D4FD6CF0F931F93CF93DF93EC0145
:1039C0008B018D81882309F041C0FB0187898031FB
:1039D000B1F482E08D831F8A188E198E1A8E808D25
:1039E000918DA0E0B0E045E0880F991FAA1FBB1F92
:1039F0004A95D1F78B8B9C8BAD8BBE8B15C08032DB
:103A000029F583E08D83FB01428D538D648D758D87
:103A10004F8B588F698F7A8F9E012D5E3F4FC80163
:103A20000E946924882391F01C8F0B8F81E08C8386
:103A30001E821F82188619861A861B861C861D8682
:103A40001E861F86188A198A1A8A01C080E0DF91B3
:103A5000CF911F910F9108951F93CF93DF93EC01A6
:103A6000142FE62FF0E075E0EE0FFF1F7A95E1F7D7
:103A7000E557FD4F8385817121F0842F827409F011
:103A800054C06A8B8091560190915701A0915801C2
:103A9000B09159018E879F87A88BB98B84899589AE
:103AA000A0E0B0E0BC0155274427828D938DA0E0B3
:103AB000B0E0482B592B6A2B7B2B4F8B588F698F8B
:103AC0007A8F838590E088719070009751F4848D8F
:103AD000958DA68DB78D8B8B9C8BAD8BBE8B81E02E
:103AE0000CC0409711F59E012D5E3F4F8B8D9C8D34
:103AF0000E9469248823C9F084E08D83812F8F7010
:103B00008C831E821F82188619861A861B861C8645
:103B10001D8616FD02C081E009C0CE0140E050E0E4
:103B200060E070E00E94951A01C080E0DF91CF91C3
:103B30001F910895CF93DF93EC019C012A5F3F4FC3
:103B40008B8D9C8D41E050E060E070E00E94D824B5
:103B50008823A1F08F89988DA98DBA8D0097A10532
:103B6000B10559F48E819F81A885B9858F8B988F77
:103B7000A98FBA8F8C8180688C8381E0DF91CF918F
:103B800008952F923F924F925F927F928F929F92D1
:103B9000AF92BF92CF92DF92EF92FF920F931F935B
:103BA000DF93CF9300D000D000D0CDB7DEB76C014B
:103BB000162F072F5E834D83DC0115968C91159788
:103BC000813009F070C114968C9181FF6CC18EC157
:103BD000F601438954896589768982859385A48510
:103BE000B58584179507A607B70731F0C6010E946F
:103BF0007919882309F457C1812F902F9C0129013D
:103C00002D803E8017C1D6015B96ED91FC915C97AB
:103C1000DA01C90119E0B695A795979587951A9588
:103C2000D1F774807A9478227FEF872E71E0972EF7
:103C300082229322772009F04EC08114910409F06A
:103C40004AC0D60116964D915D916D917C91199760
:103C5000411551056105710581F457968D919D912E
:103C60000D90BC91A02D0097A105B10549F1F60179
:103C700086839783A087B1872EC0CF019E012F5FD7
:103C80003F4F0E949D23882309F414C129813A8162
:103C90004B815C81D6015B96ED91FC915C978789A5
:103CA000803129F088EF9FEFAFEFBFE004C088EFCD
:103CB0009FEFA0E0B0E0281739074A075B0730F014
:103CC000C6010E949A1D882331F4EDC0F6012683B7
:103CD00037834087518780E092E088199909510124
:103CE0008215930508F45C01D6015B96ED91FC9179
:103CF0005C971696ED90FD900D911C9119978EEFA3
:103D00009FEFAFEFBFEFE80EF91E0A1F1B1F0584E0
:103D100004C0EE0CFF1C001F111F0A94D2F7868509
:103D20009785A089B189E80EF91E0A1F1B1FE70CB1
:103D3000F11C011D111D90E0A91692E0B90651F584
:103D40008091560190915701A0915801B09159016D
:103D50008E159F05A007B10761F48FEF9FEFAFEFBE
:103D6000BFEF8093560190935701A0935801B093F1
:103D7000590180918B0490918C04B801A7019201A4
:103D80000E945B17882309F48EC0A0E0B2E04A0EBF
:103D90005B1E3EC08114910409F5F601228533852E
:103DA0004485558583899489A589B689281739075B
:103DB0004A075B0798F00E942221882309F473C008
:103DC000E0925601F0925701009358011093590167
:103DD00080918D04816080938D0408C0C801B70173
:103DE00041E00E948121882309F45DC09401255798
:103DF0003D4FA9014A0D5B1DD201F90102C08D9111
:103E00008193E417F507D9F7E21BF30B4E0E5F1E03
:103E10002A183B08950140E050E0F6018285938521
:103E2000A485B585820F931FA41FB51F8287938732
:103E3000A487B587D6011A962D913D914D915C913D
:103E40001D972114310409F0DECE53968D919D917A
:103E50000D90BC91A02D82179307A407B50748F4D5
:103E6000F601238B348B458B568B84818068848349
:103E700011C08091890290918A02892B59F08D811D
:103E80009E81892B39F0D60114968C911497806805
:103E900014968C93F601848183FF0EC0C6010E94A4
:103EA0003F1A882349F481E090E0D60113969C9351
:103EB0008E9312971E821D828D819E8126960FB64B
:103EC000F894DEBF0FBECDBFCF91DF911F910F9150
:103ED000FF90EF90DF90CF90BF90AF909F908F902A
:103EE0007F905F904F903F902F90089582FD70CE0D
:103EF00083CEDF93CF930F92CDB7DEB76983BE0138
:103F00006F5F7F4F41E050E00E94C11D0F90CF9145
:103F1000DF910895DF92EF92FF920F931F93CF935B
:103F2000DF93EC010E949A1D882309F44EC0EB8DAB
:103F3000FC8DEE80FF80088519858EEF9FEFAFEF37
:103F4000BFEFE80EF91E0A1F1B1F058404C0EE0C0C
:103F5000FF1C001F111F0A94D2F786859785A08940
:103F6000B189E80EF91E0A1F1B1FD4800894E108CE
:103F7000F108010911090BC0C801B7016D0D711DD0
:103F8000811D911D0E945D218823F9F0DA94DD20C6
:103F900099F7EB8DFC8D20E032E040E050E00584A5
:103FA00004C0220F331F441F551F0A94D2F78B8978
:103FB0009C89AD89BE89820F931FA41FB51F8B8B6F
:103FC0009C8BAD8BBE8B81E001C080E0DF91CF91F7
:103FD0001F910F91FF90EF90DF9008956F927F9265
:103FE0008F929F92AF92BF92CF92DF92EF92FF9209
:103FF0000F931F93DF93CF93CDB7DEB72B970FB6F9
:10400000F894DEBF0FBECDBF5C016B01822EDC01D8
:1040100015968C91882309F0D2C0CA018E010F5FDA
:104020001F4FB8010E943819882309F4C8C0F6014F
:10403000838D948DD5015C969C938E935B971682AD
:10404000178210861186D6011A961D921D921D9216
:104050001C921D979924380141C0C6010E94911CF1
:10406000FC01009709F4ABC085E016950795F7941D
:10407000E7948A95D1F71E2D1F708081882311F057
:10408000853ED1F4992091F4D50152961C93529714
:10409000209156013091570140915801509159019A
:1040A0001E962D933D934D935C9351978081882369
:1040B00099F49924939421C0C301BF014BE050E0CF
:1040C0000E940A04009751F4882D8073803309F40C
:1040D00076C0C501612F6FC099249394F601E284E4
:1040E000F3840485158583899489A589B689E816A2
:1040F000F9060A071B0708F4B0CF882D82718231B8
:1041000009F05DC0992041F0C50161E00E94221ACA
:104110008C01009789F453C0D60115968C9182309A
:1041200009F44DC0C6010E948A1F882309F447C0C4
:10413000F501128A0BE812E080E2D8011D928A95FF
:10414000E9F7D801FE0131968BE001900D92815084
:10415000E1F7E0918902F0918A02309739F0B801D5
:10416000625F7F4FC8014096099509C081E298E2DD
:10417000F801918B808B80E098E097878687D80143
:1041800050968D919C91519753969C938E935297F4
:1041900059969C938E9358971E968D919C911F973C
:1041A00057969C938E9356970E942221882339F02C
:1041B000C501F5016289482D0E942C1D01C080E0D7
:1041C0002B960FB6F894DEBF0FBECDBFCF91DF9117
:1041D0001F910F91FF90EF90DF90CF90BF90AF9025
:1041E0009F908F907F906F9008950F931F93DF9310
:1041F000CF93CDB7DEB76D970FB6F894DEBF0FBE85
:10420000CDBF9C01AB011C821B8289E791E09A83A0
:1042100089831E828E010F5F1F4FC801B90122E002
:104220000E94EE1F882319F0C8010E94601B6D9642
:104230000FB6F894DEBF0FBECDBFCF91DF911F91B7
:104240000F91089580918D04882399F14091560132
:1042500050915701609158017091590180918B04E0
:1042600090918C042BE832E00E945B17882319F1AF
:1042700040918E0450918F0460919004709191044C
:10428000411551056105710591F080918B04909164
:104290008C042BE832E00E945B17882361F01092B7
:1042A0008E0410928F041092900410929104109238
:1042B0008D0481E0089580E00895EF92FF920F93BE
:1042C0001F937B018C010E9422218823A9F0EBE837
:1042D000F2E0119284E0EB38F807D9F7E09256014A
:1042E000F0925701009358011093590180918D0469
:1042F000816080938D0481E01F910F91FF90EF907A
:104300000895DF92EF92FF920F931F937B018C0130
:10431000D42E8091560190915701A0915801B091EF
:1043200059018E159F05A007B107C1F00E942221F7
:104330008823D9F080918B0490918C04B801A70157
:104340002BE832E00E945518882379F0E09256015C
:10435000F0925701009358011093590180918D04F8
:104360008D2980938D0481E001C080E01F910F9121
:10437000FF90EF90DF9008958F929F92AF92BF923F
:10438000CF92DF92EF92FF920F931F93CF93DF9321
:104390006C01142F70938C0460938B04442321F4DC
:1043A00088249924540140C0453008F01CC160E0C5
:1043B00070E080E090E040E00E948121882309F4D1
:1043C00012C1C12FD0E02197FE0174E0EE0FFF1F54
:1043D0007A95E1F7E557FD4FE254FE4F8081EE5BA1
:1043E000F14090E08F779070892B09F0FCC0E65384
:1043F000FE4F80819181A281B38184369105A10510
:10440000B10508F4F0C064E0CC0FDD1F6A95E1F758
:10441000CF5ADB4F88809980AA80BB808114910499
:10442000A104B10409F4DFC0C501B40140E00E9459
:104430008121882309F4D7C0809196029091970238
:104440008050924009F0CFC020919B02222309F4B2
:10445000CAC08091990290919A02892B09F4C3C035
:1044600080919802882309F4BEC0F601228B8091C6
:1044700098028483158661E070E007C04F5FF60103
:1044800045874150483008F0AEC0F601458584812B
:1044900090E09B01042E02C0220F331F0A94E2F722
:1044A0008217930759F72091A1023091A20221159A
:1044B000310519F040E050E008C02091AF02309182
:1044C000B0024091B1025091B202F60125833683C9
:1044D00047835087E0909902F0909A0200E010E044
:1044E000E80CF91C0A1D1B1DE38AF48A058B168B48
:1044F00080919C0290919D02918F808F60919B0290
:1045000070E080E090E00E947B3A6E0D7F1D801F7E
:10451000911FF601628F738F848F958F20919C027B
:1045200030919D0255E0220F331F5A95E1F721503B
:104530003E4F232F3327269540E050E0260F371FAC
:10454000481F591F26873787408B518B80919E02C9
:1045500090919F02009719F0A0E0B0E008C0809110
:10456000AB029091AC02A091AD02B091AE02850178
:104570007401E21AF30A040B150BA8019701280F26
:10458000391F4A1F5B1FF601058404C056954795E5
:10459000379527950A94D2F7218732874387548726
:1045A000253FFFE03F07F0E04F07F0E05F0710F422
:1045B0008CE006C0255F3F4F4040504028F480E12A
:1045C000F601878B81E010C08091B7029091B8020C
:1045D000A091B902B091BA02F601828F938FA48F95
:1045E000B58F80E2EECF80E0DF91CF911F910F91E8
:1045F000FF90EF90DF90CF90BF90AF909F908F9003
:1046000008954F925F926F927F928F929F92AF9296
:10461000BF92CF92DF92EF92FF920F931F93CF93AF
:10462000DF93EC016A017B01280139014230510519
:104630006105710508F46FC089859A85AB85BC85D5
:104640000196A11DB11D84179507A607B70708F4A9
:1046500062C02B893C894D895E898F89803129F41C
:1046600099278F2D7E2D6D2D09C0C701B60117E04A
:1046700096958795779567951A95D1F74B015C01CB
:10468000820E931EA41EB51E809156019091570173
:10469000A0915801B091590188169906AA06BB0647
:1046A00039F0C501B40140E00E948121882399F1CD
:1046B0008F89803149F4F601F070EE0FFF1FE55746
:1046C000FD4F518240820DC0F601EF77F070EE0F82
:1046D000FF1FEE0FFF1FE557FD4F408251826282A0
:1046E000738280918D04816080938D048A898230E9
:1046F00080F08D819E81AF81B885880E991EAA1E9B
:10470000BB1E80928E0490928F04A0929004B0926F
:10471000910481E001C080E0DF91CF911F910F9162
:10472000FF90EF90DF90CF90BF90AF909F908F90D1
:104730007F906F905F904F900895CF92DF92EF92AD
:10474000FF920F931F93CF93DF93EC017A018B01BC
:10475000690189859A85AB85BC850196A11DB11D2E
:1047600084179507A607B70708F450C02B893C8922
:104770004D895E898F89803129F49927812F702F87
:104780006F2D09C0C801B701E7E096958795779529
:104790006795EA95D1F7260F371F481F591F80915B
:1047A000560190915701A0915801B09159012817D5
:1047B00039074A075B0739F0CA01B90140E00E9496
:1047C0008121882319F18F89803159F4F701F07024
:1047D000EE0FFF1FE557FD4F80819181A0E0B0E013
:1047E0000EC0F701EF77F070EE0FFF1FEE0FFF1F07
:1047F000E557FD4F80819181A281B381BF70F601A1
:1048000080839183A283B38381E001C080E0DF9144
:10481000CF911F910F91FF90EF90DF90CF9008956F
:10482000AF92BF92CF92DF92EF92FF920F931F93BE
:10483000DF93CF9300D000D0CDB7DEB76C017A0103
:104840008B0182E090E0A0E0B0E0F60180839183EC
:10485000A283B3835E010894A11CB11CC601B801F8
:10486000A70195010E949D23882319F1C601B80173
:10487000A70100E010E020E030E00E94012388233F
:10488000C1F0E980FA800B811C81F60187898031B3
:1048900029F088EF9FEFAFEFBFE004C088EF9FEFF4
:1048A000A0E0B0E0E816F9060A071B07B8F281E0BD
:1048B00001C080E00F900F900F900F90CF91DF918B
:1048C0001F910F91FF90EF90DF90CF90BF90AF902E
:1048D00008954F925F926F927F928F929F92AF92C4
:1048E000BF92CF92DF92EF92FF920F931F93DF93CD
:1048F000CF9300D000D0CDB7DEB76C0149835A8387
:104900006B837C833901EE24FF2487012E010894F8
:10491000411C511C812CA2E09A2EA12CB12C498162
:104920005A816B817C81C60192010E949D2388235C
:1049300051F1D501C401F601058404C0880F991F07
:10494000AA1FBB1F0A94D2F7E80EF91E0A1F1B1FED
:1049500029813A814B815C818789803129F088EFF8
:104960009FEFAFEFBFE004C088EF9FEFA0E0B0E0A3
:10497000281739074A075B0790F2F301E082F182BA
:104980000283138381E00F900F900F900F90CF91CF
:10499000DF911F910F91FF90EF90DF90CF90BF902C
:1049A000AF909F908F907F906F905F904F90089501
:1049B0002F923F924F925F926F927F928F929F922F
:1049C000AF92BF92CF92DF92EF92FF920F931F931D
:1049D000DF93CF93CDB7DEB72F970FB6F894DEBF36
:1049E0000FBECDBF1C014A875B876C877D873F87E1
:1049F0002E87D9010D911D912D913C910115110525
:104A00002105310549F0480159010894811C911C88
:104A1000A11CB11C198610C0FC0180809180A2806D
:104A2000B38019868A859B85AC85BD850197A105D4
:104A3000B10511F491E09987D10119968D919D915D
:104A40000D90BC91A02D0196A11DB11D8D839E835B
:104A5000AF83B887750164014424552432018E0167
:104A60000F5F1F4FF10181859285A385B48548169C
:104A700059066A067B0608F090C08D819E81AF8141
:104A8000B8858C159D05AE05BF0550F482E0882ED3
:104A9000912CA12CB12CB2E0CB2ED12CE12CF12CFD
:104AA000C101B701A60198010E949D23882309F442
:104AB00074C089819A81AB81BC81A70196012F5F67
:104AC0003F4F4F4F5F4F0097A105B10519F04901C6
:104AD0005A010DC0281939094A095B098A859B8545
:104AE000AC85BD85281739074A075B0759F008943C
:104AF000411C511C611C711C0894C11CD11CE11C7F
:104B0000F11CB0CFC101A601B7010FEF1FEF2FEFCE
:104B10003FE00E940123882399F43FC0260137011A
:104B200008944108510861087108C101B301A2014C
:104B3000970186010E940123882379F173016201A4
:104B40008C149D04AE04BF0448F3AE85BF854D911F
:104B50005D916D917C91411551056105710539F0AB
:104B6000C101950184010E9401238823B1F0EE85E3
:104B7000FF8580829182A282B382F985FF2359F05A
:104B80000894811C911CA11CB11CD1018D929D9295
:104B9000AD92BC92139781E001C080E02F960FB6D2
:104BA000F894DEBF0FBECDBFCF91DF911F910F9163
:104BB000FF90EF90DF90CF90BF90AF909F908F903D
:104BC0007F906F905F904F903F902F90089520912D
:104BD000130530E0F901ED56FB4F80832F5F3F4F07
:104BE0002F77307020931305809192048F5F80930C
:104BF000920408959C01F999FECF32BD21BDF89A27
:104C000080B508959C01F999FECF1FBA32BD21BD30
:104C100060BD0FB6F894FA9AF99A0FBE0895DF9323
:104C2000CF930F92CDB7DEB780689FB79983F89482
:104C300043988EBD0DB407FEFDCF8EB58EBD0DB46D
:104C400007FEFDCF8EB5439A99819FBF0F90CF91FC
:104C5000DF910895DF93CF930F92CDB7DEB7482F42
:104C600020E030E0942F906C8FB78983F8944398BC
:104C70009EBD0DB407FEFDCF8EB5CB01022E02C046
:104C8000969587950A94E2F78EBD0DB407FEFDCF89
:104C90008EB5439A89818FBF4F5F285F3F4F203188
:104CA000310501F70F90CF91DF910895DF93CF93F6
:104CB0000F92CDB7DEB7482F20E030E0FB01E20FC6
:104CC000F31FE081942F920F906C8FB78983F89433
:104CD00043989EBD0DB407FEFDCF8EB5EEBD0DB45D
:104CE00007FEFDCF8EB5439A89818FBF2F5F3F4F5F
:104CF0002830310519F70F90CF91DF910895FF9279
:104D00000F931F93DF93CF930F92CDB7DEB7182F7A
:104D1000F62E042F0E940F26982F106C8FB78983D0
:104D2000F89443981EBD0DB407FEFDCF8EB5802FBD
:104D3000809589230F21802B8EBD0DB407FEFDCFFA
:104D40008EB5439A89818FBF0F90CF91DF911F91CC
:104D50000F91FF900895DF93CF930F92CDB7DEB7F9
:104D6000782F392FA22F862F90E0820F911D803847
:104D7000910554F58FB78983F894439880E68EBDEA
:104D80000DB407FEFDCF8EB5872F932F9C01F9013F
:104D900007C080818EBD0DB407FEFDCF31968EB564
:104DA0008E2F871B8617A8F3FA0107C080818EBD5E
:104DB0000DB407FEFDCF31968EB58E2F841B8A175A
:104DC000A8F3439A89818FBF0F90CF91DF91089507
:104DD000813051F0813028F0823049F08330E1F4A5
:104DE00011C08CE068E005C08CE06CE002C08CE093
:104DF0006CE14FE30E947F2686E162E043E00E947F
:104E00007F2608958CE060E04FE30E947F2686E1D4
:104E100063E043E00E947F26089588E00E940F2609
:104E20008F71089584B1886284B93B9A2D9A439A10
:104E30002C9A2A9A8CB581618CBD8DB581608DBD0F
:104E40008CB580648CBD439A08950E940D27089507
:104E50000F931F93082F429B02C084E445C081E05A
:104E60000E940F26182F1F71812F8151823020F050
:104E7000113011F0123031F481E00E940F268F7151
:104E80008117D1F3063179F0093151F00830B1F4CE
:104E9000429886E090E00E94FD3282E063E007C025
:104EA000163161F402C0193149F482E069E04FE142
:104EB0000E947F2681E090E00E94FD3282E0602F18
:104EC0004FE10E947F26183011F081E001C084EB91
:104ED00090E00E94FD3281E00E940F268F718017C2
:104EE00011F083E401C080E41F910F9108951F9297
:104EF0000F920FB60F921124AF92BF92CF92DF9212
:104F0000EF92FF920F931F932F933F934F935F93D3
:104F10006F937F938F939F93AF93BF93EF93FF9381
:104F2000DF93CF93CDB7DEB7E497DEBFCDBF8FB7AA
:104F30008983F8941E9BBCC043988FE88EBD0DB446
:104F400007FEFDCF8EB51EBC0DB407FEFDCF0EB51E
:104F5000439A20E2E22E90E8A92EB12C83E0C82EDD
:104F6000D12CCC0EDD1EA1C002FF02C00B7F9DC064
:104F700003FF7EC081E00E940F268F71863029F0EA
:104F8000863119F0813109F069C087E00E940F264F
:104F90008093270586E00E940F26881F8827881F98
:104FA00080932805882309F45CC08FB78A83F8941E
:104FB0004398EEBC0DB407FEFDCF8EB51EBC0DB4FC
:104FC00007FEFDCFFEB48F2D83508D37B8F52F2D02
:104FD00030E080919204A501481B51092417350740
:104FE00014F080E016C08F2D0E94E72510E008C065
:104FF0001EBC0DB407FEFDCF8EB50E94E7251F5FD6
:105000001F15B0F31BC01EBC0DB407FEFDCF9EB52F
:105010008F5F8F15C0F38091210590912205019635
:105020009093220580932105C6016AEB73E00E94EC
:10503000030487EC96E0B6010E94DC37439A8A812C
:105040008FBF8091190590911A05019690931A05CA
:105050008093190581E08093170503C081E0809358
:10506000180586E10E9428278034D9F7077F1DC0E4
:1050700006FF0BC00F7B80912305909124050196BC
:10508000909324058093230510C001FF02C00D7F7B
:105090000CC000FF02C00E7F08C007FF06C00F77DC
:1050A000809125058F5F80932505002309F05CCF53
:1050B00089818FBFE496DEBFCDBFCF91DF91FF9195
:1050C000EF91BF91AF919F918F917F916F915F9180
:1050D0004F913F912F911F910F91FF90EF90DF9093
:1050E000CF90BF90AF900F900FBE0F901F9018956C
:1050F000FF920F931F93CF93DF93EC018B01F42E5C
:1051000081E00E940F268F71823001F18231F1F02F
:1051100089E10E942827CE016AE0A8012F2D0E9474
:10512000AB2681E08093290582E062E04FE10E9496
:105130007F26809118058823E1F31092180582E0FC
:105140000E940F2682958695877001C084E4DF91C6
:10515000CF911F910F91FF9008957F928F929F9210
:10516000AF92BF92CF92DF92EF92FF920F931F9375
:10517000DF93CF93CDB7DEB72A970FB6F894DEBF93
:105180000FBECDBF7C016B01042F48E9742E34E3C0
:10519000832E32E1932E5E010894A11CB11C55C0F0
:1051A000102F053608F014E68FEFE8168FEFF8069B
:1051B00011F481E401C081E6155F19831B508A83D5
:1051C0007B82809116058C838F5F809316059E826B
:1051D0008D82F886EF8280911405909115059A874B
:1051E0008987C501B601412F0E947828282F88237E
:1051F00059F1382F8330F1F0843018F4813071F494
:1052000004C0853069F0803449F480911B05909189
:105210001C05019690931C0580931B05322F19C025
:1052200080911D0590911E05019690931E05809317
:105230001D050FC080911F05909120050196909348
:10524000200580931F0505C0011B002309F0A8CF8E
:1052500030E0832F2A960FB6F894DEBF0FBECDBF85
:10526000CF91DF911F910F91FF90EF90DF90CF9042
:10527000BF90AF909F908F907F9008950E94AD282F
:105280000895882329F088E00E9428273A980895F5
:1052900042983A9A80E793E00E94FD3286E10E94AC
:1052A000282708950E94412908951F93182F88E008
:1052B000612F4FE10E947F2681E00E940F268F71AF
:1052C000863011F0893021F486E990E00E94FD32A9
:1052D00088E00E940F2690E08F719070212F30E0BF
:1052E0008217930711F083E401C080E41F910895B1
:1052F0000E94552908959C01F999FECFCB01B9016F
:105300002AEF35E20E948D040895DF93CF9300D0F9
:10531000CDB7DEB789E090E0BE016F5F7F4F42E01E
:1053200050E00E947B2989819A810F900F90CF9144
:10533000DF9108950E9485290895BC0180E090E0E6
:1053400048E050E00E947B2908950F931F93DF935C
:10535000CF93CDB7DEB7EB970FB6F894DEBF0FBE95
:10536000CDBF0E9412273A9A8FB78983F894439849
:105370008EEC8EBD0DB407FEFDCF8EB51EBC0DB4F8
:1053800007FEFDCF8EB5439A89818FBF82E063E02F
:105390004FE10E947F268EEF91E00E94FD3281E076
:1053A0000E94E8268BE00E94552985E060E840E8ED
:1053B0000E947F2686E10E94282782E264E372E150
:1053C0000E942A260E948529BC0180E20E942A268A
:1053D0008E010E5F1F4FC8010E949D2984E2B80113
:1053E0000E9456268FE00E940F268FB78983F8947B
:1053F00043988EEC8EBD0DB407FEFDCF8EB588E0D0
:105400008EBD0DB407FEFDCF8EB5439A89818FBF47
:1054100080916B00806480936B0080916800816054
:105420008093680081E00E940F268F71863111F40D
:1054300081E00EC08E01065F1F4FC80161E374E07A
:105440000E94030487EC96E0B8010E94DC3780E0FC
:10545000EB960FB6F894DEBF0FBECDBFCF91DF91B4
:105460001F910F910895F999FECF22E036E20E9434
:10547000A9040895DF93CF9300D0CDB7DEB79A8308
:10548000898389E090E0BE016F5F7F4F42E050E08A
:105490000E94332A69817A8180E20E942A268981CA
:1054A0009A8190931505809314050F900F90CF91DA
:1054B000DF9108950E943A2A089586E1E4E1F5E03B
:1054C000DF011D928A95E9F70E94852990931505C1
:1054D000809314050E94A52908950E945D2A0895CD
:1054E000F999FECF72BD61BDF89A80B5089520E0AC
:1054F00030E080912B05882311F421E030E0C901D0
:105500000895DC019C9121E030E007C0FD01E20F2D
:10551000F31F808198272F5F3F4F26173707B4F37B
:10552000892F0895CF93DF93DC01EA019C9121E05C
:1055300030E007C0FD01E20FF31F808198272F5F45
:105540003F4F26173707B4F388818A3314F0875307
:1055500001C0805349814A3314F0475301C040537E
:1055600020E030E08295807F840F981711F421E0CD
:1055700030E0C901DF91CF910895CF93DF93DC0133
:105580008C91843259F5FD01E60FF71F3397808126
:105590008A3221F562507040ED01C60FD71F6E5F51
:1055A0007F4F9881892F80538A3018F0915496301C
:1055B000A8F4FD01E60FF71F3197E0818E2F80538D
:1055C0008A3018F0E154E63048F464507040CD0160
:1055D0000196AE010E94922A9C0102C020E030E0B8
:1055E000C901DF91CF9108958EE295E008954F9221
:1055F0005F926F927F928F929F92AF92BF92CF9263
:10560000DF92EF92FF920F931F93CF93DF938C0162
:105610003B012A010E9496326B017C01C0E0D0E080
:105620004201AA2497FCA094BA2C16C0A0912C0584
:10563000B0912D05ED91FC9111970680F781E02D39
:10564000CD010995F801EC0FFD1F8083C615D70524
:10565000E9F08A30D9F02196E0912C05F0912D05E2
:10566000A081B18114962D913C911597CF01F9013C
:105670000995892BD9F60E9496326C197D098E09FD
:105680009F0986169706A806B90630F70C0F1D1F4E
:10569000F8011182C615D70519F4E0E0F0E014C056
:1056A0000E949632E0E0F0E06C197D098E099F09B6
:1056B0009201442737FD4095542F621773078407E2
:1056C000950710F4E1E0F0E0CF01DF91CF911F9159
:1056D0000F91FF90EF90DF90CF90BF90AF909F9091
:1056E0008F907F906F905F904F9008954F925F9250
:1056F0006F927F928F929F92AF92BF92CF92DF92E2
:10570000EF92FF920F931F93DF93CF93CDB7DEB746
:10571000C355D0400FB6F894DEBF0FBECDBFCE014B
:105720008A966DE974E00E940304CE01CF966DE87D
:1057300074E00E9403040DC0E0912C05F0912D054A
:10574000A081B18116962D913C911797CF01F90157
:105750000995E0912C05F0912D05A081B181149659
:105760002D913C911597CF01F9010995892B21F7CE
:105770008E010B5E1F4FC80161E874E00E940304B4
:1057800080912C0590912D05B8010E94DF37EE2401
:10579000FF24AA24BB24CC24DD2428013FE3632E6C
:1057A000712C6C0E7D1E2AE2822E912C8C0E9D1E79
:1057B0000894C11CD11CC20164E170E048EE53E0C2
:1057C0000E94F72A892BC9F100E010E005C00F5FA5
:1057D0001F4F0431110589F1D201A00FB11F8C9127
:1057E0008432A9F7E114F10491F4F401019000204E
:1057F000E9F73197E819F909C401BD01AF010E9429
:105800004D04009721F491E0E92EF12C16C0A1146B
:10581000B10499F4F30101900020E9F73197E619FA
:10582000F709040D151DC301B801AF010E944D0415
:10583000009719F481E0A82EB12C85E0C816D10498
:1058400041F0E114F10409F4B3CFA114B10409F457
:10585000AFCF8E010F5F1F4FC80163E774E00E9456
:10586000030487EC96E0B8010E94DC37EF2821F0B2
:10587000C8016FE674E003C0C8016CE674E00E94E2
:10588000030487EC96E0B8010E94DF378E010F5FBA
:105890001F4FC80168E574E00E94030487EC96E09E
:1058A000B8010E94DC37AB2821F0C80164E574E040
:1058B00003C0C80161E574E00E94030487EC96E030
:1058C000B8010E94DF37CD5ADF4F0FB6F894DEBF24
:1058D0000FBECDBFCF91DF911F910F91FF90EF9041
:1058E000DF90CF90BF90AF909F908F907F906F9000
:1058F0005F904F90089590932D0580932C05109202
:10590000DE0510922B057093DD056093DC058EEAB1
:10591000EEE2F5E0DF011D928A95E9F7089584E152
:10592000E8ECF5E0DF011D928A95E9F780913805F2
:10593000909139059093D2058093D10580913A05D5
:1059400090913B059093D5058093D40580913C05BB
:1059500090913D059093D8058093D7058091780567
:10596000909179059093C9058093C80580917A0537
:1059700090917B059093CC058093CB0580917C051D
:1059800090917D059093CF058093CE050895CF9398
:10599000DF93EC0110924205109287051092860564
:1059A0001092890510928A0510928B0510928C0531
:1059B00087E0EEE8F5E0DF011D928A95E9F7EC85D6
:1059C000FD85E081EE2311F0E0934205EE85FF8531
:1059D0008081882331F08081918190938705809325
:1059E0008605E889F9898081882361F08081918129
:1059F000A281B3818093890590938A05A0938B053A
:105A0000B0938C05EA89FB898081882339F0AEE860
:105A1000B5E087E001900D928150E1F7DF91CF91E1
:105A20000895CF93DF93EC01A8E3B5E089E0FD0191
:105A300011928A95E9F7109244051E968EE0FD01B9
:105A4000982F11929A95E9F7109255055196FD01FC
:105A500011928A95E9F710926605519687E0FD014B
:105A6000982F11929A95E9F71896FD0111928A954F
:105A7000E9F7D89786E028E735E0F90111928A9591
:105A8000E9F785E020E835E0F90111928A95E9F718
:105A9000EA81FB818081882329F089E001900D92C1
:105AA0008150E1F7EC81FD81E081EE2311F0E0937C
:105AB0004405EE81FF818081882339F0A6E4B5E0BA
:105AC0008EE001900D928150E1F7E885F985E08143
:105AD000EE2311F0E0935505EA85FB85808188234C
