:100000000C94D9030C94E83E0C94193F0C944A3F8D
:100010000C9404040C94BB370C94BC2D0C942C3D14
:100020000C9404040C9404040C9404040C94040430
:100030000C9404040C9404040C9404040C94040420
:100040000C9404040C9404040C947B3F0C9404045E
:100050000C9475410C940B420C9404040C9404040D
:100060000C9404040C9404040C9404040C940404F0
:100070000C94AE410C9458420C9404040C94040467
:100080000C9404040C9404040C94040405A84CCDB2
:10009000B2D44EB93836A9020C50B9918688083CC2
:1000A000A6AAAA2ABE000000803F20636861726190
:1000B0006374657273206C6F6E670053796E746839
:1000C00061783A207365746964203C69643E20203D
:1000D00020202069642069732000202D206661693A
:1000E0006C7572652E00202D2073756363657373C4
:1000F0002E004465766963652069643A20006F6666
:1001000066006F6E00202053686F772074686973F3
:100110002068656C703A202020202020202068650F
:100120006C7000202044697361626C65206C6F679D
:1001300020746F2073657269616C3A207665726213
:100140006F7365206F6666002020456E61626C6586
:10015000206C6F6720746F2073657269616C3A2040
:1001600020766572626F7365206F6E002020476590
:1001700074206465766963652069643A20202020D4
:100180002020202020676574696400206368617204
:10019000616374657273206C6F6E67002020536515
:1001A00074206E6577206465766963652069643ABA
:1001B00020202020207365746964203C69643E20FF
:1001C000202020696420697320004C697374206FBB
:1001D0006620636F6D6D616E64733A004465766985
:1001E00063652069643A20002D2D2D2044696167E4
:1001F0006E6F7374696320454E44202D2D2D00438E
:100200006F6F7264696E617465207472756E63617C
:1002100074696F6E20656E61626C65642C796573BC
:1002200000475053203150505320656E61626C6519
:10023000642C6E6F00436F6D6D616E64206C696E2F
:100240006520696E7465726661636520656E6162C2
:100250006C65642C79657300506F776572206D61F1
:100260006E6167656D656E7420656E61626C656454
:100270002C7965730053797374656D2066726565BA
:100280002052414D2C0048562073656E73652065E1
:100290006E61626C65642C6E6F006D560042617415
:1002A0007465727920766F6C746167652C0048758F
:1002B0006D69646974792C0054656D706572617440
:1002C0007572652C006E6F0079657300534420725F
:1002D000656164657220696E697469616C697A65CB
:1002E000642C0053442072656164657220656E6100
:1002F000626C65642C79657300526164696F206378
:1003000068616E6E656C2C00526164696F20616477
:1003100064726573732C006E6F00796573005261AF
:1003200064696F20696E697469616C697A65642CAF
:1003300000526164696F20656E61626C65642C793E
:100340006573004465766963652049442C005665F1
:100350007273696F6E2C002D2D2D20446961676EBC
:100360006F73746963205354415254202D2D2D0016
:100370002320436F6F7264696E61746520747275B7
:100380006E636174696F6E20656E61626C65642C6A
:100390007965730023204750532031505053206516
:1003A0006E61626C65642C6E6F002320485620736A
:1003B000656E736520656E61626C65642C6E6F009E
:1003C0002320436F6D6D616E64206C696E652069DA
:1003D0006E7465726661636520656E61626C6564EA
:1003E0002C796573002320506F776572206D616EE4
:1003F0006167656D656E7420656E61626C65642C05
:10040000796573002320534420726561646572200E
:10041000656E61626C65642C79657300232052619E
:1004200064696F20656E61626C65642C7965730028
:10043000232053797374656D20667265652052417F
:100440004D2C25644200232056657273696F6E2C13
:1004500000232057656C636F6D6520746F205361B6
:1004600066656361737420624765696769653320F7
:1004700053797374656D002425732C25732C3230E9
:1004800025732D25732D25735425733A25733A252D
:10049000735A2C25732C25732C25732C25732C76DD
:1004A00025732C25642C25642C25642C2C25642C88
:1004B00025642C2564002425732C25732C323025CB
:1004C000732D25732D25735425733A25733A25739F
:1004D0005A2C256C642C256C642C256C642C2563AB
:1004E0002C25732C25732C25732C25732C25732C0C
:1004F00025732C25732C25732C25730074696D6569
:100500006F7574006D73004750532073746172747B
:100510002074696D652C0056657273696F6E2D00CD
:100520002A2A2A2057656C636F6D6520746F2062DC
:10053000476569676965202A2A2A007C3C3E5E2B54
:100540003D3F2F5B5D3B2C2A225C004255464645D1
:10055000522046554C4C2E20544F5353494E472061
:10056000494E434F4D494E4720444154410A0043B0
:10057000484942493A20436F6D6D616E64206E6F49
:1005800074207265636F676E697A65642E002A2A2B
:100590002A2A2A2A2A2A2A2A2A2A2A2A2A2043488E
:1005A000494249202A2A2A2A2A2A2A2A2A2A2A2A5F
:1005B0002A2A2A2A2A2A2A004348494249203E3E1A
:1005C0002000524144494F204E4F5420494E495437
:1005D00049414C495A45442050524F5045524C597C
:1005E0000A00434D443A20436F6D6D616E64206E86
:1005F0006F74207265636F676E697A65642E002A76
:100600002A2A2A2A2A2A2A2A2A2A2A2A2A2A20433B
:100610004D44202A2A2A2A2A2A2A2A2A2A2A2A2A07
:100620002A2A2A2A2A2A00434D44203E3E20006ED0
:100630006F00796573004750532073797374656D4B
:1006400020737461727475702C006E6F007965731D
:10065000004750532074797065204D544B2C002472
:10066000504D544B3130312A33320024504D544BCD
:100670003031302C3030312A32450024504D544B2B
:100680003031312C4D544B4750532A3038006E6F67
:100690000079657300534420726561642077726944
:1006A00074652C006E6F0053442074657374203A97
:1006B0002063616E27742072656D6F7665207465A6
:1006C00073742066696C6500796573005344206F0C
:1006D00070656E2066696C652C00546869732069CA
:1006E000732061206247656967696520746573746A
:1006F0000042475F544553542E545854006E6F00C7
:1007000079657300534420696E697469616C697A14
:1007100065642C00796573006E6F00534420696E28
:100720007365727465642C000000210024002700AA
:100730002A0000002200250028002B0000002000D5
:10074000230026002900020202020202020204041F
:100750000404040404040303030303030303010167
:100760000101010101010102040810204080010281
:10077000040810204080010204081020408001027B
:100780000408102040800000000102000809000059
:100790000000040307060000000000000000000045
:1007A000000000000000F008741737399F3BCA436F
:1007B000303911241FBECFEFD0E4DEBFCDBF12E031
:1007C000A0E0B1E0E0E6F2E900E00BBF02C0079074
:1007D0000D92AC3AB107D9F71BBE1BE0ACEAB2E010
:1007E00001C01D92A131B107E1F717E0C0EBD7E0DE
:1007F00004C02297FE010E94E848C63AD107C9F713
:100800000E94F5450C9423490C940000CF93DF938C
:10081000BC018230910510F462E070E0A0910F0BF2
:10082000B091100BED01E0E0F0E040E050E021C0BD
:10083000888199818617970769F48A819B8130970F
:1008400019F09383828304C09093100B80930F0B55
:10085000FE0134C06817790738F44115510519F0C5
:100860008417950708F4AC01FE018A819B819C01E5
:10087000E9012097E9F641155105A9F1CA01861B46
:10088000970B049708F4BA01E0E0F0E02AC08D91DC
:100890009C91119784179507F9F46417750781F4F3
:1008A00012968D919C911397309719F093838283C0
:1008B00004C09093100B80930F0BFD0132964CC037
:1008C000CA01861B970BFD01E80FF91F6193719315
:1008D00002978D939C9340C0FD01828193819C017E
:1008E000D9011097A1F680910D0B90910E0B892BD9
:1008F00041F480915F029091600290930E0B80937F
:100900000D0B40916102509162024115510541F475
:100910004DB75EB780915D0290915E02481B590B06
:1009200020910D0B30910E0BCA01821B930B861781
:10093000970780F0AB014E5F5F4F8417950750F02B
:10094000420F531F50930E0B40930D0BF90161930F
:10095000719302C0E0E0F0E0CF01DF91CF91089504
:10096000CF93DF93009709F450C0EC0122971B82CC
:100970001A82A0910F0BB091100B109709F140E073
:1009800050E0AC17BD0708F1BB83AA83FE0121919B
:100990003191E20FF31FAE17BF0779F48D919C914F
:1009A0001197280F391F2E5F3F4F398328831296E6
:1009B0008D919C9113979B838A834115510571F406
:1009C000D093100BC0930F0B20C012968D919C9169
:1009D0001397AD01009711F0DC01D3CFFA01D38357
:1009E000C28321913191E20FF31FCE17DF0769F423
:1009F00088819981280F391F2E5F3F4FFA0131837B
:100A000020838A819B8193838283DF91CF91089594
:100A1000FB01DC0105900D920020E1F70895FB0138
:100A2000DC014150504030F08D910590801919F44F
:100A30000020B9F7881B990B08954CEA52E00E94F8
:100A4000A5050895FB01DC0104C08D91019080197A
:100A500021F441505040C8F7881B990B0895FB01C1
:100A6000DC010D900020E9F7119701900D92002014
:100A7000E1F70895FC018191861721F08823D9F7C9
:100A8000992708953197CF010895FB01DC018D91DD
:100A9000019080190110D9F3990B0895FB01DC0135
:100AA00001900D920020E1F70895FB01DC010D900B
:100AB0000020E9F711974150504028F001900020A4
:100AC0000D92C9F708951C920895FB01DC01415075
:100AD000504030F08D910190801919F40020B9F741
:100AE000881B990B0895FB01DC014150504048F0F0
:100AF00001900D920020C9F701C01D924150504055
:100B0000E0F70895FC016150704001900110D8F7A2
:100B1000809590958E0F9F1F0895FC01A081B18153
:100B2000AD01109681F03D91FB010190031601107B
:100B3000E1F7C9F7002011F4D00102C01E9211960E
:100B4000FC01A083B183CA010895009731F4DA0152
:100B50008D919C91009709F40EC0DC01FB013D9141
:100B60002191222319F03217C9F3FACF332331F43C
:100B7000DA011D921C928827992708951197AF9347
:100B8000BF93FB013D912191321771F4332321F47E
:100B900088279927119702C01E921196FA01A193F6
:100BA000B0839F918F910895222369F7EACFA0E047
:100BB000B0E0EDEDF5E00C94F6487C01EB018A0124
:100BC000690109C0CE012196F6010995F7018193CB
:100BD0007F010150104001151105A1F7CDB7DEB717
:100BE000E8E00C941249A0E0B0E0E9EFF5E00C94E5
:100BF000F648EC017B018A01690109C0CE0121960A
:100C0000F70161917F01F60109950150104001152E
:100C10001105A1F7CDB7DEB7E8E00C941249AEE0BC
:100C2000B0E0E5E1F6E00C94FA480D891E8986E013
:100C30008C831A8309838FEF9FE79E838D839E01A8
:100C4000275E3F4FCE0101966F89788DA9010E94E2
:100C500057062F813885020F131FF80110822E9638
:100C6000E4E00C941649AEE0B0E0E9E3F6E00C9461
:100C7000FA480D891E898EE08C831A8309838FEFD1
:100C80009FE79E838D839E01275E3F4FCE01019695
:100C90006F89788DA9010E9457062F813885020F30
:100CA000131FF80110822E96E4E00C941649ABE075
:100CB000B0E0EDE5F6E00C94EC483C012B015A0164
:100CC000FC0117821682838181FD03C06FEF7FEFE5
:100CD000C6C19AE0892E1E010894211C311CF30123
:100CE0002381F20123FD859123FF81912F01882328
:100CF00009F4B2C1853239F423FD859123FF819136
:100D00002F01853229F490E0B3010E943F08E7CF1C
:100D1000982FFF24EE249924FFE1FF15D0F09B3299
:100D200069F09C3228F4903259F0933291F40EC05D
:100D30009D3249F0903369F441E024C052E0F52A35
:100D400084E0F82A28C098E0F92A25C0E0E1FE2ACC
:100D500022C0F7FC29C0892F80538A3070F4F6FE38
:100D600005C0989C902C1124980E15C0E89CE02C8E
:100D70001124E80EF0E2FF2A0EC09E3229F4F6FCA0
:100D80006BC140E4F42A07C09C3619F450E8F52AF8
:100D900002C0983649F4F20123FD959123FF919109
:100DA0002F01992309F0B8CF892F8554833018F08B
:100DB0008052833038F444E050E0A40EB51E5FE367
:100DC00059830FC0933631F0933779F0933509F09A
:100DD00056C020C0F5018081898342E050E0A40E16
:100DE000B51E610101E010E012C0F501C080D180A4
:100DF000F6FC03C06FEF7FEF02C0692D70E042E0A8
:100E000050E0A40EB51EC6010E9482058C015FE76A
:100E1000F52214C0F501C080D180F6FC03C06FEF4D
:100E20007FEF02C0692D70E042E050E0A40EB51ED5
:100E3000C6010E9434088C0150E8F52AF3FE07C071
:100E40001AC080E290E0B3010E943F08EA948E2D20
:100E500090E008171907A8F30EC0F601F7FC85917A
:100E6000F7FE81916F0190E0B3010E943F08E1100D
:100E7000EA94015010400115110579F7EAC0943643
:100E800011F0993669F5F7FE08C0F501208131812E
:100E90004281538184E090E00AC0F5018081918114
:100EA0009C01442737FD4095542F82E090E0A80E26
:100EB000B91E9FE6F92257FF09C05095409530951D
:100EC00021953F4F4F4F5F4FE0E8FE2ACA01B9011D
:100ED000A1012AE030E00E946B08D82ED21840C051
:100EE000953729F41F2D1F7E2AE030E01DC01F2DED
:100EF000197F9F3661F0903720F4983509F0ACC027
:100F00000FC0903739F0983709F0A6C004C028E028
:100F100030E00AC0106114FD146020E130E004C02C
:100F200014FD166020E132E017FF08C0F501608172
:100F300071818281938144E050E008C0F501808195
:100F40009181BC0180E090E042E050E0A40EB51E2B
:100F5000A1010E946B08D82ED2188FE7F82EF1223B
:100F6000F6FE0BC05EEFF522D91438F4F4FE07C08C
:100F7000F2FC05C08FEEF82202C01D2D01C0192D14
:100F8000F4FE0DC0FE01ED0DF11D8081803319F4DA
:100F900099EEF92208C01F5FF2FE05C003C08F2D35
:100FA000867809F01F5F0F2DF3FC14C0F0FE0FC010
:100FB0001E1510F09D2C0BC09D2C9E0C911A1E2D01
:100FC00006C080E290E0B3010E943F081F5F1E153B
:100FD000C0F304C01E1510F4E11A01C0EE2404FF92
:100FE0000FC080E390E0B3010E943F0802FF1DC0E4
:100FF00001FD03C088E790E00EC088E590E00BC0DB
:10100000802F867891F001FF02C08BE201C080E260
:10101000F7FC8DE290E0B3010E943F0806C080E338
:1010200090E0B3010E943F089A94D914C0F3DA9477
:10103000F101ED0DF11D808190E0B3010E943F08A8
:10104000DD20A9F706C080E290E0B3010E943F08CE
:10105000EA94EE20C1F743CEF30166817781CB019C
:101060002B96E2E10C940849FC0105906150704018
:101070000110D8F7809590958E0F9F1F08950F93BC
:101080001F93CF93DF938C01EB018B8181FF1BC0FA
:1010900082FF0DC02E813F818C819D8128173907E9
:1010A00064F4E881F9810193F983E88306C0E88557
:1010B000F985802F0995892B31F48E819F810196C6
:1010C0009F838E8302C00FEF1FEFC801DF91CF9186
:1010D0001F910F910895FA01AA27283051F120316C
:1010E00081F1E8946F936E7F6E5F7F4F8F4F9F4FBC
:1010F000AF4FB1E03ED0B4E03CD0670F781F891FFE
:101100009A1FA11D680F791F8A1F911DA11D6A0FCB
:10111000711D811D911DA11D20D009F468943F917E
:101120002AE0269F11243019305D3193DEF6CF017D
:101130000895462F4770405D4193B3E00FD0C9F743
:10114000F6CF462F4F70405D4A3318F0495D31FDB0
:101150004052419302D0A9F7EACFB4E0A695979503
:10116000879577956795BA95C9F7009761057105D9
:1011700008959B01AC010A2E069457954795379523
:101180002795BA95C9F7620F731F841F951FA01D7D
:1011900008958091FA02883519F420E030E305C003
:1011A000992787FD9095382F22278091FB0288355B
:1011B00059F0992787FD9095C09744E0880F991FB3
:1011C0004A95E1F7280F391F8091FC02883531F0EC
:1011D000992787FD9095C097280F391FC901089559
:1011E00085E093E061E070E028E833E140E050E022
:1011F0000E94F5350895CF92DF92EF92FF920F9300
:101200001F93CF93DF936C01C0E0D0E07B0100E03F
:1012100010E00BC02C9AC801B7010E94DD3F2C984A
:10122000C801B7010E94DD3F2196CC15DD0590F382
:10123000DF91CF911F910F91FF90EF90DF90CF90B2
:1012400008952F923F924F925F926F927F928F926A
:101250009F92AF92BF92CF92DF92EF92FF920F9345
:101260001F932C011B01FC016281772767FD70959C
:1012700060537040882777FD8095982F20EA36E8E4
:1012800041E050E00E947E485B016C01F201638105
:10129000772767FD709560537040882777FD8095AC
:1012A000982F20E137E240E050E00E947E48A60EF1
:1012B000B71EC81ED91EF2018085992787FD90951B
:1012C000C097AA2797FDA095BA2FA80EB91ECA1ECF
:1012D000DB1E6681772767FD709560537040882715
:1012E00077FD8095982F24E630E040E050E00E94A2
:1012F0007E48A60EB71EC81ED91EF201658177274B
:1013000067FD709560537040882777FD8095982F12
:1013100028EE33E040E050E00E947E48A60EB71E63
:10132000C81ED91EF2016781772767FD709560534B
:101330007040882777FD8095982F2AE030E040E0C4
:1013400050E00E947E48A60EB71EC81ED91EC601D8
:10135000B50122E232E040E050E00E94B0489B013B
:10136000AC01A21AB30AC40AD50AC601B50120EA23
:1013700036E841E050E00E94B048205DF20122834F
:10138000C601B50120EA36E841E050E00E94B048CD
:1013900020E137E240E050E00E94B048205DF201D9
:1013A0002383C601B50120E137E240E050E00E940E
:1013B000B04828EE33E040E050E00E94B048205DA5
:1013C000F2012583C601B50128EE33E040E050E08C
:1013D0000E94B04824E630E040E050E00E94B0486F
:1013E000205DF2012683C601B50124E630E040E02D
:1013F00050E00E94B0482AE030E040E050E00E9417
:10140000B048205DF2012783C601B5012AE030E033
:1014100040E050E00E94B048605DF2016087F10159
:101420006381772767FD709560537040882777FD4B
:101430008095982F20EA36E841E050E00E947E48EF
:101440007B018C01F1016481772767FD7095605302
:101450007040882777FD8095982F20E137E240E0A3
:1014600050E00E947E48E60EF71E081F191FF1018A
:101470008185992787FD9095C097AA2797FDA0950C
:10148000BA2FE80EF91E0A1F1B1F6781772767FD19
:10149000709560537040882777FD8095982F24E6DB
:1014A00030E040E050E00E947E48E60EF71E081F44
:1014B000191FF1016681772767FD709560537040B1
:1014C000882777FD8095982F28EE33E040E050E0A4
:1014D0000E947E48E60EF71E081F191FF101608565
:1014E000772767FD709560537040882777FD80955A
:1014F000982F2AE030E040E050E00E947E48E60E5F
:10150000F71E081F191FF2016081772767FD70958C
:1015100060537040882777FD8095982F0E94074779
:1015200020E030E040E251E40E94D5473B014C010D
:10153000F2016181772767FD7095605370408827BD
:1015400077FD8095982F0E9407479B01AC01C4014D
:10155000B3010E9405463B014C01C601B5010E9442
:10156000054720E03CE742E159E40E946C469B01BC
:10157000AC01C401B3010E94054620E030E044E321
:1015800053E40E946C462BED3FE049E450E40E9496
:10159000D5470E9469469B01AC0163E172E88FE583
:1015A0009DE30E946C4620E030E44CE156E40E944A
:1015B000D5470E94D9469B01AC0140E050E0C801EC
:1015C000B7010E94B0489B01AC01E21AF30A040B78
:1015D000150BC801B70120EA36E841E050E00E944F
:1015E000B048205DF1012383C801B70120EA36E845
:1015F00041E050E00E94B04820E137E240E050E096
:101600000E94B048205DF1012483C801B70120E1A8
:1016100037E240E050E00E94B04828EE33E040E07E
:1016200050E00E94B048205DF1012683C801B70157
:1016300028EE33E040E050E00E94B04824E630E07D
:1016400040E050E00E94B048205DF1012783C801CE
:10165000B70124E630E040E050E00E94B0482AE0C4
:1016600030E040E050E00E94B048205DF10120876A
:10167000C801B7012AE030E040E050E00E94B048E5
:10168000605DF10161871F910F91FF90EF90DF90F6
:10169000CF90BF90AF909F908F907F906F905F9012
:1016A0004F903F902F900895EF92FF920F931F93CA
:1016B000DF93CF93CDB7DEB7E2970FB6F894DEBFD6
:1016C0000FBECDBF8E010F5F1F4FC8016CED71E0E3
:1016D0000E9408056FECE62E6AE0F62EC701B801FD
:1016E0000E94E245C7016AEF72E00E94E245C8012C
:1016F0006AEC71E00E940805C701B8010E94E2454A
:10170000C8016CE971E00E940805C701B8010E9498
:10171000DF45C70163E070E04AE050E00E94CC453D
:10172000C8016BE871E00E940805C701B8010E947A
:10173000E245C8016CE671E00E940805C701B801E6
:101740000E94E245C80168E471E00E940805C701F3
:10175000B8010E94E245C80163E271E00E940805F9
:10176000C701B8010E94E245C80165E071E00E942E
:101770000805C701B8010E94E245E2960FB6F89449
:10178000DEBF0FBECDBFCF91DF911F910F91FF90B4
:10179000EF9008950E94540B08950F931F93DF93C9
:1017A000CF93CDB7DEB76E970FB6F894DEBF0FBEFE
:1017B000CDBFFB010297D9F402811381C80162E019
:1017C00071E042E050E00E940F05892B21F481E096
:1017D0008093040319C0C8016EEF70E043E050E04D
:1017E0000E940F05892B19F4109204030DC08E017D
:1017F0000F5F1F4FC80160E071E00E9408058FEC89
:101800009AE0B8010E94E2456E960FB6F894DEBFEA
:101810000FBECDBFCF91DF911F910F910895CF9251
:10182000DF92EF92FF920F931F93DF93CF93CDB789
:10183000DEB7E4970FB6F894DEBF0FBECDBF8E01C2
:101840000D5F1F4FC80167E573E00E9408058FEC2C
:101850009AE0B8010E94E245C8016EE473E00E947C
:1018600008058FEC9AE0B8010E94DF458FEC9AE002
:101870006EE772E00E94E245C80163E473E00E94F3
:1018800008058FEC9AE0B8010E94DF458FEC9AE0E2
:101890006AEF72E00E94E245C80161E373E00E94D2
:1018A00008058FEC9AE0B8010E94E245C8016EE19C
:1018B00073E00E9408058FEC9AE0B8010E94DF45B2
:1018C00080910203882321F0C8016AE173E003C01C
:1018D000C80167E173E00E9408058FEC9AE0B80147
:1018E0000E94E24580E00E949B2F8E010D5F1F4FFA
:1018F000C80168E073E00E9408058FEC9AE0B80127
:101900000E94DF450E94E32FBC018FEC9AE040E18A
:1019100050E00E945145C80169EF72E00E9408053D
:101920008FEC9AE0B8010E94DF450E946A2D682F73
:101930008FEC9AE04AE050E00E946E4581E00E9400
:101940009B2F0E94F8320E946D3AC80163EE72E04C
:101950000E9408058FEC9AE0B8010E94E245C80198
:101960006CEC72E00E9408058FEC9AE0B8010E94CE
:10197000DF4580910303882321F0C80168EC72E001
:1019800003C0C80165EC72E00E9408058FEC9AE084
:10199000B8010E94E24580916A0760E00E9411410F
:1019A00064E670E080E090E00E94DD3F0E942B380A
:1019B0000E942B387B018C0173E0C72ED12CCC0EFA
:1019C000DD1EC60168EB72E00E9408058FEC9AE00C
:1019D000B6010E94DF45C801B7010E94D4469B01B1
:1019E000AC018FEC9AE0B9014AE050E00E94CC458E
:1019F0008FEC9AE063E40E94B2440E9456380E9441
:101A000056387B018C01C6016EEA72E00E9408051F
:101A10008FEC9AE0B6010E94DF45C801B7010E9431
:101A2000D4469B01AC018FEC9AE0B9014AE050E04A
:101A30000E94CC458FEC9AE065E20E94B24480910E
:101A40006A0761E00E9411410E94D0380E94D0389C
:101A50007B018C01C6016DE972E00E9408058FECE4
:101A60009AE0B6010E94DF45C801B70120E030E0EE
:101A70004AE754E40E94D5470E94D4469B01AC013A
:101A80008FEC9AE0B9014AE050E00E94CC45C601D3
:101A90006AE972E00E9408058FEC9AE0B6010E94A4
:101AA000E245C60166E872E00E9408058FEC9AE004
:101AB000B6010E94E245C60165E772E00E94080592
:101AC0008FEC9AE0B6010E94DF4520910D0B30911A
:101AD0000E0BCE0101962115310519F481519B4061
:101AE00002C0821B930B9A83898369817A818FEC70
:101AF0009AE04AE050E00E94CC458FEC9AE062E424
:101B00000E94B2448E010D5F1F4FC80168E572E06C
:101B10000E9408058FEC9AE0B8010E94E245C801D6
:101B200065E372E00E9408058FEC9AE0B8010E941C
:101B3000E245C80161E272E00E9408058FEC9AE07C
:101B4000B8010E94E245C8016FEF71E00E940805EC
:101B50008FEC9AE0B8010E94E245C80168EE71E09E
:101B60000E9408058FEC9AE0B8010E94E245E496D5
:101B70000FB6F894DEBF0FBECDBFCF91DF911F919E
:101B80000F91FF90EF90DF90CF900895EF92FF922A
:101B90000F931F93DF93CF93CDB7DEB7E4970FB6C4
:101BA000F894DEBF0FBECDBF7C018E010D5F1F4FCD
:101BB000C80161E574E00E940805C701B8010E94F0
:101BC0003E39C80166E474E00E940805C8016EE76A
:101BD00072E00E942F05C701B8010E943E39209192
:101BE0000D0B30910E0BCE0101962115310519F424
:101BF00081519B4002C0821B930B9A83898300D042
:101C000000D000D0EDB7FEB731968E010D5F1F4FAB
:101C1000ADB7BEB712961C930E93119780E394E074
:101C20009383828389819A81958384830E9433067A
:101C30008DB79EB706960FB6F8949EBF0FBE8DBFA8
:101C4000C701B8010E943E39C8016CE174E00E94EE
:101C50000805C701B8010E943E39C80164E074E07C
:101C60000E940805C701B8010E943E39C80165EE0F
:101C700073E00E940805C701B8010E943E39C801FF
:101C800060EC73E00E940805C701B8010E943E396C
:101C9000C8016AEA73E00E940805C701B8010E9402
:101CA0003E39C80164E973E00E940805C701B80124
:101CB0000E943E39C80160E773E00E940805C70131
:101CC000B8010E943E39E4960FB6F894DEBF0FBE0D
:101CD000CDBFCF91DF911F910F91FF90EF900895AD
:101CE0000E94D03820E030E04AE754E40E94D54713
:101CF0000E94D446645E7C4044F48FEC9AE06AE132
:101D000071E00E94E2450E94713608950F931F937F
:101D100083E090E064E670E00E94FB0883E061E00D
:101D20000E9411418091740761E00E94114186E098
:101D300060E00E94114185E060E00E94114187E06F
:101D400060E00E9411411FB7F8948CE060E00E94AF
:101D500011416AE070E080E090E00E94DD3F8CE09D
:101D600061E00E9411411FBF81E00E949B2F8BE127
:101D700061E00E94114180916A0761E00E94114177
:101D80002C988CE060E00E9411418CE060E00E94A1
:101D9000AD4085E060E00E94114185E060E00E9476
:101DA000AD4087E060E00E94114187E060E00E9462
:101DB000AD4086E060E00E94114186E060E00E9454
:101DC000AD400FEC1AE0C8016EE371E00E94E245FD
:101DD00064E170E080E090E00E94DD3FC8010E9475
:101DE0007C431F910F9108951F938091AA099091B0
:101DF000AB09892B31F483E090E064E670E00E9447
:101E0000FB088091740761E00E94114186E060E068
:101E10000E94114185E060E00E94114187E060E08E
:101E20000E9411411FB7F8948CE060E00E941141BC
:101E30006AE070E080E090E00E94DD3F8CE061E0CD
:101E40000E9411411FBF6AE070E080E090E00E94B4
:101E5000DD3F8091740760E00E94114164E170E011
:101E600080E090E00E94DD3F8CE061E00E94AD40A8
:101E70008CE061E00E94114185E061E00E94AD408C
:101E800087E061E00E94AD4086E060E00E94AD40E6
:101E900086E061E00E9411418DE061E00E94114105
:101EA00082E161E00E9411418EE090E064E170E027
:101EB0004CE050E00E942F3B04C08EEE9AE00E945E
:101EC00053438EEE9AE00E942243892BB1F783E0C0
:101ED00060E00E94114180916A0760E00E94114118
:101EE0001092FF021092FE02109201031092000362
:101EF000EEEAF2E0119211921192119282E0EE3D1F
:101F0000F807C1F71092DE021092DF021092E00291
:101F10001092E1021092E2021092E3021092E402A7
:101F20001092E5021092E7021092E60286E5809395
:101F30006302109204038091AA099091AB09892B46
:101F400021F40E94803E809303038091AA0990911E
:101F5000AB09892B11F40E940F0C8BE160E00E9409
:101F6000114162E370E080E090E00E94DD3F85E097
:101F700093E00E9448368FEC9AE06CE571E00E9495
:101F8000E2451F910895BF92CF92DF92EF92FF92A8
:101F90000F931F93CF93DF93F894FAEFEF2EF2E0B5
:101FA000FF2EC4E6D0E0E8E5BE2E6E0187EC95E09A
:101FB000BE010E94192CF701808301E010E00FC0E0
:101FC0006AE070E080E090E00E94DD3F87EC95E001
:101FD000B6010E94192CF70180830F5F1F4FF70194
:101FE000808180538A3020F00330110549F714C0F6
:101FF00021960894E11CF11CC736D105B1F6109268
:10200000FD027894DF91CF911F910F91FF90EF9097
:10201000DF90CF90BF900895F701B082E9CF0F9382
:102020001F930E94C30F0FEC1AE0C80160E771E034
:102030000E94DF45C8016AEF72E00E94E2451F91ED
:102040000F910895CF92DF92EF92FF920F931F931B
:10205000DF93CF93CDB7DEB7A8970FB6F894DEBF66
:102060000FBECDBF7B01029709F05CC0A2E0CA2E73
:10207000D12CC60ED71EDB0112964D915C911397A1
:1020800020E030E002C02F5F3F4FFA01E20FF31F64
:1020900080818823C1F72330310509F043C000E077
:1020A00010E0D601ED91FC91E00FF11F87EC95E077
:1020B0000C591F4FB80140810E94202C035610403C
:1020C0000330110571F70E94C30F8E010F5F1F4F80
:1020D000C80162EF70E00E9408058FEC9AE0B80139
:1020E0000E94DF458FEC9AE06AEF72E00E94DF45C4
:1020F000F701628173818AEF92E043E050E00E9431
:102100006505009721F4C80166EE70E003C0C801C0
:102110006AED70E00E9408058FEC9AE0BE016F5FE7
:102120007F4F1DC08E010F5F1F4FC8016BEB70E02A
:102130000E9408058FEC9AE0B8010E94DF458FEC01
:102140009AE063E070E04AE050E00E94CC45C801AC
:102150006AEA70E00E9408058FEC9AE0B8010E94DC
:10216000E245A8960FB6F894DEBF0FBECDBFCF9163
:10217000DF911F910F91FF90EF90DF90CF90089526
:102180002F923F924F925F926F927F928F929F9287
:10219000AF92BF92CF92DF92EF92FF920F931F9375
:1021A000CF93DF937C0180916A0760E00E94114128
:1021B00064E670E080E090E00E94DD3F0E94AB3872
:1021C0000E94D0381B012C010E942B385B016C014E
:1021D0000E9456383B014C0180916A0761E00E94E1
:1021E00011410E94763224E6D7011D922A95E9F723
:1021F000EDB7FEB7BA970FB6F894FEBF0FBEEDBFAE
:102200000DB71EB70F5F1F4FF282E18227E734E060
:10221000D80113963C932E9312972BE632E0159635
:102220003C932E9314972AEF32E017963C932E930B
:10223000169780569F4F19969C938E9318970397E5
:102240001B969C938E931A9703971D969C938E933F
:102250001C9709961F969C938E931E9703965196F2
:102260009C938E935097039653969C938E9352977C
:102270008159904055969C938E9354970F965796FC
:102280009C938E935697029659969C938E9358974B
:102290000F965B969C938E935A978EE792E05D968D
:1022A0009C938E935C97C601B5010E94D446F801B9
:1022B000778F668FC401B3010E94D446D8019196EE
:1022C0007C936E939097C201B10120E030E04AE721
:1022D00054E40E94D5470E94D446F80173A362A338
:1022E00080917A0790917B0795A384A380917807CA
:1022F0009091790797A386A380917E0790917F079D
:1023000091A780A70E943306D7010D900020E9F71E
:102310001197AE19BF090A2FE701CA0FD11D188204
:102320002DB73EB7265D3F4F0FB6F8943EBF0FBEA8
:102330002DBFC70101966A2F70E00E940332282F3B
:10234000803178F400D000D000D0EDB7FEB73196E0
:10235000ADB7BEB71296DC93CE9311978CE791E0A0
:102360000EC000D000D000D0EDB7FEB73196ADB7AB
:10237000BEB71296DC93CE93119781E891E09383D8
:102380008283248315820E940F06EDB7FEB736962E
:102390000FB6F894FEBF0FBEEDBF802FDF91CF9137
:1023A0001F910F91FF90EF90DF90CF90BF90AF9073
:1023B0009F908F907F906F905F904F903F902F9065
:1023C00008952F923F924F925F926F927F928F92D9
:1023D0009F92AF92BF92CF92DF92EF92FF920F93B4
:1023E0001F93CF93DF935C01380149010E9476323D
:1023F0008C0188E1482E512C400E511EB9E22B2E43
:10240000312C200E311EC201B1010E94210984E647
:10241000D5011D928A95E9F7EDB7FEB7F4970FB68F
:10242000F894FEBF0FBEEDBF3196ADB7BEB71296A2
:10243000BC92AE92119786EB94E09383828384E6FC
:1024400092E0958384838AEF92E097838683005697
:102450001F4F1187008703501040138702870350D6
:10246000104015870487075F1F4F178706870D5F8A
:102470001F4F118B008B0D5F1F4F138B028B648AD4
:10248000758A868A978AC08ED18EE28EF38E80916D
:10249000E2029091E302A091E402B091E502848F00
:1024A000958FA68FB78F80916302992787FD9095AE
:1024B00091A380A353A242A20258104015A304A3E3
:1024C00037A226A20F5E1F4F11A700A7085D1F4F5E
:1024D00013A702A70A54104015A704A70E5B1F4FAD
:1024E00017A706A70D5F1F4F11AB00AB0754104095
:1024F00013AB02AB0E943306D5010D900020E9F723
:102500001197AA19BB091A2FE501CA0FD11D18820C
:10251000EDB7FEB7F4960FB6F894FEBF0FBEEDBF51
:10252000C50101966A2F70E00E940332282F803186
:1025300078F400D000D000D0EDB7FEB73196ADB73B
:10254000BEB71296DC93CE9311978CE791E00EC044
:1025500000D000D000D0EDB7FEB73196ADB7BEB712
:102560001296DC93CE93119781E891E09383828356
:10257000248315820E940F06EDB7FEB736960FB67C
:10258000F894FEBF0FBEEDBF812FDF91CF911F9159
:102590000F91FF90EF90DF90CF90BF90AF909F9002
:1025A0008F907F906F905F904F903F902F90089505
:1025B000AF92BF92CF92DF92EF92FF920F931F9351
:1025C0000E94700E0E946D3780910303882311F0E2
:1025D0000E944F3E0E947636892B09F4B1C10E94B9
:1025E000873B882309F4ACC18091FE029091FF02E1
:1025F000892B99F00E947632FC018689863579F420
:102600000E94CF3F20ED37E040E050E00E94B0480C
:10261000685E73408040904010F42C9A01C02C9862
:102620000E94EF310E94343585E093E00E9410361D
:10263000892B09F47AC10E94F931892B09F475C1FB
:1026400085E093E00E94FD355C01CC24DD2485E02B
:1026500093E00E9448366091DE027091DF02809123
:10266000E0029091E102FB01EE0FFF1FEE0FFF1F52
:10267000E255FD4FA082B182C282D3826F5F7F4F4D
:102680008F4F9F4F2CE030E040E050E00E94B04878
:102690006093DE027093DF028093E0029093E10288
:1026A000EEEAF2E0EE24FF24870181919191A1915D
:1026B000B191E80EF91E0A1F1B1F22E0EE3DF20742
:1026C000A1F78091E2029091E302A091E402B0911F
:1026D000E5028A0D9B1DAC1DBD1D8093E202909307
:1026E000E302A093E402B093E5022091E602309168
:1026F000E7022C30310554F486E5809363022F5FA6
:102700003F4F3093E7022093E6020AC0E114F10440
:102710000105110511F486E501C081E4809363028F
:102720008091FE029091FF02892B09F066C00E9401
:102730007632FC018689813469F00E9476328056B7
:102740009F4F65E871E042E050E00E946505009708
:1027500009F453C081E090E09093FF028093FE0261
:1027600088EE92E068E871E00E944E050E947632A1
:10277000BC0160567F4F88EE92E042E050E00E943C
:10278000550585E793E068EE72E00E94631888EED5
:1027900092E06BE871E00E942F0588EE92E06AEF0C
:1027A00072E043E050E00E94550588EE92E06DE84B
:1027B00071E00E942F050E947632BC0163567F4F64
:1027C00088EE92E042E050E00E9455050E94763289
:1027D000BC0166567F4F88EE92E042E050E00E94D6
:1027E000550588EE92E062E772E044E050E00E9416
:1027F000550588EE92E00E94C60DE091DE02F09150
:10280000DF02EE0FFF1FEE0FFF1FE255FD4F40816D
:1028100051816281738181E193E0980187017601A2
:1028200065010E94E1118091FE029091FF02892BC7
:1028300079F410927F0710927E0780910403882319
:1028400069F08FEC9AE06FE871E00E94DF4506C006
:1028500088EE92E061E173E00E943E3980910203CC
:10286000882399F080E00E949B2F6AE070E080E06E
:1028700090E00E94DD3F8FEF9FEF61E173E044E65F
:102880000E94872F81E00E949B2F0E947632FC01DC
:102890008689813479F480917E0790917F07019732
:1028A00019F481E090E002C082E090E064E670E01C
:1028B0000E94FB0880910403882331F08FEC9AE09A
:1028C00061E173E00E94E24581E193E00E94C01063
:1028D0008091FE029091FF02892B31F088EE92E008
:1028E00061E173E00E943E3980910203882399F0F0
:1028F00080E00E949B2F6AE070E080E090E00E9400
:10290000DD3F8FEF9FEF61E173E044E60E94872F88
:1029100081E00E949B2F80910403882331F08FEC8B
:102920009AE061E173E00E94E2450E94983B1F91AA
:102930000F91FF90EF90DF90CF90BF90AF900895F0
:1029400085E093E00E944836F0CFEF92FF920F931C
:102950001F93DF93CF93CDB7DEB76E970FB6F89482
:10296000DEBF0FBECDBF84E061E00E94AD402C9879
:102970008FEC9AE040E051EE60E070E00E94A542EA
:102980008E010F5F1F4FC80160E275E00E940805CD
:102990008FEC9AE0B8010E94E245C80167E175E05A
:1029A0000E9408058FEC9AE0B8010E94DF458FEC89
:1029B0009AE06EE772E00E94E2458EEE9AE040E80F
:1029C00055E260E070E00E94A5428EEE9AE061E17F
:1029D00073E00E94FD3383E061E00E94AD4083E03C
:1029E00060E00E94114100E010E08EEE9AE00E944B
:1029F0002243892B61F40436110549F06AE070E046
:102A000080E090E00E94DD3F0F5F1F4FEECF7E0120
:102A10000894E11CF11CC70167E075E00E940805FD
:102A20008FEC9AE0B7010E94DF4504361105A4F44B
:102A3000B80143E0660F771F4A95E1F7000F111FB9
:102A4000600F711F8FEC9AE04AE050E00E94CC4585
:102A5000C70164E075E003C0C7016CEF74E00E9439
:102A600008058FEC9AE0B7010E94E2458EEE9AE0ED
:102A700068E971E00E94E2458EEE9AE06AEC71E04E
:102A80000E94E2458EE061E00E94AD408EE060E091
:102A90000E94114164E170E080E090E00E94DD3F1F
:102AA0008EE090E064E170E04CE050E00E942F3B4B
:102AB00083E190E06FE170E04EE150E02DE130E025
:102AC0000CE110E00E94F5380E94803E80930303E1
:102AD0000E94C30F0E94B6308093020384E10E94DB
:102AE000C12F0E94C90890937802809377020E94B8
:102AF000A33081E00E949B2F8BE161E00E94AD40FA
:102B00008BE160E00E94114185E093E00E9448362D
:102B10008BED91E06AEC7BE00E94B93080EE91E0B1
:102B200062E270E10E94B93086EE91E06FE070E100
:102B30000E94B9308CEE91E06DEC7BE00E94B930E0
:102B400080E090E064EF7EE046E85EE00E940C38B2
:102B50001092FF021092FE021092010310920003E5
:102B6000EEEAF2E0119211921192119282E0EE3DA2
:102B7000F807C1F71092DE021092DF021092E00215
:102B80001092E1021092E2021092E3021092E4022B
:102B90001092E5021092E7021092E60286E5809319
:102BA0006302109204030E940F0C8FEC9AE064EF12
:102BB00071E00E94E2456AE070E080E090E00E94EF
:102BC000DD3F6E960FB6F894DEBF0FBECDBFCF913E
:102BD000DF911F910F91FF90EF900895FC011382F8
:102BE000128288EE93E0A0E0B0E084839583A68310
:102BF000B78388E892E091838083128E118E1486C9
:102C00000895FC0188E892E0918380830895DF9322
:102C1000CF930F92CDB7DEB7FC016983A081B1815C
:102C200012962D913C911397BE016F5F7F4F41E04B
:102C300050E0F90109950F90CF91DF910895DC01E3
:102C40005996ED91FC915A97309719F420E030E0B5
:102C500018C0238934894589568982859385A4853E
:102C6000B585281B390B4A0B5B0B2030B0E83B07BE
:102C7000B0E04B07B0E05B0720F02FEF3FE740E00C
:102C800050E0C9010895DC015996ED91FC915A97E5
:102C9000309729F420E030E040E050E004C0238980
:102CA000348945895689B901CA010895DC015996CC
:102CB000ED91FC915A97309711F480E00895858149
:102CC000811181E00895CF93DF93EC01898D9A8D76
:102CD000009741F00E94D11F898D9A8D0E94B00407
:102CE0001A8E198EDF91CF910895FC01818D928DFE
:102CF000009711F480E008950E94C11E0895FC0120
:102D0000818D928D009711F00E94871F0895DF93A7
:102D1000CF930F92CDB7DEB7FC01818D928D0097D6
:102D200049F0BE016F5F7F4F41E050E00E94C42038
:102D3000019719F02FEF3FEF03C08981282F30E072
:102D4000C9010F90CF91DF910895EF92FF920F93F9
:102D50001F93DF93CF930F92CDB7DEB77C01DC01D9
:102D600059968D919C915A97009719F400E010E0C4
:102D70001FC0BE016F5F7F4F41E050E00E94C42042
:102D8000019719F00FEF1FEF13C08981082F10E092
:102D9000D7015996ED91FC915A97428553856485E8
:102DA00075854150504060407040CF010E94C11E67
:102DB000C8010F90CF91DF911F910F91FF90EF907D
:102DC0000895CF93DF93EC01E98DFA8D309761F090
:102DD00013821282CF010E9409239C01E98DFA8D92
:102DE00082819381892B31F081E090E09B838A83FB
:102DF00020E030E0C901DF91CF910895EF92FF927A
:102E00000F931F93CF93DF93EC01F62EE72E8A01E9
:102E10001B821A8288EE93E0A0E0B0E08C839D8351
:102E2000AE83BF8388E892E0998388838DE190E048
:102E30000E9406049A8F898F009791F0DC018F2DF4
:102E40009E2D9C01F9018DE101900D928150E1F7D9
:102E5000CE010C96B8014CE050E00E947305188E2C
:102E6000DF91CF911F910F91FF90EF9008950F93F5
:102E70001F93CF93DF938C01FB01C081D181FC01B3
:102E8000EC0FFD1F80818F3209F4219698012C0FE1
:102E90003D1FA0E0B0E00BC0FA01EA0FFB1F8083EA
:102EA000119621962F5F3F4FAC30B10531F0F901FB
:102EB00080818F3211F0882379F7A40FB51F1C92FF
:102EC000F801EC0FFD1F80818F3209F42196FB0180
:102ED000D183C083C00FD11F8881811181E0DF9130
:102EE000CF911F910F91089510927A0310927B0356
:102EF00010927E031092800382E090E0A0E0B0E0A8
:102F00008093810390938203A0938303B0938403FF
:102F1000109298031092A2031092A10388E992E004
:102F20009093A00380939F031092A4030895EF92BF
:102F3000FF921F93DF93CF93CDB7DEB76D970FB698
:102F4000F894DEBF0FBECDBF9C01AB011C821B827B
:102F500088E992E09A8389831E827E010894E11CAD
:102F6000F11CC701B90121E00E943625182F8823E2
:102F700019F0C7010E94D11F812F6D960FB6F894EA
:102F8000DEBF0FBECDBFCF91DF911F91FF90EF90BD
:102F900008952F923F924F925F926F927F928F92FD
:102FA0009F92BF92CF92DF92EF92FF920F931F9367
:102FB000DF93CF93CDB7DEB7C954D0400FB6F894A6
:102FC000DEBF0FBECDBF1C017B012A0139011B8A68
:102FD0001A8A88E992E0998B888B1D8A18AA1FA605
:102FE0009EA78DA71AAA1A8219828B0120E1C22EF0
:102FF000D12CCC0EDD1E93E0892E912C8C0E9D1EC3
:1030000003C0C80186016C01C101BE016F5F7F4F23
:10301000A4010E943717B82E40E0882309F441E04C
:10302000C801B4019301F2010995882339F40E1502
:103030001F0519F1C8010E94D11F1FC0BB20A9F0B4
:10304000C601B801A40121E00E943625B82E0E1554
:103050001F0519F0C8010E94D11FBB2071F00E1589
:103060001F0579F6CE018D96CDCF0E151F0519F0EF
:10307000C8010E94D11F81E001C080E0C75BDF4F23
:103080000FB6F894DEBF0FBECDBFCF91DF911F9179
:103090000F91FF90EF90DF90CF90BF909F908F9017
:1030A0007F906F905F904F903F902F9008959B017D
:1030B000BC01665D7F4FC90147EE5AE120E030E078
:1030C0000E94C91708959B01BC01665D7F4FC9012D
:1030D0004EEE5AE120E030E00E94C91708952F9289
:1030E0003F924F925F926F927F928F929F92AF9298
:1030F000BF92CF92DF92EF92FF920F931F93DF93D5
:10310000CF93CDB7DEB7C754D0400FB6F894DEBF2B
:103110000FBECDBF582E492EFB013A01190184A5DF
:1031200095A5998B888B28E932E03F872E8786A565
:103130008A8B87A58B8B80A991A9A2A9B3A98C8B17
:103140009D8BAE8BBF8B84A995A9A6A9B7A9888FA3
:10315000998FAA8FBB8F80AD91ADA2ADB3AD8C8F8F
:103160009D8FAE8FBF8F84AD88A3FD968191919185
:10317000A191B19189A39AA3ABA3BCA38191919191
:10318000A191B1918DA39EA3AFA3B8A78081918196
:103190009AA789A71EA61DA63CA72BA718AA7A0145
:1031A0008E01025F1F4F3BE2A32EB12CAC0EBD1E61
:1031B0004E010894811C911C35C0D7018C918F322F
:1031C00021F40894E11CF11C2DC0422F4E194D3002
:1031D00008F04CE0C42EDD24C401B701A6010E9412
:1031E0007305F401EC0DFD1D1082C5010E94D11F75
:1031F000C501B801A40121E00E943625882351F4BD
:10320000E52DF42D1382128288E992E09183808368
:10321000158266C0EC0CFD1CC8010E94D11FC501BF
:1032200058018C01C7016FE270E00E943A059C01D1
:10323000009719F6E618F708F101F182E082E52D12
:10324000F42DD80112968D919C91139793838283CC
:1032500088E992E09183808314968C9114978483FB
:1032600015968C911597858316962D913D914D91CC
:103270005C91199726833783408751871A962D9141
:103280003D914D915C911D972287338744875587E7
:103290001E962D913D914D915C91519726873787D0
:1032A000408B518B52968C915297828B53962D91D5
:1032B0003D914D915C915697238B348B458B568B6A
:1032C00057962D913D914D915C915A97278B308F58
:1032D000418F528F5B968D919C915C97948F838FD9
:1032E000852D942DC95BDF4F0FB6F894DEBF0FBE5E
:1032F000CDBFCF91DF911F910F91FF90EF90DF90A5
:10330000CF90BF90AF909F908F907F906F905F9085
:103310004F903F902F9008959F92AF92BF92CF927F
:10332000DF92EF92FF920F931F93DF93CF93CDB76E
:10333000DEB7C657D0400FB6F894DEBF0FBECDBF84
:10334000C82E992E8A01D22E43E0A42EB12CAC0EA9
:10335000BD1EC501A8019E012F5F3F4F0E946F183F
:10336000E980FA80E00EF11EF701808148E952E021
:103370002885882309F03FC08D819E819BA38AA365
:1033800059A348A38F818CA32DA389859A85AB85EA
:10339000BC858EA39FA3A8A7B9A78D859E85AF8561
:1033A000B8898AA79BA7ACA7BDA789899A89AB8949
:1033B000BC898EA79FA7A8ABB9AB8D898AAB8E8934
:1033C0009F89A88DB98D8BAB9CABADABBEAB8A8D05
:1033D0009B8DAC8DBD8D8FAB98AFA9AFBAAF8E8DE5
:1033E0009F8D9CAF8BAF8C2D992DBE01605E7F4F62
:1033F00042E052E09FC0FE01FF96118210825EAF54
:103400004DAFFE01EE5BFF4F10822223A9F0225048
:10341000CE01CD96223048F46FE973E0A7012D2D3F
:103420000E943625882381F407C0B501A7012D2D00
:103430000E943625882329F48C2D992D0E94EE15A3
:103440007BC0C5010E94D11FF6E0DF2259F0FE01CA
:10345000E05BFF4F4081518162817381CE01CD9647
:103460000E94C11E9E01265A3F4FFE01FF96808199
:103470009181F9019383828388E992E0918380832B
:10348000FE01EF5BFF4F8081F9018483FE01EE5B5B
:10349000FF4F8081F9018583FE01ED5BFF4F808145
:1034A0009181A281B381F90186839783A087B18737
:1034B000FE01E95BFF4F80819181A281B381F90117
:1034C00082879387A487B587FE01E55BFF4F8081E4
:1034D0009181A281B381F90186879787A08BB18BF7
:1034E000FE01E15BFF4F8081F901828BFE01E05B11
:1034F000FF4F80819181A281B381F901838B948BED
:10350000A58BB68BFE01EC5AFF4F80819181A28181
:10351000B381F901878B908FA18FB28FFE01E85A9A
:10352000FF4F80819181F901948F838F8C2D992D8C
:10353000B901A7010E94FE168C2D992DCA58DF4FA4
:103540000FB6F894DEBF0FBECDBFCF91DF911F91B4
:103550000F91FF90EF90DF90CF90BF90AF909F9032
:1035600008950F931F93CF93DF93EC01162F8FA530
:10357000882331F0CE018A960E94D11F882311F151
:10358000CE0161E0412F0E94981D8823D1F08E0169
:10359000045F1F4FC801BE0141E00E94B827882385
:1035A00039F4C801BE0140E00E94B827882349F0E1
:1035B000CE018A96B8010E942322882319F081E067
:1035C00001C080E0DF91CF911F910F9108954423B6
:1035D00011F481E008950E943D260895EF92FF9234
:1035E0000F931F93DF93CF93CDB7DEB76D970FB6D1
:1035F000F894DEBF0FBECDBF8C017B011C821B8205
:1036000088E992E09A8389831E82C8010E949717F5
:10361000882331F4CE010196B801A7010E946A26E1
:103620006D960FB6F894DEBF0FBECDBFCF91DF9180
:103630001F910F91FF90EF900895FC01673020F0EB
:1036400086E1858380E00895262F30E060FD02C08A
:10365000663019F48DB58E7F02C08DB581608DBD49
:103660008CB58C7F8CBD4CB522FD02C090E001C0B2
:1036700092E036952795822F8170842B892B8CBD03
:1036800081E00895FF920F931F93CF93DF938B01F7
:103690000E94CF3FEB01FF24FA94FEBC0DB407FE5D
:1036A000FDCF8EB58F3F11F481E008C00E94CF3F5F
:1036B0006C1B7D0B6017710780F380E0DF91CF9169
:1036C0001F910F91FF900895FC01848160E00E949A
:1036D00011410895FC01848161E00E941141089527
:1036E000DC016EBDFA0120E030E00DB407FEFDCF35
:1036F00080818EBD0DB407FEFDCF81818EBD2E5F12
:103700003F4F329682E02030380779F70DB407FE3C
:10371000FDCF8FEF8EBD0DB407FEFDCF8FEF8EBDB9
:103720000DB407FEFDCF8FEF8EBD0DB407FEFDCFAC
:103730008EB51A968C931A978F71853011F481E0AB
:10374000089581E115968C931597CD010E946A1B0F
:1037500080E00895FF920F931F93CF93DF93EC01C6
:103760000E94CF3F8B01FF24FA9409C00E94CF3FF3
:10377000601B710B6D52714010F08FE00DC0FEBCEC
:103780000DB407FEFDCF8EB58A878F3F79F38E3F4C
:1037900011F481E006C08DE08D83CE010E946A1B8A
:1037A00080E0DF91CF911F910F91FF900895CF930B
:1037B000DF93EC018E818823D1F08FEF8EBD2F81B6
:1037C00038854FEF04C00DB407FEFDCF4EBD2F5F0F
:1037D0003F4FC901019781509240A8F338872F834A
:1037E0000DB407FEFDCFCE010E946A1B1E82DF9141
:1037F000CF910895DF92EF92FF920F931F93CF9393
:10380000DF93EC01D62E79018A010E94D71BCE01ED
:103810000E94641BCE016CE271E00E94421B8D2D60
:1038200080648EBD0DB407FEFDCF28E130E0D801E5
:10383000C701022E04C0B695A795979587950A945F
:10384000D2F78EBD0DB407FEFDCF285030408FEF6C
:10385000283F380761F7DD2011F485E906C088E0CC
:10386000D81611F487E801C08FEF8EBD0DB407FEA6
:10387000FDCF90E02FEF2EBD0DB407FEFDCF8EB52E
:1038800087FF02C09150B9F78A87DF91CF911F91CE
:103890000F91FF90EF90DF900895CF92DF92EF921B
:1038A000FF920F931F93CF93DF93EC017A018B016B
:1038B0006901411551056105710511F482E137C0B7
:1038C0008B85833039F029E0EE0CFF1C001F111F9F
:1038D0002A95D1F7CE0168E1A80197010E94FA1B51
:1038E000882311F084E023C0CE016EEFA6010E9470
:1038F000701B8823E9F0CE0168E572E00E94421B4C
:10390000882311F485E113C0CE016DE020E030E0A2
:1039100040E050E00E94FA1B882341F48FEF8EBDF7
:103920000DB407FEFDCF8EB5882379F084E18D8339
:10393000CE010E946A1B80E0DF91CF911F910F9111
:10394000FF90EF90DF90CF900895CE010E946A1B08
:1039500081E0F2CF0F931F93CF93DF93EC01142FED
:10396000052F20E030E040E050E00E94FA1B882361
:1039700019F08EE08D8326C0CE010E94AA1B8823F9
:1039800009F1812F902FFC019FEF9F01205F3F4F96
:103990009EBD0DB407FEFDCF8EB58193E217F307F0
:1039A000B9F78FEF8EBD0DB407FEFDCF8EB58FEF4B
:1039B0008EBD0DB407FEFDCF8EB5CE010E946A1BF1
:1039C00081E004C0CE010E946A1B80E0DF91CF91AC
:1039D0001F910F9108958F929F92AF92BF92CF92B5
:1039E000DF92EF92FF920F931F93CF93DF93EC013F
:1039F0005A016B0149010115110509F47BC0C80189
:103A0000820F931F8150924008F06FC08E818823EF
:103A100071F088819981AA81BB81481759076A078B
:103A20007B0729F48F8198858816990618F5A88256
:103A3000B982CA82DB828B85833039F069E0AA0CB7
:103A4000BB1CCC1CDD1C6A95D1F7CE0161E1A6013F
:103A500095010E94FA1B882319F083E08D8345C0ED
:103A6000CE010E94AA1B882309F43FC018861F823A
:103A700081E08E838FEF8EBD8F8198852FEF05C0FB
:103A80000DB407FEFDCF2EBD019688159905C0F334
:103A900098878F83D801119720E030E09FEF0BC00B
:103AA0000DB407FEFDCF8EB5F701E20FF31F808343
:103AB0009EBD2F5F3F4F2A173B0790F30DB407FEC3
:103AC000FDCF8EB5AE0DBF1D8C932F813885200F95
:103AD000311F38872F838985882319F02050324081
:103AE00048F0CE010E94D71B05C0CE010E946A1B80
:103AF00080E001C081E0DF91CF911F910F91FF9095
:103B0000EF90DF90CF90BF90AF909F908F900895EF
:103B1000EF92FF920F931F93790120E030E000E0D5
:103B200012E00E94EB1C1F910F91FF90EF900895FF
:103B3000BF92CF92DF92EF92FF920F931F93CF939A
:103B4000DF93EC01B62E1B8619861E821D824C83E4
:103B50000E94CF3F6B018C8161E00E94AD40CE019D
:103B60000E946A1B86E060E00E94AD4085E061E053
:103B70000E94AD4087E061E00E94AD4084E061E0DA
:103B80000E94AD4084E061E00E94114183E58CBD5C
:103B90008DB58E7F8DBD80E09FEF9EBD0DB407FE7D
:103BA000FDCF8F5F8A30C9F7CE010E94641B0EC023
:103BB0000E94CF3F6C197D09615D774038F081E04C
:103BC0008D838FEC9AE064E072E06DC0CE0160E01E
:103BD00020E030E040E050E00E94FA1B182F8A8776
:103BE000813031F7CE0168E02AEA31E040E050E070
:103BF0000E94FA1B82FF02C01B8716C080E02FEFD5
:103C00002EBD0DB407FEFDCF9EB58F5F8430C1F78A
:103C10009A879A3A39F082E08D838FEC9AE06FE0D0
:103C200072E041C082E08B878B85823021F0EE24E8
:103C3000FF24870114C0E12CF12C012DF0E41F2F8B
:103C40000EC00E94CF3F6C197D09615D774038F04E
:103C500088E08D838FEC9AE06AE172E024C0CE01A7
:103C600067E320E030E040E050E00E94FA1BCE0124
:103C700069E2A80197010E94FA1B8A87882309F745
:103C80008B85823061F5CE016AE320E030E040E0D0
:103C900050E00E94FA1B882369F086E08D838FEC48
:103CA0009AE066E272E00E94E245CE010E946A1B41
:103CB00080E01CC08FEF8EBD0DB407FEFDCF8EB52A
:103CC000807C803C11F483E08B8780E09FEF9EBD79
:103CD0000DB407FEFDCF2EB58F5F8330C1F7CE0147
:103CE0000E946A1BCE016B2D0E941D1BDF91CF919C
:103CF0001F910F91FF90EF90DF90CF90BF900895AC
:103D0000CF93DF93EC01DB0180E090E020E2FD0146
:103D1000E80FF91F208301968B309105C1F757E01A
:103D200040E021C02E3219F08BE395E007C05A30F5
:103D300019F15AE048E017C03217F1F0FC01019682
:103D400034913323C9F75417B8F02132A8F02F3734
:103D500098F4822F81568A3108F42052FD01E40F35
:103D6000F11D20834F5F29912223E1F690E08C9191
:103D7000803219F091E001C090E0892FDF91CF915E
:103D800008956F927F928F929F92AF92BF92CF923F
:103D9000DF92EF92FF920F931F93CF93DF93EC018B
:103DA0007A018B012D81222309F480C08B899C89A3
:103DB000AD89BE8984179507A607B70708F476C0B2
:103DC00085C0E114F1040105110549F41E821F822A
:103DD000188619861A861B861C861D8665C02A854C
:103DE0003B854C855D85EB8DFC8D858590E0099646
:103DF000215030404040504039014A01082E04C053
:103E000096948794779467940A94D2F72F5F3F4FE4
:103E10004F4F5F4F0894E108F1080109110957015C
:103E2000680104C0D694C794B794A7948A95D2F732
:103E30000894E11CF11C011D111DA614B704C8044F
:103E4000D90428F0211531054105510549F48F8920
:103E5000988DA98DBA8D8E839F83A887B98716C048
:103E6000A618B708C808D90811C04E815F816885B7
:103E700079858B8D9C8D94010E9499290894A108C5
:103E8000B108C108D108882331F410C086E0882E1B
:103E9000912C8C0E9D1EA114B104C104D10429F7EC
:103EA000EA86FB860C871D8781E001C080E0DF91F8
:103EB000CF911F910F91FF90EF90DF90CF90BF9027
:103EC000AF909F908F907F906F900895223009F06F
:103ED00078CFE6CFCF93DF93EC01462F6E857F85B9
:103EE000888999890E947D27882319F420E030E091
:103EF0000AC08A89282F30E095E0220F331F9A9557
:103F0000E1F720543C4FC901DF91CF9108950F9301
:103F10001F93CF93DF938C01FC0185818823D9F116
:103F2000848187FF35C0C80161E00E946A1FEC01EF
:103F3000009789F1F8018581823040F48389948962
:103F4000A589B6898C8F9D8FAE8FBF8FF801878929
:103F5000908D9B8F8A8F8789908DA18DB28DCD0199
:103F6000AA27BB279D8B8C8BE091BE03F091BF03EA
:103F7000309751F0BE016A5E7F4FCE014896099599
:103F8000888D998D9B8B8A8BF80184818F778483B0
:103F90000E941E2701C080E0DF91CF911F910F91F9
:103FA0000895CF93DF93EC010E94871F882311F0BF
:103FB0001D8281E0DF91CF9108956F927F928F9261
:103FC0009F92AF92BF92CF92DF92EF92FF920F93A8
:103FD0001F93DF93CF9300D000D0CDB7DEB77C0125
:103FE0005A016B01DC0115968C911597813009F00F
:103FF0008FC014968C9181FF8BC09EC00097A10545
:10400000B10511F481E085C0F70162847384848472
:104010009584C701B601A5010E94C11E882309F439
:1040200077C0D7015B968D919C915C97A114B104E8
:10403000C104D10489F457964D915D916D917C91A5
:104040005A970E940C2A882309F462C0F701178A44
:10405000108E118E128E3DC0D70116964D915D9136
:104060006D917C9119979E012F5F3F4F0E94992976
:10407000882309F44DC0D7015B96ED91FC915C97C4
:1040800049815A816B817C818789803129F088EF51
:104090009FEFAFEFBFE004C088EF9FEFA0E0B0E07C
:1040A000481759076A077B07A0F4CF010E940C2A22
:1040B000882371F1F7014681578160857185838D71
:1040C000948D0FEF1FEF2FEF3FE00E94FD28882314
:1040D000F9F0D7015396AD92BD92CD92DC925697EE
:1040E00014968C911497806814968C93C7010E9443
:1040F000871F882369F0B601A5016A147B048C042C
:104100009D0410F4B401A301C7010E94C11E01C0A7
:1041100080E00F900F900F900F90CF91DF911F9143
:104120000F91FF90EF90DF90CF90BF90AF909F9056
:104130008F907F906F900895F70183899489A58966
:10414000B68984179507A607B70708F057CFE0CFC1
:10415000CF93DF93EC0140E050E060E070E00E941C
:10416000DD1F882369F0CE0161E00E946A1FFC0117
:10417000009731F085EE80831D820E941E2701C0CA
:1041800080E0DF91CF9108952F923F924F925F92FE
:104190006F927F928F929F92AF92BF92CF92DF9257
:1041A000EF92FF920F931F93CF93DF93EC012A01BD
:1041B0008D81882309F4C6C08C8180FFC3C0D8C01C
:1041C00025014E185F084B0176E0272E312C2C0E6E
:1041D0003D1E3201B1C02A853B854C855D856FEF60
:1041E000A62E61E0B62EA222B3228D8179018A012A
:1041F00099E016950795F794E7949A95D1F7EB8D8A
:10420000FC8D823049F4428D538D648D758D4E0D39
:104210005F1D601F711F3FC0D480DA94DE20A1149F
:10422000B104D9F4DD20C9F421153105410551054A
:1042300049F48F89988DA98DBA8D8E839F83A88725
:10424000B9870BC04E815F8168857985CF01910167
:104250000E949929882309F475C0EB8DFC8D4E814D
:104260005F81688579854250504060407040058488
:1042700004C0440F551F661F771F0A94D2F7868526
:104280009785A089B189480F591F6A1F7B1F4D0D63
:10429000511D611D711D80E092E08A199B09630127
:1042A0008615970508F46C018C8186FD06C080E0B8
:1042B000C81682E0D80609F073C080917902909107
:1042C0007A02A0917B02B0917C02481759076A07D5
:1042D0007B0709F465C08091C0059091C1059501E7
:1042E000860174010E94EB1C882361F18C0C9D1CDB
:1042F00012C0950120543C4FA9014C0D5D1DD40105
:10430000F90102C081918D93E417F507D9F7E21BFB
:10431000F30B8E0E9F1E960140E050E08A859B8530
:10432000AC85BD85820F931FA41FB51F8A879B870D
:10433000AC87BD876C187D086114710409F04BCF00
:10434000A20102C04FEF5FEFCA01DF91CF911F9131
:104350000F91FF90EF90DF90CF90BF90AF909F9024
:104360008F907F906F905F904F903F902F90089527
:10437000AB88BC88CD88DE88EA84FB840C851D85EB
:104380009A0140E050E0D601C5018E199F09A00BAB
:10439000B10B82179307A407B50708F411CF13CF09
:1043A000CB01BA0140E00E947D27882309F0A1CF0C
:1043B000C9CFCF92DF92EF92FF920F931F93DF93BB
:1043C000CF930F92CDB7DEB76C01FC0185818230AF
:1043D00070F0E284F38404851585C601BE016F5F29
:1043E0007F4F41E050E00E94C420019769F020E037
:1043F00030E0C9010F90CF91DF911F910F91FF9095
:10440000EF90DF90CF900895F60182859385A48583
:10441000B5854F96A11DB11D82879387A487B58767
:10442000F5E016950795F794E794FA95D1F78E2D58
:104430008F70282F30E0E5E0220F331FEA95E1F777
:1044400020543C4FD6CF0F931F93CF93DF93EC01B3
:104450008B018D81882309F041C0FB018789803160
:10446000B1F482E08D831F8A188E198E1A8E808D8A
:10447000918DA0E0B0E045E0880F991FAA1FBB1FF7
:104480004A95D1F78B8B9C8BAD8BBE8B15C0803240
:1044900029F583E08D83FB01428D538D648D758DED
:1044A0004F8B588F698F7A8F9E012D5E3F4FC801C9
:1044B0000E94652A882391F01C8F0B8F81E08C83EA
:1044C0001E821F82188619861A861B861C861D86E8
:1044D0001E861F86188A198A1A8A01C080E0DF9119
:1044E000CF911F910F9108951F93CF93DF93EC010C
:1044F000142FE62FF0E075E0EE0FFF1F7A95E1F73D
:10450000E054FC4F8385817121F0842F827409F07F
:1045100054C06A8B8091790290917A02A0917B02BB
:10452000B0917C028E879F87A88BB98B84899589EF
:10453000A0E0B0E0BC0155274427828D938DA0E018
:10454000B0E0482B592B6A2B7B2B4F8B588F698FF0
:104550007A8F838590E088719070009751F4848DF4
:10456000958DA68DB78D8B8B9C8BAD8BBE8B81E093
:104570000CC0409711F59E012D5E3F4F8B8D9C8D99
:104580000E94652A8823C9F084E08D83812F8F7073
:104590008C831E821F82188619861A861B861C86AB
:1045A0001D8616FD02C081E009C0CE0140E050E04A
:1045B00060E070E00E94DD1F01C080E0DF91CF91DC
:1045C0001F910895CF93DF93EC019C012A5F3F4F29
:1045D0008B8D9C8D41E050E060E070E00E94D42A19
:1045E0008823A1F08F89988DA98DBA8D0097A10598
:1045F000B10559F48E819F81A885B9858F8B988FDD
:10460000A98FBA8F8C8180688C8381E0DF91CF91F4
:1046100008952F923F924F925F927F928F929F9236
:10462000AF92BF92CF92DF92EF92FF920F931F93C0
:10463000DF93CF9300D000D000D0CDB7DEB76C01B0
:10464000162F072F5E834D83DC0115968C911597ED
:10465000813009F070C114968C9181FF6CC18EC1BC
:10466000F601438954896589768982859385A48575
:10467000B58584179507A607B70731F0C6010E94D4
:10468000C11E882309F457C1812F902F9C01290155
:104690002D803E8017C1D6015B96ED91FC915C9711
:1046A000DA01C90119E0B695A795979587951A95EE
:1046B000D1F774807A9478227FEF872E71E0972E5D
:1046C00082229322772009F04EC08114910409F0D0
:1046D0004AC0D60116964D915D916D917C911997C6
:1046E000411551056105710581F457968D919D9194
:1046F0000D90BC91A02D0097A105B10549F1F601DF
:1047000086839783A087B1872EC0CF019E012F5F3C
:104710003F4F0E949929882309F414C129813A81C5
:104720004B815C81D6015B96ED91FC915C9787890A
:10473000803129F088EF9FEFAFEFBFE004C088EF32
:104740009FEFA0E0B0E0281739074A075B0730F079
:10475000C6010E94E222882331F4EDC0F6012683CF
:1047600037834087518780E092E088199909510189
:104770008215930508F45C01D6015B96ED91FC91DE
:104780005C971696ED90FD900D911C9119978EEF08
:104790009FEFAFEFBFEFE80EF91E0A1F1B1F058446
:1047A00004C0EE0CFF1C001F111F0A94D2F786856F
:1047B0009785A089B189E80EF91E0A1F1B1FE70C17
:1047C000F11C011D111D90E0A91692E0B90651F5EA
:1047D0008091790290917A02A0917B02B0917C0243
:1047E0008E159F05A007B10761F48FEF9FEFAFEF24
:1047F000BFEF8093790290937A02A0937B02B093EB
:104800007C028091C0059091C105B801A701920179
:104810000E944D1C882309F48EC0A0E0B2E04A0E2D
:104820005B1E3EC08114910409F5F6012285338593
:104830004485558583899489A589B68928173907C0
:104840004A075B0798F00E941E27882309F473C06B
:10485000E0927902F0927A0200937B0210937C023C
:104860008091C20581608093C20508C0C801B7016C
:1048700041E00E947D27882309F45DC09401205403
:104880003C4FA9014A0D5B1DD201F90102C08D9177
:104890008193E417F507D9F7E21BF30B4E0E5F1E69
:1048A0002A183B08950140E050E0F6018285938587
:1048B000A485B585820F931FA41FB51F8287938798
:1048C000A487B587D6011A962D913D914D915C91A3
:1048D0001D972114310409F0DECE53968D919D91E0
:1048E0000D90BC91A02D82179307A407B50748F43B
:1048F000F601238B348B458B568B848180688483AF
:1049000011C08091BE039091BF03892B59F08D8116
:104910009E81892B39F0D60114968C91149780686A
:1049200014968C93F601848183FF0EC0C6010E9409
:10493000871F882349F481E090E0D60113969C9369
:104940008E9312971E821D828D819E8126960FB6B0
:10495000F894DEBF0FBECDBFCF91DF911F910F91B5
:10496000FF90EF90DF90CF90BF90AF909F908F908F
:104970007F905F904F903F902F90089582FD70CE72
:1049800083CEDF93CF930F92CDB7DEB76983BE019D
:104990006F5F7F4F41E050E00E9409230F90CF915D
:1049A000DF910895DF92EF92FF920F931F93CF93C1
:1049B000DF93EC010E94E222882309F44EC0EB8DC4
:1049C000FC8DEE80FF80088519858EEF9FEFAFEF9D
:1049D000BFEFE80EF91E0A1F1B1F058404C0EE0C72
:1049E000FF1C001F111F0A94D2F786859785A089A6
:1049F000B189E80EF91E0A1F1B1FD4800894E10834
:104A0000F108010911090BC0C801B7016D0D711D35
:104A1000811D911D0E9459278823F9F0DA94DD2029
:104A200099F7EB8DFC8D20E032E040E050E005840A
:104A300004C0220F331F441F551F0A94D2F78B89DD
:104A40009C89AD89BE89820F931FA41FB51F8B8BD4
:104A50009C8BAD8BBE8B81E001C080E0DF91CF915C
:104A60001F910F91FF90EF90DF9008956F927F92CA
:104A70008F929F92AF92BF92CF92DF92EF92FF926E
:104A80000F931F93DF93CF93CDB7DEB72B970FB65E
:104A9000F894DEBF0FBECDBF5C016B01822EDC013E
:104AA00015968C91882309F0D2C0CA018E010F5F40
:104AB0001F4FB8010E94801E882309F4C8C0F60168
:104AC000838D948DD5015C969C938E935B97168213
:104AD000178210861186D6011A961D921D921D927C
:104AE0001C921D979924380141C0C6010E94D9210A
:104AF000FC01009709F4ABC085E016950795F79483
:104B0000E7948A95D1F71E2D1F708081882311F0BC
:104B1000853ED1F4992091F4D50152961C93529779
:104B20002091790230917A0240917B0250917C026F
:104B30001E962D933D934D935C93519780818823CE
:104B400099F49924939421C0C301BF014BE050E034
:104B50000E942205009751F4882D8073803309F458
:104B600076C0C501612F6FC099249394F601E28449
:104B7000F3840485158583899489A589B689E81607
:104B8000F9060A071B0708F4B0CF882D827182311D
:104B900009F05DC0992041F0C50161E00E946A1FE3
:104BA0008C01009789F453C0D60115968C91823000
:104BB00009F44DC0C6010E94D224882309F447C0DD
:104BC000F501128A00EC13E080E2D8011D928A956B
:104BD000E9F7D801FE0131968BE001900D928150EA
:104BE000E1F7E091BE03F091BF03309739F0B801CF
:104BF000625F7F4FC8014096099509C081E298E243
:104C0000F801918B808B80E098E097878687D801A8
:104C100050968D919C91519753969C938E93529759
:104C200059969C938E9358971E968D919C911F97A1
:104C300057969C938E9356970E941E27882339F08F
:104C4000C501F5016289482D0E94742201C080E0EF
:104C50002B960FB6F894DEBF0FBECDBFCF91DF917C
:104C60001F910F91FF90EF90DF90CF90BF90AF908A
:104C70009F908F907F906F9008950F931F93DF9375
:104C8000CF93CDB7DEB76D970FB6F894DEBF0FBEEA
:104C9000CDBF9C01AB011C821B8288E992E09A8304
:104CA00089831E828E010F5F1F4FC801B90122E068
:104CB0000E943625882319F0C8010E94A8206D960D
:104CC0000FB6F894DEBF0FBECDBFCF91DF911F911D
:104CD0000F910895EF92FF920F931F93DF93CF935D
:104CE000CDB7DEB7A0970FB6F894DEBF0FBECDBF2D
:104CF0008C017B0123E30E943625882309F490C0B0
:104D000081E0D80114968C93149784E015968C93C7
:104D1000C8010E94D224882309F482C0C8010E94DD
:104D2000871F882309F47CC0C80161E00E946A1FC4
:104D3000FC01009709F474C080E18387DE011196BD
:104D400080E201900D928150E1F7FE01329620E25F
:104D5000CE010C962193E817F907E1F78EE28983DB
:104D6000D8015B96ED91FC915C9757966D917D9182
:104D70008D919C915A97625070408040904005847C
:104D800004C0660F771F881F991F0A94D2F72685E3
:104D9000378540895189620F731F841F951F41E039
:104DA0000E947D278823E1F1A0ECB3E0FE0131965B
:104DB00080E201900D928150E1F78EE28A83F70143
:104DC00085818250823028F41C8E1B8E1E8A1D8A9B
:104DD00012C0D70157968D919C9158979C8F8B8FBD
:104DE00057968D919D910D90BC91A02DCD01AA2734
:104DF000BB279E8B8D8BA0EEB3E0FE01319680E247
:104E000001900D928150E1F780E490E0A0E0B0E0E5
:104E1000F80182879387A487B5870E941E2701C067
:104E200080E0A0960FB6F894DEBF0FBECDBFCF9145
:104E3000DF911F910F91FF90EF9008958091C2052F
:104E4000882399F14091790250917A0260917B0216
:104E500070917C028091C0059091C10520EC33E0F7
:104E60000E944D1C882319F14091C3055091C4053F
:104E70006091C5057091C605411551056105710523
:104E800091F08091C0059091C10520EC33E00E9423
:104E90004D1C882361F01092C3051092C405109236
:104EA000C5051092C6051092C20581E0089580E004
:104EB0000895EF92FF920F931F937B018C010E9444
:104EC0001E278823A9F0E0ECF3E0119285E0E03C96
:104ED000F807D9F7E0927902F0927A0200937B0208
:104EE00010937C028091C20581608093C20581E0AD
:104EF0001F910F91FF90EF900895DF92EF92FF9234
:104F00000F931F937B018C01D42E80917902909195
:104F10007A02A0917B02B0917C028E159F05A007BA
:104F2000B107C1F00E941E278823D9F08091C005E7
:104F30009091C105B801A70120EC33E00E94881DC3
:104F4000882379F0E0927902F0927A0200937B0252
:104F500010937C028091C2058D298093C20581E067
:104F600001C080E01F910F91FF90EF90DF900895B6
:104F70008F929F92AF92BF92CF92DF92EF92FF9269
:104F80000F931F93CF93DF936C01142F7093C10580
:104F90006093C005442321F488249924540140C01F
:104FA000453008F01CC160E070E080E090E040E037
:104FB0000E947D27882309F412C1C12FD0E02197D8
:104FC000FE0174E0EE0FFF1F7A95E1F7E054FC4F0D
:104FD000E254FE4F8081EE5BF14090E08F7790705D
:104FE000892B09F0FCC0E653FE4F80819181A2819C
:104FF000B38184369105A105B10508F4F0C064E0E1
:10500000CC0FDD1F6A95E1F7CA57DA4F8880998087
:10501000AA80BB8081149104A104B10409F4DFC00B
:10502000C501B40140E00E947D27882309F4D7C060
:105030008091CB039091CC038050924009F0CFC077
:105040002091D003222309F4CAC08091CE0390910D
:10505000CF03892B09F4C3C08091CD03882309F4C1
:10506000BEC0F601228B8091CD038483158661E05A
:1050700070E007C04F5FF60145874150483008F0A7
:10508000AEC0F6014585848190E09B01042E02C0EC
:10509000220F331F0A94E2F78217930759F72091E2
:1050A000D6033091D7032115310519F040E050E0C7
:1050B00008C02091E4033091E5034091E60350914C
:1050C000E703F6012583368347835087E090CE03BC
:1050D000F090CF0300E010E0E80CF91C0A1D1B1D46
:1050E000E38AF48A058B168B8091D1039091D203C9
:1050F000918F808F6091D00370E080E090E00E94FB
:105100007E486E0D7F1D801F911FF601628F738F89
:10511000848F958F2091D1033091D20355E0220FD7
:10512000331F5A95E1F721503E4F232F3327269501
:1051300040E050E0260F371F481F591F268737874A
:10514000408B518B8091D3039091D403009719F039
:10515000A0E0B0E008C08091E0039091E103A0914D
:10516000E203B091E30385017401E21AF30A040B30
:10517000150BA8019701280F391F4A1F5B1FF60165
:10518000058404C056954795379527950A94D2F71C
:105190002187328743875487253FFFE03F07F0E0B0
:1051A0004F07F0E05F0710F48CE006C0255F3F4F2B
:1051B0004040504028F480E1F601878B81E010C028
:1051C0008091EC039091ED03A091EE03B091EF0379
:1051D000F601828F938FA48FB58F80E2EECF80E0AF
:1051E000DF91CF911F910F91FF90EF90DF90CF90C3
:1051F000BF90AF909F908F9008954F925F926F9263
:105200007F928F929F92AF92BF92CF92DF92EF9256
:10521000FF920F931F93CF93DF93EC016A017B0101
:1052200028013901423051056105710508F46FC04C
:1052300089859A85AB85BC850196A11DB11D841712
:105240009507A607B70708F462C02B893C894D89EA
:105250005E898F89803129F499278F2D7E2D6D2DC0
:1052600009C0C701B60117E09695879577956795B0
:105270001A95D1F74B015C01820E931EA41EB51E38
:105280008091790290917A02A0917B02B0917C0288
:1052900088169906AA06BB0639F0C501B40140E09C
:1052A0000E947D27882399F18F89803149F4F60186
:1052B000F070EE0FFF1FE054FC4F518240820DC092
:1052C000F601EF77F070EE0FFF1FEE0FFF1FE054B7
:1052D000FC4F40825182628273828091C20581605C
:1052E0008093C2058A89823080F08D819E81AF8152
:1052F000B885880E991EAA1EBB1E8092C305909287
:10530000C405A092C505B092C60581E001C080E049
:10531000DF91CF911F910F91FF90EF90DF90CF9091
:10532000BF90AF909F908F907F906F905F904F90C5
:105330000895CF92DF92EF92FF920F931F93CF9336
:10534000DF93EC017A018B01690189859A85AB8530
:10535000BC850196A11DB11D84179507A607B70747
:1053600008F450C02B893C894D895E898F89803132
:1053700029F49927812F702F6F2D09C0C801B7011B
:10538000E7E09695879577956795EA95D1F7260F8B
:10539000371F481F591F8091790290917A02A0917E
:1053A0007B02B0917C02281739074A075B0739F066
:1053B000CA01B90140E00E947D27882319F18F8935
:1053C000803159F4F701F070EE0FFF1FE054FC4FED
:1053D00080819181A0E0B0E00EC0F701EF77F0701E
:1053E000EE0FFF1FEE0FFF1FE054FC4F80819181F5
:1053F000A281B381BF70F60180839183A283B383BE
:1054000081E001C080E0DF91CF911F910F91FF906B
:10541000EF90DF90CF900895AF92BF92CF92DF923E
:10542000EF92FF920F931F93DF93CF9300D000D0A2
:10543000CDB7DEB76C017A018B0182E090E0A0E08D
:10544000B0E0F60180839183A283B3835E01089468
:10545000A11CB11CC601B801A70195010E949929A0
:10546000882319F1C601B801A70100E010E020E08F
:1054700030E00E94FD288823C1F0E980FA800B818A
:105480001C81F6018789803129F088EF9FEFAFEF0B
:10549000BFE004C088EF9FEFA0E0B0E0E816F90697
:1054A0000A071B07B8F281E001C080E00F900F905F
:1054B0000F900F90CF91DF911F910F91FF90EF9080
:1054C000DF90CF90BF90AF9008954F925F926F9210
:1054D0007F928F929F92AF92BF92CF92DF92EF9284
:1054E000FF920F931F93DF93CF9300D000D0CDB7DF
:1054F000DEB76C0149835A836B837C833901EE24C8
:10550000FF2487012E010894411C511C812CA2E02C
:105510009A2EA12CB12C49815A816B817C81C601C4
:1055200092010E949929882351F1D501C401F60105
:10553000058404C0880F991FAA1FBB1F0A94D2F7C5
:10554000E80EF91E0A1F1B1F29813A814B815C81DD
:105550008789803129F088EF9FEFAFEFBFE004C06B
:1055600088EF9FEFA0E0B0E0281739074A075B07F4
:1055700090F2F301E082F1820283138381E00F90C5
:105580000F900F900F90CF91DF911F910F91FF908F
:10559000EF90DF90CF90BF90AF909F908F907F90D3
:1055A0006F905F904F9008952F923F924F925F922D
:1055B0006F927F928F929F92AF92BF92CF92DF9223
:1055C000EF92FF920F931F93DF93CF93CDB7DEB788
:1055D0002F970FB6F894DEBF0FBECDBF1C014A87D0
:1055E0005B876C877D873F872E87D9010D911D9141
:1055F0002D913C91011511052105310549F0480116
:1056000059010894811C911CA11CB11C198610C061
:10561000FC0180809180A280B38019868A859B8559
:10562000AC85BD850197A105B10511F491E099877D
:10563000D10119968D919D910D90BC91A02D01964F
:10564000A11DB11D8D839E83AF83B8877501640151
:105650004424552432018E010F5F1F4FF1018185D3
:105660009285A385B485481659066A067B0608F01C
:1056700090C08D819E81AF81B8858C159D05AE054A
:10568000BF0550F482E0882E912CA12CB12CB2E001
:10569000CB2ED12CE12CF12CC101B701A601980130
:1056A0000E949929882309F474C089819A81AB8169
:1056B000BC81A70196012F5F3F4F4F4F5F4F00976F
:1056C000A105B10519F049015A010DC02819390980
:1056D0004A095B098A859B85AC85BD8528173907F2
:1056E0004A075B0759F00894411C511C611C711C4E
:1056F0000894C11CD11CE11CF11CB0CFC101A60152
:10570000B7010FEF1FEF2FEF3FE00E94FD28882326
:1057100099F43FC0260137010894410851086108F7
:105720007108C101B301A201970186010E94FD2801
:10573000882379F1730162018C149D04AE04BF04C7
:1057400048F3AE85BF854D915D916D917C9141157A
:1057500051056105710539F0C101950184010E946F
:10576000FD288823B1F0EE85FF8580829182A28298
:10577000B382F985FF2359F00894811C911CA11C68
:10578000B11CD1018D929D92AD92BC92139781E094
:1057900001C080E02F960FB6F894DEBF0FBECDBFDC
:1057A000CF91DF911F910F91FF90EF90DF90CF90FD
:1057B000BF90AF909F908F907F906F905F904F9031
:1057C0003F902F900895882319F48CB5806202C011
:1057D0008CB58F7D8CBD08959CB5937F982B9CBD17
:1057E00008952CB5382F33702C7F322B3CBD2DB54E
:1057F00090E0959587959595879581702E7F822B62
:105800008DBD089584E061E00E94114184E061E073
:105810000E94AD408CB580618CBD8CB580648CBD20
:1058200087E061E00E94AD4085E061E00E94AD400C
:105830000895F999FECF72BD61BDF89A80B50895BB
:10584000F999FECF1FBA72BD61BD40BD0FB6F89485
:10585000FA9AF99A0FBE08952091490630E0F901AD
:10586000E753FA4F80832F5F3F4F2F77307020939D
:1058700049068091C8058F5F8093C80508959C01F3
:10588000F999FECF32BD21BDF89A80B508959C01EB
:10589000F999FECF1FBA32BD21BD60BD0FB6F89495
:1058A000FA9AF99A0FBE0895DF93CF930F92CDB76E
:1058B000DEB780689FB79983F8945D988EBD0DB46C
:1058C00007FEFDCF8EB58EBD0DB407FEFDCF8EB5A4
:1058D0005D9A99819FBF0F90CF91DF910895DF93DB
:1058E000CF930F92CDB7DEB7482F20E030E0942F52
:1058F000906C8FB78983F8945D989EBD0DB407FEB8
:10590000FDCF8EB5CB01022E02C0969587950A94E5
:10591000E2F78EBD0DB407FEFDCF8EB55D9A89818D
:105920008FBF4F5F285F3F4F2031310501F70F9048
:10593000CF91DF910895DF93CF930F92CDB7DEB76C
:10594000482F20E030E0FB01E20FF31FE081942FAD
:10595000920F906C8FB78983F8945D989EBD0DB4BB
:1059600007FEFDCF8EB5EEBD0DB407FEFDCF8EB5A3
:105970005D9A89818FBF2F5F3F4F2830310519F71E
:105980000F90CF91DF910895FF920F931F93DF93B4
:10599000CF930F92CDB7DEB7182FF62E042F0E94AB
:1059A000542C982F106C8FB78983F8945D981EBD86
:1059B0000DB407FEFDCF8EB5802F809589230F2172
:1059C000802B8EBD0DB407FEFDCF8EB55D9A89810B
:1059D0008FBF0F90CF91DF911F910F91FF9008958E
:1059E000DF93CF930F92CDB7DEB7782F392FA22F49
:1059F000862F90E0820F911D8038910554F58FB766
:105A00008983F8945D9880E68EBD0DB407FEFDCFC6
:105A10008EB5872F932F9C01F90107C080818EBD21
:105A20000DB407FEFDCF31968EB58E2F871B8617DE
:105A3000A8F3FA0107C080818EBD0DB407FEFDCF2B
:105A400031968EB58E2F841B8A17A8F35D9A8981B3
:105A50008FBF0F90CF91DF910895813051F0813049
:105A600028F0823049F08330E1F411C08CE068E026
:105A700005C08CE06CE002C08CE06CE14FE30E945A
:105A8000C42C86E162E043E00E94C42C08958CE0BF
:105A900060E04FE30E94C42C86E163E043E00E9493
:105AA000C42C089588E00E94542C8F71089584B10D
:105AB000806A84B9559A2F9A5D9A2E9A2C9A8CB541
:105AC00081618CBD8DB581608DBD8CB580648CBDD0
:105AD0005D9A08950E94522D08950F931F93082FE9
