:100000000C947A020C94F52D0C94222E0C94082555
:100010000C94202B0C94A2020C94A2020C94A20229
:100020000C94A2020C94A2020C94A2020C94A202C0
:100030000C94A2020C94802A0C94A2020C94A202AA
:100040000C944F2E0C94A2020C945B300C94A930AB
:100050000C94A2020C94A2020C94A2020C94A20290
:100060000C94A2020C94A2022D2D2D2044696167EC
:100070006E6F7374696320454E44202D2D2D005002
:100080006C7573536869656C642C79657300436F94
:100090006F7264696E617465207472756E636174E9
:1000A000696F6E20656E61626C65642C6E6F0053C3
:1000B000797374656D20667265652052414D2C0020
:1000C0006D5600537570706C7920766F6C74616733
:1000D000652C006D56004261747465727920766FEC
:1000E0006C746167652C00566F6C74616765207372
:1000F000656E73652C79657300446961676E6F7313
:100100007469632066696C652C7965730079657321
:10011000004750532070726F6772616D6D696E6732
:100120002C0047505320747970652C43616E6D6FBD
:10013000726500526164696F206368616E6E656C00
:100140002C00526164696F20616464726573732C62
:10015000006E6F0079657300526164696F20696E8B
:10016000697469616C697A65642C00526164696FB5
:1001700020656E61626C65642C79657300446576F8
:100180006963652049442C0056657273696F6E2C53
:1001900000624765696769652D6D696E69205379ED
:1001A0007374656D002D2D2D20446961676E6F732A
:1001B000746963205354415254202D2D2D00232067
:1001C000506C7573536869656C642C796573002392
:1001D00020436F6F7264696E617465207472756E0E
:1001E000636174696F6E20656E61626C65642C6E0C
:1001F0006F00232053797374656D206672656520E6
:1002000052414D2C256442002320537570706C7947
:1002100020766F6C746167652C25646D5600232011
:100220004261747465727920766F6C746167652CB5
:1002300025646D56002320566F6C746167652073CA
:10024000656E73652C796573002320446961676E60
:100250006F737469632066696C652C79657300231C
:10026000204750532070726F6772616D6D696E67C1
:100270002C796573002320526164696F20656E617B
:10028000626C65642C796573002320475053207499
:100290007970652C43616E6D6F7265002320566521
:1002A0007273696F6E2C00232057656C636F6D65E8
:1002B00020746F20536166656361737420624765C3
:1002C000696769652D4D696E692053797374656D31
:1002D000002425732C25732C323025732D25732D86
:1002E00025735425733A25733A25735A2C25732C9C
:1002F00025732C25732C25732C7625732C25642CC3
:1003000025642C25642C25642C2564002425732C5D
:1003100025732C323025732D25732D2573542573A9
:100320003A25733A25735A2C256C642C256C642C61
:10033000256C642C25632C25732C25732C25732C9C
:1003400025732C25732C25732C25732C2573007C89
:100350003C3E5E2B3D3F2F5B5D3B2C2A225C0042E6
:1003600055464645522046554C4C2E20544F53532B
:10037000494E4720494E434F4D494E472044415432
:10038000410A0043484942493A20436F6D6D616E0E
:1003900064206E6F74207265636F676E697A65643E
:1003A0002E002A2A2A2A2A2A2A2A2A2A2A2A2A2AD3
:1003B0002A204348494249202A2A2A2A2A2A2A2A24
:1003C0002A2A2A2A2A2A2A2A2A2A2A004348494249
:1003D00049203E3E2000524144494F204E4F542078
:1003E000494E495449414C495A45442050524F5076
:1003F00045524C590A006E6F0079657300534420D2
:10040000726561642077726974652C006E6F0053A9
:10041000442074657374203A2063616E27742072DF
:10042000656D6F766520746573742066696C650010
:10043000796573005344206F70656E2066696C6542
:100440002C005468697320697320612062476569D4
:1004500067696520746573740042475F544553545F
:100460002E545854006E6F00796573005344206910
:100470006E697469616C697A65642C0079657300D2
:100480006E6F00534420696E7365727465642C004E
:1004900000000000240027002A00000000002500C2
:1004A00028002B000000000023002600290004047F
:1004B000040404040404020202020202030303030C
:1004C00003030102040810204080010204081020E8
:1004D00001020408102000000007000201000003D0
:1004E000040600000000000000008010792BC92DD8
:1004F0000C32722B11241FBECFEFD8E0DEBFCDBF70
:1005000011E0A0E0B1E0E6E4FCE602C005900D9247
:10051000A239B107D9F716E0A2E9B1E001C01D92F6
:10052000A13FB107E1F714E0C2EFD4E004C0229785
:10053000FE010E94DB35CA3ED107C9F70E94FF3396
:100540000C9416360C940000CF93DF93BC018230DC
:10055000910510F462E070E0A091EF06B091F00612
:10056000ED01E0E0F0E040E050E021C088819981B9
:100570008617970769F48A819B81309719F09383D6
:10058000828304C09093F0068093EF06FE0134C08E
:100590006817790738F44115510519F08417950744
:1005A00008F4AC01FE018A819B819C01E90120973E
:1005B000E9F641155105A9F1CA01861B970B04976D
:1005C00008F4BA01E0E0F0E02AC08D919C91119707
:1005D00084179507F9F46417750781F412968D91C5
:1005E0009C911397309719F09383828304C0909362
:1005F000F0068093EF06FD0132964CC0CA01861BBF
:10060000970BFD01E80FF91F6193719302978D938A
:100610009C9340C0FD01828193819C01D901109778
:10062000A1F68091ED069091EE06892B41F4809120
:100630003801909139019093EE068093ED06409138
:100640003A0150913B014115510541F44DB75EB758
:100650008091360190913701481B590B2091ED068E
:100660003091EE06CA01821B930B8617970780F024
:10067000AB014E5F5F4F8417950750F0420F531F39
:100680005093EE064093ED06F9016193719302C019
:10069000E0E0F0E0CF01DF91CF910895CF93DF93B9
:1006A000009709F450C0EC0122971B821A82A09196
:1006B000EF06B091F006109709F140E050E0AC175A
:1006C000BD0708F1BB83AA83FE0121913191E20F9E
:1006D000F31FAE17BF0779F48D919C911197280FE6
:1006E000391F2E5F3F4F3983288312968D919C913D
:1006F00013979B838A834115510571F4D093F006BB
:10070000C093EF0620C012968D919C911397AD0176
:10071000009711F0DC01D3CFFA01D383C28321917A
:100720003191E20FF31FCE17DF0769F488819981B9
:10073000280F391F2E5F3F4FFA01318320838A81B2
:100740009B8193838283DF91CF910895FB01DC012C
:1007500005900D920020E1F70895FB01DC0104C033
:100760008D910190801921F441505040C8F7881BA9
:10077000990B0895FB01DC010D900020E9F711971A
:1007800001900D920020E1F70895FC0181918617F8
:1007900021F08823D9F7992708953197CF0108953B
:1007A000FB01DC018D91019080190110D9F3990BA7
:1007B0000895FB01DC0101900D920020E1F70895FE
:1007C000FB01DC010D900020E9F7119741505040EA
:1007D00028F0019000200D92C9F708951C92089509
:1007E000FB01DC014150504048F001900D92002087
:1007F000C9F701C01D9241505040E0F70895FC0137
:100800006150704001900110D8F7809590958E0F3F
:100810009F1F0895FC01A081B181AD01109681F068
:100820003D91FB01019003160110E1F7C9F700208B
:1008300011F4D00102C01E921196FC01A083B18375
:10084000CA010895A0E0B0E0E8E2F4E00C94E935D4
:100850007C01EB018A01690109C0CE012196F601F4
:100860000995F70181937F01015010400115110591
:10087000A1F7CDB7DEB7E8E00C940536A0E0B0E014
:10088000E4E4F4E00C94E935EC017B018A016901B0
:1008900009C0CE012196F70161917F01F60109950A
:1008A0000150104001151105A1F7CDB7DEB7E8E002
:1008B0000C940536AEE0B0E0E0E6F4E00C94ED35E3
:1008C0000D891E8986E08C831A8309838FEF9FE749
:1008D0009E838D839E01275E3F4FCE0101966F89D7
:1008E000788DA9010E94A2042F813885020F131F61
:1008F000F80110822E96E4E00C940936AEE0B0E0E8
:10090000E4E8F4E00C94ED350D891E898EE08C83CB
:100910001A8309838FEF9FE79E838D839E01275E55
:100920003F4FCE0101966F89788DA9010E94A204E4
:100930002F813885020F131FF80110822E96E4E0F4
:100940000C940936ABE0B0E0E8EAF4E00C94DF3553
:100950003C012B015A01FC0117821682838181FD23
:1009600003C06FEF7FEFC6C19AE0892E1E01089485
:10097000211C311CF3012381F20123FD859123FF0A
:1009800081912F01882309F4B2C1853239F423FD06
:10099000859123FF81912F01853229F490E0B301E5
:1009A0000E948A06E7CF982FFF24EE249924FFE1C6
:1009B000FF15D0F09B3269F09C3228F4903259F048
:1009C000933291F40EC09D3249F0903369F441E0C6
:1009D00024C052E0F52A84E0F82A28C098E0F92AD9
:1009E00025C0E0E1FE2A22C0F7FC29C0892F8053F0
:1009F0008A3070F4F6FE05C0989C902C1124980E55
:100A000015C0E89CE02C1124E80EF0E2FF2A0EC08D
:100A10009E3229F4F6FC6BC140E4F42A07C09C36F0
:100A200019F450E8F52A02C0983649F4F20123FD82
:100A3000959123FF91912F01992309F0B8CF892F28
:100A40008554833018F08052833038F444E050E00D
:100A5000A40EB51E5FE359830FC0933631F0933770
:100A600079F0933509F056C020C0F5018081898363
:100A700042E050E0A40EB51E610101E010E012C09A
:100A8000F501C080D180F6FC03C06FEF7FEF02C09C
:100A9000692D70E042E050E0A40EB51EC6010E9430
:100AA000FF038C015FE7F52214C0F501C080D180FF
:100AB000F6FC03C06FEF7FEF02C0692D70E042E0EB
:100AC00050E0A40EB51EC6010E947F068C0150E8BE
:100AD000F52AF3FE07C01AC080E290E0B3010E943D
:100AE0008A06EA948E2D90E008171907A8F30EC025
:100AF000F601F7FC8591F7FE81916F0190E0B3015B
:100B00000E948A06E110EA94015010400115110577
:100B100079F7EAC0943611F0993669F5F7FE08C006
:100B2000F501208131814281538184E090E00AC047
:100B3000F501808191819C01442737FD4095542F18
:100B400082E090E0A80EB91E9FE6F92257FF09C087
:100B500050954095309521953F4F4F4F5F4FE0E8BE
:100B6000FE2ACA01B901A1012AE030E00E94B606BE
:100B7000D82ED21840C0953729F41F2D1F7E2AE0A9
:100B800030E01DC01F2D197F9F3661F0903720F493
:100B9000983509F0ACC00FC0903739F0983709F09C
:100BA000A6C004C028E030E00AC0106114FD146043
:100BB00020E130E004C014FD166020E132E017FFB0
:100BC00008C0F501608171818281938144E050E029
:100BD00008C0F50180819181BC0180E090E042E095
:100BE00050E0A40EB51EA1010E94B606D82ED21860
:100BF0008FE7F82EF122F6FE0BC05EEFF522D91436
:100C000038F4F4FE07C0F2FC05C08FEEF82202C0F3
:100C10001D2D01C0192DF4FE0DC0FE01ED0DF11DBD
:100C20008081803319F499EEF92208C01F5FF2FE2B
:100C300005C003C08F2D867809F01F5F0F2DF3FCD0
:100C400014C0F0FE0FC01E1510F09D2C0BC09D2C83
:100C50009E0C911A1E2D06C080E290E0B3010E9406
:100C60008A061F5F1E15C0F304C01E1510F4E11A9A
:100C700001C0EE2404FF0FC080E390E0B3010E94A6
:100C80008A0602FF1DC001FD03C088E790E00EC088
:100C900088E590E00BC0802F867891F001FF02C0BC
:100CA0008BE201C080E2F7FC8DE290E0B3010E948C
:100CB0008A0606C080E390E0B3010E948A069A94F7
:100CC000D914C0F3DA94F101ED0DF11D808190E0AB
:100CD000B3010E948A06DD20A9F706C080E290E0F9
:100CE000B3010E948A06EA94EE20C1F743CEF301D5
:100CF00066817781CB012B96E2E10C94FB35FC01F8
:100D00000590615070400110D8F7809590958E0F36
:100D10009F1F08950F931F93CF93DF938C01EB01D7
:100D20008B8181FF1BC082FF0DC02E813F818C8192
:100D30009D812817390764F4E881F9810193F983CB
:100D4000E88306C0E885F985802F0995892B31F461
:100D50008E819F8101969F838E8302C00FEF1FEFCC
:100D6000C801DF91CF911F910F910895FA01AA2731
:100D7000283051F1203181F1E8946F936E7F6E5FDE
:100D80007F4F8F4F9F4FAF4FB1E03ED0B4E03CD08C
:100D9000670F781F891F9A1FA11D680F791F8A1F6F
:100DA000911DA11D6A0F711D811D911DA11D20D0D6
:100DB00009F468943F912AE0269F11243019305D90
:100DC0003193DEF6CF010895462F4770405D419381
:100DD000B3E00FD0C9F7F6CF462F4F70405D4A33CE
:100DE00018F0495D31FD4052419302D0A9F7EACF96
:100DF000B4E0A6959795879577956795BA95C9F7C5
:100E000000976105710508959B01AC010A2E0694B7
:100E10005795479537952795BA95C9F7620F731F70
:100E2000841F951FA01D08958091D901883519F45C
:100E300020E030E207C0992787FD9095382F2227C0
:100E4000205030418091DA01883559F0992787FD8B
:100E50009095C09744E0880F991F4A95E1F7280FB5
:100E6000391F8091DB01883531F0992787FD9095F6
:100E7000C097280F391FC9010895CF92DF92FF92C2
:100E80000F931F93CF93DF93182F092F6B018BECD8
:100E900096E060EA0E94CC318BEC96E061EA0E9419
:100EA000CC318BEC96E06D2D0E94CC31B601707088
:100EB0008BEC96E00E94CC31212F302FC901EC0140
:100EC000FF2400E010E009C08BEC96E068810E94EE
:100ED000CC318991F8260F5F1F4F0C151D05A0F32B
:100EE0008BEC96E06F2D0E94CC318BEC96E06DE0A0
:100EF0000E94CC318BEC96E06AE00E94CC318BEC06
:100F000096E06DE00E94CC318BEC96E06AE00E94A6
:100F1000CC31DF91CF911F910F91FF90DF90CF9057
:100F200008950F931F93DF93CF93CDB7DEB72C9720
:100F30000FB6F894DEBF0FBECDBF00E010E08BEC23
:100F400096E00E946231892B69F483E10838180722
:100F500049F06AE070E080E090E00E94B12E065F08
:100F60001F4FEDCFDE011496EBE5F1E089E0019033
:100F70000D928150E1F7DE011196E8E5F1E083E0A2
:100F800001900D928150E1F7CE01049669E070E086
:100F90000E943D07CE01019663E070E00E943D078C
:100FA0002C960FB6F894DEBF0FBECDBFCF91DF9168
:100FB0001F910F9108950E94522FAA2797FDA09587
:100FC000BA2FBC01CD010E94A9342DEC3CEC4CE8B9
:100FD0005FE30E94353520E030EC4FE754E40E9497
:100FE0000E342AE939E941E251E40E943535089589
:100FF000CF92DF92EF92FF920F931F93DF93CF93E5
:10100000CDB7DEB7E4970FB6F894DEBF0FBECDBF05
:101010008E010D5F1F4FC80165EA71E00E94A603B3
:101020008BEC96E0B8010E94EC33C80161E971E0F5
:101030000E94A6038BEC96E0B8010E94EC33C80135
:1010400068E871E00E94A6038BEC96E0B8010E946C
:10105000E9338BEC96E064E671E00E94EC33C80162
:101060006DE771E00E94A6038BEC96E0B8010E9448
:10107000E9338BEC96E069ED71E00E94EC330E945D
:10108000AF2CC8016BE671E00E94A6038BEC96E0E2
:10109000B8010E94EC33C80168E571E00E94A60324
:1010A0008BEC96E0B8010E94E9338091DD01882342
:1010B00021F0C80164E571E003C0C80161E571E099
:1010C0000E94A6038BEC96E0B8010E94EC3380E00E
:1010D0000E94E3268E010D5F1F4FC80162E471E09C
:1010E0000E94A6038BEC96E0B8010E94E9330E94AF
:1010F0002B27BC018BEC96E040E150E00E945B3373
:10110000C80163E371E00E94A6038BEC96E0B8018E
:101110000E94E9330E94B624682F8BEC96E04AE0E7
:1011200050E00E94783381E00E94E326C80162E229
:1011300071E00E94A6038BEC96E0B8010E94EC33AC
:10114000C80161E171E00E94A6038BEC96E0B80152
:101150000E94E933C8016DE071E00E94A6038BECA8
:1011600096E0B8010E94EC33C80169EF70E00E947C
:10117000A6038BEC96E0B8010E94EC33C80167EE41
:1011800070E00E94A6038BEC96E0B8010E94EC335D
:101190008EE090E00E94DB078EE090E00E94DB078B
:1011A0006B017C01C80166ED70E00E94A6038BEC28
:1011B00096E0B8010E94E933C701B60120E030E0B3
:1011C0004AE754E40E9435350E9476349B01AC0115
:1011D0008BEC96E0B9014AE050E00E94D633C8019A
:1011E00063ED70E00E94A6038BEC96E0B8010E94CC
:1011F000EC338FE090E00E94DB078FE090E00E94EC
:10120000DB076B017C01C80163EC70E00E94A60360
:101210008BEC96E0B8010E94E933C701B60120E0EB
:1012200030E04AE754E40E9435350E9476349B0151
:10123000AC018BEC96E0B9014AE050E00E94D63355
:10124000C80160EC70E00E94A6038BEC96E0B80148
:101250000E94EC33C8016FEA70E00E94A6038BEC99
:1012600096E0B8010E94E9332091ED063091EE0638
:10127000CE0101962115310519F4815F964002C017
:10128000821B930B9A83898369817A818BEC96E028
:101290004AE050E00E94D6338BEC96E062E40E9474
:1012A000B4328E010D5F1F4FC8016EE870E00E94DE
:1012B000A6038BEC96E0B8010E94EC33C8016FE7FF
:1012C00070E00E94A6038BEC96E0B8010E94EC331C
:1012D000C80168E670E00E94A6038BEC96E0B801B6
:1012E0000E94EC33E4960FB6F894DEBF0FBECDBF7C
:1012F000CF91DF911F910F91FF90EF90DF90CF90F2
:101300000895CF92DF92EF92FF920F931F93DF9396
:10131000CF93CDB7DEB7E4970FB6F894DEBF0FBE1C
:10132000CDBF6C0184E090E066E070E04AE050E000
:101330000E94712D8E010D5F1F4FC80167EA72E098
:101340000E94A603C601B8010E94802BC8016CE967
:1013500072E00E94A603C80164E671E00E94BA032D
:10136000C601B8010E94802BC80169E872E00E94A2
:10137000A603C601B8010E94802BC80165E772E090
:101380000E94A603C601B8010E94802BC8016FE528
:1013900072E00E94A603C601B8010E94802BC8011A
:1013A00069E472E00E94A603C601B8010E94802B86
:1013B000C80165E372E00E94A603C601B8010E945D
:1013C000802B8EE090E00E94DB078EE090E00E9490
:1013D000DB0700D000D000D0EDB6FEB60894E11CCB
:1013E000F11CADB7BEB712961C930E9311972EE168
:1013F00032E0F7013383228320E030E04AE754E40F
:101400000E9435350E947634D70115967C936E93F1
:1014100014970E947E04EDB7FEB736960FB6F89487
:10142000FEBF0FBEEDBFC601B8010E94802B8FE04A
:1014300090E00E94DB078FE090E00E94DB0700D085
:1014400000D000D0EDB6FEB60894E11CF11CADB79B
:10145000BEB712961C930E93119728E032E0F70165
:101460003383228320E030E04AE754E40E9435359C
:101470000E947634D70115967C936E9314970E9440
:101480007E04EDB7FEB736960FB6F894FEBF0FBEDA
:10149000EDBFC601B8010E94802B2091ED0630916E
:1014A000EE06CE0101962115310519F4815F9640B3
:1014B00002C0821B930B9A83898300D000D000D096
:1014C000EDB7FEB731968E010D5F1F4FADB7BEB7BA
:1014D00012961C930E93119782EF91E0938382836F
:1014E00089819A81958384830E947E04EDB7FEB73B
:1014F00036960FB6F894FEBF0FBEEDBFC601B80119
:101500000E94802BC8016FEC71E00E94A603C60107
:10151000B8010E94802BC8016EEB71E00E94A60307
:10152000C601B8010E94802BE4960FB6F894DEBF86
:101530000FBECDBFCF91DF911F910F91FF90EF9024
:10154000DF90CF900895BF92CF92DF92EF92FF92FB
:101550000F931F93CF93DF93F89479EDE72E71E00B
:10156000F72EC4E6D0E068E5B62E6E018EE295E077
:10157000BE010E940128F701808301E010E00FC046
:101580006AE070E080E090E00E94B12E8EE295E08B
:10159000B6010E940128F70180830F5F1F4FF701FA
:1015A000808180538A3020F00330110549F714C040
:1015B00021960894E11CF11CC736D105B1F61092B2
:1015C000DC017894DF91CF911F910F91FF90EF9004
:1015D000DF90CF90BF900895F701B082E9CF4F928E
:1015E0005F926F927F928F929F92AF92BF92CF92B3
:1015F000DF92EF92FF920F931F93CF93DF936C01D3
:101600000E9485288C0184E6D6011D928A95E9F70F
:101610008EE090E00E94DB074B015C018FE090E0E0
:101620000E94DB072B013C01EDB7FEB7B8970FB660
:10163000F894FEBF0FBEEDBFEDB6FEB60894E11CF8
:10164000F11CD282C18281ED92E0D70113969C9366
:101650008E93129783E491E015969C938E93149742
:1016600089ED91E017969C938E93169700561F4F25
:1016700019961C930E931897035010401B961C93B9
:101680000E931A97035010401D961C930E931C97AF
:10169000075F1F4F1F961C930E931E970D5F1F4FE2
:1016A00051961C930E9350970D5F1F4F53961C93AA
:1016B0000E9352970159104055961C930E935497D0
:1016C000015F1F4F57961C930E9356970E5F1F4F47
:1016D00059961C930E935897015F1F4F5B961C936E
:1016E0000E935A9784E691E05D969C938E935C9757
:1016F000C501B40120E030E04AE754E40E943535EA
:101700000E947634F701778F668FC301B20120E023
:1017100030E04AE754E40E9435350E947634D70120
:1017200091967C936E93909780910706909108060E
:1017300093969C938E9392978091050690910606BE
:1017400095969C938E93949780910B0690910C069E
:1017500097969C938E9396970E947E04D6010D9047
:101760000020E9F71197AC19BD090A2FE601CA0F4D
:10177000D11D1882EDB7FEB7B8960FB6F894FEBF2C
:101780000FBEEDBFC60101966A2F70E00E941228BD
:10179000282F803178F400D000D000D0EDB7FEB70C
:1017A0003196ADB7BEB71296DC93CE93119780E019
:1017B00091E00EC000D000D000D0EDB7FEB731965A
:1017C000ADB7BEB71296DC93CE93119786E091E049
:1017D00093838283248315820E945A04EDB7FEB757
:1017E00036960FB6F894FEBF0FBEEDBF802FDF9187
:1017F000CF911F910F91FF90EF90DF90CF90BF900E
:10180000AF909F908F907F906F905F904F900895D2
:101810006F927F928F929F92AF92BF92CF92DF9200
:10182000EF92FF920F931F93CF93DF935C013801E8
:1018300049010E94852824E6D5011D922A95E9F7E1
:10184000EDB7FEB7F2970FB6F894FEBF0FBEEDBF2F
:101850003196ADB7BEB71296BC92AE9211972CE0FE
:1018600033E0338322832DE331E03583248329ED74
:1018700031E03783268380569F4F91878087039777
:1018800093878287039795878487099697878687AA
:101890000396918B808B0396938B828B648A758AD7
:1018A000868A978AC08ED18EE28EF38E2091C601F1
:1018B0003091C7014091C8015091C901248F358FE3
:1018C000468F578F20913C01332727FD309531A358
:1018D00020A38159904093A382A30F9695A384A33C
:1018E000029697A386A30F9691A780A7889693A7A1
:1018F00082A78A54904095A784A78B5B9F4F97A798
:1019000086A78754904091AB80AB0E947E04D5019E
:101910000D900020E9F71197AA19BB091A2FE501CC
:10192000CA0FD11D1882EDB7FEB7F2960FB6F89424
:10193000FEBF0FBEEDBFC50101966A2F70E00E9489
:101940001228282F803178F400D000D000D0EDB7D5
:10195000FEB73196ADB7BEB71296DC93CE93119712
:1019600080E091E00EC000D000D000D0EDB7FEB70F
:101970003196ADB7BEB71296DC93CE93119786E041
:1019800091E093838283248315820E945A04EDB7E9
:10199000FEB736960FB6F894FEBF0FBEEDBF812F8F
:1019A000DF91CF911F910F91FF90EF90DF90CF903B
:1019B000BF90AF909F908F907F906F900895CF923F
:1019C000DF92EF92FF920F931F93CF93DF930E94CA
:1019D000BF290E94B42A892B09F483C182E061E007
:1019E0000E94742F82E060E00E94B32F64E170E0F7
:1019F00080E090E00E94B12E82E060E00E94742FAF
:101A0000A8950E940828892B09F46BC10E94972A87
:101A10006B017C010E94F22A6091C2017091C301A6
:101A20008091C4019091C501FB01EE0FFF1FEE0FE5
:101A3000FF1FEE56FE4FC082D182E282F3826F5FBB
:101A40007F4F8F4F9F4F2CE030E040E050E00E94EE
:101A5000B7356093C2017093C3018093C401909322
:101A6000C501E2E9F1E000E010E020E030E0819122
:101A70009191A191B191080F191F2A1F3B1F81E07D
:101A8000E23CF807A1F78091C6019091C701A091AF
:101A9000C801B091C9018C0D9D1DAE1DBF1D809365
:101AA000C6019093C701A093C801B093C9014091AA
:101AB000CA015091CB014C30510554F486E5809316
:101AC0003C014F5F5F4F5093CB014093CA010AC066
:101AD000011511052105310511F486E501C081E4E8
:101AE00080933C01C0EED1E084E6FE0111928A951C
:101AF000E9F7E091C201F091C301EE0FFF1FEE0F75
:101B0000FF1FEE56FE4F4081518162817381CE01ED
:101B10000E94080C8091DD01882391F080E00E94F2
:101B2000E3266AE070E080E090E00E94B12E8FEF43
:101B30009FEFBE0144E60E94CF2681E00E94E3268B
:101B40008FE090E00E94DB0720E030E04AE754E4B9
:101B50000E9435350E947634EB018091DE01909130
:101B6000DF01892B09F04FC00E948528FC0186897E
:101B7000813409F048C081E090E09093DF018093C8
:101B8000DE01F2E1CF38DF07F4F18CEC91E069ED92
:101B900071E00E94D9038CEC91E06BE071E00E944F
:101BA000BA030E948528BC01645B7F4F8CEC91E0F6
:101BB00042E050E00E94E0030E948528BC01665B81
:101BC0007F4F8CEC91E042E050E00E94E00384ED16
:101BD00091E069E471E00E94D90384E090E066E05E
:101BE00070E04AE050E00E94712D8CEC91E00E9480
:101BF000810984ED91E06EE471E00E94D9038CECE0
:101C000091E00E9481098091DE019091DF01892B92
:101C100031F48BEC96E06DE071E00E94E9338BECDF
:101C200096E060EE71E00E94EC338091DE019091CD
:101C3000DF01892BC1F082E1CF38D807A4F084E01E
:101C400090E066E070E04AE050E00E94712D84ED83
:101C500091E069E471E00E94D9038CEC91E060EEC0
:101C600071E00E94802B80EE91E00E94EF0A8BECE5
:101C700096E060EE71E00E94EC338091DE0190917D
:101C8000DF01892BB9F0CF58D241A4F084E090E075
:101C900066E070E04AE050E00E94712D84ED91E032
:101CA0006EE471E00E94D9038CEC91E060EE71E08B
:101CB0000E94802B8091DD01882399F080E00E94B2
:101CC000E3266AE070E080E090E00E94B12E8FEFA2
:101CD0009FEF60EE71E044E60E94CF2681E00E9413
:101CE000E326DF91CF911F910F91FF90EF90DF904E
:101CF000CF9008950F931F930BEC16E0C80140E8B6
:101D000055E260E070E00E94E43029E288E190E072
:101D10000FB6F894A895809360000FBE20936000E2
:101D2000A8950E949107A8958AE061E00E94742F0F
:101D30008AE061E00E94B32F81E161E00E94742F8C
:101D400081E161E00E94B32F84E061E00E94742F82
:101D500084E060E00E94B32F83E00E944F2F82E076
:101D600061E00E94742F82E060E00E94B32F64E182
:101D700070E080E090E00E94B12E82E060E00E947E
:101D8000742F81E090E048E853E160E070E00E9449
:101D9000052BC80160EE71E00E9488280E94A30A0A
:101DA0000E94FE278093DD0184E10E9409270E94A2
:101DB00014070E94EB2781E00E94E32684E090E074
:101DC00066E070E04AE050E00E94712D86E5809365
:101DD0003C011092CB011092CA010E94F8070E94A8
:101DE000F22AA895C80166E171E00E94EC331F91C8
:101DF0000F910895FC011382128288EE93E0A0E017
:101E0000B0E084839583A683B7838EE691E09183C7
:101E10008083128E118E14860895FC018EE691E067
:101E2000918380830895DF93CF930F92CDB7DEB770
:101E3000FC016983A081B18112962D913C91139789
:101E4000BE016F5F7F4F41E050E0F90109950F90AF
:101E5000CF91DF910895DC015996ED91FC915A974D
:101E6000309719F420E030E018C02389348945897F
:101E7000568982859385A485B585281B390B4A0B25
:101E80005B0B2030B0E83B07B0E04B07B0E05B07EE
:101E900020F02FEF3FE740E050E0C9010895DC015A
:101EA0005996ED91FC915A97309729F420E030E053
:101EB00040E050E004C02389348945895689B9013E
:101EC000CA010895DC015996ED91FC915A9730971B
:101ED00011F480E008958581811181E00895CF9308
:101EE000DF93EC01898D9A8D009741F00E941A18BA
:101EF000898D9A8D0E944E031A8E198EDF91CF9193
:101F00000895FC01818D928D009711F480E0089571
:101F10000E940A170895FC01818D928D009711F09F
:101F20000E94D0170895DF93CF930F92CDB7DEB7FD
:101F3000FC01818D928D009749F0BE016F5F7F4F4C
:101F400041E050E00E940D19019719F02FEF3FEF8B
:101F500003C08981282F30E0C9010F90CF91DF9114
:101F60000895EF92FF920F931F93DF93CF930F92F9
:101F7000CDB7DEB77C01DC0159968D919C915A97C3
:101F8000009719F400E010E01FC0BE016F5F7F4FA3
:101F900041E050E00E940D19019719F00FEF1FEF7B
:101FA00013C08981082F10E0D7015996ED91FC915B
:101FB0005A974285538564857585415050406040ED
:101FC0007040CF010E940A17C8010F90CF91DF9196
:101FD0001F910F91FF90EF900895CF93DF93EC0145
:101FE000E98DFA8D309761F013821282CF010E9441
:101FF000521B9C01E98DFA8D82819381892B31F0EE
:1020000081E090E09B838A8320E030E0C901DF918A
:10201000CF910895EF92FF920F931F93CF93DF9389
:10202000EC01F62EE72E8A011B821A8288EE93E0DD
:10203000A0E0B0E08C839D83AE83BF838EE691E009
:10204000998388838DE190E00E94A4029A8F898F02
:10205000009791F0DC018F2D9E2D9C01F9018DE1FF
:1020600001900D928150E1F7CE010C96B8014CE041
:1020700050E00E94F003188EDF91CF911F910F91D5
:10208000FF90EF9008950F931F93CF93DF938C01F0
:10209000FB01C081D181FC01EC0FFD1F80818F32DB
:1020A00009F4219698012C0F3D1FA0E0B0E00BC071
:1020B000FA01EA0FFB1F8083119621962F5F3F4F95
:1020C000AC30B10531F0F90180818F3211F08823F5
:1020D00079F7A40FB51F1C92F801EC0FFD1F80814A
:1020E0008F3209F42196FB01D183C083C00FD11F29
:1020F0008881811181E0DF91CF911F910F91089527
:102100001092490210924A0210924D0210924F0210
:1021100082E090E0A0E0B0E0809350029093510202
:10212000A0935202B0935302109267021092710270
:10213000109270028EE791E090936F0280936E028E
:102140001092730208952F923F924F925F926F9276
:102150007F928F929F92BF92CF92DF92EF92FF92E7
:102160000F931F93DF93CF93CDB7DEB7C954D04001
:102170000FB6F894DEBF0FBECDBF1C017B012A0154
:1021800039011B8A1A8A8EE791E0998B888B1D8A08
:1021900018AA1FA69EA78DA71AAA1A8219828B01B8
:1021A00020E1C22ED12CCC0EDD1E93E0892E912C85
:1021B0008C0E9D1E03C0C80186016C01C101BE01C9
:1021C0006F5F7F4FA4010E944310B82E40E0882328
:1021D00009F441E0C801B4019301F2010995882393
:1021E00039F40E151F0519F1C8010E941A181FC0F5
:1021F000BB20A9F0C601B801A40121E00E947F1D07
:10220000B82E0E151F0519F0C8010E941A18BB2020
:1022100071F00E151F0579F6CE018D96CDCF0E15F6
:102220001F0519F0C8010E941A1881E001C080E062
:10223000C75BDF4F0FB6F894DEBF0FBECDBFCF91A7
:10224000DF911F910F91FF90EF90DF90CF90BF90A3
:102250009F908F907F906F905F904F903F902F90C6
:1022600008959B01BC01665D7F4FC90145EB53E1B9
:1022700020E030E00E94A31008952F923F924F92E9
:102280005F926F927F928F929F92AF92BF92CF9206
:10229000DF92EF92FF920F931F93DF93CF93CDB70F
:1022A000DEB7C754D0400FB6F894DEBF0FBECDBF27
:1022B000582E492EFB013A01190184A595A5998B49
:1022C000888B2EE731E03F872E8786A58A8B87A5EE
:1022D0008B8B80A991A9A2A9B3A98C8B9D8BAE8B66
:1022E000BF8B84A995A9A6A9B7A9888F998FAA8F12
:1022F000BB8F80AD91ADA2ADB3AD8C8F9D8FAE8FF6
:10230000BF8F84AD88A3FD9681919191A191B191E8
:1023100089A39AA3ABA3BCA381919191A191B191FF
:102320008DA39EA3AFA3B8A7808191819AA789A707
:102330001EA61DA63CA72BA718AA7A018E01025F34
:102340001F4F3BE2A32EB12CAC0EBD1E4E010894D4
:10235000811C911C35C0D7018C918F3221F40894D7
:10236000E11CF11C2DC0422F4E194D3008F04CE0FD
:10237000C42EDD24C401B701A6010E94F003F401BC
:10238000EC0DFD1D1082C5010E941A18C501B8018F
:10239000A40121E00E947F1D882351F4E52DF42D36
:1023A000138212828EE791E091838083158266C04A
:1023B000EC0CFD1CC8010E941A18C50158018C01C3
:1023C000C7016FE270E00E94C5039C01009719F6F7
:1023D000E618F708F101F182E082E52DF42DD8012D
:1023E00012968D919C911397938382838EE791E04F
:1023F0009183808314968C911497848315968C9185
:102400001597858316962D913D914D915C91199765
:1024100026833783408751871A962D913D914D91A0
:102420005C911D9722873387448755871E962D918F
:102430003D914D915C91519726873787408B518B09
:1024400052968C915297828B53962D913D914D913E
:102450005C915697238B348B458B568B57962D91D9
:102460003D914D915C915A97278B308F418F528FC0
:102470005B968D919C915C97948F838F852D942D85
:10248000C95BDF4F0FB6F894DEBF0FBECDBFCF9153
:10249000DF911F910F91FF90EF90DF90CF90BF9051
:1024A000AF909F908F907F906F905F904F903F90F4
:1024B0002F9008959F92AF92BF92CF92DF92EF92AA
:1024C000FF920F931F93DF93CF93CDB7DEB7C6571D
:1024D000D0400FB6F894DEBF0FBECDBFC82E992EE8
:1024E0008A01D22E43E0A42EB12CAC0EBD1EC50134
:1024F000A8019E012F5F3F4F0E943D11E980FA80A5
:10250000E00EF11EF70180814EE751E02885882317
:1025100009F03FC08D819E819BA38AA359A348A344
:102520008F818CA32DA389859A85AB85BC858EA3CD
:102530009FA3A8A7B9A78D859E85AF85B8898AA7CF
:102540009BA7ACA7BDA789899A89AB89BC898EA7AF
:102550009FA7A8ABB9AB8D898AAB8E899F89A88DBF
:10256000B98D8BAB9CABADABBEAB8A8D9B8DAC8D6F
:10257000BD8D8FAB98AFA9AFBAAF8E8D9F8D9CAF3D
:102580008BAF8C2D992DBE01605E7F4F44E251E0F0
:102590009FC0FE01FF96118210825EAF4DAFFE011B
:1025A000EE5BFF4F10822223A9F02250CE01CD9680
:1025B000223048F46EE672E0A7012D2D0E947F1DA7
:1025C000882381F407C0B501A7012D2D0E947F1D2E
:1025D000882329F48C2D992D0E94FA0E7BC0C50109
:1025E0000E941A18F6E0DF2259F0FE01E05BFF4F6F
:1025F0004081518162817381CE01CD960E940A177C
:102600009E01265A3F4FFE01FF9680819181F9017C
:10261000938382838EE791E091838083FE01EF5B59
:10262000FF4F8081F9018483FE01EE5BFF4F8081C3
:10263000F9018583FE01ED5BFF4F80819181A281CD
:10264000B381F90186839783A087B187FE01E95B97
:10265000FF4F80819181A281B381F90182879387A5
:10266000A487B587FE01E55BFF4F80819181A28140
:10267000B381F90186879787A08BB18BFE01E15B5F
:10268000FF4F8081F901828BFE01E05BFF4F80816B
:102690009181A281B381F901838B948BA58BB68B39
:1026A000FE01EC5AFF4F80819181A281B381F90133
:1026B000878B908FA18FB28FFE01E85AFF4F8081E8
:1026C0009181F901948F838F8C2D992DB901A701E8
:1026D0000E940A108C2D992DCA58DF4F0FB6F8941E
:1026E000DEBF0FBECDBFCF91DF911F910F91FF9045
:1026F000EF90DF90CF90BF90AF909F9008950F9391
:102700001F93CF93DF93EC01162F8FA5882331F011
:10271000CE018A960E941A18882311F1CE0161E039
:10272000412F0E94F6158823D1F08E01045F1F4FC0
:10273000C801BE0141E00E944D1F882339F4C80141
:10274000BE0140E00E944D1F882349F0CE018A96C9
:10275000B8010E946C1A882319F081E001C080E062
:10276000DF91CF911F910F910895442311F481E0DF
:1027700008950E94861E0895FC01673020F086E1CE
:10278000858380E00895262F30E060FD02C066302A
:1027900019F48DB58E7F02C08DB581608DBD8CB56D
:1027A0008C7F8CBD4CB522FD02C090E001C092E050
:1027B00036952795822F8170842B892B8CBD81E0E3
:1027C0000895FF920F931F93CF93DF938B010E9485
:1027D000A32EEB01FF24FA94FEBC0DB407FEFDCF3F
:1027E0008EB58F3F11F481E008C00E94A32E6C1BB0
:1027F0007D0B6017710780F380E0DF91CF911F910F
:102800000F91FF900895FC01848160E00E94B32F36
:102810000895FC01848161E00E94B32F0895DC01DA
:102820006EBDFA0120E030E00DB407FEFDCF8081DF
:102830008EBD0DB407FEFDCF81818EBD2E5F3F4F53
:10284000329682E02030380779F70DB407FEFDCFCD
:102850008FEF8EBD0DB407FEFDCF8FEF8EBD0DB493
:1028600007FEFDCF8FEF8EBD0DB407FEFDCF8EB5F9
:102870001A968C931A978F71853011F481E0089520
:1028800081E115968C931597CD010E94091480E083
:102890000895FF920F931F93CF93DF93EC010E9453
:1028A000A32E8B01FF24FA9409C00E94A32E601B63
:1028B000710B6D52714010F08FE00DC0FEBC0DB475
:1028C00007FEFDCF8EB58A878F3F79F38E3F11F4D7
:1028D00081E006C08DE08D83CE010E94091480E066
:1028E000DF91CF911F910F91FF900895CF93DF93C8
:1028F000EC018E818823D1F08FEF8EBD2F8138853A
:102900004FEF04C00DB407FEFDCF4EBD2F5F3F4F0C
:10291000C901019781509240A8F338872F830DB4E5
:1029200007FEFDCFCE010E9409141E82DF91CF91D8
:102930000895DF92EF92FF920F931F93CF93DF934F
:10294000EC01D62E79018A010E947614CE010E94F4
:102950000314CE016CE271E00E94E1138D2D8064BE
:102960008EBD0DB407FEFDCF28E130E0D801C701D0
:10297000022E04C0B695A795979587950A94D2F72D
:102980008EBD0DB407FEFDCF285030408FEF283F9D
:10299000380761F7DD2011F485E906C088E0D81614
:1029A00011F487E801C08FEF8EBD0DB407FEFDCF97
:1029B00090E02FEF2EBD0DB407FEFDCF8EB587FF43
:1029C00002C09150B9F78A87DF91CF911F910F9183
:1029D000FF90EF90DF900895CF92DF92EF92FF92F9
:1029E0000F931F93CF93DF93EC017A018B01690161
:1029F000411551056105710511F482E137C08B85E0
:102A0000833039F029E0EE0CFF1C001F111F2A95BE
:102A1000D1F7CE0168E1A80197010E94991488239B
:102A200011F084E023C0CE016EEFA6010E940F14C6
:102A30008823E9F0CE0168E572E00E94E113882363
:102A400011F485E113C0CE016DE020E030E040E0FC
:102A500050E00E949914882341F48FEF8EBD0DB48D
:102A600007FEFDCF8EB5882379F084E18D83CE01FA
:102A70000E94091480E0DF91CF911F910F91FF9088
:102A8000EF90DF90CF900895CE010E94091481E06D
:102A9000F2CF8F929F92AF92BF92CF92DF92EF923E
:102AA000FF920F931F93CF93DF93EC015A016B01B9
:102AB00049010115110509F47BC0C801820F931F5C
:102AC0008150924008F06FC08E81882371F0888118
:102AD0009981AA81BB81481759076A077B0729F4A6
:102AE0008F8198858816990618F5A882B982CA82BE
:102AF000DB828B85833039F069E0AA0CBB1CCC1CCF
:102B0000DD1C6A95D1F7CE0161E1A60195010E9415
:102B10009914882319F083E08D8345C0CE010E946B
:102B20004914882309F43FC018861F8281E08E83F0
:102B30008FEF8EBD8F8198852FEF05C00DB407FEF6
:102B4000FDCF2EBD019688159905C0F398878F8318
:102B5000D801119720E030E09FEF0BC00DB407FEC5
:102B6000FDCF8EB5F701E20FF31F80839EBD2F5F6F
:102B70003F4F2A173B0790F30DB407FEFDCF8EB5EC
:102B8000AE0DBF1D8C932F813885200F311F3887E4
:102B90002F838985882319F02050324048F0CE01D8
:102BA0000E94761405C0CE010E94091480E001C085
:102BB00081E0DF91CF911F910F91FF90EF90DF9017
:102BC000CF90BF90AF909F908F900895EF92FF921B
:102BD0000F931F93790120E030E000E012E00E94A3
:102BE00049151F910F91FF90EF900895BF92CF92DA
:102BF000DF92EF92FF920F931F93CF93DF93EC013D
:102C0000B62E1B8619861E821D824C830E94A32E1F
:102C10006B018C8161E00E94742FCE010E94091427
:102C20008CE060E00E94742F8BE061E00E94742FC2
:102C30008DE061E00E94742F8AE061E00E94742FB1
:102C40008AE061E00E94B32F83E58CBD8DB58E7F55
:102C50008DBD80E09FEF9EBD0DB407FEFDCF8F5F61
:102C60008A30C9F7CE010E94031409C00E94A32E26
:102C70006C197D09615D774010F081E05EC0CE0186
:102C800060E020E030E040E050E00E949914182F0E
:102C90008A87813059F7CE0168E02AEA31E040E0C6
:102CA00050E00E94991482FF02C01B8711C080E08F
:102CB0002FEF2EBD0DB407FEFDCF9EB58F5F843084
:102CC000C1F79A879A3A11F082E037C082E08B8789
:102CD0008B85823021F0EE24FF2487010FC0E12C88
:102CE000F12C012DF0E41F2F09C00E94A32E6C19B6
:102CF0007D09615D774010F088E01FC0CE0167E379
:102D000020E030E040E050E00E949914CE0169E2FA
:102D1000A80197010E9499148A87882331F78B852F
:102D2000823031F5CE016AE320E030E040E050E04F
:102D30000E949914882339F086E08D83CE010E9489
:102D4000091480E01CC08FEF8EBD0DB407FEFDCFCF
:102D50008EB5807C803C11F483E08B8780E09FEF10
:102D60009EBD0DB407FEFDCF2EB58F5F8330C1F73A
:102D7000CE010E940914CE016B2D0E94BC13DF917D
:102D8000CF911F910F91FF90EF90DF90CF90BF9068
:102D90000895CF93DF93EC01DB0180E090E020E227
:102DA000FD01E80FF91F208301968B309105C1F7D3
:102DB00057E040E021C02E3219F08FE493E007C0C5
:102DC0005A3019F15AE048E017C03217F1F0FC010F
:102DD000019634913323C9F75417B8F02132A8F083
:102DE0002F3798F4822F81568A3108F42052FD0142
:102DF000E40FF11D20834F5F29912223E1F690E03B
:102E00008C91803219F091E001C090E0892FDF9120
:102E1000CF9108956F927F928F929F92AF92BF92BF
:102E2000CF92DF92EF92FF920F931F93CF93DF9396
:102E3000EC017A018B012D81222309F480C08B895A
:102E40009C89AD89BE8984179507A607B70708F442
:102E500076C085C0E114F1040105110549F41E8214
:102E60001F82188619861A861B861C861D8665C0D9
:102E70002A853B854C855D85EB8DFC8D858590E0B5
:102E80000996215030404040504039014A01082EF7
:102E900004C096948794779467940A94D2F72F5F2E
:102EA0003F4F4F4F5F4F0894E108F10801091109A6
:102EB0005701680104C0D694C794B794A7948A9523
:102EC000D2F70894E11CF11C011D111DA614B704D2
:102ED000C804D90428F0211531054105510549F4EC
:102EE0008F89988DA98DBA8D8E839F83A887B98786
:102EF00016C0A618B708C808D90811C04E815F814E
:102F0000688579858B8D9C8D94010E942E21089473
:102F1000A108B108C108D108882331F410C086E0A7
:102F2000882E912C8C0E9D1EA114B104C104D104D5
:102F300029F7EA86FB860C871D8781E001C080E0C7
:102F4000DF91CF911F910F91FF90EF90DF90CF9085
:102F5000BF90AF909F908F907F906F900895223098
:102F600009F078CFE6CFCF93DF93EC01462F6E8543
:102F70007F85888999890E94121F882319F420E08F
:102F800030E00AC08A89282F30E095E0220F331FF5
:102F90009A95E1F721573D4FC901DF91CF910895EF
:102FA0000F931F93CF93DF938C01FC0185818823BE
:102FB000D9F1848187FF35C0C80161E00E94B31751
:102FC000EC01009789F1F8018581823040F4838912
:102FD0009489A589B6898C8F9D8FAE8FBF8FF8019C
:102FE0008789908D9B8F8A8F8789908DA18DB28DD7
:102FF000CD01AA27BB279D8B8C8BE0918D02F09190
:103000008E02309751F0BE016A5E7F4FCE01489626
:103010000995888D998D9B8B8A8BF80184818F7798
:1030200084830E94B31E01C080E0DF91CF911F9185
:103030000F910895CF93DF93EC010E94D01788235E
:1030400011F01D8281E0DF91CF9108956F927F9200
:103050008F929F92AF92BF92CF92DF92EF92FF92A8
:103060000F931F93DF93CF9300D000D0CDB7DEB77F
:103070007C015A016B01DC0115968C91159781300A
:1030800009F08FC014968C9181FF8BC09EC0009771
:10309000A105B10511F481E085C0F7016284738454
:1030A00084849584C701B601A5010E940A1788236C
:1030B00009F477C0D7015B968D919C915C97A11420
:1030C000B104C104D10489F457964D915D916D917D
:1030D0007C915A970E94A121882309F462C0F701CC
:1030E000178A108E118E128E3DC0D70116964D9103
:1030F0005D916D917C9119979E012F5F3F4F0E94CA
:103100002E21882309F44DC0D7015B96ED91FC91E7
:103110005C9749815A816B817C818789803129F054
:1031200088EF9FEFAFEFBFE004C088EF9FEFA0E014
:10313000B0E0481759076A077B07A0F4CF010E9447
:10314000A121882371F1F70146815781608571853E
:10315000838D948D0FEF1FEF2FEF3FE00E949220A1
:103160008823F9F0D7015396AD92BD92CD92DC92AF
:10317000569714968C911497806814968C93C70177
:103180000E94D017882369F0B601A5016A147B0458
:103190008C049D0410F4B401A301C7010E940A1716
:1031A00001C080E00F900F900F900F90CF91DF91B2
:1031B0001F910F91FF90EF90DF90CF90BF90AF9055
:1031C0009F908F907F906F900895F70183899489E5
:1031D000A589B68984179507A607B70708F057CFC2
:1031E000E0CFCF93DF93EC0140E050E060E070E08F
:1031F0000E942618882369F0CE0161E00E94B3176F
:10320000FC01009731F085EE80831D820E94B31E81
:1032100001C080E0DF91CF9108952F923F924F92AD
:103220005F926F927F928F929F92AF92BF92CF9256
:10323000DF92EF92FF920F931F93CF93DF93EC01F6
:103240002A018D81882309F4C6C08C8180FFC3C008
:10325000D8C025014E185F084B0176E0272E312C8F
:103260002C0E3D1E3201B1C02A853B854C855D8503
:103270006FEFA62E61E0B62EA222B3228D817901D6
:103280008A0199E016950795F794E7949A95D1F7F6
:10329000EB8DFC8D823049F4428D538D648D758D9C
:1032A0004E0D5F1D601F711F3FC0D480DA94DE2079
:1032B000A114B104D9F4DD20C9F42115310541056B
:1032C000510549F48F89988DA98DBA8D8E839F837E
:1032D000A887B9870BC04E815F8168857985CF014A
:1032E00091010E942E21882309F475C0EB8DFC8D7D
:1032F0004E815F81688579854250504060407040C2
:10330000058404C0440F551F661F771F0A94D2F727
:1033100086859785A089B189480F591F6A1F7B1F31
:103320004D0D511D611D711D80E092E08A199B09B0
:1033300063018615970508F46C018C8186FD06C033
:1033400080E0C81682E0D80609F073C0809153016E
:1033500090915401A0915501B09156014817590719
:103360006A077B0709F465C080918F0490919004EF
:103370009501860174010E944915882361F18C0C26
:103380009D1C12C0950121573D4FA9014C0D5D1D9B
:10339000D401F90102C081918D93E417F507D9F7A3
:1033A000E21BF30B8E0E9F1E960140E050E08A85D3
:1033B0009B85AC85BD85820F931FA41FB51F8A878F
:1033C0009B87AC87BD876C187D086114710409F078
:1033D0004BCFA20102C04FEF5FEFCA01DF91CF9147
:1033E0001F910F91FF90EF90DF90CF90BF90AF9023
:1033F0009F908F907F906F905F904F903F902F9015
:103400000895AB88BC88CD88DE88EA84FB840C856F
:103410001D859A0140E050E0D601C5018E199F0933
:10342000A00BB10B82179307A407B50708F411CFBF
:1034300013CFCB01BA0140E00E94121F882309F08C
:10344000A1CFC9CFCF92DF92EF92FF920F931F933C
:10345000DF93CF930F92CDB7DEB76C01FC0185816E
:10346000823070F0E284F38404851585C601BE01C4
:103470006F5F7F4F41E050E00E940D19019769F0A6
:1034800020E030E0C9010F90CF91DF911F910F91A3
:10349000FF90EF90DF90CF900895F601828593859D
:1034A000A485B5854F96A11DB11D82879387A487FA
:1034B000B587F5E016950795F794E794FA95D1F757
:1034C0008E2D8F70282F30E0E5E0220F331FEA9514
:1034D000E1F721573D4FD6CF0F931F93CF93DF9343
:1034E000EC018B018D81882309F041C0FB018789A4
:1034F0008031B1F482E08D831F8A188E198E1A8E66
:10350000808D918DA0E0B0E045E0880F991FAA1F43
:10351000BB1F4A95D1F78B8B9C8BAD8BBE8B15C097
:10352000803229F583E08D83FB01428D538D648DBC
:10353000758D4F8B588F698F7A8F9E012D5E3F4F0F
:10354000C8010E94FA21882391F01C8F0B8F81E023
:103550008C831E821F82188619861A861B861C86FB
:103560001D861E861F86188A198A1A8A01C080E065
:10357000DF91CF911F910F9108951F93CF93DF9308
:10358000EC01142FE62FF0E075E0EE0FFF1F7A95A7
:10359000E1F7E157FD4F8385817121F0842F82741B
:1035A00009F054C06A8B8091530190915401A0910D
:1035B0005501B09156018E879F87A88BB98B84895E
:1035C0009589A0E0B0E0BC0155274427828D938DFA
:1035D000A0E0B0E0482B592B6A2B7B2B4F8B588FE8
:1035E000698F7A8F838590E088719070009751F48D
:1035F000848D958DA68DB78D8B8B9C8BAD8BBE8B63
:1036000081E00CC0409711F59E012D5E3F4F8B8DE0
:103610009C8D0E94FA218823C9F084E08D83812F3C
:103620008F708C831E821F82188619861A861B86CD
:103630001C861D8616FD02C081E009C0CE0140E057
:1036400050E060E070E00E94261801C080E0DF9149
:10365000CF911F910895CF93DF93EC019C012A5FD6
:103660003F4F8B8D9C8D41E050E060E070E00E9408
:1036700069228823A1F08F89988DA98DBA8D009732
:10368000A105B10559F48E819F81A885B9858F8BDD
:10369000988FA98FBA8F8C8180688C8381E0DF91AD
:1036A000CF9108952F923F924F925F927F928F9287
:1036B0009F92AF92BF92CF92DF92EF92FF920F93C1
:1036C0001F93DF93CF9300D000D000D0CDB7DEB7EB
:1036D0006C01162F072F5E834D83DC0115968C91AC
:1036E0001597813009F070C114968C9181FF6CC1DF
:1036F0008EC1F601438954896589768982859385CF
:10370000A485B58584179507A607B70731F0C601CC
:103710000E940A17882309F457C1812F902F9C011A
:1037200029012D803E8017C1D6015B96ED91FC9159
:103730005C97DA01C90119E0B695A7959795879529
:103740001A95D1F774807A9478227FEF872E71E0F2
:10375000972E82229322772009F04EC08114910483
:1037600009F04AC0D60116964D915D916D917C91FC
:103770001997411551056105710581F457968D9191
:103780009D910D90BC91A02D0097A105B10549F127
:10379000F60186839783A087B1872EC0CF019E0153
:1037A0002F5F3F4F0E942E21882309F414C12981E5
:1037B0003A814B815C81D6015B96ED91FC915C97DF
:1037C0008789803129F088EF9FEFAFEFBFE004C019
:1037D00088EF9FEFA0E0B0E0281739074A075B07A2
:1037E00030F0C6010E942B1B882331F4EDC0F60196
:1037F000268337834087518780E092E088199909B2
:1038000051018215930508F45C01D6015B96ED9198
:10381000FC915C971696ED90FD900D911C91199777
:103820008EEF9FEFAFEFBFEFE80EF91E0A1F1B1FD1
:10383000058404C0EE0CFF1C001F111F0A94D2F770
:1038400086859785A089B189E80EF91E0A1F1B1F7E
:10385000E70CF11C011D111D90E0A91692E0B906BC
:1038600051F58091530190915401A0915501B0916F
:1038700056018E159F05A007B10761F48FEF9FEFEA
:10388000AFEFBFEF8093530190935401A093550184
:10389000B093560180918F0490919004B801A701D4
:1038A00092010E94EC14882309F48EC0A0E0B2E0DB
:1038B0004A0E5B1E3EC08114910409F5F601228573
:1038C00033854485558583899489A589B6892817C8
:1038D00039074A075B0798F00E94B31E882309F452
:1038E00073C0E0925301F09254010093550110937C
:1038F00056018091910481608093910408C0C801B1
:10390000B70141E00E94121F882309F45DC09401B1
:1039100021573D4FA9014A0D5B1DD201F90102C09B
:103920008D918193E417F507D9F7E21BF30B4E0E47
:103930005F1E2A183B08950140E050E0F6018285A1
:103940009385A485B585820F931FA41FB51F828719
:103950009387A487B587D6011A962D913D914D91F5
:103960005C911D972114310409F0DECE53968D91A0
:103970009D910D90BC91A02D82179307A407B507C8
:1039800048F4F601238B348B458B568B84818068F9
:10399000848311C080918D0290918E02892B59F001
:1039A0008D819E81892B39F0D60114968C911497C4
:1039B000806814968C93F601848183FF0EC0C60143
:1039C0000E94D017882349F481E090E0D601139635
:1039D0009C938E9312971E821D828D819E812696C6
:1039E0000FB6F894DEBF0FBECDBFCF91DF911F9110
:1039F0000F91FF90EF90DF90CF90BF90AF909F908E
:103A00008F907F905F904F903F902F90089582FD10
:103A100070CE83CEDF93CF930F92CDB7DEB769839D
:103A2000BE016F5F7F4F41E050E00E94521B0F903C
:103A3000CF91DF910895DF92EF92FF920F931F9342
:103A4000CF93DF93EC010E942B1B882309F44EC017
:103A5000EB8DFC8DEE80FF80088519858EEF9FEF42
:103A6000AFEFBFEFE80EF91E0A1F1B1F058404C04D
:103A7000EE0CFF1C001F111F0A94D2F78685978554
:103A8000A089B189E80EF91E0A1F1B1FD480089473
:103A9000E108F108010911090BC0C801B7016D0D5A
:103AA000711D811D911D0E94EE1E8823F9F0DA948C
:103AB000DD2099F7EB8DFC8D20E032E040E050E016
:103AC000058404C0220F331F441F551F0A94D2F7E8
:103AD0008B899C89AD89BE89820F931FA41FB51F56
:103AE0008B8B9C8BAD8BBE8B81E001C080E0DF9126
:103AF000CF911F910F91FF90EF90DF9008956F92FB
:103B00007F928F929F92AF92BF92CF92DF92EF926D
:103B1000FF920F931F93DF93CF93CDB7DEB72B9711
:103B20000FB6F894DEBF0FBECDBF5C016B01822ED5
:103B3000DC0115968C91882309F0D2C0CA018E0150
:103B40000F5F1F4FB8010E94C916882309F4C8C02F
:103B5000F601838D948DD5015C969C938E935B9733
:103B60001682178210861186D6011A961D921D9212
:103B70001D921C921D979924380141C0C6010E94D4
:103B8000221AFC01009709F4ABC085E01695079551
:103B9000F794E7948A95D1F71E2D1F7080818823B2
:103BA00011F0853ED1F4992091F4D50152961C93E1
:103BB00052972091530130915401409155015091F9
:103BC00056011E962D933D934D935C9351978081A2
:103BD000882399F49924939421C0C301BF014BE039
:103BE00050E00E94AD03009751F4882D807380331C
:103BF00009F476C0C501612F6FC099249394F60132
:103C0000E284F3840485158583899489A589B6891E
:103C1000E816F9060A071B0708F4B0CF882D827151
:103C2000823109F05DC0992041F0C50161E00E9438
:103C3000B3178C01009789F453C0D60115968C9167
:103C4000823009F44DC0C6010E941B1D882309F46F
:103C500047C0F501128A0FE812E080E2D8011D92F8
:103C60008A95E9F7D801FE0131968BE001900D921B
:103C70008150E1F7E0918D02F0918E02309739F09A
:103C8000B801625F7F4FC8014096099509C081E283
:103C900098E2F801918B808B80E098E09787868787
:103CA000D80150968D919C91519753969C938E93E9
:103CB000529759969C938E9358971E968D919C91EE
:103CC0001F9757969C938E9356970E94B31E8823F6
:103CD00039F0C501F5016289482D0E94BD1A01C065
:103CE00080E02B960FB6F894DEBF0FBECDBFCF910C
:103CF000DF911F910F91FF90EF90DF90CF90BF90D9
:103D0000AF909F908F907F906F9008950F931F9327
:103D1000DF93CF93CDB7DEB76D970FB6F894DEBFC4
:103D20000FBECDBF9C01AB011C821B828EE791E0D0
:103D30009A8389831E828E010F5F1F4FC801B901CC
:103D400022E00E947F1D882319F0C8010E94F1180B
:103D50006D960FB6F894DEBF0FBECDBFCF91DF9149
:103D60001F910F91089580919104882399F14091BA
:103D70005301509154016091550170915601809109
:103D80008F04909190042FE832E00E94EC14882375
:103D900019F14091920450919304609194047091B0
:103DA0009504411551056105710591F080918F04CD
:103DB000909190042FE832E00E94EC14882361F087
:103DC000109292041092930410929404109295040D
:103DD0001092910481E0089580E00895EF92FF929F
:103DE0000F931F937B018C010E94B31E8823A9F0BF
:103DF000EFE8F2E0119284E0EF38F807D9F7E092AB
:103E00005301F09254010093550110935601809193
:103E1000910481608093910481E01F910F91FF9044
:103E2000EF900895DF92EF92FF920F931F937B0123
:103E30008C01D42E8091530190915401A091550191
:103E4000B09156018E159F05A007B107C1F00E94E1
:103E5000B31E8823D9F080918F0490919004B8010B
:103E6000A7012FE832E00E94E615882379F0E0925E
:103E70005301F09254010093550110935601809123
:103E800091048D298093910481E001C080E01F910D
:103E90000F91FF90EF90DF9008958F929F92AF92D5
:103EA000BF92CF92DF92EF92FF920F931F93CF9327
:103EB000DF936C01142F7093900460938F0444235C
:103EC00021F488249924540140C0453008F01CC1D5
:103ED00060E070E080E090E040E00E94121F8823E4
:103EE00009F412C1C12FD0E02197FE0174E0EE0F5A
:103EF000FF1F7A95E1F7E157FD4FE254FE4F8081B5
:103F0000EE5BF14090E08F779070892B09F0FCC058
:103F1000E653FE4F80819181A281B3818436910561
:103F2000A105B10508F4F0C064E0CC0FDD1F6A956F
:103F3000E1F7CB5ADB4F88809980AA80BB8081143F
:103F40009104A104B10409F4DFC0C501B40140E04B
:103F50000E94121F882309F4D7C080919A02909181
:103F60009B028050924009F0CFC020919F022223F3
:103F700009F4CAC080919D0290919E02892B09F498
:103F8000C3C080919C02882309F4BEC0F601228B35
:103F900080919C028483158661E070E007C04F5FCA
:103FA000F60145874150483008F0AEC0F60145851E
:103FB000848190E09B01042E02C0220F331F0A94DB
:103FC000E2F78217930759F72091A5023091A602D4
:103FD0002115310519F040E050E008C02091B302EE
:103FE0003091B4024091B5025091B602F60125839A
:103FF000368347835087E0909D02F0909E0200E058
:1040000010E0E80CF91C0A1D1B1DE38AF48A058BDD
:10401000168B8091A0029091A102918F808F609168
:104020009F0270E080E090E00E9498356E0D7F1D49
:10403000801F911FF601628F738F848F958F20915F
:10404000A0023091A10255E0220F331F5A95E1F7EB
:1040500021503E4F232F3327269540E050E0260F76
:10406000371F481F591F26873787408B518B8091F8
:10407000A2029091A302009719F0A0E0B0E008C05E
:104080008091AF029091B002A091B102B091B202C2
:1040900085017401E21AF30A040B150BA8019701BC
:1040A000280F391F4A1F5B1FF601058404C056956F
:1040B0004795379527950A94D2F72187328743870A
:1040C0005487253FFFE03F07F0E04F07F0E05F0730
:1040D00010F48CE006C0255F3F4F4040504028F46C
:1040E00080E1F601878B81E010C08091BB02909146
:1040F000BC02A091BD02B091BE02F601828F938FE7
:10410000A48FB58F80E2EECF80E0DF91CF911F9139
:104110000F91FF90EF90DF90CF90BF90AF909F9066
:104120008F9008954F925F926F927F928F929F929D
:10413000AF92BF92CF92DF92EF92FF920F931F93B5
:10414000CF93DF93EC016A017B01280139014230F2
:1041500051056105710508F46FC089859A85AB85A5
:10416000BC850196A11DB11D84179507A607B70749
:1041700008F462C02B893C894D895E898F89803122
:1041800029F499278F2D7E2D6D2D09C0C701B60109
:1041900017E096958795779567951A95D1F74B0116
:1041A0005C01820E931EA41EB51E80915301909156
:1041B0005401A0915501B091560188169906AA069E
:1041C000BB0639F0C501B40140E00E94121F8823EC
:1041D00099F18F89803149F4F601F070EE0FFF1FDD
:1041E000E157FD4F518240820DC0F601EF77F0702C
:1041F000EE0FFF1FEE0FFF1FE157FD4F4082518270
:1042000062827382809191048160809391048A8993
:10421000823080F08D819E81AF81B885880E991E95
:10422000AA1EBB1E8092920490929304A0929404C2
:10423000B092950481E001C080E0DF91CF911F91A1
:104240000F91FF90EF90DF90CF90BF90AF909F9035
:104250008F907F906F905F904F900895CF92DF92F4
:10426000EF92FF920F931F93CF93DF93EC017A01AC
:104270008B01690189859A85AB85BC850196A11D55
:10428000B11D84179507A607B70708F450C02B89FE
:104290003C894D895E898F89803129F49927812F46
:1042A000702F6F2D09C0C801B701E7E0969587957B
:1042B00077956795EA95D1F7260F371F481F591F45
:1042C0008091530190915401A0915501B0915601F4
:1042D000281739074A075B0739F0CA01B90140E0DE
:1042E0000E94121F882319F18F89803159F4F70138
:1042F000F070EE0FFF1FE157FD4F80819181A0E02C
:10430000B0E00EC0F701EF77F070EE0FFF1FEE0F79
:10431000FF1FE157FD4F80819181A281B381BF7062
:10432000F60180839183A283B38381E001C080E0A2
:10433000DF91CF911F910F91FF90EF90DF90CF9081
:104340000895AF92BF92CF92DF92EF92FF920F93B8
:104350001F93DF93CF9300D000D0CDB7DEB76C01B1
:104360007A018B0182E090E0A0E0B0E0F60180836A
:104370009183A283B3835E010894A11CB11CC60182
:10438000B801A70195010E942E21882319F1C601C9
:10439000B801A70100E010E020E030E00E94922088
:1043A0008823C1F0E980FA800B811C81F60187899E
:1043B000803129F088EF9FEFAFEFBFE004C088EFB6
:1043C0009FEFA0E0B0E0E816F9060A071B07B8F275
:1043D00081E001C080E00F900F900F900F90CF917F
:1043E000DF911F910F91FF90EF90DF90CF90BF90E2
:1043F000AF9008954F925F926F927F928F929F92AB
:10440000AF92BF92CF92DF92EF92FF920F931F93E2
:10441000DF93CF9300D000D0CDB7DEB76C014983D6
:104420005A836B837C833901EE24FF2487012E019C
:104430000894411C511C812CA2E09A2EA12CB12C75
:1044400049815A816B817C81C60192010E942E2193
:10445000882351F1D501C401F601058404C0880FF9
:10446000991FAA1FBB1F0A94D2F7E80EF91E0A1F54
:104470001B1F29813A814B815C818789803129F01A
:1044800088EF9FEFAFEFBFE004C088EF9FEFA0E0A1
:10449000B0E0281739074A075B0790F2F301E08282
:1044A000F1820283138381E00F900F900F900F90A1
:1044B000CF91DF911F910F91FF90EF90DF90CF9000
:1044C000BF90AF909F908F907F906F905F904F9034
:1044D00008952F923F924F925F926F927F928F92A8
:1044E0009F92AF92BF92CF92DF92EF92FF920F9383
:1044F0001F93DF93CF93CDB7DEB72F970FB6F89406
:10450000DEBF0FBECDBF1C014A875B876C877D87EE
:104510003F872E87D9010D911D912D913C91011559
:1045200011052105310549F0480159010894811C04
:10453000911CA11CB11C198610C0FC0180809180C7
:10454000A280B38019868A859B85AC85BD8501973D
:10455000A105B10511F491E09987D10119968D91CA
:104560009D910D90BC91A02D0196A11DB11D8D8333
:104570009E83AF83B88775016401442455243201BA
:104580008E010F5F1F4FF10181859285A385B48550
:10459000481659066A067B0608F090C08D819E81F8
:1045A000AF81B8858C159D05AE05BF0550F482E03E
:1045B000882E912CA12CB12CB2E0CB2ED12CE12C49
:1045C000F12CC101B701A60198010E942E21882378
:1045D00009F474C089819A81AB81BC81A7019601DD
:1045E0002F5F3F4F4F4F5F4F0097A105B10519F067
:1045F00049015A010DC0281939094A095B098A8500
:104600009B85AC85BD85281739074A075B0759F09C
:104610000894411C511C611C711C0894C11CD11CC4
:10462000E11CF11CB0CFC101A601B7010FEF1FEFD4
:104630002FEF3FE00E949220882399F43FC026018B
:10464000370108944108510861087108C101B3019C
:10465000A201970186010E949220882379F17301BB
:1046600062018C149D04AE04BF0448F3AE85BF857F
:104670004D915D916D917C914115510561057105DB
:1046800039F0C101950184010E9492208823B1F084
:10469000EE85FF8580829182A282B382F985FF2315
:1046A00059F00894811C911CA11CB11CD1018D9260
:1046B0009D92AD92BC92139781E001C080E02F964D
:1046C0000FB6F894DEBF0FBECDBFCF91DF911F9123
:1046D0000F91FF90EF90DF90CF90BF90AF909F90A1
:1046E0008F907F906F905F904F903F902F900895A4
:1046F0002091170530E0F901E956FB4F80832F5FC9
:104700003F4F2F77307020931705809196048F5F6D
:104710008093960408959C01F999FECF32BD21BD86
:10472000F89A80B508959C01F999FECF1FBA32BD61
:1047300021BD60BD0FB6F894FA9AF99A0FBE08959C
:10474000DF93CF930F92CDB7DEB780689FB7998381
:10475000F89443988EBD0DB407FEFDCF8EB58EBD87
:104760000DB407FEFDCF8EB5439A99819FBF0F9080
:10477000CF91DF910895DF93CF930F92CDB7DEB73E
:10478000482F20E030E0942F906C8FB78983F89405
:1047900043989EBD0DB407FEFDCF8EB5CB01022E12
:1047A00002C0969587950A94E2F78EBD0DB407FE78
:1047B000FDCF8EB5439A89818FBF4F5F285F3F4FF2
:1047C0002031310501F70F90CF91DF910895DF93EC
:1047D000CF930F92CDB7DEB7482F20E030E0FB013A
:1047E000E20FF31FE081942F920F906C8FB78983B3
:1047F000F89443989EBD0DB407FEFDCF8EB5EEBD77
:104800000DB407FEFDCF8EB5439A89818FBF2F5F10
:104810003F4F2830310519F70F90CF91DF91089560
:10482000FF920F931F93DF93CF930F92CDB7DEB715
:10483000182FF62E042F0E94A023982F106C8FB7EC
:104840008983F89443981EBD0DB407FEFDCF8EB545
:10485000802F809589230F21802B8EBD0DB407FEFC
:10486000FDCF8EB5439A89818FBF0F90CF91DF9195
:104870001F910F91FF900895DF93CF930F92CDB7C3
:10488000DEB7782F392FA22F862F90E0820F911D4F
:104890008038910554F58FB78983F894439880E662
:1048A0008EBD0DB407FEFDCF8EB5872F932F9C01D3
:1048B000F90107C080818EBD0DB407FEFDCF319692
:1048C0008EB58E2F871B8617A8F3FA0107C080814B
:1048D0008EBD0DB407FEFDCF31968EB58E2F841B95
:1048E0008A17A8F3439A89818FBF0F90CF91DF91E8
:1048F0000895813051F0813028F0823049F08330C2
:10490000E1F411C08CE068E005C08CE06CE002C00E
:104910008CE06CE14FE30E94102486E162E043E00A
:104920000E94102408958CE060E04FE30E94102460
:1049300086E163E043E00E941024089588E00E942D
:10494000A0238F71089584B1886284B93B9A2D9A0F
:10495000439A2C9A2A9A8CB581618CBD8DB5816061
:104960008DBD8CB580648CBD439A08950E949E24B1
:1049700008950F931F93082F429B02C084E445C003
:1049800081E00E94A023182F1F71812F8151823056
:1049900020F0113011F0123031F481E00E94A02398
:1049A0008F718117D1F3063179F0093151F0083058
:1049B000B1F4429886E090E00E940A2F82E063E022
:1049C00007C0163161F402C0193149F482E069E090
:1049D0004FE10E94102481E090E00E940A2F82E0C3
:1049E000602F4FE10E941024183011F081E001C0C7
:1049F00084EB90E00E940A2F81E00E94A0238F7137
:104A0000801711F083E401C080E41F910F91089595
:104A10001F920F920FB60F921124AF92BF92CF92B6
:104A2000DF92EF92FF920F931F932F933F934F9339
:104A30005F936F937F938F939F93AF93BF93EF9306
:104A4000FF93DF93CF93CDB7DEB7E497DEBFCDBF43
:104A50008FB78983F8941E9BBCC043988FE88EBDA6
:104A60000DB407FEFDCF8EB51EBC0DB407FEFDCF05
:104A70000EB5439A20E2E22E90E8A92EB12C83E0F5
:104A8000C82ED12CCC0EDD1EA1C002FF02C00B7FB0
:104A90009DC003FF7EC081E00E94A0238F718630FD
:104AA00029F0863119F0813109F069C087E00E9450
:104AB000A02380932B0586E00E94A023881F8827CF
:104AC000881F80932C05882309F45CC08FB78A83E4
:104AD000F8944398EEBC0DB407FEFDCF8EB51EBC16
:104AE0000DB407FEFDCFFEB48F2D83508D37B8F582
:104AF0002F2D30E080919604A501481B5109241701
:104B0000350714F080E016C08F2D0E94782310E046
:104B100008C01EBC0DB407FEFDCF8EB50E947823E1
:104B20001F5F1F15B0F31BC01EBC0DB407FEFDCFE9
:104B30009EB58F5F8F15C0F3809125059091260556
:104B400001969093260580932505C6016FE573E0D5
:104B50000E94A6038BEC96E0B6010E94E933439ACB
:104B60008A818FBF80911D0590911E0501969093BB
:104B70001E0580931D0581E080931B0503C081E025
:104B800080931C0586E10E94B9248034D9F7077F01
:104B90001DC006FF0BC00F7B809127059091280553
:104BA0000196909328058093270510C001FF02C04D
:104BB0000D7F0CC000FF02C00E7F08C007FF06C0BB
:104BC0000F77809129058F5F80932905002309F0D5
:104BD0005CCF89818FBFE496DEBFCDBFCF91DF91DF
:104BE000FF91EF91BF91AF919F918F917F916F91C5
:104BF0005F914F913F912F911F910F91FF90EF90F7
:104C0000DF90CF90BF90AF900F900FBE0F901F908E
:104C10001895FF920F931F93CF93DF93EC018B01B5
:104C2000F42E81E00E94A0238F71823001F1823145
:104C3000F1F089E10E94B924CE016AE0A8012F2D8C
:104C40000E943C2481E080932D0582E062E04FE1E8
:104C50000E94102480911C058823E1F310921C050A
:104C600082E00E94A02382958695877001C084E42B
:104C7000DF91CF911F910F91FF9008957F928F92B6
:104C80009F92AF92BF92CF92DF92EF92FF920F93DB
:104C90001F93DF93CF93CDB7DEB72A970FB6F89463
:104CA000DEBF0FBECDBF7C016B01042F48E9742E1F
:104CB00034E3832E32E1932E5E010894A11CB11CD3
:104CC00055C0102F053608F014E68FEFE8168FEF69
:104CD000F80611F481E401C081E6155F19831B50C9
:104CE0008A837B8280911A058C838F5F80931A055B
:104CF0009E828D82F886EF82809118059091190529
:104D00009A878987C501B601412F0E940926282F5D
:104D1000882359F1382F8330F1F0843018F4813032
:104D200071F404C0853069F0803449F480911F0526
:104D30009091200501969093200580931F05322FB6
:104D400019C080912105909122050196909322052A
:104D5000809321050FC08091230590912405019631
:104D6000909324058093230505C0011B002309F0BF
:104D7000A8CF30E0832F2A960FB6F894DEBF0FBE7F
:104D8000CDBFCF91DF911F910F91FF90EF90DF90FA
:104D9000CF90BF90AF909F908F907F9008950E948A
:104DA0003E260895882329F088E00E94B9243A9885
:104DB000089542983A9A80E793E00E940A2F86E18C
:104DC0000E94B92408950E94D22608951F93182F97
:104DD00088E0612F4FE10E94102481E00E94A0230F
:104DE0008F71863011F0893021F486E990E00E94BD
:104DF0000A2F88E00E94A02390E08F719070212FED
:104E000030E08217930711F083E401C080E41F9122
:104E100008950E94E62608959C01F999FECFCB01E2
:104E2000B9012BE833E20E9422040895DF93CF9367
:104E300000D0CDB7DEB789E090E0BE016F5F7F4F55
:104E400042E050E00E940C2789819A810F900F90D8
:104E5000CF91DF9108950E9416270895BC0180E04C
:104E600090E048E050E00E940C2708950F931F93B4
:104E7000DF93CF93CDB7DEB7EB970FB6F894DEBFD5
:104E80000FBECDBF0E94A3243A9A8FB78983F894AE
:104E900043988EEC8EBD0DB407FEFDCF8EB51EBCC3
:104EA0000DB407FEFDCF8EB5439A89818FBF82E096
:104EB00063E04FE10E9410248EEF91E00E940A2FE0
:104EC00081E00E9479248BE00E94E62685E060E87C
:104ED00040E80E94102486E10E94B92482E264E343
:104EE00072E10E94BB230E941627BC0180E20E944F
:104EF000BB238E010E5F1F4FC8010E942E2784E244
:104F0000B8010E94E7238FE00E94A0238FB7898316
:104F1000F89443988EEC8EBD0DB407FEFDCF8EB590
:104F200088E08EBD0DB407FEFDCF8EB5439A898112
:104F30008FBF80916B00806480936B0080916800CC
:104F400081608093680081E00E94A0238F71863188
:104F500011F481E00EC08E01065F1F4FC80166ED9F
:104F600073E00E94A6038BEC96E0B8010E94E9333F
:104F700080E0EB960FB6F894DEBF0FBECDBFCF91A9
:104F8000DF911F910F910895F999FECF23E933E244
:104F90000E943E040895DF93CF9300D0CDB7DEB7D3
:104FA0009A83898389E090E0BE016F5F7F4F42E082
:104FB00050E00E94C42769817A8180E20E94BB236D
:104FC00089819A8190931905809318050F900F900D
:104FD000CF91DF9108950E94CB27089586E1E8E103
:104FE000F5E0DF011D928A95E9F70E94162790935C
:104FF0001905809318050E94362708950E94EE2710
:105000000895F999FECF72BD61BDF89A80B50895F3
:1050100020E030E080912F05882311F421E030E07A
:10502000C9010895DC019C9121E030E007C0FD0139
:10503000E20FF31F808198272F5F3F4F2617370716
:10504000B4F3892F0895CF93DF93DC01EA019C919B
:1050500021E030E007C0FD01E20FF31F80819827B7
:105060002F5F3F4F26173707B4F388818A3314F038
:10507000875301C0805349814A3314F0475301C01C
:10508000405320E030E08295807F840F981711F420
:1050900021E030E0C901DF91CF910895CF93DF93F4
:1050A000DC018C91843259F5FD01E60FF71F33972F
:1050B00080818A3221F562507040ED01C60FD71F02
:1050C0006E5F7F4F9881892F80538A3018F09154FA
:1050D0009630A8F4FD01E60FF71F3197E0818E2F7F
:1050E00080538A3018F0E154E63048F46450704040
:1050F000CD010196AE010E9423289C0102C020E050
:1051000030E0C901DF91CF91089582E395E00895E1
:1051100090933105809330051092E20510922F058F
:105120007093E1056093E0058EEAE2E3F5E0DF01CC
:105130001D928A95E9F7089584E1ECECF5E0DF0132
:105140001D928A95E9F780913C0590913D059093D9
:10515000D6058093D50580913E0590913F059093AB
:10516000D9058093D8058091400590914105909391
:10517000DC058093DB0580917C0590917D05909303
:10518000CD058093CC0580917E0590917F0590930D
:10519000D0058093CF0580918005909181059093F3
:1051A000D3058093D2050895CF93DF93EC0110923D
:1051B000460510928B0510928A0510928D0510926B
:1051C0008E0510928F051092900587E0E2E9F5E0D8
:1051D000DF011D928A95E9F7EC85FD85E081EE23DC
:1051E00011F0E0934605EE85FF858081882331F03C
:1051F0008081918190938B0580938A05E889F98954
:105200008081882361F080819181A281B381809324
:105210008D0590938E05A0938F05B0939005EA8934
:10522000FB898081882339F0A2E9B5E087E001900D
:105230000D928150E1F7DF91CF910895CF93DF93E5
:10524000EC01ACE3B5E089E0FD0111928A95E9F744
:10525000109248051E968EE0FD01982F11929A95A6
:10526000E9F7109259055196FD0111928A95E9F7D7
:1052700010926A05519687E0FD01982F11929A9538
:10528000E9F71896FD0111928A95E9F7D89786E01B
:105290002CE735E0F90111928A95E9F785E024E8D9
:1052A00035E0F90111928A95E9F7EA81FB81808165
:1052B000882329F089E001900D928150E1F7EC817B
:1052C000FD81E081EE2311F0E0934805EE81FF813E
:1052D0008081882339F0AAE4B5E08EE001900D9238
:1052E0008150E1F7E885F985E081EE2311F0E09344
:1052F0005905EA85FB858081882339F0ABE5B5E067
:105300008EE001900D928150E1F7EC85FD85E08102
:10531000EE2311F0E0936A05EE85FF8580818823F6
:1053200039F0ACE6B5E087E001900D928150E1F7ED
:10533000E889F9898081882339F0A4E7B5E087E01E
:1053400001900D928150E1F7EA89FB8980818823E1
:1053500039F0ACE7B5E086E001900D928150E1F7BD
:10536000EC89FD898081882339F0A4E8B5E085E0E7
:1053700001900D928150E1F7DF91CF910895BF9296
:10538000CF92DF92EF92FF920F931F93DF93CF9311
:10539000CDB7DEB7AA970FB6F894DEBF0FBECDBF6C
:1053A000FE01339688E2DF011D928A95E9F7BB245E
:1053B000B3947F016E010894C11CD11C81C08091FF
:1053C000E205843608F07AC00091E0051091E1050D
:1053D000080F111DA0913005B0913105ED91FC91A0
:1053E00011970680F781E02DCD010995F8018083A2
:1053F0009091E205E091E005F091E105E90FF11DE2
:1054000080818A3009F054C00E94A32E6093E30586
:105410007093E4058093E5059093E6058091E2059D
:10542000E091E005F091E105E80FF11D1182109285
:10543000E2058091E0059091E105FC01DF010D900E
:105440000020E9F7AE1BBF0B1397BD010E944E2849
:10545000892B59F18091E0059091E1059A83898328
:105460008701C60166E271E00E940A04D8018D93AB
:105470009D938D01892BA9F70B811C81C80168E2DE
:1054800071E00E94D003009731F4C7010E941E29E9
:105490000E949C280AC0C8016FE271E00E94D003FC
:1054A000009719F4C7010E94D42810922F0508C054
:1054B000B0922F059F5F9093E20502C01092E20523
:1054C000E0913005F0913105A081B18114962D91C4
:1054D0003C911597CF01F9010995892B09F06FCF00
:1054E000AA960FB6F894DEBF0FBECDBFCF91DF9165
:1054F0001F910F91FF90EF90DF90CF90BF90089594
:105500001F920F920FB60F9211248F939F93809149
:10551000E7059091E80501969093E8058093E705EB
:105520009F918F910F900FBE0F901F9018956091D3
:10553000F3057091F4058091F5059091F6050895B5
:105540008091F3059091F405A091F505B091F605D1
:105550000196A11DB11D8093F3059093F405A093CE
:10556000F505B093F6050895EF92FF920F931F9300
:105570000E94A32E2091EB053091EC054091ED05A2
:105580005091EE05E090EF05F090F0050091F105E7
:105590001091F205621773078407950760F0E0E049
:1055A000F0E0621B730B840B950B6E157F05800773
:1055B000910790F00FC0E0E0F0E020953095409525
:1055C0005095260F371F481F591F2E153F054007BE
:1055D000510710F0E1E0F0E0CF011F910F91FF9033
:1055E000EF9008950E94A32E6093EB057093EC0555
:1055F0008093ED059093EE051092F3051092F4055B
:105600001092F5051092F60508958093E9059093A0
:10561000EA054093EF055093F0056093F105709310
:10562000F2051092F3051092F4051092F505109210
:10563000F60560EA7AE243E050E00E94D22D089538
:105640001F920F920FB60F9211242F933F934F93F7
:105650005F936F937F938F939F93AF93BF93EF93DA
:10566000FF938091F9050E9407300197A9F480917A
:10567000F7059091F8058130910571F49093FC0540
:105680008093FB050E94A32E6093FD057093FE0599
:105690008093FF0590930006FF91EF91BF91AF912A
:1056A0009F918F917F916F915F914F913F912F913A
:1056B0000F900FBE0F901F9018958130910541F407
:1056C0006F5F7F4F71F48DE096E00E94FA0E0895AF
:1056D000892B39F46F5F7F4F21F48DE096E00E94B3
:1056E0000D0F089580E090E06FEF7FEF0E945D2B3B
:1056F000089581E090E06FEF7FEF0E945D2B0895A9
:105700008F929F92AF92BF92CF92DF92EF92FF92D1
:105710000F931F93DF93CF93CDB7DEB7E6970FB606
:10572000F894DEBF0FBECDBF4C015B01109208069E
:105730001092070610920A061092090610920C06A3
:1057400010920B06809103060E940730892B19F0F6
:1057500020E030E0F0C081E090E090930806809374
:105760000706CE01019664E472E0A40123E10E94E1
:105770005A128B819C819093100680930F068D8125
:105780009E81AF81B8858093110690931206A093F5
:105790001306B093140689859A85AB85BC858093E2
:1057A000150690931606A0931706B0931806A9E164
:1057B000B6E0FE013D968DE001900D928150E1F73B
:1057C0008A8D9B8D9093270680932606CE010196A5
:1057D0000E940D0F8DE096E00E94620F882309F46D
:1057E000A6C081E090E090930A06809309061FB757
:1057F000F894C50164E670E00E94FF037C018DE02F
:1058000096E0B5010E94E9336C018DE096E06AE014
:105810000E948C32C80ED91E8DE096E00E946F0F58
:105820001FBFC7010196C816D90609F080C0CE0176
:105830004C9664E472E0A40121E00E945A128E8D1D
:105840009F8D9093100680930F0688A199A1AAA11D
:10585000BBA18093110690931206A0931306B093F8
:1058600014068CA19DA1AEA1BFA1809315069093B3
:105870001606A0931706B0931806A9E1B6E0FE013C
:10588000B8968DE001900D928150E1F78DA99EA907
:105890009093270680932606CE014C960E940D0F0A
:1058A0008DE096E00E94620F8823E9F18DE096E09A
:1058B0000E944F0FAB01BC01C601AA2797FDA0951E
:1058C000BA2F481B590B6A0B7B0B8DE096E00E94A8
:1058D000810F00E010E002C00F5F1F4F8DE096E0E7
:1058E0000E94930F982F8A3051F00E151F053CF43B
:1058F000F501E00FF11F8081981771F309C00E15B3
:105900001F0531F481E090E090930C0680930B0624
:105910008DE096E00E946F0F64E670E080E090E01A
:105920000E94B12E04C010920A061092090620911E
:105930000B0630910C06C901E6960FB6F894DEBF4F
:105940000FBECDBFCF91DF911F910F91FF90EF90D0
:10595000DF90CF90BF90AF909F908F900895EF927F
:10596000FF920F931F93DF93CF93CDB7DEB7E597E9
:105970000FB6F894DEBF0FBECDBF8E01025F1F4F82
:10598000C80163E874E00E94A6038BEC96E0B801BE
:105990000E94E933809103060E940730892B21F091
:1059A000C80160E874E003C0C8016CE774E00E94BD
:1059B000A6038BEC96E0B8010E94EC338E01025FE7
:1059C0001F4FC8016CE674E00E94A6038BEC96E0C2
:1059D000B8010E94E9338091050690910606892B53
:1059E00021F0C80168E674E003C0C80165E674E010
:1059F0000E94A6038BEC96E0B8010E94EC337E0176
:105A00000894E11CF11CC70169E574E00E94A6033B
:105A10008E01025F1F4FC80162E474E00E94A6037A
:105A2000C701B8010E94802BC80164E374E00E94A2
:105A3000A6038BEC96E0B8010E94E9338091090639
:105A400090910A06892BA9F0C80160E374E00E94D6
:105A5000A6038BEC96E0B8010E94EC3384E492E05C
:105A6000B7010E943111882371F4C8016FE074E01E
:105A700003C0C8016CE074E00E94A6038BEC96E0C2
:105A8000B8010E94EC338E01025F1F4FC8016DEF19
:105A900073E00E94A6038BEC96E0B8010E94E93304
:105AA00080910B0690910C06892B21F0C80169EFBB
:105AB00073E003C0C80166EF73E00E94A6038BEC9D
:105AC00096E0B8010E94EC33E5960FB6F894DEBF7D
:105AD0000FBECDBFCF91DF911F910F91FF90EF903F
