:100000000C94C9030C94883C0C94B93C0C94EA3CC5
:100010000C94F4030C945B350C945C2B0C94CC3A4C
:100020000C94F4030C94F4030C94F4030C94F40374
:100030000C94F4030C94F4030C94F4030C94F40364
:100040000C94F4030C94F4030C941B3D0C94F403F3
:100050000C94153F0C94AB3F0C94F4030C94F403F4
:100060000C94F4030C94F4030C94F4030C94F40334
:100070000C944E3F0C94F83F0C94F4030C94F4034E
:100080000C94F4030C94F4030C94F403206368615F
:1000900072616374657273206C6F6E670053796E62
:1000A000746861783A207365746964203C69643EC1
:1000B000202020202069642069732000202D2066E4
:1000C00061696C7572652E00202D20737563636500
:1000D00073732E004465766963652069643A200075
:1000E0006F6666006F6E00202053686F772074681B
:1000F00069732068656C703A202020202020202021
:1001000068656C7000202044697361626C65206CC6
:100110006F6720746F2073657269616C3A20766531
:1001200072626F7365206F6666002020456E6162A3
:100130006C65206C6F6720746F2073657269616CE9
:100140003A2020766572626F7365206F6E00202002
:10015000476574206465766963652069643A202088
:1001600020202020202020676574696400206368B7
:100170006172616374657273206C6F6E670020201A
:10018000536574206E6577206465766963652069C0
:10019000643A20202020207365746964203C6964DF
:1001A0003E20202020696420697320004C6973740C
:1001B000206F6620636F6D6D616E64733A004465F5
:1001C000766963652069643A20002D2D2D204469ED
:1001D00061676E6F7374696320454E44202D2D2D29
:1001E00000436F6F7264696E617465207472756E1E
:1001F000636174696F6E20656E61626C65642C6EFC
:100200006F00475053203150505320656E61626C2F
:1002100065642C6E6F00436F6D6D616E64206C6958
:100220006E6520696E7465726661636520656E61D6
:10023000626C65642C79657300506F776572206D10
:10024000616E6167656D656E7420656E61626C6577
:10025000642C7965730053797374656D20667265DB
:10026000652052414D2C0048562073656E73652001
:10027000656E61626C65642C6E6F006D5600426144
:10028000747465727920766F6C746167652C0048B0
:10029000756D69646974792C0054656D706572615F
:1002A000747572652C006E6F00796573005344207D
:1002B00072656164657220696E697469616C697ADE
:1002C00065642C0053442072656164657220656E1C
:1002D00061626C65642C79657300526164696F209A
:1002E0006368616E6E656C2C00526164696F206199
:1002F0006464726573732C006E6F007965730052CD
:100300006164696F20696E697469616C697A65649A
:100310002C00526164696F20656E61626C65642CAB
:10032000796573004465766963652049442C0056FD
:10033000657273696F6E2C002D2D2D2044696167E5
:100340006E6F73746963205354415254202D2D2DC8
:10035000002320436F6F7264696E6174652074724C
:10036000756E636174696F6E20656E61626C656441
:100370002C6E6F002320475053203150505320657E
:100380006E61626C65642C6E6F002320485620738A
:10039000656E736520656E61626C65642C6E6F00BE
:1003A0002320436F6D6D616E64206C696E652069FA
:1003B0006E7465726661636520656E61626C65640A
:1003C0002C796573002320506F776572206D616E04
:1003D0006167656D656E7420656E61626C65642C25
:1003E000796573002320534420726561646572202F
:1003F000656E61626C65642C7965730023205261BF
:1004000064696F20656E61626C65642C7965730048
:10041000232053797374656D20667265652052419F
:100420004D2C25644200232056657273696F6E2C33
:1004300000232057656C636F6D6520746F205361D6
:100440006665636173742062476569676965332017
:1004500053797374656D002425732C25732C323009
:1004600025732D25732D25735425733A25733A254D
:10047000735A2C25732C25732C25732C25732C76FD
:1004800025732C25642C25642C25642C2C25642CA8
:1004900025642C2564002425732C25732C323025EB
:1004A000732D25732D25735425733A25733A2573BF
:1004B0005A2C256C642C256C642C256C642C2563CB
:1004C0002C25732C25732C25732C25732C25732C2C
:1004D00025732C25732C25732C25730074696D6589
:1004E0006F7574006D73004750532073746172749C
:1004F0002074696D652C0056657273696F6E2D00EE
:100500002A2A2A2057656C636F6D6520746F2062FC
:10051000476569676965202A2A2A007C3C3E5E2B74
:100520003D3F2F5B5D3B2C2A225C004255464645F1
:10053000522046554C4C2E20544F5353494E472081
:10054000494E434F4D494E4720444154410A0043D0
:10055000484942493A20436F6D6D616E64206E6F69
:1005600074207265636F676E697A65642E002A2A4B
:100570002A2A2A2A2A2A2A2A2A2A2A2A2A204348AE
:10058000494249202A2A2A2A2A2A2A2A2A2A2A2A7F
:100590002A2A2A2A2A2A2A004348494249203E3E3A
:1005A0002000524144494F204E4F5420494E495457
:1005B00049414C495A45442050524F5045524C599C
:1005C0000A00434D443A20436F6D6D616E64206EA6
:1005D0006F74207265636F676E697A65642E002A96
:1005E0002A2A2A2A2A2A2A2A2A2A2A2A2A2A20435C
:1005F0004D44202A2A2A2A2A2A2A2A2A2A2A2A2A28
:100600002A2A2A2A2A2A00434D44203E3E20006EF0
:100610006F00796573004750532073797374656D6B
:1006200020737461727475702C006E6F007965733D
:10063000004750532074797065204D544B2C002492
:10064000504D544B3130312A33320024504D544BED
:100650003031302C3030312A32450024504D544B4B
:100660003031312C4D544B4750532A3038006E6F87
:100670000079657300534420726561642077726964
:1006800074652C006E6F0053442074657374203AB7
:100690002063616E27742072656D6F7665207465C6
:1006A00073742066696C6500796573005344206F2C
:1006B00070656E2066696C652C00546869732069EA
:1006C000732061206247656967696520746573748A
:1006D0000042475F544553542E545854006E6F00E7
:1006E00079657300534420696E697469616C697A35
:1006F00065642C00796573006E6F00534420696E49
:100700007365727465642C000000210024002700CA
:100710002A0000002200250028002B0000002000F5
:10072000230026002900020202020202020204043F
:100730000404040404040303030303030303010187
:1007400001010101010101020408102040800102A1
:10075000040810204080010204081020408001029B
:100760000408102040800000000102000809000079
:100770000000040307060000000000000000000065
:10078000000000000000E0081415D7363F396A4128
:10079000D03611241FBECFEFD0E4DEBFCDBF12E0B4
:1007A000A0E0B1E0EAE8FCE800E00BBF02C007907F
:1007B0000D92AC3AB107D9F71BBE1BE0ACEAB2E030
:1007C00001C01D92A131B107E1F717E0C0E9D7E000
:1007D00004C02297FE010E94FD45C638D107C9F723
:1007E0000E9495430C9438460C940000CF93DF93FD
:1007F000BC018230910510F462E070E0A0910F0B13
:10080000B091100BED01E0E0F0E040E050E021C0DD
:10081000888199818617970769F48A819B8130972F
:1008200019F09383828304C09093100B80930F0B75
:10083000FE0134C06817790738F44115510519F0E5
:100840008417950708F4AC01FE018A819B819C0105
:10085000E9012097E9F641155105A9F1CA01861B66
:10086000970B049708F4BA01E0E0F0E02AC08D91FC
:100870009C91119784179507F9F46417750781F413
:1008800012968D919C911397309719F093838283E0
:1008900004C09093100B80930F0BFD0132964CC057
:1008A000CA01861B970BFD01E80FF91F6193719335
:1008B00002978D939C9340C0FD01828193819C019E
:1008C000D9011097A1F680910D0B90910E0B892BF9
:1008D00041F480915F029091600290930E0B80939F
:1008E0000D0B40916102509162024115510541F496
:1008F0004DB75EB780915D0290915E02481B590B27
:1009000020910D0B30910E0BCA01821B930B8617A1
:10091000970780F0AB014E5F5F4F8417950750F04B
:10092000420F531F50930E0B40930D0BF90161932F
:10093000719302C0E0E0F0E0CF01DF91CF91089524
:10094000CF93DF93009709F450C0EC0122971B82EC
:100950001A82A0910F0BB091100B109709F140E093
:1009600050E0AC17BD0708F1BB83AA83FE012191BB
:100970003191E20FF31FAE17BF0779F48D919C916F
:100980001197280F391F2E5F3F4F39832883129606
:100990008D919C9113979B838A834115510571F426
:1009A000D093100BC0930F0B20C012968D919C9189
:1009B0001397AD01009711F0DC01D3CFFA01D38377
:1009C000C28321913191E20FF31FCE17DF0769F443
:1009D00088819981280F391F2E5F3F4FFA0131839B
:1009E00020838A819B8193838283DF91CF910895B5
:1009F000FB01DC0105900D920020E1F70895FB0159
:100A0000DC014150504030F08D910590801919F46F
:100A10000020B9F7881B990B08954CEA52E00E9418
:100A200095050895FB01DC0104C08D9101908019AA
:100A300021F441505040C8F7881B990B0895FB01E1
:100A4000DC010D900020E9F7119701900D92002034
:100A5000E1F70895FC018191861721F08823D9F7E9
:100A6000992708953197CF010895FB01DC018D91FD
:100A7000019080190110D9F3990B0895FB01DC0155
:100A800001900D920020E1F70895FB01DC010D902B
:100A90000020E9F711974150504028F001900020C4
:100AA0000D92C9F708951C920895FB01DC01415095
:100AB000504030F08D910190801919F40020B9F761
:100AC000881B990B0895FB01DC014150504048F010
:100AD00001900D920020C9F701C01D924150504075
:100AE000E0F70895FC016150704001900110D8F7C3
:100AF000809590958E0F9F1F0895FC01A081B18174
:100B0000AD01109681F03D91FB010190031601109B
:100B1000E1F7C9F7002011F4D00102C01E9211962E
:100B2000FC01A083B183CA010895009731F4DA0172
:100B30008D919C91009709F40EC0DC01FB013D9161
:100B40002191222319F03217C9F3FACF332331F45C
:100B5000DA011D921C928827992708951197AF9367
:100B6000BF93FB013D912191321771F4332321F49E
:100B700088279927119702C01E921196FA01A19316
:100B8000B0839F918F910895222369F7EACFA0E067
:100B9000B0E0EDECF5E00C940B467C01EB018A0132
:100BA000690109C0CE012196F6010995F7018193EB
:100BB0007F010150104001151105A1F7CDB7DEB737
:100BC000E8E00C942746A0E0B0E0E9EEF5E00C94F4
:100BD0000B46EC017B018A01690109C0CE01219617
:100BE000F70161917F01F60109950150104001154F
:100BF0001105A1F7CDB7DEB7E8E00C942746AEE0CB
:100C0000B0E0E5E0F6E00C940F460D891E8986E021
:100C10008C831A8309838FEF9FE79E838D839E01C8
:100C2000275E3F4FCE0101966F89788DA9010E9402
:100C300047062F813885020F131FF80110822E9668
:100C4000E4E00C942B46AEE0B0E0E9E2F6E00C9470
:100C50000F460D891E898EE08C831A8309838FEFDE
:100C60009FE79E838D839E01275E3F4FCE010196B5
:100C70006F89788DA9010E9447062F813885020F60
:100C8000131FF80110822E96E4E00C942B46ABE083
:100C9000B0E0EDE4F6E00C9401463C012B015A0172
:100CA000FC0117821682838181FD03C06FEF7FEF05
:100CB000C6C19AE0892E1E010894211C311CF30143
:100CC0002381F20123FD859123FF81912F01882348
:100CD00009F4B2C1853239F423FD859123FF819156
:100CE0002F01853229F490E0B3010E942F08E7CF4D
:100CF000982FFF24EE249924FFE1FF15D0F09B32BA
:100D000069F09C3228F4903259F0933291F40EC07D
:100D10009D3249F0903369F441E024C052E0F52A55
:100D200084E0F82A28C098E0F92A25C0E0E1FE2AEC
:100D300022C0F7FC29C0892F80538A3070F4F6FE58
:100D400005C0989C902C1124980E15C0E89CE02CAE
:100D50001124E80EF0E2FF2A0EC09E3229F4F6FCC0
:100D60006BC140E4F42A07C09C3619F450E8F52A18
:100D700002C0983649F4F20123FD959123FF919129
:100D80002F01992309F0B8CF892F8554833018F0AB
:100D90008052833038F444E050E0A40EB51E5FE387
:100DA00059830FC0933631F0933779F0933509F0BA
:100DB00056C020C0F5018081898342E050E0A40E36
:100DC000B51E610101E010E012C0F501C080D180C4
:100DD000F6FC03C06FEF7FEF02C0692D70E042E0C8
:100DE00050E0A40EB51EC6010E9472058C015FE79B
:100DF000F52214C0F501C080D180F6FC03C06FEF6E
:100E00007FEF02C0692D70E042E050E0A40EB51EF5
:100E1000C6010E9424088C0150E8F52AF3FE07C0A1
:100E20001AC080E290E0B3010E942F08EA948E2D50
:100E300090E008171907A8F30EC0F601F7FC85919A
:100E4000F7FE81916F0190E0B3010E942F08E1103D
:100E5000EA94015010400115110579F7EAC0943663
:100E600011F0993669F5F7FE08C0F501208131814E
:100E70004281538184E090E00AC0F5018081918134
:100E80009C01442737FD4095542F82E090E0A80E46
:100E9000B91E9FE6F92257FF09C05095409530953D
:100EA00021953F4F4F4F5F4FE0E8FE2ACA01B9013D
:100EB000A1012AE030E00E945B08D82ED21840C081
:100EC000953729F41F2D1F7E2AE030E01DC01F2D0D
:100ED000197F9F3661F0903720F4983509F0ACC047
:100EE0000FC0903739F0983709F0A6C004C028E049
:100EF00030E00AC0106114FD146020E130E004C04D
:100F000014FD166020E132E017FF08C0F501608192
:100F100071818281938144E050E008C0F5018081B5
:100F20009181BC0180E090E042E050E0A40EB51E4B
:100F3000A1010E945B08D82ED2188FE7F82EF1226B
:100F4000F6FE0BC05EEFF522D91438F4F4FE07C0AC
:100F5000F2FC05C08FEEF82202C01D2D01C0192D34
:100F6000F4FE0DC0FE01ED0DF11D8081803319F4FA
:100F700099EEF92208C01F5FF2FE05C003C08F2D55
:100F8000867809F01F5F0F2DF3FC14C0F0FE0FC030
:100F90001E1510F09D2C0BC09D2C9E0C911A1E2D21
:100FA00006C080E290E0B3010E942F081F5F1E156B
:100FB000C0F304C01E1510F4E11A01C0EE2404FFB2
:100FC0000FC080E390E0B3010E942F0802FF1DC014
:100FD00001FD03C088E790E00EC088E590E00BC0FB
:100FE000802F867891F001FF02C08BE201C080E281
:100FF000F7FC8DE290E0B3010E942F0806C080E369
:1010000090E0B3010E942F089A94D914C0F3DA94A7
:10101000F101ED0DF11D808190E0B3010E942F08D8
:10102000DD20A9F706C080E290E0B3010E942F08FE
:10103000EA94EE20C1F743CEF30166817781CB01BC
:101040002B96E2E10C941D46FC0105906150704026
:101050000110D8F7809590958E0F9F1F08950F93DC
:101060001F93CF93DF938C01EB018B8181FF1BC01A
:1010700082FF0DC02E813F818C819D812817390709
:1010800064F4E881F9810193F983E88306C0E88577
:10109000F985802F0995892B31F48E819F810196E6
:1010A0009F838E8302C00FEF1FEFC801DF91CF91A6
:1010B0001F910F910895FA01AA27283051F120318C
:1010C00081F1E8946F936E7F6E5F7F4F8F4F9F4FDC
:1010D000AF4FB1E03ED0B4E03CD0670F781F891F1E
:1010E0009A1FA11D680F791F8A1F911DA11D6A0FEC
:1010F000711D811D911DA11D20D009F468943F919F
:101100002AE0269F11243019305D3193DEF6CF019D
:101110000895462F4770405D4193B3E00FD0C9F763
:10112000F6CF462F4F70405D4A3318F0495D31FDD0
:101130004052419302D0A9F7EACFB4E0A695979523
:10114000879577956795BA95C9F7009761057105F9
:1011500008959B01AC010A2E069457954795379543
:101160002795BA95C9F7620F731F841F951FA01D9D
:1011700008958091FA02883519F420E030E305C023
:10118000992787FD9095382F22278091FB0288357B
:1011900059F0992787FD9095C09744E0880F991FD3
:1011A0004A95E1F7280F391F8091FC02883531F00C
:1011B000992787FD9095C097280F391FC901089579
:1011C00085E093E061E070E028E833E140E050E042
:1011D0000E9495330895CF92DF92EF92FF920F9382
:1011E0001F93CF93DF936C01C0E0D0E07B0100E060
:1011F00010E00BC02C9AC801B7010E947D3D2C98CD
:10120000C801B7010E947D3D2196CC15DD0590F304
:10121000DF91CF911F910F91FF90EF90DF90CF90D2
:101220000895EF92FF920F931F93DF93CF93CDB763
:10123000DEB7E2970FB6F894DEBF0FBECDBF8E01CA
:101240000F5F1F4FC8016EEB71E00E94F8046FEC56
:10125000E62E6AE0F62EC701B8010E948243C7015C
:101260006AEF72E00E948243C8016CEA71E00E945A
:10127000F804C701B8010E948243C8016EE771E01B
:101280000E94F804C701B8010E947F43C70163E0D0
:1012900070E04AE050E00E946C43C8016DE671E0E6
:1012A0000E94F804C701B8010E948243C8016EE49D
:1012B00071E00E94F804C701B8010E948243C8018E
:1012C0006AE271E00E94F804C701B8010E948243FB
:1012D000C80165E071E00E94F804C701B8010E94EE
:1012E0008243C80167EE70E00E94F804C701B801AC
:1012F0000E948243E2960FB6F894DEBF0FBECDBFC8
:10130000CF91DF911F910F91FF90EF9008950E9470
:10131000110908950F931F93DF93CF93CDB7DEB7D5
:101320006E970FB6F894DEBF0FBECDBFFB010297DC
:10133000D9F402811381C80164EE70E042E050E00C
:101340000E94FF04892B21F481E08093040319C0DB
:10135000C80160EE70E043E050E00E94FF04892B7A
:1013600019F4109204030DC08E010F5F1F4FC801C6
:1013700060E071E00E94F8048FEC9AE0B8010E94EE
:1013800082436E960FB6F894DEBF0FBECDBFCF91ED
:10139000DF911F910F910895CF92DF92EF92FF920C
:1013A0000F931F93DF93CF93CDB7DEB7E4970FB6BC
:1013B000F894DEBF0FBECDBF8E010D5F1F4FC80179
:1013C00068E373E00E94F8048FEC9AE0B8010E9491
:1013D0008243C8016FE273E00E94F8048FEC9AE048
:1013E000B8010E947F438FEC9AE06EE772E00E94A2
:1013F0008243C80164E273E00E94F8048FEC9AE033
:10140000B8010E947F438FEC9AE06AEF72E00E947D
:101410008243C80162E173E00E94F8048FEC9AE015
:10142000B8010E948243C8016FEF72E00E94F80485
:101430008FEC9AE0B8010E947F43809102038823D9
:1014400021F0C8016BEF72E003C0C80168EF72E0E1
:101450000E94F8048FEC9AE0B8010E94824380E079
:101460000E943B2D8E010D5F1F4FC80169EE72E097
:101470000E94F8048FEC9AE0B8010E947F430E941A
:10148000832DBC018FEC9AE040E150E00E94F142D4
:10149000C8016AED72E00E94F8048FEC9AE0B8018E
:1014A0000E947F430E940A2B682F8FEC9AE04AE04B
:1014B00050E00E940E4381E00E943B2D0E94983034
:1014C0000E940D38C80164EC72E00E94F8048FECB1
:1014D0009AE0B8010E948243C8016DEA72E00E945E
:1014E000F8048FEC9AE0B8010E947F4380910303D7
:1014F000882321F0C80169EA72E003C0C80166EAE6
:1015000072E00E94F8048FEC9AE0B8010E948243D6
:1015100080916A0760E00E94B13E64E670E080E07E
:1015200090E00E947D3D0E94CB350E94CB357B012F
:101530008C0173E0C72ED12CCC0EDD1EC60169E9EB
:1015400072E00E94F8048FEC9AE0B6010E947F439B
:10155000C801B7010E9471449B01AC018FEC9AE075
:10156000B9014AE050E00E946C438FEC9AE063E4DA
:101570000E9452420E94F6350E94F6357B018C0192
:10158000C6016FE872E00E94F8048FEC9AE0B601A1
:101590000E947F43C801B7010E9471449B01AC01C6
:1015A0008FEC9AE0B9014AE050E00E946C438FEC66
:1015B0009AE065E20E94524280916A0761E00E94CF
:1015C000B13E0E9470360E9470367B018C01C601CC
:1015D0006EE772E00E94F8048FEC9AE0B6010E9478
:1015E0007F43C801B70120E030E04AE754E40E949D
:1015F00030450E9471449B01AC018FEC9AE0B90127
:101600004AE050E00E946C43C6016BE772E00E9422
:10161000F8048FEC9AE0B6010E948243C60167E6A7
:1016200072E00E94F8048FEC9AE0B6010E948243B7
:10163000C60166E572E00E94F8048FEC9AE0B601FC
:101640000E947F4320910D0B30910E0BCE0101962D
:101650002115310519F481519B4002C0821B930B67
:101660009A83898369817A818FEC9AE04AE050E01D
:101670000E946C438FEC9AE062E40E9452428E0119
:101680000D5F1F4FC80169E372E00E94F8048FEC00
:101690009AE0B8010E948243C80166E172E00E94AC
:1016A000F8048FEC9AE0B8010E948243C80162E01E
:1016B00072E00E94F8048FEC9AE0B8010E94824325
:1016C000C80161EE71E00E94F8048FEC9AE0B80165
:1016D0000E948243C8016AEC71E00E94F8048FEC1A
:1016E0009AE0B8010E948243E4960FB6F894DEBFF8
:1016F0000FBECDBFCF91DF911F910F91FF90EF9063
:10170000DF90CF900895EF92FF920F931F93DF9396
:10171000CF93CDB7DEB7E4970FB6F894DEBF0FBE18
:10172000CDBF7C018E010D5F1F4FC80161E374E0E6
:101730000E94F804C701B8010E94DE36C80166E2C3
:1017400074E00E94F804C8016EE772E00E941F0571
:10175000C701B8010E94DE3620910D0B30910E0BAF
:10176000CE0101962115310519F481519B4002C02B
:10177000821B930B9A83898300D000D000D0EDB7F1
:10178000FEB731968E010D5F1F4FADB7BEB71296F3
:101790001C930E93119780E194E093838283898157
:1017A0009A81958384830E9423068DB79EB70696FF
:1017B0000FB6F8949EBF0FBE8DBFC701B8010E943F
:1017C000DE36C8016CEF73E00E94F804C701B8016F
:1017D0000E94DE36C80164EE73E00E94F804C7017F
:1017E000B8010E94DE36C80165EC73E00E94F8047F
:1017F000C701B8010E94DE36C80160EA73E00E94AA
:10180000F804C701B8010E94DE36C8016AE873E037
:101810000E94F804C701B8010E94DE36C80164E7DF
:1018200073E00E94F804C701B8010E94DE36C801C7
:1018300061E573E00E94F804C701B8010E94DE363A
:10184000E4960FB6F894DEBF0FBECDBFCF91DF9107
:101850001F910F91FF90EF9008950E94703620E045
:1018600030E04AE754E40E9430450E947144645ECF
:101870007C4044F48FEC9AE06AE171E00E9482437C
:101880000E94113408950F931F9383E090E064E663
:1018900070E00E94EB0883E061E00E94B13E80911D
:1018A000740761E00E94B13E86E060E00E94B13EB4
:1018B00085E060E00E94B13E87E060E00E94B13EBA
:1018C0001FB7F8948CE060E00E94B13E6AE070E0DF
:1018D00080E090E00E947D3D8CE061E00E94B13E9E
:1018E0001FBF81E00E943B2D8BE161E00E94B13E71
:1018F00080916A0761E00E94B13E2C988CE060E024
:101900000E94B13E8CE060E00E944D3E85E060E0C8
:101910000E94B13E85E060E00E944D3E87E060E0BD
:101920000E94B13E87E060E00E944D3E86E060E0AC
:101930000E94B13E86E060E00E944D3E0FEC1AE04E
:10194000C8016EE371E00E94824364E170E080E0D0
:1019500090E00E947D3DC8010E941C411F910F91A3
:1019600008951F938091AA099091AB09892B31F4B6
:1019700083E090E064E670E00E94EB0880917407D9
:1019800061E00E94B13E86E060E00E94B13E85E0E9
:1019900060E00E94B13E87E060E00E94B13E1FB768
:1019A000F8948CE060E00E94B13E6AE070E080E074
:1019B00090E00E947D3D8CE061E00E94B13E1FBF3F
:1019C0006AE070E080E090E00E947D3D80917407C5
:1019D00060E00E94B13E64E170E080E090E00E942F
:1019E0007D3D8CE061E00E944D3E8CE061E00E9414
:1019F000B13E85E061E00E944D3E87E061E00E94DB
:101A00004D3E86E060E00E944D3E86E061E00E942F
:101A1000B13E8DE061E00E94B13E82E161E00E9452
:101A2000B13E8EE090E064E170E04CE050E00E9456
:101A3000CF3804C08EEE9AE00E94F3408EEE9AE01A
:101A40000E94C240892BB1F783E060E00E94B13E62
:101A500080916A0760E00E94B13E1092FF021092EE
:101A6000FE021092010310920003EEEAF2E01192DE
:101A700011921192119282E0EE3DF807C1F7109297
:101A8000DE021092DF021092E0021092E102109248
:101A9000E2021092E3021092E4021092E502109228
:101AA000E7021092E60286E5809363021092040337
:101AB0008091AA099091AB09892B21F40E94203CC6
:101AC000809303038091AA099091AB09892B11F4AB
:101AD0000E94CC098BE160E00E94B13E62E370E0BD
:101AE00080E090E00E947D3D85E093E00E94E83335
:101AF0008FEC9AE06CE571E00E9482431F9108959B
:101B0000BF92CF92DF92EF92FF920F931F93CF93EA
:101B1000DF93F894FAEFEF2EF2E0FF2EC4E6D0E068
:101B2000E8E5BE2E6E0187EC95E0BE010E94B92962
:101B3000F701808301E010E00FC06AE070E080E010
:101B400090E00E947D3D87EC95E0B6010E94B929A6
:101B5000F70180830F5F1F4FF701808180538A3028
:101B600020F00330110549F714C021960894E11CB8
:101B7000F11CC736D105B1F61092FD027894DF91C1
:101B8000CF911F910F91FF90EF90DF90CF90BF907A
:101B90000895F701B082E9CF0F931F930E94800D43
:101BA0000FEC1AE0C80160E771E00E947F43C801B2
:101BB0006AEF72E00E9482431F910F910895CF92C5
:101BC000DF92EF92FF920F931F93DF93CF93CDB7E6
:101BD000DEB7A8970FB6F894DEBF0FBECDBF7B016E
:101BE000029709F05CC0A2E0CA2ED12CC60ED71E07
:101BF000DB0112964D915C91139720E030E002C01A
:101C00002F5F3F4FFA01E20FF31F80818823C1F756
:101C10002330310509F043C000E010E0D601ED911A
:101C2000FC91E00FF11F87EC95E00C591F4FB801B4
:101C300040810E94C029035610400330110571F7FE
:101C40000E94800D8E010F5F1F4FC80164ED70E090
:101C50000E94F8048FEC9AE0B8010E947F438FEC59
:101C60009AE06AEF72E00E947F43F701628173811C
:101C70008AEF92E043E050E00E945505009721F47E
:101C8000C80168EC70E003C0C8016CEB70E00E9412
:101C9000F8048FEC9AE0BE016F5F7F4F1DC08E018C
:101CA0000F5F1F4FC8016DE970E00E94F8048FECD0
:101CB0009AE0B8010E947F438FEC9AE063E070E005
:101CC0004AE050E00E946C43C8016CE870E00E945A
:101CD000F8048FEC9AE0B8010E948243A8960FB6F0
:101CE000F894DEBF0FBECDBFCF91DF911F910F9152
:101CF000FF90EF90DF90CF9008952F923F924F92F8
:101D00005F926F927F928F929F92AF92BF92CF928B
:101D1000DF92EF92FF920F931F93CF93DF937C019B
:101D200080916A0760E00E94B13E64E670E080E066
:101D300090E00E947D3D0E944B360E9470361B0150
:101D40002C010E94CB355B016C010E94F6353B01F2
:101D50004C0180916A0761E00E94B13E0E941630FA
:101D600024E6D7011D922A95E9F7EDB7FEB7BA9799
:101D70000FB6F894FEBF0FBEEDBF0DB71EB70F5FD5
:101D80001F4FF282E18227E534E0D80113963C939D
:101D90002E9312972BE632E015963C932E931497D0
:101DA0002AEF32E017963C932E93169780569F4F5A
:101DB00019969C938E93189703971B969C938E93DA
:101DC0001A9703971D969C938E931C9709961F96BE
:101DD0009C938E931E97039651969C938E93509747
:101DE000039653969C938E935297815990405596A3
:101DF0009C938E9354970F9657969C938E935697D9
:101E0000029659969C938E9358970F965B969C9347
:101E10008E935A978EE792E05D969C938E935C9793
:101E2000C601B5010E947144F801778F668FC40125
:101E3000B3010E947144D80191967C936E93909760
:101E4000C201B10120E030E04AE754E40E9430458D
:101E50000E947144F80173A362A380917A07909164
:101E60007B0795A384A3809178079091790797A326
:101E700086A380917E0790917F0791A780A70E94FB
:101E80002306D7010D900020E9F71197AE19BF097D
:101E90000A2FE701CA0FD11D18822DB73EB7265D64
:101EA0003F4F0FB6F8943EBF0FBE2DBFC70101963E
:101EB0006A2F70E00E94A32F282F803178F400D081
:101EC00000D000D0EDB7FEB73196ADB7BEB71296D1
:101ED000DC93CE9311978CE791E00EC000D000D038
:101EE00000D0EDB7FEB73196ADB7BEB71296DC9312
:101EF000CE93119781E891E09383828324831582A6
:101F00000E94FF05EDB7FEB736960FB6F894FEBFF8
:101F10000FBEEDBF802FDF91CF911F910F91FF90EA
:101F2000EF90DF90CF90BF90AF909F908F907F9079
:101F30006F905F904F903F902F9008956F927F9297
:101F40008F929F92AF92BF92CF92DF92EF92FF92C9
:101F50000F931F93CF93DF935C01380149010E94D7
:101F6000163024E6D5011D922A95E9F7EDB7FEB7A4
:101F7000F4970FB6F894FEBF0FBEEDBF3196ADB724
:101F8000BEB71296BC92AE92119726E934E0338325
:101F9000228324E632E0358324832AEF32E037833C
:101FA000268380569F4F91878087039793878287E8
:101FB0000397958784870996978786870396918BE1
:101FC000808B0396938B828B648A758A868A978A24
:101FD000C08ED18EE28EF38E2091E2023091E30228
:101FE0004091E4025091E502248F358F468F578F40
:101FF00020916302332727FD309531A320A3815917
:10200000904093A382A30F9695A384A3029697A3CF
:1020100086A30F9691A780A7889693A782A78A5434
:10202000904095A784A78E5B9F4F97A786A703969E
:1020300091AB80AB8754904093AB82AB0E94230658
:10204000D5010D900020E9F71197AA19BB091A2FA5
:10205000E501CA0FD11D1882EDB7FEB7F4960FB691
:10206000F894FEBF0FBEEDBFC50101966A2F70E068
:102070000E94A32F282F803178F400D000D000D008
:10208000EDB7FEB73196ADB7BEB71296DC93CE93DF
:1020900011978CE791E00EC000D000D000D0EDB7D2
:1020A000FEB73196ADB7BEB71296DC93CE931197BB
:1020B00081E891E093838283248315820E94FF0547
:1020C000EDB7FEB736960FB6F894FEBF0FBEEDBF64
:1020D000812FDF91CF911F910F91FF90EF90DF90B3
:1020E000CF90BF90AF909F908F907F906F9008950A
:1020F000AF92BF92CF92DF92EF92FF920F931F9316
:102100000E942D0C0E940D3580910303882311F04D
:102110000E94EF3B0E941634892B09F4B1C10E9442
:102120002739882309F4ACC18091FE029091FF0207
:10213000892B99F00E941630FC018689863579F446
:102140000E946F3D20ED37E040E050E00E94C54521
:10215000685E73408040904010F42C9A01C02C9827
:102160000E948F2F0E94D43285E093E00E94B0330A
:10217000892B09F47AC10E94992F892B09F475C122
:1021800085E093E00E949D335C01CC24DD2485E052
:1021900093E00E94E8336091DE027091DF0280914B
:1021A000E0029091E102FB01EE0FFF1FEE0FFF1F17
:1021B000E255FD4FA082B182C282D3826F5F7F4F12
:1021C0008F4F9F4F2CE030E040E050E00E94C5452B
:1021D0006093DE027093DF028093E0029093E1024D
:1021E000EEEAF2E0EE24FF24870181919191A19122
:1021F000B191E80EF91E0A1F1B1F22E0EE3DF20707
:10220000A1F78091E2029091E302A091E402B091E3
:10221000E5028A0D9B1DAC1DBD1D8093E2029093CB
:10222000E302A093E402B093E5022091E60230912C
:10223000E7022C30310554F486E5809363022F5F6A
:102240003F4F3093E7022093E6020AC0E114F10405
:102250000105110511F486E501C081E48093630254
:102260008091FE029091FF02892B09F066C00E94C6
:102270001630FC018689813469F00E941630805640
:102280009F4F65E871E042E050E00E9455050097DD
:1022900009F453C081E090E09093FF028093FE0226
:1022A00088EE92E068E871E00E943E050E941630D8
:1022B000BC0160567F4F88EE92E042E050E00E9401
:1022C000450585E793E068EE72E00E94031688EE0C
:1022D00092E06BE871E00E941F0588EE92E06AEFE1
:1022E00072E043E050E00E94450588EE92E06DE820
:1022F00071E00E941F050E941630BC0163567F4F9B
:1023000088EE92E042E050E00E9445050E941630BF
:10231000BC0166567F4F88EE92E042E050E00E949A
:10232000450588EE92E062E772E044E050E00E94EA
:10233000450588EE92E00E94830BE091DE02F09169
:10234000DF02EE0FFF1FEE0FFF1FE255FD4F408132
:1023500051816281738181E193E098018701760167
:1023600065010E949E0F8091FE029091FF02892BD1
:1023700079F410927F0710927E07809104038823DE
:1023800069F08FEC9AE06FE871E00E947F4306C02D
:1023900088EE92E061E173E00E94DE3680910203F4
:1023A000882399F080E00E943B2D6AE070E080E095
:1023B00090E00E947D3D8FEF9FEF61E173E044E686
:1023C0000E94272D81E00E943B2D0E941630FC01C7
:1023D0008689813479F480917E0790917F070197F7
:1023E00019F481E090E002C082E090E064E670E0E1
:1023F0000E94EB0880910403882331F08FEC9AE06F
:1024000061E173E00E94824381E193E00E947D0ECE
:102410008091FE029091FF02892B31F088EE92E0CC
:1024200061E173E00E94DE3680910203882399F017
:1024300080E00E943B2D6AE070E080E090E00E9426
:102440007D3D8FEF9FEF61E173E044E60E94272D11
:1024500081E00E943B2D80910403882331F08FECB2
:102460009AE061E173E00E9482430E9438391F9133
:102470000F91FF90EF90DF90CF90BF90AF900895B5
:1024800085E093E00E94E833F0CFEF92FF920F9344
:102490001F93DF93CF93CDB7DEB76E970FB6F89447
:1024A000DEBF0FBECDBF84E061E00E944D3E2C98A0
:1024B0008FEC9AE040E051EE60E070E00E94454011
:1024C0008E010F5F1F4FC80160E075E00E94F804A5
:1024D0008FEC9AE0B8010E948243C80167EF74E074
:1024E0000E94F8048FEC9AE0B8010E947F438FECC1
:1024F0009AE06EE772E00E9482438EEE9AE040E836
:1025000055E260E070E00E9445408EEE9AE061E1A5
:1025100073E00E949D3183E061E00E944D3E83E0C4
:1025200060E00E94B13E00E010E08EEE9AE00E9472
:10253000C240892B61F40436110549F06AE070E06D
:1025400080E090E00E947D3D0F5F1F4FEECF7E0147
:102550000894E11CF11CC70167EE74E00E94F804C6
:102560008FEC9AE0B7010E947F4304361105A4F472
:10257000B80193E0660F771F9A95E1F7000F111FDE
:10258000600F711F8FEC9AE04AE050E00E946C43AC
:10259000C70164EE74E003C0C7016CED74E00E94F3
:1025A000F8048FEC9AE0B7010E9482438EEE9AE025
:1025B00068E971E00E9482438EEE9AE06AEC71E075
:1025C0000E9482438EE061E00E944D3E8EE060E01A
:1025D0000E94B13E64E170E080E090E00E947D3DA9
:1025E0008EE090E064E170E04CE050E00E94CF3873
:1025F00083E190E06FE170E04EE150E02DE130E0EA
:102600000CE110E00E9495360E94203C8093030369
:102610000E94800D0E94562E8093020384E10E9446
:10262000612D0E94B90890937802809377020E94EE
:10263000432E81E00E943B2D8BE161E00E944D3EE4
:102640008BE160E00E94B13E85E093E00E94E833B8
:102650008BED91E067E879E00E94592E80EE91E0E1
:102660006FED7DE00E94592E86EE91E06CEC7DE0EE
:102670000E94592E8CEE91E06AE879E00E94592E72
:1026800080E090E061EB7CE043E45CE00E94AC35EC
:102690001092FF021092FE021092010310920003AA
:1026A000EEEAF2E0119211921192119282E0EE3D67
:1026B000F807C1F71092DE021092DF021092E002DA
:1026C0001092E1021092E2021092E3021092E402F0
:1026D0001092E5021092E7021092E60286E58093DE
:1026E0006302109204030E94CC098FEC9AE064EF1D
:1026F00071E00E9482436AE070E080E090E00E9416
:102700007D3D6E960FB6F894DEBF0FBECDBFCF9164
:10271000DF911F910F91FF90EF900895FC011382BC
:10272000128288EE93E0A0E0B0E084839583A683D4
:10273000B78388E892E091838083128E118E14868D
:102740000895FC0188E892E0918380830895DF93E7
:10275000CF930F92CDB7DEB7FC016983A081B18121
:1027600012962D913C911397BE016F5F7F4F41E010
:1027700050E0F90109950F90CF91DF910895DC01A8
:102780005996ED91FC915A97309719F420E030E07A
:1027900018C0238934894589568982859385A48503
:1027A000B585281B390B4A0B5B0B2030B0E83B0783
:1027B000B0E04B07B0E05B0720F02FEF3FE740E0D1
:1027C00050E0C9010895DC015996ED91FC915A97AA
:1027D000309729F420E030E040E050E004C0238945
:1027E000348945895689B901CA010895DC01599691
:1027F000ED91FC915A97309711F480E0089585810E
:10280000811181E00895CF93DF93EC01898D9A8D3A
:10281000009741F00E94711D898D9A8D0E94A0043D
:102820001A8E198EDF91CF910895FC01818D928DC2
:10283000009711F480E008950E94611C0895FC0146
:10284000818D928D009711F00E94271D0895DF93CE
:10285000CF930F92CDB7DEB7FC01818D928D00979B
:1028600049F0BE016F5F7F4F41E050E00E94641E5F
:10287000019719F02FEF3FEF03C08981282F30E037
:10288000C9010F90CF91DF910895EF92FF920F93BE
:102890001F93DF93CF930F92CDB7DEB77C01DC019E
:1028A00059968D919C915A97009719F400E010E089
:1028B0001FC0BE016F5F7F4F41E050E00E94641E69
:1028C000019719F00FEF1FEF13C08981082F10E057
:1028D000D7015996ED91FC915A97428553856485AD
:1028E00075854150504060407040CF010E94611C8E
:1028F000C8010F90CF91DF911F910F91FF90EF9042
:102900000895CF93DF93EC01E98DFA8D309761F054
:1029100013821282CF010E94A9209C01E98DFA8DB9
:1029200082819381892B31F081E090E09B838A83BF
:1029300020E030E0C901DF91CF910895EF92FF923E
:102940000F931F93CF93DF93EC01F62EE72E8A01AE
:102950001B821A8288EE93E0A0E0B0E08C839D8316
:10296000AE83BF8388E892E0998388838DE190E00D
:102970000E94F6039A8F898F009791F0DC018F2DCA
:102980009E2D9C01F9018DE101900D928150E1F79E
:10299000CE010C96B8014CE050E00E946305188E01
:1029A000DF91CF911F910F91FF90EF9008950F93BA
:1029B0001F93CF93DF938C01FB01C081D181FC0178
:1029C000EC0FFD1F80818F3209F4219698012C0FA6
:1029D0003D1FA0E0B0E00BC0FA01EA0FFB1F8083AF
:1029E000119621962F5F3F4FAC30B10531F0F901C0
:1029F00080818F3211F0882379F7A40FB51F1C92C4
:102A0000F801EC0FFD1F80818F3209F42196FB0144
:102A1000D183C083C00FD11F8881811181E0DF91F4
:102A2000CF911F910F91089510927A0310927B031A
:102A300010927E031092800382E090E0A0E0B0E06C
:102A40008093810390938203A0938303B0938403C4
:102A5000109298031092A2031092A10388E992E0C9
:102A60009093A00380939F031092A4030895EF9284
:102A7000FF921F93DF93CF93CDB7DEB76D970FB65D
:102A8000F894DEBF0FBECDBF9C01AB011C821B8240
:102A900088E992E09A8389831E827E010894E11C72
:102AA000F11CC701B90121E00E94D622182F88230A
:102AB00019F0C7010E94711D812F6D960FB6F89411
:102AC000DEBF0FBECDBFCF91DF911F91FF90EF9082
:102AD00008952F923F924F925F926F927F928F92C2
:102AE0009F92BF92CF92DF92EF92FF920F931F932C
:102AF000DF93CF93CDB7DEB7C954D0400FB6F8946B
:102B0000DEBF0FBECDBF1C017B012A0139011B8A2C
:102B10001A8A88E992E0998B888B1D8A18AA1FA6C9
:102B20009EA78DA71AAA1A8219828B0120E1C22EB4
:102B3000D12CCC0EDD1E93E0892E912C8C0E9D1E87
:102B400003C0C80186016C01C101BE016F5F7F4FE8
:102B5000A4010E94D714B82E40E0882309F441E074
:102B6000C801B4019301F2010995882339F40E15C7
:102B70001F0519F1C8010E94711D1FC0BB20A9F0DB
:102B8000C601B801A40121E00E94D622B82E0E157C
:102B90001F0519F0C8010E94711DBB2071F00E15B0
:102BA0001F0579F6CE018D96CDCF0E151F0519F0B4
:102BB000C8010E94711D81E001C080E0C75BDF4F4A
:102BC0000FB6F894DEBF0FBECDBFCF91DF911F913E
:102BD0000F91FF90EF90DF90CF90BF909F908F90DC
:102BE0007F906F905F904F903F902F9008959B0142
:102BF000BC01665D7F4FC90147E858E120E030E045
:102C00000E94691508959B01BC01665D7F4FC90153
:102C10004EE858E120E030E00E94691508952F92B7
:102C20003F924F925F926F927F928F929F92AF925C
:102C3000BF92CF92DF92EF92FF920F931F93DF9399
:102C4000CF93CDB7DEB7C754D0400FB6F894DEBFF0
:102C50000FBECDBF582E492EFB013A01190184A5A4
:102C600095A5998B888B28E932E03F872E8786A52A
:102C70008A8B87A58B8B80A991A9A2A9B3A98C8BDC
:102C80009D8BAE8BBF8B84A995A9A6A9B7A9888F68
:102C9000998FAA8FBB8F80AD91ADA2ADB3AD8C8F54
:102CA0009D8FAE8FBF8F84AD88A3FD96819191914A
:102CB000A191B19189A39AA3ABA3BCA38191919156
:102CC000A191B1918DA39EA3AFA3B8A7808191815B
:102CD0009AA789A71EA61DA63CA72BA718AA7A010A
:102CE0008E01025F1F4F3BE2A32EB12CAC0EBD1E26
:102CF0004E010894811C911C35C0D7018C918F32F4
:102D000021F40894E11CF11C2DC0422F4E194D30C6
:102D100008F04CE0C42EDD24C401B701A6010E94D6
:102D20006305F401EC0DFD1D1082C5010E94711DAB
:102D3000C501B801A40121E00E94D622882351F4E4
:102D4000E52DF42D1382128288E992E0918380832D
:102D5000158266C0EC0CFD1CC8010E94711DC501E6
:102D600058018C01C7016FE270E00E942A059C01A6
:102D7000009719F6E618F708F101F182E082E52DD7
:102D8000F42DD80112968D919C9113979383828391
:102D900088E992E09183808314968C9114978483C0
:102DA00015968C911597858316962D913D914D9191
:102DB0005C91199726833783408751871A962D9106
:102DC0003D914D915C911D972287338744875587AC
:102DD0001E962D913D914D915C9151972687378795
:102DE000408B518B52968C915297828B53962D919A
:102DF0003D914D915C915697238B348B458B568B2F
:102E000057962D913D914D915C915A97278B308F1C
:102E1000418F528F5B968D919C915C97948F838F9D
:102E2000852D942DC95BDF4F0FB6F894DEBF0FBE22
:102E3000CDBFCF91DF911F910F91FF90EF90DF9069
:102E4000CF90BF90AF909F908F907F906F905F904A
:102E50004F903F902F9008959F92AF92BF92CF9244
:102E6000DF92EF92FF920F931F93DF93CF93CDB733
:102E7000DEB7C657D0400FB6F894DEBF0FBECDBF49
:102E8000C82E992E8A01D22E43E0A42EB12CAC0E6E
:102E9000BD1EC501A8019E012F5F3F4F0E940F1666
:102EA000E980FA80E00EF11EF701808148E952E0E6
:102EB0002885882309F03FC08D819E819BA38AA32A
:102EC00059A348A38F818CA32DA389859A85AB85AF
:102ED000BC858EA39FA3A8A7B9A78D859E85AF8526
:102EE000B8898AA79BA7ACA7BDA789899A89AB890E
:102EF000BC898EA79FA7A8ABB9AB8D898AAB8E89F9
:102F00009F89A88DB98D8BAB9CABADABBEAB8A8DC9
:102F10009B8DAC8DBD8D8FAB98AFA9AFBAAF8E8DA9
:102F20009F8D9CAF8BAF8C2D992DBE01605E7F4F26
:102F300042E052E09FC0FE01FF96118210825EAF18
:102F40004DAFFE01EE5BFF4F10822223A9F022500D
:102F5000CE01CD96223048F46FE973E0A7012D2D04
:102F60000E94D622882381F407C0B501A7012D2D28
:102F70000E94D622882329F48C2D992D0E948E132D
:102F80007BC0C5010E94711DF6E0DF2259F0FE01F1
:102F9000E05BFF4F4081518162817381CE01CD960C
:102FA0000E94611C9E01265A3F4FFE01FF968081C0
:102FB0009181F9019383828388E992E091838083F0
:102FC000FE01EF5BFF4F8081F9018483FE01EE5B20
:102FD000FF4F8081F9018583FE01ED5BFF4F80810A
:102FE0009181A281B381F90186839783A087B187FC
:102FF000FE01E95BFF4F80819181A281B381F901DC
:1030000082879387A487B587FE01E55BFF4F8081A8
:103010009181A281B381F90186879787A08BB18BBB
:10302000FE01E15BFF4F8081F901828BFE01E05BD5
:10303000FF4F80819181A281B381F901838B948BB1
:10304000A58BB68BFE01EC5AFF4F80819181A28146
:10305000B381F901878B908FA18FB28FFE01E85A5F
:10306000FF4F80819181F901948F838F8C2D992D51
:10307000B901A7010E949E148C2D992DCA58DF4FCB
:103080000FB6F894DEBF0FBECDBFCF91DF911F9179
:103090000F91FF90EF90DF90CF90BF90AF909F90F7
:1030A00008950F931F93CF93DF93EC01162F8FA5F5
:1030B000882331F0CE018A960E94711D882311F178
:1030C000CE0161E0412F0E94381B8823D1F08E0190
:1030D000045F1F4FC801BE0141E00E9458258823AC
:1030E00039F4C801BE0140E00E945825882349F008
:1030F000CE018A96B8010E94C31F882319F081E08F
:1031000001C080E0DF91CF911F910F91089544237A
:1031100011F481E008950E94DD230895EF92FF925B
:103120000F931F93DF93CF93CDB7DEB76D970FB695
:10313000F894DEBF0FBECDBF8C017B011C821B82C9
:1031400088E992E09A8389831E82C8010E9437151C
:10315000882331F4CE010196B801A7010E940A2408
:103160006D960FB6F894DEBF0FBECDBFCF91DF9145
:103170001F910F91FF90EF900895FC01673020F0B0
:1031800086E1858380E00895262F30E060FD02C04F
:10319000663019F48DB58E7F02C08DB581608DBD0E
:1031A0008CB58C7F8CBD4CB522FD02C090E001C077
:1031B00092E036952795822F8170842B892B8CBDC8
:1031C00081E00895FF920F931F93CF93DF938B01BC
:1031D0000E946F3DEB01FF24FA94FEBC0DB407FE84
:1031E000FDCF8EB58F3F11F481E008C00E946F3D86
:1031F0006C1B7D0B6017710780F380E0DF91CF912E
:103200001F910F91FF900895FC01848160E00E945E
:10321000B13E0895FC01848161E00E94B13E0895B1
:10322000DC016EBDFA0120E030E00DB407FEFDCFF9
:1032300080818EBD0DB407FEFDCF81818EBD2E5FD6
:103240003F4F329682E02030380779F70DB407FE01
:10325000FDCF8FEF8EBD0DB407FEFDCF8FEF8EBD7E
:103260000DB407FEFDCF8FEF8EBD0DB407FEFDCF71
:103270008EB51A968C931A978F71853011F481E070
:10328000089581E115968C931597CD010E940A1936
:1032900080E00895FF920F931F93CF93DF93EC018B
:1032A0000E946F3D8B01FF24FA9409C00E946F3D7C
:1032B000601B710B6D52714010F08FE00DC0FEBCB1
:1032C0000DB407FEFDCF8EB58A878F3F79F38E3F11
:1032D00011F481E006C08DE08D83CE010E940A19B1
:1032E00080E0DF91CF911F910F91FF900895CF93D0
:1032F000DF93EC018E818823D1F08FEF8EBD2F817B
:1033000038854FEF04C00DB407FEFDCF4EBD2F5FD3
:103310003F4FC901019781509240A8F338872F830E
:103320000DB407FEFDCFCE010E940A191E82DF9167
:10333000CF910895DF92EF92FF920F931F93CF9357
:10334000DF93EC01D62E79018A010E947719CE0114
:103350000E940419CE016CE271E00E94E2188D2DEA
:1033600080648EBD0DB407FEFDCF28E130E0D801AA
:10337000C701022E04C0B695A795979587950A9424
:10338000D2F78EBD0DB407FEFDCF285030408FEF31
:10339000283F380761F7DD2011F485E906C088E091
:1033A000D81611F487E801C08FEF8EBD0DB407FE6B
:1033B000FDCF90E02FEF2EBD0DB407FEFDCF8EB5F3
:1033C00087FF02C09150B9F78A87DF91CF911F9193
:1033D0000F91FF90EF90DF900895CF92DF92EF92E0
:1033E000FF920F931F93CF93DF93EC017A018B0130
:1033F0006901411551056105710511F482E137C07C
:103400008B85833039F029E0EE0CFF1C001F111F63
:103410002A95D1F7CE0168E1A80197010E949A1977
:10342000882311F084E023C0CE016EEFA6010E9434
:1034300010198823E9F0CE0168E572E00E94E218D5
:10344000882311F485E113C0CE016DE020E030E067
:1034500040E050E00E949A19882341F48FEF8EBD1E
:103460000DB407FEFDCF8EB5882379F084E18D83FE
:10347000CE010E940A1980E0DF91CF911F910F9138
:10348000FF90EF90DF90CF900895CE010E940A192F
:1034900081E0F2CF0F931F93CF93DF93EC01142FB2
:1034A000052F20E030E040E050E00E949A19882388
:1034B00019F08EE08D8326C0CE010E944A19882320
:1034C00009F1812F902FFC019FEF9F01205F3F4F5B
:1034D0009EBD0DB407FEFDCF8EB58193E217F307B5
:1034E000B9F78FEF8EBD0DB407FEFDCF8EB58FEF10
:1034F0008EBD0DB407FEFDCF8EB5CE010E940A1918
:1035000081E004C0CE010E940A1980E0DF91CF91D2
:103510001F910F9108958F929F92AF92BF92CF9279
:10352000DF92EF92FF920F931F93CF93DF93EC0103
:103530005A016B0149010115110509F47BC0C8014D
:10354000820F931F8150924008F06FC08E818823B4
:1035500071F088819981AA81BB81481759076A0750
:103560007B0729F48F8198858816990618F5A8821B
:10357000B982CA82DB828B85833039F069E0AA0C7C
:10358000BB1CCC1CDD1C6A95D1F7CE0161E1A60104
:1035900095010E949A19882319F083E08D8345C014
:1035A000CE010E944A19882309F43FC018861F8261
:1035B00081E08E838FEF8EBD8F8198852FEF05C0C0
:1035C0000DB407FEFDCF2EBD019688159905C0F3F9
:1035D00098878F83D801119720E030E09FEF0BC0D0
:1035E0000DB407FEFDCF8EB5F701E20FF31F808308
:1035F0009EBD2F5F3F4F2A173B0790F30DB407FE88
:10360000FDCF8EB5AE0DBF1D8C932F813885200F59
:10361000311F38872F838985882319F02050324045
:1036200048F0CE010E94771905C0CE010E940A1908
:1036300080E001C081E0DF91CF911F910F91FF9059
:10364000EF90DF90CF90BF90AF909F908F900895B4
:10365000EF92FF920F931F93790120E030E000E09A
:1036600012E00E948B1A1F910F91FF90EF90089526
:10367000BF92CF92DF92EF92FF920F931F93CF935F
:10368000DF93EC01B62E1B8619861E821D824C83A9
:103690000E946F3D6B018C8161E00E944D3ECE0126
:1036A0000E940A1986E060E00E944D3E85E061E0DC
:1036B0000E944D3E87E061E00E944D3E84E061E063
:1036C0000E944D3E84E061E00E94B13E83E58CBDE6
:1036D0008DB58E7F8DBD80E09FEF9EBD0DB407FE42
:1036E000FDCF8F5F8A30C9F7CE010E9404190EC04A
:1036F0000E946F3D6C197D09615D774038F081E073
:103700008D838FEC9AE064E072E06DC0CE0160E0E2
:1037100020E030E040E050E00E949A19182F8A879C
:10372000813031F7CE0168E02AEA31E040E050E034
:103730000E949A1982FF02C01B8716C080E02FEFFB
:103740002EBD0DB407FEFDCF9EB58F5F8430C1F74F
:103750009A879A3A39F082E08D838FEC9AE06FE095
:1037600072E041C082E08B878B85823021F0EE24AD
:10377000FF24870114C0E12CF12C012DF0E41F2F50
:103780000EC00E946F3D6C197D09615D774038F075
:1037900088E08D838FEC9AE06AE172E024C0CE016C
:1037A00067E320E030E040E050E00E949A19CE014B
:1037B00069E2A80197010E949A198A87882309F76C
:1037C0008B85823061F5CE016AE320E030E040E095
:1037D00050E00E949A19882369F086E08D838FEC6F
:1037E0009AE066E272E00E948243CE010E940A19CA
:1037F00080E01CC08FEF8EBD0DB407FEFDCF8EB5EF
:10380000807C803C11F483E08B8780E09FEF9EBD3D
:103810000DB407FEFDCF2EB58F5F8330C1F7CE010B
:103820000E940A19CE016B2D0E94BD18DF91CF9125
:103830001F910F91FF90EF90DF90CF90BF90089570
:10384000CF93DF93EC01DB0180E090E020E2FD010B
:10385000E80FF91F208301968B309105C1F757E0DF
:1038600040E021C02E3219F08BE195E007C05A30BC
:1038700019F15AE048E017C03217F1F0FC01019647
:1038800034913323C9F75417B8F02132A8F02F37F9
:1038900098F4822F81568A3108F42052FD01E40FFA
:1038A000F11D20834F5F29912223E1F690E08C9156
:1038B000803219F091E001C090E0892FDF91CF9123
:1038C00008956F927F928F929F92AF92BF92CF9204
:1038D000DF92EF92FF920F931F93CF93DF93EC0150
:1038E0007A018B012D81222309F480C08B899C8968
:1038F000AD89BE8984179507A607B70708F476C077
:1039000085C0E114F1040105110549F41E821F82EE
:10391000188619861A861B861C861D8665C02A8510
:103920003B854C855D85EB8DFC8D858590E009960A
:10393000215030404040504039014A01082E04C017
:1039400096948794779467940A94D2F72F5F3F4FA9
:103950004F4F5F4F0894E108F10801091109570121
:10396000680104C0D694C794B794A7948A95D2F7F7
:103970000894E11CF11C011D111DA614B704C80414
:10398000D90428F0211531054105510549F48F89E5
:10399000988DA98DBA8D8E839F83A887B98716C00D
:1039A000A618B708C808D90811C04E815F8168857C
:1039B00079858B8D9C8D94010E9439270894A108EC
:1039C000B108C108D108882331F410C086E0882EE0
:1039D000912C8C0E9D1EA114B104C104D10429F7B1
:1039E000EA86FB860C871D8781E001C080E0DF91BD
:1039F000CF911F910F91FF90EF90DF90CF90BF90EC
:103A0000AF909F908F907F906F900895223009F033
:103A100078CFE6CFCF93DF93EC01462F6E857F857D
:103A2000888999890E941D25882319F420E030E0B7
:103A30000AC08A89282F30E095E0220F331F9A951B
:103A4000E1F720543C4FC901DF91CF9108950F93C6
:103A50001F93CF93DF938C01FC0185818823D9F1DB
:103A6000848187FF35C0C80161E00E940A1DEC0116
:103A7000009789F1F8018581823040F48389948927
:103A8000A589B6898C8F9D8FAE8FBF8FF8018789EE
:103A9000908D9B8F8A8F8789908DA18DB28DCD015E
:103AA000AA27BB279D8B8C8BE091BE03F091BF03AF
:103AB000309751F0BE016A5E7F4FCE01489609955E
:103AC000888D998D9B8B8A8BF80184818F77848375
:103AD0000E94BE2401C080E0DF91CF911F910F9121
:103AE0000895CF93DF93EC010E94271D882311F0E6
:103AF0001D8281E0DF91CF9108956F927F928F9226
:103B00009F92AF92BF92CF92DF92EF92FF920F936C
:103B10001F93DF93CF9300D000D0CDB7DEB77C01E9
:103B20005A016B01DC0115968C911597813009F0D3
:103B30008FC014968C9181FF8BC09EC00097A10509
:103B4000B10511F481E085C0F70162847384848437
:103B50009584C701B601A5010E94611C882309F460
:103B600077C0D7015B968D919C915C97A114B104AD
:103B7000C104D10489F457964D915D916D917C916A
:103B80005A970E94AC27882309F462C0F701178A6C
:103B9000108E118E128E3DC0D70116964D915D91FB
:103BA0006D917C9119979E012F5F3F4F0E9439279D
:103BB000882309F44DC0D7015B96ED91FC915C9789
:103BC00049815A816B817C818789803129F088EF16
:103BD0009FEFAFEFBFE004C088EF9FEFA0E0B0E041
:103BE000481759076A077B07A0F4CF010E94AC274A
:103BF000882371F1F7014681578160857185838D36
:103C0000948D0FEF1FEF2FEF3FE00E949D2688233A
:103C1000F9F0D7015396AD92BD92CD92DC925697B2
:103C200014968C911497806814968C93C7010E9407
:103C3000271D882369F0B601A5016A147B048C0452
:103C40009D0410F4B401A301C7010E94611C01C0CE
:103C500080E00F900F900F900F90CF91DF911F9108
:103C60000F91FF90EF90DF90CF90BF90AF909F901B
:103C70008F907F906F900895F70183899489A5892B
:103C8000B68984179507A607B70708F057CFE0CF86
:103C9000CF93DF93EC0140E050E060E070E00E94E1
:103CA0007D1D882369F0CE0161E00E940A1DFC01A0
:103CB000009731F085EE80831D820E94BE2401C0F2
:103CC00080E0DF91CF9108952F923F924F925F92C3
:103CD0006F927F928F929F92AF92BF92CF92DF921C
:103CE000EF92FF920F931F93CF93DF93EC012A0182
:103CF0008D81882309F4C6C08C8180FFC3C0D8C0E1
:103D000025014E185F084B0176E0272E312C2C0E32
:103D10003D1E3201B1C02A853B854C855D856FEF24
:103D2000A62E61E0B62EA222B3228D8179018A01EE
:103D300099E016950795F794E7949A95D1F7EB8D4E
:103D4000FC8D823049F4428D538D648D758D4E0DFE
:103D50005F1D601F711F3FC0D480DA94DE20A11464
:103D6000B104D9F4DD20C9F421153105410551050F
:103D700049F48F89988DA98DBA8D8E839F83A887EA
:103D8000B9870BC04E815F8168857985CF0191012C
:103D90000E943927882309F475C0EB8DFC8D4E8174
:103DA0005F8168857985425050406040704005844D
:103DB00004C0440F551F661F771F0A94D2F78685EB
:103DC0009785A089B189480F591F6A1F7B1F4D0D28
:103DD000511D611D711D80E092E08A199B096301EC
:103DE0008615970508F46C018C8186FD06C080E07D
:103DF000C81682E0D80609F073C0809179029091CC
:103E00007A02A0917B02B0917C02481759076A0799
:103E10007B0709F465C08091C0059091C1059501AB
:103E2000860174010E948B1A882361F18C0C9D1C01
:103E300012C0950120543C4FA9014C0D5D1DD401C9
:103E4000F90102C081918D93E417F507D9F7E21BC0
:103E5000F30B8E0E9F1E960140E050E08A859B85F5
:103E6000AC85BD85820F931FA41FB51F8A879B87D2
:103E7000AC87BD876C187D086114710409F04BCFC5
:103E8000A20102C04FEF5FEFCA01DF91CF911F91F6
:103E90000F91FF90EF90DF90CF90BF90AF909F90E9
:103EA0008F907F906F905F904F903F902F900895EC
:103EB000AB88BC88CD88DE88EA84FB840C851D85B0
:103EC0009A0140E050E0D601C5018E199F09A00B70
:103ED000B10B82179307A407B50708F411CF13CFCE
:103EE000CB01BA0140E00E941D25882309F0A1CF33
:103EF000C9CFCF92DF92EF92FF920F931F93DF9380
:103F0000CF930F92CDB7DEB76C01FC018581823073
:103F100070F0E284F38404851585C601BE016F5FED
:103F20007F4F41E050E00E94641E019769F020E05D
:103F300030E0C9010F90CF91DF911F910F91FF9059
:103F4000EF90DF90CF900895F60182859385A48548
:103F5000B5854F96A11DB11D82879387A487B5872C
:103F6000F5E016950795F794E794FA95D1F78E2D1D
:103F70008F70282F30E0E5E0220F331FEA95E1F73C
:103F800020543C4FD6CF0F931F93CF93DF93EC0178
:103F90008B018D81882309F041C0FB018789803125
:103FA000B1F482E08D831F8A188E198E1A8E808D4F
:103FB000918DA0E0B0E045E0880F991FAA1FBB1FBC
:103FC0004A95D1F78B8B9C8BAD8BBE8B15C0803205
:103FD00029F583E08D83FB01428D538D648D758DB2
:103FE0004F8B588F698F7A8F9E012D5E3F4FC8018E
:103FF0000E940528882391F01C8F0B8F81E08C8311
:104000001E821F82188619861A861B861C861D86AC
:104010001E861F86188A198A1A8A01C080E0DF91DD
:10402000CF911F910F9108951F93CF93DF93EC01D0
:10403000142FE62FF0E075E0EE0FFF1F7A95E1F701
:10404000E054FC4F8385817121F0842F827409F044
:1040500054C06A8B8091790290917A02A0917B0280
:10406000B0917C028E879F87A88BB98B84899589B4
:10407000A0E0B0E0BC0155274427828D938DA0E0DD
:10408000B0E0482B592B6A2B7B2B4F8B588F698FB5
:104090007A8F838590E088719070009751F4848DB9
:1040A000958DA68DB78D8B8B9C8BAD8BBE8B81E058
:1040B0000CC0409711F59E012D5E3F4F8B8D9C8D5E
:1040C0000E9405288823C9F084E08D83812F8F709A
:1040D0008C831E821F82188619861A861B861C8670
:1040E0001D8616FD02C081E009C0CE0140E050E00F
:1040F00060E070E00E947D1D01C080E0DF91CF9103
:104100001F910895CF93DF93EC019C012A5F3F4FED
:104110008B8D9C8D41E050E060E070E00E9474283F
:104120008823A1F08F89988DA98DBA8D0097A1055C
:10413000B10559F48E819F81A885B9858F8B988FA1
:10414000A98FBA8F8C8180688C8381E0DF91CF91B9
:1041500008952F923F924F925F927F928F929F92FB
:10416000AF92BF92CF92DF92EF92FF920F931F9385
:10417000DF93CF9300D000D000D0CDB7DEB76C0175
:10418000162F072F5E834D83DC0115968C911597B2
:10419000813009F070C114968C9181FF6CC18EC181
:1041A000F601438954896589768982859385A4853A
:1041B000B58584179507A607B70731F0C6010E9499
:1041C000611C882309F457C1812F902F9C0129017C
:1041D0002D803E8017C1D6015B96ED91FC915C97D6
:1041E000DA01C90119E0B695A795979587951A95B3
:1041F000D1F774807A9478227FEF872E71E0972E22
:1042000082229322772009F04EC08114910409F094
:104210004AC0D60116964D915D916D917C9119978A
:10422000411551056105710581F457968D919D9158
:104230000D90BC91A02D0097A105B10549F1F601A3
:1042400086839783A087B1872EC0CF019E012F5F01
:104250003F4F0E943927882309F414C129813A81EC
:104260004B815C81D6015B96ED91FC915C978789CF
:10427000803129F088EF9FEFAFEFBFE004C088EFF7
:104280009FEFA0E0B0E0281739074A075B0730F03E
:10429000C6010E948220882331F4EDC0F6012683F6
:1042A00037834087518780E092E08819990951014E
:1042B0008215930508F45C01D6015B96ED91FC91A3
:1042C0005C971696ED90FD900D911C9119978EEFCD
:1042D0009FEFAFEFBFEFE80EF91E0A1F1B1F05840B
:1042E00004C0EE0CFF1C001F111F0A94D2F7868534
:1042F0009785A089B189E80EF91E0A1F1B1FE70CDC
:10430000F11C011D111D90E0A91692E0B90651F5AE
:104310008091790290917A02A0917B02B0917C0207
:104320008E159F05A007B10761F48FEF9FEFAFEFE8
:10433000BFEF8093790290937A02A0937B02B093AF
:104340007C028091C0059091C105B801A70192013E
:104350000E94ED19882309F48EC0A0E0B2E04A0E55
:104360005B1E3EC08114910409F5F6012285338558
:104370004485558583899489A589B6892817390785
:104380004A075B0798F00E94BE24882309F473C093
:10439000E0927902F0927A0200937B0210937C0201
:1043A0008091C20581608093C20508C0C801B70131
:1043B00041E00E941D25882309F45DC0940120542A
:1043C0003C4FA9014A0D5B1DD201F90102C08D913C
:1043D0008193E417F507D9F7E21BF30B4E0E5F1E2E
:1043E0002A183B08950140E050E0F601828593854C
:1043F000A485B585820F931FA41FB51F828793875D
:10440000A487B587D6011A962D913D914D915C9167
:104410001D972114310409F0DECE53968D919D91A4
:104420000D90BC91A02D82179307A407B50748F4FF
:10443000F601238B348B458B568B84818068848373
:1044400011C08091BE039091BF03892B59F08D81DB
:104450009E81892B39F0D60114968C91149780682F
:1044600014968C93F601848183FF0EC0C6010E94CE
:10447000271D882349F481E090E0D60113969C9390
:104480008E9312971E821D828D819E8126960FB675
:10449000F894DEBF0FBECDBFCF91DF911F910F917A
:1044A000FF90EF90DF90CF90BF90AF909F908F9054
:1044B0007F905F904F903F902F90089582FD70CE37
:1044C00083CEDF93CF930F92CDB7DEB76983BE0162
:1044D0006F5F7F4F41E050E00E94A9200F90CF9185
:1044E000DF910895DF92EF92FF920F931F93CF9386
:1044F000DF93EC010E948220882309F44EC0EB8DEB
:10450000FC8DEE80FF80088519858EEF9FEFAFEF61
:10451000BFEFE80EF91E0A1F1B1F058404C0EE0C36
:10452000FF1C001F111F0A94D2F786859785A0896A
:10453000B189E80EF91E0A1F1B1FD4800894E108F8
:10454000F108010911090BC0C801B7016D0D711DFA
:10455000811D911D0E94F9248823F9F0DA94DD2051
:1045600099F7EB8DFC8D20E032E040E050E00584CF
:1045700004C0220F331F441F551F0A94D2F78B89A2
:104580009C89AD89BE89820F931FA41FB51F8B8B99
:104590009C8BAD8BBE8B81E001C080E0DF91CF9121
:1045A0001F910F91FF90EF90DF9008956F927F928F
:1045B0008F929F92AF92BF92CF92DF92EF92FF9233
:1045C0000F931F93DF93CF93CDB7DEB72B970FB623
:1045D000F894DEBF0FBECDBF5C016B01822EDC0103
:1045E00015968C91882309F0D2C0CA018E010F5F05
:1045F0001F4FB8010E94201C882309F4C8C0F6018F
:10460000838D948DD5015C969C938E935B971682D7
:10461000178210861186D6011A961D921D921D9240
:104620001C921D979924380141C0C6010E94791F30
:10463000FC01009709F4ABC085E016950795F79447
:10464000E7948A95D1F71E2D1F708081882311F081
:10465000853ED1F4992091F4D50152961C9352973E
:104660002091790230917A0240917B0250917C0234
:104670001E962D933D934D935C9351978081882393
:1046800099F49924939421C0C301BF014BE050E0F9
:104690000E941205009751F4882D8073803309F42D
:1046A00076C0C501612F6FC099249394F601E2840E
:1046B000F3840485158583899489A589B689E816CC
:1046C000F9060A071B0708F4B0CF882D82718231E2
:1046D00009F05DC0992041F0C50161E00E940A1D0A
:1046E0008C01009789F453C0D60115968C918230C5
:1046F00009F44DC0C6010E947222882309F447C004
:10470000F501128A00EC13E080E2D8011D928A952F
:10471000E9F7D801FE0131968BE001900D928150AE
:10472000E1F7E091BE03F091BF03309739F0B80193
:10473000625F7F4FC8014096099509C081E298E207
:10474000F801918B808B80E098E097878687D8016D
:1047500050968D919C91519753969C938E9352971E
:1047600059969C938E9358971E968D919C911F9766
:1047700057969C938E9356970E94BE24882339F0B7
:10478000C501F5016289482D0E94142001C080E016
:104790002B960FB6F894DEBF0FBECDBFCF91DF9141
:1047A0001F910F91FF90EF90DF90CF90BF90AF904F
:1047B0009F908F907F906F9008950F931F93DF933A
:1047C000CF93CDB7DEB76D970FB6F894DEBF0FBEAF
:1047D000CDBF9C01AB011C821B8288E992E09A83C9
:1047E00089831E828E010F5F1F4FC801B90122E02D
:1047F0000E94D622882319F0C8010E94481E6D9697
:104800000FB6F894DEBF0FBECDBFCF91DF911F91E1
:104810000F910895EF92FF920F931F93DF93CF9321
:10482000CDB7DEB7A0970FB6F894DEBF0FBECDBFF1
:104830008C017B0123E30E94D622882309F490C0D7
:1048400081E0D80114968C93149784E015968C938C
:10485000C8010E947222882309F482C0C8010E9404
:10486000271D882309F47CC0C80161E00E940A1D4D
:10487000FC01009709F474C080E18387DE01119682
:1048800080E201900D928150E1F7FE01329620E224
:10489000CE010C962193E817F907E1F78EE28983A0
:1048A000D8015B96ED91FC915C9757966D917D9147
:1048B0008D919C915A976250704080409040058441
:1048C00004C0660F771F881F991F0A94D2F72685A8
:1048D000378540895189620F731F841F951F41E0FE
:1048E0000E941D258823E1F1A0ECB3E0FE01319682
:1048F00080E201900D928150E1F78EE28A83F70108
:1049000085818250823028F41C8E1B8E1E8A1D8A5F
:1049100012C0D70157968D919C9158979C8F8B8F81
:1049200057968D919D910D90BC91A02DCD01AA27F8
:10493000BB279E8B8D8BA0EEB3E0FE01319680E20B
:1049400001900D928150E1F780E490E0A0E0B0E0AA
:10495000F80182879387A487B5870E94BE2401C08F
:1049600080E0A0960FB6F894DEBF0FBECDBFCF910A
:10497000DF911F910F91FF90EF9008958091C205F4
:10498000882399F14091790250917A0260917B02DB
:1049900070917C028091C0059091C10520EC33E0BC
:1049A0000E94ED19882319F14091C3055091C40567
:1049B0006091C5057091C6054115510561057105E8
:1049C00091F08091C0059091C10520EC33E00E94E8
:1049D000ED19882361F01092C3051092C40510925E
:1049E000C5051092C6051092C20581E0089580E0C9
:1049F0000895EF92FF920F931F937B018C010E9409
:104A0000BE248823A9F0E0ECF3E0119285E0E03CBD
:104A1000F807D9F7E0927902F0927A0200937B02CC
:104A200010937C028091C20581608093C20581E071
:104A30001F910F91FF90EF900895DF92EF92FF92F8
:104A40000F931F937B018C01D42E8091790290915A
:104A50007A02A0917B02B0917C028E159F05A0077F
:104A6000B107C1F00E94BE248823D9F08091C0050F
:104A70009091C105B801A70120EC33E00E94281BEA
:104A8000882379F0E0927902F0927A0200937B0217
:104A900010937C028091C2058D298093C20581E02C
:104AA00001C080E01F910F91FF90EF90DF9008957B
:104AB0008F929F92AF92BF92CF92DF92EF92FF922E
:104AC0000F931F93CF93DF936C01142F7093C10545
:104AD0006093C005442321F488249924540140C0E4
:104AE000453008F01CC160E070E080E090E040E0FC
:104AF0000E941D25882309F412C1C12FD0E02197FF
:104B0000FE0174E0EE0FFF1F7A95E1F7E054FC4FD1
:104B1000E254FE4F8081EE5BF14090E08F77907021
:104B2000892B09F0FCC0E653FE4F80819181A28160
:104B3000B38184369105A105B10508F4F0C064E0A5
:104B4000CC0FDD1F6A95E1F7CA57DA4F888099804C
:104B5000AA80BB8081149104A104B10409F4DFC0D0
:104B6000C501B40140E00E941D25882309F4D7C087
:104B70008091CB039091CC038050924009F0CFC03C
:104B80002091D003222309F4CAC08091CE039091D2
:104B9000CF03892B09F4C3C08091CD03882309F486
:104BA000BEC0F601228B8091CD038483158661E01F
:104BB00070E007C04F5FF60145874150483008F06C
:104BC000AEC0F6014585848190E09B01042E02C0B1
:104BD000220F331F0A94E2F78217930759F72091A7
:104BE000D6033091D7032115310519F040E050E08C
:104BF00008C02091E4033091E5034091E603509111
:104C0000E703F6012583368347835087E090CE0380
:104C1000F090CF0300E010E0E80CF91C0A1D1B1D0A
:104C2000E38AF48A058B168B8091D1039091D2038D
:104C3000918F808F6091D00370E080E090E00E94BF
:104C400093456E0D7F1D801F911FF601628F738F3C
:104C5000848F958F2091D1033091D20355E0220F9C
:104C6000331F5A95E1F721503E4F232F33272695C6
:104C700040E050E0260F371F481F591F268737870F
:104C8000408B518B8091D3039091D403009719F0FE
:104C9000A0E0B0E008C08091E0039091E103A09112
:104CA000E203B091E30385017401E21AF30A040BF5
:104CB000150BA8019701280F391F4A1F5B1FF6012A
:104CC000058404C056954795379527950A94D2F7E1
:104CD0002187328743875487253FFFE03F07F0E075
:104CE0004F07F0E05F0710F48CE006C0255F3F4FF0
:104CF0004040504028F480E1F601878B81E010C0ED
:104D00008091EC039091ED03A091EE03B091EF033D
:104D1000F601828F938FA48FB58F80E2EECF80E073
:104D2000DF91CF911F910F91FF90EF90DF90CF9087
:104D3000BF90AF909F908F9008954F925F926F9227
:104D40007F928F929F92AF92BF92CF92DF92EF921B
:104D5000FF920F931F93CF93DF93EC016A017B01C6
:104D600028013901423051056105710508F46FC011
:104D700089859A85AB85BC850196A11DB11D8417D7
:104D80009507A607B70708F462C02B893C894D89AF
:104D90005E898F89803129F499278F2D7E2D6D2D85
:104DA00009C0C701B60117E0969587957795679575
:104DB0001A95D1F74B015C01820E931EA41EB51EFD
:104DC0008091790290917A02A0917B02B0917C024D
:104DD00088169906AA06BB0639F0C501B40140E061
:104DE0000E941D25882399F18F89803149F4F601AD
:104DF000F070EE0FFF1FE054FC4F518240820DC057
:104E0000F601EF77F070EE0FFF1FEE0FFF1FE0547B
:104E1000FC4F40825182628273828091C205816020
:104E20008093C2058A89823080F08D819E81AF8116
:104E3000B885880E991EAA1EBB1E8092C30590924B
:104E4000C405A092C505B092C60581E001C080E00E
:104E5000DF91CF911F910F91FF90EF90DF90CF9056
:104E6000BF90AF909F908F907F906F905F904F908A
:104E70000895CF92DF92EF92FF920F931F93CF93FB
:104E8000DF93EC017A018B01690189859A85AB85F5
:104E9000BC850196A11DB11D84179507A607B7070C
:104EA00008F450C02B893C894D895E898F898031F7
:104EB00029F49927812F702F6F2D09C0C801B701E0
:104EC000E7E09695879577956795EA95D1F7260F50
:104ED000371F481F591F8091790290917A02A09143
:104EE0007B02B0917C02281739074A075B0739F02B
:104EF000CA01B90140E00E941D25882319F18F895C
:104F0000803159F4F701F070EE0FFF1FE054FC4FB1
:104F100080819181A0E0B0E00EC0F701EF77F070E2
:104F2000EE0FFF1FEE0FFF1FE054FC4F80819181B9
:104F3000A281B381BF70F60180839183A283B38382
:104F400081E001C080E0DF91CF911F910F91FF9030
:104F5000EF90DF90CF900895AF92BF92CF92DF9203
:104F6000EF92FF920F931F93DF93CF9300D000D067
:104F7000CDB7DEB76C017A018B0182E090E0A0E052
:104F8000B0E0F60180839183A283B3835E0108942D
:104F9000A11CB11CC601B801A70195010E943927C7
:104FA000882319F1C601B801A70100E010E020E054
:104FB00030E00E949D268823C1F0E980FA800B81B1
:104FC0001C81F6018789803129F088EF9FEFAFEFD0
:104FD000BFE004C088EF9FEFA0E0B0E0E816F9065C
:104FE0000A071B07B8F281E001C080E00F900F9024
:104FF0000F900F90CF91DF911F910F91FF90EF9045
:10500000DF90CF90BF90AF9008954F925F926F92D4
:105010007F928F929F92AF92BF92CF92DF92EF9248
:10502000FF920F931F93DF93CF9300D000D0CDB7A3
:10503000DEB76C0149835A836B837C833901EE248C
:10504000FF2487012E010894411C511C812CA2E0F1
:105050009A2EA12CB12C49815A816B817C81C60189
:1050600092010E943927882351F1D501C401F6012C
:10507000058404C0880F991FAA1FBB1F0A94D2F78A
:10508000E80EF91E0A1F1B1F29813A814B815C81A2
:105090008789803129F088EF9FEFAFEFBFE004C030
:1050A00088EF9FEFA0E0B0E0281739074A075B07B9
:1050B00090F2F301E082F1820283138381E00F908A
:1050C0000F900F900F90CF91DF911F910F91FF9054
:1050D000EF90DF90CF90BF90AF909F908F907F9098
:1050E0006F905F904F9008952F923F924F925F92F2
:1050F0006F927F928F929F92AF92BF92CF92DF92E8
:10510000EF92FF920F931F93DF93CF93CDB7DEB74C
:105110002F970FB6F894DEBF0FBECDBF1C014A8794
:105120005B876C877D873F872E87D9010D911D9105
:105130002D913C91011511052105310549F04801DA
:1051400059010894811C911CA11CB11C198610C026
:10515000FC0180809180A280B38019868A859B851E
:10516000AC85BD850197A105B10511F491E0998742
:10517000D10119968D919D910D90BC91A02D019614
:10518000A11DB11D8D839E83AF83B8877501640116
:105190004424552432018E010F5F1F4FF101818598
:1051A0009285A385B485481659066A067B0608F0E1
:1051B00090C08D819E81AF81B8858C159D05AE050F
:1051C000BF0550F482E0882E912CA12CB12CB2E0C6
:1051D000CB2ED12CE12CF12CC101B701A6019801F5
:1051E0000E943927882309F474C089819A81AB8190
:1051F000BC81A70196012F5F3F4F4F4F5F4F009734
:10520000A105B10519F049015A010DC02819390944
:105210004A095B098A859B85AC85BD8528173907B6
:105220004A075B0759F00894411C511C611C711C12
:105230000894C11CD11CE11CF11CB0CFC101A60116
:10524000B7010FEF1FEF2FEF3FE00E949D2688234D
:1052500099F43FC0260137010894410851086108BC
:105260007108C101B301A201970186010E949D2628
:10527000882379F1730162018C149D04AE04BF048C
:1052800048F3AE85BF854D915D916D917C9141153F
:1052900051056105710539F0C101950184010E9434
:1052A0009D268823B1F0EE85FF8580829182A282BF
:1052B000B382F985FF2359F00894811C911CA11C2D
:1052C000B11CD1018D929D92AD92BC92139781E059
:1052D00001C080E02F960FB6F894DEBF0FBECDBFA1
:1052E000CF91DF911F910F91FF90EF90DF90CF90C2
:1052F000BF90AF909F908F907F906F905F904F90F6
:105300003F902F900895882319F48CB5806202C0D5
:105310008CB58F7D8CBD08959CB5937F982B9CBDDB
:1053200008952CB5382F33702C7F322B3CBD2DB512
:1053300090E0959587959595879581702E7F822B26
:105340008DBD089584E061E00E94B13E84E061E09B
:105350000E944D3E8CB580618CBD8CB580648CBD47
:1053600087E061E00E944D3E85E061E00E944D3E95
:105370000895F999FECF72BD61BDF89A80B5089580
:10538000F999FECF1FBA72BD61BD40BD0FB6F8944A
:10539000FA9AF99A0FBE08952091490630E0F90172
:1053A000E753FA4F80832F5F3F4F2F773070209362
:1053B00049068091C8058F5F8093C80508959C01B8
:1053C000F999FECF32BD21BDF89A80B508959C01B0
:1053D000F999FECF1FBA32BD21BD60BD0FB6F8945A
:1053E000FA9AF99A0FBE0895DF93CF930F92CDB733
:1053F000DEB780689FB79983F8945D988EBD0DB431
:1054000007FEFDCF8EB58EBD0DB407FEFDCF8EB568
:105410005D9A99819FBF0F90CF91DF910895DF939F
:10542000CF930F92CDB7DEB7482F20E030E0942F16
:10543000906C8FB78983F8945D989EBD0DB407FE7C
:10544000FDCF8EB5CB01022E02C0969587950A94AA
:10545000E2F78EBD0DB407FEFDCF8EB55D9A898152
:105460008FBF4F5F285F3F4F2031310501F70F900D
:10547000CF91DF910895DF93CF930F92CDB7DEB731
:10548000482F20E030E0FB01E20FF31FE081942F72
:10549000920F906C8FB78983F8945D989EBD0DB480
:1054A00007FEFDCF8EB5EEBD0DB407FEFDCF8EB568
:1054B0005D9A89818FBF2F5F3F4F2830310519F7E3
:1054C0000F90CF91DF910895FF920F931F93DF9379
:1054D000CF930F92CDB7DEB7182FF62E042F0E9470
:1054E000F429982F106C8FB78983F8945D981EBDAE
:1054F0000DB407FEFDCF8EB5802F809589230F2137
:10550000802B8EBD0DB407FEFDCF8EB55D9A8981CF
:105510008FBF0F90CF91DF911F910F91FF90089552
:10552000DF93CF930F92CDB7DEB7782F392FA22F0D
:10553000862F90E0820F911D8038910554F58FB72A
:105540008983F8945D9880E68EBD0DB407FEFDCF8B
:105550008EB5872F932F9C01F90107C080818EBDE6
:105560000DB407FEFDCF31968EB58E2F871B8617A3
:10557000A8F3FA0107C080818EBD0DB407FEFDCFF0
:1055800031968EB58E2F841B8A17A8F35D9A898178
:105590008FBF0F90CF91DF910895813051F081300E
:1055A00028F0823049F08330E1F411C08CE068E0EB
:1055B00005C08CE06CE002C08CE06CE14FE30E941F
:1055C000642A86E162E043E00E94642A08958CE048
:1055D00060E04FE30E94642A86E163E043E00E94BA
:1055E000642A089588E00E94F4298F71089584B197
:1055F000806A84B9559A2F9A5D9A2E9A2C9A8CB506
:1056000081618CBD8DB581608DBD8CB580648CBD94
:105610005D9A08950E94F22A08950F931F93082F10
:10562000129B02C084E445C081E00E94F429182F37
:105630001F71812F8151823020F0113011F0123012
:1056400031F481E00E94F4298F718117D1F3063182
:1056500079F0093151F00830B1F4129886E090E009
:105660000E94D63D82E063E007C0163161F402C0BB
:10567000193149F482E069E04FE10E94642A81E037
:1056800090E00E94D63D82E0602F4FE10E94642AA4
:10569000183011F081E001C084EB90E00E94D63D0B
:1056A00081E00E94F4298F71801711F083E401C01A
:1056B00080E41F910F9108951F920F920FB60F92E1
:1056C0000BB60F921124AF92BF92CF92DF92EF925E
:1056D000FF920F931F932F933F934F935F936F937B
:1056E0007F938F939F93AF93BF93EF93FF93DF933A
:1056F000CF93CDB7DEB7E497DEBFCDBF8FB7898339
:10570000F894369BBCC05D988FE88EBD0DB407FE43
:10571000FDCF8EB51EBC0DB407FEFDCF0EB55D9A54
:1057200020E2E22E90E8A92EB12C83E0C82ED12CE5
:10573000CC0EDD1EA1C002FF02C00B7F9DC003FF87
:105740007EC081E00E94F4298F71863029F0863175
:1057500019F0813109F069C087E00E94F429809333
:105760005D0686E00E94F429881F8827881F8093A1
:105770005E06882309F45CC08FB78A83F8945D982D
:10578000EEBC0DB407FEFDCF8EB51EBC0DB407FEFA
:10579000FDCFFEB48F2D83508D37B8F52F2D30E01F
:1057A0008091C805A501481B51092417350714F03D
:1057B00080E016C08F2D0E94CC2910E008C01EBCCE
:1057C0000DB407FEFDCF8EB50E94CC291F5F1F15BB
:1057D000B0F31BC01EBC0DB407FEFDCF9EB58F5F9E
:1057E0008F15C0F3809157069091580601969093BB
:1057F000580680935706C6016BE275E00E94F804D4
:105800008FEC9AE0B6010E947F435D9A8A818FBF38
:1058100080914F0690915006019690935006809388
:105820004F0681E080934D0603C081E080934E06D1
:1058300086E10E940D2B8034D9F7077F1DC006FF3B
:105840000BC00F7B8091590690915A060196909358
:105850005A068093590610C001FF02C00D7F0CC08C
:1058600000FF02C00E7F08C007FF06C00F778091BF
:105870005B068F5F80935B06002309F05CCF898114
:105880008FBFE496DEBFCDBFCF91DF91FF91EF9147
:10589000BF91AF919F918F917F916F915F914F9148
:1058A0003F912F911F910F91FF90EF90DF90CF903C
:1058B000BF90AF900F900BBE0F900FBE0F901F9038
:1058C0001895FF920F931F93CF93DF93EC018B01F9
:1058D000F42E81E00E94F4298F71823001F182312F
:1058E000F1F089E10E940D2BCE016AE0A8012F2D75
:1058F0000E94902A81E080935F0682E062E04FE19F
:105900000E94642A80914E068823E1F310924E068D
:1059100082E00E94F42982958695877001C084E414
:10592000DF91CF911F910F91FF9008957F928F92F9
:105930009F92AF92BF92CF92DF92EF92FF920F931E
:105940001F93DF93CF93CDB7DEB72A970FB6F894A6
:10595000DEBF0FBECDBF7C016B01042F48E9742E62
:1059600034E3832E32E1932E5E010894A11CB11C16
:1059700055C0102F053608F014E68FEFE8168FEFAC
:10598000F80611F481E401C081E6155F19831B500C
:105990008A837B8280914C068C838F5F80934C0638
:1059A0009E828D82F886EF8280914A0690914B0606
:1059B0009A878987C501B601412F0E94612C282F43
:1059C000882359F1382F8330F1F0843018F4813076
:1059D00071F404C0853069F0803449F48091510637
:1059E0009091520601969093520680935106322F61
:1059F00019C08091530690915406019690935406D5
:105A0000809353060FC080915506909156060196DB
:105A1000909356068093550605C0011B002309F09C
:105A2000A8CF30E0832F2A960FB6F894DEBF0FBEC2
:105A3000CDBFCF91DF911F910F91FF90EF90DF903D
:105A4000CF90BF90AF909F908F907F9008950E94CD
:105A5000962C0895882329F088E00E940D2B0A983F
:105A6000089512980A9A80E793E00E94D63D86E155
:105A70000E940D2B08950E942A2D08951F93182F20
:105A800088E0612F4FE10E94642A81E00E94F4299E
:105A90008F71863011F0893021F486E990E00E9400
:105AA000D63D88E00E94F42990E08F719070212FFC
:105AB00030E08217930711F083E401C080E41F9166
:105AC00008950E943E2D08959C01F999FECFCB01C7
:105AD000B9012FED39E20E94C7050895DF93CF93F6
