:100000000C943E060C94D2490C94034A0C94344A46
:100010000C9469060C94A00E0C94813D0C94EA2378
:100020000C9469060C9469060C9469060C94D51A14
:100030000C9469060C9469060C9469060C94E546C8
:100040000C9469060C9469060C94654A0C94690634
:100050000C945F4C0C94F54C0C9469060C94690656
:100060000C9469060C9469060C9469060C94690654
:100070000C94984C0C94424D0C9469060C946906AF
:100080000C9469060C9469060C94690605A84CCD7D
:10009000B2D44EB93836A9020C50B9918688083CC2
:1000A000A6AAAA2ABE000000803F2D2D2D2044695B
:1000B00061676E6F7374696320454E44202D2D2D4A
:1000C00000436F6F7264696E617465207472756E3F
:1000D000636174696F6E20656E61626C65642C6E1D
:1000E0006F00436F6F7264696E617465207472751E
:1000F0006E636174696F6E20656E61626C65642CFD
:1001000079657300436F6D6D616E64206C696E6517
:1001100020696E7465726661636520656E61626CEC
:1001200065642C79657300506F776572206D616E20
:100130006167656D656E7420656E61626C65642CC7
:100140007965730053797374656D206672656520F7
:1001500052414D2C0048562073656E736520656EC4
:1001600061626C65642C6E6F005600486967682098
:10017000766F6C7461676520706F77657220737538
:1001800070706C792C0048562073656E736520651D
:100190006E61626C65642C796573006D5600426116
:1001A000747465727920766F6C746167652C004891
:1001B000756D69646974792C0054656D7065726140
:1001C000747572652C006E6F00796573005344205E
:1001D00072656164657220696E697469616C697ABF
:1001E00065642C0053442072656164657220656EFD
:1001F00061626C65642C79657300526164696F207B
:100200006368616E6E656C2C00526164696F206179
:100210006464726573732C006E6F007965730052AD
:100220006164696F20696E697469616C697A65647B
:100230002C00526164696F20656E61626C65642C8C
:10024000796573004465766963652049442C0056DE
:10025000657273696F6E2C002D2D2D2044696167C6
:100260006E6F73746963205354415254202D2D2DA9
:10027000002320436F6F7264696E6174652074722D
:10028000756E636174696F6E20656E61626C656422
:100290002C6E6F002320436F6F7264696E6174650A
:1002A000207472756E636174696F6E20656E616231
:1002B0006C65642C79657300232048562073656E45
:1002C000736520656E61626C65642C6E6F0023201F
:1002D00048562073656E736520656E61626C656457
:1002E0002C796573002320436F6D6D616E64206C03
:1002F000696E6520696E7465726661636520656EFE
:1003000061626C65642C796573002320506F77659A
:1003100072206D616E6167656D656E7420656E61DA
:10032000626C65642C7965730023205344207265E8
:100330006164657220656E61626C65642C796573B9
:10034000002320526164696F20656E61626C656490
:100350002C79657300232053797374656D20667260
:1003600065652052414D2C2564420023205665725C
:1003700073696F6E2C00232057656C636F6D652069
:10038000746F2053616665636173742062476569A9
:10039000676965332053797374656D002425732C68
:1003A000256C782C323025732D25732D257354251B
:1003B000733A25733A25735A2C25732C25732C25F3
:1003C000732C25732C25732C7625732C25642C25F2
:1003D000642C25642C2C25642C25642C2564002495
:1003E00025732C256C782C323025732D25732D2503
:1003F000735425733A25733A25735A2C25732C258B
:10040000732C25732C25732C25732C7625732C25A2
:10041000642C25642C25642C25642C25642C2564EF
:100420002C2564002425732C256C782C3230257300
:100430002D25732D25735425733A25733A25735A48
:100440002C256C642C256C642C256C642C25632C69
:1004500025732C25732C25732C25732C25732C25A3
:10046000732C25732C25730074696D656F7574008A
:100470006D73004750532073746172742074696DFA
:10048000652C0056657273696F6E2D002A2A2A202A
:1004900057656C636F6D6520746F2062476569678F
:1004A0006965202A2A2A0024504D544B3330312CC0
:1004B000322A32450024504D544B3331332C312AEB
:1004C00032450024504D544B3232302C31303030D4
:1004D0002A31460024504D544B3331342C302C31CA
:1004E0002C302C312C302C302C302C302C302C302B
:1004F0002C302C302C302C302C302C302C302C301C
:100500002C302A3238006F6E006F666600656570A9
:10051000726F6D0066696C6500202052652D7365F1
:1005200074757020746865204750532E0020204950
:1005300073737565642066756C6C20636F6C6420E2
:100540007265737461727420636F6D6D616E642087
:10055000746F20746865204750532E0024504D540A
:100560004B3130342A333700202068656C702020EE
:100570002020202020202020202020202020536800
:100580006F7720746869732068656C70002020673D
:10059000707366756C6C636F6C6420202020202063
:1005A000202020446F20612066756C6C20636F6C86
:1005B000642072657374617274206F66207468655C
:1005C000204750532E002020646961676E6F73745A
:1005D00069637320202020202020202052756E2067
:1005E000646961676E6F73746963206F6620646508
:1005F000766963652E002020636F6E666967203C14
:10060000636D643E205B6172675D2020436F6E66A0
:100610006967757265206465766963652E004C694B
:100620007374206F6620636F6D6D616E64733A0042
:100630002020636F6E6669672068656C70202020DB
:1006400020202020202020202020202020202020AA
:100650002053686F7720746869732068656C702E0A
:10066000002020636F6E66696720636F7079205B7E
:10067000656570726F6D2F66696C655D2020202046
:100680002020436F707920636F6E666967757261B1
:1006900074696F6E2066726F6D20454550524F4DE4
:1006A000206F72205344206361726420746F206D48
:1006B000656D6F72792E002020636F6E666967200A
:1006C00073617665205B656570726F6D2F66696C0E
:1006D000655D202020202020577269746573206397
:1006E0006F6E66696775726174696F6E20746F20D2
:1006F000454550524F4D206F722053442063617224
:10070000642E002020636F6E6669672073617665D2
:1007100020202020202020202020202020202020D9
:100720002020202057726974657320636F6E66699C
:100730006775726174696F6E20746F204545505201
:100740004F4D20616E6420534420636172642E001B
:100750002020636F6E6669672053445257205B6F99
:100760006E2F6F66665D2020202020202020202014
:1007700020456E61626C65206F72206469736162EE
:100780006C65207772697465207065726D6973732A
:10079000696F6E20746F205344206361726420740B
:1007A00068726F756768207265616465722E0020DB
:1007B00020636F6E66696720485653656E736520C7
:1007C0005B6F6E2F6F66665D20202020202020202A
:1007D000456E61626C65206F722064697361626C42
:1007E0006520686967682D766F6C74616765206F36
:1007F00075747075742073656E73696E672E002052
:1008000020636F6E66696720436F6F726454727500
:100810006E63205B6F6E2F6F66665D202020202048
:10082000456E61626C65206F722064697361626CF1
:100830006520636F6F7264696E6174652074727590
:100840006E636174696F6E20746F2031303078315F
:1008500030306D20677269642E002020636F6E66F1
:1008600069672053657269616C4F75747075742087
:100870005B6F6E2F6F66665D202020546F67676C1C
:10088000652073657269616C206F75747075742072
:100890006F6E206F72206F66662E002020636F6E71
:1008A000666967204944205B69645D202020202020
:1008B000202020202020202020202020536574206C
:1008C0006465766963652073657269616C206E7515
:1008D0006D6265722E2054686973206973206120EF
:1008E000342D646967697420686578206E756D625F
:1008F0006572002020636F6E6669672073686F778A
:10090000205B656570726F6D2F66696C655D202078
:100910002020202053686F7720656570726F6D2FDF
:1009200066696C6520636F6E66696775726174696C
:100930006F6E2E002020636F6E6669672073686F8C
:100940007720202020202020202020202020202050
:10095000202020202053686F772063757272656EA7
:100960007420636F6E66696775726174696F6E2E4D
:10097000004C697374206F6620636F6D6D616E64E7
:10098000733A0055736167653A20636F6E666967F5
:10099000203C636D643E205B617267735D00636F32
:1009A000707900736176650020776974686F75747B
:1009B000206D61676963002077697468206D6167E5
:1009C000696300454550524F4D20636F6E74656EEC
:1009D000743A0073686F770068656C700049440072
:1009E00053657269616C4F757470757400436F6FF5
:1009F00072645472756E6300485653656E73650079
:100A000053445257007C3C3E5E2B3D3F2F5B5D3B89
:100A10002C2A225C004255464645522046554C4CF5
:100A20002E20544F5353494E4720494E434F4D4972
:100A30004E4720444154410A0043484942493A2024
:100A4000436F6D6D616E64206E6F74207265636FAD
:100A5000676E697A65642E002A2A2A2A2A2A2A2A97
:100A60002A2A2A2A2A2A2A204348494249202A2A6D
:100A70002A2A2A2A2A2A2A2A2A2A2A2A2A2A2A2AD6
:100A80002A004348494249203E3E20005241444901
:100A90004F204E4F5420494E495449414C495A45E4
:100AA000442050524F5045524C590A00434D443A4D
:100AB00020436F6D6D616E64206E6F74207265638C
:100AC0006F676E697A65642E002A2A2A2A2A2A2AE2
:100AD0002A2A2A2A2A2A2A2A20434D44202A2A2A34
:100AE0002A2A2A2A2A2A2A2A2A2A2A2A2A2A2A2A66
:100AF00000434D44203E3E20006E6F007965730038
:100B00004750532073797374656D207374617274E8
:100B100075702C006E6F0079657300475053207418
:100B2000797065204D544B2C0024504D544B31307E
:100B3000312A33320024504D544B3031302C303078
:100B4000312A32450024504D544B3031312C4D5414
:100B50004B4750532A3038006E6F0079657300534D
:100B60004420726561642077726974652C006E6F31
:100B70000053442074657374203A2063616E2774B7
:100B80002072656D6F766520746573742066696C7C
:100B90006500796573005344206F70656E20666947
:100BA0006C652C005468697320697320612062476A
:100BB000656967696520746573740042475F5445D1
:100BC00053542E545854006E6F007965730053448B
:100BD00020696E697469616C697A65642C00796555
:100BE00073006E6F00534420696E736572746564A0
:100BF0002C0000002100240027002A000000220011
:100C0000250028002B0000002000230026002900DA
:100C100002020202020202020404040404040404A4
:100C200003030303030303030101010101010101A4
:100C300001020408102040800102040810204080B6
:100C400001020408102040800102040810204080A6
:100C5000000000010200080900000000040307066C
:100C60000000000000000000000000000000000084
:100C7000100F5D2242278247B44E7B4711241FBECE
:100C8000CFEFD0E4DEBFCDBF12E0A0E0B1E0E2E6FE
:100C9000F8EA00E00BBF02C007900D92AC35B10737
:100CA000D9F71BBE1AE0ACE5B2E001C01D92A43C2E
:100CB000B107E1F71CE0CAE7DCE004C02297FE01BF
:100CC0000E94DE53C037D107C9F70E944A4F0C94E7
:100CD00024540C940000CF93DF93BC018230910523
:100CE00010F462E070E0A091C00AB091C10AED0179
:100CF000E0E0F0E040E050E021C088819981861773
:100D0000970769F48A819B81309719F093838283D6
:100D100004C09093C10A8093C00AFE0134C06817D2
:100D2000790738F44115510519F08417950708F42F
:100D3000AC01FE018A819B819C01E9012097E9F6C3
:100D400041155105A9F1CA01861B970B049708F4B8
:100D5000BA01E0E0F0E02AC08D919C9111978417D0
:100D60009507F9F46417750781F412968D919C919B
:100D70001397309719F09383828304C09093C10A2C
:100D80008093C00AFD0132964CC0CA01861B970BA6
:100D9000FD01E80FF91F6193719302978D939C9366
:100DA00040C0FD01828193819C01D9011097A1F679
:100DB0008091BE0A9091BF0A892B41F48091D8019D
:100DC0009091D9019093BF0A8093BE0A4091DA01B5
:100DD0005091DB014115510541F44DB75EB780914B
:100DE000D6019091D701481B590B2091BE0A309132
:100DF000BF0ACA01821B930B8617970780F0AB01CD
:100E00004E5F5F4F8417950750F0420F531F50936A
:100E1000BF0A4093BE0AF9016193719302C0E0E0FA
:100E2000F0E0CF01DF91CF910895CF93DF9300974A
:100E300009F450C0EC0122971B821A82A091C00ACB
:100E4000B091C10A109709F140E050E0AC17BD071E
:100E500008F1BB83AA83FE0121913191E20FF31FB8
:100E6000AE17BF0779F48D919C911197280F391F08
:100E70002E5F3F4F3983288312968D919C91139753
:100E80009B838A834115510571F4D093C10AC093A5
:100E9000C00A20C012968D919C911397AD010097C6
:100EA00011F0DC01D3CFFA01D383C28321913191B8
:100EB000E20FF31FCE17DF0769F488819981280FAD
:100EC000391F2E5F3F4FFA01318320838A819B8136
:100ED00093838283DF91CF9108952F923F925F9207
:100EE0006F927F928F929F92AF92BF92CF92DF923A
:100EF000EF92FF920F931F93CF93DF938C011B010F
:100F0000EA016115710519F0FB0191838083209737
:100F100049F0CE010297839728F020E030E040E0CE
:100F200050E0F6C0F801A1908F018A2D90E00E9458
:100F3000E253892BB9F7FDE2AF1631F4F801A19025
:100F40008F015524539407C0FBE2AF1619F4F80142
:100F5000A1908F015524209719F0C031D105C1F41B
:100F6000F0E3AF1679F4F8018081883711F0883505
:100F700049F4F801A1800E5F1F4FF2E05F2AC0E143
:100F8000D0E006C0209721F480E3A816E9F427C03A
:100F9000C830D10531F1C930D10524F4C230D105B2
:100FA00031F50CC0CA30D10589F0C031D105F9F452
:100FB000C12CD12CE12CB8E0FB2E28C0C12CD12CA7
:100FC000E12CA0E4FA2E22C0CAE0D0E0FCECCF2E47
:100FD000FCECDF2EFCECEF2EFCE0FF2E17C0C8E08F
:100FE000D0E0C12CD12CE12CE0E1FE2E0FC09E01FF
:100FF000442737FD4095542F60E070E080E090E892
:101000000E94A653C901DA016C017D0120E030E0A5
:1010100040E050E060E03E01882477FC8094982C0A
:1010200070EDB72EBA0CE9E0EB1570F48A2D8154FF
:101030008A3118F499ECB92E06C08A2D81568A316E
:1010400050F589EAB82EBA0C8B2D90E08C179D07CD
:1010500014F56F3FE1F0C216D306E406F506B0F0D2
:10106000CA01B901A40193010E9468539B01AC011C
:101070002B0D311D411D511D2130F0E03F07F0E0E7
:101080004F07F0E85F0710F461E001C06FEFF8016F
:10109000A1908F01C5CF2114310481F0662331F076
:1010A00001501040F1011183008308C051FE1AC0A5
:1010B00002501040F1011183008314C067FF12C079
:1010C00050FC05C02FEF3FEF4FEF5FE704C020E07B
:1010D00030E040E050E882E290E09093C30A8093D1
:1010E000C20A16C050FE08C0509540953095219513
:1010F0003F4F4F4F5F4F0CC057FF0AC082E290E056
:101100009093C30A8093C20A2FEF3FEF4FEF5FE740
:10111000B901CA01DF91CF911F910F91FF90EF901C
:10112000DF90CF90BF90AF909F908F907F906F9007
:101130005F903F902F900895A0E0B0E0E2EAF8E0E1
:101140000C94EE53EC012B016A016115710519F045
:10115000FB0191838083C114D10449F0C601029739
:10116000839728F020E030E040E050E0DCC0A99018
:101170008A2D90E00E94E253892BC9F7FDE2AF1659
:1011800021F4A9903324339405C08BE2A81609F406
:10119000A9903324C114D10421F0E0E1CE16D1048A
:1011A00011F5F0E3AF1669F48881883711F08835BE
:1011B00041F4A980229682E0382A20E1C22ED12C67
:1011C00012C0C114D10479F4E0E3AE1659F199E9E3
:1011D000E92E99E9F92E99E9092F99E1192F8AE069
:1011E000C82ED12C3AC0FAE0CF16D10491F080E19C
:1011F000C816D10429F0E8E0CE16D104F9F415C0E0
:10120000BFEFEB2EBFEFFB2EBFEF0B2FBFE01B2F6F
:1012100024C0A9E9EA2EA9E9FA2EA9E90A2FA9E131
:101220001A2F1BC0F8E0CF2ED12CEFEFEE2EEFEFF0
:10123000FE2EEFEF0E2FEFE11E2F0FC09601442779
:1012400037FD4095542F6FEF7FEF8FEF9FEF0E9498
:10125000A653C901DA017C018D0120E030E040E0B5
:1012600050E060E03601882477FC8094982C70ED83
:10127000B72EBA0CF9E0FB1570F48A2D81548A312F
:1012800018F499ECB92E06C08A2D81568A3148F59A
:1012900089EAB82EBA0C8B2D90E08C159D050CF5C3
:1012A0006F3FE9F0E216F30604071507B8F0CA012C
:1012B000B901A40193010E9468539B01AC018B2DDD
:1012C00090E0A0E0B0E0280F391F4A1F5B1F2817ED
:1012D00039074A075B0710F061E001C06FEFA99082
:1012E000C6CF4114510451F0662311F0219703C079
:1012F00031FE04C02297F201D183C08330FE07C0C3
:1013000050954095309521953F4F4F4F5F4F67FF68
:101310000AC082E290E09093C30A8093C20A2FEF42
:101320003FEF4FEF5FEFB901CA01CDB7DEB7E1E1A3
:101330000C940A54FB01DC018D9105908019011079
:10134000D9F3990B0895FB01DC0105900D92002063
:10135000E1F708954CE552E00E94320A0895FB013E
:10136000DC0104C08D910190801921F4415050405E
:10137000C8F7881B990B0895FB01DC010D90002034
:10138000E9F7119701900D920020E1F70895FC0113
:101390008191861721F08823D9F7992708953197ED
:1013A000CF010895FB01DC018D910190801901109E
:1013B000D9F3990B0895FB01DC0101900D920020F7
:1013C000E1F70895FB01DC010D900020E9F711978A
:1013D0004150504028F0019000200D92C9F7089527
:1013E0001C920895FB01DC014150504030F08D917A
:1013F0000190801919F40020B9F7881B990B089502
:10140000FB01DC014150504048F001900D9200205A
:10141000C9F701C01D9241505040E0F70895FC010A
:101420006150704001900110D8F7809590958E0F13
:101430009F1F0895FC01A081B181AD01109681F03C
:101440003D91FB01019003160110E1F7C9F700205F
:1014500011F4D00102C01E921196FC01A083B18349
:10146000CA010895009731F4DA018D919C9100979B
:1014700009F40EC0DC01FB013D912191222319F0FA
:101480003217C9F3FACF332331F4DA011D921C92DB
:101490008827992708951197AF93BF93FB013D913A
:1014A0002191321771F4332321F48827992711975A
:1014B00002C01E921196FA01A193B0839F918F9161
:1014C0000895222369F7EACFA0E0B0E0EAE6FAE067
:1014D0000C94F7537C01EB018A01690109C0CE012C
:1014E0002196F6010995F70181937F010150104083
:1014F00001151105A1F7CDB7DEB7E8E00C94135440
:10150000A0E0B0E0E6E8FAE00C94F753EC017B01D0
:101510008A01690109C0CE012196F70161917F011D
:10152000F60109950150104001151105A1F7CDB73D
:10153000DEB7E8E00C941354AEE0B0E0E2EAFAE083
:101540000C94FB530D891E8986E08C831A830983D2
:101550008FEF9FE79E838D839E01275E3F4FCE01D5
:1015600001966F89788DA9010E94E40A2F81388540
:10157000020F131FF80110822E96E4E00C9417540A
:10158000AEE0B0E0E6ECFAE00C94FB530D891E8966
:101590008EE08C831A8309838FEF9FE79E838D8370
:1015A0009E01275E3F4FCE0101966F89788DA9017C
:1015B0000E94E40A2F813885020F131FF801108260
:1015C0002E96E4E00C941754ABE0B0E0EAEEFAE0BB
:1015D0000C94ED533C012B015A01FC011782168239
:1015E000838181FD03C06FEF7FEFC6C19AE0892E32
:1015F0001E010894211C311CF3012381F20123FDFB
:10160000859123FF81912F01882309F4B2C185328E
:1016100039F423FD859123FF81912F01853229F42F
:1016200090E0B3010E94CC0CE7CF982FFF24EE246A
:101630009924FFE1FF15D0F09B3269F09C3228F429
:10164000903259F0933291F40EC09D3249F09033AC
:1016500069F441E024C052E0F52A84E0F82A28C069
:1016600098E0F92A25C0E0E1FE2A22C0F7FC29C053
:10167000892F80538A3070F4F6FE05C0989C902C18
:101680001124980E15C0E89CE02C1124E80EF0E21D
:10169000FF2A0EC09E3229F4F6FC6BC140E4F42A06
:1016A00007C09C3619F450E8F52A02C0983649F470
:1016B000F20123FD959123FF91912F01992309F0C8
:1016C000B8CF892F8554833018F08052833038F496
:1016D00044E050E0A40EB51E5FE359830FC093367B
:1016E00031F0933779F0933509F056C020C0F501F9
:1016F0008081898342E050E0A40EB51E610101E0C3
:1017000010E012C0F501C080D180F6FC03C06FEF7D
:101710007FEF02C0692D70E042E050E0A40EB51EDC
:10172000C6010E940F0A8C015FE7F52214C0F50183
:10173000C080D180F6FC03C06FEF7FEF02C0692D3F
:1017400070E042E050E0A40EB51EC6010E94C10C3C
:101750008C0150E8F52AF3FE07C01AC080E290E041
:10176000B3010E94CC0CEA948E2D90E00817190763
:10177000A8F30EC0F601F7FC8591F7FE81916F0189
:1017800090E0B3010E94CC0CE110EA9401501040AB
:101790000115110579F7EAC0943611F0993669F50B
:1017A000F7FE08C0F501208131814281538184E038
:1017B00090E00AC0F501808191819C01442737FDAA
:1017C0004095542F82E090E0A80EB91E9FE6F922C2
:1017D00057FF09C050954095309521953F4F4F4F89
:1017E0005F4FE0E8FE2ACA01B901A1012AE030E01A
:1017F0000E94F80CD82ED21840C0953729F41F2D1E
:101800001F7E2AE030E01DC01F2D197F9F3661F03A
:10181000903720F4983509F0ACC00FC0903739F0FC
:10182000983709F0A6C004C028E030E00AC0106173
:1018300014FD146020E130E004C014FD166020E1C6
:1018400032E017FF08C0F5016081718182819381C8
:1018500044E050E008C0F50180819181BC0180E046
:1018600090E042E050E0A40EB51EA1010E94F80CE9
:10187000D82ED2188FE7F82EF122F6FE0BC05EEFBD
:10188000F522D91438F4F4FE07C0F2FC05C08FEE3F
:10189000F82202C01D2D01C0192DF4FE0DC0FE015D
:1018A000ED0DF11D8081803319F499EEF92208C005
:1018B0001F5FF2FE05C003C08F2D867809F01F5F01
:1018C0000F2DF3FC14C0F0FE0FC01E1510F09D2C60
:1018D0000BC09D2C9E0C911A1E2D06C080E290E03C
:1018E000B3010E94CC0C1F5F1E15C0F304C01E156F
:1018F00010F4E11A01C0EE2404FF0FC080E390E071
:10190000B3010E94CC0C02FF1DC001FD03C088E79B
:1019100090E00EC088E590E00BC0802F867891F0B3
:1019200001FF02C08BE201C080E2F7FC8DE290E093
:10193000B3010E94CC0C06C080E390E0B3010E948A
:10194000CC0C9A94D914C0F3DA94F101ED0DF11D89
:10195000808190E0B3010E94CC0CDD20A9F706C085
:1019600080E290E0B3010E94CC0CEA94EE20C1F733
:1019700043CEF30166817781CB012B96E2E10C9493
:101980000954FC010590615070400110D8F7809512
:1019900090958E0F9F1F08950F931F93CF93DF9302
:1019A0008C01EB018B8181FF1BC082FF0DC02E815A
:1019B0003F818C819D812817390764F4E881F98182
:1019C0000193F983E88306C0E885F985802F09959E
:1019D000892B31F48E819F8101969F838E8302C073
:1019E0000FEF1FEFC801DF91CF911F910F91089565
:1019F000FA01AA27283051F1203181F1E8946F9340
:101A00006E7F6E5F7F4F8F4F9F4FAF4FB1E03ED0E5
:101A1000B4E03CD0670F781F891F9A1FA11D680F83
:101A2000791F8A1F911DA11D6A0F711D811D911DB6
:101A3000A11D20D009F468943F912AE0269F11242B
:101A40003019305D3193DEF6CF010895462F47708F
:101A5000405D4193B3E00FD0C9F7F6CF462F4F70EA
:101A6000405D4A3318F0495D31FD4052419302D048
:101A7000A9F7EACFB4E0A6959795879577956795EE
:101A8000BA95C9F700976105710508959B01AC01EE
:101A90000A2E06945795479537952795BA95C9F715
:101AA000620F731F841F951FA01D089510925F027F
:101AB00010925E02089520E030E080915E029091E5
:101AC0005F02019711F421E030E0C9010895EF921F
:101AD000FF920F931F937B018C010E94B94A6E15F0
:101AE0007F058007910718F09B01AC0106C09B01A0
:101AF000AC0121503040404050402E193F09400B6E
:101B0000510BB901CA011F910F91FF90EF900895F9
:101B1000EF92FF920F931F93809160029091610268
:101B2000892B59F0E0916A02F0916B02309709F02D
:101B30000995109261021092600280917A008F776D
:101B400080937A0080B7806880BF8FEF80937E009B
:101B500083E080937F0080916400806880936400BC
:101B6000809164008460809364008091640082604E
:101B7000809364008091640080628093640080910F
:101B80006400886080936400809164008064809326
:101B900064008091650081608093650083B7817FD8
:101BA000846083BF83B7816083BF889583B78E7F4E
:101BB00083BF80917A00806880937A0080B78F77A6
:101BC00080BF10927E0080917F008D7F80937F0088
:101BD000809164008F7780936400809164008B7F94
:101BE00080936400809164008D7F80936400809175
:101BF00064008F7D8093640080916400877F809370
:101C00006400809164008F7B809364008091650004
:101C10008E7F809365000E94B94A7B018C01C801C8
:101C2000B7010E94670D685E73408040904058F590
:101C300080916C020E942E4C019729F5F0CF81E033
:101C400090E090935F0280935E0210926302109284
:101C5000620280915E0290915F02019731F0809163
:101C6000410590914205892BC1F0E0916802F09105
:101C70006902309709F0099581E090E09093610244
:101C8000809360020AC0C801B7010E94670D685EB8
:101C900073408040904098F6D8CF1F910F91FF90ED
:101CA000EF9008958091620290916302892BB9F1BF
:101CB00080915E0290915F02019789F580916C029C
:101CC0000E942E4C0197E1F40E94B94A20916402CF
:101CD000309165024091660250916702621B730B5E
:101CE000840B950B695E734080409040C0F0109269
:101CF0005F0210925E0210926302109262020FC0A5
:101D000010926302109262021092640210926502B5
:101D1000109266021092670202C00E94880D8091A4
:101D20005E0290915F02892B51F4809140058130D1
:101D300031F08091410590914205892B71F308950E
:101D40001F920F920FB60F920BB60F9211242F9382
:101D50003F934F935F936F937F938F939F93AF9333
:101D6000BF93EF93FF9380916C020E942E4C0197DA
:101D7000A9F480915E0290915F028130910571F427
:101D800090936302809362020E94B94A6093640256
:101D9000709365028093660290936702FF91EF91C2
:101DA000BF91AF919F918F917F916F915F914F9173
:101DB0003F912F910F900BBE0F900FBE0F901F9071
:101DC000189580916C0260E00E94974BECE6F0E081
:101DD000808181608083E8E6F0E08081826080839A
:101DE000089590936D0280936C02709369026093E2
:101DF000680250936B0240936A020E94E10E1092B7
:101E00005F0210925E0281E090E090936102809305
:101E100060026AE070E080E090E00E94C74A0895A6
:101E200082EC92E061E070E028E833E140E050E0CD
:101E30000E94B24608952F923F924F925F926F9206
:101E40007F928F929F92AF92BF92CF92DF92EF924A
:101E5000FF920F931F932C011B01FC0162817727D6
:101E600067FD709560537040882777FD8095982FA7
:101E700020EA36E841E050E00E9468535B016C01C3
:101E8000F2016381772767FD709560537040882762
:101E900077FD8095982F20E137E240E050E00E94E6
:101EA0006853A60EB71EC81ED91EF2018085992759
:101EB00087FD9095C097AA2797FDA095BA2FA80EE9
:101EC000B91ECA1EDB1E6681772767FD70956053B9
:101ED0007040882777FD8095982F24E630E040E019
:101EE00050E00E946853A60EB71EC81ED91EF2010C
:101EF0006581772767FD709560537040882777FD6F
:101F00008095982F28EE33E040E050E00E9468531F
:101F1000A60EB71EC81ED91EF2016781772767FD7E
:101F2000709560537040882777FD8095982F2AE040
:101F300030E040E050E00E946853A60EB71EC81E75
:101F4000D91EC601B50122E232E040E050E00E9415
:101F5000A6539B01AC01A21AB30AC40AD50AC60152
:101F6000B50120EA36E841E050E00E94A653205D2A
:101F7000F2012283C601B50120EA36E841E050E0D3
:101F80000E94A65320E137E240E050E00E94A653B1
:101F9000205DF2012383C601B50120E137E240E074
:101FA00050E00E94A65328EE33E040E050E00E944B
:101FB000A653205DF2012583C601B50128EE33E06A
:101FC00040E050E00E94A65324E630E040E050E0BC
:101FD0000E94A653205DF2012683C601B50124E6C6
:101FE00030E040E050E00E94A6532AE030E040E0BC
:101FF00050E00E94A653205DF2012783C601B5017F
:102000002AE030E040E050E00E94A653605DF2011B
:102010006087F1016381772767FD70956053704099
:10202000882777FD8095982F20EA36E841E050E038
:102030000E9468537B018C01F1016481772767FD61
:10204000709560537040882777FD8095982F20E128
:1020500037E240E050E00E946853E60EF71E081F8A
:10206000191FF1018185992787FD9095C097AA27AF
:1020700097FDA095BA2FE80EF91E0A1F1B1F678156
:10208000772767FD709560537040882777FD8095AE
:10209000982F24E630E040E050E00E946853E60EBE
:1020A000F71E081F191FF1016681772767FD7095DC
:1020B00060537040882777FD8095982F28EE33E095
:1020C00040E050E00E946853E60EF71E081F191FFB
:1020D000F1016085772767FD709560537040882710
:1020E00077FD8095982F2AE030E040E050E00E9494
:1020F0006853E60EF71E081F191FF201608177274B
:1021000067FD709560537040882777FD8095982F04
:102110000E94F15120E030E040E251E40E94BF52C1
:102120003B014C01F2016181772767FD7095605397
:102130007040882777FD8095982F0E94F1519B0170
:10214000AC01C401B3010E94EF503B014C01C60138
:10215000B5010E94EF5120E03CE742E159E40E94C2
:1021600056519B01AC01C401B3010E94EF5020E025
:1021700030E044E353E40E9456512BED3FE049E444
:1021800050E40E94BF520E9453519B01AC0163E195
:1021900072E88FE59DE30E94565120E030E44CE167
:1021A00056E40E94BF520E94C3519B01AC0140E023
:1021B00050E0C801B7010E94A6539B01AC01E21A8E
:1021C000F30A040B150BC801B70120EA36E841E019
:1021D00050E00E94A653205DF1012383C801B7019E
:1021E00020EA36E841E050E00E94A65320E137E2C1
:1021F00040E050E00E94A653205DF1012483C80115
:10220000B70120E137E240E050E00E94A65328EEFB
:1022100033E040E050E00E94A653205DF1012683A8
:10222000C801B70128EE33E040E050E00E94A65319
:1022300024E630E040E050E00E94A653205DF1012A
:102240002783C801B70124E630E040E050E00E9457
:10225000A6532AE030E040E050E00E94A653205D03
:10226000F1012087C801B7012AE030E040E050E0EA
:102270000E94A653605DF10161871F910F91FF904D
:10228000EF90DF90CF90BF90AF909F908F907F9016
:102290006F905F904F903F902F900895CF92DF9274
:1022A000EF92FF920F931F93DF93CF93CDB7DEB7DB
:1022B000E4970FB6F894DEBF0FBECDBF8E010D5F61
:1022C0001F4FC80168E572E00E94A30980E89AE008
:1022D000B8010E94DB50C8016FE472E00E94A309BC
:1022E00080E89AE0B8010E94D85080E89AE06EE257
:1022F00072E00E94DB50C80164E472E00E94A3090E
:1023000080E89AE0B8010E94D8506091160270915E
:10231000170280E89AE040E150E00E944A50C8016C
:1023200062E372E00E94A30980E89AE0B8010E948B
:10233000DB50C8016FE172E00E94A30980E89AE0D7
:10234000B8010E94D8508091C002882321F0C801B2
:102350006BE172E003C0C80168E172E00E94A3096A
:1023600080E89AE0B8010E94DB5080E00E94603F64
:102370008E010D5F1F4FC80169E072E00E94A30942
:1023800080E89AE0B8010E94D8500E94A83FBC01A2
:1023900080E89AE040E150E00E944A50C8016AEFAC
:1023A00071E00E94A30980E89AE0B8010E94D85029
:1023B0000E942F3D682F80E89AE04AE050E00E949A
:1023C000675081E00E94603F0E94B5430E94B84878
:1023D000C80164EE71E00E94A30980E89AE0B801A8
:1023E0000E94DB50C8016DEC71E00E94A30980E8F7
:1023F0009AE0B8010E94D8508091C102882321F050
:10240000C80169EC71E003C0C80166EC71E00E948C
:10241000A30980E89AE0B8010E94DB50809174081B
:1024200060E00E94FB4B64E670E080E090E00E9478
:10243000C74A0E94BE410E94BE417B018C0183E0DD
:10244000C82ED12CCC0EDD1EC60169EB71E00E94B6
:10245000A30980E89AE0B6010E94D850C801B701EC
:102460000E94BE519B01AC0180E89AE0B9014AE0AC
:1024700050E00E94C55080E89AE063E40E94AB4FB0
:102480000E94E9410E94E9417B018C01C6016FEA8B
:1024900071E00E94A30980E89AE0B6010E94D8503A
:1024A000C801B7010E94BE519B01AC0180E89AE0CF
:1024B000B9014AE050E00E94C55080E89AE065E228
:1024C0000E94AB4F8091740861E00E94FB4B0E9418
:1024D00063420E9463427B018C01C6016EE971E098
:1024E0000E94A30980E89AE0B6010E94D850C80172
:1024F000B70120E030E04AE754E40E94BF520E9456
:10250000BE519B01AC0180E89AE0B9014AE050E07D
:102510000E94C550C6016BE971E00E94A30980E8E2
:102520009AE0B6010E94DB5080911A02882359F18B
:10253000C60166E871E00E94A30980E89AE0B6014E
:102540000E94DB500E943E420E943E427B018C0171
:10255000C6016BE671E00E94A30980E89AE0B6012B
:102560000E94D850C801B7010E94BE519B01AC0126
:1025700080E89AE0B9014AE050E00E94C550C601E7
:1025800069E671E003C0C60165E571E00E94A30938
:1025900080E89AE0B6010E94DB508E010D5F1F4F6C
:1025A000C80164E471E00E94A30980E89AE0B801E0
:1025B0000E94D8502091BE0A3091BF0ACE010196E8
:1025C0002115310519F4845C9A4002C0821B930BDB
:1025D0009A83898369817A8180E89AE04AE050E0B1
:1025E0000E94C55080E89AE062E40E94AB4F8E01E1
:1025F0000D5F1F4FC80167E271E00E94A30980E8E8
:102600009AE0B8010E94DB50C80164E071E00E94CA
:10261000A30980E89AE0B8010E94DB50809119027A
:10262000882321F0C80162EE70E003C0C80161ECAC
:1026300070E00E94A30980E89AE0B8010E94DB5094
:102640008E010D5F1F4FC8016AEA70E00E94A30966
:1026500080E89AE0B8010E94DB50E4960FB6F89447
:10266000DEBF0FBECDBFCF91DF911F910F91FF90C5
:10267000EF90DF90CF900895EF92FF920F931F930A
:10268000DF93CF93CDB7DEB7E4970FB6F894DEBFF4
:102690000FBECDBF7C018E010D5F1F4FC80166E7E5
:1026A00073E00E94A309C701B8010E948947C801CD
:1026B0006BE673E00E94A309C8016EE272E00E941B
:1026C000BC09C701B8010E9489472091BE0A309118
:1026D000BF0ACE0101962115310519F4845C9A4098
:1026E00002C0821B930B9A83898300D000D000D054
:1026F000EDB7FEB731968E010D5F1F4FADB7BEB778
:1027000012961C930E93119785E593E09383828331
:1027100089819A81958384830E94C00A8DB79EB770
:1027200006960FB6F8949EBF0FBE8DBFC701B801C5
:102730000E948947C80161E473E00E94A309C701B0
:10274000B8010E948947C80169E273E00E94A309A9
:10275000C701B8010E948947C8016AE073E00E947E
:10276000A309C701B8010E948947C80165EE72E05C
:102770000E94A309C701B8010E94894780911A02EB
:10278000882321F0C8016EEC72E003C0C80168EB39
:1027900072E00E94A3098E010D5F1F4FC701B801AF
:1027A0000E94894780911902882321F0C80164E9B9
:1027B00072E003C0C80161E772E00E94A309C7018B
:1027C000B8010E948947E4960FB6F894DEBF0FBEA9
:1027D000CDBFCF91DF911F910F91FF90EF900895A2
:1027E0000E94634220E030E04AE754E40E94BF5276
:1027F0000E94C3517093BF026093BE02645E7C402E
:1028000040F480E89AE060E071E00E94DB500E94B2
:10281000560D08950F931F9380E00E94171B83E0CD
:1028200061E00E94FB4B81E00E94603F8BE161E030
:102830000E94FB4B8091740861E00E94FB4B2C9836
:1028400000E81AE0C80164E271E00E94DB506AE02F
:1028500070E080E090E00E94C74AC8010E94664E86
:102860001F910F910895CF93DF938091410590912F
:102870004205892B09F076C081E00E94171B8EE08B
:1028800090E064E170E04CE050E00E947A490E94E0
:1028900054258093C10204C08FE99AE00E943D4E06
:1028A0008FE99AE00E940C4E892BB1F783E060E03B
:1028B0000E94FB4B8091740860E00E94FB4B0E94D9
:1028C000AC2180E00E94603FC0911602D0911702B7
:1028D000C050D04D0E94A83FC817D90719F0CE01AB
:1028E0000E94684081E00E94603F1092BB021092FB
:1028F000BA021092BD021092BC02EEE6F2E0119212
:1029000011921192119282E0EE39F807C1F71092FC
:102910009E0210929F021092A0021092A1021092A9
:10292000A2021092A3021092A4021092A502109289
:10293000A7021092A60286E58093DC018BE160E09D
:102940000E94FB4B6AE070E080E090E00E94C74A82
:1029500082EC92E00E94344780E89AE062E471E001
:102960000E94DB50DF91CF9108952F923F924F92BA
:102970005F926F927F928F929F92AF92BF92CF920F
:10298000DF92EF92FF920F931F93DF93CF93CDB718
:10299000DEB764970FB6F894DEBF0FBECDBF7C01E3
:1029A0008091740860E00E94FB4B64E670E080E078
:1029B00090E00E94C74A80911A02882319F41A8273
:1029C000198206C00E943E420E94BE517A836983EA
:1029D0000E94634220E030E04AE754E40E94BF5284
:1029E0000E94BE516B837C838D839E830E94BE4177
:1029F0005B016C010E94E9413B014C01809174082C
:102A000061E00E94FB4B0E942B4324E6D7011D92FC
:102A10002A95E9F720911A02A9EEB1E0AC014056DF
:102A20005F4FBC0163567F4FFC01E656FF4FFA8BA8
:102A3000E98B8C010D551F4F1C8B0B8BE6EA4E2E3C
:102A4000512C480E591E39EA232E312C280E391EDE
:102A5000FC017896F887EF838C01095D1F4F1A8778
:102A60000987FC01B996FC87EB878C01085C1F4F36
:102A70001E870D87FC01E85AFF4FF88BEF87222352
:102A800009F487C00DB71EB7005310400FB6F89475
:102A90001EBF0FBE0DBF0F5F1F4FEDB7FEB7F28217
:102AA000E1828FED93E0F80193838283B583A48361
:102AB0008091160290911702A0E0B0E08683978380
:102AC000A087B187538742877587648789899A89E8
:102AD00097878687AB89BC89B18BA08B538A428A42
:102AE000358A248A8F819885978B868BA985BA85AC
:102AF000B18FA08F8B859C85938F828FAD85BE858E
:102B0000B58FA48F8F859889978F868FAEE2B2E0BC
:102B1000B1A3A0A3C601B5010E94BE51F80173A3E1
:102B200062A3C401B3010E94BE51D80195967C9363
:102B30006E939497EB81FC819796FC93EE93969716
:102B400089819A8199969C938E93989780913E095A
:102B500090913F099B969C938E939A9780913C0904
:102B600090913D099D969C938E939C9780914209EC
:102B7000909143099F969C938E939E970E94C00AC2
:102B8000ADB7BEB7D0960FB6F894BEBF0FBEADBFFF
:102B900080C0EDB7FEB7BE970FB6F894FEBF0FBE6C
:102BA000EDBF0DB71EB70F5F1F4FF282E1828CE9B8
:102BB00093E0F80193838283B583A4838091160206
:102BC00090911702A0E0B0E086839783A087B18739
:102BD000538742877587648789899A89978786870B
:102BE000AB89BC89B18BA08B538A428A358A248AEF
:102BF0008F819885978B868BA985BA85B18FA08F99
:102C00008B859C85938F828FAD85BE85B58FA48F74
:102C10008F859889978F868FAEE2B2E0B1A3A0A38B
:102C2000C601B5010E94BE51F80173A362A3C4019D
:102C3000B3010E94BE51D80195967C936E939497F0
:102C4000EB81FC819796FC93EE93969780913E09D9
:102C500090913F0999969C938E93989780913C0907
:102C600090913D099B969C938E939A9780914209EF
:102C7000909143099D969C938E939C970E94C00AC5
:102C80000DB71EB7025D1F4F0FB6F8941EBF0FBEE3
:102C90000DBFD7010D900020E9F71197AE19BF09BC
:102CA0000A2F6701CA0ED11CF6011082C7010196D6
:102CB0006A2F70E00E94B842282F803178F400D04B
:102CC00000D000D0EDB7FEB73196ADB7BEB71296C3
:102CD000DC92CE92119786E591E00EC000D000D034
:102CE00000D0EDB7FEB73196ADB7BEB71296DC9205
:102CF000CE9211978BE591E0938382832483158292
:102D00000E949C0AEDB7FEB736960FB6F894FEBF48
:102D10000FBEEDBF802F64960FB6F894DEBF0FBED6
:102D2000CDBFCF91DF911F910F91FF90EF90DF907A
:102D3000CF90BF90AF909F908F907F906F905F905B
:102D40004F903F902F9008956F927F928F929F9215
:102D5000AF92BF92CF92DF92EF92FF920F931F93A9
:102D6000CF93DF935C01380149010E942B4324E695
:102D7000D5011D922A95E9F7EDB7FEB7F4970FB686
:102D8000F894FEBF0FBEEDBF3196ADB7BEB7129639
:102D9000BC92AE92119724E234E03383228322EE78
:102DA00031E035832483209116023091170240E0F0
:102DB00050E0268337834087518780569F4F938703
:102DC00082870397958784870397978786870996D5
:102DD000918B808B0396938B828B0396958B848B40
:102DE000668A778A808E918EC28ED38EE48EF58E1F
:102DF0002091A2023091A3024091A4025091A50219
:102E0000268F378F40A351A32091DC01332727FD64
:102E1000309533A322A38159904095A384A30F96A4
:102E200097A386A3029691A780A70F9693A782A740
:102E3000889695A784A78A54904097A786A78B5B0E
:102E40009F4F91AB80AB8754904093AB82AB0E9475
:102E5000C00AD5010D900020E9F71197AA19BB0906
:102E60001A2FE501CA0FD11D1882EDB7FEB7F496EF
:102E70000FB6F894FEBF0FBEEDBFC50101966A2FD5
:102E800070E00E94B842282F803178F400D000D042
:102E900000D0EDB7FEB73196ADB7BEB71296DC9352
:102EA000CE93119786E591E00EC000D000D000D0FF
:102EB000EDB7FEB73196ADB7BEB71296DC93CE93A1
:102EC00011978BE591E093838283248315820E947E
:102ED0009C0AEDB7FEB736960FB6F894FEBF0FBE4C
:102EE000EDBF812FDF91CF911F910F91FF90EF9058
:102EF000DF90CF90BF90AF909F908F907F906F901A
:102F000008958F929F92AF92BF92CF92DF92EF92ED
:102F1000FF920F931F93CF93DF930E94F0130E94B1
:102F2000520E8091C102882311F00E9423250E9435
:102F30005B0D892B09F4C8C10E944522882309F43E
:102F4000C3C18091BE029091BF0284579E4010F48D
:102F500083E011C08091420990914309892B11F4BB
:102F600084E009C00E942B43EC018E89813411F466
:102F700082E001C081E00E94171B0E94B4410E94C0
:102F8000F14582EC92E00E94FC46892B09F48DC148
:102F90000E94AE42892B09F488C182EC92E00E9423
:102FA000BA464B015C0182EC92E00E94344760918A
:102FB0009E0270919F028091A0029091A102FB015C
:102FC000EE0FFF1FEE0FFF1FE259FD4F808291822F
:102FD000A282B3826F5F7F4F8F4F9F4F2CE030E014
:102FE00040E050E00E94A65360939E0270939F02BF
:102FF0008093A0029093A102EEE6F2E0CC24DD24BF
:10300000760181919191A191B191C80ED91EEA1ECC
:10301000FB1E22E0EE39F207A1F78091A202909107
:10302000A302A091A402B091A502880D991DAA1D2A
:10303000BB1D8093A2029093A302A093A402B0931D
:10304000A5022091A6023091A7022C30310554F43C
:1030500086E58093DC012F5F3F4F3093A7022093DA
:10306000A6020AC0C114D104E104F10411F486E5FA
:1030700001C081E48093DC018091BA029091BB028F
:10308000892B09F083C00E942B43EC018E89813487
:1030900069F00E942B4380569F4F6FE571E042E03C
:1030A00050E00E94F209009709F470C081E090E0BE
:1030B0009093BB028093BA0208EA12E0C80162E66C
:1030C00071E00E94DB090E942B43BC0160567F4FD8
:1030D000C80142E050E00E94E20987E495E0B801AF
:1030E0000E943128C80165E671E00E94BC09F80120
:1030F00001900020E9F73197E01BF10B00D000D0E0
:1031000000D0ADB7BEB71196E00FF11FCDB7DEB757
:10311000FA83E98387E691E013969C938E93129746
:1031200080911602909117029F7015969C938E9332
:1031300014970E949C0AEDB7FEB736960FB6F89426
:10314000FEBF0FBEEDBFC8016AE671E00E94BC0978
:103150000E942B43BC0163567F4FC80142E050E000
:103160000E94E2090E942B43BC0166567F4FC801B2
:1031700042E050E00E94E209C8016DED71E044E0D8
:1031800050E00E94E209C8010E943C13809119029C
:10319000882341F00E942B43BC014896675D7F4F16
:1031A0000E941B0FE0919E02F0919F02EE0FFF1F05
:1031B000EE0FFF1FE259FD4F408151816281738103
:1031C0008EEC92E097018601750164010E94A416BD
:1031D0008091BA029091BB02892B79F41092430935
:1031E0001092420980911802882369F080E89AE0E1
:1031F0006CE671E00E94D85006C088EA92E06EEC5E
:1032000072E00E9489478091C002882399F080E093
:103210000E94603F6AE070E080E090E00E94C74A50
:103220008FEF9FEF6EEC72E044E60E944C3F81E02E
:103230000E94603F80911802882331F080E89AE074
:103240006EEC72E00E94DB508EEC92E00E94B514AE
:103250008091BA029091BB02892B31F088EA92E00A
:103260006EEC72E00E9489478091C002882399F039
:1032700080E00E94603F6AE070E080E090E00E94A1
:10328000C74A8FEF9FEF6EEC72E044E60E944C3F1E
:1032900081E00E94603F80911802882331F080E82D
:1032A0009AE06EEC72E00E94DB500E945622DF91A1
:1032B000CF911F910F91FF90EF90DF90CF90BF9033
:1032C000AF909F908F90089582EC92E00E943447D7
:1032D00080E00E94171BE9CF0F931F93DF93CF93DA
:1032E000CDB7DEB7C456D0400FB6F894DEBF0FBEE0
:1032F000CDBF8E010F5F1F4FC80164ED74E00E94C7
:10330000A309C8010E942E43C80163EC74E00E9427
:10331000A309C8010E942E43C80165EB74E00E9416
:10332000A309C8010E942E43C80167EA74E00E9405
:10333000A309C8010E942E43CC59DF4F0FB6F89461
:10334000DEBF0FBECDBFCF91DF911F910F910895CA
:10335000EF92FF920F931F93DF93CF93CDB7DEB71A
:10336000C456D0400FB6F894DEBF0FBECDBF84E088
:1033700061E00E94974B2C9880E89AE040E056E983
:1033800060E070E00E948F4D8E010F5F1F4FC801FB
:103390006CE874E00E94A30980E89AE0B8010E94FA
:1033A000DB50C80163E874E00E94A30980E89AE05A
:1033B000B8010E94D85080E89AE06EE272E00E9464
:1033C000DB508FE99AE040E855E260E070E00E944F
:1033D0008F4D8FE99AE06EEC72E00E94BA4483E070
:1033E00061E00E94974B83E060E00E94FB4B00E0AD
:1033F00010E08FE99AE00E940C4E892B61F40436AC
:10340000110549F06AE070E080E090E00E94C74A50
:103410000F5F1F4FEECF7E010894E11CF11CC70126
:1034200063E774E00E94A30980E89AE0B7010E9474
:10343000D85004361105A4F4B80193E0660F771F45
:103440009A95E1F7000F111F600F711F80E89AE055
:103450004AE050E00E94C550C70160E774E003C035
:10346000C70168E674E00E94A30980E89AE0B7010A
:103470000E94DB500E946C198EE061E00E94974B25
:103480008EE060E00E94FB4B64E170E080E090E041
:103490000E94C74A8EE090E064E170E04CE050E0AA
:1034A0000E947A4983E190E06FE170E04EE150E0E4
:1034B0002DE130E00CE110E00E9488420E9454258A
:1034C0008093C1020E94AC21009116021091170254
:1034D0000050104D0E947B408093C00284E10E9406
:1034E000863FC8010E94684081E00E94603F8BE1F6
:1034F00061E00E94974B8BE160E00E94FB4B82EC05
:1035000092E00E9434470E94741E80E090E063E3E2
:1035100074E14AE054E10E94F10E1092BB02109255
:10352000BA021092BD021092BC02EEE6F2E01192D5
:1035300011921192119282E0EE39F807C1F71092C0
:103540009E0210929F021092A0021092A10210926D
:10355000A2021092A3021092A4021092A50210924D
:10356000A7021092A60286E58093DC0181E00E940A
:10357000171B0E944E1180E89AE065E771E00E94F7
:10358000DB506AE070E080E090E00E94C74ACC59CE
:10359000DF4F0FB6F894DEBF0FBECDBFCF91DF91E6
:1035A0001F910F91FF90EF9008951F920F920FB609
:1035B0000F9211245F936F937F938F939F93AF9399
:1035C000BF938091320390E0019661E570E00E9424
:1035D00093538093320390913303933039F09430B6
:1035E00089F09230C1F48823B1F411C0882311F01E
:1035F000883111F42C9A0FC08C3011F0843259F4B8
:103600002C9809C068E20E948753992321F485B160
:1036100090E1892785B9BF91AF919F918F917F915B
:103620006F915F910F900FBE0F901F901895982F7C
:1036300080913303981769F19093330384E061E03C
:103640000E94974B109232031092B0001092B1007A
:103650001092B20090913303992311F42C9808959D
:103660002C9A9130B1F0809170008160809370004D
:10367000892F8250823020F48091B100866005C08D
:10368000943031F48091B10083608093B10008954B
:103690002C980895EF92FF920F931F93DF93CF938F
:1036A000CDB7DEB7C456D0400FB6F894DEBF0FBE1C
:1036B000CDBF8E010F5F1F4FC8016EE176E00E9403
:1036C000A30980E8E82E8AE0F82EC701B8010E941D
:1036D000DB50C80166EF75E00E94A309C701B8017D
:1036E0000E94DB50C80166EC75E00E94A309C70187
:1036F000B8010E94DB50C8016DE875E00E94A30983
:10370000C701B8010E94DB50C80168E675E00E945D
:10371000A309C701B8010E94DB50CC59DF4F0FB697
:10372000F894DEBF0FBECDBFCF91DF911F910F91F7
:10373000FF90EF900895EF92FF920F931F93DF9306
:10374000CF93CDB7DEB7C456D0400FB6F894DEBFE6
:103750000FBECDBF8E010F5F1F4FC8016CE575E036
:103760000E94A309C8010E942E43C8016DE275E0C2
:103770000E94A30990E8E92E9AE0F92EC701B8014A
:103780000E94DB500E946C19C80169E175E00E943B
:10379000A309C701B8010E94DB50CC59DF4F0FB617
:1037A000F894DEBF0FBECDBFCF91DF911F910F9177
:1037B000FF90EF9008950E944E110895CF92DF92EE
:1037C000EF92FF920F931F93DF93CF93CDB7DEB7A6
:1037D000E2970FB6F894DEBF0FBECDBF6C017E013D
:1037E0000894E11CF11CC7016DED79E00E94A3096A
:1037F00000E81AE0C801B7010E94D850C8016AE386
:103800000E94834FF6014281538160E070E0C8015D
:1038100020E130E00E943650C70160EE79E00E945E
:10382000A309C801B7010E94D850C8016AE30E94E9
:10383000834FC801F60164814AE050E00E9467505E
:10384000C7016DEE79E00E94A309C801B7010E948B
:10385000D850C8016AE30E94834FC801F601658110
:103860004AE050E00E946750C70168EF79E00E948B
:10387000A309C801B7010E94D850C8016AE30E9499
:10388000834FC801F60166814AE050E00E9467500C
:10389000C70160E07AE00E94A309C801B7010E9455
:1038A000D850C8016AE30E94834FC801F6016781BE
:1038B0004AE050E00E946750E2960FB6F894DEBFEF
:1038C0000FBECDBFCF91DF911F910F91FF90EF9071
:1038D000DF90CF900895CF92DF92EF92FF920F93F7
:1038E0001F93DF93CF93CDB7DEB7C25DD0400FB645
:1038F000F894DEBF0FBECDBF7C016B01029702972B
:1039000008F05DC1FB0102811381C80168ED79E017
:103910000E949A09892B09F452C1C80163ED79E02C
:103920000E949A09892B09F052C0F2E0EF16F104C7
:1039300019F484E192E048C023E0E216F10409F0B2
:103940003EC1F60104811581C8016DE075E00E9459
:103950009A09892B29F5CE0103960E94681F8E01D2
:10396000055F1F4FC80163EC79E00E94A30980E85E
:103970009AE0B8010E94D8508B819C818F5E9E4B4B
:1039800021F4C80167EB79E003C0C80168EA79E077
:103990000E94A30980E89AE0BE01655F7F4F10C0D6
:1039A000C80164E175E00E949A09892B09F007C1FA
:1039B000CE0103960E94BA2080E89AE063E871E0A5
:1039C0000E94DB50CE0103960E94DE1B7DC1C80120
:1039D00063EA79E00E949A09892B39F522E0E21620
:1039E000F10419F40E94701F0EC083E0E816F10480
:1039F000B9F4F60104811581C8016DE075E00E94FB
:103A00009A09892B19F40E94371F0AC0C80164E182
:103A100075E00E949A09892B09F0D1C00E94701F9D
:103A200080E89AE061E971E04DC1F3E0EF16F1043E
:103A300009F0C5C0C8016EE979E00E949A09892B96
:103A400001F5F60104811581C8016DE075E00E9461
:103A50009A09892B29F484E192E00E94681F0CC026
:103A6000C80164E175E00E949A09892B09F0A7C09A
:103A700084E192E00E94BA2080E89AE068E971E06F
:103A800021C1C8016DED79E00E949A09892BC9F422
:103A9000F601848195819A838983BE016F5F7F4F90
:103AA00040E150E00E946D079B01AC01E981FA8181
:103AB0008081882309F083C0309317022093160277
:103AC00003C1C80160EE79E00E949A09892BC9F40C
:103AD000F60104811581C80166E075E00E949A092B
:103AE000892B21F481E080931802EEC0C80169E0BF
:103AF00075E00E949A09892B09F061C010921802A2
:103B0000E3C0C8016DEE79E00E949A09892BC9F4DF
:103B1000F60104811581C80166E075E00E949A09EA
:103B2000892B21F481E080931902CEC0C80169E09D
:103B300075E00E949A09892B09F041C01092190280
:103B4000C3C0C80168EF79E00E949A09892BC1F4CB
:103B5000F60104811581C80166E075E00E949A09AA
:103B6000892B21F481E080931A02AEC0C80169E07C
:103B700075E00E949A09892B11F510921A02A4C0CF
:103B8000C80160E07AE00E949A09892BC1F4F6012D
:103B900004811581C80166E075E00E949A09892BAD
:103BA00021F481E080931B028FC0C80169E075E0B9
:103BB0000E949A09892B19F410921B0285C08E016C
:103BC000055F1F4FC80163E879E00E94A30980E800
:103BD0009AE0B8010E94DB50C80161E779E00E94D9
:103BE000A30980E89AE0B8010E94DB50C80164E3B1
:103BF00079E00E94A30980E89AE0B8010E94DB50B6
:103C0000C80163EF78E00E94A30980E89AE0B80158
:103C10000E94DB50C8016BE978E00E94A30980E8AC
:103C20009AE0B8010E94DB50C8016AE578E00E9482
:103C3000A30980E89AE0B8010E94DB50C8016FEF49
:103C400077E00E94A30980E89AE0B8010E94DB5067
:103C5000C8016FEA77E00E94A30980E89AE0B80102
:103C60000E94DB50C80160E577E00E94A30980E86C
:103C70009AE0B8010E94DB50C80163E077E00E943F
:103C8000A30980E89AE0B8010E94DB50C80167EB05
:103C900076E00E94A30980E89AE0B8010E94DB5018
:103CA000C80161E676E00E94A30980E89AE0B801C5
:103CB0000E94DB50C80160E376E00E94A30980E81F
:103CC0009AE0B8010E94DB50CE52DF4F0FB6F89455
:103CD000DEBF0FBECDBFCF91DF911F910F91FF903F
:103CE000EF90DF90CF90089580EF91E06AE47BE160
:103CF0000E947E4085EF91E06BE67CE10E947E4071
:103D00008CEF91E06BED7BE10E947E4088E092E0D9
:103D10006BE97BE10E947E400895FC0184818E7FE7
:103D200011F081E0848384818E7F09F01582848183
:103D30008E7F09F0168284818E7F09F017820895A4
:103D4000CF92DF92EF92FF920F931F93CF93DF9367
:103D50008C017B016A01DC01ED91FC910680F78109
:103D6000E02D09958F3F19F4CFEFDFEF1BC0C0E0C6
:103D7000D0E011C08A3091F0F701EC0FFD1F808375
:103D8000D801ED91FC910680F781E02DC8010995DD
:103D900021968F3F19F0CC15DD0564F3EC0EFD1E66
:103DA000F7011082CE01DF91CF911F910F91FF900B
:103DB000EF90DF90CF900895CF93DF93DB010D90CC
:103DC0000020E9F71197A61BB70BEC01E881F981F8
:103DD0000280F381E02DAD010995DF91CF91089527
:103DE000EF92FF920F931F938C017A010E94DC1EC9
:103DF000C80160EA71E00E94DC1EC801B7010E94A0
:103E0000DC1ED801ED91FC910190F081E02DC801FC
:103E10006AE009951F910F91FF90EF900895CF925E
:103E2000DF92EF92FF920F931F93CF93DF936C017A
:103E30007B018A01F894C0E0D0E00CC0BE016C0D9B
:103E40007D1DF701EC0FFD1F89E997E040810E947D
:103E5000E53B2196C017D10788F37894DF91CF9185
:103E60001F910F91FF90EF90DF90CF90089584E61F
:103E700090E064E172E048E050E00E940F1F089576
:103E8000CF92DF92EF92FF920F931F93CF93DF9326
:103E90006C017B018A01F894C0E0D0E00CC0BE0147
:103EA0006C0D7D1D89E997E00E94DE3BF701EC0F68
:103EB000FD1F80832196C017D10788F37894DF9186
:103EC000CF911F910F91FF90EF90DF90CF900895C9
:103ED000BC0184E690E048E050E00E94401F089555
:103EE000AF92BF92CF92DF92EF92FF920F931F9308
:103EF000DF93CF93CDB7DEB7C657D0400FB6F89457
:103F0000DEBF0FBECDBFCE0101960E94BC2587E467
:103F100095E06CE172E00E942528CE014C9667E4A2
:103F200075E04CE152E023E10E9466298E8D9F8D61
:103F30009C838B8388A199A1AAA1BBA18D839E8319
:103F4000AF83B8878CA19DA1AEA1BFA189879A87B5
:103F5000AB87BC87DE011D96FE01B8968DE001900F
:103F60000D928150E1F78DA99EA99B8F8A8FCE017A
:103F70004C960E94CF255E010894A11CB11CC5017E
:103F80000E942426882319F400E010E0DCC097E3A7
:103F9000E92EF12CEC0EFD1EC7016DED79E00E94BB
:103FA000A3098DB79EB708970FB6F8949EBF0FBEB2
:103FB0008DBFEDB7FEB731968E01095A1F4FADB7D1
:103FC000BEB712961C930E93119782EA91E09383E9
:103FD00082838091160290911702A0E0B0E0848362
:103FE0009583A683B7830E949C0A8DB79EB70896D7
:103FF0000FB6F8949EBF0FBE8DBFC501B701A801D3
:104000000E94F01EC70160EE79E00E94A30900D073
:1040100000D000D0EDB7FEB73196ADB7BEB712965F
:104020001C930E93119786EAC82E81E0D82ED38276
:10403000C28280911802848315820E949C0A8DB7E7
:104040009EB706960FB6F8949EBF0FBE8DBFC501F2
:10405000B701A8010E94F01EC7016DEE79E00E9431
:10406000A30900D000D000D0EDB7FEB73196ADB7B0
:10407000BEB712961C930E931197D382C282809181
:104080001902848315820E949C0A8DB79EB70696FA
:104090000FB6F8949EBF0FBE8DBFC501B701A80132
:1040A0000E94F01EC70168EF79E00E94A30900D0CA
:1040B00000D000D0EDB7FEB73196ADB7BEB71296BF
:1040C0001C930E931197D382C28280911A0284832B
:1040D00015820E949C0A8DB79EB706960FB6F8947B
:1040E0009EBF0FBE8DBFC501B701A8010E94F01E83
:1040F000C70160E07AE00E94A30900D000D000D0A0
:10410000EDB7FEB73196ADB7BEB712961C930E93BE
:104110001197D382C28280911B02848315820E94F0
:104120009C0A8DB79EB706960FB6F8949EBF0FBE39
:104130008DBFC501B701A8010E94F01EC5010E94F4
:10414000312601E010E0CE0101960E94CF25C80182
:10415000CA58DF4F0FB6F894DEBF0FBECDBFCF9168
:10416000DF911F910F91FF90EF90DF90CF90BF9064
:10417000AF9008952F923F924F925F926F927F92ED
:104180008F929F92AF92BF92CF92DF92EF92FF9267
:104190000F931F93DF93CF93CDB7DEB7CB57D040AC
:1041A0000FB6F894DEBF0FBECDBF7C01CE010596E1
:1041B0000E94BC258FEE9EEBF701918380838FEFE9
:1041C0009FEF938382838FEF8483858386838783A6
:1041D000CE01809667E475E04CE152E021E00E9458
:1041E00066298AA19BA198878F838CA19DA1AEA1EE
:1041F000BFA189879A87AB87BC8788A599A5AAA5FF
:10420000BBA58D879E87AF87B88BDE015196FE01D7
:10421000BC968DE001900D928150E1F789AD9AAD89
:104220009F8F8E8FCE0180960E94CF258E010B5FCF
:104230001F4FC8010E942426882319F4AA24BB24F6
:1042400067C0AA24BB2418013BE3832E912C8C0E5B
:104250009D1E2E010894411C511C23E0622E712CDE
:104260006C0E7D1E4BC09A828982C20160EA71E0A9
:104270000E941A0A8C0189819A81B30140E150E0C1
:104280000E949C08D62EC72EEB81FC81808188235A
:10429000A9F5C8016DED79E00E949A09892B21F4F6
:1042A000F701D282C38227C0C80160EE79E00E9484
:1042B0009A09892B19F4F701D4821DC0C8016DEE4B
:1042C00079E00E949A09892B19F4F701D58213C06D
:1042D000C80168EF79E00E949A09892B19F4F70167
:1042E000D68209C0C80160E07AE00E949A09892B51
:1042F00029F4F701D7820894A11CB11CC101B401B3
:1043000042E450E00E94A01E8F5F9F4F09F0ABCFA8
:104310008E010B5F1F4FC8010E943126C8010E9409
:10432000CF25C501C558DF4F0FB6F894DEBF0FBECD
:10433000CDBFCF91DF911F910F91FF90EF90DF9054
:10434000CF90BF90AF909F908F907F906F905F9035
:104350004F903F902F900895EF92FF920F931F93ED
:10436000DF93CF93CDB7DEB728970FB6F894DEBFB3
:104370000FBECDBF84E192E00E94681F80911402BD
:10438000909115028F5E9E4B19F400E010E017C06B
:104390008FEE9EEB90931502809314028FEF9FEFA8
:1043A00090931702809316028FEF809318028093E8
:1043B000190280931A0280931B0201E010E087E447
:1043C00095E06CE172E00E943D28E82EFF24E114A4
:1043D000F10409F441C0CE0101960E94BA202B815C
:1043E0003C8180911602909117022817390751F0ED
:1043F0008FEF2F3F380731F03093170220931602CA
:1044000001E010E09D8180911802981739F0892F02
:104410008E7F21F49093180201E010E09E8180913C
:104420001902981739F0892F8E7F21F49093190281
:1044300001E010E09F8180911A02981721F090937B
:104440001A0201E010E0988580911B02981721F074
:1044500090931B0201E010E084E192E00E948D1E27
:10446000012B11F00E94371FEF2811F40E94701FDA
:1044700028960FB6F894DEBF0FBECDBFCF91DF9167
:104480001F910F91FF90EF900895809141059091B9
:104490004205892B49F480914005813029F082E062
:1044A0008093400581E0089580E008958091400563
:1044B000823011F410924005089510923903109241
:1044C0003A0310923D0310923F030895CF93DF9378
:1044D00084E393E06AE040E453E00E94842C882364
:1044E00051F482E160E00E94FB4B8FEF8EBD0DB472
:1044F00007FEFDCF65C084E393E069E040E553E04B
:104500000E94842C882351F482E160E00E94FB4BDE
:104510008FEF8EBD0DB407FEFDCF52C082E160E08B
:104520000E94FB4B1EBC0DB407FEFDCF8EB584E18F
:1045300090E00E94204BC0E4D3E088818EBD0DB492
:1045400007FEFDCF8EB584E190E00E94204B2196BE
:1045500083E0C035D80789F786E68EBD0DB407FE27
:10456000FDCF8EB584E190E00E94204B86E68EBDA3
:104570000DB407FEFDCF8EB584E190E00E94204B84
:10458000C0E5D3E088818EBD0DB407FEFDCF8EB5AA
:1045900084E190E00E94204B219683E0C036D8074A
:1045A00089F786E58EBD0DB407FEFDCF8EB584E19B
:1045B00090E00E94204B88E78EBD0DB407FEFDCF32
:1045C0008EB582E161E00E94FB4BDF91CF910895AF
:1045D000EF92FF920F931F93CF93DF937B018C0198
:1045E00082E160E00E94FB4B1EBC0DB407FEFDCFD4
:1045F0008EB584E190E00E94204B84E190E00E941F
:10460000204B84E190E00E94204B84E190E00E94E6
:10461000204B1EBC0DB407FEFDCF8EB584E190E0AB
:104620000E94204B84E190E00E94204BC0E4D3E044
:104630001EBC0DB407FEFDCF8EB5899384E190E0DA
:104640000E94204B85E0C034D80791F78BEA8EBDDD
:104650000DB407FEFDCF8EB584E190E00E94204BA3
:104660008DEC8EBD0DB407FEFDCF8EB584E190E0DC
:104670000E94204B82E161E00E94FB4B89E016958D
:104680000795F794E7948A95D1F784E393E0B8010E
:10469000A70120E433E00E94272C8823A1F482E1C3
:1046A00060E00E94FB4B84E190E00E94204B8FEF82
:1046B0008EBD0DB407FEFDCF8EB582E161E00E9494
:1046C000FB4B80E013C082E160E00E94FB4B84E181
:1046D00090E00E94204B8FEF8EBD0DB407FEFDCF02
:1046E0008EB582E161E00E94FB4B81E0DF91CF91CA
:1046F0001F910F91FF90EF900895CF93DF93AB013F
:10470000BC0199E076956795579547959A95D1F7AD
:1047100084E393E020E433E00E94622D8823B1F427
:1047200082E160E00E94FB4B8FEF8EBD0DB407FE6F
:10473000FDCF8EB582E161E00E94FB4B80E89AE0FC
:1047400069EA71E00E94DB5080E041C082E160E0F4
:104750000E94FB4B1EBC0DB407FEFDCF8EB584E15D
:1047600090E00E94204B8EEF8EBD0DB407FEFDCF72
:104770008EB584E190E00E94204BC0E4D3E08881B4
:104780008EBD0DB407FEFDCF8EB584E190E00E9492
:10479000204B219685E0C034D80789F782E18EBD91
:1047A0000DB407FEFDCF8EB584E190E00E94204B52
:1047B00084E38EBD0DB407FEFDCF8EB584E190E09D
:1047C0000E94204B82E161E00E94FB4B81E0DF917F
:1047D000CF9108951F920F920FB60F920BB60F92C2
:1047E00011241F932F933F934F935F936F937F9366
:1047F0008F939F93AF93BF93EF93FF931FB7F8945B
:104800008FE00E942E4C892B31F081E090E0909354
:104810004205809341051FBFFF91EF91BF91AF917A
:104820009F918F917F916F915F914F913F912F91C8
:104830001F910F900BBE0F900FBE0F901F901895F9
:104840001F9380914005823089F084E10E942E4CB4
:10485000892B61F484E393E061E04CE00E94722DC7
:10486000182F84E061E00E94974B01C010E0812F77
:104870001F910895DF92EF92FF920F931F932C9A4E
:1048800010924205109241050E94B94A6093430577
:1048900070934405809345059093460582E160E05E
:1048A0000E94FB4B1EBC0DB407FEFDCFDEB484E1BD
:1048B00090E00E94204B1EBC0DB407FEFDCFFEB45D
:1048C00084E190E00E94204B1EBC0DB407FEFDCF9A
:1048D0000EB584E190E00E94204B1EBC0DB407FE93
:1048E000FDCF1EB584E190E00E94204B1EBC0DB4AC
:1048F00007FEFDCF2EB58F2D90E0A0E0B0E0BA2FDF
:10490000A92F982F8827800F911DA11DB11DBA2FA7
:10491000A92F982F8827810F911DA11DB11DEE246D
:10492000F82E092F1A2FE20EF11C011D111D84E132
:1049300090E00E94204B82E161E00E94FB4B80915D
:104940004005823051F482E160E00E94FB4B8AEF27
:104950008EBD0DB407FEFDCF0FC08823B1F40E94B9
:104960002024882379F482E160E00E94FB4B8AEFE7
:104970008EBD0DB407FEFDCF8EB582E161E00E94D1
:10498000FB4B03C081E08093400588E7D81699F17E
:104990008D1538F081E5D81609F188E5D816F1F5BE
:1049A00022C08DE7D81679F08EE7D81609F18CE78A
:1049B000D816A1F582E160E00E94FB4B1EBC0DB44D
:1049C00007FEFDCF34C01092400582E160E00E94F6
:1049D000FB4B1EBC0DB407FEFDCF29C0C801B701BB
:1049E0000E947D2329C0C801B7010E94E82224C08B
:1049F0000E94662221C082E160E00E94FB4B809110
:104A00001B02813029F41EBC0DB407FEFDCF0FC080
:104A10008FEF8EBD0DB407FEFDCF09C082E160E0CF
:104A20000E94FB4B8FEF8EBD0DB407FEFDCF8EB500
:104A300082E161E00E94FB4B2C981F910F91FF9047
:104A4000EF90DF9008950E94B94A9B01AC018091DC
:104A5000410590914205892B59F0209343053093ED
:104A6000440540934505509346050E943A24089515
:104A7000809140058130B9F48091430590914405BF
:104A8000A0914505B0914605281B390B4A0B5B0BDD
:104A9000295B3B404040504030F01092400584E09C
:104AA00061E00E94974B08951092400510924205D4
:104AB000109241051092430510924405109245054D
:104AC0001092460582E161E00E94974B82E161E02D
:104AD0000E94FB4B8CE061E00E94974B8CE061E010
:104AE0000E94FB4B8EE061E00E94974B86E060E005
:104AF0000E94974B85E061E00E94974B87E061E060
:104B00000E94974B84E061E00E94974B81E00E94F5
:104B1000A83B80E00E94B13B80E00E94B63B0E942F
:104B2000C73B84E160E00E94974B84E161E00E9412
:104B3000FB4B8FE060E00E94974B80917300806890
:104B40008093730080916800886080936800E0E43F
:104B5000F3E0119285E0E034F807D9F710924005B0
:104B60000E942024882319F420E030E003C07894C8
:104B700021E030E0C9010895FC011382128288EE21
:104B800093E0A0E0B0E084839583A683B78388E3B5
:104B900092E091838083128E118E14860895FC0119
:104BA00088E392E0918380830895DF93CF930F92FF
:104BB000CDB7DEB7FC016983A081B18112962D913A
:104BC0003C911397BE016F5F7F4F41E050E0F901C8
:104BD00009950F90CF91DF910895DC015996ED91E1
:104BE000FC915A97309719F420E030E018C02389DF
:104BF00034894589568982859385A485B585281B86
:104C0000390B4A0B5B0B2030B0E83B07B0E04B0799
:104C1000B0E05B0720F02FEF3FE740E050E0C90134
:104C20000895DC015996ED91FC915A97309729F43B
:104C300020E030E040E050E004C023893489458919
:104C40005689B901CA010895DC015996ED91FC918C
:104C50005A97309711F480E008958581811181E0A1
:104C60000895CF93DF93EC01898D9A8D009741F0E1
:104C70000E94962F898D9A8D0E9415071A8E198E83
:104C8000DF91CF910895FC01818D928D009711F4F1
:104C900080E008950E94862E0895FC01818D928DFA
:104CA000009711F00E944C2F0895DF93CF930F923D
:104CB000CDB7DEB7FC01818D928D009749F0BE0122
:104CC0006F5F7F4F41E050E00E948930019719F0FB
:104CD0002FEF3FEF03C08981282F30E0C9010F90EB
:104CE000CF91DF910895EF92FF920F931F93DF937F
:104CF000CF930F92CDB7DEB77C01DC0159968D9131
:104D00009C915A97009719F400E010E01FC0BE0173
:104D10006F5F7F4F41E050E00E948930019719F0AA
:104D20000FEF1FEF13C08981082F10E0D7015996AC
:104D3000ED91FC915A974285538564857585415064
:104D4000504060407040CF010E94862EC8010F90F5
:104D5000CF91DF911F910F91FF90EF900895CF9326
:104D6000DF93EC01E98DFA8D309761F013821282A6
:104D7000CF010E94CE329C01E98DFA8D8281938110
:104D8000892B31F081E090E09B838A8320E030E042
:104D9000C901DF91CF910895EF92FF920F931F9376
:104DA000CF93DF93EC01F62EE72E8A011B821A8245
:104DB00088EE93E0A0E0B0E08C839D83AE83BF8358
:104DC00088E392E0998388838DE190E00E946B06EE
:104DD0009A8F898F009791F0DC018F2D9E2D9C0179
:104DE000F9018DE101900D928150E1F7CE010C9611
:104DF000B8014CE050E00E94000A188EDF91CF917C
:104E00001F910F91FF90EF9008950F931F93CF93F1
:104E1000DF938C01FB01C081D181FC01EC0FFD1FF0
:104E200080818F3209F4219698012C0F3D1FA0E05C
:104E3000B0E00BC0FA01EA0FFB1F808311962196A8
:104E40002F5F3F4FAC30B10531F0F90180818F32D7
:104E500011F0882379F7A40FB51F1C92F801EC0F0D
:104E6000FD1F80818F3209F42196FB01D183C0831D
:104E7000C00FD11F8881811181E0DF91CF911F91F7
:104E80000F91089510924C0510924D051092500507
:104E90001092520582E090E0A0E0B0E080935305CC
:104EA00090935405A0935505B093560510926A054A
:104EB000109274051092730588E492E09093720545
:104EC00080937105109276050895EF92FF921F93DB
:104ED000DF93CF93CDB7DEB76D970FB6F894DEBFF3
:104EE0000FBECDBF9C01AB011C821B8288E492E007
:104EF0009A8389831E827E010894E11CF11CC701FC
:104F0000B90121E00E94FB34182F882319F0C70152
:104F10000E94962F812F6D960FB6F894DEBF0FBEBC
:104F2000CDBFCF91DF911F91FF90EF9008952F9209
:104F30003F924F925F926F927F928F929F92BF9219
:104F4000CF92DF92EF92FF920F931F93DF93CF9355
:104F5000CDB7DEB7C954D0400FB6F894DEBF0FBE50
:104F6000CDBF1C017B012A0139011B8A1A8A88E402
:104F700092E0998B888B1D8A18AA1FA69EA78DA7E1
:104F80001AAA1A8219828B0120E1C22ED12CCC0ED2
:104F9000DD1E93E0892E912C8C0E9D1E03C0C8014E
:104FA00086016C01C101BE016F5F7F4FA4010E94A9
:104FB0000527B82E40E0882309F441E0C801B40178
:104FC0009301F2010995882339F40E151F0519F193
:104FD000C8010E94962F1FC0BB20A9F0C601B801CE
:104FE000A40121E00E94FB34B82E0E151F0519F014
:104FF000C8010E94962FBB2071F00E151F0579F68F
:10500000CE018D96CDCF0E151F0519F0C8010E9457
:10501000962F81E001C080E0C75BDF4F0FB6F894A8
:10502000DEBF0FBECDBFCF91DF911F910F91FF90DB
:10503000EF90DF90CF90BF909F908F907F906F9078
:105040005F904F903F902F9008959B01BC01665D4B
:105050007F4FC90141EC5AE220E030E00E949727DF
:1050600008959B01BC01665D7F4FC90148EC5AE27F
:1050700020E030E00E94972708959B01BC01665D07
:105080007F4FC90145E657E220E030E00E949727B4
:1050900008952F923F924F925F926F927F928F92DC
:1050A0009F92AF92BF92CF92DF92EF92FF920F93B7
:1050B0001F93DF93CF93CDB7DEB7C754D0400FB661
:1050C000F894DEBF0FBECDBF582E492EFB013A012A
:1050D000190184A595A5998B888B28E432E03F8738
:1050E0002E8786A58A8B87A58B8B80A991A9A2A9DB
:1050F000B3A98C8B9D8BAE8BBF8B84A995A9A6A9D8
:10510000B7A9888F998FAA8FBB8F80AD91ADA2ADC3
:10511000B3AD8C8F9D8FAE8FBF8F84AD88A3FD966E
:1051200081919191A191B19189A39AA3ABA3BCA3C1
:1051300081919191A191B1918DA39EA3AFA3B8A7A5
:10514000808191819AA789A71EA61DA63CA72BA79F
:1051500018AA7A018E01025F1F4F3BE2A32EB12CE9
:10516000AC0EBD1E4E010894811C911C35C0D701A8
:105170008C918F3221F40894E11CF11C2DC0422F38
:105180004E194D3008F04CE0C42EDD24C401B701A7
:10519000A6010E94000AF401EC0DFD1D1082C5015C
:1051A0000E94962FC501B801A40121E00E94FB34A2
:1051B000882351F4E52DF42D1382128288E492E0C5
:1051C00091838083158266C0EC0CFD1CC8010E948F
:1051D000962FC50158018C01C7016FE270E00E9453
:1051E000C7099C01009719F6E618F708F101F1824A
:1051F000E082E52DF42DD80112968D919C911397A4
:105200009383828388E492E09183808314968C91C7
:105210001497848315968C911597858316962D91F6
:105220003D914D915C911997268337834087518733
:105230001A962D913D914D915C911D972287338750
:10524000448755871E962D913D914D915C915197C4
:1052500026873787408B518B52968C915297828B41
:1052600053962D913D914D915C915697238B348BA4
:10527000458B568B57962D913D914D915C915A9748
:10528000278B308F418F528F5B968D919C915C97CD
:10529000948F838F852D942DC95BDF4F0FB6F894C3
:1052A000DEBF0FBECDBFCF91DF911F910F91FF9059
:1052B000EF90DF90CF90BF90AF909F908F907F90B6
:1052C0006F905F904F903F902F9008959F92AF9274
:1052D000BF92CF92DF92EF92FF920F931F93DF93D3
:1052E000CF93CDB7DEB7C657D0400FB6F894DEBF28
:1052F0000FBECDBFC82E992E8A01D22E43E0A42E18
:10530000B12CAC0EBD1EC501A8019E012F5F3F4F01
:105310000E944928E980FA80E00EF11EF7018081A1
:1053200048E452E02885882309F03FC08D819E81A2
:105330009BA38AA359A348A38F818CA32DA38985FE
:105340009A85AB85BC858EA39FA3A8A7B9A78D8599
:105350009E85AF85B8898AA79BA7ACA7BDA7898979
:105360009A89AB89BC898EA79FA7A8ABB9AB8D8959
:105370008AAB8E899F89A88DB98D8BAB9CABADAB69
:10538000BEAB8A8D9B8DAC8DBD8D8FAB98AFA9AF19
:10539000BAAF8E8D9F8D9CAF8BAF8C2D992DBE019A
:1053A000605E7F4F4FEB51E09FC0FE01FF96118280
:1053B00010825EAF4DAFFE01EE5BFF4F10822223E5
:1053C000A9F02250CE01CD96223048F461E775E075
:1053D000A7012D2D0E94FB34882381F407C0B5015D
:1053E000A7012D2D0E94FB34882329F48C2D992DA3
:1053F0000E94BC257BC0C5010E94962FF6E0DF22EB
:1054000059F0FE01E05BFF4F408151816281738161
:10541000CE01CD960E94862E9E01265A3F4FFE0158
:10542000FF9680819181F9019383828388E492E0E1
:1054300091838083FE01EF5BFF4F8081F9018483BC
:10544000FE01EE5BFF4F8081F9018583FE01ED5B7C
:10545000FF4F80819181A281B381F9018683978377
:10546000A087B187FE01E95BFF4F80819181A28116
:10547000B381F90182879387A487B587FE01E55B35
:10548000FF4F80819181A281B381F901868797873F
:10549000A08BB18BFE01E15BFF4F8081F901828B14
:1054A000FE01E05BFF4F80819181A281B381F90110
:1054B000838B948BA58BB68BFE01EC5AFF4F8081BA
:1054C0009181A281B381F901878B908FA18FB28FD7
:1054D000FE01E85AFF4F80819181F901948F838FFB
:1054E0008C2D992DB901A7010E94CC268C2D992DC8
:1054F000CA58DF4F0FB6F894DEBF0FBECDBFCF91B5
:10550000DF911F910F91FF90EF90DF90CF90BF90B0
:10551000AF909F9008950F931F93CF93DF93EC016B
:10552000162F8FA5882331F0CE018A960E94962FE0
:10553000882311F1CE0161E0412F0E94722D882352
:10554000D1F08E01045F1F4FC801BE0141E00E94EF
:105550007D37882339F4C801BE0140E00E947D37C1
:10556000882349F0CE018A96B8010E94E831882349
:1055700019F081E001C080E0DF91CF911F910F9180
:105580000895442311F481E008950E94023608959D
:10559000EF92FF920F931F93DF93CF93CDB7DEB7B8
:1055A0006D970FB6F894DEBF0FBECDBF8C017B01A7
:1055B0001C821B8288E492E09A8389831E82C80140
:1055C0000E946527882331F4CE010196B801A70116
:1055D0000E942F366D960FB6F894DEBF0FBECDBF7A
:1055E000CF91DF911F910F91FF90EF900895FC01F3
:1055F000673020F086E1858380E00895262F30E033
:1056000060FD02C0663019F48DB58E7F02C08DB585
:1056100081608DBD8CB58C7F8CBD4CB522FD02C0E8
:1056200090E001C092E036952795822F8170842BFF
:10563000892B8CBD81E00895FF920F931F93CF9328
:10564000DF938B010E94B94AEB01FF24FA94FEBC60
:105650000DB407FEFDCF8EB58F3F11F481E008C079
:105660000E94B94A6C1B7D0B6017710780F380E0C4
:10567000DF91CF911F910F91FF900895FC018481DC
:1056800060E00E94FB4B0895FC01848161E00E9470
:10569000FB4B0895DC016EBDFA0120E030E00DB453
:1056A00007FEFDCF80818EBD0DB407FEFDCF818149
:1056B0008EBD2E5F3F4F329682E02030380779F75B
:1056C0000DB407FEFDCF8FEF8EBD0DB407FEFDCFED
:1056D0008FEF8EBD0DB407FEFDCF8FEF8EBD0DB4E5
:1056E00007FEFDCF8EB51A968C931A978F71853071
:1056F00011F481E0089581E115968C931597CD0101
:105700000E94442B80E00895FF920F931F93CF9344
:10571000DF93EC010E94B94A8B01FF24FA9409C07F
:105720000E94B94A601B710B6D52714010F08FE0FE
:105730000DC0FEBC0DB407FEFDCF8EB58A878F3F2E
:1057400079F38E3F11F481E006C08DE08D83CE01A8
:105750000E94442B80E0DF91CF911F910F91FF9029
:105760000895CF93DF93EC018E818823D1F08FEFE2
:105770008EBD2F8138854FEF04C00DB407FEFDCFDD
:105780004EBD2F5F3F4FC901019781509240A8F352
:1057900038872F830DB407FEFDCFCE010E94442B26
:1057A0001E82DF91CF910895DF92EF92FF920F93C7
:1057B0001F93CF93DF93EC01D62E79018A010E94CB
:1057C000B12BCE010E943E2BCE016CE271E00E9413
:1057D0001C2B8D2D80648EBD0DB407FEFDCF28E1FE
:1057E00030E0D801C701022E04C0B695A795979561
:1057F00087950A94D2F78EBD0DB407FEFDCF2850D1
:1058000030408FEF283F380761F7DD2011F485E93C
:1058100006C088E0D81611F487E801C08FEF8EBD6E
:105820000DB407FEFDCF90E02FEF2EBD0DB407FEA7
:10583000FDCF8EB587FF02C09150B9F78A87DF91FF
:10584000CF911F910F91FF90EF90DF900895CF922D
:10585000DF92EF92FF920F931F93CF93DF93EC01B0
:105860007A018B016901411551056105710511F43A
:1058700082E137C08B85833039F029E0EE0CFF1CC4
:10588000001F111F2A95D1F7CE0168E1A8019701E9
:105890000E94D42B882311F084E023C0CE016EEF48
:1058A000A6010E944A2B8823E9F0CE0168E572E048
:1058B0000E941C2B882311F485E113C0CE016DE0FA
:1058C00020E030E040E050E00E94D42B882341F4F7
:1058D0008FEF8EBD0DB407FEFDCF8EB5882379F016
:1058E00084E18D83CE010E94442B80E0DF91CF9133
:1058F0001F910F91FF90EF90DF90CF900895CE0110
:105900000E94442B81E0F2CF0F931F93CF93DF933C
:10591000EC01142F052F20E030E040E050E00E9421
:10592000D42B882319F08EE08D8326C0CE010E94EF
:10593000842B882309F1812F902FFC019FEF9F0179
:10594000205F3F4F9EBD0DB407FEFDCF8EB5819306
:10595000E217F307B9F78FEF8EBD0DB407FEFDCF49
:105960008EB58FEF8EBD0DB407FEFDCF8EB5CE0187
:105970000E94442B81E004C0CE010E94442B80E0B1
:10598000DF91CF911F910F9108958F929F92AF92C7
:10599000BF92CF92DF92EF92FF920F931F93CF931C
:1059A000DF93EC015A016B0149010115110509F45E
:1059B0007BC0C801820F931F8150924008F06FC0D6
:1059C0008E81882371F088819981AA81BB814817D3
:1059D00059076A077B0729F48F81988588169906ED
:1059E00018F5A882B982CA82DB828B85833039F0B0
:1059F00069E0AA0CBB1CCC1CDD1C6A95D1F7CE015A
:105A000061E1A60195010E94D42B882319F083E05F
:105A10008D8345C0CE010E94842B882309F43FC0AA
:105A200018861F8281E08E838FEF8EBD8F819885CF
:105A30002FEF05C00DB407FEFDCF2EBD01968815D2
:105A40009905C0F398878F83D801119720E030E043
:105A50009FEF0BC00DB407FEFDCF8EB5F701E20F2F
:105A6000F31F80839EBD2F5F3F4F2A173B0790F3A4
:105A70000DB407FEFDCF8EB5AE0DBF1D8C932F81EB
:105A80003885200F311F38872F838985882319F0A7
:105A90002050324048F0CE010E94B12B05C0CE010B
:105AA0000E94442B80E001C081E0DF91CF911F91E3
:105AB0000F91FF90EF90DF90CF90BF90AF909F90AD
:105AC0008F900895EF92FF920F931F93790120E03A
:105AD00030E000E012E00E94C52C1F910F91FF9072
