:100000000C94CA000C94141C0C94411C0C94A9165A
:100010000C94BB190C94F2000C94F2000C94722214
:100020000C94F2000C94F2000C94F2000C94F20088
:100030000C94F2000C94A4190C94F2000C94F200AD
:100040000C946E1C0C94F2000C94B51E0C94031FBF
:100050000C94F2000C94F2000C94F2000C94F20058
:100060000C94F2000C94F200535452414E47452137
:10007000004750532020005344204641494C210062
:100080004E4F475053004856204C4F57004C4F5747
:100090002042415454004255464645522046554C54
:1000A0004C2E20544F5353494E4720494E434F4DF9
:1000B000494E4720444154410A0043484942493A85
:1000C00020436F6D6D616E64206E6F742072656386
:1000D0006F676E697A65642E002A2A2A2A2A2A2ADC
:1000E0002A2A2A2A2A2A2A2A204348494249202AF7
:1000F0002A2A2A2A2A2A2A2A2A2A2A2A2A2A2A2A60
:100100002A2A004348494249203E3E2000524144A9
:10011000494F204E4F5420494E495449414C495A69
:1001200045442050524F5045524C590A000000009F
:1001300000240027002A0000000000250028002BD2
:100140000000000000230026002900040404040429
:100150000404040202020202020303030303030174
:10016000020408102040800102040810200102044B
:100170000810200000000700020100000304060030
:1001800000000000000000024905670C141A1B1A49
:1001900066200D1A11241FBECFEFD8E0DEBFCDBF01
:1001A00012E0A0E0B1E0EEE7FFE402C005900D929E
:1001B000A637B107D9F716E0A6E7B2E001C01D9255
:1001C000AB39B107E1F711E0C2E9D1E004C02297F1
:1001D000FE010E946C27C838D107C9F70E94E424A9
:1001E0000C94B2270C940000A0E0B0E0EAEFF0E03D
:1001F0000C947C27EC012B016A016115710519F043
:10020000FB0191838083C114D10449F0C601029798
:10021000839728F020E030E040E050E0DCC0A99077
:100220008A2D90E00E947027892BC9F7FDE2AF1656
:1002300021F4A9903324339405C08BE2A81609F465
:10024000A9903324C114D10421F0E0E1CE16D104E9
:1002500011F5F0E3AF1669F48881883711F088351D
:1002600041F4A980229682E0382A20E1C22ED12CC6
:1002700012C0C114D10479F4E0E3AE1659F199E942
:10028000E92E99E9F92E99E9092F99E1192F8AE0C8
:10029000C82ED12C3AC0FAE0CF16D10491F080E1FB
:1002A000C816D10429F0E8E0CE16D104F9F415C03F
:1002B000BFEFEB2EBFEFFB2EBFEF0B2FBFE01B2FCF
:1002C00024C0A9E9EA2EA9E9FA2EA9E90A2FA9E191
:1002D0001A2F1BC0F8E0CF2ED12CEFEFEE2EEFEF50
:1002E000FE2EEFEF0E2FEFE11E2F0FC096014427D9
:1002F00037FD4095542F6FEF7FEF8FEF9FEF0E94F8
:100300002D27C901DA017C018D0120E030E040E0B9
:1003100050E060E03601882477FC8094982C70EDE2
:10032000B72EBA0CF9E0FB1570F48A2D81548A318E
:1003300018F499ECB92E06C08A2D81568A3148F5F9
:1003400089EAB82EBA0C8B2D90E08C159D050CF522
:100350006F3FE9F0E216F30604071507B8F0CA018B
:10036000B901A40193010E940E279B01AC018B2DC2
:1003700090E0A0E0B0E0280F391F4A1F5B1F28174C
:1003800039074A075B0710F061E001C06FEFA990E1
:10039000C6CF4114510451F0662311F0219703C0D8
:1003A00031FE04C02297F201D183C08330FE07C022
:1003B00050954095309521953F4F4F4F5F4F67FFC8
:1003C0000AC082E290E090939A06809399062FEFFC
:1003D0003FEF4FEF5FEFB901CA01CDB7DEB7E1E103
:1003E0000C949827FC0188279927E89421912032C2
:1003F000E9F3293010F02E30C8F32B3241F02D32C2
:1004000039F4689404C00E94AB02820F911D2191BF
:1004100020532A30C0F31EF4909581959F4F089584
:10042000FB01DC0105900D920020E1F70895FB012E
:10043000DC0102C001900D9241505040D8F7089560
:100440006817790768F4FB01DC01E40FF51FA40FBE
:10045000B51F02C002900E9241505040D8F7089547
:100460000C941702FB01DC018D91019080190110A1
:10047000D9F3990B0895FB01DC0101900D92002046
:10048000E1F70895FB01DC014150504030F08D91BF
:100490000190801919F40020B9F7881B990B089571
:1004A000FC016150704001900110D8F78095909543
:1004B0008E0F9F1F0895FC01A081B181AD011096A0
:1004C00081F03D91FB01019003160110E1F7C9F79E
:1004D000002011F4D00102C01E921196FC01A083ED
:1004E000B183CA010895A0E0B0E0E9E7F2E00C941E
:1004F00085277C01EB018A01690109C0CE012196A3
:10050000F6010995F70181937F0101501040011513
:100510001105A1F7CDB7DEB7E8E00C94A127A0E064
:10052000B0E0E5E9F2E00C948527EC017B018A015B
:10053000690109C0CE012196F70161917F01F601A1
:1005400009950150104001151105A1F7CDB7DEB78F
:10055000E8E00C94A1277AE0979F902D879F802D4B
:10056000910D11240895AEE0B0E0E9EBF2E00C94B7
:1005700089270D891E8986E08C831A8309838FEF72
:100580009FE79E838D839E01275E3F4FCE0101969C
:100590006F89788DA9010E94D7022F813885020FBB
:1005A000131FF80110822E96E4E00C94A527ABE00F
:1005B000B0E0EDEDF2E00C947B273C012B015A01F9
:1005C000FC0117821682838181FD03C06FEF7FEFEC
:1005D000C6C19AE0892E1E010894211C311CF3012A
:1005E0002381F20123FD859123FF81912F0188232F
:1005F00009F4B2C1853239F423FD859123FF81913D
:100600002F01853229F490E0B3010E94BF04E7CFA7
:10061000982FFF24EE249924FFE1FF15D0F09B32A0
:1006200069F09C3228F4903259F0933291F40EC064
:100630009D3249F0903369F441E024C052E0F52A3C
:1006400084E0F82A28C098E0F92A25C0E0E1FE2AD3
:1006500022C0F7FC29C0892F80538A3070F4F6FE3F
:1006600005C0989C902C1124980E15C0E89CE02C95
:100670001124E80EF0E2FF2A0EC09E3229F4F6FCA7
:100680006BC140E4F42A07C09C3619F450E8F52AFF
:1006900002C0983649F4F20123FD959123FF919110
:1006A0002F01992309F0B8CF892F8554833018F092
:1006B0008052833038F444E050E0A40EB51E5FE36E
:1006C00059830FC0933631F0933779F0933509F0A1
:1006D00056C020C0F5018081898342E050E0A40E1D
:1006E000B51E610101E010E012C0F501C080D180AB
:1006F000F6FC03C06FEF7FEF02C0692D70E042E0AF
:1007000050E0A40EB51EC6010E9450028C015FE7A6
:10071000F52214C0F501C080D180F6FC03C06FEF54
:100720007FEF02C0692D70E042E050E0A40EB51EDC
:10073000C6010E94B4048C0150E8F52AF3FE07C0FC
:100740001AC080E290E0B3010E94BF04EA948E2DAB
:1007500090E008171907A8F30EC0F601F7FC859181
:10076000F7FE81916F0190E0B3010E94BF04E11098
:10077000EA94015010400115110579F7EAC094364A
:1007800011F0993669F5F7FE08C0F5012081318135
:100790004281538184E090E00AC0F501808191811B
:1007A0009C01442737FD4095542F82E090E0A80E2D
:1007B000B91E9FE6F92257FF09C050954095309524
:1007C00021953F4F4F4F5F4FE0E8FE2ACA01B90124
:1007D000A1012AE030E00E94EB04D82ED21840C0DC
:1007E000953729F41F2D1F7E2AE030E01DC01F2DF4
:1007F000197F9F3661F0903720F4983509F0ACC02E
:100800000FC0903739F0983709F0A6C004C028E02F
:1008100030E00AC0106114FD146020E130E004C033
:1008200014FD166020E132E017FF08C0F501608179
:1008300071818281938144E050E008C0F50180819C
:100840009181BC0180E090E042E050E0A40EB51E32
:10085000A1010E94EB04D82ED2188FE7F82EF122C6
:10086000F6FE0BC05EEFF522D91438F4F4FE07C093
:10087000F2FC05C08FEEF82202C01D2D01C0192D1B
:10088000F4FE0DC0FE01ED0DF11D8081803319F4E1
:1008900099EEF92208C01F5FF2FE05C003C08F2D3C
:1008A000867809F01F5F0F2DF3FC14C0F0FE0FC017
:1008B0001E1510F09D2C0BC09D2C9E0C911A1E2D08
:1008C00006C080E290E0B3010E94BF041F5F1E15C6
:1008D000C0F304C01E1510F4E11A01C0EE2404FF99
:1008E0000FC080E390E0B3010E94BF0402FF1DC06F
:1008F00001FD03C088E790E00EC088E590E00BC0E2
:10090000802F867891F001FF02C08BE201C080E267
:10091000F7FC8DE290E0B3010E94BF0406C080E3C3
:1009200090E0B3010E94BF049A94D914C0F3DA9402
:10093000F101ED0DF11D808190E0B3010E94BF0433
:10094000DD20A9F706C080E290E0B3010E94BF0459
:10095000EA94EE20C1F743CEF30166817781CB01A3
:100960002B96E2E10C949727FC01059061507040B2
:100970000110D8F7809590958E0F9F1F08950F93C3
:100980001F93CF93DF938C01EB018B8181FF1BC001
:1009900082FF0DC02E813F818C819D8128173907F0
:1009A00064F4E881F9810193F983E88306C0E8855E
:1009B000F985802F0995892B31F48E819F810196CD
:1009C0009F838E8302C00FEF1FEFC801DF91CF918D
:1009D0001F910F910895FA01AA27283051F1203173
:1009E00081F1E8946F936E7F6E5F7F4F8F4F9F4FC3
:1009F000AF4FB1E03ED0B4E03CD0670F781F891F05
:100A00009A1FA11D680F791F8A1F911DA11D6A0FD2
:100A1000711D811D911DA11D20D009F468943F9185
:100A20002AE0269F11243019305D3193DEF6CF0184
:100A30000895462F4770405D4193B3E00FD0C9F74A
:100A4000F6CF462F4F70405D4A3318F0495D31FDB7
:100A50004052419302D0A9F7EACFB4E0A69597950A
:100A6000879577956795BA95C9F7009761057105E0
:100A700008959B01AC010A2E06945795479537952A
:100A80002795BA95C9F7620F731F841F951FA01D84
:100A90000895CF92EF920F9386E792E062E043E0F1
:100AA00024E005E056E0E52E37E0C32E0E94DB1B74
:100AB0000F91EF90CF90089520E030E04FE753E49E
:100AC0000E94AB260E94C4259B01AC0180911902B3
:100AD000B9010E946E1D0895AF92BF92CF92DF922E
:100AE000EF92FF920F931F93CF93DF930E94C21C4C
:100AF0005B016C01E090A002F090A1020091A202C3
:100B00001091A30280911D020E94611EEC01809150
:100B1000A6029091A702C817D90771F00E94C21CC3
:100B20006093A0027093A1028093A2029093A3020B
:100B30001092A5021092A402D093A702C093A6021D
:100B40008091A4029091A502892B09F03AC0A601D8
:100B500095012E193F09400B510BDA01C90181564D
:100B60009A4EA040B040875E9340A040B040C8F489
:100B7000CA01B9010E94F52520E030E64AE657E4B3
:100B80000E94F32420E030E04AE754EC0E945C2508
:100B900020E030E040E85FE30E94F424E62F692F74
:100BA00014C028543E4E4040504028F4E0E070E02D
:100BB00080E86FE30AC081E090E09093A502809303
:100BC000A402E0E070E080E060E02E2F372F482F95
:100BD000562FB901CA010E945C05DF91CF911F9188
:100BE0000F91FF90EF90DF90CF90BF90AF9008955E
:100BF0008F929F92AF92BF92CF92DF92EF92FF922D
:100C00000F931F93CF93DF937B018C014A0159010E
:100C1000CC24B7FCC094DC2CA60195010E942D27A2
:100C2000E9012A30310564F5C801B7010E94F525B4
:100C30007B018C01C601B5010E94F7259B01AC0127
:100C4000C801B7010E945C257B018C01BE01882789
:100C500077FD8095982F0E94F7259B01AC01C80174
:100C6000B7010E94F32420E030E04AE754E40E94F8
:100C7000AB260E94C425643671050CF474C061C0B3
:100C80002436310564F5C801B7010E94F5257B01C2
:100C90008C01C601B5010E94F7259B01AC01C8017A
:100CA000B7010E945C257B018C01BE01882777FD7E
:100CB0008095982F0E94F7259B01AC01C801B701D0
:100CC0000E94F32420E030E048EC52E40E94AB267E
:100CD0000E94C4256A3071050CF445C032C083E01F
:100CE000283E380744F5C801B7010E94F5257B016D
:100CF0008C01C601B5010E94F7259B01AC01C8011A
:100D0000B7010E945C257B018C01BE01882777FD1D
:100D10008095982F0E94F7259B01AC01C801B7016F
:100D20000E94F32420E030E040E251E40E94AB2630
:100D30000E94C42506C0C40160E071E00E943B022D
:100D400033C0ADB7BEB718970FB6F894BEBF0FBE8D
:100D5000ADBFEDB7FEB7319612969C928E92119769
:100D600089E091E011C0ADB7BEB718970FB6F894FF
:100D7000BEBF0FBEADBFEDB7FEB7319612969C92C7
:100D80008E92119782E191E093838283D583C4830D
:100D9000778366830E94B3028DB79EB708960FB61D
:100DA000F8949EBF0FBE8DBFDF91CF911F910F9121
:100DB000FF90EF90DF90CF90BF90AF909F908F907B
:100DC00008958F929F92AF92BF92CF92DF92EF924F
:100DD000FF920F931F93CF93DF934C01EB016115AB
:100DE0007105C9F425C080911B02B40120E030E0F8
:100DF00040E050E00E94CE22C601B5010E94D01C06
:100E000080911B020E945B22219779F0C801B701F3
:100E10000E94D01C0AC05A01CC24B7FCC094DC2C20
:100E200079010027F7FC0095102F1C161D06DCF237
:100E3000DF91CF911F910F91FF90EF90DF90CF90B6
:100E4000BF90AF909F908F900895AF92BF92CF9236
:100E5000DF92EF92FF920F931F93DF93CF93CDB763
:100E6000DEB7AA970FB6F894DEBF0FBECDBF8C01D8
:100E7000CDB6DEB6EEB6BDB6AEB68DB79EB7861BA6
:100E8000970B0FB6F8949EBF0FBE8DBF10929702BE
:100E9000C8010E946D19892B91F481E0809397021B
:100EA00082E696E06CE171E00E9424222C2D3E2D1A
:100EB000C9010FB6F8949EBF0FBE8DBF38C1FE01A9
:100EC000339688E2DF011D928A95E9F71A83098338
:100ED0008F017E010894E11CF11CC70166E371E0FB
:100EE0000E945B02F801819391938F01892BA9F7EE
:100EF0000B811C81C80168E371E00E9432020097F7
:100F000041F0C8016FE371E00E943202009709F0DE
:100F10009DC0109298021092990210929A0210921B
:100F20009B02ED81FE818081882339F0A8E9B2E03F
:100F300083E001900D928150E1F70F851889EB8CC9
:100F4000FC8CE985FA858081882381F0CF0160E0FF
:100F500070E04AE050E00E94F40060938B027093CE
:100F60008C0280938D0290938E0208C010928B02A7
:100F700010928C0210928D0210928E02ED85FE85E9
:100F80008081882381F0CF0160E070E04AE050E08A
:100F90000E94F40060938F027093900280939102FC
:100FA0009093920208C010928F02109290021092B9
:100FB00091021092920280911F02813469F4D8014B
:100FC0008C918635C9F480EA9FE064E070E044E6E5
:100FD00050E026E930E00EC0863571F4F8018081DA
:100FE000813451F480EA9FE061E070E042E350E038
:100FF00021E030E00E94E106D8018C9180931F022D
:1010000080912002813469F4F70180818635C9F42A
:1010100080E49FE164E070E044E650E026E930E0DF
:101020000EC0863571F4D7018C91813451F480E47F
:101030009FE161E070E042E350E020E030E00E9498
:10104000E106F70180818093200269C0C80167E44E
:1010500071E00E943202009709F061C08D819E818B
:1010600068E972E043E050E00E944202009709F014
:1010700056C0EB89FC898081882321F0CF010E9432
:10108000F20102C08FEF9FEF909322028093210222
:10109000ED89FE898081882321F0CF010E94F20131
:1010A00002C08FEF9FEF9093240280932302EF8979
:1010B000F88D8081882321F0CF010E94F20102C0C7
:1010C0008FEF9FEF9093260280932502E98DFA8D92
:1010D0008081882321F0CF010E94F20102C08FEFAE
:1010E0009FEF9093280280932702EB8DFC8D8081E7
:1010F000813351F4ED8DFE8D8081813329F4EF8DA4
:10110000F8A18081813329F010922A0210922902DD
:1011100006C081E090E090932A02809329028B2DF3
:101120009A2D9C010FB6F8943EBF0FBE2DBF0FB68F
:10113000F894DEBE0FBECDBEAA960FB6F894DEBF01
:101140000FBECDBFCF91DF911F910F91FF90EF9018
:10115000DF90CF90BF90AF900895AF92BF92CF92A3
:10116000DF92EF92FF920F931F93DF93CF93CDB750
:10117000DEB7CF59D0400FB6F894DEBF0FBECDBF5B
:101180000E945716813009F0B5C16AE0C62ED12CF5
:10119000CC0EDD1E86E9D6011D928A95E9F7FE0187
:1011A000319689E0DF011D928A95E9F7C6010E9418
:1011B0001F19282F30E0EE24FF24A60103C0089455
:1011C000E11CF11CFA01EE0DFF1D8081843221F03B
:1011D000E216F306A4F303C0E216F3061CF0EE24B5
:1011E000EA94FE2C00E010E0AE01465F5F4F02C0C3
:1011F0000F5F1F4FFA01E00FF11F80818A3221F04B
:1012000002171307ACF303C00217130714F00FEF14
:101210001FEFBFEFEB16BFEFFB0639F1EFEF0F3F0C
:101220001E0719F1FE01E00FF11F158682E696E018
:10123000BE01665F7F4F0E9427220E94C21C6093FE
:101240009C0270939D0280939E0290939F028FE474
:1012500080932B020E191F090D5F1F4FC6018E0DC3
:101260009F1DB8010E9425071DC082E696E06FE42D
:1012700071E00E94242282E696E0B7014AE050E045
:101280000E94F22182E696E069E571E00E94242244
:1012900082E696E0B8014AE050E00E94052281E033
:1012A0008093970280919702813039F482E696E02C
:1012B0006DE571E00E94272263C1E0908B02F090FF
:1012C0008C0200918D0210918E02C801B7010E941C
:1012D000F52520E030E04FEA53E40E945C255B01F5
:1012E0006C01C801B7018E010F5F1F4FA8012EE5E9
:1012F00031E00E94F80586E792E060E040E00E945D
:10130000EE1A80911F02813421F486E792E0B80141
:1013100015C080918B0290918C02A0918D02B091AA
:101320008E020097A105B10529F086E792E061E7FA
:1013300071E004C086E792E06AE771E00E9424222F
:1013400086E792E060E041E00E94EE1A809125027B
:1013500090912602FFEF8F3F9F0741F088549D40F8
:101360002CF4CE0101966DE870E035C08091270223
:1013700090912802AFEF8F3F9A0741F0825C914035
:101380002CF4CE01019666E870E025C02091200281
:10139000263529F4CE01019660E870E011C08091F5
:1013A000290290912A02892B29F4CE01019667E740
:1013B00070E011C0CE010196213459F461E770E06C
:1013C0000E941002CE01069668E972E00E943B027C
:1013D00004C068E670E00E94100286E792E0BE0159
:1013E0006F5F7F4F0E942422E0909302F09094025E
:1013F0000091950210919602C801B70120E030E0FB
:1014000040E05FE30E94582588239CF4C601B501A3
:1014100020E030E040E05FE30E94A72688234CF004
:1014200080ED97E062E070E044EF51E024EF31E0BE
:1014300056C0C801B70120E030E040E85FE30E94F9
:10144000582588239CF4C601B50120E030E040E82F
:101450005FE30E94A72688234CF080ED97E064E0CC
:1014600070E04AEF50E02AEF30E039C0C801B70120
:1014700020E030E040E450E40E94582588239CF4AA
:10148000C601B50120E030E040E450E40E94A72608
:1014900088234CF080ED97E068E070E04DE750E085
:1014A0002DE730E01CC0C801B70120E030E040EA81
:1014B00050E40E9458258823A4F4C601B50120E019
:1014C00030E040EA50E40E94A726882354F080EDE3
:1014D00097E060E170E041E450E021E430E00E94F8
:1014E000E106A0929302B0929402C0929502D0922B
:1014F000960246C00E94C21C9B01AC0180912B0247
:101500008F34F1F580919C0290919D02A0919E02F2
:10151000B0919F02281B390B4A0B5B0B80912C0268
:1015200090912D02A0912E02B0912F028217930765
:10153000A407B5072CF580EA9FE061E070E048EE73
:1015400053E021E030E00E94E10688E580932B0221
:1015500086E792E060E040E00E94EE1A86E792E0C3
:1015600063E871E00E94242286E792E060E041E0B7
:101570000E94EE1A86E792E06CE871E00E94242255
:101580000E946C05C156DF4F0FB6F894DEBF0FBE48
:10159000CDBFCF91DF911F910F91FF90EF90DF9022
:1015A000CF90BF90AF900895EF92FF920F931F934B
:1015B0008AE061E00E94CE1D81E161E00E94CE1DC3
:1015C0008091190261E00E94CE1D80911B0261E0B2
:1015D0000E94CE1D80911D0260E00E94CE1D60E041
:1015E00070E080E89FE30E945C051092A5021092D3
:1015F000A4021092A7021092A60206E712E0C80108
:1016000068E042E020E00E94251BC80165E971E026
:101610000E942422C80160E041E00E94EE1AC80145
:101620006EE971E00E942422C80160E041E00E945E
:10163000EE1A80EA9FE062E070E042E350E026E9C3
:1016400030E00E94E10660ED77E080E090E00E94EB
:10165000D01CC80160E040E00E94EE1AC80167EAB1
:1016600071E00E942422C80160E041E00E94EE1A6D
:10167000C80160EB71E00E942422C80160E041E0F3
:101680000E94EE1AC80169EB71E00E94242270E307
:10169000E72E72E0F72EC801B7010E94242260ED08
:1016A00077E080E090E00E94D01C02E616E0C801DE
:1016B00040E051EE60E070E00E943E1FC8016BEB1D
:1016C00071E00E942422C801B7010E9427220E94D3
:1016D0003F19C8016CED71E00E94272284E392E17A
:1016E0000E94AF18C8016DEE71E00E9424220E9492
:1016F000EF17BC01C80140E150E00E94952184E150
:101700000E94CD17C80164E072E00E942422C80143
:1017100064E170E04AE050E00E9405221F910F91C1
:10172000FF90EF900895FC011382128288EE93E0FF
:10173000A0E0B0E084839583A683B78382E492E03F
:1017400091838083128E118E14860895FC0182E4A9
:1017500092E0918380830895DF93CF930F92CDB76A
:10176000DEB7FC016983A081B18112962D913C9175
:101770001397BE016F5F7F4F41E050E0F90109957B
:101780000F90CF91DF910895DC015996ED91FC9176
:101790005A97309719F420E030E018C02389348933
:1017A0004589568982859385A485B585281B390B83
:1017B0004A0B5B0B2030B0E83B07B0E04B07B0E0D2
:1017C0005B0720F02FEF3FE740E050E0C9010895AC
:1017D000FC01818D928D009711F00E94650F089594
:1017E000DF93CF930F92CDB7DEB7FC01818D928D41
:1017F000009749F0BE016F5F7F4F41E050E00E94CB
:10180000AF0F019719F02FEF3FEF03C08981282F09
:1018100030E0C9010F90CF91DF910895EF92FF92D0
:101820000F931F93DF93CF930F92CDB7DEB77C0159
:10183000DC0159968D919C915A97009719F400E01C
:1018400010E01FC0BE016F5F7F4F41E050E00E947B
:10185000AF0F019719F00FEF1FEF13C08981082F09
:1018600010E0D7015996ED91FC915A974285538526
:10187000648575854150504060407040CF010E94A2
:101880009F0EC8010F90CF91DF911F910F91FF9094
:10189000EF900895CF93DF93EC01E98DFA8D3097A7
:1018A00061F013821282CF010E94EB109C01E98D3E
:1018B000FA8D82819381892B31F081E090E09B83C6
:1018C0008A8320E030E0C901DF91CF910895109222
:1018D000AD021092AE021092B1021092B30282E0F9
:1018E00090E0A0E0B0E08093B4029093B502A093A2
:1018F000B602B093B7021092CB021092D5021092AA
:10190000D40282E592E09093D3028093D2021092A7
:10191000D7020895FF920F931F93CF93DF938B010C
:101920000E94C21CEB01FF24FA94FEBC0DB407FE1A
:10193000FDCF8EB58F3F11F481E008C00E94C21C1C
:101940006C1B7D0B6017710780F380E0DF91CF91F6
:101950001F910F91FF900895FC01848160E00E9427
:101960000D1E0895FC01848161E00E940D1E089502
:10197000DC016EBDFA0120E030E00DB407FEFDCFC2
:1019800080818EBD0DB407FEFDCF81818EBD2E5F9F
:101990003F4F329682E02030380779F70DB407FECA
:1019A000FDCF8FEF8EBD0DB407FEFDCF8FEF8EBD47
:1019B0000DB407FEFDCF8FEF8EBD0DB407FEFDCF3A
:1019C0008EB51A968C931A978F71853011F481E039
:1019D000089581E115968C931597CD010E94B20C64
:1019E00080E00895FF920F931F93CF93DF93EC0154
:1019F0000E94C21C8B01FF24FA9409C00E94C21CE1
:101A0000601B710B6D52714010F08FE00DC0FEBC79
:101A10000DB407FEFDCF8EB58A878F3F79F38E3FD9
:101A200011F481E006C08DE08D83CE010E94B20CDE
:101A300080E0DF91CF911F910F91FF900895CF9398
:101A4000DF93EC018E818823D1F08FEF8EBD2F8143
:101A500038854FEF04C00DB407FEFDCF4EBD2F5F9C
:101A60003F4FC901019781509240A8F338872F83D7
:101A70000DB407FEFDCFCE010E94B20C1E82DF9195
:101A8000CF910895DF92EF92FF920F931F93CF9320
:101A9000DF93EC01D62E79018A010E941F0DCE0141
:101AA0000E94AC0CCE016CE271E00E948A0C8D2D7C
:101AB00080648EBD0DB407FEFDCF28E130E0D80173
:101AC000C701022E04C0B695A795979587950A94ED
:101AD000D2F78EBD0DB407FEFDCF285030408FEFFA
:101AE000283F380761F7DD2011F485E906C088E05A
:101AF000D81611F487E801C08FEF8EBD0DB407FE34
:101B0000FDCF90E02FEF2EBD0DB407FEFDCF8EB5BB
:101B100087FF02C09150B9F78A87DF91CF911F915B
:101B20000F91FF90EF90DF900895CF92DF92EF92A8
:101B3000FF920F931F93CF93DF93EC017A018B01F8
:101B40006901411551056105710511F482E137C044
:101B50008B85833039F029E0EE0CFF1C001F111F2C
:101B60002A95D1F7CE0168E1A80197010E94420DA4
:101B7000882311F084E023C0CE016EEFA6010E94FD
:101B8000B80C8823E9F0CE0168E572E00E948A0C67
:101B9000882311F485E113C0CE016DE020E030E030
:101BA00040E050E00E94420D882341F48FEF8EBD4B
:101BB0000DB407FEFDCF8EB5882379F084E18D83C7
:101BC000CE010E94B20C80E0DF91CF911F910F9166
:101BD000FF90EF90DF90CF900895CE010E94B20C5D
:101BE00081E0F2CF8F929F92AF92BF92CF92DF921D
:101BF000EF92FF920F931F93CF93DF93EC015A0163
:101C00006B0149010115110509F47BC0C801820F60
:101C1000931F8150924008F06FC08E81882371F02D
:101C200088819981AA81BB81481759076A077B0778
:101C300029F48F8198858816990618F5A882B982AB
:101C4000CA82DB828B85833039F069E0AA0CBB1C29
:101C5000CC1CDD1C6A95D1F7CE0161E1A60195018E
:101C60000E94420D882319F083E08D8345C0CE0188
:101C70000E94F20C882309F43FC018861F8281E07D
:101C80008E838FEF8EBD8F8198852FEF05C00DB4A9
:101C900007FEFDCF2EBD019688159905C0F39887E4
:101CA0008F83D801119720E030E09FEF0BC00DB477
:101CB00007FEFDCF8EB5F701E20FF31F80839EBDB7
:101CC0002F5F3F4F2A173B0790F30DB407FEFDCF60
:101CD0008EB5AE0DBF1D8C932F813885200F311F1F
:101CE00038872F838985882319F02050324048F0A7
:101CF000CE010E941F0D05C0CE010E94B20C80E0F3
:101D000001C081E0DF91CF911F910F91FF90EF9083
:101D1000DF90CF90BF90AF909F908F900895EF92FB
:101D2000FF920F931F93790120E030E000E012E072
:101D30000E94F20D1F910F91FF90EF9008956F9206
:101D40007F928F929F92AF92BF92CF92DF92EF924B
:101D5000FF920F931F93CF93DF93EC017A018B01D6
:101D60002D81222309F480C08B899C89AD89BE898D
:101D700084179507A607B70708F476C085C0E11455
:101D8000F1040105110549F41E821F821886198687
:101D90001A861B861C861D8665C02A853B854C8558
:101DA0005D85EB8DFC8D858590E009962150304056
:101DB0004040504039014A01082E04C0969487944F
:101DC000779467940A94D2F72F5F3F4F4F4F5F4F3E
:101DD0000894E108F108010911095701680104C0DC
:101DE000D694C794B794A7948A95D2F70894E11C27
:101DF000F11C011D111DA614B704C804D90428F054
:101E0000211531054105510549F48F89988DA98D1A
:101E1000BA8D8E839F83A887B98716C0A618B70886
:101E2000C808D90811C04E815F81688579858B8D7E
:101E30009C8D94010E94C6130894A108B108C108A2
:101E4000D108882331F410C086E0882E912C8C0EA6
:101E50009D1EA114B104C104D10429F7EA86FB86B2
:101E60000C871D8781E001C080E0DF91CF911F9139
:101E70000F91FF90EF90DF90CF90BF90AF909F9029
:101E80008F907F906F900895223009F078CFE6CF41
:101E9000CF93DF93EC01462F6E857F8588899989E2
:101EA0000E94EF12882319F420E030E00AC08A89EA
:101EB000282F30E095E0220F331F9A95E1F72D503F
:101EC0003D4FC901DF91CF9108950F931F93CF9399
:101ED000DF938C01FC0185818823D9F1848187FF00
:101EE00035C0C80161E00E94480FEC01009789F1FC
:101EF000F8018581823040F483899489A589B68967
:101F00008C8F9D8FAE8FBF8FF8018789908D9B8FAF
:101F10008A8F8789908DA18DB28DCD01AA27BB278D
:101F20009D8B8C8BE091F102F091F202309751F091
:101F3000BE016A5E7F4FCE0148960995888D998DC6
:101F40009B8B8A8BF80184818F7784830E94B412E3
:101F500001C080E0DF91CF911F910F9108952F92E2
:101F60003F924F925F926F927F928F929F92AF9229
:101F7000BF92CF92DF92EF92FF920F931F93CF9376
:101F8000DF93EC012A018D81882309F4C6C08C817E
:101F900080FFC3C0D8C025014E185F084B0176E012
:101FA000272E312C2C0E3D1E3201B1C02A853B85D7
:101FB0004C855D856FEFA62E61E0B62EA222B3227E
:101FC0008D8179018A0199E016950795F794E79438
:101FD0009A95D1F7EB8DFC8D823049F4428D538D6B
:101FE000648D758D4E0D5F1D601F711F3FC0D480C5
:101FF000DA94DE20A114B104D9F4DD20C9F421154E
:1020000031054105510549F48F89988DA98DBA8D07
:102010008E839F83A887B9870BC04E815F816885B7
:102020007985CF0191010E94C613882309F475C0F8
:10203000EB8DFC8D4E815F816885798542505040E3
:1020400060407040058404C0440F551F661F771F11
:102050000A94D2F786859785A089B189480F591FC0
:102060006A1F7B1F4D0D511D611D711D80E092E0A7
:102070008A199B0963018615970508F46C018C8108
:1020800086FD06C080E0C81682E0D80609F073C05D
:102090008091360290913702A0913802B0913902B6
:1020A000481759076A077B0709F465C08091F30454
:1020B0009091F4049501860174010E94F20D882329
:1020C00061F18C0C9D1C12C095012D503D4FA90152
:1020D0004C0D5D1DD401F90102C081918D93E4176F
:1020E000F507D9F7E21BF30B8E0E9F1E960140E019
:1020F00050E08A859B85AC85BD85820F931FA41F08
:10210000B51F8A879B87AC87BD876C187D086114D3
:10211000710409F04BCFA20102C04FEF5FEFCA017B
:10212000DF91CF911F910F91FF90EF90DF90CF90B3
:10213000BF90AF909F908F907F906F905F904F90E7
:102140003F902F900895AB88BC88CD88DE88EA84C4
:10215000FB840C851D859A0140E050E0D601C50145
:102160008E199F09A00BB10B82179307A407B5071F
:1021700008F411CF13CFCB01BA0140E00E94EF1257
:10218000882309F0A1CFC9CFCF93DF93EC019C0145
:102190002A5F3F4F8B8D9C8D41E050E060E070E006
:1021A0000E9439148823A1F08F89988DA98DBA8D4A
:1021B0000097A105B10559F48E819F81A885B98545
:1021C0008F8B988FA98FBA8F8C8180688C8381E0E8
:1021D000DF91CF9108952F923F924F925F927F921D
:1021E0008F929F92AF92BF92CF92DF92EF92FF9227
:1021F0000F931F93DF93CF9300D000D000D0CDB7C3
:10220000DEB76C01162F072F5E834D83DC01159618
:102210008C911597813009F070C114968C9181FFD3
:102220006CC18EC1F601438954896589768982859E
:102230009385A485B58584179507A607B70731F060
:10224000C6010E949F0E882309F457C1812F902F49
:102250009C0129012D803E8017C1D6015B96ED912E
:10226000FC915C97DA01C90119E0B695A79597959D
:1022700087951A95D1F774807A9478227FEF872E0C
:1022800071E0972E82229322772009F04EC08114AC
:10229000910409F04AC0D60116964D915D916D9159
:1022A0007C911997411551056105710581F4579687
:1022B0008D919D910D90BC91A02D0097A105B10528
:1022C00049F1F60186839783A087B1872EC0CF019D
:1022D0009E012F5F3F4F0E94C613882309F414C14B
:1022E00029813A814B815C81D6015B96ED91FC910D
:1022F0005C978789803129F088EF9FEFAFEFBFE0CF
:1023000004C088EF9FEFA0E0B0E0281739074A0724
:102310005B0730F0C6010E94C410882331F4EDC081
:10232000F601268337834087518780E092E0881941
:10233000990951018215930508F45C01D6015B9659
:10234000ED91FC915C971696ED90FD900D911C918E
:1023500019978EEF9FEFAFEFBFEFE80EF91E0A1F40
:102360001B1F058404C0EE0CFF1C001F111F0A94E4
:10237000D2F786859785A089B189E80EF91E0A1FD4
:102380001B1FE70CF11C011D111D90E0A91692E026
:10239000B90651F58091360290913702A09138022A
:1023A000B09139028E159F05A007B10761F48FEF38
:1023B0009FEFAFEFBFEF8093360290933702A09369
:1023C0003802B09339028091F3049091F404B8017B
:1023D000A70192010E94950D882309F48EC0A0E008
:1023E000B2E04A0E5B1E3EC08114910409F5F6016D
:1023F000228533854485558583899489A589B68945
:10240000281739074A075B0798F00E94B4128823FF
:1024100009F473C0E0923602F0923702009338025A
:10242000109339028091F50481608093F50408C00F
:10243000C801B70141E00E94EF12882309F45DC092
:1024400094012D503D4FA9014A0D5B1DD201F901A8
:1024500002C08D918193E417F507D9F7E21BF30BC6
:102460004E0E5F1E2A183B08950140E050E0F60131
:1024700082859385A485B585820F931FA41FB51F00
:1024800082879387A487B587D6011A962D913D91AF
:102490004D915C911D972114310409F0DECE5396C5
:1024A0008D919D910D90BC91A02D82179307A4074B
:1024B000B50748F4F601238B348B458B568B84810A
:1024C0008068848311C08091F1029091F202892B7F
:1024D00059F08D819E81892B39F0D60114968C910B
:1024E0001497806814968C93F601848183FF0EC044
:1024F000C6010E94650F882349F481E090E0D6016F
:1025000013969C938E9312971E821D828D819E81BD
:1025100026960FB6F894DEBF0FBECDBFCF91DF91E8
:102520001F910F91FF90EF90DF90CF90BF90AF90F1
:102530009F908F907F905F904F903F902F90089545
:1025400082FD70CE83CEDF93CF930F92CDB7DEB7EF
:102550006983BE016F5F7F4F41E050E00E94EB1046
:102560000F90CF91DF9108958091F504882399F120
:1025700040913602509137026091380270913902D1
:102580008091F3049091F40423EF32E00E94950DC2
:10259000882319F14091F6045091F7046091F804F2
:1025A0007091F904411551056105710591F0809113
:1025B000F3049091F40423EF32E00E94950D8823F8
:1025C00061F01092F6041092F7041092F804109241
:1025D000F9041092F50481E0089580E00895DF92F7
:1025E000EF92FF920F931F937B018C01D42E809169
:1025F000360290913702A0913802B09139028E15BF
:102600009F05A007B107C1F00E94B4128823D9F03A
:102610008091F3049091F404B801A70123EF32E014
:102620000E948F0E882379F0E0923602F0923702F2
:1026300000933802109339028091F5048D2980931C
:10264000F50481E001C080E01F910F91FF90EF90B1
:10265000DF9008954F925F926F927F928F929F9238
:10266000AF92BF92CF92DF92EF92FF920F931F93A0
:10267000CF93DF93EC016A017B01280139014230DD
:1026800051056105710508F46FC089859A85AB8590
:10269000BC850196A11DB11D84179507A607B70734
:1026A00008F462C02B893C894D895E898F8980310D
:1026B00029F499278F2D7E2D6D2D09C0C701B601F4
:1026C00017E096958795779567951A95D1F74B0101
:1026D0005C01820E931EA41EB51E8091360290915D
:1026E0003702A0913802B091390288169906AA06DD
:1026F000BB0639F0C501B40140E00E94EF12882307
:1027000099F18F89803149F4F601F070EE0FFF1FC7
:10271000ED50FD4F518240820DC0F601EF77F07011
:10272000EE0FFF1FEE0FFF1FED50FD4F4082518255
:10273000628273828091F50481608093F5048A89B6
:10274000823080F08D819E81AF81B885880E991E80
:10275000AA1EBB1E8092F6049092F704A092F80481
:10276000B092F90481E001C080E0DF91CF911F9128
:102770000F91FF90EF90DF90CF90BF90AF909F9020
:102780008F907F906F905F904F900895CF92DF92DF
:10279000EF92FF920F931F93CF93DF93EC017A0197
:1027A0008B01690189859A85AB85BC850196A11D40
:1027B000B11D84179507A607B70708F450C02B89E9
:1027C0003C894D895E898F89803129F49927812F31
:1027D000702F6F2D09C0C801B701E7E09695879566
:1027E00077956795EA95D1F7260F371F481F591F30
:1027F0008091360290913702A0913802B09139024F
:10280000281739074A075B0739F0CA01B90140E0C8
:102810000E94EF12882319F18F89803159F4F70152
:10282000F070EE0FFF1FED50FD4F80819181A0E011
:10283000B0E00EC0F701EF77F070EE0FFF1FEE0F64
:10284000FF1FED50FD4F80819181A281B381BF7048
:10285000F60180839183A283B38381E001C080E08D
:10286000DF91CF911F910F91FF90EF90DF90CF906C
:1028700008952F923F924F925F926F927F928F9224
:102880009F92AF92BF92CF92DF92EF92FF920F93FF
:102890001F93DF93CF93CDB7DEB72F970FB6F89482
:1028A000DEBF0FBECDBF1C014A875B876C877D876B
:1028B0003F872E87D9010D911D912D913C910115D6
:1028C00011052105310549F0480159010894811C81
:1028D000911CA11CB11C198610C0FC018080918044
:1028E000A280B38019868A859B85AC85BD850197BA
:1028F000A105B10511F491E09987D10119968D9147
:102900009D910D90BC91A02D0196A11DB11D8D83AF
:102910009E83AF83B8877501640144245524320136
:102920008E010F5F1F4FF10181859285A385B485CC
:10293000481659066A067B0608F090C08D819E8174
:10294000AF81B8858C159D05AE05BF0550F482E0BA
:10295000882E912CA12CB12CB2E0CB2ED12CE12CC5
:10296000F12CC101B701A60198010E94C61388236A
:1029700009F474C089819A81AB81BC81A701960159
:102980002F5F3F4F4F4F5F4F0097A105B10519F0E3
:1029900049015A010DC0281939094A095B098A857C
:1029A0009B85AC85BD85281739074A075B0759F019
:1029B0000894411C511C611C711C0894C11CD11C41
:1029C000E11CF11CB0CFC101A601B7010FEF1FEF51
:1029D0002FEF3FE00E942A13882399F43FC026017D
:1029E000370108944108510861087108C101B30119
:1029F000A201970186010E942A13882379F17301AD
:102A000062018C149D04AE04BF0448F3AE85BF85FB
:102A10004D915D916D917C91411551056105710557
:102A200039F0C101950184010E942A138823B1F075
:102A3000EE85FF8580829182A282B382F985FF2391
:102A400059F00894811C911CA11CB11CD1018D92DC
:102A50009D92AD92BC92139781E001C080E02F96C9
:102A60000FB6F894DEBF0FBECDBFCF91DF911F919F
:102A70000F91FF90EF90DF90CF90BF90AF909F901D
:102A80008F907F906F905F904F903F902F90089520
:102A90002091830530E0F901ED5FFA4F80832F5FCD
:102AA0003F4F2F77307020938305809101058F5F12
:102AB0008093010508952091020530E0F901ED5F52
:102AC000FA4F80812F5F3F4F2F77307020930205A0
:102AD0009091010591509093010508959C01F999F9
:102AE000FECF32BD21BDF89A80B508959C01F999B9
:102AF000FECF1FBA32BD21BD60BD0FB6F894FA9A61
:102B0000F99A0FBE0895DF93CF930F92CDB7DEB73A
:102B100080689FB79983F89443988EBD0DB407FEE3
:102B2000FDCF8EB58EBD0DB407FEFDCF8EB5439A99
:102B300099819FBF0F90CF91DF910895DF93CF933D
:102B40000F92CDB7DEB7482F20E030E0942F906C85
:102B50008FB78983F89443989EBD0DB407FEFDCFCF
:102B60008EB5CB01022E02C0969587950A94E2F7A6
:102B70008EBD0DB407FEFDCF8EB5439A89818FBF00
:102B80004F5F285F3F4F2031310501F70F90CF9104
:102B9000DF910895DF93CF930F92CDB7DEB7482F23
:102BA00020E030E0FB01E20FF31FE081942F920F51
:102BB000906C8FB78983F89443989EBD0DB407FE3F
:102BC000FDCF8EB5EEBD0DB407FEFDCF8EB5439A99
:102BD00089818FBF2F5F3F4F2830310519F70F9044
:102BE000CF91DF910895FF920F931F93DF93CF93BF
:102BF0000F92CDB7DEB7182FF62E042F0E94831543
:102C0000982F106C8FB78983F89443981EBD0DB42C
:102C100007FEFDCF8EB5802F809589230F21802B55
:102C20008EBD0DB407FEFDCF8EB5439A89818FBF4F
:102C30000F90CF91DF911F910F91FF9008958130F8
:102C400051F0813028F0823049F08330E1F411C036
:102C50008CE068E005C08CE06CE002C08CE06CE1C8
:102C60004FE30E94F31586E162E043E00E94F31512
:102C700008958CE060E04FE30E94F31586E163E085
:102C800043E00E94F315089584B1886284B93B9AA9
:102C90002D9A439A2C9A2A9A8CB581618CBD8DB558
:102CA00081608DBD8CB580648CBD439A0895809100
:102CB000870508950F931F93082F429B02C084E459
:102CC00045C081E00E948315182F1F71812F81510B
:102CD000823020F0113011F0123031F481E00E9486
:102CE00083158F718117D1F3063179F0093151F0D5
:102CF0000830B1F4429886E090E00E94291D82E0FD
:102D000063E007C0163161F402C0193149F482E072
:102D100069E04FE10E94F31581E090E00E94291DD7
:102D200082E0602F4FE10E94F315183011F081E02E
:102D300001C084EB90E00E94291D81E00E94831570
:102D40008F71801711F083E401C080E41F910F910F
:102D500008951F920F920FB60F921124AF92BF9257
:102D6000CF92DF92EF92FF920F931F932F933F9397
:102D70004F935F936F937F938F939F93AF93BF9383
:102D8000EF93FF93DF93CF93CDB7DEB7E497DEBF2A
:102D9000CDBF8FB78983F8941E9BBCC043988FE842
:102DA0008EBD0DB407FEFDCF8EB51EBC0DB407FE63
:102DB000FDCF0EB5439A20E2E22E90E8A92EB12C69
:102DC00083E0C82ED12CCC0EDD1EA1C002FF02C0B4
:102DD0000B7F9DC003FF7EC081E00E9483158F7131
:102DE000863029F0863119F0813109F069C087E019
:102DF0000E9483158093970586E00E948315881FA3
:102E00008827881F80939805882309F45CC08FB7B2
:102E10008A83F8944398EEBC0DB407FEFDCF8EB5BF
:102E20001EBC0DB407FEFDCFFEB48F2D83508D3731
:102E3000B8F52F2D30E080910105A501481B5109FF
:102E40002417350714F080E016C08F2D0E94481516
:102E500010E008C01EBC0DB407FEFDCF8EB50E9469
:102E600048151F5F1F15B0F31BC01EBC0DB407FE35
:102E7000FDCF9EB58F5F8F15C0F380919105909126
:102E8000920501969093920580939105C60166E99B
:102E900070E00E94100282E696E0B6010E942422B1
:102EA000439A8A818FBF8091890590918A05019606
:102EB00090938A058093890581E08093870503C0FC
:102EC00081E08093880586E10E945A168034D9F704
:102ED000077F1DC006FF0BC00F7B8091930590916B
:102EE00094050196909394058093930510C001FF7B
:102EF00002C00D7F0CC000FF02C00E7F08C007FF9C
:102F000006C00F77809195058F5F8093950500230C
:102F100009F05CCF89818FBFE496DEBFCDBFCF9132
:102F2000DF91FF91EF91BF91AF919F918F917F9131
:102F30006F915F914F913F912F911F910F91FF9052
:102F4000EF90DF90CF90BF90AF900F900FBE0F909B
:102F50001F9018951F93182F88E0612F4FE10E9452
:102F6000F31581E00E9483158F71863011F089304E
:102F700021F486E990E00E94291D88E00E948315D3
:102F800090E08F719070212F30E08217930711F03D
:102F900083E401C080E41F9108950E94AA17089558
:102FA0009C01F999FECFCB01B9012EE635E10E94D3
:102FB00073020895DF93CF9300D0CDB7DEB789E0D9
:102FC00090E0BE016F5F7F4F42E050E00E94D0175B
:102FD00089819A810F900F90CF91DF9108950E947F
:102FE000DA170895BC0180E090E048E050E00E94CC
:102FF000D01708950F931F93DF93CF93CDB7DEB70C
:10300000EB970FB6F894DEBF0FBECDBF0E944416FB
:103010003A9A8FB78983F89443988EEC8EBD0DB49D
:1030200007FEFDCF8EB51EBC0DB407FEFDCF8EB5DD
:10303000439A89818FBF82E063E04FE10E94F315DC
:103040008EEF91E00E94291D81E00E941F168BE007
:103050000E94AA1785E060E840E80E94F31586E127
:103060000E945A1682E264E372E10E949E150E9459
:10307000DA17BC0180E20E949E158E010E5F1F4F81
:10308000C8010E94F21784E2B8010E94CA158FE0BD
:103090000E9483158FB78983F89443988EEC8EBD78
:1030A0000DB407FEFDCF8EB588E08EBD0DB407FED2
:1030B000FDCF8EB5439A89818FBF80916B0080646C
:1030C00080936B008091680081608093680081E04C
:1030D0000E9483158F71863111F481E00EC08E013C
:1030E000065F1F4FC8016DE071E00E94100282E68A
:1030F00096E0B8010E94242280E0EB960FB6F89487
:10310000DEBF0FBECDBFCF91DF911F910F9108950C
:10311000F999FECF26E735E10E948F020895DF93EB
:10312000CF9300D0CDB7DEB79A83898389E090E052
:10313000BE016F5F7F4F42E050E00E9488186981B6
:103140007A8180E20E949E1589819A8190938505FB
:10315000809384050F900F90CF91DF9108950E9486
:103160008F180895DF92EF92FF920F931F93CF93E2
:10317000DF937C01DC011596CD91DC9116970E94BE
:103180005B15D82E87FD52C08883082F10E00F5F93
:103190001F4F0C0F1D1F03C00E945B1588832196D3
:1031A000C017D107C9F7D7011596ED91FC91169775
:1031B00043818681978114969C938E931397BF01C8
:1031C000685F7F4F8085918512969C938E931197AF
:1031D00080910105882311F41092870580913A02AD
:1031E000481751F4F7012181328180913B0290917F
:1031F0003C0228173907D1F040933A02D7011196C3
:103200008D919C91129790933C0280933B026E5F4C
:103210007F4F4D2D50E04950504015968D919C9117
:1032200016970E9420028D2D8B5001C080E0DF9107
:10323000CF911F910F91FF90EF90DF9008950F9322
:103240001F93909300058093FF040AEF14E0C801D8
:103250000E94B218F80180831F910F91089586E1B2
:10326000E4E8F5E0DF011D928A95E9F70E94DA179C
:1032700090938505809384050E94FA1708950E9413
:103280002F190895CF93DF93DC01EA019C9121E08F
:1032900030E007C0FD01E20FF31F808198272F5F08
:1032A0003F4F26173707B4F388818A3314F08753CA
:1032B00001C0805349814A3314F0475301C0405341
:1032C00020E030E08295807F840F981711F421E090
:1032D00030E0C901DF91CF910895CF93DF93DC01F6
:1032E0008C91843259F5FD01E60FF71F33978081E9
:1032F0008A3221F562507040ED01C60FD71F6E5F14
:103300007F4F9881892F80538A3018F091549630DE
:10331000A8F4FD01E60FF71F3197E0818E2F80534F
:103320008A3018F0E154E63048F464507040CD0122
:103330000196AE010E9442199C0102C020E030E0DB
:10334000C901DF91CF9108951F920F920FB60F928E
:1033500011248F939F9380919A0590919B050196DC
:1033600090939B0580939A059F918F910F900FBE2C
:103370000F901F9018951F920F920FB60F92112465
:103380002F933F934F935F936F937F938F939F936D
:10339000AF93BF93EF93FF9380919E050E94611EB0
:1033A0000197A9F480919C0590919D05813091052C
:1033B00071F49093A1058093A0050E94C21C6093B4
:1033C000A2057093A3058093A4059093A505FF9192
:1033D000EF91BF91AF919F918F917F916F915F918D
:1033E0004F913F912F910F900FBE0F901F90189506
:1033F0008130910541F46F5F7F4F71F486EA95E06B
:103400000E94930B0895892B39F46F5F7F4F21F44D
:1034100086EA95E00E94A60B089580E090E06FEFA9
:103420007FEF0E94F819089581E090E06FEF7FEF41
:103430000E94F81908951092C6051092C7051092BF
:10344000CA051092CC0508950F931F938C01FC01BF
:10345000868160E00E940D1E81E090E00E94291D9F
:10346000F801868161E00E940D1E81E090E00E94DB
:10347000291DF801868160E00E940D1E84E690E01F
:103480000E94291D1F910F910895CF92DF92EF9214
:10349000FF920F931F93CF93DF93D82EC92E282F1F
:1034A000392FC9018C01C0E0D0E0E62EFF24F801DD
:1034B000878161E00E94CE1DB7010C2E02C0759578
:1034C00067950A94E2F76170F80187810E940D1EEA
:1034D00021960F5F1F4FC830D10549F78D2D9C2DC8
:1034E0000E94241ADF91CF911F910F91FF90EF90CE
:1034F000DF90CF900895CF92DF92EF92FF920F93DB
:103500001F93CF93DF93D82EC92E282F392FC901AF
:103510008C01C0E0D0E0E62EFF24F801878161E055
:103520000E94CE1DB7010C2E02C0759567950A94B6
:10353000E2F76170F80187810E940D1E21960F5FEE
:103540001F4FC430D10549F78D2D9C2D0E94241AA0
:10355000DF91CF911F910F91FF90EF90DF90CF906F
:1035600008951F93CF93DF93EC01162F8C81642F66
:103570000E940D1E8D818F3F19F060E00E940D1E8C
:103580008F8584FF05C0CE01612F0E94451A0EC0B1
:10359000612F70E084E0759567958A95E1F7CE011B
:1035A0000E947B1ACE01612F0E947B1ADF91CF917E
:1035B0001F91089541E00E94B11A81E090E00895C2
:1035C00040E00E94B11A0895FC016089862F846052
:1035D000808B6C60CF010E94E01A0895DF93CF9337
:1035E000CDB7DEB728970FB6F894DEBF0FBECDBFBC
:1035F0009C01FE013196AEE5B2E088E00D900192AB
:103600008150E1F7F9018389481710F0482F4150A4
:10361000E42FF0E0EE0FFF1FEC0FFD1F8181680F1C
:103620006068C9010E94E01A28960FB6F894DEBFC0
:103630000FBECDBFCF91DF91089561E00E94E01AE7
:1036400080ED97E00E94291D0895CF93DF93EC0150
:10365000423018F08F8588608F874B8B1C8A22231D
:1036600029F0413019F48F8584608F8780E593ECD1
:103670000E94291D8C8160E00E940D1E8E8160E0F9
:103680000E940D1E8D818F3F19F060E00E940D1E7B
:103690006F8564FD1DC0CE0163E00E947B1A84E942
:1036A00091E10E94291DCE0163E00E947B1A84E90A
:1036B00091E10E94291DCE0163E00E947B1A86E9F8
:1036C00090E00E94291DCE0162E00E947B1A16C084
:1036D0006062CE010E94E01A84E991E10E94291DF6
:1036E0006F856062CE010E94E01A86E990E00E9438
:1036F000291D6F856062CE010E94E01A6F856062AD
:10370000CE010E94E01A84E0888BCE010E94E41A68
:10371000CE010E941D1B82E0898BCE0166E00E94D3
:10372000E01ADF91CF9108956F927F928F92AF92BE
:10373000CF92EF920F931F93DF93CF93CDB7DEB766
:103740003C01162F842FF301448325830683E782EF
:10375000C086A18682869D8593879E8594879F8556
:1037600095879889968761E00E94CE1DF301858137
:103770008F3F19F061E00E94CE1DF301868161E068
:103780000E94CE1D112319F0F301178603C080E1BA
:10379000F3018787C30160E141E020E00E94251B1F
:1037A000CF91DF911F910F91EF90CF90AF908F90BD
:1037B0007F906F9008958F92AF92CF92EF920F9378
:1037C0001F93CF93DF93DC01362F542F722F102FCE
:1037D000AE2C8C2C13961C921E9212978AE592E0C6
:1037E00011969C938E9300D000D0EDB7FEB7319622
:1037F000CDB7DEB71982118212821382CD0161E04A
:10380000432F2FEF052FE72EC12E0E94941B0F9000
:103810000F900F900F90DF91CF911F910F91EF902C
:10382000CF90AF908F9008951F920F920FB60F9286
:1038300011242F933F934F935F936F937F938F93B5
:103840009F93AF93BF93EF93FF938091CD0590919A
:10385000CE05892B29F0E091CD05F091CE05099593
:10386000FF91EF91BF91AF919F918F917F916F9158
:103870005F914F913F912F910F900FBE0F901F902E
:1038800018951F920F920FB60F9211242F933F930A
:103890004F935F936F937F938F939F93AF93BF9358
:1038A000EF93FF938091CF059091D005892B29F05C
:1038B000E091CF05F091D0050995FF91EF91BF916F
:1038C000AF919F918F917F916F915F914F913F91B8
:1038D0002F910F900FBE0F901F9018951F920F926F
:1038E0000FB60F9211242F933F934F935F936F93D3
:1038F0007F938F939F93AF93BF932091D505309182
:10390000D6054091D7055091D8057091D905DA01B7
:10391000C9010296A11DB11D672F6A5F6D3730F096
:103920006D57DA01C9010396A11DB11D6093D90538
:103930008093D5059093D605A093D705B093D8056D
:103940008091D1059091D205A091D305B091D40575
:103950000196A11DB11D8093D1059093D205A0932E
:10396000D305B093D405BF91AF919F918F917F9173
:103970006F915F914F913F912F910F900FBE0F90DC
:103980001F9018958FB7F8942091D5053091D605E2
:103990004091D7055091D8058FBFB901CA0108954C
:1039A0009B01AC017FB7F8948091D1059091D2052D
:1039B000A091D305B091D40566B5A89B05C06F3F13
:1039C00019F00196A11DB11D7FBFBA2FA92F982F05
:1039D0008827860F911DA11DB11D63E0880F991FD7
:1039E000AA1FBB1F6A95D1F7BC012DC0FFB7F89481
:1039F0008091D1059091D205A091D305B091D405C5
:103A0000E6B5A89B05C0EF3F19F00196A11DB11DB9
:103A1000FFBFBA2FA92F982F88278E0F911DA11DA8
:103A2000B11DE3E0880F991FAA1FBB1FEA95D1F7CC
:103A3000861B970B885E9340C8F22150304040406F
:103A4000504068517C4F211531054105510571F6F3
:103A50000895019739F0019729F0880F991F019770
:103A60000197F1F70895789484B5826084BD84B598
:103A7000816084BD85B5826085BD85B5816085BD69
:103A8000EEE6F0E0808181608083E1E8F0E0108282
:103A9000808182608083808181608083E0E8F0E0C3
:103AA000808181608083E1EBF0E0808184608083AD
:103AB000E0EBF0E0808181608083EAE7F0E08081E4
:103AC0008460808380818260808380818160808344
:103AD0008081806880831092C10008951F93CF93E6
:103AE000DF93182FEB0161E00E94CE1D209709F4AF
:103AF0004AC0CF3FD10509F449C0E12FF0E0ED58AD
:103B0000FE4F84918330C1F0843028F4813051F02D
:103B10008230B1F50CC0863019F1873049F184301C
:103B200079F514C084B5806884BDC7BD33C084B541
:103B3000806284BDC8BD2EC0809180008068809363
:103B40008000D0938900C093880024C080918000B9
:103B5000806280938000D0938B00C0938A001AC04B
:103B60008091B00080688093B000C093B30012C011
:103B70008091B00080628093B000C093B4000AC00E
:103B8000C038D1051CF4812F60E002C0812F61E0B4
:103B90000E940D1EDF91CF911F910895CF93DF9367
:103BA000482F50E0CA01815A9E4FFC013491455B79
:103BB0005E4FFA018491882369F190E0880F991F84
:103BC000FC01E35DFE4FA591B491FC01E95CFE4F61
:103BD000C591D491662351F42FB7F8948C91932F0B
:103BE000909589238C93888189230BC0623061F47E
:103BF0002FB7F8948C91932F909589238C9388817B
:103C0000832B88832FBF06C09FB7F8948C91832B9A
:103C10008C939FBFDF91CF910895482F50E0CA0148
:103C20008D589E4FFC012491CA01815A9E4FFC0180
:103C30009491455B5E4FFA013491332309F440C0FF
:103C4000222351F1233071F0243028F42130A1F0E7
:103C5000223011F514C02630B1F02730C1F02430E5
:103C6000D9F404C0809180008F7703C080918000D8
:103C70008F7D8093800010C084B58F7702C084B59B
:103C80008F7D84BD09C08091B0008F7703C0809183
:103C9000B0008F7D8093B000E32FF0E0EE0FFF1FA8
:103CA000E95CFE4FA591B4912FB7F894662321F4F7
:103CB0008C919095892302C08C91892B8C932FBF76
:103CC0000895682F70E0CB018D589E4FFC01249120
:103CD000CB01815A9E4FFC014491655B7E4FFB01F5
:103CE0009491992319F420E030E03CC0222351F153
:103CF000233071F0243028F42130A1F0223011F566
:103D000014C02630B1F02730C1F02430D9F404C0FB
:103D1000809180008F7703C0809180008F7D809399
:103D2000800010C084B58F7702C084B58F7D84BDBC
:103D300009C08091B0008F7703C08091B0008F7D63
:103D40008093B000892F90E0880F991F8F5B9E4F62
:103D5000FC01A591B4918C9120E030E0842311F016
:103D600021E030E0C901089508951F920F920FB627
:103D70000F9211242F933F934F938F939F93EF9321
:103D8000FF938091C00082FD1DC04091C60020912C
:103D90001A0630911B062F5F3F4F2F7330708091B2
:103DA0001C0690911D062817390771F0E0911A063C
:103DB000F0911B06E652FA4F408330931B06209386
:103DC0001A0602C08091C600FF91EF919F918F91DA
:103DD0004F913F912F910F900FBE0F901F9018950C
:103DE000E0916E06F0916F06E05CFF4F819191913A
:103DF00020813181821B930B8F739070892B11F07E
:103E00000E94B41E08951F920F920FB60F921124B4
:103E10002F933F938F939F93EF93FF9320915E0691
:103E200030915F06809160069091610628173907EE
:103E300031F48091C1008F7D8093C10014C0E09166
:103E40006006F0916106E25EF94F20818091600684
:103E50009091610601968F739070909361068093A4
:103E600060062093C600FF91EF919F918F913F9143
:103E70002F910F900FBE0F901F901895AF92BF9289
:103E8000DF92EF92FF920F931F93CF93DF93EC019A
:103E90007A018B01DD24D39491E0A92EB12CEC8919
:103EA000FD89DD2069F0C50108A002C0880F991FB7
:103EB0000A94E2F7808360E874E88EE190E005C040
:103EC000108260E472E48FE090E0A80197010E9404
:103ED0002D2721503040404050405695479537950A
:103EE000279580E12030380720F0DD2011F0DD2417
:103EF000D6CFE889F9893083EA89FB89208319A222
:103F0000EE89FF89408121E030E0C9010C8C02C0BC
:103F1000880F991F0A94E2F7482B4083EE89FF89A6
:103F20004081C9010D8C02C0880F991F0A94E2F7E5
:103F3000482B4083EE89FF894081C9010E8C02C065
:103F4000880F991F0A94E2F7482B4083EE89FF8976
:103F500080810F8C02C0220F331F0A94E2F7209554
:103F600028232083DF91CF911F910F91FF90EF9035
:103F7000DF90BF90AF900895DC011C96ED91FC910D
:103F80001D97E05CFF4F2191319180819181281B29
:103F9000390B2F733070C9010895DC011C96ED9127
:103FA000FC911D97E05CFF4F20813181E054F0408F
:103FB000DF01AE5BBF4F8D919C9111972817390798
:103FC00019F42FEF3FEF07C08D919C91E80FF91F77
:103FD0008081282F30E0C9010895DC011C96ED9105
:103FE000FC911D97E05CFF4F20813181E054F0404F
:103FF000DF01AE5BBF4F8D919C9111972817390758
:1040000019F42FEF3FEF10C08D919C911197E80F9D
:10401000F91F20818D919C91119701968F7390705B
:1040200011969C938E9330E0C9010895DC0191961E
:104030008C919197882339F05496ED91FC91559786
:10404000808186FFF9CF91961C920895CF93DF93DC
:10405000EC01EE85FF85E05CFF4F20813181E0546B
:10406000F0402F5F3F4F2F733070DF01AE5BBF4FCB
:104070008D919C91119728173907D1F3E05CFF4F80
:1040800080819181E054F040E80FF91F6083EE8554
:10409000FF85E05CFF4F31832083EE89FF8920811B
:1040A00081E090E00F8C02C0880F991F0A94E2F71C
:1040B000282B208381E089A3EC89FD89808180649D
:1040C000808381E090E0DF91CF91089510926506A2
:1040D0001092640688EE93E0A0E0B0E0809366065C
:1040E00090936706A0936806B09369068AE692E00B
:1040F00090936306809362068AED95E090936F0635
:1041000080936E068EE196E0909371068093700620
:1041100085EC90E0909373068093720684EC90E0B7
:10412000909375068093740680EC90E090937706E8
:104130008093760681EC90E09093790680937806E0
:1041400082EC90E090937B0680937A0686EC90E078
:1041500090937D0680937C0684E080937E0683E0C6
:1041600080937F0687E08093800685E080938106B8
:1041700081E0809382060895CF92DF92EF92FF92C2
:104180000F931F93CF93DF937C016B018A01C0E0F3
:10419000D0E00FC0D6016D916D01D701ED91FC917A
:1041A0000190F081E02DC7010995C80FD91F01507A
:1041B00010400115110571F7CE01DF91CF911F91CC
:1041C0000F91FF90EF90DF90CF900895EF92FF92C4
:1041D0000F931F938C01DC01ED91FC910190F08114
:1041E000E02D6DE009957C01D801ED91FC910190E5
:1041F000F081E02DC8016AE009959C012E0D3F1D5C
:10420000C9011F910F91FF90EF900895CF93DF9315
:10421000EC016115710519F420E030E00FC0DB01FD
:104220000D900020E9F71197A61BB70BE881F981E3
:104230000280F381E02DAD0109959C01C901DF9158
:10424000CF9108954F925F927F928F929F92AF92FB
:10425000BF92CF92DF92EF92FF920F931F93DF9363
:10426000CF93CDB7DEB7A1970FB6F894DEBF0FBEE0
:10427000CDBF2C01742ECB01223008F42AE019A204
:1042800031E2C32ED12CCC0EDD1E822E9924AA241D
:10429000BB24672D752FA50194010E942D2779015C
:1042A0008A01C801B701A50194010E940E27472D7C
:1042B000461B0894C108D1084A3014F4405D01C07F
:1042C000495CF6014083E114F1040105110521F078
:1042D0007E2C5F2DC801DDCFC201B6010E940621F0
:1042E000A1960FB6F894DEBF0FBECDBFCF91DF9180
:1042F0001F910F91FF90EF90DF90CF90BF90AF9004
:104300009F908F907F905F904F900895DC012115D2
:10431000310541F4ED91FC910190F081E02D642F85
:10432000099508950E9422210895CF92DF92EF927D
:10433000FF920F931F936C017B019A0100E010E044
:10434000B801A7010E9486218C01C6010E94E620C7
:10435000080F191FC8011F910F91FF90EF90DF9078
:10436000CF900895CF92DF92EF92FF920F931F9319
:10437000CF93DF93EC016A017B012115310541F4F4
:10438000E881F9810190F081E02D642F09951FC02B
:104390002A303105D1F477FF17C0E881F981019007
:1043A000F081E02D6DE209958C0144275527BA0173
:1043B0004C195D096E097F09CE012AE00E94222175
:1043C0009801280F391F04C02AE00E9422219C0175
:1043D000C901DF91CF911F910F91FF90EF90DF9076
:1043E000CF900895EF92FF920F931F937B019A0154
:1043F0000027F7FC0095102FB801A7010E94B221F9
:104400001F910F91FF90EF900895CF92DF92EF925E
:10441000FF920F931F936C017B019A010027F7FC19
:104420000095102FB801A7010E94B2218C01C6018E
:104430000E94E620080F191FC8011F910F91FF90DD
:10444000EF90DF90CF9008950E9406210895EF929B
:10445000FF920F931F937C010E9406218C01C701DC
:104460000E94E620080F191FC8011F910F91FF90AD
:10447000EF900895813041F0813018F08230D1F40E
:1044800009C010926E00089580916F008D7F809317
:104490006F000895809170008D7F8093700081E09F
:1044A0008093B0008091B100887F84608093B100D8
:1044B0001092B30008951F93182F80913D02811729
:1044C00011F09FEF06C0E7E8F1E094918FEF809341
:1044D0003D02892F0E943A22812F60E00E940D1E2A
:1044E0001F9108951F920F920FB60F9211242F93D0
:1044F0003F934F935F936F937F938F939F93AF936C
:10450000BF93EF93FF938091920690919306A091B1
:104510009406B09195060097A105B10551F1E0917F
:104520009606F0919706808190919806892780835E
:104530008091920690919306A0919406B091950671
:10454000181619061A061B06C4F48091920690915B
:104550009306A0919406B09195060197A109B1091F
:104560008093920690939306A0939406B093950639
:1045700004C080913D020E945B22FF91EF91BF91A8
:10458000AF919F918F917F916F915F914F913F91EB
:104590002F910F900FBE0F901F9018952F923F9262
:1045A0005F926F927F928F929F92AF92BF92CF92C3
:1045B000DF92EF92FF920F931F93DF93CF9300D080
:1045C00000D0CDB7DEB7A82F1B0129833A834B83D8
:1045D0005C8380913D028A1721F4E7E8F1E0549072
:1045E00082C08F3F09F0DAC1A0933D02E7E8F1E015
:1045F00054902FEF521609F4D1C181E0581639F1C9
:1046000092E0591609F449C0552009F06CC014BC59
:1046100015BC84B5826084BD85B5816085BD2A2FB7
:1046200030E0F901E55BFE4FE491F0E0EE0FFF1F93
:10463000E95CFE4F8591949190938906809388065A
:10464000215A3E4FF901849180938A064EC0109200
:1046500080001092810080918100886080938100A9
:10466000809181008160809381002A2F30E0F901E0
:10467000E55BFE4FE491F0E0EE0FFF1FE95CFE4FBB
:10468000859194919093900680938F06215A3E4F86
:10469000F90184918093910628C01092B000109285
:1046A000B1008091B00082608093B0008091B10031
:1046B00081608093B1002A2F30E0F901E55BFE4F65
:1046C000E491F0E0EE0FFF1FE95CFE4F85919491BD
:1046D0009093970680939606215A3E4FF901849154
:1046E0008093980602C057FC59C18A2F61E00E944E
:1046F000CE1D552021F0F2E05F1609F0BEC0310159
:104700008824992460E079E08DE390E0A40193018E
:104710000E944F2759016A01860175010894E1083A
:10472000F108010911092FEFE216F1040105110545
:1047300009F008F499C060E271EA87E090E0A40112
:1047400093010E944F2779018A010894E108F1083A
:104750000109110982E05816C1F49FEFE916F1042E
:104760000105110509F008F484C068E478EE81E0E1
:1047700090E0A40193010E944F2779018A010894D7
:10478000E108F1080109110983E0AFEFEA16F1042D
:104790000105110509F008F468C064E274EF80E0D7
:1047A00090E0A40193010E944F2779018A010894A7
:1047B000E108F10801091109552011F483E01DC039
:1047C000B2E05B1611F084E018C0EFEFEE16F104D2
:1047D0000105110509F008F4DFC062E17AE780E025
:1047E00090E0A40193010E944F2779018A01089467
:1047F000E108F1080109110985E0FFEFEF16F10466
:104800000105110591F188F169E07DE380E090E018
:10481000A40193010E944F2779018A010894E108BD
:10482000F10801091109552011F086E001C084E06A
:104830002FEFE216F10401051105B9F0B0F0C60141
:10484000B50120E034E040E050E00E944F277901BC
:104850008A010894E108F10801091109552011F0B5
:1048600087E008C085E003C081E0552019F485BDCC
:104870003AC082E08093B10036C05101CC24DD24DF
:1048800060E079E08DE390E0A60195010E944F275A
:1048900079018A010894E108F1080109110980E011
:1048A000E81680E0F80681E0080780E0180710F4B9
:1048B00091E010C064E274EF80E090E0A601950101
:1048C0000E944F2779018A010894E108F108010943
:1048D000110993E0A1E05A1631F480918100887F9C
:1048E000982B9093810089819A81AB81BC8100973C
:1048F000A105B10529F48FEF9FEFAFEFBFEF13C014
:10490000220C331CB10180E090E029813A814B8177
:104910005C810E940E2728EE33E040E050E00E94C8
:104920002D27C901DA01E1E05E16A1F0F2E05F1681
:1049300019F1552099F5E7BC80938406909385067C
:10494000A0938606B093870680916E008260809364
:104950006E0024C0F0928900E092880080938B065C
:1049600090938C06A0938D06B0938E0680916F0075
:10497000826080936F0012C0E092B3008093920631
:1049800090939306A0939406B0939506809170003F
:1049900082608093700002C084E06CCF0F900F9013
:1049A0000F900F90CF91DF911F910F91FF90EF909B
:1049B000DF90CF90BF90AF909F908F907F906F903F
:1049C0005F903F902F900895CF93DF930E94331D07
:1049D0000E94D40AC0EFDEE10E94AD082097E1F307
:1049E0000E94F01EF9CF5058BB27AA270ED075C1E0
:1049F00066D130F06BD120F031F49F3F11F41EF4FA
:104A00005BC10EF4E095E7FB51C1E92F77D180F34C
:104A1000BA17620773078407950718F071F49EF5BB
:104A20008FC10EF4E0950B2EBA2FA02D0B01B9010A
:104A300090010C01CA01A0011124FF27591B99F014
:104A4000593F50F4503E68F11A16F040A22F232F20
:104A5000342F4427585FF3CF469537952795A79570
:104A6000F0405395C9F77EF41F16BA0B620B730B17
:104A7000840BBAF09150A1F0FF0FBB1F661F771F88
:104A8000881FC2F70EC0BA0F621F731F841F48F43D
:104A9000879577956795B795F7959E3F08F0B3CFC3
:104AA0009395880F08F09927EE0F979587950895AD
:104AB000D9D008F481E008950CD00FC107D140F09F
:104AC000FED030F021F45F3F19F0F0C0511139C130
:104AD000F3C014D198F39923C9F35523B1F3951B6F
:104AE000550BBB27AA2762177307840738F09F5F0F
:104AF0005F4F220F331F441FAA1FA9F333D00E2E7E
:104B00003AF0E0E830D091505040E695001CCAF7EA
:104B100029D0FE2F27D0660F771F881FBB1F2617AF
:104B200037074807AB07B0E809F0BB0B802DBF0182
:104B3000FF2793585F4F2AF09E3F510568F0B6C09B
:104B400000C15F3FECF3983EDCF38695779567955F
:104B5000B795F7959F5FC9F7880F911D9695879533
:104B600097F90895E1E0660F771F881FBB1F621752
:104B700073078407BA0720F0621B730B840BBA0B10
:104B8000EE1F88F7E095089504D06894B111D9C05C
:104B90000895BCD088F09F5790F0B92F9927B7514E
:104BA000A0F0D1F0660F771F881F991F1AF0BA95F1
:104BB000C9F712C0B13081F0C3D0B1E00895C0C0D0
:104BC000672F782F8827B85F39F0B93FCCF38695E7
:104BD00077956795B395D9F73EF490958095709544
:104BE00061957F4F8F4F9F4F0895E89409C097FBC1
:104BF0003EF490958095709561957F4F8F4F9F4FB4
:104C00009923A9F0F92F96E9BB279395F6958795F7
:104C100077956795B795F111F8CFFAF4BB0F11F4BA
:104C200060FF1BC06F5F7F4F8F4F9F4F16C0882361
:104C300011F096E911C0772321F09EE8872F762F97
:104C400005C0662371F096E8862F70E060E02AF0D8
:104C50009A95660F771F881FDAF7880F96958795C4
:104C600097F90895990F0008550FAA0BE0E8FEEF99
:104C700016161706E807F907C0F012161306E40720
:104C8000F50798F0621B730B840B950B39F40A2619
:104C900061F0232B242B252B21F408950A2609F4F7
:104CA000A140A6958FEF811D811D089597F99F67FB
:104CB00080E870E060E008959FEF80EC08950024A4
:104CC0000A941616170618060906089500240A9471
:104CD00012161306140605060895092E0394000CF7
:104CE00011F4882352F0BB0F40F4BF2B11F460FF86
:104CF00004C06F5F7F4F8F4F9F4F089557FD9058AF
:104D0000440F551F59F05F3F71F04795880F97FB8F
:104D1000991F61F09F3F79F0879508951216130649
:104D20001406551FF2CF4695F1DF08C01616170678
:104D30001806991FF1CF86957105610508940895AD
:104D4000E894BB2766277727CB0197F908958ADF78
:104D500008F48FEF08950BD0C0CFB1DF28F0B6DF95
:104D600018F0952309F0A2CFA7CF1124EACFC6DF10
:104D7000A0F3959FD1F3950F50E0551F629FF0016E
:104D8000729FBB27F00DB11D639FAA27F00DB11DC7
:104D9000AA1F649F6627B00DA11D661F829F222750
:104DA000B00DA11D621F739FB00DA11D621F839FD7
:104DB000A00D611D221F749F3327A00D611D231FAD
:104DC000849F600D211D822F762F6A2F11249F57FB
:104DD00050408AF0E1F088234AF0EE0FFF1FBB1F1E
:104DE000661F771F881F91505040A9F79E3F5105BD
:104DF00070F05CCFA6CF5F3FECF3983EDCF3869576
:104E000077956795B795F795E7959F5FC1F7FE2B67
:104E1000880F911D9695879597F90895629FD00107
:104E2000739FF001829FE00DF11D649FE00DF11D65
:104E3000929FF00D839FF00D749FF00D659FF00D14
:104E40009927729FB00DE11DF91F639FB00DE11D01
:104E5000F91FBD01CF0111240895A1E21A2EAA1B4A
:104E6000BB1BFD010DC0AA1FBB1FEE1FFF1FA2171A
:104E7000B307E407F50720F0A21BB30BE40BF50B17
:104E8000661F771F881F991F1A9469F760957095A0
:104E9000809590959B01AC01BD01CF01089597FBD2
:104EA000092E05260ED057FD04D0D7DF0AD0001CEE
:104EB00038F450954095309521953F4F4F4F5F4FB7
:104EC0000895F6F790958095709561957F4F8F4F77
:104ED0009F4F0895EE0FFF1F0590F491E02D099468
:104EE000911106C0803219F089508550D0F708958D
:104EF0009927882708952F923F924F925F926F9241
:104F00007F928F929F92AF92BF92CF92DF92EF9259
:104F1000FF920F931F93CF93DF93CDB7DEB7CA1BDA
:104F2000DB0B0FB6F894DEBF0FBECDBF09942A8805
:104F3000398848885F846E847D848C849B84AA84AD
:104F4000B984C884DF80EE80FD800C811B81AA813A
:104F5000B981CE0FD11D0FB6F894DEBF0FBECDBF05
:104F6000ED01089511E0C2E9D1E004C0FE010E9404
:0E4F70006C272296C439D107C9F7F894FFCFF9
:104F7E002A44414E4745522A0025642E2564755316
:104F8E00680025642E302564755368004E4D4541EA
:104F9E0020666F726D617420636865636B20666155
:104FAE00696C65642E002C0024424D52444400244A
:104FBE00424E585244440024424E585354530045D6
:104FCE0072726F723A20243D00202A3D00446174B3
:104FDE00612077617320636F727275707465642ED1
:104FEE0000576169742E2E2E20004E6F476569673B
:104FFE006572004E6F204C696E6B200043686563CE
:10500E006B20424700534146454341535400576578
:10501E006C636F6D6521004E696E6A612020200001
:10502E00202020202020202000760053616665631A
:10503E006173742062476569676965204E696E6A9F
:10504E00612C2076657273696F6E2000496E6974EB
:10505E0020636869626920646F6E652E004A7573FD
:10506E007420736574206164647265737320746F49
:10507E00203078004A7573742073657420636861FC
:10508E006E6E656C20746F2000090008000F0041E1
:10509E0041FFFFFFFFFFFFFFFF010058983A00009E
:1050AE00312E312E3400FFFFFFFFFFFEFFFF000009
:1050BE000000AC0B4A0CC40BF00B0E0CE80B0000FE
:1050CE000000A312BC2000000000DA1ABC20000071
:1050DE00400014005400000000002620BC20BC1F1D
:0650EE00ED1FCD1F16208E
:00000001FF
