:100000000C94C8030C94F23A0C94233B0C94543B8C
:100010000C94F3030C9488330C9489290C9428399C
:100020000C94F3030C94F3030C94F3030C94F30378
:100030000C94F3030C94F3030C94F3030C94F30368
:100040000C94F3030C94F3030C94853B0C94F3038E
:100050000C947F3D0C94153E0C94F3030C94F30325
:100060000C94F3030C94F3030C94F3030C94F30338
:100070000C94B83D0C94623E0C94F3030C94F3037F
:100080000C94F3030C94F3030C94F3032063686162
:1000900072616374657273206C6F6E670053796E62
:1000A000746861783A207365746964203C69643EC1
:1000B000202020202069642069732000202D2066E4
:1000C00061696C7572652E00202D20737563636500
:1000D00073732E004465766963652069643A200075
:1000E0006F6666006F6E00202053686F772074681B
:1000F00069732068656C703A202020202020202021
:1001000068656C7000202044697361626C65206CC6
:100110006F6720746F2073657269616C3A20766531
:1001200072626F7365206F6666002020456E6162A3
:100130006C65206C6F6720746F2073657269616CE9
:100140003A2020766572626F7365206F6E00202002
:10015000476574206465766963652069643A202088
:1001600020202020202020676574696400206368B7
:100170006172616374657273206C6F6E670020201A
:10018000536574206E6577206465766963652069C0
:10019000643A20202020207365746964203C6964DF
:1001A0003E20202020696420697320004C6973740C
:1001B000206F6620636F6D6D616E64733A004465F5
:1001C000766963652069643A20002D2D2D204469ED
:1001D00061676E6F7374696320454E44202D2D2D29
:1001E00000436F6F7264696E617465207472756E1E
:1001F000636174696F6E20656E61626C65642C6EFC
:100200006F00475053203150505320656E61626C2F
:1002100065642C6E6F00436F6D6D616E64206C6958
:100220006E6520696E7465726661636520656E61D6
:10023000626C65642C79657300506F776572206D10
:10024000616E6167656D656E7420656E61626C6577
:10025000642C7965730053797374656D20667265DB
:10026000652052414D2C0048562073656E73652001
:10027000656E61626C65642C6E6F006D5600426144
:10028000747465727920766F6C746167652C0048B0
:10029000756D69646974792C0054656D706572615F
:1002A000747572652C006E6F00796573005344207D
:1002B00072656164657220696E697469616C697ADE
:1002C00065642C0053442072656164657220656E1C
:1002D00061626C65642C79657300526164696F209A
:1002E0006368616E6E656C2C00526164696F206199
:1002F0006464726573732C006E6F007965730052CD
:100300006164696F20696E697469616C697A65649A
:100310002C00526164696F20656E61626C65642CAB
:10032000796573004465766963652049442C0056FD
:10033000657273696F6E2C002D2D2D2044696167E5
:100340006E6F73746963205354415254202D2D2DC8
:10035000002320436F6F7264696E6174652074724C
:10036000756E636174696F6E20656E61626C656441
:100370002C6E6F00475053203150505320656E61F2
:10038000626C65642C6E6F00232048562073656E86
:10039000736520656E61626C65642C6E6F0023204E
:1003A000436F6D6D616E64206C696E6520696E745B
:1003B00065726661636520656E61626C65642C7947
:1003C0006573002320506F776572206D616E6167E1
:1003D000656D656E7420656E61626C65642C79650F
:1003E0007300232053442072656164657220656E3A
:1003F00061626C65642C79657300232052616469C5
:100400006F20656E61626C65642C796573002320D2
:1004100053797374656D20667265652052414D2C69
:1004200025644200232056657273696F6E2C002389
:100430002057656C636F6D6520746F20536166652E
:100440006361737420624765696769653320537916
:100450007374656D002425732C25732C323025733D
:100460002D25732D25735425733A25733A25735A18
:100470002C25732C25732C25732C25732C76257332
:100480002C25642C25642C25642C2C25642C2564B7
:100490002C2564002425732C25732C323025732DD4
:1004A00025732D25735425733A25733A25735A2CD9
:1004B000256C642C256C642C256C642C25632C2500
:1004C000732C25732C25732C25732C25732C2573E5
:1004D0002C25732C25732C25730074696D656F753D
:1004E00074006D73004750532073746172742074EC
:1004F000696D652C0056657273696F6E2D002A2A2E
:100500002A2057656C636F6D6520746F20624765A4
:1005100069676965202A2A2A007C3C3E5E2B3D3FA4
:100520002F5B5D3B2C2A225C0042554646455220FB
:1005300046554C4C2E20544F5353494E4720494E5C
:10054000434F4D494E4720444154410A00434849D6
:1005500042493A20436F6D6D616E64206E6F742066
:100560007265636F676E697A65642E002A2A2A2A8B
:100570002A2A2A2A2A2A2A2A2A2A2A204348494277
:1005800049202A2A2A2A2A2A2A2A2A2A2A2A2A2AB6
:100590002A2A2A2A2A004348494249203E3E20006E
:1005A000524144494F204E4F5420494E49544941ED
:1005B0004C495A45442050524F5045524C590A001C
:1005C000434D443A20436F6D6D616E64206E6F74CD
:1005D000207265636F676E697A65642E002A2A2A25
:1005E0002A2A2A2A2A2A2A2A2A2A2A2A20434D441F
:1005F000202A2A2A2A2A2A2A2A2A2A2A2A2A2A2A65
:100600002A2A2A2A00434D44203E3E20006E6F00D5
:10061000796573004750532073797374656D207347
:100620007461727475702C006E6F00796573004789
:1006300050532074797065204D544B2C0024504D3C
:10064000544B3130312A33320024504D544B303129
:10065000302C3030312A32450024504D544B30314B
:10066000312C4D544B4750532A3038006E6F00796F
:100670006573005344207265616420777269746504
:100680002C006E6F0053442074657374203A20630D
:10069000616E27742072656D6F7665207465737462
:1006A0002066696C6500796573005344206F70653E
:1006B0006E2066696C652C0054686973206973202C
:1006C00061206247656967696520746573740042DB
:1006D000475F544553542E545854006E6F0079654B
:1006E0007300534420696E697469616C697A65644A
:1006F0002C00796573006E6F00534420696E73653A
:10070000727465642C0000002100240027002A0078
:1007100000002200250028002B00000020002300FC
:10072000260029000202020202020202040404045A
:10073000040404040303030303030303010101018D
:100740000101010101020408102040800102040897
:10075000102040800102040810204080010204089B
:100760001020408000000001020008090000000085
:100770000403070600000000000000000000000065
:1007800000000000DF08771404359B37D43FFD34A8
:1007900011241FBECFEFD0E4DEBFCDBF12E0A0E03A
:1007A000B1E0EEE5F9E800E00BBF02C007900D9262
:1007B000AA37B107D9F71BBE1AE0AAE7B2E001C019
:1007C0001D92AA3DB107E1F717E0CEE8D7E004C0DB
:1007D0002297FE010E946744C438D107C9F70E94DE
:1007E000FF410C94A2440C940000CF93DF93BC0112
:1007F0008230910510F462E070E0A091D80AB091C7
:10080000D90AED01E0E0F0E040E050E021C088814D
:1008100099818617970769F48A819B81309719F02F
:100820009383828304C09093D90A8093D80AFE01EF
:1008300034C06817790738F44115510519F0841749
:10084000950708F4AC01FE018A819B819C01E901B6
:100850002097E9F641155105A9F1CA01861B970BAE
:10086000049708F4BA01E0E0F0E02AC08D919C9171
:10087000119784179507F9F46417750781F4129698
:100880008D919C911397309719F09383828304C0C4
:100890009093D90A8093D80AFD0132964CC0CA01C0
:1008A000861B970BFD01E80FF91F61937193029767
:1008B0008D939C9340C0FD01828193819C01D9015D
:1008C0001097A1F68091D60A9091D70A892B41F40E
:1008D00080912C0290912D029093D70A8093D60A92
:1008E00040912E0250912F024115510541F44DB710
:1008F0005EB780912A0290912B02481B590B2091E0
:10090000D60A3091D70ACA01821B930B8617970724
:1009100080F0AB014E5F5F4F8417950750F0420F98
:10092000531F5093D70A4093D60AF90161937193EC
:1009300002C0E0E0F0E0CF01DF91CF910895CF93C6
:10094000DF93009709F450C0EC0122971B821A82B2
:10095000A091D80AB091D90A109709F140E050E06F
:10096000AC17BD0708F1BB83AA83FE012191319129
:10097000E20FF31FAE17BF0779F48D919C91119789
:10098000280F391F2E5F3F4F3983288312968D9190
:100990009C9113979B838A834115510571F4D093E1
:1009A000D90AC093D80A20C012968D919C911397B2
:1009B000AD01009711F0DC01D3CFFA01D383C283DC
:1009C00021913191E20FF31FCE17DF0769F488817F
:1009D0009981280F391F2E5F3F4FFA013183208301
:1009E0008A819B8193838283DF91CF910895FB015C
:1009F000DC0105900D920020E1F70895FB01DC0178
:100A00004150504030F08D910590801919F400202C
:100A1000B9F7881B990B08954AE752E00E949405A4
:100A20000895FB01DC0104C08D910190801921F42F
:100A300041505040C8F7881B990B0895FB01DC0119
:100A40000D900020E9F7119701900D920020E1F739
:100A50000895FC018191861721F08823D9F7992701
:100A600008953197CF010895FB01DC018D9101902C
:100A700080190110D9F3990B0895FB01DC01019055
:100A80000D920020E1F70895FB01DC010D9000209C
:100A9000E9F711974150504028F0019000200D9245
:100AA000C9F708951C920895FB01DC0141505040A4
:100AB00030F08D910190801919F40020B9F7881B4E
:100AC000990B0895FB01DC014150504048F0019022
:100AD0000D920020C9F701C01D9241505040E0F72F
:100AE0000895FC016150704001900110D8F7809585
:100AF00090958E0F9F1F0895FC01A081B181AD01DB
:100B0000109681F03D91FB01019003160110E1F771
:100B1000C9F7002011F4D00102C01E921196FC0109
:100B2000A083B183CA010895009731F4DA018D9151
:100B30009C91009709F40EC0DC01FB013D912191CD
:100B4000222319F03217C9F3FACF332331F4DA0133
:100B50001D921C928827992708951197AF93BF93F0
:100B6000FB013D912191321771F4332321F4882741
:100B70009927119702C01E921196FA01A193B08392
:100B80009F918F910895222369F7EACFA0E0B0E00A
:100B9000ECECF5E00C9475447C01EB018A016901F1
:100BA00009C0CE012196F6010995F70181937F01D5
:100BB0000150104001151105A1F7CDB7DEB7E8E0EF
:100BC0000C949144A0E0B0E0E8EEF5E00C9475449C
:100BD000EC017B018A01690109C0CE012196F70170
:100BE00061917F01F6010995015010400115110531
:100BF000A1F7CDB7DEB7E8E00C949144AEE0B0E0E9
:100C0000E4E0F6E00C9479440D891E8986E08C833B
:100C10001A8309838FEF9FE79E838D839E01275E52
:100C20003F4FCE0101966F89788DA9010E9446063B
:100C30002F813885020F131FF80110822E96E4E0F1
:100C40000C949544AEE0B0E0E8E2F6E00C94794410
:100C50000D891E898EE08C831A8309838FEF9FE7AD
:100C60009E838D839E01275E3F4FCE0101966F8943
:100C7000788DA9010E9446062F813885020F131F27
:100C8000F80110822E96E4E00C949544ABE0B0E0BD
:100C9000ECE4F6E00C946B443C012B015A01FC019E
:100CA00017821682838181FD03C06FEF7FEFC6C17B
:100CB0009AE0892E1E010894211C311CF301238126
:100CC000F20123FD859123FF81912F01882309F4EF
:100CD000B2C1853239F423FD859123FF81912F0123
:100CE000853229F490E0B3010E942E08E7CF982FB7
:100CF000FF24EE249924FFE1FF15D0F09B3269F028
:100D00009C3228F4903259F0933291F40EC09D3207
:100D100049F0903369F441E024C052E0F52A84E0C0
:100D2000F82A28C098E0F92A25C0E0E1FE2A22C06E
:100D3000F7FC29C0892F80538A3070F4F6FE05C075
:100D4000989C902C1124980E15C0E89CE02C11243E
:100D5000E80EF0E2FF2A0EC09E3229F4F6FC6BC1C9
:100D600040E4F42A07C09C3619F450E8F52A02C082
:100D7000983649F4F20123FD959123FF91912F01BB
:100D8000992309F0B8CF892F8554833018F0805209
:100D9000833038F444E050E0A40EB51E5FE359837D
:100DA0000FC0933631F0933779F0933509F056C080
:100DB00020C0F5018081898342E050E0A40EB51E79
:100DC000610101E010E012C0F501C080D180F6FCA5
:100DD00003C06FEF7FEF02C0692D70E042E050E08A
:100DE000A40EB51EC6010E9471058C015FE7F522B5
:100DF00014C0F501C080D180F6FC03C06FEF7FEF17
:100E000002C0692D70E042E050E0A40EB51EC6019C
:100E10000E9423088C0150E8F52AF3FE07C01AC08F
:100E200080E290E0B3010E942E08EA948E2D90E0BB
:100E300008171907A8F30EC0F601F7FC8591F7FE15
:100E400081916F0190E0B3010E942E08E110EA94B5
:100E5000015010400115110579F7EAC0943611F0E0
:100E6000993669F5F7FE08C0F5012081318142818C
:100E7000538184E090E00AC0F501808191819C015A
:100E8000442737FD4095542F82E090E0A80EB91E0C
:100E90009FE6F92257FF09C050954095309521955E
:100EA0003F4F4F4F5F4FE0E8FE2ACA01B901A10151
:100EB0002AE030E00E945A08D82ED21840C0953758
:100EC00029F41F2D1F7E2AE030E01DC01F2D197F41
:100ED0009F3661F0903720F4983509F0ACC00FC010
:100EE000903739F0983709F0A6C004C028E030E008
:100EF0000AC0106114FD146020E130E004C014FD4C
:100F0000166020E132E017FF08C0F50160817181B1
:100F10008281938144E050E008C0F5018081918195
:100F2000BC0180E090E042E050E0A40EB51EA101BB
:100F30000E945A08D82ED2188FE7F82EF122F6FE1A
:100F40000BC05EEFF522D91438F4F4FE07C0F2FCB2
:100F500005C08FEEF82202C01D2D01C0192DF4FE30
:100F60000DC0FE01ED0DF11D8081803319F499EE65
:100F7000F92208C01F5FF2FE05C003C08F2D8678DE
:100F800009F01F5F0F2DF3FC14C0F0FE0FC01E15FB
:100F900010F09D2C0BC09D2C9E0C911A1E2D06C08E
:100FA00080E290E0B3010E942E081F5F1E15C0F37F
:100FB00004C01E1510F4E11A01C0EE2404FF0FC096
:100FC00080E390E0B3010E942E0802FF1DC001FDE6
:100FD00003C088E790E00EC088E590E00BC0802F4A
:100FE000867891F001FF02C08BE201C080E2F7FC3D
:100FF0008DE290E0B3010E942E0806C080E390E0ED
:10100000B3010E942E089A94D914C0F3DA94F10126
:10101000ED0DF11D808190E0B3010E942E08DD20CE
:10102000A9F706C080E290E0B3010E942E08EA947E
:10103000EE20C1F743CEF30166817781CB012B9679
:10104000E2E10C948744FC0105906150704001106E
:10105000D8F7809590958E0F9F1F08950F931F933B
:10106000CF93DF938C01EB018B8181FF1BC082FF4B
:101070000DC02E813F818C819D812817390764F432
:10108000E881F9810193F983E88306C0E885F98551
:10109000802F0995892B31F48E819F8101969F8342
:1010A0008E8302C00FEF1FEFC801DF91CF911F9118
:1010B0000F910895FA01AA27283051F1203181F1CA
:1010C000E8946F936E7F6E5F7F4F8F4F9F4FAF4F50
:1010D000B1E03ED0B4E03CD0670F781F891F9A1F63
:1010E000A11D680F791F8A1F911DA11D6A0F711D17
:1010F000811D911DA11D20D009F468943F912AE023
:10110000269F11243019305D3193DEF6CF0108950A
:10111000462F4770405D4193B3E00FD0C9F7F6CF3B
:10112000462F4F70405D4A3318F0495D31FD405203
:10113000419302D0A9F7EACFB4E0A6959795879599
:1011400077956795BA95C9F7009761057105089578
:101150009B01AC010A2E0694579547953795279524
:10116000BA95C9F7620F731F841F951FA01D0895BC
:101170008091C302883519F420E030E305C0992737
:1011800087FD9095382F22278091C402883559F029
:10119000992787FD9095C09744E0880F991F4A953D
:1011A000E1F7280F391F8091C502883531F0992762
:1011B00087FD9095C097280F391FC90108958EECBF
:1011C00092E061E070E028E833E140E050E00E9406
:1011D000C2310895CF92DF92EF92FF920F931F9347
:1011E000CF93DF936C01C0E0D0E07B0100E010E022
:1011F0000BC02C9AC801B7010E94E73B2C98C8018C
:10120000B7010E94E73B2196CC15DD0590F3DF91F5
:10121000CF911F910F91FF90EF90DF90CF900895A5
:10122000EF92FF920F931F93DF93CF93CDB7DEB76B
:10123000E2970FB6F894DEBF0FBECDBF8E010F5FF1
:101240001F4FC8016EEB71E00E94F70468E9E62EBB
:101250006AE0F62EC701B8010E94EC41C70163ECB9
:1012600072E00E94EC41C8016CEA71E00E94F70450
:10127000C701B8010E94EC41C8016EE771E00E940D
:10128000F704C701B8010E94E941C70163E070E0BB
:101290004AE050E00E94D641C8016DE671E00E942C
:1012A000F704C701B8010E94EC41C8016EE471E087
:1012B0000E94F704C701B8010E94EC41C8016AE22C
:1012C00071E00E94F704C701B8010E94EC41C80117
:1012D00065E071E00E94F704C701B8010E94EC418B
:1012E000C80167EE70E00E94F704C701B8010E94D0
:1012F000EC41E2960FB6F894DEBF0FBECDBFCF91A2
:10130000DF911F910F91FF90EF9008950E941009B7
:1013100008950F931F93DF93CF93CDB7DEB76E97EA
:101320000FB6F894DEBF0FBECDBFFB010297D9F414
:1013300002811381C80164EE70E042E050E00E9437
:10134000FE04892B21F481E08093CD0219C0C801ED
:1013500060EE70E043E050E00E94FE04892B19F437
:101360001092CD020DC08E010F5F1F4FC80160E0CB
:1013700071E00E94F70488E99AE0B8010E94EC410C
:101380006E960FB6F894DEBF0FBECDBFCF91DF9142
:101390001F910F910895CF92DF92EF92FF920F93DA
:1013A0001F93DF93CF93CDB7DEB7E4970FB6F894D2
:1013B000DEBF0FBECDBF8E010D5F1F4FC80168E3BA
:1013C00073E00E94F70488E99AE0B8010E94EC41BA
:1013D000C8016FE273E00E94F70488E99AE0B8015F
:1013E0000E94E94188E99AE06BE472E00E94EC41D6
:1013F000C80164E273E00E94F70488E99AE0B8014A
:101400000E94E94188E99AE063EC72E00E94EC41B5
:10141000C80162E173E00E94F70488E99AE0B8012C
:101420000E94EC41C8016FEF72E00E94F70488E966
:101430009AE0B8010E94E9418091CB02882321F013
:10144000C8016BEF72E003C0C80168EF72E00E9450
:10145000F70488E99AE0B8010E94EC4180E00E941C
:10146000682B8E010D5F1F4FC80169EE72E00E946C
:10147000F70488E99AE0B8010E94E9410E94B02B84
:10148000BC0188E99AE040E150E00E945B41C8015C
:101490006AED72E00E94F70488E99AE0B8010E94C0
:1014A000E9410E943729682F88E99AE04AE050E034
:1014B0000E94784181E00E94682B0E94C52E0E9404
:1014C0003A36C80164EC72E00E94F70488E99AE0B9
:1014D000B8010E94EC41C8016DEA72E00E94F70475
:1014E00088E99AE0B8010E94E9418091CC02882302
:1014F00021F0C80169EA72E003C0C80166EA72E03F
:101500000E94F70488E99AE0B8010E94EC418091BA
:10151000330760E00E941B3D64E670E080E090E0ED
:101520000E94E73B0E94F8330E94F8337B018C0154
:1015300073E0C72ED12CCC0EDD1EC60169E972E026
:101540000E94F70488E99AE0B6010E94E941C801C7
:10155000B7010E94DB429B01AC0188E99AE0B90126
:101560004AE050E00E94D64188E99AE063E40E9494
:10157000BC400E9423340E9423347B018C01C601AD
:101580006FE872E00E94F70488E99AE0B6010E94D1
:10159000E941C801B7010E94DB429B01AC0188E927
:1015A0009AE0B9014AE050E00E94D64188E99AE009
:1015B00065E20E94BC408091330761E00E941B3DC0
:1015C0000E949D340E949D347B018C01C6016EE710
:1015D00072E00E94F70488E99AE0B6010E94E941AE
:1015E000C801B70120E030E04AE754E40E949A4382
:1015F0000E94DB429B01AC0188E99AE0B9014AE014
:1016000050E00E94D641C6016BE772E00E94F704E9
:1016100088E99AE0B6010E94EC41C60167E672E0F3
:101620000E94F70488E99AE0B6010E94EC41C601E5
:1016300066E572E00E94F70488E99AE0B6010E942C
:10164000E9412091D60A3091D70ACE0101962115A1
:10165000310519F48A5D9A4002C0821B930B9A836C
:10166000898369817A8188E99AE04AE050E00E94A2
:10167000D64188E99AE062E40E94BC408E010D5F89
:101680001F4FC80169E372E00E94F70488E99AE0FD
:10169000B8010E94EC41C80166E172E00E94F704C3
:1016A00088E99AE0B8010E94EC41C80162E072E06A
:1016B0000E94F70488E99AE0B8010E94EC41C80151
:1016C00061EE71E00E94F70488E99AE0B8010E9497
:1016D000EC41C8016AEC71E00E94F70488E99AE0E5
:1016E000B8010E94EC41E4960FB6F894DEBF0FBE3D
:1016F000CDBFCF91DF911F910F91FF90EF90DF90C1
:10170000CF900895EF92FF920F931F93DF93CF93A3
:10171000CDB7DEB7E4970FB6F894DEBF0FBECDBFEE
:101720007C018E010D5F1F4FC8016FE274E00E94C3
:10173000F704C701B8010E940B35C80164E274E0E8
:101740000E94F704C8016BE472E00E941E05C70105
:10175000B8010E940B352091D60A3091D70ACE01EC
:1017600001962115310519F48A5D9A4002C0821B49
:10177000930B9A83898300D000D000D0EDB7FEB7D9
:1017800031968E010D5F1F4FADB7BEB712961C93F9
:101790000E9311978EE094E09383828389819A81DE
:1017A000958384830E9422068DB79EB706960FB656
:1017B000F8949EBF0FBE8DBFC701B8010E940B35C4
:1017C000C8016AEF73E00E94F704C701B8010E94E4
:1017D0000B35C80162EE73E00E94F704C701B8013F
:1017E0000E940B35C80163EC73E00E94F704C70147
:1017F000B8010E940B35C8016EE973E00E94F7043E
:10180000C701B8010E940B35C80168E873E00E9467
:10181000F704C701B8010E940B35C80164E773E003
:101820000E94F704C701B8010E940B35C80161E5A9
:1018300073E00E94F704C701B8010E940B35E496DB
:101840000FB6F894DEBF0FBECDBFCF91DF911F91D1
:101850000F91FF90EF9008950E949D3420E030E0BA
:101860004AE754E40E949A430E94DB42645E7C4053
:1018700044F488E99AE06AE171E00E94EC410E9438
:101880003E3208951F9383E090E064E670E00E948A
:10189000EA0883E061E00E941B3D80913D0761E022
:1018A0000E941B3D86E060E00E941B3D85E060E0F9
:1018B0000E941B3D87E060E00E941B3D1FB7F8942B
:1018C0008CE060E00E941B3D6AE070E080E090E008
:1018D0000E94E73B8CE061E00E941B3D1FBF81E05E
:1018E0000E94682B8BE161E00E941B3D80913307D1
:1018F00061E00E941B3D2C988CE060E00E941B3D43
:101900008CE060E00E94B73C85E060E00E941B3DF7
:1019100085E060E00E94B73C87E060E00E941B3DEC
:1019200087E060E00E94B73C88E99AE06EE371E0EE
:101930000E94EC4164E170E080E090E00E94E73BAF
:101940001F91089583E090E064E670E00E94EA0849
:101950008CE061E00E94B73C8CE061E00E941B3D9E
:1019600085E061E00E94B73C87E061E00E94B73CFF
:1019700004C087EB9AE00E945D3F87EB9AE00E94EB
:101980002C3F892BB1F783E060E00E941B3D8091E2
:101990003D0760E00E941B3D64E170E080E090E064
:1019A0000E94E73B8EE090E064E170E04CE050E0A4
:1019B0000E94FC368091330760E00E941B3D0E942C
:1019C000943A8093CC021092C8021092C7021092EF
:1019D000CA021092C902ECE7F2E011921192119240
:1019E000119282E0EC3AF807C1F71092AC02109223
:1019F000AD021092AE021092AF021092B00210929D
:101A0000B1021092B2021092B3021092B50210927B
:101A1000B40286E5809330021092CD028BE160E043
:101A20000E941B3D62E370E080E090E00E94E73B93
:101A30008EEC92E00E94153288E99AE06CE571E044
:101A40000E94EC410895BF92CF92DF92EF92FF92F5
:101A50000F931F93CF93DF93F894F3ECEF2EF2E004
:101A6000FF2EC4E6D0E0E8E5BE2E6E0180E995E0E9
:101A7000BE010E94E627F701808301E010E00FC05D
:101A80006AE070E080E090E00E94E73B80E995E04A
:101A9000B6010E94E627F70180830F5F1F4FF70111
:101AA000808180538A3020F00330110549F714C03B
:101AB00021960894E11CF11CC736D105B1F61092AD
:101AC000C6027894DF91CF911F910F91FF90EF9014
:101AD000DF90CF90BF900895F701B082E9CF0F93C8
:101AE0001F930E94230D08E91AE0C80160E771E026
:101AF0000E94E941C80163EC72E00E94EC411F9131
:101B00000F910895CF92DF92EF92FF920F931F9360
:101B1000DF93CF93CDB7DEB7A8970FB6F894DEBFAB
:101B20000FBECDBF7B01029709F05CC0A2E0CA2EB8
:101B3000D12CC60ED71EDB0112964D915C911397E6
:101B400020E030E002C02F5F3F4FFA01E20FF31FA9
:101B500080818823C1F72330310509F043C000E0BC
:101B600010E0D601ED91FC91E00FF11F80E995E0C6
:101B70000C591F4FB80140810E94ED2703561040B9
:101B80000330110571F70E94230D8E010F5F1F4F67
:101B9000C80164ED70E00E94F70488E99AE0B8019A
:101BA0000E94E94188E99AE063EC72E00E94E94111
:101BB000F7016281738183EC92E043E050E00E9480
:101BC0005405009721F4C80168EC70E003C0C80117
:101BD0006CEB70E00E94F70488E99AE0BE016F5F49
:101BE0007F4F1DC08E010F5F1F4FC8016DE970E070
:101BF0000E94F70488E99AE0B8010E94E94188E967
:101C00009AE063E070E04AE050E00E94D641C801EB
:101C10006CE870E00E94F70488E99AE0B8010E943D
:101C2000EC41A8960FB6F894DEBF0FBECDBFCF91A2
:101C3000DF911F910F91FF90EF90DF90CF9008956B
:101C40002F923F924F925F926F927F928F929F92CC
:101C5000AF92BF92CF92DF92EF92FF920F931F93BA
:101C6000CF93DF937C018091330760E00E941B3D9E
:101C700064E670E080E090E00E94E73B0E947834E8
:101C80000E949D341B012C010E94F8335B016C0102
:101C90000E9423343B014C018091330761E00E9494
:101CA0001B3D0E94432E24E6D7011D922A95E9F799
:101CB000EDB7FEB7BA970FB6F894FEBF0FBEEDBFF3
:101CC0000DB71EB70F5F1F4FF282E18225E534E0AA
:101CD000D80113963C932E93129728E332E0159681
:101CE0003C932E93149723EC32E017963C932E935B
:101CF000169780569F4F19969C938E93189703972B
:101D00001B969C938E931A9703971D969C938E9384
:101D10001C9709961F969C938E931E970396519637
:101D20009C938E935097039653969C938E935297C1
:101D30008159904055969C938E9354970F96579641
:101D40009C938E935697029659969C938E93589790
:101D50000F965B969C938E935A978BE492E05D96D8
:101D60009C938E935C97C601B5010E94DB42F801FB
:101D7000778F668FC401B3010E94DB42D801919630
:101D80007C936E939097C201B10120E030E04AE766
:101D900054E40E949A430E94DB42F80173A362A3B9
:101DA000809143079091440795A384A380914107B4
:101DB0009091420797A386A3809147079091480787
:101DC00091A780A70E942206D7010D900020E9F775
:101DD0001197AE19BF090A2FE701CA0FD11D18824A
:101DE0002DB73EB7265D3F4F0FB6F8943EBF0FBEEE
:101DF0002DBFC70101966A2F70E00E94D02D282FB9
:101E0000803178F400D000D000D0EDB7FEB7319625
:101E1000ADB7BEB71296DC93CE9311978CE791E0E5
:101E20000EC000D000D000D0EDB7FEB73196ADB7F0
:101E3000BEB71296DC93CE93119781E891E093831D
:101E40008283248315820E94FE05EDB7FEB7369685
:101E50000FB6F894FEBF0FBEEDBF802FDF91CF917C
:101E60001F910F91FF90EF90DF90CF90BF90AF90B8
:101E70009F908F907F906F905F904F903F902F90AA
:101E800008956F927F928F929F92AF92BF92CF925E
:101E9000DF92EF92FF920F931F93CF93DF935C013A
:101EA000380149010E94432E24E6D5011D922A954E
:101EB000E9F7EDB7FEB7F4970FB6F894FEBF0FBE83
:101EC000EDBF3196ADB7BEB71296BC92AE921197E8
:101ED00024E934E03383228321E332E03583248311
:101EE00023EC32E03783268380569F4F918780878B
:101EF00003979387828703979587848709969787A7
:101F000086870396918B808B0396938B828B648A52
:101F1000758A868A978AC08ED18EE28EF38E209142
:101F2000B0023091B1024091B2025091B302248FBD
:101F3000358F468F578F20913002332727FD3095FC
:101F400031A320A38159904093A382A30F9695A318
:101F500084A3029697A386A30F9691A780A788963D
:101F600093A782A78A54904095A784A78E5B9F4F22
:101F700097A786A7039691AB80AB8754904093AB0D
:101F800082AB0E942206D5010D900020E9F711973F
:101F9000AA19BB091A2FE501CA0FD11D1882EDB786
:101FA000FEB7F4960FB6F894FEBF0FBEEDBFC501A5
:101FB00001966A2F70E00E94D02D282F803178F48E
:101FC00000D000D000D0EDB7FEB73196ADB7BEB7A8
:101FD0001296DC93CE9311978CE791E00EC000D05F
:101FE00000D000D0EDB7FEB73196ADB7BEB71296B0
:101FF000DC93CE93119781E891E0938382832483CD
:1020000015820E94FE05EDB7FEB736960FB6F8941E
:10201000FEBF0FBEEDBF812FDF91CF911F910F91BA
:10202000FF90EF90DF90CF90BF90AF909F908F90F8
:102030007F906F900895AF92BF92CF92DF92EF9210
:10204000FF920F931F930E942C0C0E943A338091B1
:10205000CC02882311F00E94633A0E944332892BFC
:1020600009F47FC10E948337882309F47AC10E9452
:10207000BC2D0E9401318EEC92E00E94DD31892B53
:1020800009F464C10E94C62D892B09F45FC18EEC4E
:1020900092E00E94CA315C01CC24DD248EEC92E0F7
:1020A0000E9415326091AC027091AD028091AE0237
:1020B0009091AF02FB01EE0FFF1FEE0FFF1FE458E0
:1020C000FD4FA082B182C282D3826F5F7F4F8F4F5C
:1020D0009F4F2CE030E040E050E00E942F4460939E
:1020E000AC027093AD028093AE029093AF02ECE726
:1020F000F2E0EE24FF24870181919191A191B191A9
:10210000E80EF91E0A1F1B1F82E0EC3AF807A1F740
:102110008091B0029091B102A091B202B091B3024D
:102120008A0D9B1DAC1DBD1D8093B0029093B10222
:10213000A093B202B093B3022091B4023091B502E1
:102140002C30310554F486E5809330022F5F3F4FE9
:102150003093B5022093B4020AC0E114F1040105E2
:10216000110511F486E501C081E48093300280916D
:10217000C7029091C802892B09F044C00E94432EE7
:10218000FC018689813461F00E94432E80569F4F66
:1021900065E871E042E050E00E945405009791F13B
:1021A00081E090E09093C8028093C70286EB92E0B2
:1021B00063EC72E00E943D0586EB92E068E871E016
:1021C0000E941E050E94432EBC01645B7F4F86EB7C
:1021D00092E042E050E00E9444050E94432EBC0180
:1021E000665B7F4F86EB92E042E050E00E94440540
:1021F0008EEB92E06FE372E00E943D0586EB92E089
:102200000E94820BE091AC02F091AD02EE0FFF1F35
:10221000EE0FFF1FE458FD4F4081518162817381B1
:102220008AED92E098018701760165010E94410FD5
:102230008091C7029091C802892B79F410924807C7
:10224000109247078091CD02882399F088E99AE09F
:102250006AE871E00E94E9410CC08EEB92E06FE306
:1022600072E00E943D0586EB92E06AED72E00E940A
:102270000B358091CB02882399F080E00E94682B77
:102280006AE070E080E090E00E94E73B8FEF9FEF14
:102290006AED72E044E60E94542B81E00E94682BB4
:1022A0008091470790914807019779F40E94432E47
:1022B000FC018689813419F481E090E002C082E05B
:1022C00090E064E670E00E94EA088091CD028823E5
:1022D00031F088E99AE06AED72E00E94EC418AED03
:1022E00092E00E94200E8091C7029091C802892B33
:1022F00061F08EEB92E06FE372E00E943D0586EBA9
:1023000092E06AED72E00E940B358091CB02882347
:1023100099F080E00E94682B6AE070E080E090E035
:102320000E94E73B8FEF9FEF6AED72E044E60E9468
:10233000542B81E00E94682B8091CD02882331F0DC
:1023400088E99AE06AED72E00E94EC410E949437BD
:102350001F910F91FF90EF90DF90CF90BF90AF90C3
:1023600008958EEC92E00E941532F0CFEF92FF922A
:102370000F931F93DF93CF93CDB7DEB76E970FB652
:10238000F894DEBF0FBECDBF84E061E00E94B73C91
:102390002C9888E99AE040E051EE60E070E00E94FD
:1023A000AF3E8E010F5F1F4FC8016EEF74E00E94B9
:1023B000F70488E99AE0B8010E94EC41C80165EF92
:1023C00074E00E94F70488E99AE0B8010E94E941AC
:1023D00088E99AE06BE472E00E94EC4187EB9AE0B6
:1023E00040E855E260E070E00E94AF3E87EB9AE083
:1023F0006AED72E00E94CA2F83E061E00E94B73C60
:1024000083E060E00E941B3D00E010E087EB9AE073
:102410000E942C3F892B61F40436110549F06AE0D3
:1024200070E080E090E00E94E73B0F5F1F4FEECF2F
:102430007E010894E11CF11CC70165EE74E00E9466
:10244000F70488E99AE0B7010E94E94104361105D2
:10245000A4F4B80193E0660F771F9A95E1F7000F97
:10246000111F600F711F88E99AE04AE050E00E9456
:10247000D641C70162EE74E003C0C7016AED74E0A3
:102480000E94F70488E99AE0B7010E94EC4187EBCB
:102490009AE063E971E00E94EC4187EB9AE065EC19
:1024A00071E00E94EC418EE090E064E170E04CE06D
:1024B00050E00E94FC3683E190E06FE170E04EE175
:1024C00050E02DE130E00CE110E00E94C2340E94A7
:1024D000943A8093CC020E94230D0E94832C809317
:1024E000CB0284E10E948E2B0E94B8089093450293
:1024F000809344020E94702C81E00E94682B8BE143
:1025000061E00E94B73C8BE160E00E941B3D8EECD5
:1025100092E00E94153286ED91E066E879E00E9433
:10252000862C8BED91E062E87DE00E94862C81EEA6
:1025300091E06FE67DE00E94862C87EE91E069E8ED
:1025400079E00E94862C80E090E062EA7CE042E440
:102550005CE00E94D9331092C8021092C702109218
:10256000CA021092C902ECE7F2E0119211921192A4
:10257000119282E0EC3AF807C1F71092AC02109287
:10258000AD021092AE021092AF021092B002109201
:10259000B1021092B2021092B3021092B5021092E0
:1025A000B40286E5809330021092CD020E94CB09DE
:1025B00088E99AE06FEE71E00E94EC416AE070E019
:1025C00080E090E00E94E73B6E960FB6F894DEBF85
:1025D0000FBECDBFCF91DF911F910F91FF90EF9074
:1025E0000895FC011382128288EE93E0A0E0B0E02F
:1025F00084839583A683B78385E592E09183808366
:10260000128E118E14860895FC0185E592E0918367
:1026100080830895DF93CF930F92CDB7DEB7FC018F
:102620006983A081B18112962D913C911397BE01CF
:102630006F5F7F4F41E050E0F90109950F90CF9116
:10264000DF910895DC015996ED91FC915A973097EE
:1026500019F420E030E018C023893489458956896F
:1026600082859385A485B585281B390B4A0B5B0BA6
:102670002030B0E83B07B0E04B07B0E05B0720F04C
:102680002FEF3FE740E050E0C9010895DC01599683
:10269000ED91FC915A97309729F420E030E040E02A
:1026A00050E004C02389348945895689B901CA019B
:1026B0000895DC015996ED91FC915A97309711F4E9
:1026C00080E008958581811181E00895CF93DF93A3
:1026D000EC01898D9A8D009741F00E94521C898DE2
:1026E0009A8D0E949F041A8E198EDF91CF910895C2
:1026F000FC01818D928D009711F480E008950E9475
:10270000421B0895FC01818D928D009711F00E946B
:10271000081C0895DF93CF930F92CDB7DEB7FC016D
:10272000818D928D009749F0BE016F5F7F4F41E030
:1027300050E00E94451D019719F02FEF3FEF03C0B5
:102740008981282F30E0C9010F90CF91DF91089542
:10275000EF92FF920F931F93DF93CF930F92CDB71A
:10276000DEB77C01DC0159968D919C915A970097B8
:1027700019F400E010E01FC0BE016F5F7F4F41E021
:1027800050E00E94451D019719F00FEF1FEF13C095
:102790008981082F10E0D7015996ED91FC915A9745
:1027A0004285538564857585415050406040704036
:1027B000CF010E94421BC8010F90CF91DF911F9162
:1027C0000F91FF90EF900895CF93DF93EC01E98D87
:1027D000FA8D309761F013821282CF010E948A1F16
:1027E0009C01E98DFA8D82819381892B31F081E002
:1027F00090E09B838A8320E030E0C901DF91CF9194
:102800000895EF92FF920F931F93CF93DF93EC0104
:10281000F62EE72E8A011B821A8288EE93E0A0E052
:10282000B0E08C839D83AE83BF8385E592E099837E
:1028300088838DE190E00E94F5039A8F898F00973D
:1028400091F0DC018F2D9E2D9C01F9018DE101900D
:102850000D928150E1F7CE010C96B8014CE050E0AA
:102860000E946205188EDF91CF911F910F91FF900A
:10287000EF9008950F931F93CF93DF938C01FB018B
:10288000C081D181FC01EC0FFD1F80818F3209F4E2
:10289000219698012C0F3D1FA0E0B0E00BC0FA017B
:1028A000EA0FFB1F8083119621962F5F3F4FAC30BC
:1028B000B10531F0F90180818F3211F0882379F769
:1028C000A40FB51F1C92F801EC0FFD1F80818F3201
:1028D00009F42196FB01D183C083C00FD11F8881E9
:1028E000811181E0DF91CF911F910F910895109296
:1028F000430310924403109247031092490382E06D
:1029000090E0A0E0B0E080934A0390934B03A09343
:102910004C03B0934D031092610310926B0310921D
:102920006A0385E692E090936903809368031092AE
:102930006D0308952F923F924F925F926F927F9214
:102940008F929F92BF92CF92DF92EF92FF920F935E
:102950001F93DF93CF93CDB7DEB7C954D0400FB6E6
:10296000F894DEBF0FBECDBF1C017B012A013901E7
:102970001B8A1A8A85E692E0998B888B1D8A18AA91
:102980001FA69EA78DA71AAA1A8219828B0120E181
:10299000C22ED12CCC0EDD1E93E0892E912C8C0EF4
:1029A0009D1E03C0C80186016C01C101BE016F5F9D
:1029B0007F4FA4010E943A14B82E40E0882309F406
:1029C00041E0C801B4019301F2010995882339F46B
:1029D0000E151F0519F1C8010E94521C1FC0BB2013
:1029E000A9F0C601B801A40121E00E94B721B82EC8
:1029F0000E151F0519F0C8010E94521CBB2071F072
:102A00000E151F0579F6CE018D96CDCF0E151F053B
:102A100019F0C8010E94521C81E001C080E0C75B30
:102A2000DF4F0FB6F894DEBF0FBECDBFCF91DF9161
:102A30001F910F91FF90EF90DF90CF90BF909F90EC
:102A40008F907F906F905F904F903F902F90089560
:102A50009B01BC01665D7F4FC9014CEA57E120E054
:102A600030E00E949A1408952F923F924F925F9205
:102A70006F927F928F929F92AF92BF92CF92DF928E
:102A8000EF92FF920F931F93DF93CF93CDB7DEB7F3
:102A9000C754D0400FB6F894DEBF0FBECDBF582E3E
:102AA000492EFB013A01190184A595A5998B888BC4
:102AB00025E632E03F872E8786A58A8B87A58B8BFC
:102AC00080A991A9A2A9B3A98C8B9D8BAE8BBF8B3A
:102AD00084A995A9A6A9B7A9888F998FAA8FBB8F1A
:102AE00080AD91ADA2ADB3AD8C8F9D8FAE8FBF8FFA
:102AF00084AD88A3FD9681919191A191B19189A313
:102B00009AA3ABA3BCA381919191A191B1918DA303
:102B10009EA3AFA3B8A7808191819AA789A71EA67B
:102B20001DA63CA72BA718AA7A018E01025F1F4F92
:102B30003BE2A32EB12CAC0EBD1E4E010894811CAD
:102B4000911C35C0D7018C918F3221F40894E11C7F
:102B5000F11C2DC0422F4E194D3008F04CE0C42E10
:102B6000DD24C401B701A6010E946205F401EC0D49
:102B7000FD1D1082C5010E94521CC501B801A401AF
:102B800021E00E94B721882351F4E52DF42D138212
:102B9000128285E692E091838083158266C0EC0CF8
:102BA000FD1CC8010E94521CC50158018C01C701BF
:102BB0006FE270E00E9429059C01009719F6E61863
:102BC000F708F101F182E082E52DF42DD80112968B
:102BD0008D919C9113979383828385E692E09183F4
:102BE000808314968C911497848315968C911597F5
:102BF000858316962D913D914D915C911997268371
:102C00003783408751871A962D913D914D915C9164
:102C10001D9722873387448755871E962D913D91B6
:102C20004D915C91519726873787408B518B5296F7
:102C30008C915297828B53962D913D914D915C9141
:102C40005697238B348B458B568B57962D913D9100
:102C50004D915C915A97278B308F418F528F5B96A5
:102C60008D919C915C97948F838F852D942DC95B5A
:102C7000DF4F0FB6F894DEBF0FBECDBFCF91DF910F
:102C80001F910F91FF90EF90DF90CF90BF90AF908A
:102C90009F908F907F906F905F904F903F902F907C
:102CA00008959F92AF92BF92CF92DF92EF92FF92E0
:102CB0000F931F93DF93CF93CDB7DEB7C657D040A6
:102CC0000FB6F894DEBF0FBECDBFC82E992E8A0175
:102CD000D22E43E0A42EB12CAC0EBD1EC501A8011E
:102CE0009E012F5F3F4F0E943415E980FA80E00E6D
:102CF000F11EF701808145E652E02885882309F01E
:102D00003FC08D819E819BA38AA359A348A38F8135
:102D10008CA32DA389859A85AB85BC858EA39FA3A3
:102D2000A8A7B9A78D859E85AF85B8898AA79BA7D7
:102D3000ACA7BDA789899A89AB89BC898EA79FA7B3
:102D4000A8ABB9AB8D898AAB8E899F89A88DB98DC7
:102D50008BAB9CABADABBEAB8A8D9B8DAC8DBD8D73
:102D60008FAB98AFA9AFBAAF8E8D9F8D9CAF8BAF55
:102D70008C2D992DBE01605E7F4F4DEF51E09FC0BD
:102D8000FE01FF96118210825EAF4DAFFE01EE5B39
:102D9000FF4F10822223A9F02250CE01CD9622307F
:102DA00048F468E673E0A7012D2D0E94B72188231F
:102DB00081F407C0B501A7012D2D0E94B7218823FA
:102DC00029F48C2D992D0E94F1127BC0C5010E941F
:102DD000521CF6E0DF2259F0FE01E05BFF4F40811C
:102DE000518162817381CE01CD960E94421B9E016A
:102DF000265A3F4FFE01FF9680819181F90193830E
:102E0000828385E692E091838083FE01EF5BFF4F32
:102E10008081F9018483FE01EE5BFF4F8081F9011F
:102E20008583FE01ED5BFF4F80819181A281B3819B
:102E3000F90186839783A087B187FE01E95BFF4F85
:102E400080819181A281B381F90182879387A487D0
:102E5000B587FE01E55BFF4F80819181A281B3813F
:102E6000F90186879787A08BB18BFE01E15BFF4F4D
:102E70008081F901828BFE01E05BFF4F80819181AF
:102E8000A281B381F901838B948BA58BB68BFE0154
:102E9000EC5AFF4F80819181A281B381F901878B28
:102EA000908FA18FB28FFE01E85AFF4F80819181F0
:102EB000F901948F838F8C2D992DB901A7010E9460
:102EC00001148C2D992DCA58DF4F0FB6F894DEBF30
:102ED0000FBECDBFCF91DF911F910F91FF90EF906B
:102EE000DF90CF90BF90AF909F9008950F931F9366
:102EF000CF93DF93EC01162F8FA5882331F0CE01FD
:102F00008A960E94521C882311F1CE0161E0412F64
:102F10000E942E1A8823D1F08E01045F1F4FC80132
:102F2000BE0141E00E948523882339F4C801BE0117
:102F300040E00E948523882349F0CE018A96B8019B
:102F40000E94A41E882319F081E001C080E0DF9177
:102F5000CF911F910F910895442311F481E00895BA
:102F60000E94BE220895FC01673020F086E185832F
:102F700080E00895262F30E060FD02C0663019F42D
:102F80008DB58E7F02C08DB581608DBD8CB58C7F77
:102F90008CBD4CB522FD02C090E001C092E0369598
:102FA0002795822F8170842B892B8CBD81E0089519
:102FB000FF920F931F93CF93DF938B010E94D93B16
:102FC000EB01FF24FA94FEBC0DB407FEFDCF8EB5D5
:102FD0008F3F11F481E008C00E94D93B6C1B7D0B30
:102FE0006017710780F380E0DF91CF911F910F91FF
:102FF000FF900895FC01848160E00E941B3D0895CC
:10300000FC01848161E00E941B3D0895DC016EBDDE
:10301000FA0120E030E00DB407FEFDCF80818EBDC7
:103020000DB407FEFDCF81818EBD2E5F3F4F3296DE
:1030300082E02030380779F70DB407FEFDCF8FEF1F
:103040008EBD0DB407FEFDCF8FEF8EBD0DB407FE14
:10305000FDCF8FEF8EBD0DB407FEFDCF8EB51A9656
:103060008C931A978F71853011F481E0089581E176
:1030700015968C931597CD010E94001880E0089555
:10308000FF920F931F93CF93DF93EC010E94D93BE4
:103090008B01FF24FA9409C00E94D93B601B710B7D
:1030A0006D52714010F08FE00DC0FEBC0DB407FEF4
:1030B000FDCF8EB58A878F3F79F38E3F11F481E083
:1030C00006C08DE08D83CE010E94001880E0DF9164
:1030D000CF911F910F91FF900895CF93DF93EC0153
:1030E0008E818823D1F08FEF8EBD2F8138854FEFF1
:1030F00004C00DB407FEFDCF4EBD2F5F3F4FC90189
:10310000019781509240A8F338872F830DB407FEB2
:10311000FDCFCE010E9400181E82DF91CF9108954D
:10312000DF92EF92FF920F931F93CF93DF93EC0107
:10313000D62E79018A010E946D18CE010E94FA17DD
:10314000CE016CE271E00E94D8178D2D80648EBD97
:103150000DB407FEFDCF28E130E0D801C701022EF3
:1031600004C0B695A795979587950A94D2F78EBD1A
:103170000DB407FEFDCF285030408FEF283F3807B1
:1031800061F7DD2011F485E906C088E0D81611F456
:1031900087E801C08FEF8EBD0DB407FEFDCF90E034
:1031A0002FEF2EBD0DB407FEFDCF8EB587FF02C0F9
:1031B0009150B9F78A87DF91CF911F910F91FF90BE
:1031C000EF90DF900895CF92DF92EF92FF920F93EE
:1031D0001F93CF93DF93EC017A018B0169014115B5
:1031E00051056105710511F482E137C08B8583308B
:1031F00039F029E0EE0CFF1C001F111F2A95D1F7B2
:10320000CE0168E1A80197010E949018882311F06F
:1032100084E023C0CE016EEFA6010E940618882329
:10322000E9F0CE0168E572E00E94D817882311F416
:1032300085E113C0CE016DE020E030E040E050E0D9
:103240000E949018882341F48FEF8EBD0DB407FEC5
:10325000FDCF8EB5882379F084E18D83CE010E9465
:10326000001880E0DF91CF911F910F91FF90EF90B8
:10327000DF90CF900895CE010E94001881E0F2CF38
:103280000F931F93CF93DF93EC01142F052F20E0B2
:1032900030E040E050E00E949018882319F08EE062
:1032A0008D8326C0CE010E944018882309F1812F0A
:1032B000902FFC019FEF9F01205F3F4F9EBD0DB4FB
:1032C00007FEFDCF8EB58193E217F307B9F78FEFB5
:1032D0008EBD0DB407FEFDCF8EB58FEF8EBD0DB444
:1032E00007FEFDCF8EB5CE010E94001881E004C01C
:1032F000CE010E94001880E0DF91CF911F910F91C5
:1033000008958F929F92AF92BF92CF92DF92EF92E9
:10331000FF920F931F93CF93DF93EC015A016B0140
:1033200049010115110509F47BC0C801820F931FE3
:103330008150924008F06FC08E81882371F088819F
:103340009981AA81BB81481759076A077B0729F42D
:103350008F8198858816990618F5A882B982CA8245
:10336000DB828B85833039F069E0AA0CBB1CCC1C56
:10337000DD1C6A95D1F7CE0161E1A60195010E949D
:103380009018882319F083E08D8345C0CE010E94F8
:103390004018882309F43FC018861F8281E08E837D
:1033A0008FEF8EBD8F8198852FEF05C00DB407FE7E
:1033B000FDCF2EBD019688159905C0F398878F83A0
:1033C000D801119720E030E09FEF0BC00DB407FE4D
:1033D000FDCF8EB5F701E20FF31F80839EBD2F5FF7
:1033E0003F4F2A173B0790F30DB407FEFDCF8EB574
:1033F000AE0DBF1D8C932F813885200F311F38876C
:103400002F838985882319F02050324048F0CE015F
:103410000E946D1805C0CE010E94001880E001C016
:1034200081E0DF91CF911F910F91FF90EF90DF909E
:10343000CF90BF90AF909F908F900895EF92FF92A2
:103440000F931F93790120E030E000E012E00E942A
:1034500081191F910F91FF90EF900895BF92CF9225
:10346000DF92EF92FF920F931F93CF93DF93EC01C4
:10347000B62E1B8619861E821D824C830E94D93B64
:103480006B018C8161E00E94B73CCE010E94001864
:1034900086E060E00E94B73C85E061E00E94B73CB6
:1034A00087E061E00E94B73C84E061E00E94B73CA5
:1034B00084E061E00E941B3D83E58CBD8DB58E7F6D
:1034C0008DBD80E09FEF9EBD0DB407FEFDCF8F5FE9
:1034D0008A30C9F7CE010E94FA1709C00E94D93B71
:1034E0006C197D09615D774010F081E05EC0CE010E
:1034F00060E020E030E040E050E00E949018182F9B
:103500008A87813059F7CE0168E02AEA31E040E04D
:1035100050E00E94901882FF02C01B8711C080E01B
:103520002FEF2EBD0DB407FEFDCF9EB58F5F84300B
:10353000C1F79A879A3A11F082E037C082E08B8710
:103540008B85823021F0EE24FF2487010FC0E12C0F
:10355000F12C012DF0E41F2F09C00E94D93B6C19FA
:103560007D09615D774010F088E01FC0CE0167E300
:1035700020E030E040E050E00E949018CE0169E287
:10358000A80197010E9490188A87882331F78B85BC
:10359000823031F5CE016AE320E030E040E050E0D7
:1035A0000E949018882339F086E08D83CE010E9416
:1035B000001880E01CC08FEF8EBD0DB407FEFDCF5C
:1035C0008EB5807C803C11F483E08B8780E09FEF98
:1035D0009EBD0DB407FEFDCF2EB58F5F8330C1F7C2
:1035E000CE010E940018CE016B2D0E94B317DF910F
:1035F000CF911F910F91FF90EF90DF90CF90BF90F0
:103600000895CF93DF93EC01DB0180E090E020E2AE
:10361000FD01E80FF91F208301968B309105C1F75A
:1036200057E040E021C02E3219F089E195E007C053
:103630005A3019F15AE048E017C03217F1F0FC0196
:10364000019634913323C9F75417B8F02132A8F00A
:103650002F3798F4822F81568A3108F42052FD01C9
:10366000E40FF11D20834F5F29912223E1F690E0C2
:103670008C91803219F091E001C090E0892FDF91A8
:10368000CF9108956F927F928F929F92AF92BF9247
:10369000CF92DF92EF92FF920F931F93CF93DF931E
:1036A000EC017A018B012D81222309F480C08B89E2
:1036B0009C89AD89BE8984179507A607B70708F4CA
:1036C00076C085C0E114F1040105110549F41E829C
:1036D0001F82188619861A861B861C861D8665C061
:1036E0002A853B854C855D85EB8DFC8D858590E03D
:1036F0000996215030404040504039014A01082E7F
:1037000004C096948794779467940A94D2F72F5FB5
:103710003F4F4F4F5F4F0894E108F108010911092D
:103720005701680104C0D694C794B794A7948A95AA
:10373000D2F70894E11CF11C011D111DA614B70459
:10374000C804D90428F0211531054105510549F473
:103750008F89988DA98DBA8D8E839F83A887B9870D
:1037600016C0A618B708C808D90811C04E815F81D5
:10377000688579858B8D9C8D94010E9466250894BF
:10378000A108B108C108D108882331F410C086E02F
:10379000882E912C8C0E9D1EA114B104C104D1045D
:1037A00029F7EA86FB860C871D8781E001C080E04F
:1037B000DF91CF911F910F91FF90EF90DF90CF900D
:1037C000BF90AF909F908F907F906F900895223020
:1037D00009F078CFE6CFCF93DF93EC01462F6E85CB
:1037E0007F85888999890E944A23882319F420E0DB
:1037F00030E00AC08A89282F30E095E0220F331F7D
:103800009A95E1F727573C4FC901DF91CF91089571
:103810000F931F93CF93DF938C01FC018581882345
:10382000D9F1848187FF35C0C80161E00E94EB1B9C
:10383000EC01009789F1F8018581823040F4838999
:103840009489A589B6898C8F9D8FAE8FBF8FF80123
:103850008789908D9B8F8A8F8789908DA18DB28D5E
:10386000CD01AA27BB279D8B8C8BE0918703F0911C
:103870008803309751F0BE016A5E7F4FCE014896B3
:103880000995888D998D9B8B8A8BF80184818F7720
:1038900084830E94EB2201C080E0DF91CF911F91D1
:1038A0000F910895CF93DF93EC010E94081C8823A9
:1038B00011F01D8281E0DF91CF9108956F927F9288
:1038C0008F929F92AF92BF92CF92DF92EF92FF9230
:1038D0000F931F93DF93CF9300D000D0CDB7DEB707
:1038E0007C015A016B01DC0115968C911597813092
:1038F00009F08FC014968C9181FF8BC09EC00097F9
:10390000A105B10511F481E085C0F70162847384DB
:1039100084849584C701B601A5010E94421B8823B7
:1039200009F477C0D7015B968D919C915C97A114A7
:10393000B104C104D10489F457964D915D916D9104
:103940007C915A970E94D925882309F462C0F70117
:10395000178A108E118E128E3DC0D70116964D918A
:103960005D916D917C9119979E012F5F3F4F0E9451
:103970006625882309F44DC0D7015B96ED91FC9133
:103980005C9749815A816B817C818789803129F0DC
:1039900088EF9FEFAFEFBFE004C088EF9FEFA0E09C
:1039A000B0E0481759076A077B07A0F4CF010E94CF
:1039B000D925882371F1F70146815781608571858A
:1039C000838D948D0FEF1FEF2FEF3FE00E94CA24ED
:1039D0008823F9F0D7015396AD92BD92CD92DC9237
:1039E000569714968C911497806814968C93C701FF
:1039F0000E94081C882369F0B601A5016A147B04A3
:103A00008C049D0410F4B401A301C7010E94421B61
:103A100001C080E00F900F900F900F90CF91DF9139
:103A20001F910F91FF90EF90DF90CF90BF90AF90DC
:103A30009F908F907F906F900895F701838994896C
:103A4000A589B68984179507A607B70708F057CF49
:103A5000E0CFCF93DF93EC0140E050E060E070E016
:103A60000E945E1C882369F0CE0161E00E94EB1B7E
:103A7000FC01009731F085EE80831D820E94EB22CD
:103A800001C080E0DF91CF9108952F923F924F9235
:103A90005F926F927F928F929F92AF92BF92CF92DE
:103AA000DF92EF92FF920F931F93CF93DF93EC017E
:103AB0002A018D81882309F4C6C08C8180FFC3C090
:103AC000D8C025014E185F084B0176E0272E312C17
:103AD0002C0E3D1E3201B1C02A853B854C855D858B
:103AE0006FEFA62E61E0B62EA222B3228D8179015E
:103AF0008A0199E016950795F794E7949A95D1F77E
:103B0000EB8DFC8D823049F4428D538D648D758D23
:103B10004E0D5F1D601F711F3FC0D480DA94DE2000
:103B2000A114B104D9F4DD20C9F4211531054105F2
:103B3000510549F48F89988DA98DBA8D8E839F8305
:103B4000A887B9870BC04E815F8168857985CF01D1
:103B500091010E946625882309F475C0EB8DFC8DC8
:103B60004E815F8168857985425050406040704049
:103B7000058404C0440F551F661F771F0A94D2F7AF
:103B800086859785A089B189480F591F6A1F7B1FB9
:103B90004D0D511D611D711D80E092E08A199B0938
:103BA00063018615970508F46C018C8186FD06C0BB
:103BB00080E0C81682E0D80609F073C08091460202
:103BC00090914702A0914802B091490248175907C5
:103BD0006A077B0709F465C08091890590918A0581
:103BE0009501860174010E948119882361F18C0C72
:103BF0009D1C12C0950127573C4FA9014C0D5D1D1E
:103C0000D401F90102C081918D93E417F507D9F72A
:103C1000E21BF30B8E0E9F1E960140E050E08A855A
:103C20009B85AC85BD85820F931FA41FB51F8A8716
:103C30009B87AC87BD876C187D086114710409F0FF
:103C40004BCFA20102C04FEF5FEFCA01DF91CF91CE
:103C50001F910F91FF90EF90DF90CF90BF90AF90AA
:103C60009F908F907F906F905F904F903F902F909C
:103C70000895AB88BC88CD88DE88EA84FB840C85F7
:103C80001D859A0140E050E0D601C5018E199F09BB
:103C9000A00BB10B82179307A407B50708F411CF47
:103CA00013CFCB01BA0140E00E944A23882309F0D8
:103CB000A1CFC9CFCF92DF92EF92FF920F931F93C4
:103CC000DF93CF930F92CDB7DEB76C01FC018581F6
:103CD000823070F0E284F38404851585C601BE014C
:103CE0006F5F7F4F41E050E00E94451D019769F0F2
:103CF00020E030E0C9010F90CF91DF911F910F912B
:103D0000FF90EF90DF90CF900895F6018285938524
:103D1000A485B5854F96A11DB11D82879387A48781
:103D2000B587F5E016950795F794E794FA95D1F7DE
:103D30008E2D8F70282F30E0E5E0220F331FEA959B
:103D4000E1F727573C4FD6CF0F931F93CF93DF93C5
:103D5000EC018B018D81882309F041C0FB0187892B
:103D60008031B1F482E08D831F8A188E198E1A8EED
:103D7000808D918DA0E0B0E045E0880F991FAA1FCB
:103D8000BB1F4A95D1F78B8B9C8BAD8BBE8B15C01F
:103D9000803229F583E08D83FB01428D538D648D44
:103DA000758D4F8B588F698F7A8F9E012D5E3F4F97
:103DB000C8010E943226882391F01C8F0B8F81E06E
:103DC0008C831E821F82188619861A861B861C8683
:103DD0001D861E861F86188A198A1A8A01C080E0ED
:103DE000DF91CF911F910F9108951F93CF93DF9390
:103DF000EC01142FE62FF0E075E0EE0FFF1F7A952F
:103E0000E1F7E757FC4F8385817121F0842F82749D
:103E100009F054C06A8B8091460290914702A091AC
:103E20004802B09149028E879F87A88BB98B8489FD
:103E30009589A0E0B0E0BC0155274427828D938D81
:103E4000A0E0B0E0482B592B6A2B7B2B4F8B588F6F
:103E5000698F7A8F838590E088719070009751F414
:103E6000848D958DA68DB78D8B8B9C8BAD8BBE8BEA
:103E700081E00CC0409711F59E012D5E3F4F8B8D68
:103E80009C8D0E9432268823C9F084E08D83812F87
:103E90008F708C831E821F82188619861A861B8655
:103EA0001C861D8616FD02C081E009C0CE0140E0DF
:103EB00050E060E070E00E945E1C01C080E0DF9195
:103EC000CF911F910895CF93DF93EC019C012A5F5E
:103ED0003F4F8B8D9C8D41E050E060E070E00E9490
:103EE000A1268823A1F08F89988DA98DBA8D00977E
:103EF000A105B10559F48E819F81A885B9858F8B65
:103F0000988FA98FBA8F8C8180688C8381E0DF9134
:103F1000CF9108952F923F924F925F927F928F920E
:103F20009F92AF92BF92CF92DF92EF92FF920F9348
:103F30001F93DF93CF9300D000D000D0CDB7DEB772
:103F40006C01162F072F5E834D83DC0115968C9133
:103F50001597813009F070C114968C9181FF6CC166
:103F60008EC1F60143895489658976898285938556
:103F7000A485B58584179507A607B70731F0C60154
:103F80000E94421B882309F457C1812F902F9C0166
:103F900029012D803E8017C1D6015B96ED91FC91E1
:103FA0005C97DA01C90119E0B695A79597958795B1
:103FB0001A95D1F774807A9478227FEF872E71E07A
:103FC000972E82229322772009F04EC0811491040B
:103FD00009F04AC0D60116964D915D916D917C9184
:103FE0001997411551056105710581F457968D9119
:103FF0009D910D90BC91A02D0097A105B10549F1AF
:10400000F60186839783A087B1872EC0CF019E01DA
:104010002F5F3F4F0E946625882309F414C1298130
:104020003A814B815C81D6015B96ED91FC915C9766
:104030008789803129F088EF9FEFAFEFBFE004C0A0
:1040400088EF9FEFA0E0B0E0281739074A075B0729
:1040500030F0C6010E94631F882331F4EDC0F601E1
:10406000268337834087518780E092E08819990939
:1040700051018215930508F45C01D6015B96ED9120
:10408000FC915C971696ED90FD900D911C911997FF
:104090008EEF9FEFAFEFBFEFE80EF91E0A1F1B1F59
:1040A000058404C0EE0CFF1C001F111F0A94D2F7F8
:1040B00086859785A089B189E80EF91E0A1F1B1F06
:1040C000E70CF11C011D111D90E0A91692E0B90644
:1040D00051F58091460290914702A0914802B0911B
:1040E00049028E159F05A007B10761F48FEF9FEF7E
:1040F000AFEFBFEF8093460290934702A093480230
:10410000B09349028091890590918A05B801A70171
:1041100092010E94E318882309F48EC0A0E0B2E067
:104120004A0E5B1E3EC08114910409F5F6012285FA
:1041300033854485558583899489A589B68928174F
:1041400039074A075B0798F00E94EB22882309F49D
:1041500073C0E0924602F092470200934802109327
:10416000490280918B05816080938B0508C0C8014E
:10417000B70141E00E944A23882309F45DC09401FD
:1041800027573C4FA9014A0D5B1DD201F90102C01E
:104190008D918193E417F507D9F7E21BF30B4E0ECF
:1041A0005F1E2A183B08950140E050E0F601828529
:1041B0009385A485B585820F931FA41FB51F8287A1
:1041C0009387A487B587D6011A962D913D914D917D
:1041D0005C911D972114310409F0DECE53968D9128
:1041E0009D910D90BC91A02D82179307A407B50750
:1041F00048F4F601238B348B458B568B8481806881
:10420000848311C08091870390918803892B59F092
:104210008D819E81892B39F0D60114968C9114974B
:10422000806814968C93F601848183FF0EC0C601CA
:104230000E94081C882349F481E090E0D60113967F
:104240009C938E9312971E821D828D819E8126964D
:104250000FB6F894DEBF0FBECDBFCF91DF911F9197
:104260000F91FF90EF90DF90CF90BF90AF909F9015
:104270008F907F905F904F903F902F90089582FD98
:1042800070CE83CEDF93CF930F92CDB7DEB7698325
:10429000BE016F5F7F4F41E050E00E948A1F0F9088
:1042A000CF91DF910895DF92EF92FF920F931F93CA
:1042B000CF93DF93EC010E94631F882309F44EC063
:1042C000EB8DFC8DEE80FF80088519858EEF9FEFCA
:1042D000AFEFBFEFE80EF91E0A1F1B1F058404C0D5
:1042E000EE0CFF1C001F111F0A94D2F786859785DC
:1042F000A089B189E80EF91E0A1F1B1FD4800894FB
:10430000E108F108010911090BC0C801B7016D0DE1
:10431000711D811D911D0E9426238823F9F0DA94D6
:10432000DD2099F7EB8DFC8D20E032E040E050E09D
:10433000058404C0220F331F441F551F0A94D2F76F
:104340008B899C89AD89BE89820F931FA41FB51FDD
:104350008B8B9C8BAD8BBE8B81E001C080E0DF91AD
:10436000CF911F910F91FF90EF90DF9008956F9282
:104370007F928F929F92AF92BF92CF92DF92EF92F5
:10438000FF920F931F93DF93CF93CDB7DEB72B9799
:104390000FB6F894DEBF0FBECDBF5C016B01822E5D
:1043A000DC0115968C91882309F0D2C0CA018E01D8
:1043B0000F5F1F4FB8010E94011B882309F4C8C07A
:1043C000F601838D948DD5015C969C938E935B97BB
:1043D0001682178210861186D6011A961D921D929A
:1043E0001D921C921D979924380141C0C6010E945C
:1043F0005A1EFC01009709F4ABC085E0169507959D
:10440000F794E7948A95D1F71E2D1F708081882339
:1044100011F0853ED1F4992091F4D50152961C9368
:1044200052972091460230914702409148025091A4
:1044300049021E962D933D934D935C935197808135
:10444000882399F49924939421C0C301BF014BE0C0
:1044500050E00E941105009751F4882D807380333D
:1044600009F476C0C501612F6FC099249394F601B9
:10447000E284F3840485158583899489A589B689A6
:10448000E816F9060A071B0708F4B0CF882D8271D9
:10449000823109F05DC0992041F0C50161E00E94C0
:1044A000EB1B8C01009789F453C0D60115968C91B3
:1044B000823009F44DC0C6010E945321882309F4BB
:1044C00047C0F501128A09E813E080E2D8011D9285
:1044D0008A95E9F7D801FE0131968BE001900D92A3
:1044E0008150E1F7E0918703F0918803309739F02C
:1044F000B801625F7F4FC8014096099509C081E20B
:1045000098E2F801918B808B80E098E0978786870E
:10451000D80150968D919C91519753969C938E9370
:10452000529759969C938E9358971E968D919C9175
:104530001F9757969C938E9356970E94EB22882341
:1045400039F0C501F5016289482D0E94F51E01C0B0
:1045500080E02B960FB6F894DEBF0FBECDBFCF9193
:10456000DF911F910F91FF90EF90DF90CF90BF9060
:10457000AF909F908F907F906F9008950F931F93AF
:10458000DF93CF93CDB7DEB76D970FB6F894DEBF4C
:104590000FBECDBF9C01AB011C821B8285E692E061
:1045A0009A8389831E828E010F5F1F4FC801B90154
:1045B00022E00E94B721882319F0C8010E94291D1A
:1045C0006D960FB6F894DEBF0FBECDBFCF91DF91D1
:1045D0001F910F91089580918B05882399F1409147
:1045E00046025091470260914802709149028091C1
:1045F000890590918A0529E833E00E94E318882311
:1046000019F140918C0550918D0560918E05709146
:104610008F05411551056105710591F0809189055E
:1046200090918A0529E833E00E94E318882361F01D
:1046300010928C0510928D0510928E0510928F05A8
:1046400010928B0581E0089580E00895EF92FF922B
:104650000F931F937B018C010E94EB228823A9F00A
:10466000E9E8F3E0119285E0E938F807D9F7E0923C
:104670004602F0924702009348021093490280914B
:104680008B05816080938B0581E01F910F91FF90D6
:10469000EF900895DF92EF92FF920F931F937B01AB
:1046A0008C01D42E8091460290914702A09148023D
:1046B000B09149028E159F05A007B107C1F00E9475
:1046C000EB228823D9F08091890590918A05B80161
:1046D000A70129E833E00E941E1A882379F0E092AE
:1046E0004602F092470200934802109349028091DB
:1046F0008B058D2980938B0581E001C080E01F919F
:104700000F91FF90EF90DF9008958F929F92AF925C
:10471000BF92CF92DF92EF92FF920F931F93CF93AE
:10472000DF936C01142F70938A05609389054423ED
:1047300021F488249924540140C0453008F01CC15C
:1047400060E070E080E090E040E00E944A2388232F
:1047500009F412C1C12FD0E02197FE0174E0EE0FE1
:10476000FF1F7A95E1F7E757FC4FE254FE4F808137
:10477000EE5BF14090E08F779070892B09F0FCC0E0
:10478000E653FE4F80819181A281B38184369105E9
:10479000A105B10508F4F0C064E0CC0FDD1F6A95F7
:1047A000E1F7C15BDA4F88809980AA80BB808114D1
:1047B0009104A104B10409F4DFC0C501B40140E0D3
:1047C0000E944A23882309F4D7C0809194039091D2
:1047D00095038050924009F0CFC020919903222385
:1047E00009F4CAC08091970390919803892B09F42A
:1047F000C3C080919603882309F4BEC0F601228BC2
:10480000809196038483158661E070E007C04F5F56
:10481000F60145874150483008F0AEC0F6014585A5
:10482000848190E09B01042E02C0220F331F0A9462
:10483000E2F78217930759F720919F033091A00365
:104840002115310519F040E050E008C02091AD037A
:104850003091AE034091AF035091B003F601258330
:10486000368347835087E0909703F090980300E0E9
:1048700010E0E80CF91C0A1D1B1DE38AF48A058B65
:10488000168B80919A0390919B03918F808F6091FA
:10489000990370E080E090E00E94FD436E0D7F1D63
:1048A000801F911FF601628F738F848F958F2091E7
:1048B0009A0330919B0355E0220F331F5A95E1F77D
:1048C00021503E4F232F3327269540E050E0260FFE
:1048D000371F481F591F26873787408B518B809180
:1048E0009C0390919D03009719F0A0E0B0E008C0F0
:1048F0008091A9039091AA03A091AB03B091AC035E
:1049000085017401E21AF30A040B150BA801970143
:10491000280F391F4A1F5B1FF601058404C05695F6
:104920004795379527950A94D2F721873287438791
:104930005487253FFFE03F07F0E04F07F0E05F07B7
:1049400010F48CE006C0255F3F4F4040504028F4F3
:1049500080E1F601878B81E010C08091B5039091D2
:10496000B603A091B703B091B803F601828F938F7D
:10497000A48FB58F80E2EECF80E0DF91CF911F91C1
:104980000F91FF90EF90DF90CF90BF90AF909F90EE
:104990008F9008954F925F926F927F928F929F9225
:1049A000AF92BF92CF92DF92EF92FF920F931F933D
:1049B000CF93DF93EC016A017B012801390142307A
:1049C00051056105710508F46FC089859A85AB852D
:1049D000BC850196A11DB11D84179507A607B707D1
:1049E00008F462C02B893C894D895E898F898031AA
:1049F00029F499278F2D7E2D6D2D09C0C701B60191
:104A000017E096958795779567951A95D1F74B019D
:104A10005C01820E931EA41EB51E809146029091E9
:104A20004702A0914802B091490288169906AA0649
:104A3000BB0639F0C501B40140E00E944A23882337
:104A400099F18F89803149F4F601F070EE0FFF1F64
:104A5000E757FC4F518240820DC0F601EF77F070AE
:104A6000EE0FFF1FEE0FFF1FE757FC4F40825182F2
:104A70006282738280918B05816080938B058A8925
:104A8000823080F08D819E81AF81B885880E991E1D
:104A9000AA1EBB1E80928C0590928D05A0928E0559
:104AA000B0928F0581E001C080E0DF91CF911F912E
:104AB0000F91FF90EF90DF90CF90BF90AF909F90BD
:104AC0008F907F906F905F904F900895CF92DF927C
:104AD000EF92FF920F931F93CF93DF93EC017A0134
:104AE0008B01690189859A85AB85BC850196A11DDD
:104AF000B11D84179507A607B70708F450C02B8986
:104B00003C894D895E898F89803129F49927812FCD
:104B1000702F6F2D09C0C801B701E7E09695879502
:104B200077956795EA95D1F7260F371F481F591FCC
:104B30008091460290914702A0914802B0914902AB
:104B4000281739074A075B0739F0CA01B90140E065
:104B50000E944A23882319F18F89803159F4F70183
:104B6000F070EE0FFF1FE757FC4F80819181A0E0AE
:104B7000B0E00EC0F701EF77F070EE0FFF1FEE0F01
:104B8000FF1FE757FC4F80819181A281B381BF70E5
:104B9000F60180839183A283B38381E001C080E02A
:104BA000DF91CF911F910F91FF90EF90DF90CF9009
:104BB0000895AF92BF92CF92DF92EF92FF920F9340
:104BC0001F93DF93CF9300D000D0CDB7DEB76C0139
:104BD0007A018B0182E090E0A0E0B0E0F6018083F2
:104BE0009183A283B3835E010894A11CB11CC6010A
:104BF000B801A70195010E946625882319F1C60115
:104C0000B801A70100E010E020E030E00E94CA24D3
:104C10008823C1F0E980FA800B811C81F601878925
:104C2000803129F088EF9FEFAFEFBFE004C088EF3D
:104C30009FEFA0E0B0E0E816F9060A071B07B8F2FC
:104C400081E001C080E00F900F900F900F90CF9106
:104C5000DF911F910F91FF90EF90DF90CF90BF9069
:104C6000AF9008954F925F926F927F928F929F9232
:104C7000AF92BF92CF92DF92EF92FF920F931F936A
:104C8000DF93CF9300D000D0CDB7DEB76C0149835E
:104C90005A836B837C833901EE24FF2487012E0124
:104CA0000894411C511C812CA2E09A2EA12CB12CFD
:104CB00049815A816B817C81C60192010E946625DF
:104CC000882351F1D501C401F601058404C0880F81
:104CD000991FAA1FBB1F0A94D2F7E80EF91E0A1FDC
:104CE0001B1F29813A814B815C818789803129F0A2
:104CF00088EF9FEFAFEFBFE004C088EF9FEFA0E029
:104D0000B0E0281739074A075B0790F2F301E08209
:104D1000F1820283138381E00F900F900F900F9028
:104D2000CF91DF911F910F91FF90EF90DF90CF9087
:104D3000BF90AF909F908F907F906F905F904F90BB
:104D400008952F923F924F925F926F927F928F922F
:104D50009F92AF92BF92CF92DF92EF92FF920F930A
:104D60001F93DF93CF93CDB7DEB72F970FB6F8948D
:104D7000DEBF0FBECDBF1C014A875B876C877D8776
:104D80003F872E87D9010D911D912D913C910115E1
:104D900011052105310549F0480159010894811C8C
:104DA000911CA11CB11C198610C0FC01808091804F
:104DB000A280B38019868A859B85AC85BD850197C5
:104DC000A105B10511F491E09987D10119968D9152
:104DD0009D910D90BC91A02D0196A11DB11D8D83BB
:104DE0009E83AF83B8877501640144245524320142
:104DF0008E010F5F1F4FF10181859285A385B485D8
:104E0000481659066A067B0608F090C08D819E817F
:104E1000AF81B8858C159D05AE05BF0550F482E0C5
:104E2000882E912CA12CB12CB2E0CB2ED12CE12CD0
:104E3000F12CC101B701A60198010E9466258823C3
:104E400009F474C089819A81AB81BC81A701960164
:104E50002F5F3F4F4F4F5F4F0097A105B10519F0EE
:104E600049015A010DC0281939094A095B098A8587
:104E70009B85AC85BD85281739074A075B0759F024
:104E80000894411C511C611C711C0894C11CD11C4C
:104E9000E11CF11CB0CFC101A601B7010FEF1FEF5C
:104EA0002FEF3FE00E94CA24882399F43FC02601D7
:104EB000370108944108510861087108C101B30124
:104EC000A201970186010E94CA24882379F1730107
:104ED00062018C149D04AE04BF0448F3AE85BF8507
:104EE0004D915D916D917C91411551056105710563
:104EF00039F0C101950184010E94CA248823B1F0D0
:104F0000EE85FF8580829182A282B382F985FF239C
:104F100059F00894811C911CA11CB11CD1018D92E7
:104F20009D92AD92BC92139781E001C080E02F96D4
:104F30000FB6F894DEBF0FBECDBFCF91DF911F91AA
:104F40000F91FF90EF90DF90CF90BF90AF909F9028
:104F50008F907F906F905F904F903F902F9008952B
:104F6000882319F48CB5806202C08CB58F7D8CBD0E
:104F700008959CB5937F982B9CBD08952CB5382F30
:104F800033702C7F322B3CBD2DB590E095958795E5
:104F90009595879581702E7F822B8DBD089584E035
:104FA00061E00E941B3D84E061E00E94B73C8CB54B
:104FB00080618CBD8CB580648CBD87E061E00E940F
:104FC000B73C85E061E00E94B73C0895F999FECFB7
:104FD00072BD61BDF89A80B50895F999FECF1FBAE8
:104FE00072BD61BD40BD0FB6F894FA9AF99A0FBE32
:104FF00008952091120630E0F901EE56FA4F8083B1
:105000002F5F3F4F2F7730702093120680919105CC
:105010008F5F8093910508959C01F999FECF32BD71
:1050200021BDF89A80B508959C01F999FECF1FBA69
:1050300032BD21BD60BD0FB6F894FA9AF99A0FBE41
:105040000895DF93CF930F92CDB7DEB780689FB7F7
:105050009983F8945D988EBD0DB407FEFDCF8EB593
:105060008EBD0DB407FEFDCF8EB55D9A99819FBFB1
:105070000F90CF91DF910895DF93CF930F92CDB72B
:10508000DEB7482F20E030E0942F906C8FB78983F3
:10509000F8945D989EBD0DB407FEFDCF8EB5CB0193
:1050A000022E02C0969587950A94E2F78EBD0DB444
:1050B00007FEFDCF8EB55D9A89818FBF4F5F285F58
:1050C0003F4F2031310501F70F90CF91DF910895C7
:1050D000DF93CF930F92CDB7DEB7482F20E030E0BB
:1050E000FB01E20FF31FE081942F920F906C8FB7BA
:1050F0008983F8945D989EBD0DB407FEFDCF8EB5F3
:10510000EEBD0DB407FEFDCF8EB55D9A89818FBFD0
:105110002F5F3F4F2830310519F70F90CF91DF9166
:105120000895FF920F931F93DF93CF930F92CDB704
:10513000DEB7182FF62E042F0E942128982F106C0E
:105140008FB78983F8945D981EBD0DB407FEFDCF1F
:105150008EB5802F809589230F21802B8EBD0DB4B5
:1051600007FEFDCF8EB55D9A89818FBF0F90CF91DD
:10517000DF911F910F91FF900895DF93CF930F92CE
:10518000CDB7DEB7782F392FA22F862F90E0820F70
:10519000911D8038910554F58FB78983F8945D98F7
:1051A00080E68EBD0DB407FEFDCF8EB5872F932F01
:1051B0009C01F90107C080818EBD0DB407FEFDCFB3
:1051C00031968EB58E2F871B8617A8F3FA0107C07C
:1051D00080818EBD0DB407FEFDCF31968EB58E2F2A
:1051E000841B8A17A8F35D9A89818FBF0F90CF9196
:1051F000DF910895813051F0813028F0823049F0FC
:105200008330E1F411C08CE068E005C08CE06CE014
:1052100002C08CE06CE14FE30E94912886E162E0DD
:1052200043E00E94912808958CE060E04FE30E94E3
:10523000912886E163E043E00E949128089588E088
:105240000E9421288F71089584B1806A84B9559A8B
:105250002F9A5D9A2E9A2C9A8CB581618CBD8DB552
:1052600081608DBD8CB580648CBD5D9A08950E946F
:105270001F2908950F931F93082F129B02C084E4E7
:1052800045C081E00E942128182F1F71812F815174
:10529000823020F0113011F0123031F481E00E94A0
:1052A00021288F718117D1F3063179F0093151F03E
:1052B0000830B1F4129886E090E00E94403C82E011
:1052C00063E007C0163161F402C0193149F482E08D
:1052D00069E04FE10E94912881E090E00E94403C0B
:1052E00082E0602F4FE10E949128183011F081E098
:1052F00001C084EB90E00E94403C81E00E942128A4
:105300008F71801711F083E401C080E41F910F9129
:1053100008951F920F920FB60F920BB60F921124A1
:10532000AF92BF92CF92DF92EF92FF920F931F93B3
:105330002F933F934F935F936F937F938F939F939D
:10534000AF93BF93EF93FF93DF93CF93CDB7DEB7C8
:10535000E497DEBFCDBF8FB78983F894369BBCC07E
:105360005D988FE88EBD0DB407FEFDCF8EB51EBCD7
:105370000DB407FEFDCF0EB55D9A20E2E22E90E857
:10538000A92EB12C83E0C82ED12CCC0EDD1EA1C0DD
:1053900002FF02C00B7F9DC003FF7EC081E00E9420
:1053A00021288F71863029F0863119F0813109F07A
:1053B00069C087E00E9421288093260686E00E942B
:1053C0002128881F8827881F80932706882309F4AF
:1053D0005CC08FB78A83F8945D98EEBC0DB407FE6D
:1053E000FDCF8EB51EBC0DB407FEFDCFFEB48F2DD4
:1053F00083508D37B8F52F2D30E080919105A501B0
:10540000481B51092417350714F080E016C08F2D72
:105410000E94F92710E008C01EBC0DB407FEFDCFA6
:105420008EB50E94F9271F5F1F15B0F31BC01EBC6D
:105430000DB407FEFDCF9EB58F5F8F15C0F3809131
:1054400020069091210601969093210680932006D4
:10545000C60169E275E00E94F70488E99AE0B601A6
:105460000E94E9415D9A8A818FBF809118069091D0
:1054700019060196909319068093180681E080938F
:10548000160603C081E08093170686E10E943A2940
:105490008034D9F7077F1DC006FF0BC00F7B8091BA
:1054A000220690912306019690932306809322066C
:1054B00010C001FF02C00D7F0CC000FF02C00E7FB4
:1054C00008C007FF06C00F77809124068F5F809386
:1054D0002406002309F05CCF89818FBFE496DEBFEC
:1054E000CDBFCF91DF91FF91EF91BF91AF919F9190
:1054F0008F917F916F915F914F913F912F911F916C
:105500000F91FF90EF90DF90CF90BF90AF900F90F2
:105510000BBE0F900FBE0F901F901895FF920F9328
:105520001F93CF93DF93EC018B01F42E81E00E9457
:1055300021288F71823001F18231F1F089E10E94DE
:105540003A29CE016AE0A8012F2D0E94BD2881E0F2
:105550008093280682E062E04FE10E9491288091CA
:1055600017068823E1F31092170682E00E94212893
:1055700082958695877001C084E4DF91CF911F9159
:105580000F91FF9008957F928F929F92AF92BF925A
:10559000CF92DF92EF92FF920F931F93DF93CF93FF
:1055A000CDB7DEB72A970FB6F894DEBF0FBECDBFDA
:1055B0007C016B01042F48E9742E34E3832E32E121
:1055C000932E5E010894A11CB11C55C0102F053606
:1055D00008F014E68FEFE8168FEFF80611F481E477
:1055E00001C081E6155F19831B508A837B828091FD
:1055F00015068C838F5F809315069E828D82F886B8
:10560000EF8280911306909114069A878987C501CD
:10561000B601412F0E948E2A282F882359F1382F56
:105620008330F1F0843018F4813071F404C0853097
:1056300069F0803449F480911A0690911B06019616
:1056400090931B0680931A06322F19C080911C0676
:1056500090911D06019690931D0680931C060FC025
:1056600080911E0690911F06019690931F068093CD
:105670001E0605C0011B002309F0A8CF30E0832FD0
:105680002A960FB6F894DEBF0FBECDBFCF91DF9143
:105690001F910F91FF90EF90DF90CF90BF90AF9050
:1056A0009F908F907F9008950E94C32A0895882329
:1056B00029F088E00E943A290A98089512980A9AD7
:1056C00080E793E00E94403C86E10E943A290895D9
:1056D0000E94572B08951F93182F88E0612F4FE1E8
:1056E0000E94912881E00E9421288F71863011F05C
:1056F000893021F486E990E00E94403C88E00E94D5
:10570000212890E08F719070212F30E0821793074D
:1057100011F083E401C080E41F9108950E946B2B77
:1057200008959C01F999FECFCB01B9012CE038E234
:105730000E94C6050895DF93CF9300D0CDB7DEB7A2
:1057400089E090E0BE016F5F7F4F42E050E00E9431
:10575000912B89819A810F900F90CF91DF910895BD
:105760000E949B2B0895BC0180E090E048E050E04F
:105770000E94912B08950F931F93DF93CF93CDB782
:10578000DEB7EB970FB6F894DEBF0FBECDBF0E9419
:1057900024290A9A8FB78983F8945D988EEC8EBD80
:1057A0000DB407FEFDCF8EB51EBC0DB407FEFDCFB8
:1057B0008EB55D9A89818FBF82E063E04FE10E94E0
:1057C00091288EEF91E00E94403C81E00E94FA28EF
:1057D0008BE00E946B2B85E060E840E80E949128F6
:1057E00086E10E943A2982E264E372E10E943C2849
:1057F0000E949B2BBC0180E20E943C288E010E5F20
:105800001F4FC8010E94B32B84E2B8010E94682890
:105810008FE00E9421288FB78983F8945D988EECE1
:105820008EBD0DB407FEFDCF8EB588E08EBD0DB4E4
:1058300007FEFDCF8EB55D9A89818FBF80916D0087
:10584000806480936D00809168008460809368001C
:1058500081E00E9421288F71863111F481E00EC011
:105860008E01065F1F4FC80160EA75E00E94F704D1
:1058700088E99AE0B8010E94E94180E0EB960FB612
:10588000F894DEBF0FBECDBFCF91DF911F910F9176
:105890000895F999FECF24E138E20E94E2050895C7
:1058A000DF93CF9300D0CDB7DEB79A83898389E0A9
:1058B00090E0BE016F5F7F4F42E050E00E94492CB4
:1058C00069817A8180E20E943C2889819A81909343
:1058D0001406809313060F900F90CF91DF910895D7
:1058E0000E94502C089586E1E3E1F6E0DF011D926D
:1058F0008A95E9F70E949B2B9093140680931306D8
:105900000E94BB2B08950E94732C0895CF92DF92C2
:10591000EF92FF920F931F93F82EE92E6B0186E012
:1059200090E00E94F5038093290690932A06EF2DBC
:10593000FE2DDF010D900020E9F7CD018E1B9F0B9E
:105940000E94F5038C016F2D7E2D0E943D05AF2D29
:10595000BE2DFD0101900020E9F73197EA1BFB0BFA
:10596000E00FF11F1082E0912906F0912A061183C1
:105970000083D382C28280912B0690912C0695835E
:105980008483F0932C06E0932B061F910F91FF90D8
:10599000EF90DF90CF900895EF92FF920F931F93B7
:1059A000DF93CF93CDB7DEB7E2970FB6F894DEBFA3
:1059B0000FBECDBF88E9E82E8AE0F82EC7010E940D
:1059C0009C408E010F5F1F4FC8016DED75E00E9476
:1059D000F704C701B8010E94EC41C80165E076E018
:1059E0000E94F704C701B8010E94E941E2960FB690
:1059F000F894DEBF0FBECDBFCF91DF911F910F9105
:105A0000FF90EF900895CF92DF92EF92FF920F9365
:105A10001F93DF93CF93CDB7DEB7CE56D0400FB6EE
:105A2000F894DEBF0FBECDBF6FEF71E00E940C0592
:105A30009CAB8BAB95E3E92EF12CEC0EFD1E01E047
:105A400010E0D02EC12E80E090E06FEF71E00E9458
:105A50000C05D7018D939C930E31110541F00F5F1A
:105A60001F4FE2E0F0E0EE0EFF1E892B51F7009190
:105A7000290610912A06EBA8FCA817C0D8016D9141
:105A80007C91C7010E943405009761F4D8011296F9
:105A9000ED91FC9113978D2D9C2DBE016D5C7F4F78
:105AA000099513C0F801048115810115110531F71D
:105AB0008E010F5F1F4FC80160EC75E00E94F70474
:105AC00088E99AE0B8010E94EC410E94CC2CC259AE
:105AD000DF4F0FB6F894DEBF0FBECDBFCF91DF9181
