:100000000C94C7020C94892F0C94B62F0C941825CD
:100010000C94B42C0C94EF020C94EF020C94EF02AD
:100020000C94EF020C94EF020C94EF020C94EF028C
:100030000C94EF020C94142C0C94EF020C94EF022D
:100040000C94E32F0C94EF020C94EF310C943D329E
:100050000C94EF020C94EF020C94EF020C94EF025C
:100060000C94EF020C94EF0224504D544B3232307A
:100070002C313030302A31460024504D544B33312E
:10008000342C302C312C302C312C302C302C302C8A
:10009000302C302C302C302C302C302C302C302C80
:1000A000302C302C302C302A3238002D2D2D20448D
:1000B0006961676E6F7374696320454E44202D2D0E
:1000C0002D00506C7573536869656C642C79657389
:1000D00000436F6F7264696E617465207472756E2F
:1000E000636174696F6E20656E61626C65642C6E0D
:1000F0006F0053797374656D206672656520524197
:100100004D2C006D5600537570706C7920766F6CB5
:10011000746167652C006D56004261747465727974
:1001200020766F6C746167652C00566F6C74616724
:10013000652073656E73652C79657300446961672A
:100140006E6F737469632066696C652C79657300E2
:10015000796573004750532070726F6772616D6DDF
:10016000696E672C0047505320747970652C4D548C
:100170004B00526164696F206368616E6E656C2C20
:1001800000526164696F20616464726573732C004E
:100190006E6F0079657300526164696F20696E69E2
:1001A0007469616C697A65642C00526164696F20BE
:1001B000656E61626C65642C79657300446576696F
:1001C00063652049442C0056657273696F6E2C007C
:1001D000624765696769652D6D696E69205379733A
:1001E00074656D002D2D2D20446961676E6F7374E9
:1001F0006963205354415254202D2D2D002320504B
:100200006C7573536869656C642C79657300232081
:10021000436F6F7264696E617465207472756E638A
:100220006174696F6E20656E61626C65642C6E6FBF
:1002300000232053797374656D20667265652052C2
:10024000414D2C256442002320537570706C792039
:10025000766F6C746167652C25646D5600232042AF
:1002600061747465727920766F6C746167652C2592
:10027000646D56002320566F6C746167652073654A
:100280006E73652C796573002320446961676E6F16
:10029000737469632066696C652C7965730023202B
:1002A0004750532070726F6772616D6D696E672C75
:1002B000796573002320526164696F20656E616205
:1002C0006C65642C79657300232047505320747942
:1002D00070652C4D544B00232056657273696F6E08
:1002E0002C00232057656C636F6D6520746F20535D
:1002F0006166656361737420624765696769652D2E
:100300004D696E692053797374656D002425732CD3
:1003100025732C323025732D25732D2573542573A9
:100320003A25733A25735A2C25732C25732C257383
:100330002C25732C7625732C25642C25642C2564A0
:100340002C25642C2564002425732C25732C323035
:1003500025732D25732D25735425733A25733A255E
:10036000735A2C256C642C256C642C256C642C250C
:10037000632C25732C25732C25732C25732C257346
:100380002C25732C25732C2573007C3C3E5E2B3D65
:100390003F2F5B5D3B2C2A225C004255464645526E
:1003A0002046554C4C2E20544F5353494E4720491C
:1003B0004E434F4D494E4720444154410A00434863
:1003C0004942493A20436F6D6D616E64206E6F74CF
:1003D000207265636F676E697A65642E002A2A2A27
:1003E0002A2A2A2A2A2A2A2A2A2A2A2A2043484921
:1003F0004249202A2A2A2A2A2A2A2A2A2A2A2A2A30
:100400002A2A2A2A2A2A004348494249203E3E20D5
:1004100000524144494F204E4F5420494E495449BF
:10042000414C495A45442050524F5045524C590A6C
:10043000006E6F00796573004750532073797374B1
:10044000656D20737461727475702C006E6F007925
:100450006573004750532074797065204D544B2CC0
:100460000024504D544B3130312A33320024504D4A
:10047000544B3031302C3030312A32450024504D2D
:10048000544B3031312C4D544B4750532A303800A7
:100490006E6F007965730053442072656164207744
:1004A000726974652C006E6F005344207465737418
:1004B000203A2063616E27742072656D6F76652027
:1004C000746573742066696C6500796573005344C4
:1004D000206F70656E2066696C652C0054686973C6
:1004E00020697320612062476569676965207465CA
:1004F00073740042475F544553542E545854006E51
:100500006F0079657300534420696E697469616C8A
:10051000697A65642C00796573006E6F005344201E
:10052000696E7365727465642C000000000024001D
:1005300027002A0000000000250028002B000000F2
:100540000000230026002900040404040404040419
:10055000020202020202030303030303010204086E
:10056000102040800102040810200102040810201D
:100570000000000700020100000304060000000064
:100580000000000090100D2D5D2FA033062D1124CA
:100590001FBECFEFD8E0DEBFCDBF11E0A0E0B1E0DD
:1005A000EEE6FFE602C005900D92AC38B107D9F730
:1005B00016E0ACE8B1E001C01D92AB3EB107E1F737
:1005C00015E0CCE8D5E004C02297FE010E946F3709
:1005D000C438D107C9F70E9493350C94AA370C94FC
:1005E0000000CF93DF93BC018230910510F462E0EC
:1005F00070E0A091E906B091EA06ED01E0E0F0E0DC
:1006000040E050E021C0888199818617970769F4FE
:100610008A819B81309719F09383828304C09093E1
:10062000EA068093E906FE0134C06817790738F4BA
:100630004115510519F08417950708F4AC01FE0126
:100640008A819B819C01E9012097E9F641155105BA
:10065000A9F1CA01861B970B049708F4BA01E0E0E0
:10066000F0E02AC08D919C91119784179507F9F4B9
:100670006417750781F412968D919C9113973097AA
:1006800019F09383828304C09093EA068093E9066D
:10069000FD0132964CC0CA01861B970BFD01E80F85
:1006A000F91F6193719302978D939C9340C0FD0154
:1006B000828193819C01D9011097A1F68091E70670
:1006C0009091E806892B41F480913B0190913C0187
:1006D0009093E8068093E70640913D0150913E01DA
:1006E0004115510541F44DB75EB7809139019091A4
:1006F0003A01481B590B2091E7063091E806CA01E0
:10070000821B930B8617970780F0AB014E5F5F4FFC
:100710008417950750F0420F531F5093E8064093FB
:10072000E706F9016193719302C0E0E0F0E0CF01C8
:10073000DF91CF910895CF93DF93009709F450C0D4
:10074000EC0122971B821A82A091E906B091EA0679
:10075000109709F140E050E0AC17BD0708F1BB83EA
:10076000AA83FE0121913191E20FF31FAE17BF075B
:1007700079F48D919C911197280F391F2E5F3F4F6F
:100780003983288312968D919C9113979B838A833A
:100790004115510571F4D093EA06C093E90620C0D3
:1007A00012968D919C911397AD01009711F0DC0189
:1007B000D3CFFA01D383C28321913191E20FF31F8A
:1007C000CE17DF0769F488819981280F391F2E5FC2
:1007D0003F4FFA01318320838A819B8193838283F7
:1007E000DF91CF910895FB01DC0105900D9200206F
:1007F000E1F70895FB01DC0104C08D91019080199F
:1008000021F441505040C8F7881B990B0895FB0113
:10081000DC010D900020E9F7119701900D92002066
:10082000E1F70895FC018191861721F08823D9F71B
:10083000992708953197CF010895FB01DC018D912F
:10084000019080190110D9F3990B0895FB01DC0187
:1008500001900D920020E1F70895FB01DC010D905D
:100860000020E9F711974150504028F001900020F6
:100870000D92C9F708951C920895FB01DC014150C7
:10088000504030F08D910190801919F40020B9F793
:10089000881B990B0895FB01DC014150504048F042
:1008A00001900D920020C9F701C01D9241505040A7
:1008B000E0F70895FC016150704001900110D8F7F5
:1008C000809590958E0F9F1F0895FC01A081B181A6
:1008D000AD01109681F03D91FB01019003160110CE
:1008E000E1F7C9F7002011F4D00102C01E92119661
:1008F000FC01A083B183CA010895A0E0B0E0E3E861
:10090000F4E00C947D377C01EB018A01690109C098
:10091000CE012196F6010995F70181937F010150DF
:10092000104001151105A1F7CDB7DEB7E8E00C9432
:100930009937A0E0B0E0EFE9F4E00C947D37EC01EA
:100940007B018A01690109C0CE012196F7016191FD
:100950007F01F60109950150104001151105A1F71D
:10096000CDB7DEB7E8E00C949937AEE0B0E0EBEB42
:10097000F4E00C9481370D891E8986E08C831A83FC
:1009800009838FEF9FE79E838D839E01275E3F4FF4
:10099000CE0101966F89788DA9010E94FD042F81F7
:1009A0003885020F131FF80110822E96E4E00C9494
:1009B0009D37AEE0B0E0EFEDF4E00C9481370D89A7
:1009C0001E898EE08C831A8309838FEF9FE79E83B5
:1009D0008D839E01275E3F4FCE0101966F89788DF2
:1009E000A9010E94FD042F813885020F131FF80111
:1009F00010822E96E4E00C949D37ABE0B0E0E3E08B
:100A0000F5E00C9473373C012B015A01FC0117826D
:100A10001682838181FD03C06FEF7FEFC6C19AE02C
:100A2000892E1E010894211C311CF3012381F2013F
:100A300023FD859123FF81912F01882309F4B2C101
:100A4000853239F423FD859123FF81912F01853271
:100A500029F490E0B3010E94E506E7CF982FFF2428
:100A6000EE249924FFE1FF15D0F09B3269F09C320F
:100A700028F4903259F0933291F40EC09D3249F02F
:100A8000903369F441E024C052E0F52A84E0F82A6A
:100A900028C098E0F92A25C0E0E1FE2A22C0F7FC30
:100AA00029C0892F80538A3070F4F6FE05C0989CC7
:100AB000902C1124980E15C0E89CE02C1124E80E0F
:100AC000F0E2FF2A0EC09E3229F4F6FC6BC140E42E
:100AD000F42A07C09C3619F450E8F52A02C098366B
:100AE00049F4F20123FD959123FF91912F01992360
:100AF00009F0B8CF892F8554833018F080528330A5
:100B000038F444E050E0A40EB51E5FE359830FC0F3
:100B1000933631F0933779F0933509F056C020C001
:100B2000F5018081898342E050E0A40EB51E610189
:100B300001E010E012C0F501C080D180F6FC03C0D6
:100B40006FEF7FEF02C0692D70E042E050E0A40E2D
:100B5000B51EC6010E945A048C015FE7F52214C03D
:100B6000F501C080D180F6FC03C06FEF7FEF02C0BB
:100B7000692D70E042E050E0A40EB51EC6010E944F
:100B8000DA068C0150E8F52AF3FE07C01AC080E2AD
:100B900090E0B3010E94E506EA948E2D90E00817DC
:100BA0001907A8F30EC0F601F7FC8591F7FE8191B5
:100BB0006F0190E0B3010E94E506E110EA94015054
:100BC00010400115110579F7EAC0943611F09936F5
:100BD00069F5F7FE08C0F50120813181428153811A
:100BE00084E090E00AC0F501808191819C01442756
:100BF00037FD4095542F82E090E0A80EB91E9FE685
:100C0000F92257FF09C050954095309521953F4FE7
:100C10004F4F5F4FE0E8FE2ACA01B901A1012AE067
:100C200030E00E941107D82ED21840C0953729F421
:100C30001F2D1F7E2AE030E01DC01F2D197F9F361B
:100C400061F0903720F4983509F0ACC00FC09037B0
:100C500039F0983709F0A6C004C028E030E00AC097
:100C6000106114FD146020E130E004C014FD166032
:100C700020E132E017FF08C0F501608171818281B7
:100C8000938144E050E008C0F50180819181BC016E
:100C900080E090E042E050E0A40EB51EA1010E9469
:100CA0001107D82ED2188FE7F82EF122F6FE0BC0CE
:100CB0005EEFF522D91438F4F4FE07C0F2FC05C04B
:100CC0008FEEF82202C01D2D01C0192DF4FE0DC0BB
:100CD000FE01ED0DF11D8081803319F499EEF922AA
:100CE00008C01F5FF2FE05C003C08F2D867809F093
:100CF0001F5F0F2DF3FC14C0F0FE0FC01E1510F087
:100D00009D2C0BC09D2C9E0C911A1E2D06C080E2BE
:100D100090E0B3010E94E5061F5F1E15C0F304C0FA
:100D20001E1510F4E11A01C0EE2404FF0FC080E389
:100D300090E0B3010E94E50602FF1DC001FD03C063
:100D400088E790E00EC088E590E00BC0802F8678A1
:100D500091F001FF02C08BE201C080E2F7FC8DE25E
:100D600090E0B3010E94E50606C080E390E0B30185
:100D70000E94E5069A94D914C0F3DA94F101ED0DBE
:100D8000F11D808190E0B3010E94E506DD20A9F706
:100D900006C080E290E0B3010E94E506EA94EE20EE
:100DA000C1F743CEF30166817781CB012B96E2E157
:100DB0000C948F37FC010590615070400110D8F7FA
:100DC000809590958E0F9F1F08950F931F93CF933B
:100DD000DF938C01EB018B8181FF1BC082FF0DC073
:100DE0002E813F818C819D812817390764F4E88129
:100DF000F9810193F983E88306C0E885F985802F9E
:100E00000995892B31F48E819F8101969F838E8372
:100E100002C00FEF1FEFC801DF91CF911F910F911B
:100E20000895FA01AA27283051F1203181F1E89480
:100E30006F936E7F6E5F7F4F8F4F9F4FAF4FB1E0CD
:100E40003ED0B4E03CD0670F781F891F9A1FA11DC8
:100E5000680F791F8A1F911DA11D6A0F711D811DC9
:100E6000911DA11D20D009F468943F912AE0269F8E
:100E700011243019305D3193DEF6CF010895462FED
:100E80004770405D4193B3E00FD0C9F7F6CF462FCE
:100E90004F70405D4A3318F0495D31FD4052419337
:100EA00002D0A9F7EACFB4E0A695979587957795F4
:100EB0006795BA95C9F700976105710508959B017B
:100EC000AC010A2E06945795479537952795BA9504
:100ED000C9F7620F731F841F951FA01D089580918D
:100EE000D301883519F420E030E207C0992787FD47
:100EF0009095382F2227205030418091D401883599
:100F000059F0992787FD9095C09744E0880F991F65
:100F10004A95E1F7280F391F8091D501883531F0C6
:100F2000992787FD9095C097280F391FC90108950B
:100F30000F931F93DF93CF93CDB7DEB7E7970FB62D
:100F4000F894DEBF0FBECDBF00E010E085EC96E068
:100F50000E94F632892B69F483E10838180749F0BA
:100F60006AE070E080E090E00E944530065F1F4F2D
:100F7000EDCF8E010F5F1F4FC80169E770E00E943F
:100F8000F30385EC96E0B8010E948035C80168E65D
:100F900070E00E94F30385EC96E0B8010E94803572
:100FA000E7960FB6F894DEBF0FBECDBFCF91DF91AD
:100FB0001F910F9108950E94E630AA2797FDA095F2
:100FC000BA2FBC01CD010E943D362DEC3CEC4CE823
:100FD0005FE30E94C93620E030EC4FE754E40E9402
:100FE000A2352AE939E941E251E40E94C93608955F
:100FF000CF92DF92EF92FF920F931F93DF93CF93E5
:10100000CDB7DEB7E4970FB6F894DEBF0FBECDBF05
:101010008E010D5F1F4FC80164EE71E00E94F30363
:1010200085EC96E0B8010E948035C80160ED71E062
:101030000E94F30385EC96E0B8010E948035C80158
:1010400067EC71E00E94F30385EC96E0B8010E9422
:101050007D3585EC96E06BE571E00E948035C80136
:101060006CEB71E00E94F30385EC96E0B8010E94FE
:101070007D3585EC96E063ED71E00E9480350E943D
:10108000432EC8016AEA71E00E94F30385EC96E002
:10109000B8010E948035C80167E971E00E94F3033E
:1010A00085EC96E0B8010E947D358091D7018823B8
:1010B00021F0C80163E971E003C0C80160E971E093
:1010C0000E94F30385EC96E0B8010E94803580E031
:1010D0000E94F3268E010D5F1F4FC80161E871E089
:1010E0000E94F30385EC96E0B8010E947D350E94D2
:1010F0003B27BC0185EC96E040E150E00E94EF34D4
:10110000C80162E771E00E94F30385EC96E0B80144
:101110000E947D350E94C624682F85EC96E04AE047
:1011200050E00E940C3581E00E94F326C80165E67C
:1011300071E00E94F30385EC96E0B8010E948035CF
:101140000E941729C80164E571E00E94F30385EC51
:1011500096E0B8010E947D35C80160E571E00E940B
:10116000F30385EC96E0B8010E948035C8016CE37A
:1011700071E00E94F30385EC96E0B8010E9480358F
:10118000C8016AE271E00E94F30385EC96E0B801C1
:101190000E9480358EE090E00E94DB078EE090E0B8
:1011A0000E94DB076B017C01C80169E171E00E94CC
:1011B000F30385EC96E0B8010E947D35C701B601C6
:1011C00020E030E04AE754E40E94C9360E940A3623
:1011D0009B01AC0185EC96E0B9014AE050E00E9429
:1011E0006A35C80166E171E00E94F30385EC96E080
:1011F000B8010E9480358FE090E00E94DB078FE00D
:1012000090E00E94DB076B017C01C80166E071E0A1
:101210000E94F30385EC96E0B8010E947D35C7017A
:10122000B60120E030E04AE754E40E94C9360E944B
:101230000A369B01AC0185EC96E0B9014AE050E02A
:101240000E946A35C80163E071E00E94F30385ECF7
:1012500096E0B8010E948035C80162EF70E00E94FC
:10126000F30385EC96E0B8010E947D352091E706F6
:101270003091E806CE0101962115310519F48B5EF7
:10128000964002C0821B930B9A83898369817A817D
:1012900085EC96E04AE050E00E946A3585EC96E0E5
:1012A00062E40E9448348E010D5F1F4FC80161ED5A
:1012B00070E00E94F30385EC96E0B8010E9480354F
:1012C000C80162EC70E00E94F30385EC96E0B8017F
:1012D0000E948035C8016BEA70E00E94F30385EC40
:1012E00096E0B8010E948035E4960FB6F894DEBF10
:1012F0000FBECDBFCF91DF911F910F91FF90EF9067
:10130000DF90CF900895CF92DF92EF92FF920F93EC
:101310001F93DF93CF93CDB7DEB7E4970FB6F89462
:10132000DEBF0FBECDBF6C0184E090E066E070E0F0
:101330004AE050E00E94052F8E010D5F1F4FC8014B
:1013400062EE72E00E94F303C601B8010E94142D00
:10135000C80167ED72E00E94F303C8016BE571E01C
:101360000E940704C601B8010E94142DC80168EC50
:1013700072E00E94F303C601B8010E94142DC80157
:1013800064EB72E00E94F303C601B8010E94142DC1
:10139000C8016EE972E00E94F303C601B8010E9421
:1013A000142DC80168E872E00E94F303C601B80179
:1013B0000E94142DC80164E772E00E94F303C60185
:1013C000B8010E94142D8EE090E00E94DB078EE0B1
:1013D00090E00E94DB0700D000D000D0EDB6FEB652
:1013E0000894E11CF11CADB7BEB712961C930E9386
:1013F00011972DE532E0F7013383228320E030E0BE
:101400004AE754E40E94C9360E940A36D70115966D
:101410007C936E9314970E94D904EDB7FEB736966D
:101420000FB6F894FEBF0FBEEDBFC601B8010E9413
:10143000142D8FE090E00E94DB078FE090E00E9487
:10144000DB0700D000D000D0EDB6FEB60894E11C5A
:10145000F11CADB7BEB712961C930E93119727E4FB
:1014600032E0F7013383228320E030E04AE754E49E
:101470000E94C9360E940A36D70115967C936E9356
:1014800014970E94D904EDB7FEB736960FB6F894BC
:10149000FEBF0FBEEDBFC601B8010E94142D209102
:1014A000E7063091E806CE0101962115310519F4C1
:1014B0008B5E964002C0821B930B9A83898300D077
:1014C00000D000D0EDB7FEB731968E010D5F1F4FF3
:1014D000ADB7BEB712961C930E93119781E392E0BD
:1014E0009383828389819A81958384830E94D9041E
:1014F000EDB7FEB736960FB6F894FEBF0FBEEDBF40
:10150000C601B8010E94142DC8016EE072E00E946D
:10151000F303C601B8010E94142DC8016DEF71E0FC
:101520000E94F303C601B8010E94142DE4960FB681
:10153000F894DEBF0FBECDBFCF91DF911F910F9109
:10154000FF90EF90DF90CF900895BF92CF92DF92FF
:10155000EF92FF920F931F93CF93DF93F89473ED65
:10156000E72E71E0F72EC4E6D0E068E5B62E6E01F6
:1015700088E295E0BE010E941128F701808301E016
:1015800010E00FC06AE070E080E090E00E9445301B
:1015900088E295E0B6010E941128F70180830F5F71
:1015A0001F4FF701808180538A3020F003301105EE
:1015B00049F714C021960894E11CF11CC736D105E7
:1015C000B1F61092D6017894DF91CF911F910F91CF
:1015D000FF90EF90DF90CF90BF900895F701B08219
:1015E000E9CF4F925F926F927F928F929F92AF92CC
:1015F000BF92CF92DF92EF92FF920F931F93CF9300
:10160000DF936C010E9495288C0184E6D6011D921F
:101610008A95E9F78EE090E00E94DB074B015C01C0
:101620008FE090E00E94DB072B013C01EDB7FEB795
:10163000B8970FB6F894FEBF0FBEEDBFEDB6FEB67D
:101640000894E11CF11CD282C1828CE093E0D701A6
:1016500013969C938E93129786E491E015969C9333
:101660008E93149783ED91E017969C938E93169723
:1016700000561F4F19961C930E9318970350104055
:101680001B961C930E931A97035010401D961C93A3
:101690000E931C97075F1F4F1F961C930E931E9768
:1016A0000D5F1F4F51961C930E9350970D5F1F4F68
:1016B00053961C930E9352970159104055961C93C4
:1016C0000E935497015F1F4F57961C930E93569796
:1016D0000E5F1F4F59961C930E935897015F1F4F33
:1016E0005B961C930E935A978BE591E05D969C93C5
:1016F0008E935C97C501B40120E030E04AE754E4E2
:101700000E94C9360E940A36F701778F668FC3019F
:10171000B20120E030E04AE754E40E94C9360E945A
:101720000A36D70191967C936E939097809101062B
:101730009091020693969C938E9392978091FF05C9
:101740009091000695969C938E93949780910506B0
:101750009091060697969C938E9396970E94D90433
:10176000D6010D900020E9F71197AC19BD090A2F99
:10177000E601CA0FD11D1882EDB7FEB7B8960FB6B5
:10178000F894FEBF0FBEEDBFC60101966A2F70E050
:101790000E942228282F803178F400D000D000D079
:1017A000EDB7FEB73196ADB7BEB71296DC93CE93C8
:1017B000119780E091E00EC000D000D000D0EDB7CE
:1017C000FEB73196ADB7BEB71296DC93CE931197A4
:1017D00086E091E093838283248315820E94B5047E
:1017E000EDB7FEB736960FB6F894FEBF0FBEEDBF4D
:1017F000802FDF91CF911F910F91FF90EF90DF909D
:10180000CF90BF90AF909F908F907F906F905F90A0
:101810004F9008956F927F928F929F92AF92BF9256
:10182000CF92DF92EF92FF920F931F93CF93DF93AC
:101830005C01380149010E94952824E6D5011D92DA
:101840002A95E9F7EDB7FEB7F2970FB6F894FEBF09
:101850000FBEEDBF3196ADB7BEB71296BC92AE9239
:10186000119727E433E03383228320E431E035838A
:10187000248323ED31E03783268380569F4F918761
:101880008087039793878287039795878487099634
:10189000978786870396918B808B0396938B828B99
:1018A000648A758A868A978AC08ED18EE28EF38E7C
:1018B0002091C0013091C1014091C2015091C301FA
:1018C000248F358F468F578F20913F01332727FD77
:1018D000309531A320A38159904093A382A30F9602
:1018E00095A384A3029697A386A30F9691A780A79A
:1018F000889693A782A78A54904095A784A78B5B6C
:101900009F4F97A786A78754904091AB80AB0E94CA
:10191000D904D5010D900020E9F71197AA19BB0948
:101920001A2FE501CA0FD11D1882EDB7FEB7F29646
:101930000FB6F894FEBF0FBEEDBFC50101966A2F2A
:1019400070E00E942228282F803178F400D000D047
:1019500000D0EDB7FEB73196ADB7BEB71296DC93A7
:10196000CE93119780E091E00EC000D000D000D05F
:10197000EDB7FEB73196ADB7BEB71296DC93CE93F6
:10198000119786E091E093838283248315820E94DD
:10199000B504EDB7FEB736960FB6F894FEBF0FBE8E
:1019A000EDBF812FDF91CF911F910F91FF90EF90AD
:1019B000DF90CF90BF90AF909F908F907F906F906F
:1019C0000895CF92DF92EF92FF920F931F93CF93E0
:1019D000DF930E94532B0E94482C892B09F491C15C
:1019E00082E061E00E94083182E060E00E944731BD
:1019F00064E170E080E090E00E94453082E060E0C9
:101A00000E940831A8950E941828892B09F479C1F1
:101A10000E942B2C6B017C010E94862C6091BC01E2
:101A20007091BD018091BE019091BF01FB01EE0F4D
:101A3000FF1FEE0FFF1FE457FE4FC082D182E282EC
:101A4000F3826F5F7F4F8F4F9F4F2CE030E040E07D
:101A500050E00E944B376093BC017093BD018093AE
:101A6000BE019093BF01ECE8F1E000E010E020E05F
:101A700030E081919191A191B191080F191F2A1F16
:101A80003B1F81E0EC3BF807A1F78091C0019091EA
:101A9000C101A091C201B091C3018C0D9D1DAE1D6D
:101AA000BF1D8093C0019093C101A093C201B09368
:101AB000C3014091C4015091C5014C30510554F40B
:101AC00086E580933F014F5F5F4F5093C501409380
:101AD000C4010AC0011511052105310511F486E57F
:101AE00001C081E480933F01CAEDD1E084E6FE01AC
:101AF00011928A95E9F7E091BC01F091BD01EE0FDA
:101B0000FF1FEE0FFF1FE457FE4F4081518162819E
:101B10007381CE010E940A0C8091D701882391F035
:101B200080E00E94F3266AE070E080E090E00E948E
:101B300045308FEF9FEFBE0144E60E94DF2681E033
:101B40000E94F3268FE090E00E94DB0720E030E067
:101B50004AE754E40E94C9360E940A36EB0180919C
:101B6000D8019091D901892B09F05DC00E94952878
:101B7000FC018689813479F00E9495286091610189
:101B80007091620180569F4F42E050E00E943D04F8
:101B9000009709F448C081E090E09093D9018093C8
:101BA000D801F2E1CF38DF07F4F186EC91E063ED84
:101BB00071E00E94260486EC91E06BE071E00E94E7
:101BC00007040E949528BC01645B7F4F86EC91E07E
:101BD00042E050E00E942D040E949528BC01665B03
:101BE0007F4F86EC91E042E050E00E942D048EECA5
:101BF00091E06CE471E00E94260484E090E066E0ED
:101C000070E04AE050E00E94052F86EC91E00E94CF
:101C100083098EEC91E061E571E00E94260486EC78
:101C200091E00E9483098091D8019091D901892B7C
:101C300031F485EC96E06DE071E00E947D3585EC35
:101C400096E06AED71E00E9480358091D801909114
:101C5000D901892BC1F082E1CF38D807A4F084E004
:101C600090E066E070E04AE050E00E94052F8EECC4
:101C700091E06CE471E00E94260486EC91E06AED4C
:101C800071E00E94142D8AED91E00E94F10A85EC2A
:101C900096E06AED71E00E9480358091D8019091C4
:101CA000D901892BB9F0CF58D241A4F084E090E05B
:101CB00066E070E04AE050E00E94052F8EEC91E073
:101CC00061E571E00E94260486EC91E06AED71E026
:101CD0000E94142D8091D701882399F080E00E9402
:101CE000F3266AE070E080E090E00E9445308FEFDC
:101CF0009FEF6AED71E044E60E94DF2681E00E94DA
:101D0000F326DF91CF911F910F91FF90EF90DF901D
:101D1000CF9008950F931F9305EC16E0C80140E89B
:101D200055E260E070E00E94783229E288E190E0BC
:101D30000FB6F894A895809360000FBE20936000C2
:101D4000A8950E949807A8958AE061E00E94083152
:101D50008AE061E00E94473181E161E00E94083140
:101D600081E161E00E94473184E061E00E94083136
:101D700084E060E00E94473183E00E94E33082E02B
:101D800061E00E94083182E060E00E94473164E136
:101D900070E080E090E00E94453082E060E00E94C8
:101DA000083181E090E048E853E160E070E00E9493
:101DB000992CC8016AED71E00E941C2A0E94A50AB4
:101DC0000E940E288093D70184E10E9419270E9467
:101DD0006F070E94FB2781E00E94F32684E090E0D9
:101DE00066E070E04AE050E00E94052F86E58093AF
:101DF0003F011092C5011092C4010E94F8070E9491
:101E0000862CA895C80166E171E00E9480351F917B
:101E10000F910895FC011382128288EE93E0A0E0F6
:101E2000B0E084839583A683B78387E691E09183AE
:101E30008083128E118E14860895FC0187E691E04E
:101E4000918380830895DF93CF930F92CDB7DEB750
:101E5000FC016983A081B18112962D913C91139769
:101E6000BE016F5F7F4F41E050E0F90109950F908F
:101E7000CF91DF910895DC015996ED91FC915A972D
:101E8000309719F420E030E018C02389348945895F
:101E9000568982859385A485B585281B390B4A0B05
:101EA0005B0B2030B0E83B07B0E04B07B0E05B07CE
:101EB00020F02FEF3FE740E050E0C9010895DC013A
:101EC0005996ED91FC915A97309729F420E030E033
:101ED00040E050E004C02389348945895689B9011E
:101EE000CA010895DC015996ED91FC915A973097FB
:101EF00011F480E008958581811181E00895CF93E8
:101F0000DF93EC01898D9A8D009741F00E942A1889
:101F1000898D9A8D0E949B031A8E198EDF91CF9125
:101F20000895FC01818D928D009711F480E0089551
:101F30000E941A170895FC01818D928D009711F06F
:101F40000E94E0170895DF93CF930F92CDB7DEB7CD
:101F5000FC01818D928D009749F0BE016F5F7F4F2C
:101F600041E050E00E941D19019719F02FEF3FEF5B
:101F700003C08981282F30E0C9010F90CF91DF91F4
:101F80000895EF92FF920F931F93DF93CF930F92D9
:101F9000CDB7DEB77C01DC0159968D919C915A97A3
:101FA000009719F400E010E01FC0BE016F5F7F4F83
:101FB00041E050E00E941D19019719F00FEF1FEF4B
:101FC00013C08981082F10E0D7015996ED91FC913B
:101FD0005A974285538564857585415050406040CD
:101FE0007040CF010E941A17C8010F90CF91DF9166
:101FF0001F910F91FF90EF900895CF93DF93EC0125
:10200000E98DFA8D309761F013821282CF010E9420
:10201000621B9C01E98DFA8D82819381892B31F0BD
:1020200081E090E09B838A8320E030E0C901DF916A
:10203000CF910895EF92FF920F931F93CF93DF9369
:10204000EC01F62EE72E8A011B821A8288EE93E0BD
:10205000A0E0B0E08C839D83AE83BF8387E691E0F0
:10206000998388838DE190E00E94F1029A8F898F95
:10207000009791F0DC018F2D9E2D9C01F9018DE1DF
:1020800001900D928150E1F7CE010C96B8014CE021
:1020900050E00E944B04188EDF91CF911F910F9159
:1020A000FF90EF9008950F931F93CF93DF938C01D0
:1020B000FB01C081D181FC01EC0FFD1F80818F32BB
:1020C00009F4219698012C0F3D1FA0E0B0E00BC051
:1020D000FA01EA0FFB1F8083119621962F5F3F4F75
:1020E000AC30B10531F0F90180818F3211F08823D5
:1020F00079F7A40FB51F1C92F801EC0FFD1F80812A
:102100008F3209F42196FB01D183C083C00FD11F08
:102110008881811181E0DF91CF911F910F91089506
:102120001092430210924402109247021092490208
:1021300082E090E0A0E0B0E080934A0290934B02EE
:10214000A0934C02B0934D021092610210926B0268
:1021500010926A0287E791E0909369028093680287
:1021600010926D0208952F923F924F925F926F925C
:102170007F928F929F92BF92CF92DF92EF92FF92C7
:102180000F931F93DF93CF93CDB7DEB7C954D040E1
:102190000FB6F894DEBF0FBECDBF1C017B012A0134
:1021A00039011B8A1A8A87E791E0998B888B1D8AEF
:1021B00018AA1FA69EA78DA71AAA1A8219828B0198
:1021C00020E1C22ED12CCC0EDD1E93E0892E912C65
:1021D0008C0E9D1E03C0C80186016C01C101BE01A9
:1021E0006F5F7F4FA4010E945310B82E40E08823F8
:1021F00009F441E0C801B4019301F2010995882373
:1022000039F40E151F0519F1C8010E942A181FC0C4
:10221000BB20A9F0C601B801A40121E00E948F1DD6
:10222000B82E0E151F0519F0C8010E942A18BB20F0
:1022300071F00E151F0579F6CE018D96CDCF0E15D6
:102240001F0519F0C8010E942A1881E001C080E032
:10225000C75BDF4F0FB6F894DEBF0FBECDBFCF9187
:10226000DF911F910F91FF90EF90DF90CF90BF9083
:102270009F908F907F906F905F904F903F902F90A6
:1022800008959B01BC01665D7F4FC90145EC53E198
:1022900020E030E00E94B31008952F923F924F92B9
:1022A0005F926F927F928F929F92AF92BF92CF92E6
:1022B000DF92EF92FF920F931F93DF93CF93CDB7EF
:1022C000DEB7C754D0400FB6F894DEBF0FBECDBF07
:1022D000582E492EFB013A01190184A595A5998B29
:1022E000888B27E731E03F872E8786A58A8B87A5D5
:1022F0008B8B80A991A9A2A9B3A98C8B9D8BAE8B46
:10230000BF8B84A995A9A6A9B7A9888F998FAA8FF1
:10231000BB8F80AD91ADA2ADB3AD8C8F9D8FAE8FD5
:10232000BF8F84AD88A3FD9681919191A191B191C8
:1023300089A39AA3ABA3BCA381919191A191B191DF
:102340008DA39EA3AFA3B8A7808191819AA789A7E7
:102350001EA61DA63CA72BA718AA7A018E01025F14
:102360001F4F3BE2A32EB12CAC0EBD1E4E010894B4
:10237000811C911C35C0D7018C918F3221F40894B7
:10238000E11CF11C2DC0422F4E194D3008F04CE0DD
:10239000C42EDD24C401B701A6010E944B04F40140
:1023A000EC0DFD1D1082C5010E942A18C501B8015F
:1023B000A40121E00E948F1D882351F4E52DF42D06
:1023C0001382128287E791E091838083158266C031
:1023D000EC0CFD1CC8010E942A18C50158018C0193
:1023E000C7016FE270E00E9412049C01009719F689
:1023F000E618F708F101F182E082E52DF42DD8010D
:1024000012968D919C9113979383828387E791E035
:102410009183808314968C911497848315968C9164
:102420001597858316962D913D914D915C91199745
:1024300026833783408751871A962D913D914D9180
:102440005C911D9722873387448755871E962D916F
:102450003D914D915C91519726873787408B518BE9
:1024600052968C915297828B53962D913D914D911E
:102470005C915697238B348B458B568B57962D91B9
:102480003D914D915C915A97278B308F418F528FA0
:102490005B968D919C915C97948F838F852D942D65
:1024A000C95BDF4F0FB6F894DEBF0FBECDBFCF9133
:1024B000DF911F910F91FF90EF90DF90CF90BF9031
:1024C000AF909F908F907F906F905F904F903F90D4
:1024D0002F9008959F92AF92BF92CF92DF92EF928A
:1024E000FF920F931F93DF93CF93CDB7DEB7C657FD
:1024F000D0400FB6F894DEBF0FBECDBFC82E992EC8
:102500008A01D22E43E0A42EB12CAC0EBD1EC50113
:10251000A8019E012F5F3F4F0E944D11E980FA8074
:10252000E00EF11EF701808147E751E028858823FE
:1025300009F03FC08D819E819BA38AA359A348A324
:102540008F818CA32DA389859A85AB85BC858EA3AD
:102550009FA3A8A7B9A78D859E85AF85B8898AA7AF
:102560009BA7ACA7BDA789899A89AB89BC898EA78F
:102570009FA7A8ABB9AB8D898AAB8E899F89A88D9F
:10258000B98D8BAB9CABADABBEAB8A8D9B8DAC8D4F
:10259000BD8D8FAB98AFA9AFBAAF8E8D9F8D9CAF1D
:1025A0008BAF8C2D992DBE01605E7F4F47E251E0CD
:1025B0009FC0FE01FF96118210825EAF4DAFFE01FB
:1025C000EE5BFF4F10822223A9F02250CE01CD9660
:1025D000223048F468E672E0A7012D2D0E948F1D7D
:1025E000882381F407C0B501A7012D2D0E948F1DFE
:1025F000882329F48C2D992D0E940A0F7BC0C501D8
:102600000E942A18F6E0DF2259F0FE01E05BFF4F3E
:102610004081518162817381CE01CD960E941A174B
:102620009E01265A3F4FFE01FF9680819181F9015C
:102630009383828387E791E091838083FE01EF5B40
:10264000FF4F8081F9018483FE01EE5BFF4F8081A3
:10265000F9018583FE01ED5BFF4F80819181A281AD
:10266000B381F90186839783A087B187FE01E95B77
:10267000FF4F80819181A281B381F9018287938785
:10268000A487B587FE01E55BFF4F80819181A28120
:10269000B381F90186879787A08BB18BFE01E15B3F
:1026A000FF4F8081F901828BFE01E05BFF4F80814B
:1026B0009181A281B381F901838B948BA58BB68B19
:1026C000FE01EC5AFF4F80819181A281B381F90113
:1026D000878B908FA18FB28FFE01E85AFF4F8081C8
:1026E0009181F901948F838F8C2D992DB901A701C8
:1026F0000E941A108C2D992DCA58DF4F0FB6F894EE
:10270000DEBF0FBECDBFCF91DF911F910F91FF9024
:10271000EF90DF90CF90BF90AF909F9008950F9370
:102720001F93CF93DF93EC01162F8FA5882331F0F1
:10273000CE018A960E942A18882311F1CE0161E009
:10274000412F0E9406168823D1F08E01045F1F4F8F
:10275000C801BE0141E00E945D1F882339F4C80111
:10276000BE0140E00E945D1F882349F0CE018A9699
:10277000B8010E947C1A882319F081E001C080E032
:10278000DF91CF911F910F910895442311F481E0BF
:1027900008950E94961E0895FC01673020F086E19E
:1027A000858380E00895262F30E060FD02C066300A
:1027B00019F48DB58E7F02C08DB581608DBD8CB54D
:1027C0008C7F8CBD4CB522FD02C090E001C092E030
:1027D00036952795822F8170842B892B8CBD81E0C3
:1027E0000895FF920F931F93CF93DF938B010E9465
:1027F0003730EB01FF24FA94FEBC0DB407FEFDCF89
:102800008EB58F3F11F481E008C00E9437306C1BF9
:102810007D0B6017710780F380E0DF91CF911F91EE
:102820000F91FF900895FC01848160E00E94473180
:102830000895FC01848161E00E9447310895DC0124
:102840006EBDFA0120E030E00DB407FEFDCF8081BF
:102850008EBD0DB407FEFDCF81818EBD2E5F3F4F33
:10286000329682E02030380779F70DB407FEFDCFAD
:102870008FEF8EBD0DB407FEFDCF8FEF8EBD0DB473
:1028800007FEFDCF8FEF8EBD0DB407FEFDCF8EB5D9
:102890001A968C931A978F71853011F481E0089500
:1028A00081E115968C931597CD010E94191480E053
:1028B0000895FF920F931F93CF93DF93EC010E9433
:1028C00037308B01FF24FA9409C00E943730601B17
:1028D000710B6D52714010F08FE00DC0FEBC0DB455
:1028E00007FEFDCF8EB58A878F3F79F38E3F11F4B7
:1028F00081E006C08DE08D83CE010E94191480E036
:10290000DF91CF911F910F91FF900895CF93DF93A7
:10291000EC018E818823D1F08FEF8EBD2F81388519
:102920004FEF04C00DB407FEFDCF4EBD2F5F3F4FEC
:10293000C901019781509240A8F338872F830DB4C5
:1029400007FEFDCFCE010E9419141E82DF91CF91A8
:102950000895DF92EF92FF920F931F93CF93DF932F
:10296000EC01D62E79018A010E948614CE010E94C4
:102970001314CE016CE271E00E94F1138D2D80647E
:102980008EBD0DB407FEFDCF28E130E0D801C701B0
:10299000022E04C0B695A795979587950A94D2F70D
:1029A0008EBD0DB407FEFDCF285030408FEF283F7D
:1029B000380761F7DD2011F485E906C088E0D816F4
:1029C00011F487E801C08FEF8EBD0DB407FEFDCF77
:1029D00090E02FEF2EBD0DB407FEFDCF8EB587FF23
:1029E00002C09150B9F78A87DF91CF911F910F9163
:1029F000FF90EF90DF900895CF92DF92EF92FF92D9
:102A00000F931F93CF93DF93EC017A018B01690140
:102A1000411551056105710511F482E137C08B85BF
:102A2000833039F029E0EE0CFF1C001F111F2A959E
:102A3000D1F7CE0168E1A80197010E94A91488236B
:102A400011F084E023C0CE016EEFA6010E941F1496
:102A50008823E9F0CE0168E572E00E94F113882333
:102A600011F485E113C0CE016DE020E030E040E0DC
:102A700050E00E94A914882341F48FEF8EBD0DB45D
:102A800007FEFDCF8EB5882379F084E18D83CE01DA
:102A90000E94191480E0DF91CF911F910F91FF9058
:102AA000EF90DF90CF900895CE010E94191481E03D
:102AB000F2CF8F929F92AF92BF92CF92DF92EF921E
:102AC000FF920F931F93CF93DF93EC015A016B0199
:102AD00049010115110509F47BC0C801820F931F3C
:102AE0008150924008F06FC08E81882371F08881F8
:102AF0009981AA81BB81481759076A077B0729F486
:102B00008F8198858816990618F5A882B982CA829D
:102B1000DB828B85833039F069E0AA0CBB1CCC1CAE
:102B2000DD1C6A95D1F7CE0161E1A60195010E94F5
:102B3000A914882319F083E08D8345C0CE010E943B
:102B40005914882309F43FC018861F8281E08E83C0
:102B50008FEF8EBD8F8198852FEF05C00DB407FED6
:102B6000FDCF2EBD019688159905C0F398878F83F8
:102B7000D801119720E030E09FEF0BC00DB407FEA5
:102B8000FDCF8EB5F701E20FF31F80839EBD2F5F4F
:102B90003F4F2A173B0790F30DB407FEFDCF8EB5CC
:102BA000AE0DBF1D8C932F813885200F311F3887C4
:102BB0002F838985882319F02050324048F0CE01B8
:102BC0000E94861405C0CE010E94191480E001C045
:102BD00081E0DF91CF911F910F91FF90EF90DF90F7
:102BE000CF90BF90AF909F908F900895EF92FF92FB
:102BF0000F931F93790120E030E000E012E00E9483
:102C000059151F910F91FF90EF900895BF92CF92A9
:102C1000DF92EF92FF920F931F93CF93DF93EC011C
:102C2000B62E1B8619861E821D824C830E94373069
:102C30006B018C8161E00E940831CE010E94191461
:102C40008CE060E00E9408318BE061E00E94083176
:102C50008DE061E00E9408318AE061E00E94083165
:102C60008AE061E00E94473183E58CBD8DB58E7F9F
:102C70008DBD80E09FEF9EBD0DB407FEFDCF8F5F41
:102C80008A30C9F7CE010E94131409C00E94373060
:102C90006C197D09615D774010F081E05EC0CE0166
:102CA00060E020E030E040E050E00E94A914182FDE
:102CB0008A87813059F7CE0168E02AEA31E040E0A6
:102CC00050E00E94A91482FF02C01B8711C080E05F
:102CD0002FEF2EBD0DB407FEFDCF9EB58F5F843064
:102CE000C1F79A879A3A11F082E037C082E08B8769
:102CF0008B85823021F0EE24FF2487010FC0E12C68
:102D0000F12C012DF0E41F2F09C00E9437306C19FF
:102D10007D09615D774010F088E01FC0CE0167E358
:102D200020E030E040E050E00E94A914CE0169E2CA
:102D3000A80197010E94A9148A87882331F78B85FF
:102D4000823031F5CE016AE320E030E040E050E02F
:102D50000E94A914882339F086E08D83CE010E9459
:102D6000191480E01CC08FEF8EBD0DB407FEFDCF9F
:102D70008EB5807C803C11F483E08B8780E09FEFF0
:102D80009EBD0DB407FEFDCF2EB58F5F8330C1F71A
:102D9000CE010E941914CE016B2D0E94CC13DF913D
:102DA000CF911F910F91FF90EF90DF90CF90BF9048
:102DB0000895CF93DF93EC01DB0180E090E020E207
:102DC000FD01E80FF91F208301968B309105C1F7B3
:102DD00057E040E021C02E3219F08AE893E007C0A6
:102DE0005A3019F15AE048E017C03217F1F0FC01EF
:102DF000019634913323C9F75417B8F02132A8F063
:102E00002F3798F4822F81568A3108F42052FD0121
:102E1000E40FF11D20834F5F29912223E1F690E01A
:102E20008C91803219F091E001C090E0892FDF9100
:102E3000CF9108956F927F928F929F92AF92BF929F
:102E4000CF92DF92EF92FF920F931F93CF93DF9376
:102E5000EC017A018B012D81222309F480C08B893A
:102E60009C89AD89BE8984179507A607B70708F422
:102E700076C085C0E114F1040105110549F41E82F4
:102E80001F82188619861A861B861C861D8665C0B9
:102E90002A853B854C855D85EB8DFC8D858590E095
:102EA0000996215030404040504039014A01082ED7
:102EB00004C096948794779467940A94D2F72F5F0E
:102EC0003F4F4F4F5F4F0894E108F1080109110986
:102ED0005701680104C0D694C794B794A7948A9503
:102EE000D2F70894E11CF11C011D111DA614B704B2
:102EF000C804D90428F0211531054105510549F4CC
:102F00008F89988DA98DBA8D8E839F83A887B98765
:102F100016C0A618B708C808D90811C04E815F812D
:102F2000688579858B8D9C8D94010E943E21089443
:102F3000A108B108C108D108882331F410C086E087
:102F4000882E912C8C0E9D1EA114B104C104D104B5
:102F500029F7EA86FB860C871D8781E001C080E0A7
:102F6000DF91CF911F910F91FF90EF90DF90CF9065
:102F7000BF90AF909F908F907F906F900895223078
:102F800009F078CFE6CFCF93DF93EC01462F6E8523
:102F90007F85888999890E94221F882319F420E05F
:102FA00030E00AC08A89282F30E095E0220F331FD5
:102FB0009A95E1F727573D4FC901DF91CF910895C9
:102FC0000F931F93CF93DF938C01FC01858188239E
:102FD000D9F1848187FF35C0C80161E00E94C31721
:102FE000EC01009789F1F8018581823040F48389F2
:102FF0009489A589B6898C8F9D8FAE8FBF8FF8017C
:103000008789908D9B8F8A8F8789908DA18DB28DB6
:10301000CD01AA27BB279D8B8C8BE0918702F09175
:103020008802309751F0BE016A5E7F4FCE0148960C
:103030000995888D998D9B8B8A8BF80184818F7778
:1030400084830E94C31E01C080E0DF91CF911F9155
:103050000F910895CF93DF93EC010E94E01788232E
:1030600011F01D8281E0DF91CF9108956F927F92E0
:103070008F929F92AF92BF92CF92DF92EF92FF9288
:103080000F931F93DF93CF9300D000D0CDB7DEB75F
:103090007C015A016B01DC0115968C9115978130EA
:1030A00009F08FC014968C9181FF8BC09EC0009751
:1030B000A105B10511F481E085C0F7016284738434
:1030C00084849584C701B601A5010E941A1788233C
:1030D00009F477C0D7015B968D919C915C97A11400
:1030E000B104C104D10489F457964D915D916D915D
:1030F0007C915A970E94B121882309F462C0F7019C
:10310000178A108E118E128E3DC0D70116964D91E2
:103110005D916D917C9119979E012F5F3F4F0E94A9
:103120003E21882309F44DC0D7015B96ED91FC91B7
:103130005C9749815A816B817C818789803129F034
:1031400088EF9FEFAFEFBFE004C088EF9FEFA0E0F4
:10315000B0E0481759076A077B07A0F4CF010E9427
:10316000B121882371F1F70146815781608571850E
:10317000838D948D0FEF1FEF2FEF3FE00E94A22071
:103180008823F9F0D7015396AD92BD92CD92DC928F
:10319000569714968C911497806814968C93C70157
:1031A0000E94E017882369F0B601A5016A147B0428
:1031B0008C049D0410F4B401A301C7010E941A17E6
:1031C00001C080E00F900F900F900F90CF91DF9192
:1031D0001F910F91FF90EF90DF90CF90BF90AF9035
:1031E0009F908F907F906F900895F70183899489C5
:1031F000A589B68984179507A607B70708F057CFA2
:10320000E0CFCF93DF93EC0140E050E060E070E06E
:103210000E943618882369F0CE0161E00E94C3172E
:10322000FC01009731F085EE80831D820E94C31E51
:1032300001C080E0DF91CF9108952F923F924F928D
:103240005F926F927F928F929F92AF92BF92CF9236
:10325000DF92EF92FF920F931F93CF93DF93EC01D6
:103260002A018D81882309F4C6C08C8180FFC3C0E8
:10327000D8C025014E185F084B0176E0272E312C6F
:103280002C0E3D1E3201B1C02A853B854C855D85E3
:103290006FEFA62E61E0B62EA222B3228D817901B6
:1032A0008A0199E016950795F794E7949A95D1F7D6
:1032B000EB8DFC8D823049F4428D538D648D758D7C
:1032C0004E0D5F1D601F711F3FC0D480DA94DE2059
:1032D000A114B104D9F4DD20C9F42115310541054B
:1032E000510549F48F89988DA98DBA8D8E839F835E
:1032F000A887B9870BC04E815F8168857985CF012A
:1033000091010E943E21882309F475C0EB8DFC8D4C
:103310004E815F81688579854250504060407040A1
:10332000058404C0440F551F661F771F0A94D2F707
:1033300086859785A089B189480F591F6A1F7B1F11
:103340004D0D511D611D711D80E092E08A199B0990
:1033500063018615970508F46C018C8186FD06C013
:1033600080E0C81682E0D80609F073C0809156014B
:1033700090915701A0915801B091590148175907F0
:103380006A077B0709F465C08091890490918A04DB
:103390009501860174010E945915882361F18C0CF6
:1033A0009D1C12C0950127573D4FA9014C0D5D1D75
:1033B000D401F90102C081918D93E417F507D9F783
:1033C000E21BF30B8E0E9F1E960140E050E08A85B3
:1033D0009B85AC85BD85820F931FA41FB51F8A876F
:1033E0009B87AC87BD876C187D086114710409F058
:1033F0004BCFA20102C04FEF5FEFCA01DF91CF9127
:103400001F910F91FF90EF90DF90CF90BF90AF9002
:103410009F908F907F906F905F904F903F902F90F4
:103420000895AB88BC88CD88DE88EA84FB840C854F
:103430001D859A0140E050E0D601C5018E199F0913
:10344000A00BB10B82179307A407B50708F411CF9F
:1034500013CFCB01BA0140E00E94221F882309F05C
:10346000A1CFC9CFCF92DF92EF92FF920F931F931C
:10347000DF93CF930F92CDB7DEB76C01FC0185814E
:10348000823070F0E284F38404851585C601BE01A4
:103490006F5F7F4F41E050E00E941D19019769F076
:1034A00020E030E0C9010F90CF91DF911F910F9183
:1034B000FF90EF90DF90CF900895F601828593857D
:1034C000A485B5854F96A11DB11D82879387A487DA
:1034D000B587F5E016950795F794E794FA95D1F737
:1034E0008E2D8F70282F30E0E5E0220F331FEA95F4
:1034F000E1F727573D4FD6CF0F931F93CF93DF931D
:10350000EC018B018D81882309F041C0FB01878983
:103510008031B1F482E08D831F8A188E198E1A8E45
:10352000808D918DA0E0B0E045E0880F991FAA1F23
:10353000BB1F4A95D1F78B8B9C8BAD8BBE8B15C077
:10354000803229F583E08D83FB01428D538D648D9C
:10355000758D4F8B588F698F7A8F9E012D5E3F4FEF
:10356000C8010E940A22882391F01C8F0B8F81E0F2
:103570008C831E821F82188619861A861B861C86DB
:103580001D861E861F86188A198A1A8A01C080E045
:10359000DF91CF911F910F9108951F93CF93DF93E8
:1035A000EC01142FE62FF0E075E0EE0FFF1F7A9587
:1035B000E1F7E757FD4F8385817121F0842F8274F5
:1035C00009F054C06A8B8091560190915701A091E7
:1035D0005801B09159018E879F87A88BB98B848938
:1035E0009589A0E0B0E0BC0155274427828D938DDA
:1035F000A0E0B0E0482B592B6A2B7B2B4F8B588FC8
:10360000698F7A8F838590E088719070009751F46C
:10361000848D958DA68DB78D8B8B9C8BAD8BBE8B42
:1036200081E00CC0409711F59E012D5E3F4F8B8DC0
:103630009C8D0E940A228823C9F084E08D83812F0B
:103640008F708C831E821F82188619861A861B86AD
:103650001C861D8616FD02C081E009C0CE0140E037
:1036600050E060E070E00E94361801C080E0DF9119
:10367000CF911F910895CF93DF93EC019C012A5FB6
:103680003F4F8B8D9C8D41E050E060E070E00E94E8
:1036900079228823A1F08F89988DA98DBA8D009702
:1036A000A105B10559F48E819F81A885B9858F8BBD
:1036B000988FA98FBA8F8C8180688C8381E0DF918D
:1036C000CF9108952F923F924F925F927F928F9267
:1036D0009F92AF92BF92CF92DF92EF92FF920F93A1
:1036E0001F93DF93CF9300D000D000D0CDB7DEB7CB
:1036F0006C01162F072F5E834D83DC0115968C918C
:103700001597813009F070C114968C9181FF6CC1BE
:103710008EC1F601438954896589768982859385AE
:10372000A485B58584179507A607B70731F0C601AC
:103730000E941A17882309F457C1812F902F9C01EA
:1037400029012D803E8017C1D6015B96ED91FC9139
:103750005C97DA01C90119E0B695A7959795879509
:103760001A95D1F774807A9478227FEF872E71E0D2
:10377000972E82229322772009F04EC08114910463
:1037800009F04AC0D60116964D915D916D917C91DC
:103790001997411551056105710581F457968D9171
:1037A0009D910D90BC91A02D0097A105B10549F107
:1037B000F60186839783A087B1872EC0CF019E0133
:1037C0002F5F3F4F0E943E21882309F414C12981B5
:1037D0003A814B815C81D6015B96ED91FC915C97BF
:1037E0008789803129F088EF9FEFAFEFBFE004C0F9
:1037F00088EF9FEFA0E0B0E0281739074A075B0782
:1038000030F0C6010E943B1B882331F4EDC0F60165
:10381000268337834087518780E092E08819990991
:1038200051018215930508F45C01D6015B96ED9178
:10383000FC915C971696ED90FD900D911C91199757
:103840008EEF9FEFAFEFBFEFE80EF91E0A1F1B1FB1
:10385000058404C0EE0CFF1C001F111F0A94D2F750
:1038600086859785A089B189E80EF91E0A1F1B1F5E
:10387000E70CF11C011D111D90E0A91692E0B9069C
:1038800051F58091560190915701A0915801B09146
:1038900059018E159F05A007B10761F48FEF9FEFC7
:1038A000AFEFBFEF8093560190935701A09358015B
:1038B000B09359018091890490918A04B801A701BD
:1038C00092010E94FC14882309F48EC0A0E0B2E0AB
:1038D0004A0E5B1E3EC08114910409F5F601228553
:1038E00033854485558583899489A589B6892817A8
:1038F00039074A075B0798F00E94C31E882309F422
:1039000073C0E0925601F092570100935801109352
:10391000590180918B04816080938B0408C0C80199
:10392000B70141E00E94221F882309F45DC0940181
:1039300027573D4FA9014A0D5B1DD201F90102C075
:103940008D918193E417F507D9F7E21BF30B4E0E27
:103950005F1E2A183B08950140E050E0F601828581
:103960009385A485B585820F931FA41FB51F8287F9
:103970009387A487B587D6011A962D913D914D91D5
:103980005C911D972114310409F0DECE53968D9180
:103990009D910D90BC91A02D82179307A407B507A8
:1039A00048F4F601238B348B458B568B84818068D9
:1039B000848311C08091870290918802892B59F0ED
:1039C0008D819E81892B39F0D60114968C911497A4
:1039D000806814968C93F601848183FF0EC0C60123
:1039E0000E94E017882349F481E090E0D601139605
:1039F0009C938E9312971E821D828D819E812696A6
:103A00000FB6F894DEBF0FBECDBFCF91DF911F91EF
:103A10000F91FF90EF90DF90CF90BF90AF909F906D
:103A20008F907F905F904F903F902F90089582FDF0
:103A300070CE83CEDF93CF930F92CDB7DEB769837D
:103A4000BE016F5F7F4F41E050E00E94621B0F900C
:103A5000CF91DF910895DF92EF92FF920F931F9322
:103A6000CF93DF93EC010E943B1B882309F44EC0E7
:103A7000EB8DFC8DEE80FF80088519858EEF9FEF22
:103A8000AFEFBFEFE80EF91E0A1F1B1F058404C02D
:103A9000EE0CFF1C001F111F0A94D2F78685978534
:103AA000A089B189E80EF91E0A1F1B1FD480089453
:103AB000E108F108010911090BC0C801B7016D0D3A
:103AC000711D811D911D0E94FE1E8823F9F0DA945C
:103AD000DD2099F7EB8DFC8D20E032E040E050E0F6
:103AE000058404C0220F331F441F551F0A94D2F7C8
:103AF0008B899C89AD89BE89820F931FA41FB51F36
:103B00008B8B9C8BAD8BBE8B81E001C080E0DF9105
:103B1000CF911F910F91FF90EF90DF9008956F92DA
:103B20007F928F929F92AF92BF92CF92DF92EF924D
:103B3000FF920F931F93DF93CF93CDB7DEB72B97F1
:103B40000FB6F894DEBF0FBECDBF5C016B01822EB5
:103B5000DC0115968C91882309F0D2C0CA018E0130
:103B60000F5F1F4FB8010E94D916882309F4C8C0FF
:103B7000F601838D948DD5015C969C938E935B9713
:103B80001682178210861186D6011A961D921D92F2
:103B90001D921C921D979924380141C0C6010E94B4
:103BA000321AFC01009709F4ABC085E01695079521
:103BB000F794E7948A95D1F71E2D1F708081882392
:103BC00011F0853ED1F4992091F4D50152961C93C1
:103BD00052972091560130915701409158015091D0
:103BE00059011E962D933D934D935C93519780817F
:103BF000882399F49924939421C0C301BF014BE019
:103C000050E00E94FA03009751F4882D80738033AE
:103C100009F476C0C501612F6FC099249394F60111
:103C2000E284F3840485158583899489A589B689FE
:103C3000E816F9060A071B0708F4B0CF882D827131
:103C4000823109F05DC0992041F0C50161E00E9418
:103C5000C3178C01009789F453C0D60115968C9137
:103C6000823009F44DC0C6010E942B1D882309F43F
:103C700047C0F501128A09E812E080E2D8011D92DE
:103C80008A95E9F7D801FE0131968BE001900D92FB
:103C90008150E1F7E0918702F0918802309739F086
:103CA000B801625F7F4FC8014096099509C081E263
:103CB00098E2F801918B808B80E098E09787868767
:103CC000D80150968D919C91519753969C938E93C9
:103CD000529759969C938E9358971E968D919C91CE
:103CE0001F9757969C938E9356970E94C31E8823C6
:103CF00039F0C501F5016289482D0E94CD1A01C035
:103D000080E02B960FB6F894DEBF0FBECDBFCF91EB
:103D1000DF911F910F91FF90EF90DF90CF90BF90B8
:103D2000AF909F908F907F906F9008950F931F9307
:103D3000DF93CF93CDB7DEB76D970FB6F894DEBFA4
:103D40000FBECDBF9C01AB011C821B8287E791E0B7
:103D50009A8389831E828E010F5F1F4FC801B901AC
:103D600022E00E948F1D882319F0C8010E940119CA
:103D70006D960FB6F894DEBF0FBECDBFCF91DF9129
:103D80001F910F91089580918B04882399F14091A0
:103D900056015091570160915801709159018091DD
:103DA000890490918A0429E832E00E94FC14882357
:103DB00019F140918C0450918D0460918E047091A2
:103DC0008F04411551056105710591F080918904B9
:103DD00090918A0429E832E00E94FC14882361F063
:103DE00010928C0410928D0410928E0410928F0405
:103DF00010928B0481E0089580E00895EF92FF9285
:103E00000F931F937B018C010E94C31E8823A9F08E
:103E1000E9E8F2E0119284E0E938F807D9F7E09296
:103E20005601F09257010093580110935901809167
:103E30008B04816080938B0481E01F910F91FF9030
:103E4000EF900895DF92EF92FF920F931F937B0103
:103E50008C01D42E8091560190915701A091580168
:103E6000B09159018E159F05A007B107C1F00E94BE
:103E7000C31E8823D9F08091890490918A04B801E7
:103E8000A70129E832E00E94F615882379F0E09234
:103E90005601F092570100935801109359018091F7
:103EA0008B048D2980938B0481E001C080E01F91F9
:103EB0000F91FF90EF90DF9008958F929F92AF92B5
:103EC000BF92CF92DF92EF92FF920F931F93CF9307
:103ED000DF936C01142F70938A0460938904442348
:103EE00021F488249924540140C0453008F01CC1B5
:103EF00060E070E080E090E040E00E94221F8823B4
:103F000009F412C1C12FD0E02197FE0174E0EE0F39
:103F1000FF1F7A95E1F7E757FD4FE254FE4F80818E
:103F2000EE5BF14090E08F779070892B09F0FCC038
:103F3000E653FE4F80819181A281B3818436910541
:103F4000A105B10508F4F0C064E0CC0FDD1F6A954F
:103F5000E1F7C15BDB4F88809980AA80BB80811428
:103F60009104A104B10409F4DFC0C501B40140E02B
:103F70000E94221F882309F4D7C080919402909157
:103F800095028050924009F0CFC0209199022223DF
:103F900009F4CAC08091970290919802892B09F484
:103FA000C3C080919602882309F4BEC0F601228B1B
:103FB000809196028483158661E070E007C04F5FB0
:103FC000F60145874150483008F0AEC0F6014585FE
:103FD000848190E09B01042E02C0220F331F0A94BB
:103FE000E2F78217930759F720919F023091A002C0
:103FF0002115310519F040E050E008C02091AD02D4
:104000003091AE024091AF025091B002F60125838B
:10401000368347835087E0909702F090980200E043
:1040200010E0E80CF91C0A1D1B1DE38AF48A058BBD
:10403000168B80919A0290919B02918F808F609154
:10404000990270E080E090E00E942C376E0D7F1D99
:10405000801F911FF601628F738F848F958F20913F
:104060009A0230919B0255E0220F331F5A95E1F7D7
:1040700021503E4F232F3327269540E050E0260F56
:10408000371F481F591F26873787408B518B8091D8
:104090009C0290919D02009719F0A0E0B0E008C04A
:1040A0008091A9029091AA02A091AB02B091AC02BA
:1040B00085017401E21AF30A040B150BA80197019C
:1040C000280F391F4A1F5B1FF601058404C056954F
:1040D0004795379527950A94D2F7218732874387EA
:1040E0005487253FFFE03F07F0E04F07F0E05F0710
:1040F00010F48CE006C0255F3F4F4040504028F44C
:1041000080E1F601878B81E010C08091B50290912B
:10411000B602A091B702B091B802F601828F938FD8
:10412000A48FB58F80E2EECF80E0DF91CF911F9119
:104130000F91FF90EF90DF90CF90BF90AF909F9046
:104140008F9008954F925F926F927F928F929F927D
:10415000AF92BF92CF92DF92EF92FF920F931F9395
:10416000CF93DF93EC016A017B01280139014230D2
:1041700051056105710508F46FC089859A85AB8585
:10418000BC850196A11DB11D84179507A607B70729
:1041900008F462C02B893C894D895E898F89803102
:1041A00029F499278F2D7E2D6D2D09C0C701B601E9
:1041B00017E096958795779567951A95D1F74B01F6
:1041C0005C01820E931EA41EB51E80915601909133
:1041D0005701A0915801B091590188169906AA0675
:1041E000BB0639F0C501B40140E00E94221F8823BC
:1041F00099F18F89803149F4F601F070EE0FFF1FBD
:10420000E757FD4F518240820DC0F601EF77F07005
:10421000EE0FFF1FEE0FFF1FE757FD4F4082518249
:104220006282738280918B04816080938B048A897F
:10423000823080F08D819E81AF81B885880E991E75
:10424000AA1EBB1E80928C0490928D04A0928E04B4
:10425000B0928F0481E001C080E0DF91CF911F9187
:104260000F91FF90EF90DF90CF90BF90AF909F9015
:104270008F907F906F905F904F900895CF92DF92D4
:10428000EF92FF920F931F93CF93DF93EC017A018C
:104290008B01690189859A85AB85BC850196A11D35
:1042A000B11D84179507A607B70708F450C02B89DE
:1042B0003C894D895E898F89803129F49927812F26
:1042C000702F6F2D09C0C801B701E7E0969587955B
:1042D00077956795EA95D1F7260F371F481F591F25
:1042E0008091560190915701A0915801B0915901C8
:1042F000281739074A075B0739F0CA01B90140E0BE
:104300000E94221F882319F18F89803159F4F70107
:10431000F070EE0FFF1FE757FD4F80819181A0E005
:10432000B0E00EC0F701EF77F070EE0FFF1FEE0F59
:10433000FF1FE757FD4F80819181A281B381BF703C
:10434000F60180839183A283B38381E001C080E082
:10435000DF91CF911F910F91FF90EF90DF90CF9061
:104360000895AF92BF92CF92DF92EF92FF920F9398
:104370001F93DF93CF9300D000D0CDB7DEB76C0191
:104380007A018B0182E090E0A0E0B0E0F60180834A
:104390009183A283B3835E010894A11CB11CC60162
:1043A000B801A70195010E943E21882319F1C60199
:1043B000B801A70100E010E020E030E00E94A22058
:1043C0008823C1F0E980FA800B811C81F60187897E
:1043D000803129F088EF9FEFAFEFBFE004C088EF96
:1043E0009FEFA0E0B0E0E816F9060A071B07B8F255
:1043F00081E001C080E00F900F900F900F90CF915F
:10440000DF911F910F91FF90EF90DF90CF90BF90C1
:10441000AF9008954F925F926F927F928F929F928A
:10442000AF92BF92CF92DF92EF92FF920F931F93C2
:10443000DF93CF9300D000D0CDB7DEB76C014983B6
:104440005A836B837C833901EE24FF2487012E017C
:104450000894411C511C812CA2E09A2EA12CB12C55
:1044600049815A816B817C81C60192010E943E2163
:10447000882351F1D501C401F601058404C0880FD9
:10448000991FAA1FBB1F0A94D2F7E80EF91E0A1F34
:104490001B1F29813A814B815C818789803129F0FA
:1044A00088EF9FEFAFEFBFE004C088EF9FEFA0E081
:1044B000B0E0281739074A075B0790F2F301E08262
:1044C000F1820283138381E00F900F900F900F9081
:1044D000CF91DF911F910F91FF90EF90DF90CF90E0
:1044E000BF90AF909F908F907F906F905F904F9014
:1044F00008952F923F924F925F926F927F928F9288
:104500009F92AF92BF92CF92DF92EF92FF920F9362
:104510001F93DF93CF93CDB7DEB72F970FB6F894E5
:10452000DEBF0FBECDBF1C014A875B876C877D87CE
:104530003F872E87D9010D911D912D913C91011539
:1045400011052105310549F0480159010894811CE4
:10455000911CA11CB11C198610C0FC0180809180A7
:10456000A280B38019868A859B85AC85BD8501971D
:10457000A105B10511F491E09987D10119968D91AA
:104580009D910D90BC91A02D0196A11DB11D8D8313
:104590009E83AF83B887750164014424552432019A
:1045A0008E010F5F1F4FF10181859285A385B48530
:1045B000481659066A067B0608F090C08D819E81D8
:1045C000AF81B8858C159D05AE05BF0550F482E01E
:1045D000882E912CA12CB12CB2E0CB2ED12CE12C29
:1045E000F12CC101B701A60198010E943E21882348
:1045F00009F474C089819A81AB81BC81A7019601BD
:104600002F5F3F4F4F4F5F4F0097A105B10519F046
:1046100049015A010DC0281939094A095B098A85DF
:104620009B85AC85BD85281739074A075B0759F07C
:104630000894411C511C611C711C0894C11CD11CA4
:10464000E11CF11CB0CFC101A601B7010FEF1FEFB4
:104650002FEF3FE00E94A220882399F43FC026015B
:10466000370108944108510861087108C101B3017C
:10467000A201970186010E94A220882379F173018B
:1046800062018C149D04AE04BF0448F3AE85BF855F
:104690004D915D916D917C914115510561057105BB
:1046A00039F0C101950184010E94A2208823B1F054
:1046B000EE85FF8580829182A282B382F985FF23F5
:1046C00059F00894811C911CA11CB11CD1018D9240
:1046D0009D92AD92BC92139781E001C080E02F962D
:1046E0000FB6F894DEBF0FBECDBFCF91DF911F9103
:1046F0000F91FF90EF90DF90CF90BF90AF909F9081
:104700008F907F906F905F904F903F902F90089583
:104710002091110530E0F901EF56FB4F80832F5FA8
:104720003F4F2F77307020931105809190048F5F59
:104730008093900408959C01F999FECF32BD21BD6C
:10474000F89A80B508959C01F999FECF1FBA32BD41
:1047500021BD60BD0FB6F894FA9AF99A0FBE08957C
:10476000DF93CF930F92CDB7DEB780689FB7998361
:10477000F89443988EBD0DB407FEFDCF8EB58EBD67
:104780000DB407FEFDCF8EB5439A99819FBF0F9060
:10479000CF91DF910895DF93CF930F92CDB7DEB71E
:1047A000482F20E030E0942F906C8FB78983F894E5
:1047B00043989EBD0DB407FEFDCF8EB5CB01022EF2
:1047C00002C0969587950A94E2F78EBD0DB407FE58
:1047D000FDCF8EB5439A89818FBF4F5F285F3F4FD2
:1047E0002031310501F70F90CF91DF910895DF93CC
:1047F000CF930F92CDB7DEB7482F20E030E0FB011A
:10480000E20FF31FE081942F920F906C8FB7898392
:10481000F89443989EBD0DB407FEFDCF8EB5EEBD56
:104820000DB407FEFDCF8EB5439A89818FBF2F5FF0
:104830003F4F2830310519F70F90CF91DF91089540
:10484000FF920F931F93DF93CF930F92CDB7DEB7F5
:10485000182FF62E042F0E94B023982F106C8FB7BC
:104860008983F89443981EBD0DB407FEFDCF8EB525
:10487000802F809589230F21802B8EBD0DB407FEDC
:10488000FDCF8EB5439A89818FBF0F90CF91DF9175
:104890001F910F91FF900895DF93CF930F92CDB7A3
:1048A000DEB7782F392FA22F862F90E0820F911D2F
:1048B0008038910554F58FB78983F894439880E642
:1048C0008EBD0DB407FEFDCF8EB5872F932F9C01B3
:1048D000F90107C080818EBD0DB407FEFDCF319672
:1048E0008EB58E2F871B8617A8F3FA0107C080812B
:1048F0008EBD0DB407FEFDCF31968EB58E2F841B75
:104900008A17A8F3439A89818FBF0F90CF91DF91C7
:104910000895813051F0813028F0823049F08330A1
:10492000E1F411C08CE068E005C08CE06CE002C0EE
:104930008CE06CE14FE30E94202486E162E043E0DA
:104940000E94202408958CE060E04FE30E94202420
:1049500086E163E043E00E942024089588E00E94FD
:10496000B0238F71089584B1886284B93B9A2D9ADF
:10497000439A2C9A2A9A8CB581618CBD8DB5816041
:104980008DBD8CB580648CBD439A08950E94AE2481
:1049900008950F931F93082F429B02C084E445C0E3
:1049A00081E00E94B023182F1F71812F8151823026
:1049B00020F0113011F0123031F481E00E94B02368
:1049C0008F718117D1F3063179F0093151F0083038
:1049D000B1F4429886E090E00E949E3082E063E06D
:1049E00007C0163161F402C0193149F482E069E070
:1049F0004FE10E94202481E090E00E949E3082E0FE
:104A0000602F4FE10E942024183011F081E001C096
:104A100084EB90E00E949E3081E00E94B0238F7171
:104A2000801711F083E401C080E41F910F91089575
:104A30001F920F920FB60F921124AF92BF92CF9296
:104A4000DF92EF92FF920F931F932F933F934F9319
:104A50005F936F937F938F939F93AF93BF93EF93E6
:104A6000FF93DF93CF93CDB7DEB7E497DEBFCDBF23
:104A70008FB78983F8941E9BBCC043988FE88EBD86
:104A80000DB407FEFDCF8EB51EBC0DB407FEFDCFE5
:104A90000EB5439A20E2E22E90E8A92EB12C83E0D5
:104AA000C82ED12CCC0EDD1EA1C002FF02C00B7F90
:104AB0009DC003FF7EC081E00E94B0238F718630CD
:104AC00029F0863119F0813109F069C087E00E9430
:104AD000B0238093250586E00E94B023881F882795
:104AE000881F80932605882309F45CC08FB78A83CA
:104AF000F8944398EEBC0DB407FEFDCF8EB51EBCF6
:104B00000DB407FEFDCFFEB48F2D83508D37B8F561
:104B10002F2D30E080919004A501481B51092417E6
:104B2000350714F080E016C08F2D0E94882310E016
:104B300008C01EBC0DB407FEFDCF8EB50E948823B1
:104B40001F5F1F15B0F31BC01EBC0DB407FEFDCFC9
:104B50009EB58F5F8F15C0F380911F059091200542
:104B600001969093200580931F05C6016AE973E0C2
:104B70000E94F30385EC96E0B6010E947D35439ACE
:104B80008A818FBF809117059091180501969093A7
:104B900018058093170581E08093150503C081E017
:104BA0008093160586E10E94C9248034D9F7077FD7
:104BB0001DC006FF0BC00F7B80912105909122053F
:104BC0000196909322058093210510C001FF02C039
:104BD0000D7F0CC000FF02C00E7F08C007FF06C09B
:104BE0000F77809123058F5F80932305002309F0C1
:104BF0005CCF89818FBFE496DEBFCDBFCF91DF91BF
:104C0000FF91EF91BF91AF919F918F917F916F91A4
:104C10005F914F913F912F911F910F91FF90EF90D6
:104C2000DF90CF90BF90AF900F900FBE0F901F906E
:104C30001895FF920F931F93CF93DF93EC018B0195
:104C4000F42E81E00E94B0238F71823001F1823115
:104C5000F1F089E10E94C924CE016AE0A8012F2D5C
:104C60000E944C2481E08093270582E062E04FE1BE
:104C70000E942024809116058823E1F310921605E6
:104C800082E00E94B02382958695877001C084E4FB
:104C9000DF91CF911F910F91FF9008957F928F9296
:104CA0009F92AF92BF92CF92DF92EF92FF920F93BB
:104CB0001F93DF93CF93CDB7DEB72A970FB6F89443
:104CC000DEBF0FBECDBF7C016B01042F48E9742EFF
:104CD00034E3832E32E1932E5E010894A11CB11CB3
:104CE00055C0102F053608F014E68FEFE8168FEF49
:104CF000F80611F481E401C081E6155F19831B50A9
:104D00008A837B82809114058C838F5F8093140546
:104D10009E828D82F886EF82809112059091130514
:104D20009A878987C501B601412F0E941926282F2D
:104D3000882359F1382F8330F1F0843018F4813012
:104D400071F404C0853069F0803449F4809119050C
:104D500090911A05019690931A0580931905322FA8
:104D600019C080911B0590911C05019690931C051C
:104D700080931B050FC080911D0590911E05019623
:104D800090931E0580931D0505C0011B002309F0AB
:104D9000A8CF30E0832F2A960FB6F894DEBF0FBE5F
:104DA000CDBFCF91DF911F910F91FF90EF90DF90DA
:104DB000CF90BF90AF909F908F907F9008950E946A
:104DC0004E260895882329F088E00E94C9243A9845
:104DD000089542983A9A80E793E00E949E3086E1D7
:104DE0000E94C92408950E94E22608951F93182F57
:104DF00088E0612F4FE10E94202481E00E94B023CF
:104E00008F71863011F0893021F486E990E00E949C
:104E10009E3088E00E94B02390E08F719070212F27
:104E200030E08217930711F083E401C080E41F9102
:104E300008950E94F62608959C01F999FECFCB01B2
:104E4000B9012BE933E20E947D040895DF93CF93EB
:104E500000D0CDB7DEB789E090E0BE016F5F7F4F35
:104E600042E050E00E941C2789819A810F900F90A8
:104E7000CF91DF9108950E9426270895BC0180E01C
:104E800090E048E050E00E941C2708950F931F9384
:104E9000DF93CF93CDB7DEB7EB970FB6F894DEBFB5
:104EA0000FBECDBF0E94B3243A9A8FB78983F8947E
:104EB00043988EEC8EBD0DB407FEFDCF8EB51EBCA3
:104EC0000DB407FEFDCF8EB5439A89818FBF82E076
:104ED00063E04FE10E9420248EEF91E00E949E301B
:104EE00081E00E9489248BE00E94F62685E060E83C
:104EF00040E80E94202486E10E94C92482E264E303
:104F000072E10E94CB230E942627BC0180E20E940E
:104F1000CB238E010E5F1F4FC8010E943E2784E203
:104F2000B8010E94F7238FE00E94B0238FB78983D6
:104F3000F89443988EEC8EBD0DB407FEFDCF8EB570
:104F400088E08EBD0DB407FEFDCF8EB5439A8981F2
:104F50008FBF80916B00806480936B0080916800AC
:104F600081608093680081E00E94B0238F71863158
:104F700011F481E00EC08E01065F1F4FC80161E190
:104F800074E00E94F30385EC96E0B8010E947D3541
:104F900080E0EB960FB6F894DEBF0FBECDBFCF9189
:104FA000DF911F910F910895F999FECF23EA33E223
:104FB0000E9499040895DF93CF9300D0CDB7DEB758
:104FC0009A83898389E090E0BE016F5F7F4F42E062
:104FD00050E00E94D42769817A8180E20E94CB232D
:104FE00089819A8190931305809312050F900F90F9
:104FF000CF91DF9108950E94DB27089586E1E2E1D9
:10500000F5E0DF011D928A95E9F70E94262790932B
:105010001305809312050E94462708950E94FE27DB
:105020000895F999FECF72BD61BDF89A80B50895D3
:1050300020E030E080912905882311F421E030E060
:10504000C9010895DC019C9121E030E007C0FD0119
:10505000E20FF31F808198272F5F3F4F26173707F6
:10506000B4F3892F0895CF93DF93DC01EA019C917B
:1050700021E030E007C0FD01E20FF31F8081982797
:105080002F5F3F4F26173707B4F388818A3314F018
:10509000875301C0805349814A3314F0475301C0FC
:1050A000405320E030E08295807F840F981711F400
:1050B00021E030E0C901DF91CF910895CF93DF93D4
:1050C000DC018C91843259F5FD01E60FF71F33970F
:1050D00080818A3221F562507040ED01C60FD71FE2
:1050E0006E5F7F4F9881892F80538A3018F09154DA
:1050F0009630A8F4FD01E60FF71F3197E0818E2F5F
:1051000080538A3018F0E154E63048F4645070401F
:10511000CD010196AE010E9433289C0102C020E01F
:1051200030E0C901DF91CF9108958CE295E00895B8
:105130004F925F926F927F928F929F92AF92BF92A7
:10514000CF92DF92EF92FF920F931F93CF93DF9353
:105150008C013B012A010E9437306B017C01C0E0C9
:10516000D0E04201AA2497FCA094BA2C16C0A091CA
:105170002A05B0912B05ED91FC9111970680F781DE
:10518000E02DCD010995F801EC0FFD1F8083C615B8
:10519000D705E9F08A30D9F02196E0912A05F091FF
:1051A0002B05A081B18114962D913C911597CF01CB
:1051B000F9010995892BD9F60E9437306C197D09C0
:1051C0008E099F0986169706A806B90630F70C0FB8
:1051D0001D1FF8011182C615D70519F4E0E0F0E0B3
:1051E00014C00E943730E0E0F0E06C197D098E09B0
:1051F0009F099201442737FD4095542F621773078A
:105200008407950710F4E1E0F0E0CF01DF91CF9142
:105210001F910F91FF90EF90DF90CF90BF90AF90D4
:105220009F908F907F906F905F904F9008954F92D6
:105230005F926F927F928F929F92AF92BF92CF9226
:10524000DF92EF92FF920F931F93DF93CF93CDB72F
:10525000DEB7C355D0400FB6F894DEBF0FBECDBF4A
:10526000CE018A966DE774E00E94F303CE01CF96DB
:105270006DE674E00E94F3030DC0E0912A05F09101
:105280002B05A081B18116962D913C911797CF01E6
:10529000F9010995E0912A05F0912B05A081B181D2
:1052A00014962D913C911597CF01F9010995892B01
:1052B00021F78E010B5E1F4FC80161E674E00E946A
:1052C000F30380912A0590912B05B8010E94803547
:1052D000EE24FF24AA24BB24CC24DD2428013FE3B0
:1052E000632E712C6C0E7D1E2AE2822E912C8C0E68
:1052F0009D1E0894C11CD11CC20164E170E048EEFF
:1053000053E00E949828892BC9F100E010E005C005
:105310000F5F1F4F0431110589F1D201A00FB11F9A
:105320008C918432A9F7E114F10491F4F401019015
:105330000020E9F73197E819F909C401BD01AF016F
:105340000E943D04009721F491E0E92EF12C16C053
:10535000A114B10499F4F30101900020E9F7319709
:10536000E619F709040D151DC301B801AF010E942C
:105370003D04009719F481E0A82EB12C85E0C816F1
:10538000D10441F0E114F10409F4B3CFA114B10444
:1053900009F4AFCF8E010F5F1F4FC80163E574E0C2
:1053A0000E94F30385EC96E0B8010E947D35EF285A
:1053B00021F0C8016FE474E003C0C8016CE474E03C
:1053C0000E94F30385EC96E0B8010E9480358E01BF
:1053D0000F5F1F4FC80168E374E00E94F30385EC80
:1053E00096E0B8010E947D35AB2821F0C80164E346
:1053F00074E003C0C80161E374E00E94F30385EC2C
:1054000096E0B8010E948035CD5ADF4F0FB6F89470
:10541000DEBF0FBECDBFCF91DF911F910F91FF90E7
:10542000EF90DF90CF90BF90AF909F908F907F9044
:105430006F905F904F90089590932B0580932A056D
:105440001092DC05109229057093DB056093DA0554
:105450008EEAECE2F5E0DF011D928A95E9F7089506
:1054600084E1E6ECF5E0DF011D928A95E9F7809191
:105470003605909137059093D0058093CF058091A4
:105480003805909139059093D3058093D20580918A
:105490003A0590913B059093D6058093D505809170
:1054A0007605909177059093C7058093C605809106
:1054B0007805909179059093CA058093C9058091EC
:1054C0007A0590917B059093CD058093CC05089546
:1054D000CF93DF93EC011092400510928505109256
:1054E0008405109287051092880510928905109204
:1054F0008A0587E0ECE8F5E0DF011D928A95E9F77F
:10550000EC85FD85E081EE2311F0E0934005EE850A
:10551000FF858081882331F080819181909385057A
:1055200080938405E889F9898081882361F08081EE
:105530009181A281B3818093870590938805A09380
:105540008905B0938A05EA89FB898081882339F02F
:10555000ACE8B5E087E001900D928150E1F7DF9172
:10556000CF910895CF93DF93EC01A6E3B5E089E0F6
:10557000FD0111928A95E9F7109242051E968EE080
:10558000FD01982F11929A95E9F7109253055196C3
:10559000FD0111928A95E9F710926405519687E012
:1055A000FD01982F11929A95E9F71896FD01119235
:1055B0008A95E9F7D89786E026E735E0F901119258
:1055C0008A95E9F785E02EE735E0F90111928A9591
:1055D000E9F7EA81FB818081882329F089E0019045
:1055E0000D928150E1F7EC81FD81E081EE2311F015
:1055F000E0934205EE81FF818081882339F0A4E4A5
:10560000B5E08EE001900D928150E1F7E885F985D3
:10561000E081EE2311F0E0935305EA85FB8580815C
:10562000882339F0A5E5B5E08EE001900D92815018
:10563000E1F7EC85FD85E081EE2311F0E093640550
:10564000EE85FF858081882339F0A6E6B5E087E006
:1056500001900D928150E1F7E889F98980818823D2
:1056600039F0AEE6B5E087E001900D928150E1F7A8
:10567000EA89FB898081882339F0A6E7B5E086E0D6
:1056800001900D928150E1F7EC89FD89808188239A
:1056900039F0AEE7B5E085E001900D928150E1F779
:1056A000DF91CF910895BF92CF92DF92EF92FF9258
:1056B0000F931F93DF93CF93CDB7DEB7AA970FB6A3
:1056C000F894DEBF0FBECDBFFE01339688E2DF0146
:1056D0001D928A95E9F7BB24B3947F016E0108946B
:1056E000C11CD11C81C08091DC05843608F07AC0D1
:1056F0000091DA051091DB05080F111DA0912A0514
:10570000B0912B05ED91FC9111970680F781E02D6A
:10571000CD010995F80180839091DC05E091DA05CF
:10572000F091DB05E90FF11D80818A3009F054C04A
:105730000E9437306093DD057093DE058093DF05AE
:105740009093E0058091DC05E091DA05F091DB05AE
:10575000E80FF11D11821092DC058091DA0590911D
:10576000DB05FC01DF010D900020E9F7AE1BBF0B4C
:105770001397BD010E945E28892B59F18091DA05AB
:105780009091DB059A8389838701C60169E271E004
:105790000E946504D8018D939D938D01892BA9F7F3
:1057A0000B811C81C8016BE271E00E941D0400970F
:1057B00031F4C7010E94B22A0E94302A0AC0C801EF
:1057C00062E371E00E941D04009719F4C7010E9472
:1057D000682A1092290508C0B09229059F5F90930E
:1057E000DC0502C01092DC05E0912A05F0912B0542
:1057F000A081B18114962D913C911597CF01F901AB
:105800000995892B09F06FCFAA960FB6F894DEBFE1
:105810000FBECDBFCF91DF911F910F91FF90EF9001
:10582000DF90CF90BF9008951F920F920FB60F9206
:1058300011248F939F938091E1059091E205019649
:105840009093E2058093E1059F918F910F900FBE99
:105850000F901F9018956091ED057091EE05809165
:10586000EF059091F00508958091ED059091EE057A
:10587000A091EF05B091F0050196A11DB11D809397
:10588000ED059093EE05A093EF05B093F005089514
:10589000EF92FF920F931F930E9437302091E505FE
:1058A0003091E6054091E7055091E805E090E90563
:1058B000F090EA050091EB051091EC056217730773
:1058C0008407950760F0E0E0F0E0621B730B840B47
:1058D000950B6E157F058007910790F00FC0E0E0F3
:1058E000F0E02095309540955095260F371F481FC2
:1058F000591F2E153F054007510710F0E1E0F0E079
:10590000CF011F910F91FF90EF9008950E943730C3
:105910006093E5057093E6058093E7059093E805AD
:105920001092ED051092EE051092EF051092F00521
:1059300008958093E3059093E4054093E90550931F
:10594000EA056093EB057093EC051092ED0510925B
:10595000EE051092EF051092F00564E37CE243E05F
:1059600050E00E94662F08951F920F920FB60F927B
:1059700011242F933F934F935F936F937F938F9354
:105980009F93AF93BF93EF93FF938091F3050E9492
:105990009B310197A9F48091F1059091F205813036
:1059A000910571F49093F6058093F5050E943730C8
:1059B0006093F7057093F8058093F9059093FA05C5
:1059C000FF91EF91BF91AF919F918F917F916F91D7
:1059D0005F914F913F912F910F900FBE0F901F90AD
:1059E00018958130910541F46F5F7F4F71F487E026
:1059F00096E00E940A0F0895892B39F46F5F7F4F5C
:105A000021F487E096E00E941D0F089580E090E069
:105A10006FEF7FEF0E94F12C089581E090E06FEF2F
:105A20007FEF0E94F12C08958F929F92AF92BF92C8
:105A3000CF92DF92EF92FF920F931F93DF93CF935A
:105A4000CDB7DEB7E6970FB6F894DEBF0FBECDBF79
:105A50004C015B011092020610920106109204069E
:105A60001092030610920606109205068091FD051D
:105A70000E949B31892B19F020E030E0F0C081E0DA
:105A800090E09093020680930106CE0101966EE3AA
:105A900072E0A40123E10E946A128B819C819093A1
:105AA0000A06809309068D819E81AF81B885809317
:105AB0000B0690930C06A0930D06B0930E068985F5
:105AC0009A85AB85BC8580930F0690931006A093B2
:105AD0001106B0931206A3E1B6E0FE013D968DE0FB
