:107800000C94343C0C94513C0C94513C0C94513CE1
:107810000C94513C0C94513C0C94513C0C94513CB4
:107820000C94513C0C94513C0C94513C0C94513CA4
:107830000C94513C0C94513C0C94513C0C94513C94
:107840000C94513C0C94513C0C94513C0C94513C84
:107850000C94513C0C94513C0C94513C0C94513C74
:107860000C94513C0C94513C11241FBECFEFD8E036
:10787000DEBFCDBF11E0A0E0B1E0EAE8FFE702C063
:1078800005900D92A230B107D9F712E0A2E0B1E065
:1078900001C01D92AD30B107E1F70E942D3D0C945F
:1078A000C33F0C94003C982F95959595959595958B
:1078B000905D8F708A307CF0282F295A8091C0000B
:1078C00085FFFCCF9093C6008091C00085FFFCCF60
:1078D0002093C6000895282F205DF0CF982F809127
:1078E000C00085FFFCCF9093C6000895EF92FF92F1
:1078F0000F931F93EE24FF2487018091C00087FD22
:1079000017C00894E11CF11C011D111D81E2E8164D
:1079100081EAF80687E0080780E0180770F3E09135
:107920000401F091050109958091C00087FFE9CF1E
:107930008091C6001F910F91FF90EF9008950E94D3
:10794000763C982F8091C00085FFFCCF9093C600B5
:1079500091362CF490330CF09053892F089597555D
:10796000892F08951F930E949F3C182F0E949F3CCF
:107970001295107F810F1F9108951F93182F882350
:1079800021F00E94763C1150E1F71F9108951F935A
:10799000182F0E94763C803249F0809103018F5F5E
:1079A000809303018530C1F01F9108958091C0003C
:1079B00085FFFCCF84E18093C6008091C00085FFE5
:1079C000FCCF1093C6008091C00085FFFCCF80E102
:1079D0008093C6001F910895E0910401F091050184
:1079E00009951F9108950E94763C803241F0809164
:1079F00003018F5F80930301853081F008958091AA
:107A0000C00085FFFCCF84E18093C6008091C00058
:107A100085FFFCCF80E18093C6000895E0910401CA
:107A2000F09105010995089548EC50E08823A1F0F4
:107A30002D9A28EE33E0FA013197F1F721503040CA
:107A4000D1F72D9828EE33E0FA013197F1F7215064
:107A50003040D1F7815061F708953F924F925F9285
:107A60006F927F928F929F92AF92BF92CF92DF924E
:107A7000EF92FF920F931F93CF93DF9384B714BEBF
:107A800098E10FB6F89490936000109260000FBEDA
:107A900082E08093C00080E18093C4001092C50012
:107AA0009093C10086E08093C2005098589A259A1E
:107AB00081E00E94143D44E1F42E3EE1E32E25E9ED
:107AC000D22E9FE0C92E80E1B82EAA24A39401E40F
:107AD000902E16E5812EB2E57B2EA0E26A2EF9E407
:107AE0005F2EE3E54E2E70E5372E0E94763C803304
:107AF000B9F18133C1F1803409F470C0813409F4E3
:107B000077C0823409F486C0853409F489C0803591
:107B100039F1823529F1813509F4AAC1853509F495
:107B200085C0863509F48DC0843609F496C0843743
:107B300009F42CC1853709F407C1863709F466C0FA
:107B4000809103018F5F80930301853071F6E0918E
:107B50000401F091050109950E94763C803349F6B5
:107B60000E94F33CC2CF0E94763C803249F780915C
:107B7000C00085FFFCCFF092C6008091C00085FF59
:107B8000FCCF9092C6008091C00085FFFCCF809210
:107B9000C6008091C00085FFFCCF7092C600809126
:107BA000C00085FFFCCF6092C6008091C00085FFB9
:107BB000FCCF5092C6008091C00085FFFCCF409260
:107BC000C6008091C00085FFFCCF3092C600809136
:107BD000C00085FFFCCFB092C60087CF0E94763CE4
:107BE000863808F4BDCF0E94763C0E94F33C7DCFDE
:107BF0000E94763C803809F4A3C0813809F49CC007
:107C0000823809F431C1883909F492C080E00E94B9
:107C1000C73C6BCF84E10E94BD3C0E94F33C65CF22
:107C200085E00E94BD3C0E94F33C5FCF0E94763C01
:107C3000809306010E94763C809307010E94F33CEA
:107C400054CF0E94763C803309F418C183E00E942F
:107C5000BD3C80E00E94C73C48CF0E94763C8093A8
:107C600009020E94763C8093080280910C028E7F6C
:107C700080930C020E94763C853429F480910C029A
:107C8000816080930C028091080290910902892BF7
:107C900089F000E010E00E94763CF801E85FFE4FBA
:107CA00080830F5F1F4F809108029091090208178F
:107CB000190788F30E94763C803209F041CF809109
:107CC0000C0280FFECC04091060150910701440F67
:107CD000551F50930701409306016091080270916F
:107CE000090261157105C9F0E8E0F1E09A01DB01D4
:107CF000AE0FBF1FF999FECF32BD21BD819180BD6E
:107D0000FA9AF99A2F5F3F4FEA17FB0799F7460F48
:107D1000571F50930701409306018091C00085FFD3
:107D2000FCCFF092C6008091C00085FFFCCF53CFFE
:107D300083E00E94C73CD9CE81E00E94C73CD5CEEB
:107D400082E00E94C73CD1CE0E94763C803209F08E
:107D5000F7CE8091C00085FFFCCFF092C6008091E5
:107D6000C00085FFFCCFE092C6008091C00085FF77
:107D7000FCCFD092C6008091C00085FFFCCFC0929E
:107D8000C6008091C00085FFFCCF25CF0E94763CC5
:107D9000809309020E94763C80930802809106013C
:107DA00090910701880F991F909307018093060116
:107DB0000E94763C853409F451C080910C028E7F7C
:107DC00080930C020E94763C803209F08ECE809126
:107DD000C00085FFFCCFF092C600A0910802B091D0
:107DE00009021097B1F180910C02182F1170082F21
:107DF0000270E0910601F09107019F012F5F3F4F54
:107E0000B90140E050E01123A9F4002339F4949122
:107E10008091C00085FFFCCF9093C6004F5F5F4FFD
:107E2000CB010196F9014A175B0778F4BC012F5F7B
:107E30003F4FE9CFF999FECFF2BDE1BDF89A90B579
:107E40008091C00085FFFCCFE7CF7093070160935E
:107E500006018091C00085FFFCCFBDCE80910C0251
:107E6000816080930C02AECF80E10E94C73C3DCE82
:107E70000E94F33C88E080936000FFCF0E94763C34
:107E80000E94763C182F0E94763C112309F477C09B
:107E9000113009F470C08FE00E94C73C26CE80915B
:107EA00007018823880F880B8A2180930B02809119
:107EB000060190910701880F991F90930701809305
:107EC00006018091080280FF09C08091080290910C
:107ED000090201969093090280930802F894F99997
:107EE000FECF1127E0910601F0910701C8E0D1E033
:107EF0008091080290910902103091F4009157008E
:107F000001700130D9F303E000935700E895009128
:107F1000570001700130D9F301E100935700E89553
:107F2000099019900091570001700130D9F301E0D8
:107F300000935700E8951395103498F0112700919D
:107F4000570001700130D9F305E000935700E89520
:107F50000091570001700130D9F301E100935700FF
:107F6000E8953296029709F0C7CF103011F00296CB
:107F7000E5CF1124D2CE85E90E94C73CB6CD8EE173
:0A7F80000E94C73CB2CDF894FFCF79
:027F8A00800075
:040000030000780081
:00000001FF
