:10000000A0C00000BAC00000B8C00000B6C0000028
:10001000B4C00000B2C00000B0C00000AEC000001C
:10002000ACC00000AAC000000C942E0B0C94F70B7F
:10003000A4C00000A2C00000A0C000009EC000003C
:100040009CC000009AC0000098C0000096C000004C
:1000500094C0000092C0000090C000007CC5000069
:100060008CC000008AC0000088C0000086C000006C
:1000700084C0000082C0000080C000007EC000007C
:100080007CC000007AC0000078C0000076C000008C
:1000900074C0000072C0000070C000006EC000009C
:1000A0006CC000006AC0000068C0000012011001AE
:1000B00000000008EB03452000000102DC010902FA
:1000C00020000101008032090400000208065000EF
:1000D00007058302400005070504024000050403EC
:1000E00009041E035300410046004500430041003F
:1000F0005300540020004A006100700061006E004F
:10010000000016036200470065006900670069008F
:10011000650020004E00580000005220256C692028
:1001200025690D0A005720256C692025690D0A00F4
:10013000534420626C6F636B733A20256C690D0A1F
:10014000000011241FBECFEFDAE0DEBFCDBF12E00A
:10015000A0E0B1E0ECEAF5E202C005900D92A83211
:10016000B107D9F714E0A8E2B2E001C01D92A93AA4
:10017000B107E1F70CD20C94D41242CFCF93DF93A6
:1001800084B7877F84BFC8E10FB6F894C09360003E
:10019000109260000FBE90E080E80FB6F894809354
:1001A0006100909361000FBE2AD5809A83E390E0AE
:1001B0009093CD008093CC0086E08093CA0010928B
:1001C000C800C093C900539A5A9A80E090E00E94F8
:1001D0009A0F00D000D080E091E0EDB7FEB7928397
:1001E000818389E491E0948383830E94C00F279ADE
:1001F0002F9810922C0210922B020F900F900F90BC
:100200000F90CAE0D0E0889A6AEF70E080E090E05A
:1002100010D588986AEF70E080E090E00AD52197C9
:1002200091F70E94160BDF91CF9108958BE291E038
:100230000E94F20F6AE070E080E090E0FAD4109241
:100240002C0210922B02EAE7F0E080818F77808306
:1002500080B7806880BF8FEF80937E0080937F009F
:1002600080937D002398E4E6F0E0808180688083BD
:1002700080818460808380818260808380818062CD
:100280008083808188608083E5E6F0E080818860FB
:10029000808383B7817F846083BF83B7816083BF9E
:1002A000889583B78E7F83BFEAE7F0E0808180681E
:1002B000808380B78F7780BF10927E0010927F007E
:1002C00010927D002398E4E6F0E080818F778083B0
:1002D00080818B7F808380818D7F808380818F7DF3
:1002E00080838081877F8083E5E6F0E08081877F5F
:1002F000808382E391E00C94F20F81E090E0909390
:100300002A0280932902889A1092280208958898D8
:1003100010922A0210922902089583E061E842E3D4
:100320000E944A0A84E060E842E30C944A0A809101
:100330008E048E3F89F08F3F09F580918D048132C4
:10034000E9F48091E800877F8093E8000E94810AA9
:1003500081E080932802089580918D04813A71F4A0
:100360008091E800877F8093E8001092F1008091EF
:10037000E8008E778093E8000C94810A08950F932B
:100380001F93DF93CF9300D0CDB7DEB780918C045D
:10039000843009F0F5C08093E9008091E80082FF85
:1003A000C5C01A8219828E010F5F1F4F05C0809150
:1003B0002802882309F0BAC089E694E06FE070E073
:1003C000A8010E94D40C853091F38091690490912A
:1003D0006A04A0916B04B0916C04853523E5920703
:1003E00022E4A20723E4B20789F4809176048823EB
:1003F00069F48091750490E08F719070009731F4EA
:1004000080917704882311F0813170F08091EB00A6
:1004100080628093EB0083E08093E9008091EB00A1
:1004200080628093EB0082C01A8219828E010F5F76
:100430001F4F05C080912802882309F077C0609182
:10044000770488E794E070E0A8010E94D40C85301E
:1004500089F38091E8008B778093E80080917504A0
:1004600087FF03C083E08093E90049D291E0982799
:100470009093480120916D0430916E0440916F0477
:100480005091700420934001309341014093420108
:100490005093430120917104309172044091730490
:1004A00050917404209344013093450140934601D8
:1004B00050934701913051F4211531054105510503
:1004C00029F08091EB0080628093EB0084E08093C0
:1004D000E90004C080912802882341F58091EB0057
:1004E00085FDF8CF83E08093E90004C08091280265
:1004F0008823E1F48091EB0085FDF8CF1A82198200
:100500008E010F5F1F4F04C080912802882371F471
:100510008CE391E06DE070E0A8010E94770C8530DB
:1005200099F38091E8008E778093E800809128020B
:10053000882331F180E18093EA001092EA0088E09C
:100540008093EA001092EA0084E08093E9008091B1
:10055000EB0080618093EB008091EB0088608093DA
:10056000EB0083E08093E9008091EB008061809351
:10057000EB008091EB0088608093EB0010922802E2
:100580000F900F90CF91DF911F910F910895CF930E
:10059000DF937894F3DDC0912902D0912A02C13013
:1005A000D10579F480912B0290912C02009729F4C7
:1005B00081D0D0932C02C0932B02E1DE0E94620F07
:1005C000EACF34DEE8CF923029F0933041F0913019
:1005D000F9F419C020E230E0EEEBF0E01DC081300C
:1005E00049F0813018F0823099F408C0EEEDF0E067
:1005F000249107C0E2EEF0E0249103C0E2E0F1E0D4
:10060000249130E009C022E130E0ECEAF0E004C0DF
:1006100020E030E0E0E0F0E0DA011196FC93EE93A8
:10062000C9010895CF93DF93EC018091E80085FD27
:1006300008C08091E8008E778093E80083D78823F4
:10064000A9F588818093F10089818093F1008A81E6
:100650008093F1008B818093F1008C818093F10075
:100660008D818093F1008E818093F1008F81809342
:10067000F10088858093F10089858093F1008A8557
:100680008093F1008B858093F1008C858093F1003D
:100690008D858093F1008E858093F1008F85809306
:1006A000F1008091280291E0892701C080E0DF916C
:1006B000CF91089587D48823E9F30895EF92FF92AC
:1006C0000F931F93E0903D02F0903E0200913F0295
:1006D00010914002E114F10401051105D9F581E4FE
:1006E00092E080D58823B1F180915202909153021B
:1006F000A0915402B091550229E0B695A79597951F
:1007000087952A95D1F780933D0290933E02A0935E
:100710003F02B093400200D000D000D080E391E0CF
:10072000EDB7FEB7928381831382148215821682FD
:100730000E94D20FE0903D02F0903E0200913F02F5
:10074000109140028DB79EB706960FB6F8949EBFE3
:100750000FBE8DBFB701C8011F910F91FF90EF90A1
:1007600008958F929F92AF92BF92CF92DF92EF92B5
:10077000FF920F931F93CF93DF934B015C01EA012C
:100780008DB79EB708970FB6F8949EBF0FBE8DBF6A
:10079000EDB7FEB731968AE191E0ADB7BEB71296DC
:1007A0009C938E93119782829382A482B582578301
:1007B00046830E94D20F8DB79EB708960FB6F89465
:1007C0009EBF0FBE8DBFBED6882359F5F9E0880CB9
:1007D000991CAA1CBB1CFA95D1F718C0C501B4011D
:1007E0004DE252E020E130E000E012E0E2E1EE2EE6
:1007F000E3E0FE2ECC24DD2476D3219780E092E046
:10080000A0E0B0E0880E991EAA1EBB1E209731F70B
:100810008091E80085FD05C08091E8008E77809387
:10082000E800DF91CF911F910F91FF90EF90DF9043
:10083000CF90BF90AF909F908F90089581E00895E2
:10084000282F892F922F0895EF92FF920F931F93D5
:10085000CF93DF93882341F480915101807F87609B
:100860008093510187E21BC0E0907D04F0907C04EE
:1008700000917B0410917A0480917F049091800410
:10088000DFDFEC011BDFE616F7060807190768F043
:1008900080915101807F85608093510181E2809336
:1008A0005B0110925C0180E023C0C801B701AE017A
:1008B00058DF9E0140E050E089E0220F331F441FC3
:1008C000551F8A95D1F78091710490917204A0917F
:1008D0007304B0917404821B930BA40BB50B80932B
:1008E000710490937204A0937304B093740481E034
:1008F000DF91CF911F910F91FF90EF9008950F938B
:100900001F93CF93DF93809178048D3109F4BBC09E
:100910008E3178F4833009F459C0843020F4882370
:1009200009F4F5C0FDC08231B9F08A3109F0F8C090
:10093000CCC0883209F4C3C0893238F48E3109F44E
:10094000E6C0853209F0ECC067C08A3209F4B5C050
:100950008F3209F0E5C0DBC080917B0490917C046C
:100960006FDF8C018091790490E083709070009724
:1009700009F08DC080917A04882309F088C0E801CD
:100980000532110510F0C4E2D0E081E691E0BE012D
:1009900040E050E0ACD7C8018C1B9D0B60E070E0DC
:1009A00061D78091E8008E778093E8009E0140E057
:1009B00050E08091710490917204A0917304B09101
:1009C0007404821B930BA40BB50B98C000917C049C
:1009D000C02F033108F0C2E18FE491E06C2F70E08A
:1009E00040E050E084D7802F90E08C1B910960E0BC
:1009F00070E038D78091E8008E778093E80080918E
:100A0000710490917204A0917304B09174048C1BD2
:100A10009109A109B10972C051DE61507040804056
:100A20009040292F3327442755272093F1009C011C
:100A3000442755272093F100272F382F492F55277A
:100A40002093F1006093F1001092F1001092F100F8
:100A500082E08093F1001092F100809128028823B7
:100A600009F073C08091E8008E778093E800809150
:100A7000710490917204A0917304B091740408976A
:100A8000A109B1093BC08091790482FD08C0809121
:100A90005101807F85608093510184E248C0CEDEA1
:100AA0008823A9F580915101807F84608093510152
:100AB00010925B0110925C0148C080E001C081E0AF
:100AC000C3DE882309F441C035C01092F1001092B2
:100AD000F10080E88093F1001092F1008091E8002D
:100AE0008E778093E8008091710490917204A091B8
:100AF0007304B09174040497A109B109809371043F
:100B000090937204A0937304B093740413C0109272
:100B100071041092720410927304109274040AC04B
:100B200080915101807F85608093510180E28093A4
:100B30005B01C0CF80915101807F80935101109261
:100B40005B0110925C0181E001C080E0DF91CF91F8
:100B50001F910F9108951F920F920FB60F921124BB
:100B60002F933F934F935F936F937F938F939F93B5
:100B7000AF93BF9320915E0230915F02409160027B
:100B80005091610270916202DA01C9010296A11DC1
:100B9000B11D672F6A5F6D3730F06D57DA01C901FB
:100BA0000396A11DB11D6093620280935E02909333
:100BB0005F02A0936002B093610280915A0290910B
:100BC0005B02A0915C02B0915D020196A11DB11D76
:100BD00080935A0290935B02A0935C02B0935D02F3
:100BE000BF91AF919F918F917F916F915F914F9145
:100BF0003F912F910F900FBE0F901F90189585B5C4
:100C0000826085BD85B5816085BDEEE6F0E08081BE
:100C10008160808308958FB7F89420915E023091AF
:100C20005F0240916002509161028FBFB901CA0119
:100C30000895EF92FF920F931F937B018C01EBDFDE
:100C4000E60EF71E081F191FE616F7060807190714
:100C500048F4E1DF6F3F2FEF72072FEF82072FEF8E
:100C60009207B9F7D8DF6E157F0580079107D0F39B
:100C70001F910F91FF90EF9008958EBD0DB407FE68
:100C8000FDCF08951EBC0DB407FEFDCF8EB50895AF
:100C90008F929F92AF92BF92CF92DF92EF92FF928C
:100CA0000F931F93CF93DF93F42E872E962EA52EAE
:100CB000EE24C5E8D1E008E110E028E2B22E90E48D
:100CC000C92EC82A88E1D82EE3948E2D823070F088
:100CD00062E370E080E090E0ACDF00D0EDB7FEB7FB
:100CE000D283C1830E94C00F0F900F900FB6F8946B
:100CF000A895009360000FBEB092600088982F9A6C
:100D00008C2DBBDF882DB9DF892DB7DF8A2DB5DFAC
:100D10008F2DB3DFB7DF2F98889A0FB6F894D09253
:100D20006000109260000FBEFE2DFF3F21F08A3F51
:100D300009F4CACF01C08FEFDF91CF911F910F91BE
:100D4000FF90EF90DF90CF90BF90AF909F908F90EB
:100D50000895209828982198299822982A98239ACB
:100D600080E48CBD8EB58DB5089580916302882393
:100D700099F460916402709165028091660290918D
:100D8000670248E652E020E032E068D1882331F083
:100D900081E080936302089581E0089580E00895E2
:100DA0002F923F924F925F926F927F928F929F927B
:100DB000AF92BF92CF92DF92EF92FF920F931F9369
:100DC000CF93DF932B013C018A017901212C42E072
:100DD000342E6FC03FEFC32E31E0D32EC420D52078
:100DE000C601A0E0B0E053014201881A990AAA0A9C
:100DF000BB0AE101CC19DD09EC16FD0608F4E70198
:100E00008091640290916502A0916602B0916702A0
:100E100088169906AA06BB0609F438C0A6DF8823FF
:100E200009F44DC081E1B501A40132DF882309F046
:100E300046C088E190E029E00FB6F894A895809329
:100E400060000FBE209360008FEE17DFE8E6F2E04F
:100E50001EBC0DB407FEFDCF8EB5819384E0E8364D
:100E6000F807B1F78092640290926502A092660240
:100E7000B092670298E10FB6F894909360001092D8
:100E800060000FBE8BEAF9DE8DECF7DE9601285983
:100E90003D4FC801B901AE010E94B70F0C0F1D1FD5
:100EA000EC1AFD0ACE01A0E0B0E0480E591E6A1E01
:100EB0007B1EE114F10409F08DCF81E001C080E0D8
:100EC000DF91CF911F910F91FF90EF90DF90CF9026
:100ED000BF90AF909F908F907F906F905F904F905A
:100EE0003F902F9008952F923F924F925F926F9272
:100EF0007F928F929F92AF92BF92CF92DF92EF92AA
:100F0000FF920F931F93DF93CF9300D000D0CDB704
:100F1000DEB74B015C013A013C832B83411551053F
:100F2000B9F121153105A1F10217130788F1E11478
:100F3000F10471F1309521953F4F3A8329832B813C
:100F40003C81021B130B190144245524C501B40133
:100F5000A3012B813C8124DF8823D1F0C301B5019B
:100F6000A4019601F70109958823A1F089819A814E
:100F7000080F191F8B819C81800F911FEB81FC81D1
:100F80008E179F0738F0820C931CA41CB51CDECF73
:100F900080E001C081E00F900F900F900F90CF91F3
:100FA000DF911F910F91FF90EF90DF90CF90BF9056
:100FB000AF909F908F907F906F905F904F903F90F9
:100FC0002F900895C6DE00D08CE891E0EDB7FEB713
:100FD00092838183D5D70F900F908CE348E756E535
:100FE00064E372E155DE8F3F19F483EA91E02EC08D
:100FF0008DEA91E0F7D7109268048FEF9FEFDC0144
:101000008093640290936502A0936602B093670296
:1010100081E08093630264E670E080E090E009DEA6
:1010200000D088EB91E0EDB7FEB792838183A8D71B
:101030000F900F9060E070E0CB0148E652E020E0B6
:1010400032E0AEDE882329F481ED91E0CBD780E059
:1010500008958AED91E0C6D781E008952F923F92DE
:101060004F925F926F927F928F929F92AF92BF92B8
:10107000CF92DF92EF92FF920F931F93CF93DF9364
:101080002B013C014A018901212C72E0372E90C0CE
:101090006FEFA62E61E0B62EA420B520C501A0E01A
:1010A000B0E073016201C81AD90AEA0AFB0AE10139
:1010B000CA19DB090C171D0708F4E80180916402C6
:1010C00090916502A0916602B0916702C816D90698
:1010D000EA06FB06E9F049DE882309F46FC0A11493
:1010E000B10421F422E0C030D20751F0C701B601AB
:1010F00048E652E020E032E053DE882309F45EC087
:10110000C0926402D0926502E0926602F092670299
:1011100088E6881682E0980669F0950128593D4FC7
:10112000C901B401AE0123D7109263020C171D0749
:1011300009F442C088E1B701A601AADD882309F0BD
:101140003DC0E8E1F0E029E00FB6F894A895E093FF
:1011500060000FBE209360008EEF8FDD58E6C52E35
:1011600052E0D52EF60181916F0187DDF8E6CF16AA
:10117000F4E0DF06B9F78FEF80DD8FEF7EDD82DDF3
:101180008823E1F088E10FB6F89480936000109214
:1011900060000FBE8C0E9D1ECE01A0E0B0E0480E98
:1011A000591E6A1E7B1E0C1B1D0B21E0209363023F
:1011B0000115110509F06CCF81E001C080E0DF91DD
:1011C000CF911F910F91FF90EF90DF90CF90BF9044
:1011D000AF909F908F907F906F905F904F903F90D7
:1011E0002F9008952F923F924F925F926F927F922D
:1011F0008F929F92AF92BF92DF92EF92FF920F93E6
:101200001F93DF93CF9300D00F92CDB7DEB71C01B1
:10121000009709F429C189E1D1011D928A95E9F766
:1012200084EE91E0DFD6F7DC4B015C018EE340E019
:1012300050E0BA012DDD882321F088EF91E0D2D66D
:1012400013C1D22C022D132DB0E6EB2EF12C1ADD9A
:10125000902F9D19983028F49330A0F4992361F0D1
:101260000EC09D3018F49930A8F40FC09D3071F174
:101270009E3009F03FC02FC0F10180833BC0D801F0
:101280008C9338C0F801818335C0D1011A968C93B4
:101290001A9730C090E0A0E0B0E00E2C04C0880F98
:1012A000991FAA1FBB1F0A94D2F7F1012385348529
:1012B00045855685282B392B4A2B5B2BD1011B9654
:1012C0002D933D934D935C931E9714C08295807F20
:1012D000F10187870FC0282F22952F70D1011F960B
:1012E0009C911F97922B1F969C931F978F705096DF
:1012F0008C9350970F5F1F4FE8EFFFEFEE0EFF1E2E
:10130000F0EDEF16FFEFFF0609F0A1CF20E0EE248D
:10131000FF24870130E040E0DD24D3942B833A831F
:101320004983B0DC2B813A8149812E30D1F490E0A1
:1013300086FF04C0D1015596DC92559785FF02C007
:10134000F101D68A84FF04C0D1015796DC925797E9
:101350008C7090709595879595958795F101808F04
:101360005CC02730F9F0283030F4253061F02630A9
:1013700009F053C00BC02930A9F1293010F12A30EF
:1013800009F04BC033C0482F4F7047C090E0A0E039
:10139000B0E083709070A070B070EE24F82E092F2A
:1013A0001A2F3BC090E0A0E0B0E0E82AF92A0A2B0F
:1013B0001B2BE2E0EE0CFF1C001F111FEA95D1F77A
:1013C0002CC0829586958695837090E0A0E0B0E071
:1013D000E82AF92A0A2B1B2B0894E11CF11C011D99
:1013E000111D1BC0382F3370330F17C0881F88277B
:1013F000881F382B842F90E00296830F911D2701C0
:10140000380104C0440C551C661C771C8A95D2F721
:10141000F101418A528A638A748A2F5F223109F06E
:101420007DCFF9DB00D000D000D02BE032E0ADB7AB
:10143000BEB712963C932E931197AA24BB24681929
:1014400079098A099B09EDB7FEB7638374838583A5
:10145000968396D58DB79EB706960FB6F8949EBF25
:101460000FBE8DBF81E001C080E00F900F900F9004
:10147000CF91DF911F910F91FF90EF90DF90BF9080
:10148000AF909F908F907F906F905F904F903F9024
:101490002F900895982F2CC0292F2F702093E900AA
:1014A000981739F07091EC002091ED005091F00008
:1014B00003C0242F762F50E021FF19C03091EB009C
:1014C0003E7F3093EB003091ED003D7F3093ED0097
:1014D0003091EB0031603093EB007093EC0020937F
:1014E000ED005093F0002091EE0027FF08C09F5FB1
:1014F000973090F28F708093E90081E0089580E04A
:10150000089580918D0487FF13C004C080918C04DE
:101510008823B9F08091E80082FFF8CF8091E8003D
:101520008B778093E800089580918C04882349F09C
:101530008091E80080FFF8CF8091E8008E7780935B
:10154000E80008958091E4009091E50044E6209140
:10155000EC0020FF26C02091E80020FD16C020915D
:101560008C042223A1F02530A1F02091EB0025FD71
:1015700012C02091E4003091E5002817390739F3B3
:10158000442359F04150C901E2CF80E0089582E040
:10159000089583E0089581E0089584E0089580E04F
:1015A00008952091E80022FFDACFF9CF0F931F931F
:1015B000CF93DF9346D04DD0C8EDD0E088818F77B0
:1015C000888388818068888388818F7D888319BC1F
:1015D00010928C041092880410928A04109289044C
:1015E00000EE10E0F80180818B7F8083888181602C
:1015F000888380E060E042E04DDFE1EEF0E0808152
:101600008E7F8083E2EEF0E0808181608083808144
:1016100088608083F80180818E7F808388818061EB
:101620008883DF91CF911F910F910895E7EDF0E04E
:1016300080818160808384E082BF81E080938B041D
:10164000B5CFE8EDF0E080818E7F80831092E200DC
:1016500008951092DA001092E10008951F920F92FF
:101660000FB60F9211242F933F934F935F936F9375
:101670007F938F939F93AF93BF93EF93FF9380914B
:10168000E10082FF0AC08091E20082FF06C08091E3
:10169000E1008B7F8093E10014D48091DA0080FF19
:1016A0001EC08091D80080FF1AC08091DA008E7F22
:1016B0008093DA008091D90080FF0CC019BC82E0D1
:1016C00089BD09B400FEFDCF81E080938C040E94A7
:1016D0007D0105C019BC10928C040E948701809185
:1016E000E10080FF18C08091E20080FF14C080916B
:1016F000E2008E7F8093E2008091E200806180931F
:10170000E2008091D80080628093D80019BC85E007
:1017100080938C04D6D38091E10084FF2CC080910B
:10172000E20084FF28C019BC82E089BD09B400FE34
:10173000FDCF8091D8008F7D8093D8008091E1000B
:101740008F7E8093E1008091E2008F7E8093E200A3
:101750008091E20081608093E20080918804882378
:1017600021F48091E30087FF02C084E001C081E0A2
:1017700080938C04A6D38091E10083FF27C08091E1
:10178000E20083FF23C08091E100877F8093E10026
:1017900082E080938C04109288048091E1008E7F17
:1017A0008093E1008091E2008E7F8093E20080913F
:1017B000E20080618093E20080E060E042E06ADE67
:1017C0008091F00088608093F0007BD3FF91EF91CF
:1017D000BF91AF919F918F917F916F915F914F9149
:1017E0003F912F910F900FBE0F901F9018951F9251
:1017F0000F920FB60F9211242F933F934F935F9345
:101800006F937F938F939F93AF93BF93CF93EF93F8
:10181000FF93C091E900CF708091EC001092E90035
:101820008091F000877F8093F0007894E1D110924E
:10183000E9008091F00088608093F000C093E90097
:10184000FF91EF91CF91BF91AF919F918F917F9138
:101850006F915F914F913F912F910F900FBE0F901D
:101860001F901895DF92EF92FF920F931F93CF93E3
:10187000DF93EC018B0166DED82E882379F5011504
:10188000110529F0F80120813181C21BD30BEE2410
:10189000FF2420C08091E80085FD16C08091E800FB
:1018A0008E778093E8000115110551F0F8018081D1
:1018B00091818E0D9F1D9183808395E0D92E0EC05E
:1018C00041DE882339F009C01092F1002197089475
:1018D000E11CF11C2097F1F601C0D82E8D2DDF916F
:1018E000CF911F910F91FF90EF90DF9008958F920D
:1018F0009F92BF92CF92DF92EF92FF920F931F932E
:10190000DF93CF930F92CDB7DEB7E82E4B018A015C
:10191000998318DEB82E99818823C1F5F92E011517
:10192000110539F0F80120813181821A930AE20E03
:10193000F31ECC24DD2425C08091E80085FD16C06F
:101940008091E8008E778093E8000115110551F031
:10195000F801808191818C0D9D1D9183808325E00C
:10196000B22E14C0EFDD882361F00FC0F701819122
:101970007F018093F1000894810891080894C11CAC
:10198000D11C81149104C1F601C0B82E8B2D0F908B
:10199000CF91DF911F910F91FF90EF90DF90CF904B
:1019A000BF909F908F9008958F929F92BF92CF92F9
:1019B000DF92EF92FF920F931F93DF93CF930F92DB
:1019C000CDB7DEB7E82E4B018A019983BBDDB82E77
:1019D00099818823C1F5F92E0115110539F0F80117
:1019E00020813181821A930AE20EF31ECC24DD2479
:1019F00025C08091E80085FD16C08091E8008B77B6
:101A00008093E8000115110551F0F8018081918162
:101A10008C0D9D1D9183808345E0B42E14C092DD12
:101A2000882361F00FC08091F100F70181937F015D
:101A30000894810891080894C11CD11C8114910458
:101A4000C1F601C0B82E8B2D0F90CF91DF911F9161
:101A50000F91FF90EF90DF90CF90BF909F908F906D
:101A60000895482F592FFA0180919304909194047E
:101A70008617970718F4BC0140E03CC0611571055A
:101A8000D9F78091E8008E778093E800F5CF8091B8
:101A90008C04882309F444C08530F1F18091E8007A
:101AA00083FD3CC08091E80082FD30C08091E80059
:101AB00080FF20C09091F3008091F200392F20E048
:101AC00090E0822B932B06C041914093F10061502E
:101AD000704001966115710519F088309105A0F3E9
:101AE00041E08830910509F040E08091E8008E7770
:101AF0008093E8006115710551F6442341F606C054
:101B000080918C04882361F0853061F08091E80039
:101B100082FFF6CF80E0089583E0089581E0089584
:101B200082E0089583E00895E82FF92F80919304CF
:101B3000909194048617970718F4BC0140E03EC0CA
:101B400061157105D9F78091E8008E778093E800E0
:101B5000F5CF80918C04882309F446C0853009F4C0
:101B60003FC08091E80083FD3DC08091E80082FD88
:101B700031C08091E80080FF21C09091F3008091F6
:101B8000F200392F20E090E0822B932B07C0449184
:101B90004093F100319661507040019661157105D6
:101BA00019F08830910598F341E08830910509F0EB
:101BB00040E08091E8008E778093E8006115710520
:101BC00041F6442331F606C080918C04882361F0ED
:101BD000853061F08091E80082FFF6CF80E00895C3
:101BE00083E0089581E0089582E0089583E00895F8
:101BF0000F931F93DF93CF93CDB7DEB7AC970FB69C
:101C0000F894DEBF0FBECDBFEDE8F4E08091F100A7
:101C1000819324E0E539F207C9F70E94970180918A
:101C2000E80083FF35C180918D0420918E0425301A
:101C300009F484C0263040F42130A1F1213070F045
:101C4000233009F025C12EC0283009F4F2C0293014
:101C500009F401C1263009F01BC194C0803821F07D
:101C6000823809F015C108C08091890490918A04D6
:101C7000992371F082600CC0809191048F708093E1
:101C8000E9009091EB0081E095FF80E01092E9007F
:101C90009091E800977F9093E8008093F100109274
:101CA000F100D2C0882319F0823009F0F1C090E031
:101CB0008F719070009729F08230910509F0E8C08B
:101CC0000BC080918F04813009F0E2C0233009F00D
:101CD00080E080938A042CC080918F04882341F592
:101CE000209191042F7009F4D3C02093E9008091D2
:101CF000EB0080FF1DC080918E04833021F4809121
:101D0000EB00806213C08091EB0080618093EB0058
:101D100081E090E002C0880F991F2A95E2F7809336
:101D2000EA001092EA008091EB0088608093EB005B
:101D30001092E9008091E800877F89C0882309F02C
:101D4000A7C010918F041F770FB7F8948091E80017
:101D5000877F8093E800D5DB8091E80080FFFCCF8F
:101D60008091E3008078812B8093E30080688093EA
:101D7000E300112311F083E001C082E080938C0422
:101D80000FBF86C08058823008F082C080918F04D7
:101D90009091900423E08C3D920791F583E08C8331
:101DA0008AE28B835FB7F894DE01159680E090E0BD
:101DB0004EE061E2E42FF0E060935700E49180FF91
:101DC00003C0E295EF704F5FEF702E2F30E0EA30E6
:101DD00018F0295C3F4F02C0205D3F4F2D933D938B
:101DE00001968431910531F75FBF8091E800877FCC
:101DF0008093E800CE0103966AE270E032DE13C001
:101E000060919104AE014F5F5F4F0E94E302BC01FD
:101E1000009709F43DC08091E800877F8093E80037
:101E200089819A8181DE8091E8008B778093E80038
:101E30002FC0803869F58091E800877F8093E800A3
:101E4000809188048093F1008091E8008E778093E0
:101E5000E80057DB1DC08823D9F490918F0492309D
:101E6000B8F48091E800877F8093E800909388041D
:101E700048DB80918804882321F48091E30087FF68
:101E800002C084E001C081E080938C040E948D0137
:101E90008091E80083FF0AC08091EB00806280930C
:101EA000EB008091E800877F8093E800AC960FB646
:101EB000F894DEBF0FBECDBFCF91DF911F910F9180
:101EC00008950895CF9380918C048823A9F0809180
:101ED000E9008F709091EC0090FF02C0C0E801C053
:101EE000C0E0C82B1092E9008091E80083FF01C098
:101EF0007FDECF70C093E900CF9108959091C80024
:101F000095FFFCCF8093CE0080E090E00895809113
:101F1000C80087FF08C08091C80087FF07C02091D4
:101F2000CE0030E005C02EEF3FEF02C02FEF3FEFB5
:101F3000C9010895FC01009751F4E5E9F4E0F0933C
:101F4000A404E093A304F093A604E093A5048EE018
:101F5000DF011D928A95E9F783E083838EE79FE096
:101F60009187808787E89FE0938782870895FB01A8
:101F7000DC0102C001900D9241505040D8F7089505
:101F8000A0E0B0E0E5ECFFE0E8C2FE01359661912B
:101F900071918091A5049091A604AF0156D020962E
:101FA000E2E0F7C2A0E0B0E0E7EDFFE0D6C2FE015C
:101FB0003596619171918091A5049091A604DC0100
:101FC00013962C911397286013962C93AF013DD054
:101FD000E091A504F091A6042381277F2383209616
:101FE000E2E0D7C20F931F93CF93DF938C01E09170
:101FF000A504F091A604838181FF1FC0C0E0D0E05A
:102000000AC0DB011896ED91FC911997099500978C
:1020100011F0CFEFDFEFF80181918F016091A504FE
:102020007091A604882369F7DB011896ED91FC9165
:1020300019978AE00995009711F0CFEFDFEFCE01F5
:10204000DF91CF911F910F910895ACE0B0E0EAE2EB
:10205000F0E173C26C011B018A01FC011782168238
:10206000838181FFC4C12E010894411C511CF601DB
:102070009381F10193FD859193FF81911F01882345
:1020800009F4B1C1853239F493FD859193FF8191B3
:102090001F01853221F490E0B601C5D1E8CFEE24CE
:1020A000FF2420E02032B0F48B3269F08C3228F427
:1020B000803251F0833271F40BC08D3239F08033AD
:1020C00049F421602CC02260246029C0286027C008
:1020D000206125C027FD2CC0382F30533A3098F4AA
:1020E00026FF08C08E2D880FE82EEE0CEE0CE80EB1
:1020F000E30E15C08F2D880FF82EFF0CFF0CF80E85
:10210000F30E20620CC08E3221F426FD6CC12064D7
:1021100006C08C3611F4206802C0883649F4F101FB
:1021200093FD859193FF81911F01882309F0BACF18
:10213000982F9554933018F09052933028F40C5FF8
:102140001F4FFFE3F9830DC0833631F0833771F001
:10215000833509F05CC021C0F801808189830E5F5E
:102160001F4F420171E0A72EB12C15C062E0662E10
:10217000712C600E711EF8018080918026FF03C0D3
:102180006E2D70E002C06FEF7FEFC4012C8740D14D
:102190005C0183012C852F7716C052E0652E712CCF
:1021A000600E711EF8018080918026FF03C06E2DA5
:1021B00070E002C06FEF7FEFC4012C871ED15C017D
:1021C0002C852068830123FD1EC007C080E290E0BB
:1021D000B6012C8728D1FA942C858F2D90E0A81673
:1021E000B906A0F310C0F40127FD859127FF819166
:1021F0004F0190E0B6012C8716D12C85F110FA948E
:102200000894A108B108A114B10469F7E9C08436A3
:1022100011F0893641F527FF08C0F801608171810E
:10222000828193810C5F1F4F09C0F8016081718129
:10223000882777FD8095982F0E5F1F4F4FE6B42EAD
:10224000B22297FF09C090958095709561957F4F58
:102250008F4F9F4FF0E8BF2AA2012AE030E00FD154
:10226000782E741844C0853731F43FEEB32EB22275
:102270002AE030E025C099EFB92EB2228F36C1F0A6
:10228000803720F4883509F0AEC00DC0803721F0CA
:10229000883709F0A8C002C020E1B22AB4FE0BC002
:1022A00084E0B82A08C0B4FE09C0E6E0BE2A06C031
:1022B00028E030E005C020E130E002C020E132E05B
:1022C000B7FE08C0F80160817181828193810C5F43
:1022D0001F4F07C0F8016081718180E090E00E5FC0
:1022E0001F4FA201CCD0782E7418FFE7BF22B6FE94
:1022F0000BC02EEFB2227E1438F4B4FE07C0B2FC3D
:1023000005C08FEEB82202C0A72C01C0AE2C8B2DC9
:1023100090E0B4FE0DC0FE01E70DF11D20812033D9
:1023200019F4E9EEBE2209C0A394B2FE06C004C0AF
:1023300086789070009709F0A3948B2C9924B3FCB5
:1023400013C0B0FE0EC0AF1428F4E72CEF0CEA184F
:10235000AF2C07C0E72C05C080E290E0B60163D047
:10236000A394AF14C8F304C0AF1410F4FA1801C05A
:10237000FF2484FE0EC080E390E0B60154D082FEBC
:102380001DC081FE03C088E590E010C088E790E0A2
:102390000DC0C40186789070009781F081FC02C066
:1023A00080E201C08BE2B7FC8DE290E0B6013BD049
:1023B00005C080E390E0B60136D0EA947E14C8F3FD
:1023C0007A94F201E70DF11D808190E0B6012BD0E7
:1023D0007720B1F705C080E290E0B60124D0FA94EE
:1023E000FF20C9F744CEF6012681378102C02FEFC6
:1023F0003FEFC9012C96E2E1BCC0FC0105906150A1
:1024000070400110D8F7809590958E0F9F1F08950A
:10241000FC016150704001900110D8F780959095B3
:102420008E0F9F1F08950F931F93CF93DF938C01FF
:10243000EB018B8181FF1BC082FF0DC02E813F818C
:102440008C819D812817390764F4E881F981019313
:10245000F983E88306C0E885F985802F0995009700
:1024600031F48E819F8101969F838E8302C00FEF8E
:102470001FEFC801DF91CF911F910F910895FA01CD
:10248000AA27283051F1203181F1E8946F936E7FB3
:102490006E5F7F4F8F4F9F4FAF4FB1E03ED0B4E0A4
:1024A0003CD0670F781F891F9A1FA11D680F791FE5
:1024B0008A1F911DA11D6A0F711D811D911DA11DF6
:1024C00020D009F468943F912AE0269F1124301906
:1024D000305D3193DEF6CF010895462F4770405DA1
:1024E0004193B3E00FD0C9F7F6CF462F4F70405D50
:1024F0004A3318F0495D31FD4052419302D0A9F7AB
:10250000EACFB4E0A6959795879577956795BA95A4
:10251000C9F700976105710508959B01AC010A2E6A
:1025200006945795479537952795BA95C9F7620F41
:10253000731F841F951FA01D08952F923F924F92E5
:102540005F926F927F928F929F92AF92BF92CF9243
:10255000DF92EF92FF920F931F93CF93DF93CDB74C
:10256000DEB7CA1BDB0B0FB6F894DEBF0FBECDBFC4
:1025700009942A88398848885F846E847D848C8495
:102580009B84AA84B984C884DF80EE80FD800C819E
:102590001B81AA81B981CE0FD11D0FB6F894DEBF81
:0C25A0000FBECDBFED010895F894FFCFF1
:1025AC0057656C636F6D6520746F20624765696752
:1025BC006965204D61737353746F72616765205642
:1025CC00657273696F6E2D25730A00536C656570A7
:1025DC000D0057616B65205570210D00555342530A
:1025EC00000000000000000000332E312E3100707E
:1025FC000000000000000A000000000000000000C5
:10260C0000008000021F0000004C554641000000F5
:10261C000044617461666C617368204469736B007B
:10262C0000302E30305265747279200053656E6420
:10263C00205344206F6E20636F6D6D616E642E2E7F
:10264C002E2000206661696C65642E0D0020737568
:10265C0063636573732E0D005072652D6772616232
:10266C0020666972737420626C6F636B2E2E2E2041
:10267C00006661696C65642E0D0073756363657328
:10268C00732E0D00477261622053442063617264A3
:10269C0020696E666F2E0D004772616220696E664E
:1026AC006F206661696C65642E0D00477261622053
:1026BC00696E666F207375636365737320696E2032
:0826CC002568752E0D0A0000BF
:00000001FF
