:10000000BCC00000D6C00000D4C00000D2C00000B8
:10001000D0C00000CEC00000CCC00000CAC00000AC
:10002000C8C00000C6C000000C94970D0C94610E6F
:10003000C0C00000BEC00000BCC00000BAC00000CC
:10004000B8C00000B6C00000B4C00000B2C00000DC
:10005000B0C00000AEC00000ACC00000FDC5000094
:10006000A8C0000040C20000A4C00000A2C0000060
:10007000A0C000009EC000009CC000009AC000000C
:1000800098C0000096C0000094C0000092C000001C
:1000900090C000008EC000008CC000008AC000002C
:1000A00088C0000086C0000084C000003E034C00F1
:1000B000550046004100200043004400430020005A
:1000C00061006E00640020004D0061007300730049
:1000D0002000530074006F0072006100670065002B
:1000E0002000440065006D006F000000180344000C
:1000F000650061006E002000430061006D00650036
:100100007200610000000403090409025D0003019C
:1001100000C032080B0002020201000904000001C5
:100120000202010005240010010424020605240631
:100130000001070581030800FF09040100020A000D
:1001400000000705030210000507058202100005E4
:100150000904020002080650000705840240000559
:100160000705050240000512011001EF020108EB2E
:1001700003682001000102DC010011241FBECFEF43
:10018000DAE0DEBFCDBF11E0A0E0B1E0ECE9F6E2DD
:1001900002C005900D92AA38B107D9F714E0AAE879
:1001A000B1E001C01D92AE3FB107E1F7C7D00C949A
:1001B0004C1326CFFC01A081B1816C938081918189
:1001C000019691838083268137818217930721F4DA
:1001D00084819581918380832FB7F894828593855C
:1001E0000196938782872FBF0895FC01A281B38176
:1001F0008D91B383A28326813781A217B30721F49F
:1002000024813581338322839FB7F89422853385F7
:1002100021503109338722879FBF089588E10FB6A7
:10022000F89480936000109260000FBE90E080E828
:100230000FB6F89480936100909361000FBE56D57D
:10024000809A86E08093CA001092C80088E9809363
:10025000C9008CE090E09093CD008093CC00279A69
:100260002F981092B3021092B2020E947A0D88E089
:100270008093C1008FEF8093D10008956AE070E011
:1002800080E090E051D51092B3021092B202EAE7FA
:10029000F0E080818F77808380B7806880BF8FEFA8
:1002A00080937E0080937F0080937D002398E4E616
:1002B000F0E0808180688083808184608083808199
:1002C0008260808380818062808380818860808377
:1002D000E5E6F0E080818860808383B7817F846079
:1002E00083BF83B7816083BF889583B78E7F83BFC9
:1002F000EAE7F0E080818068808380B78F7780BFF5
:1003000010927E0010927F0010927D002398E4E608
:10031000F0E080818F77808380818B7F80838081F4
:100320008D7F808380818F7D80838081877F8083A4
:10033000E5E6F0E08081877F808308956FDFEAE85B
:10034000F1E04FB7F89486E991E09183808393833D
:1003500082839583848386E192E09783868320E875
:1003600030E031872087138612864FBFE6E1F2E046
:100370004FB7F89482E292E09183808393838283E3
:100380009583848382EA92E09783868331872087EE
:10039000138612864FBF62EA72E089E391E00E9401
:1003A0000711789404B603FC11C0CAE0D0E0889A23
:1003B0006AEF70E080E090E0B7D488986AEF70E070
:1003C00080E090E0B1D4219791F703C084B7877F94
:1003D00084BFC091B002D091B102C130D10509F003
:1003E00061C08091B2029091B302892B29F47BD134
:1003F000D093B302C093B2028FB7F89420919401C6
:10040000309195018FBF80919201909193012817AF
:10041000390751F089E391E00E94C51097FD04C0AF
:10042000682F8AE891E0C6DE8FB7F894C091200269
:10043000D09121028FBFCA990DC0C136D10550F4A9
:100440002FB7F89480919401909195012FBF892B3B
:10045000F1F014C0CA9A0FC0E0911802F09119028D
:10046000608189E391E00E944A1021978111E8CFD1
:1004700086E192E0BADE209779F7E2CF8AE891E050
:10048000B4DE9091C80095FFFCCF8093CE0089E345
:1004900091E00E94AF1080E091E00E9429120E943A
:1004A000091097CFEBDE95CF81E090E09093B102F9
:1004B0008093B002889A089588981092B1021092A1
:1004C000B002089589E391E00E94251080E091E058
:1004D0000C940C1289E391E00E941B1180E091E0E2
:1004E0000C94CD118DC21F920F920FB60F92112452
:1004F0002F933F934F935F936F937F938F939F932C
:10050000AF93BF93EF93FF936091CE008091F5047A
:10051000843019F486E192E04DDEFF91EF91BF91B6
:10052000AF919F918F917F916F915F914F913F918B
:100530002F910F900FBE0F901F9018950895292F9F
:1005400033272230310539F02330310549F021308D
:10055000310521F128C0EDE5F0E08AE091E027C007
:1005600099278130910561F08230910581F0892BC6
:10057000D1F4E6E0F1E0E491F0E086E091E017C02C
:10058000ECEEF0E0E491F0E08CEE90E010C0ECEAEC
:10059000F0E0E491F0E08CEA90E009C0E2E1F0E004
:1005A00087E691E004C0E0E0F0E080E090E0DA016E
:1005B0008D939C93CF0108950F931F93CF93DF9357
:1005C0008C01EB018091E80085FF35C08881809324
:1005D000F10089818093F1008A818093F1008B8101
:1005E0008093F1008C818093F1008D818093F100E4
:1005F0008E818093F1008F818093F10088858093B4
:10060000F10089858093F1008A858093F1008B85C4
:100610008093F1008C858093F1008D858093F100AB
:100620008E858093F1008F858093F100F80180AD75
:1006300091E089270AC08091E8008E778093E800D6
:100640000E94080D882311F280E0DF91CF911F9165
:100650000F910895CF93DF93EB018091E80085FF20
:1006600033C08091F10088838091F100898380916B
:10067000F1008A838091F1008B838091F1008C835B
:100680008091F1008D838091F1008E838091F10043
:100690008F838091F10088878091F1008987809114
:1006A000F1008A878091F1008B878091F1008C871F
:1006B0008091F1008D878091F1008E878091F1000B
:1006C0008F8720E130E00BC08091E8008B7780932A
:1006D000E8000E94080D882321F220E030E0C901E3
:1006E000DF91CF910895D3D48823E9F398D38093F1
:1006F000B4020895CF92DF92EF92FF92C090B502BC
:10070000D090B602E090B702F090B802C114D104C4
:10071000E104F104E1F489EB92E0FED58823B9F01D
:10072000C090CA02D090CB02E090CC02F090CD02F3
:1007300089E0F694E794D794C7948A95D1F7C0924C
:10074000B502D092B602E092B702F092B802B601BA
:10075000C701FF90EF90DF90CF9008952F923F92C6
:100760004F925F926F927F928F929F92AF92BF92C1
:10077000CF92DF92EF92FF920F931F93CF93DF936D
:1007800000D000D000D0CDB7DEB71C013E832D8352
:1007900049835A836B837C830E94080D49815A8167
:1007A0006B817C81811139C04A015B0129E0880C91
:1007B000991CAA1CBB1C2A95D1F7412C512C320143
:1007C0001FC0B301A201480D591D6A1D7B1DC12C1C
:1007D000D12C9AE2E92E93E0F92E00E012E022ED0E
:1007E00032E0C10140D5F10180ADF2E05F0E611C45
:1007F000711C811112C08D819E8101979E838D8312
:10080000ED81FE81EF2BE9F68091E80085FD05C0C2
:100810008091E8008B778093E80026960FB6F894D5
:10082000DEBF0FBECDBFDF91CF911F910F91FF9023
:10083000EF90DF90CF90BF90AF909F908F907F9080
:100840006F905F904F903F902F9008952F923F921E
:100850004F925F926F927F928F929F92AF92BF92D0
:10086000CF92DF92EF92FF920F931F93CF93DF937C
:10087000CDB7DEB728970FB6F894DEBF0FBECDBF59
:100880004C0119014D835E836F8378870E94080DA8
:100890004D815E816F81788581113BC0DB01CA018A
:1008A000F9E0880F991FAA1FBB1FFA95D1F789831A
:1008B0009A83AB83BC83412C512C32011EC04981E9
:1008C0005A816B817C81440D551D661D771DA12CBD
:1008D000B12C3CEDC32E32E0D32EE12CE2E0FE2E13
:1008E00000E110E022ED32E0C40165D391E0291A65
:1008F0003108A2E05A0E611C711C21143104F9F672
:100900008091E80085FD05C08091E8008E77809396
:10091000E80028960FB6F894DEBF0FBECDBFDF917A
:10092000CF911F910F91FF90EF90DF90CF90BF90EC
:10093000AF909F908F907F906F905F904F903F907F
:100940002F90089581E00895BF92CF92DF92EF92A9
:10095000FF920F931F93CF93DF93EC01B62E61119B
:100960000CC08091B402882341F080915601807FB1
:1009700087608093560187E213C0C8A0DF8CEE8C9D
:10098000FD8C0BA11AA1B6DEC616D706E806F9063D
:1009900068F080915601807F85608093560181E2E6
:1009A000809360011092610180E020C09801B7013E
:1009B000A601CE01BB2011F049DF01C0CFDEC80186
:1009C000A0E0B0E029E0880F991FAA1FBB1F2A955D
:1009D000D1F74C895D896E897F89481B590B6A0B59
:1009E0007B0B4C8B5D8B6E8B7F8B81E0DF91CF918E
:1009F0001F910F91FF90EF90DF90CF90BF900895DF
:100A0000CF92DF92EF92FF920F931F93CF93DF93DA
:100A1000CDB7DEB728970FB6F894DEBF0FBECDBFB7
:100A20008C01FC01838D8D3109F4A7C088F48231DB
:100A300009F138F4882309F4E2C0833009F0E5C0F5
:100A400046C08A3109F4B9C08B3109F0DEC0D7C085
:100A5000883209F4AEC038F48E3109F4D0C0853242
:100A600009F0D3C05DC08A3209F4A1C08F3209F009
:100A7000CCC0C5C0F801E78CF68C848D837009F07A
:100A800080C0858D81117DC06701F5E2EF16F1040C
:100A900018F044E2C42ED12C40E050E0B60186E6C6
:100AA00091E072D560E070E0C7018C199D0929D5ED
:100AB0008091E8008E778093E800F8018489958919
:100AC000A689B7898C199D09A109B10924C0F8012B
:100AD000E78CFE2CF2E1FE1510F432E1F32E40E03B
:100AE00050E06F2D70E084E591E04ED58E2D90E0C2
:100AF00060E070E08F19910904D58091E8008E774D
:100B00008093E800F80184899589A689B7898F19AF
:100B10009109A109B109848B958BA68BB78B81C0F4
:100B2000E9DD61507109810991096D837E838F83AD
:100B3000988780E092E0A0E0B0E089839A83AB835D
:100B4000BC8340E050E064E070E0CE01059669D5DA
:100B500040E050E064E070E0CE01019662D5809103
:100B6000E8008E778093E800F80184899589A6894A
:100B7000B7890897A109B109CECFF801848D82FD0C
:100B800008C080915601807F85608093560184E281
:100B900043C0D8DE811133C080915601807F8460CC
:100BA00080935601109260011092610145C060E08F
:100BB00001C061E0C801C8DE32C01092F10010929D
:100BC000F1008091B402882311F080E801C080E038
:100BD0008093F1001092F1008091E8008E7780936D
:100BE000E800F8014489558966897789445051099C
:100BF00061097109448B558B668B778B12C0F801A4
:100C0000148A158A168A178A0CC080915601807F33
:100C100085608093560180E280936001C5CF882370
:100C200059F080915601807F8093560110926001A7
:100C30001092610181E001C080E028960FB6F8941F
:100C4000DEBF0FBECDBFDF91CF911F910F91FF90FF
:100C5000EF90DF90CF9008951F920F920FB60F92F2
:100C600011242F933F938F939F93AF93BF938091C2
:100C7000E2029091E302A091E402B091E50230918A
:100C8000EA02232F2A5F2D3720F40296A11DB11D01
:100C900005C0232F27570396A11DB11D2093EA02FB
:100CA0008093E2029093E302A093E402B093E50202
:100CB0008091E6029091E702A091E802B091E902EA
:100CC0000196A11DB11D8093E6029093E702A093C7
:100CD000E802B093E902BF91AF919F918F913F914C
:100CE0002F910F900FBE0F901F90189585B58260C1
:100CF00085BD85B5816085BDEEE6F0E080818160CF
:100D0000808308950F931F938FB7F8940091E202A8
:100D10001091E3022091E4023091E5028FBFB80107
:100D2000C9011F910F910895CF92DF92EF92FF9228
:100D30006B017C01E7DFC60ED71EE81EF91EC61642
:100D4000D706E806F90630F4DDDF6F3F7F4F8F4F9F
:100D50009F4FD1F7D7DF6C157D058E059F05D0F32A
:100D6000FF90EF90DF90CF9008958EBD0DB407FEF9
:100D7000FDCF08951EBC0DB407FEFDCF8EB50895BE
:100D8000AF92BF92CF92DF92EF92FF920F931F9399
:100D9000CF93DF93A42E072FF62EE52E10E0C8E1A7
:100DA000D0E098E2D92E20E4C22EC82A38E1B32E32
:100DB0001F5F123028F062E370E080E090E0B4DF63
:100DC0000FB6F894A895C09360000FBED092600053
:100DD00088982F9A8C2DC9DF802FC7DF8F2DC5DF14
:100DE0008E2DC3DF8A2DC1DFC5DF2F98889A0FB6FD
:100DF000F894B0926000109260000FBE1F3F19F08F
:100E00008A3FB1F201C08FEFDF91CF911F910F9117
:100E1000FF90EF90DF90CF90BF90AF90089540E0AB
:100E200050E0BA0188E3ACDF91E0811101C090E0AD
:100E3000892F0895209828982198299822982A98EF
:100E4000239A80E48CBD8EB58DB508958091F00213
:100E5000811113C06091EC027091ED028091EE025D
:100E60009091EF0220E032E041EF52E03CD1882344
:100E700031F081E08093F002089581E0089580E0F0
:100E800008952F923F924F925F926F927F928F922E
:100E90009F92AF92BF92CF92DF92EF92FF920F9309
:100EA0001F93CF93DF934B015C018A01790148E1E5
:100EB000242E312C68C0D501C4019170AA27BB270C
:100EC0006C0124013501481A590A6A0A7B0AC0E0FC
:100ED000D2E0C81BD90BEC16FD0608F4E70180919F
:100EE000EC029091ED02A091EE02B091EF02481653
:100EF00059066A067B0609F436C0A8DF811102C0D4
:100F000080E046C0B301A20181E13ADF8111F8CF50
:100F100089E00FB6F894A895209260000FBE8093E8
:100F200060008FEE22DFE1EFF2E01EBC0DB407FEA1
:100F3000FDCF8EB5819384E0E13FF807B1F7409291
:100F4000EC025092ED026092EE027092EF0288E1A4
:100F50000FB6F89480936000109260000FBE8BEA89
:100F600004DF8DEC02DFC6018F509D4FAE01BC0146
:100F7000C8010E9443130C0F1D1FEC1AFD0A8C0EB2
:100F80009D1EA11CB11CE114F10409F094CF81E075
:100F9000DF91CF911F910F91FF90EF90DF90CF9055
:100FA000BF90AF909F908F907F906F905F904F9089
:100FB0003F902F9008952F923F924F925F926F92A1
:100FC0007F928F929F92AF92BF92CF92DF92EF92D9
:100FD000FF920F931F93CF93DF9300D000D000D0E8
:100FE000CDB7DEB71C012A013B0149011E830D83E9
:100FF0002115310511F480E031C08D819E8100976B
:10100000D1F3E816F906B8F3C114D104A1F3A0E0B6
:10101000B0E089839A83AB83BC832D813E81A40198
:10102000C301B2012EDF882331F38501A3019201B0
:10103000B401C101F6010995882379F089819A816B
:10104000AB81BC81480E591E6A1E7B1EAD81BE81DC
:10105000EA1AFB0AEA16FB0600F781E026960FB6AD
:10106000F894DEBF0FBECDBFDF91CF911F910F91DE
:10107000FF90EF90DF90CF90BF90AF909F908F90B8
:101080007F906F905F904F903F902F900895D2DEA9
:1010900048E756E564E372E18CE372DE8F3F01F1CD
:1010A0001092EB028FEF9FEFDC018093EC029093A4
:1010B000ED02A093EE02B093EF0281E08093F00284
:1010C00064E670E080E090E02FDE20E032E041EF67
:1010D00052E060E070E0CB01D4DE91E0811101C00C
:1010E00090E0892F08952F923F924F925F926F92D6
:1010F0007F928F929F92AF92BF92CF92DF92EF92A8
:10110000FF920F931F93CF93DF934B015C017A0102
:10111000890168E1262E312C8EC0D501C401917061
:10112000AA27BB276C0124013501481A590A6A0A0B
:101130007B0AC0E0D2E0C81BD90B0C171D0708F4CE
:10114000E8018091EC029091ED02A091EE02B09145
:10115000EF02481659066A067B06F9F077DE811120
:1011600002C080E06DC0C114D10469F4C11582E0F1
:10117000D80749F44092EC025092ED026092EE02E0
:101180007092EF020AC020E032E041EF52E0C3016A
:10119000B20177DE8111EECFE4CFE1EFEE16E2E0AF
:1011A000FE0639F4B301A20188E1EADD882381F06B
:1011B000D8CF96012F503D4FAE01B701C9010E9413
:1011C00043131092F0020C171D0761F781E038C03D
:1011D000FBE00FB6F894A895209260000FBEF09344
:1011E00060008EEFC2DD51EFC52E52E0D52EF60124
:1011F00081916F01BADDF1EFCF16F4E0DF06B9F7A8
:101200008FEFB3DD8FEFB1DDB5DD882309F4A9CF12
:1012100088E10FB6F89480936000109260000FBED2
:10122000EC0EFD1E8C0E9D1EA11CB11C0C1B1D0B7B
:1012300081E08093F0020115110509F06ECFC6CF51
:10124000DF91CF911F910F91FF90EF90DF90CF90A2
:10125000BF90AF909F908F907F906F905F904F90D6
:101260003F902F9008953F924F925F926F927F929E
:101270008F929F92AF92BF92CF92DF92EF92FF92A6
:101280000F931F93CF93DF934C012A013B01590128
:10129000E8012115310511F480E02CC0E114F104BE
:1012A000D9F333243394209701F1312C1EC08601E9
:1012B000A3019201B501C401F70109958C010097C2
:1012C00011F481E017C0311003C0C817D90720F30B
:1012D0009801A501C301B20106DF8823E9F2400E9F
:1012E000511E611C711CC01BD10B3110E0CF209727
:1012F000F1F6E7CFDF91CF911F910F91FF90EF9023
:10130000DF90CF90BF90AF909F908F907F906F9025
:101310005F904F903F9008958F929F92AF92BF92AF
:10132000CF92DF92EF92FF920F931F93CF93DF93B1
:101330001F92CDB7DEB74C01009711F480E0D3C007
:1013400089E1F40111928A95E9F740E050E0BA0191
:101350008EE316DD8111F2CFD82C740100E610E087
:101360009E2D9D19998306DD9981983028F493303C
:1013700090F4992359F00CC09D3018F4993088F4FA
:101380000DC09D3039F19E3099F529C0F40101C09E
:10139000F70180832DC0F70181832AC0F401828781
:1013A00027C090E0A0E0B0E0002E04C0880F991F95
:1013B000AA1FBB1F0A94D2F7F401438554856585A3
:1013C0007685482B592B6A2B7B2B4387548765875F
:1013D00076870EC08295807FF401878709C0282F09
:1013E00022952F70F4019785922B97878F70808BB1
:1013F000FFEFEF1AFF0A08501109003D2FEF120707
:1014000009F0AECF10E0C12CD12C760100E0A12C68
:10141000BB24B394AFDC1E30A9F486FF02C0F401F4
:10142000B58A85FF02C0F401B68A84FF02C0F401C8
:10143000B78A8C7090E09595879595958795F4017E
:10144000808F4CC01730D9F030F4153051F0163081
:1014500009F044C00AC0193031F1D0F01A30F1F56A
:1014600026C0FFE0AF2EA82239C08370C82ED12C31
:10147000E12CF12CFE2CED2CDC2CCC242FC0C82A26
:1014800072E0CC0CDD1CEE1CFF1C7A95D1F726C057
:101490008295869586958370C82AFFEFCF1ADF0A5A
:1014A000EF0AFF0A1BC0082F0370000F17C0881F28
:1014B0008827881F082B8A2D90E0800F911D0296A7
:1014C000A701960104C0220F331F441F551F8A95A0
:1014D000D2F7F401218B328B438B548B1F5F123177
:1014E00009F098CF81E00F90DF91CF911F910F917C
:1014F000FF90EF90DF90CF90BF90AF909F908F9034
:101500000895DF92EF92FF920F931F93CF93DF9393
:101510008C01EB017DD2D82E81112DC0209721F0B6
:1015200028813981021B130BE12CF12C1FC0809103
:10153000E80085FD14C08091E8008E778093E80074
:10154000209749F0888199818E0D9F1D998388830A
:1015500095E0D92E10C05CD2882341F00BC01092C8
:10156000F100015011098FEFE81AF80A0115110571
:10157000F1F601C0D82E8D2DDF91CF911F910F91E3
:10158000FF90EF90DF900895BF92CF92DF92EF929D
:10159000FF920F931F93CF93DF937C018B01EA019E
:1015A00037D2B82E811132C0209731F0288139818D
:1015B000021B130BE20EF31EC12CD12C22C0809112
:1015C000E80085FD14C08091E8008E778093E800E4
:1015D000209749F0888199818C0D9D1D998388837E
:1015E00025E0B22E13C014D2882359F00EC0F701A3
:1015F00081917F018093F10001501109FFEFCF1A13
:10160000DF0A01151105D9F601C0B82E8B2DDF9127
:10161000CF911F910F91FF90EF90DF90CF90BF90EF
:101620000895BF92CF92DF92EF92FF920F931F9394
:10163000CF93DF936C018B017A01EAD1B82E81112F
:1016400039C0E8012197CC0DDD1DE114F10439F01A
:10165000F70120813181021B130BC21BD30BC12C5C
:10166000D12C23C08091E80085FD16C08091E80050
:101670008E778093E800E114F10451F0F701808146
:1016800091818C0D9D1D9183808335E0B32E12C016
:10169000BFD1882351F00DC088818093F10021973C
:1016A00001501109FFEFCF1ADF0A01151105D1F61C
:1016B00001C0B82E8B2DDF91CF911F910F91FF901C
:1016C000EF90DF90CF90BF900895BF92CF92DF92BE
:1016D000EF92FF920F931F93CF93DF937C018B01C7
:1016E000EA0196D1B82E811132C0209731F02881BD
:1016F0003981021B130BE20EF31EC12CD12C22C028
:101700008091E80085FD14C08091E8008B7780937C
:10171000E800209749F0888199818C0D9D1D99835F
:10172000888345E0B42E13C073D1882359F00EC0CE
:101730008091F100F70181937F0101501109FFEFC2
:10174000CF1ADF0A01151105D9F601C0B82E8B2D6D
:10175000DF91CF911F910F91FF90EF90DF90CF908D
:10176000BF9008954091FC045091FD04461757071F
:1017700048F06115710539F44091E8004E774093C7
:10178000E80001C0BA01FC0140E033C08091F504DB
:10179000882309F442C0853009F441C08091E800F3
:1017A00083FD39C08091E80082FD2FC08091E80060
:1017B00080FF1FC09091F3008091F200392F20E04C
:1017C000A901482BCA0106C041914093F100615024
:1017D000710901966115710519F088309105A0F322
:1017E00041E0089709F040E08091E8008E7780930F
:1017F000E8006115710551F64111C8CF06C080910E
:10180000F504882351F0853051F08091E80082FF83
:10181000F6CF80E0089581E0089582E0089583E0A6
:1018200008954091FC045091FD044617570748F075
:101830006115710539F44091E8004E774093E80056
:1018400001C0BA01FC0140E034C08091F504882356
:1018500009F443C0853009F442C08091E80083FD5B
:101860003AC08091E80082FD30C08091E80080FF9E
:1018700020C09091F3008091F200392F20E0A9015F
:10188000482BCA0107C044914093F1003196615042
:10189000710901966115710519F08830910598F369
:1018A00041E0089709F040E08091E8008E7780934E
:1018B000E8006115710549F64111C7CF06C0809156
:1018C000F504882351F0853051F08091E80082FFC3
:1018D000F6CF80E0089581E0089582E0089583E0E6
:1018E0000895982F2CC09093E900981739F07091C3
:1018F000EC002091ED005091F00003C0242F762FD2
:1019000050E021FD02C09F5F1AC03091EB003E7F86
:101910003093EB003091ED003D7F3093ED0030913E
:10192000EB0031603093EB007093EC002093ED00FE
:101930005093F0002091EE0027FDE5CF07C09730CF
:1019400090F28F708093E90081E0089580E008951F
:101950000F931F93CF93DF93062FEC0110E02FC05E
:101960009881911103C01F5F259629C02C81E981C0
:10197000FA817B81892F8F70873010F080E022C040
:10198000223010F056E001C052E028E030E040E0A4
:1019900003C04F5F220F331F2E173F07D0F342952E
:1019A000407F452B692F661F6627661F90E4799F4D
:1019B00090011124622B95DF8111D5CFDFCF101359
:1019C000CFCF81E0DF91CF911F910F91089580914A
:1019D000F60487FD05C08091E80080FF0EC012C0AC
:1019E0008091E80082FD05C08091F5048111F8CF57
:1019F00008958091E8008B7708C08091F5048111EB
:101A0000EACF08958091E8008E778093E8000895EA
:101A10008091E4009091E50045E62091EC0020FDE6
:101A20001FC023C02091F504222391F0253091F0AE
:101A30002091EB0025FD10C02091E4003091E500DD
:101A40002817390751F34150C90139F784E0089547
:101A500082E0089583E0089581E0089580E008958C
:101A60002091E80020FFDECFF9CF2091E80022FF8F
:101A7000D9CFF4CF0F931F93CF93DF934BD052D096
:101A8000C8EDD0E088818F778883888180688883DB
:101A900088818F7D888319BC1092F5041092F1041F
:101AA0001092F3041092F20400EE10E0F80180812D
:101AB0008B7F808388818160888342E060E080E062
:101AC00010DFE1EEF0E080818E7F8083E2EEF0E0D7
:101AD000808181608083808188608083F80180813B
:101AE0008E7F8083888180618883DF91CF911F9171
:101AF0000F910895E8EDF0E080818F7E8083E7ED1F
:101B0000F0E080818160808384E082BF81E0809307
:101B1000F404B0CFE8EDF0E080818E7F80831092F6
:101B2000E20008951092DA001092E10008951F92E9
:101B30000F920FB60F9211242F933F934F935F9301
:101B40006F937F938F939F93AF93BF93EF93FF9385
:101B50008091E10082FF0AC08091E20082FF06C00E
:101B60008091E1008B7F8093E10052D28091DA0076
:101B700080FF1DC08091D80080FF19C08091DA00DD
:101B80008E7F8093DA008091D90019BC80FF0BC052
:101B900082E089BD09B400FEFDCF81E08093F504A9
:101BA0000E94540204C01092F5040E945C028091CD
:101BB000E10080FF18C08091E20080FF14C0809196
:101BC000E2008E7F8093E2008091E200806180934A
:101BD000E2008091D80080628093D80019BC85E033
:101BE0008093F50415D28091E10084FF2EC080918E
:101BF000E20084FF2AC019BC82E089BD09B400FE5E
:101C0000FDCF8091D8008F7D8093D8008091E10036
:101C10008F7E8093E1008091E2008F7E8093E200CE
:101C20008091E20081608093E2008091F10488233A
:101C300011F084E007C08091E30087FF02C083E0D9
:101C400001C081E08093F504E3D18091E10083FF3E
:101C500027C08091E20083FF23C08091E100877F4D
:101C60008093E10082E08093F5041092F10480916A
:101C7000E1008E7F8093E1008091E2008E7F80936F
:101C8000E2008091E20080618093E20042E060E047
:101C900080E027DE8091F00088608093F000B8D16A
:101CA000FF91EF91BF91AF919F918F917F916F9134
:101CB0005F914F913F912F910F900FBE0F901F900A
:101CC00018951F920F920FB60F9211242F933F93E6
:101CD0004F935F936F937F938F939F93AF93BF9334
:101CE000CF93EF93FF938091E9008F709091EC0078
:101CF00090FF02C090E801C090E0C92FC82B10925D
:101D0000E9008091F000877F8093F00078941CD0E8
:101D10001092E9008091F00088608093F000CF700D
:101D2000C093E900FF91EF91CF91BF91AF919F9147
:101D30008F917F916F915F914F913F912F910F9074
:101D40000FBE0F901F9018951F93CF93DF93CDB7C1
:101D5000DEB7AC970FB6F894DEBF0FBECDBFE6EF8F
:101D6000F4E08091F100819324E0EE3FF207C9F79F
:101D70000E946A028091E80083FF32C18091F604DC
:101D80009091F704953009F487C038F49130B1F19F
:101D900070F0933009F024C131C0983009F4F4C0D8
:101DA000993009F400C1963009F01AC19BC08038FF
:101DB00021F0823809F014C108C08091F20490919A
:101DC000F304992389F082600FC08091FA04909106
:101DD000FB048F7099278093E9008091EB0085FBCD
:101DE000882780F91092E9009091E800977F9093FE
:101DF000E8008093F1001092F100D1C0882319F01F
:101E0000823009F0EDC08F7121F0823009F0E8C016
:101E10000BC08091F804813009F0E2C0933009F0E2
:101E200080E08093F3042FC08091F80481112BC0CF
:101E30008091FA049091FB048F709927009709F420
:101E4000CFC08093E9002091EB0020FF1CC02091BF
:101E5000F704233021F48091EB00806212C090914E
:101E6000EB0090619093EB0021E030E001C0220F85
:101E70008A95EAF72093EA001092EA008091EB003D
:101E800088608093EB001092E9008091E800877FE2
:101E90008093E8009CDDA4C08111A2C08091F80469
:101EA0009091F9048F779927182F9091E3009078FB
:101EB000982B9093E3008091E800877F8093E8005F
:101EC00086DD8091E80080FFFCCF8091E300806890
:101ED0008093E300112311F083E001C082E080933E
:101EE000F5047EC08058823008F07AC08091F804F2
:101EF0009091F9048C3D23E0920771F583E08A8389
:101F00008AE289834FB7F894DE01139620E03EE021
:101F100051E2E32FF0E050935700E49120FF03C01B
:101F2000E295EF703F5FEF708E2F90E0EA3010F097
:101F3000C79601C0C0968D939D932F5F243149F7BA
:101F40004FBF8091E800877F8093E8006AE270E0ED
:101F5000CE01019607DC12C0AE01455D5F4F609176
:101F6000FA040E949F020097D9F12091E800277F90
:101F70002093E800BC018BA59CA553DC8091E80070
:101F80008B778093E8002CC0803851F58091E80071
:101F9000877F8093E8008091F1048093F100809125
:101FA000E8008E7775CF81111BC09091F8049230B4
:101FB000B8F48091E800877F8093E8009093F10463
:101FC00006DD8091F104811104C08091E30087FF58
:101FD00002C084E001C081E08093F5040E946202A7
:101FE0008091E80083FF0AC08091E800877F80939A
:101FF000E8008091EB0080628093EB00AC960FB616
:10200000F894DEBF0FBECDBFDF91CF911F91089531
:102010000895CF938091F5048823A9F08091E90079
:102020008F709091EC0090FF02C090E801C090E0AA
:10203000C92FC82B1092E9008091E80083FD84DE4F
:10204000CF70C093E900CF910895CF93DF93EC0157
:102050004096FC018BE0DF011D928A95E9F782E052
:102060008C83898783E08E8761E0CE01019670DCE6
:10207000882361F061E0CE0106966ADC882331F0A6
:1020800061E0CE010B96DF91CF9162CC80E0DF91D1
:10209000CF910895CF93C62F2091F5042430F1F409
:1020A000FC014489558966897789452B462B472B46
:1020B000A9F081818F708093E9008091E80085FF0D
:1020C00004C0C093F10080E00AC08091E8008E77E0
:1020D0008093E8009DDC8823A1F301C082E0CF91CA
:1020E0000895FB01682F84859585D4DF882319F036
:1020F0002FEF3FEF02C020E030E0C90108952091AA
:10210000F504243051F5FC014489558966897789A5
:10211000452B462B472B09F181818F708093E90075
:102120003091F3002091F200932F80E0822B892BD5
:1021300011F480E008959091E8008091E8008E7796
:102140008093E80095FDF5CF63DC811107C0909185
:10215000E8009E779093E800089582E0089520912A
:10216000F504243089F4FC0144895589668977890E
:10217000452B462B472B41F021812F702093E900FE
:102180002091E80020FDBBCF08952091F504243074
:1021900019F02FEF3FEF2EC0FC0144895589668965
:1021A0007789452B462B472BA1F386818F7080932F
:1021B000E9008091E80082FFECCF3091F30020919C
:1021C000F200932F80E0822B892B21F02091F100E7
:1021D00030E002C02FEF3FEF5091F3004091F2004A
:1021E000952F80E0842B892B29F48091E8008B7750
:1021F0008093E800C9010895FC0184859585C5DFB9
:102200009C0197FF02C02EEF3FEFC9010895FB012B
:102210002EE0DB011D922A95E9F723E0238321E7D5
:1022200030E1318720872CEF30E133872287958793
:10223000848708950895CF93DF93EC018091E8009F
:1022400083FFA8C0888190E02091FA043091FB04BC
:102250002817390709F09EC08091F704813261F098
:1022600020F4803209F096C03DC0823209F46EC07D
:10227000833209F08FC07EC08091F604813A09F064
:1022800089C08091E800877F8093E8008091E80012
:1022900080FFFCCF4C895D896E897F894093F10076
:1022A000BB27A72F962F852F8093F100CB01AA275C
:1022B000BB278093F100472F552766277727409348
:1022C000F100888D8093F100898D8093F1008A8DD3
:1022D0008093F1008091E8008E778093E800DF9191
:1022E000CF9175CB8091F604813209F053C0809173
:1022F000E800877F8093E80005C08091F50488237B
:1023000009F448C08091E80082FFF7CF3091F100D6
:102310002091F1009091F1008091F1003C8B2D8B88
:102320009E8B8F8B8091F100888F8091F100898F37
:102330008091F1008A8F8091E8008B778093E8008C
:1023400046DBCE01DF91CF910C949E028091F60482
:10235000813201F58091E800877F8093E80037DBC8
:102360008091F8049091F904998B888BCE01DF91CC
:10237000CF9160CF8091F604813261F48091E800C2
:10238000877F8093E80023DB6091F804CE01DF9122
:10239000CF9150CFDF91CF910895CF93DF93EC0190
:1023A0008091E80083FF35C0888190E02091FA0495
:1023B0003091FB042817390761F58091F7048E3FAF
:1023C00079F08F3F31F58091F604813211F58091DB
:1023D000E800877F8093E800FADA81E088AF19C0CF
:1023E0008091F604813AA9F48091E800877F809378
:1023F000E8008091E80080FFFCCF8B8581508093BE
:10240000F1008091E8008E778093E800DF91CF9112
:10241000DECADF91CF910895CF93DF93EC010C9644
:10242000FC018DE2DF011D928A95E9F782E08C8341
:10243000898761E0CE0101968BDA882331F061E073
:10244000CE010696DF91CF9183CA80E0DF91CF91D4
:102450000895EF92FF920F931F93CF93DF9300D0D5
:10246000CDB7DEB78C018091F504843009F002C14C
:10247000F80186818F708093E9008091E80082FFE7
:10248000BFC086818F708093E9001A82198278011B
:10249000FCE0EF0EF11C03C080AD8111B1C0AE01B4
:1024A0004F5F5F4F6FE070E0C7010FD9F8018530D3
:1024B00099F384859585A685B78585359345A2448E
:1024C000B34469F4F801918D8385981740F4808DA9
:1024D0008F7129F4828D882311F0813180F08091F1
:1024E000EB0080628093EB00F80181818F70809314
:1024F000E9008091EB0080628093EB0081C01A823A
:1025000019827801FBE1EF0EF11C04C0F80180ADE7
:10251000811176C0F801628DAE014F5F5F4F70E0B0
:10252000C701D3D8853091F38091E8008B778093F1
:10253000E800F801808D87FF04C081818F7080934F
:10254000E900C8010E94720291E09827F80197AB58
:1025500045E553E562E473E543A754A765A776A76D
:10256000408951896289738947A750AB61AB72ABCF
:10257000448955896689778943AB54AB65AB76ABA3
:10258000811109C0452B462B472B29F08091EB0088
:1025900080628093EB00F80186818F708093E90060
:1025A00003C080AD81112CC08091EB00F80185FD46
:1025B000F8CF81818F708093E90004C0F80180AD6D
:1025C00081111EC08091EB0085FDF8CF1A8219821F
:1025D0007801FBE2EF0EF11C04C0F80180AD81111F
:1025E0000FC0AE014F5F5F4F6DE070E0C7010E940A
:1025F000C40A853091F38091E8008E778093E800DB
:10260000F80180AD8823B1F126812F7081E090E040
:10261000AC0102C0440F551F2A95E2F74093EA002F
:102620001092EA0021812F70022E01C0880F0A94B7
:10263000EAF78093EA001092EA0086818F70809317
:10264000E9008091EB0080618093EB008091EB00CA
:1026500088608093EB0081818F708093E900809186
:10266000EB0080618093EB008091EB0088608093A9
:10267000EB0010AE0F900F90DF91CF911F910F9153
:10268000FF90EF900895FB01DC0102C001900D92D4
:0C26900041505040D8F70895F894FFCF57
:10269C000284400000010540000001010000000020
:1026AC00000000000000000000000000000000001E
:1026BC00000000000000000000000000000000000E
:1026CC000000000000000000000082100000010368
:1026DC001000000181080000010000000000000053
:1026EC0000000000700000000000000A0000000064
:1026FC00000000000000008000021F0000004C558C
:10270C0046410000000044617461666C617368208E
:0A271C004469736B0000302E30306A
:00000001FF
